:020000040800F2
:10000000D8340020350200084D23000815200008D0
:10001000F1210008D514000819390008000000007B
:10002000000000000000000000000000312800086F
:10003000EB19000800000000DD240008C52B0008B3
:100040004F0200084F0200084F0200084F0200084C
:100050004F0200084F0200084F0200084F0200083C
:100060004F0200084F020008751C00084F020008EC
:100070004F0200084F0200084F0200084F0200081C
:100080004F0200084F0200084F0200084F0200080C
:100090004F0200084F0200084F0200084F020008FC
:1000A0004F0200084F0200084F0200084F020008EC
:1000B000852D00084F0200084F0200084F0200087B
:1000C0004F0200084F0200084F0200084F020008CC
:1000D0004F0200089134000849350008D93500085E
:1000E0004F0200084F0200084F0200084F020008AC
:1000F0004F0200084F0200084F0200084F0200089C
:100100004F0200084F0200084F0200084F0200088B
:100110004F0200084F0200084F0200084F0200087B
:100120004F0200084F0200084F0200084F0200086B
:100130004F0200084F0200084F0200084F0200085B
:100140004F0200084F0200084F0200084F0200084B
:100150004F0200084F0200084F0200084F0200083B
:100160004F0200084F0200084F0200084F0200082B
:100170004F0200084F0200084F0200084F0200081B
:100180004F0200084F02000800F002F800F042F8A9
:100190000AA090E8000C82448344AAF10107DA45E2
:1001A00001D100F037F8AFF2090EBAE80F0013F0F2
:1001B000010F18BFFB1A43F001031847DC6200006F
:1001C000FC620000103A24BF78C878C1FAD8520700
:1001D00024BF30C830C144BF04680C6070470000C1
:1001E0000023002400250026103A28BF78C1FBD840
:1001F000520728BF30C148BF0B60704700207047CE
:100200001FB505F0EEFF9DE8030000F035FC1FBDB3
:1002100010B510BD00F0C9FC1146FFF7F1FF04F066
:1002200089FF00F0E7FC03B4FFF7F2FF03BC04F022
:1002300003FF00000948804709480047FEE7FEE742
:10024000FEE7FEE7FEE7FEE7FEE7FEE7FEE7FEE786
:1002500004480549054A064B70470000DD2B00089D
:1002600089010008D82E0020D8340020D830002082
:10027000D830002010B5044600BF00BF00BF00BF4B
:10028000002CFDD000BF00BF00BF0029FDD000BF83
:1002900000BF00BF002AFDD000BF00BF00BF002B81
:1002A000FDD000BF72B6216002FB0310401E6060EB
:1002B000A3600020E06022746161A16162B6002049
:1002C00010BD2DE9F04104460D460026002700BF71
:1002D00000BF002CFDD000BF00BF00BF002DFDD02F
:1002E00000BF1C2000F099FA064616B90020BDE8B0
:1002F000F08104FB05F000F090FA07460FB90020EA
:10030000F5E72B46224639463046FFF7B3FF304625
:10031000EDE710B5044600BF00BF002CFDD000BFC4
:1003200000BF00BF20680028FCD000BF206800F09C
:10033000A3FA204600F0A0FA10BD034600BF00BF9C
:1003400000BF00BF002BFDD000BF00BF00BF0029D1
:10035000FDD000BF00BF00BF002AFDD000BF72B6B5
:1003600019608818401E58609A600020D860196192
:10037000596162B60020704770B50446002500261A
:1003800000BF00BF002CFDD000BF182000F045FAD0
:1003900005460DB9002070BD204600F03EFA064625
:1003A0000EB90020F7E7224631462846FFF7C5FF81
:1003B0002846F0E710B5044600BF00BF002CFDD072
:1003C00000BF00BF00BF20680028FCD000BF20682D
:1003D00000F052FA204600F04FFA10BD30B5024648
:1003E00000230C4600BF00BF00BF00BF002AFDD0A5
:1003F00000BF00BF00BF0029FDD000BF906810B94A
:100400004FF0FF3030BD002310E055689069A842DE
:1004100001D91068906114F8010B9569287072B6C3
:100420009069401C906162B6581CC3B2107C98421F
:10043000EBDC72B69068401E9060D068401CD060C3
:1004400062B60020DEE7024600BF00BF00BF00BF6B
:10045000002AFDD000BF906810B94FF0FF30704700
:1004600072B650695368984201D91068506150695A
:1004700001705069401C50619068401E9060D068C7
:10048000401CD06062B60020E9E770B503460C4618
:10049000002500BF00BF00BF00BF002BFDD000BF84
:1004A000986810B94FF0FF3070BD002119E09868CE
:1004B00010B94FF0FF3516E072B65E685869B04269
:1004C00001D918685861605C5E6930705869401CD9
:1004D00058619868401E9860D868401CD86062B621
:1004E000491C9142E3D300BF2846DDE730B5024600
:1004F00000230C4600BF00BF00BF00BF002AFDD094
:1005000000BF00BF00BF0029FDD000BFD06810B9F8
:100510004FF0FF3030BD002310E055685069A8420D
:1005200001D9106850615069007804F8010B72B667
:100530005069401C506162B6581CC3B2107C98428E
:10054000EBDC72B69068401C9060D068401ED060B2
:1005500062B60020DEE70146002000BF00BF00BFFA
:1005600000BF0029FDD000BF72B60A694B689A42ED
:1005700001D90A680A610A6910780A69521C0A617D
:100580008A68521C8A60CA68521ECA6062B6704786
:1005900070B5024600230C4600BF00BF00BF00BF7D
:1005A000002AFDD000BF00BF00BF0029FDD000BF62
:1005B000D06810B94FF0FF3070BD72B6167CD068AD
:1005C000401E556906FB00501568451BD2E90060C6
:1005D000801B401CB5FBF0F600FB16501568284444
:1005E0005061D2E90250401E284490600120D06042
:1005F00062B6002310E055685069A84201D910681E
:1006000050615069007804F8010B72B65069401CC3
:10061000506162B6581CC3B2107C9842EBDC72B6D3
:100620009068401C9060D068401ED06062B6002088
:10063000C2E710B50146002000BF00BF00BF00BFE9
:100640000029FDD000BF72B6D1E903321A44521E10
:100650000B68D31AD1E90042121B521CB3FBF2F40F
:1006600002FB14320B681A440A610A691078D1E956
:1006700002231A448A600022CA6062B610BD70B5B7
:1006800003460C46154600222E46002100BF00BF3F
:10069000002BFDD000BF00BF00BF002DFDD000BF6C
:1006A000D868A04202D84FF0FF3070BD59690022CF
:1006B00006E05868884200D21968491C501CC2B232
:1006C000187C60439042F4DC002209E058688842BC
:1006D00000D21968087806F8010B491C501CC2B2F8
:1006E000187C9042F2DC0020DFE710B502460B4692
:1006F0000024002100BF00BF002AFDD000BF116907
:10070000002406E05068884200D21168491C601C31
:10071000C4B29C42F6DB087810BD014600BF00BFA2
:100720000029FDD000BFC86808B90120704700202B
:10073000FCE7014600BF00BF0029FDD000BFC8682C
:1007400008B9012070470020FCE7014600BF00BF48
:100750000029FDD000BF886808B90120704700203B
:10076000FCE7014600BF00BF0029FDD000BF88683C
:1007700008B9012070470020FCE7014600BF00BF18
:100780000029FDD000BFC8687047014600BF00BF08
:100790000029FDD000BFC8687047014600BF00BFF8
:1007A0000029FDD000BF88687047014600BF00BF28
:1007B0000029FDD000BF88687047014600BF00BF18
:1007C00000BF00BF0029FDD000BF72B6D1E90020F4
:1007D000801A0A7C90FBF2F088600020C8600868EC
:1007E00048610868886162B600207047014600BF12
:1007F00000BF00BF00BF0029FDD000BF72B6D1E925
:100800000020801A88600020C860086808610868B5
:10081000486162B600207047704770B5064600F028
:100820000FF9056806F10B0020F00704B4429CBFE5
:10083000002070BD2B466A68BAB11068A04210D380
:1008400004F1080188423CBF5068586007D35168E2
:10085000101941601168091B016058601460101D77
:1008600070BD13465268002AE7D12146284600F0A1
:10087000EFF80028DED170BD70B50446051F00F00A
:10088000DFF80068002C14BF446870BD002C18BF4E
:10089000AC423CBF20466468F8D301680A18AA42FB
:1008A00018BF456003D12A680546114401602868D5
:1008B0004119A1421CBF6C6070BD6168696021680C
:1008C0000844286070BD00000FB4044910B503AAA5
:1008D000029800F013F910BC5DF814FBA000002092
:1008E0002DE9F0410E460446002020622046E168D2
:1008F000884730B3252805D0D4E901219047206AE4
:10090000401CF2E7E168204600278847050018D020
:10091000A5F14100192802D820354FF4006732466E
:10092000294620462760FFF769FC40B1012804D022
:10093000F61D26F007060836D8E7361DD6E7284606
:10094000DAE7206ABDE8F081032A40F2308010F037
:10095000030C00F0158011F8013BBCF1020F62445A
:1009600098BF11F801CB00F8013B38BF11F8013BEB
:10097000A2F1040298BF00F801CB38BF00F8013B98
:1009800011F0030300F02580083AC0F0088051F808
:10099000043B083A51F804CBA0E80810F5E7121D13
:1009A0005CBF51F8043B40F8043BAFF30080D20732
:1009B00024BF11F8013B11F801CB48BF11F8012BFE
:1009C00024BF00F8013B00F801CB48BF00F8012B21
:1009D000704710B5203AC0F00B80B1E81850203AAB
:1009E000A0E81850B1E81850A0E81850BFF4F5AFCF
:1009F0005FEA027C24BFB1E81850A0E8185044BF59
:100A000018C918C0BDE810405FEA827C24BF51F8C5
:100A1000043B40F8043B08BF7047D20728BF31F8B9
:100A2000023B48BF11F8012B28BF20F8023B48BF0A
:100A300000F8012B704770477047704770470000FF
:100A4000004870477C2E0020704770477047704701
:100A500038B504460A4600206946AFF300800028F6
:100A600008BF38BD02460099204600F061F8012019
:100A700038BD012000F092B8F8B5AFF3008005460C
:100A800000200C46102000BF0646A819A0420DD930
:100A9000324669460020AFF30080070008BF00F02F
:100AA0007DF80098A04218BF0546C419FFF7C8FF9B
:100AB00005600746F01D20F007004619284600F0A3
:100AC0000AF8B44208BFF8BDA21B31463868BDE839
:100AD000F84000F02DB800210160C0E90110704716
:100AE0001020704710B500F01FF8006810BD10B559
:100AF000044600F019F8046010BD0000074B70B503
:100B00000D467B4400F033F80446284600F042F8D6
:100B100010B14FF0FF3070BD204670BD134600008D
:100B200000487047742E002000487047742E002043
:100B3000034640688C46002818BF88423CBF0346E5
:100B40004068F8D318681844884207D00CF10300B5
:100B500020F00700001D411A521A0146081D0A60C4
:100B6000FFF78ABE01694A1C02610878704700B528
:100B70008FB0CDE901310021059105497944CDE9D6
:100B8000031011466846FFF7ABFE0FB000BD000032
:100B9000E5FFFFFF007B00F08000704710B500F01C
:100BA00037F8BDE8104000F02EB87546FFF7B8FFE3
:100BB000AE4605006946534620F00700854618B04A
:100BC00020B5FFF745FBBDE820404FF000064FF091
:100BD00000074FF000084FF0000B21F00701AC4672
:100BE000ACE8C009ACE8C009ACE8C009ACE8C00991
:100BF0008D46704710B50446AFF300802046BDE82F
:100C00001040FFF710BB002801D004F015BA704760
:100C100010B5012805D0002103A000F021F8012023
:100C200010BD09A1F8E7000053494752544D454D06
:100C30003A204F7574206F662068656170206D657D
:100C40006D6F7279000000003A2048656170206D78
:100C5000656D6F727920636F727275707465640070
:100C600070B505460C460A2000E06D1C04F0E6F95C
:100C700035B128780028F8D102E0641C04F0DEF9D0
:100C800014B120780028F8D1BDE870400A2004F0A3
:100C9000D5B9000070B504460E460025002004E0DA
:100CA000215C2944CDB2411CC8B2711E8142F7DCDF
:100CB000A01910F8010CA84200D070BD2078AA2815
:100CC00002D16078AF2800D0F7E7A07801280FD1D3
:100CD000207901280CD02079032809D02079042814
:100CE00006D02079212802DB2079262800DD00BFEC
:100CF000A078022810D12079012806D1B249C87104
:100D0000087248728872C87208732079A02802D1CC
:100D10000120AD49C87000BFA07810285ED12079AD
:100D2000000200B26179084300EE100AB8EEC00A72
:100D300010EE100AA5490860A079000200B2E1791E
:100D4000084300EE100AB8EEC00A10EE100A9F49E0
:100D50004860207A000200B2617A084300EE100A6F
:100D6000B8EEC00A10EE100A98498860A07A000216
:100D700000B2E17A084300EE100AB8EEC00A10EEA5
:100D8000100A93490860207B000200B2617B08438F
:100D900000EE100AB8EEC00A10EE100A8C49486046
:100DA000A07B000200B2E17B084300EE100AB8EE1F
:100DB000C00A10EE100A864988608348807838B9E6
:100DC000012081498870A0788249087082480570A6
:100DD0007E4804F0F3F97E4804F0F0F9A078112879
:100DE0005ED12079000200B26179084300EE100A5A
:100DF000B8EEC00A10EE100A78490860A079000227
:100E000000B2E179084300EE100AB8EEC00A10EE15
:100E1000100A72494860207A000200B2617A0843E1
:100E200000EE100AB8EEC00A10EE100A6B49886096
:100E3000A07A000200B2E17A084300EE100AB8EE90
:100E4000C00A10EE100A66490860207B000200B25A
:100E5000617B084300EE100AB8EEC00A10EE100ADB
:100E60005F494860A07B000200B2E17B084300EECE
:100E7000100AB8EEC00A10EE100A594988605248AC
:100E8000807838B9012050498870A078514908709D
:100E9000514805704D4804F091F94D4804F08EF921
:100EA000A07812285ED12079000200B2617908434F
:100EB00000EE100AB8EEC00A10EE100A49490860A8
:100EC000A079000200B2E179084300EE100AB8EE02
:100ED000C00A10EE100A44494860207A000200B2AD
:100EE000617A084300EE100AB8EEC00A10EE100A4C
:100EF0003D498860A07A000200B2E17A084300EE22
:100F0000100AB8EEC00A10EE100A37490860207BBC
:100F1000000200B2617B084300EE100AB8EEC00A7E
:100F200010EE100A30494860A07B000200B2E17B5D
:100F3000084300EE100AB8EEC00A10EE100A2A4963
:100F400088602148807838B901201F498870A078CE
:100F500020490870204805701C4804F02FF91C48EF
:100F600004F02CF9A07813280FD11748807838B9ED
:100F7000012015498870A078164908701648057038
:100F800001F050FA012019490880A07814280AD1EC
:100F90000D48807838B901200B498870A0780D4938
:100FA00008700D480570A07815280AD10648807889
:100FB00038B9012004498870A078064908700648AD
:100FC000057000BF79E600004C210020942A002023
:100FD000C92A00208600002087000020332B002033
:100FE000FE2A0020D22B00209D2B0020880000200C
:100FF00010B504463448007838B9AA2C05D1012030
:1010000031490870314804705DE02F4800780128AC
:1010100007D1AF2C05D102202B4908702B48447012
:1010200051E029480078022807D1F12C05DA032085
:10103000254908702548847045E023480078032836
:101040000CD1322C0ADA04201F4908701F48C470E2
:101050001F48047000201F49087034E01A480078C7
:10106000042819D11A480078002815DD184800789E
:10107000401E174908701748007816490978491C1E
:10108000144A1170001D11490C5411480078D0B950
:1010900005200D49087016E00B48007805280FD18F
:1010A0000020094908700B480078001D07490C54BE
:1010B00008480078401DC1B20448FFF7EBFD02E08C
:1010C00000200149087010BD8C00002092210020F2
:1010D0008A0000208B00002070B505460C46214692
:1010E000014802F091FC70BD602100202DE9F84F0D
:1010F00005460E4617469846DDE90AAB0024AA22AB
:101100002146641C5F4842542146641C425402221A
:101110002146641C425400222146641C425400951E
:101120009DF801202146641C42549DF80020214670
:10113000641C425400969DF801202146641C4254D0
:101140009DF800202146601CC4B24E4842540097CE
:101150009DF801202046611CCCB24A490A549DF8F2
:1011600000202046611CCCB246490A54CDF80080CC
:101170009DF801202046611CCCB242490A549DF8DA
:1011800000202046611CCCB23E490A54CDF800A094
:101190009DF801202046611CCCB23A490A549DF8C2
:1011A00000202046611CCCB236490A54CDF800B06C
:1011B0009DF801202146601CC4B2324842549DF87B
:1011C00000202146601CC4B22E4842540C98009066
:1011D0009DF801202046611CCCB22A490A549DF892
:1011E00000202046611CCCB226490A540D9800907C
:1011F0009DF801202046611CCCB222490A549DF87A
:1012000000202046611CCCB21E490A540E98009062
:101210009DF801202046611CCCB21A490A549DF861
:1012200000202046611CCCB216490A5400200090D0
:101230009DF801202046611CCCB212490A549DF849
:1012400000202046611CCCB20E490A54201FC870F1
:101250004FF00009002006E00A49095C494401F00A
:10126000FF09411CC8B2A042F6DB2046611CCCB28B
:10127000044901F8009021460248FFF72DFFBDE820
:10128000F88F00006021002000B5E3B04FF4C47275
:10129000324901A8FFF79DFB9DF804005A2809D1A7
:1012A00001202F4908704FF4C47201A92D48FFF79F
:1012B0004BFB07E000202A4908702A49C1F80100C9
:1012C0005A200870274890F836005A281DD000216F
:1012D000244880F8361000202249888400212148C3
:1012E000C1840185B7EE000A10EE100A1D49C1F84D
:1012F0002A00B7EE000A10EE100AC1F82E00B7EE71
:10130000000A10EE100AC1F83200164890F84900A1
:101310005A2820D00021134880F849100020114994
:10132000A1F8370000210F48A0F83910A0F83B10B1
:10133000B7EE000A10EE100A0A49C1F83D00B7EEF8
:10134000000A10EE100AC1F84100B7EE000A10EED4
:10135000100AC1F8450063B000BD000000000E088F
:10136000B8000020C028002010B501244FF4C4723A
:101370000349044800F058F80446204610BD000018
:10138000C028002000000E0801461C48814201D2FE
:10139000002070471A48814201D20820F9E7194815
:1013A000814201D21020F4E71748814201D218206F
:1013B000EFE71648814201D22020EAE71448814233
:1013C00001D22820E5E71348814201D23020E0E72E
:1013D0001148814201D23820DBE71048814201D216
:1013E0004020D6E70E48814201D24820D1E70D487F
:1013F000814201D25020CCE75820CAE700400008C3
:101400000080000800C00008000001080000020879
:1014100000000408000006080000080800000A0890
:1014200000000C0800000E082DE9FC5F04460D4684
:1014300090464FF009090120019000264FF0000A64
:1014400000274FF0000B00200090B4F1006F01D294
:10145000BDE8FC9F00F0E2FC002000F02FFC2646D7
:1014600004EB080A3046FFF78FFF83465046FFF72C
:101470008BFF00901648864211D25F460BE0022196
:10148000384600F02DFC8146B9F1090F02D000204A
:10149000019003E0083700988742F0D900BFB9F106
:1014A000090F0ED10AE02978204600F091FC0928A6
:1014B00002D00020019003E0641C6D1C5445F2D35F
:1014C00000BF012000F0FAFB00F078FC0198BFE7B4
:1014D0000000FF1F00BFFEE710B5102000F09CFDCC
:1014E00060B100F069FE0446002C44D0012C42D0CB
:1014F000022C40D1102001F093F93CE0202000F0B4
:101500008BFD88B100F0C2FD0446A4B3012C32D09B
:10151000022C30D1184801F0BDF9184801F08AF9C1
:10152000202001F07DF926E04FF4805000F074FD9A
:1015300058B103F02DFF0446ECB1012C1BD0022C56
:1015400019D1C00201F06CF915E04FF4005000F021
:1015500063FD80B103F086FE044664B1012C0AD01D
:10156000022C08D1064803F02FFF044801F062F96D
:10157000200301F055F910BD482A0020C0280020A2
:101580006E2A00206E4890ED000A6E48D0ED000AE9
:1015900030EE600A6C48D0ED000A30EE600A10EEC2
:1015A000100A6A49C8600846006800EE100A08463A
:1015B000C06800EE900A20EE200A10EE100A886142
:1015C0000846C06800EE100AF2EE040AB4EEE00A23
:1015D000F1EE10FA02DD0020086345E001205B49CE
:1015E00008630846C06900EE100A0846406800EE2D
:1015F000900A0846C06801EE100A00EE810A10EE5B
:10160000100AC8610846C06900EE100A0846806AE0
:1016100000EE900AB4EEE00AF1EE10FA02DD0846A0
:10162000806A01E04948C0694849C8610846C06904
:1016300000EE100A0846806A00EE900AF1EE600A99
:10164000B4EEE00AF1EE10FA06D20846806A00EE27
:10165000100AB1EE400A03E03C48C06900EE100AEF
:1016600010EE100A3949C8613848C06800EE100A07
:101670003648006900EE900A70EE600A33488068D0
:1016800000EE100A20EE800A10EE100A2F490862C0
:101690000846806900EE100A0846006B00EE900ACA
:1016A000B8EEE01A0846C06900EE900A01EE200A82
:1016B0000846006A00EE900A30EE200A10EE100A8A
:1016C00048620846406A00EE100A0846C06A00EE0A
:1016D000900AB4EEE00AF1EE10FA02DD0846C06AA4
:1016E00001E01A48406A194948620846406A00EE1B
:1016F000100A0846C06A00EE900AF1EE600AB4EEE5
:10170000E00AF1EE10FA06D20846C06A00EE100AAE
:10171000B1EE400A03E00D48406A00EE100A10EEF8
:10172000100A0A4948620846C06808610846406ACB
:1017300000EE100ABDEEC00A10EE100A00B27047AB
:10174000C4000020CC000020D4000020332B002057
:1017500010B5002404E0204600F01AFC601CC4B25E
:10176000052CF8DB10BD00000246094B9A4201D25D
:10177000084801E00648103801F000531BB1064B41
:101780000B40C36002E0044B0B40836070470000D5
:1017900010640240006002407D0F7D0F21B102689D
:1017A00042F00102026003E0026822F001020260DE
:1017B00070470000016821F0010101600021016013
:1017C00041608160C1600161212141614A498842D3
:1017D00004D13D21484A103A91608CE046491831C5
:1017E000884205D14FF47461434A103A916082E017
:1017F00041493031884205D14FF474113E4A103AC4
:10180000916078E03C494831884205D14FF07461DD
:10181000394A103A91606EE037496031884204D10C
:101820003649354A103AD16065E03349783188420B
:1018300004D13349304A103AD1605CE02E499031EE
:10184000884204D12F492C4A103AD16053E02A49EA
:10185000A831884205D14FF03D51274A103AD16056
:1018600049E02949884204D13D21274A083A1160BC
:1018700041E025491831884205D14FF47461224A6C
:10188000083A116037E020493031884205D14FF4E1
:1018900074111D4A083A11602DE01B4948318842F5
:1018A00005D14FF07461184A083A116023E01649D7
:1018B0006031884204D11149134A121F11601AE0A5
:1018C00011497831884204D10D490F4A121F116025
:1018D00011E00D499031884204D10A490A4A121F89
:1018E000116008E00849A831884204D14FF03D5109
:1018F000054A121F11607047106002403D00002031
:10190000400F002000003D201064024021B1026819
:1019100042F48022026003E0026822F48022026026
:10192000704722B1036843F40023036003E00368B7
:1019300023F40023036001617047014600200A6818
:1019400002F001020AB1012000E0002070470146C8
:10195000486880B27047014600200A6802F40022FD
:101960000AB1012000E000207047000010B50022FD
:101970000268134B1A40CC680B6823434C6923431D
:101980008C692343CC6923430C6A23434C6A234369
:101990008C6A23434C6B23438C6B23431A430260B2
:1019A000426922F00702D1E90B3423431A43426112
:1019B0000B6943604B6883608B68C36010BD000097
:1019C0003F801CF0416070470021016041608160F0
:1019D000C160016141618161C161016241628162F5
:1019E000C16201634163816370477047704770470C
:1019F0007047000010B52DED088B86B03C49B1F959
:101A0000100004F020F841EC1B0B9FED3A1BB0EEE8
:101A10004B0AF0EE6B0A02F03FF8B0EE409AF0EE9F
:101A2000609A3349B1F90E0004F00DF841EC1B0B3C
:101A30009FED301BB0EE4B0AF0EE6B0A02F02CF873
:101A4000B0EE40AAF0EE60AA53EC192B51EC1A0B41
:101A500003F088FD41EC180B03F052FD27490860A4
:101A6000274890ED020ABDEEC00A10EE100A00B23F
:101A7000234991ED010ABDEEC00A10EE101A09B219
:101A80001F4A92ED000ABDEEC00A10EE102A12B2F3
:101A90001C4B1B681BB2CDE90132CDE9031019487C
:101AA000001F006800B2174C083C0090246823B265
:101AB000154C94ED020ABDEEC00A10EE104A22B297
:101AC000114C94ED010ABDEEC00A10EE104A21B28D
:101AD0000D4C94ED000ABDEEC00A10EE104A20B283
:101AE000FFF704FBFFF7F8FC06B0BDEC088B10BD58
:101AF00014260020000000000000004050000020DC
:101B0000B42800203C040040082600207047000054
:101B100010B52DED048B9FED2C0A2C4880ED000AAA
:101B20002B4890ED020A2B4880ED000AFFF72AFDB2
:101B300000EE100AB8EEC00A274880ED000A90EDCA
:101B4000000ADFED260AB4EEE00AF1EE10FA02DD3B
:101B50009FED220A0FE0204890ED000ADFED200AF9
:101B6000B4EEE00AF1EE10FA02D29FED1D0A02E097
:101B7000194890ED000A184880ED000A006804F04A
:101B8000BFFA41EC190BB0EE490AF0EE690A01F018
:101B900079FFB0EE408AF0EE608A51EC180B03F04A
:101BA00025FF84B20C4991ED000AB5EEC00AF1EEB2
:101BB00010FA01DD012100E000210846214600F075
:101BC00019FBBDEC048B10BD00000000C400002018
:101BD00008260020CC0000204C0000200000164405
:101BE000000016C410B52048007801283BD11F48DA
:101BF000008800B21E490880FFF7F9FE1A48B0F9C4
:101C00000400022804DB002017498880FFF7F2FE59
:101C10001548B0F90600052804DB00201249C880E9
:101C2000FFF776FF1048B0F908000A2804DB00200F
:101C30000D490881FFF7DAFE0B48B0F90A001428B5
:101C400004DB002008494881FFF7D2FE0648B0F9BE
:101C50000C00322804DB002003498881FFF756FF7F
:101C600000200149087010BDEC1000206400002025
:101C70004200002010B5102000F014F828B1102008
:101C800000F004F8102000F007F810BD01490860CA
:101C900070470000143C0140014908607047000093
:101CA000143C014001460020034A12680A400AB170
:101CB000012000E000207047143C014030B107498A
:101CC000096841F48061054A116005E0034909682B
:101CD00021F48061014A116070470000003C02401D
:101CE00070B504460A460026092502B909E0012A12
:101CF00001D1160205E0022A01D1160201E04FF4DB
:101D0000407600F09DF80546092D28D11548006859
:101D100020F44070134908600846006830430860AA
:101D20000846006820F0F80008600846006844F0A3
:101D3000020108430B4908600846006840F48030FF
:101D4000086000F07DF805460648006820F00200B3
:101D5000044908600846006820F0F800086028463A
:101D600070BD0000103C024009201349096801F4CD
:101D70008031B1F5803F01D101201CE00E49096896
:101D800001F0100109B1062015E00B49096801F4C2
:101D9000807109B102200EE00749096801F0EF01E6
:101DA00009B1072007E00449096801F0020109B1FF
:101DB000082000E0092070470C3C024003480068FE
:101DC00040F000400149086070470000103C0240AC
:101DD00030B502460C46092500F032F80546092DBB
:101DE00017D10D48006820F440700B490860084680
:101DF000006808600846006840F001000860147040
:101E000000F01EF805460448006820F00100024971
:101E10000860284630BD0000103C024005480068BC
:101E200000F0004028B1044802490C39086003481A
:101E300008607047103C024023016745AB89EFCD35
:101E400008B509200090FFF78FFF009002E0FFF730
:101E50008BFF00909DF800000128F8D09DF800004D
:101E600008BDF0B50A4600210023002400BF3DE074
:101E7000012505FA01F3156805EA03049C4234D1F3
:101E800005684F000326BE40B543056015794E0036
:101E9000B5400668354305601579012D02D01579E6
:101EA000022D16D185684F000326BE40B5438560DC
:101EB00055794E00B54086683543856045680126F2
:101EC0008E40B5434560456896798E40B6B235433D
:101ED0004560C5684F000326BE40B543C560D5794F
:101EE0004E00B540C6683543C560491C1029BFD3B4
:101EF000F0BDF0B5002300244D07ED0E02FA05F306
:101F0000CE1000F1200555F826504E07F70E0F268B
:101F1000BE40B543CF1000F1200646F82750CE1042
:101F200000F1200555F8265045EA0304CE1000F1D3
:101F3000200545F82640F0BD018370474FF6FF713C
:101F400001600021017141718171C1717047000010
:101F50000148007870470000E00000200B4A11683B
:101F60004FF0E02252694FF0E0239B69D21A4FF400
:101F70007A735A434FF0E0235B69B2FBF3F201EB53
:101F80004103C3EBC11302EBC300704754000020B0
:101F900010B5044604EB44001B4901EB800090EDB2
:101FA000000A04EB440001EB800080ED010AFFF71A
:101FB000D5FF00EE100AB8EE400A04EB44001249C7
:101FC00001EB800080ED000A04EB440001EB80008F
:101FD00090ED000A04EB440001EB8000D0ED010A13
:101FE00030EE600A04EB440001EB800080ED020A51
:101FF00004EB440001EB800090ED020ABCEEC00A45
:1020000010EE100A10BD0000101100204FF08040AB
:10201000406A704700BFFEE7014604480068084078
:1020200008B1012070470020FCE70000BC00002040
:102030001548C089401C1449C88108468088401C46
:1020400000B288800846C088401C00B2C88008469C
:102050000089401C00B2088108464089401C00B23B
:10206000488108468089401C00B288810846007873
:10207000012804D108464078401C487002E0012045
:102080000149087070470000EC10002010B544486A
:10209000B0F900004249B1F90610084400EE100AF8
:1020A000B8EEC00AF0EE000A80EE201ABDEEC10ABA
:1020B00010EE100A00B23B4908803948B0F902001E
:1020C0003749B1F90810084400EE100AB8EEC00A0A
:1020D000F0EE000A80EE201ABDEEC10A10EE100AE2
:1020E00000B2304948802E48B0F904002C49B1F9BB
:1020F0000A10084400EE100AB8EEC00AF0EE000A1A
:1021000080EE201ABDEEC10A10EE100A00B2254979
:102110008880B7EE000A10EE100AC1F806002048C9
:10212000B0F900001E49B1F90610401A00EE100A7D
:10213000F8EEC00A1A48B0F902001949B1F90810BE
:10214000401A00EE100AB8EEC01A80EE810A10EEB6
:10215000100A1449C1F80A001148B0F900001049EA
:10216000B1F90610401A00EE100AF8EEC00A0C4849
:10217000B0F904000A49B1F90A10401A00EE100A39
:10218000B8EEC01A80EE810A10EE100A0549C1F8B7
:102190000E005A20887404A0FEF796FB022010BDA2
:1021A00072270020482A00204D61672D63616C6909
:1021B00020656E640000000010B54FF470400749C0
:1021C0000880488088804FF48050C880088148810A
:1021D00003A0FEF779FB022010BD0000722700204B
:1021E0004D61672D63616C692073746172740000C6
:1021F00000BFFEE770B505460C46002C63D03248A0
:102200000088844215D03C2C09DA3C2090FBF4F085
:10221000401E2E49088001202D49088007E000203B
:102220002A4908803C2094FBF0F029490880264880
:1022300004802848008825490988884205DA25480D
:102240000088401C234908803DE000202149088087
:1022500000F048F8204800882049098808442049AF
:1022600049571B4A128801FB02001C49098890FB50
:10227000F1F201FB1200184908800846408817490E
:102280000988084416494957114A128801FB02007F
:102290001249098890FBF1F201FB12000E494880B7
:1022A000084680880D49098801440D484057084A6E
:1022B000128800FB02100949098890FBF1F201FB2A
:1022C00012000549888070BD7E000020800000203B
:1022D00084000020820000206C00002068000020A4
:1022E000E662000810B50C4800880C4A32F810105D
:1022F0000B4800F0D8FF08484088084A32F8101010
:10230000074800F0D2FF04488088044A32F81010D1
:10231000034800F0CCFF10BD6C0000204C110020E1
:102320000004004010B540F6B831A72000F03AFD97
:1023300010BD10B5FFF7D6FF10BD10B500F02EFB95
:10234000FFF7F0FFFFF7F5FF10BD70477047000083
:1023500070B5002100230F22C4781CB3174C2468E9
:1023600004F4E064C4F5E064C4F30721C1F104049B
:10237000E3B20A4144789C40E1B28478144021439E
:102380000C07210E0E4C05786155047804F01F05EA
:102390000124AC4005786D11AD0005F1E025C5F8CC
:1023A000004109E0047804F01F050124AC40054D0C
:1023B0000678761145F8264070BD00000CED00E06F
:1023C00000E400E080E100E002490143024A1160BC
:1023D000704700000000FA050CED00E010B504465F
:1023E000352204F14A010B48FEF7AEFA352204F11A
:1023F0007F010948FEF7A8FA352204F1B401074825
:10240000FEF7A2FA352204F1E9010548FEF79CFA2D
:1024100010BD0000072C00203C2C0020712C002057
:10242000A62C002010B52348FFF7D8FF22480068EB
:10243000224908602048406848601F4880688860DA
:102440009FED1F0A10EE100AC8609FED1D0A10EEE6
:10245000100A08619FED1B0A10EE100A88629FEDBA
:102460001A0A10EE100AC862012081F834001748D9
:10247000006817490860154840684860134880683C
:1024800088609FED0F0A10EE100AC8609FED0C0ADD
:1024900010EE100A08619FED0F0A10EE100A886214
:1024A0009FED0D0A10EE100AC862032081F8340077
:1024B00010BD0000C0280020072C0020942A002016
:1024C0000000000000C00F4500401C45712C00209A
:1024D000D22B00200000FA43000096447047000011
:1024E00029B1064A12680243044B1A6004E0034A09
:1024F00012688243014B1A60704700003038024076
:1025000029B1064A12680243044B1A6004E0034AE8
:1025100012688243014B1A60704700004038024045
:1025200029B1064A12680243044B1A6004E0034AC8
:1025300012688243014B1A60704700002038024045
:1025400029B1064A12680243044B1A6004E0034AA8
:1025500012688243014B1A60704700004438024001
:1025600029B1064A12680243044B1A6004E0034A88
:1025700012688243014B1A60704700002438024001
:10258000F0B5002100220024022500260223324F4C
:102590003F6807F00C0121B1042905D0082937D183
:1025A00005E02E4F076036E02D4F076033E02A4FDD
:1025B0003F1F3F68C7F38056274F3F1F3F6807F014
:1025C0003F036EB1264FB7FBF3F7DFF88CC0ACF1D9
:1025D000040CDCF800C0CCF3881C07FB0CF40CE006
:1025E0001E4FB7FBF3F7DFF870C0ACF1040CDCF85A
:1025F00000C0CCF3881C07FB0CF4174F3F1F3F684B
:10260000C7F301477F1C7D00B4FBF5F7076002E0CC
:10261000124F076000BF00BF0F4F3F6807F0F00187
:102620000909104F7A5C0768D74047600A4F3F6836
:1026300007F4E051890A0B4F7A5C4768D7408760FE
:10264000054F3F6807F46041490B064F7A5C4768C5
:10265000D740C760F0BD0000083802400024F400F5
:1026600000127A00A600002010B52DED048B044660
:10267000B4F90010A1F5806003F0E5F941EC190B05
:102680009FED2D0B53EC102B03F044FA41EC180B8B
:1026900003F07CF92A490860B4F90210481E03F0DF
:1026A000D2F941EC190B9FED240B53EC102B03F0E6
:1026B00031FA41EC180B03F069F9214948602148CF
:1026C000406B096808441F4948630846806B1C49F1
:1026D000496808441B4988630846406BB0F5FA7F97
:1026E00003D84FF4FA70486308E01648406BB0F521
:1026F000166F03D34FF41660124948631148806B7C
:10270000B0F5FA7F04D84FF4FA700E49886308E0F8
:102710000C48806BB0F5166F03D34FF4166009496F
:1027200088630848406B064988600648806BC8602B
:10273000BDEC048B10BD00009A9999999999B93F05
:10274000242D00200000014010B5044604B910BD3E
:102750002078617840EA0120C0F30A002F49088000
:102760006078C010A17840EA4110C0F30A002B49FC
:102770004880A0788011E17840EA8100217940EA20
:102780008120C0F30A0025498880207940106179B2
:1027900040EAC110C0F30A002049C88060790011E6
:1027A000800808726079C0F301104872A079E1795D
:1027B00040EA012000B219494881207A617A40EA52
:1027C000012001B215488181A07AE17A40EA012016
:1027D00001B21248C181217B8174617BC174A07BED
:1027E0000E498882084600F041F8FFF7B1FB012846
:1027F00004D002280DD003280CD103E00748FFF7CE
:1028000033FF07E005491431A1F10A00FFF79DFDF0
:1028100000E000BF00BF00BF99E70000DC2C0020F3
:10282000024909688143014A11607047BC000020D9
:102830007047000010B50446132204F12401054836
:10284000FEF782F8132204F137010348FEF77CF803
:1028500010BD00005B2A0020812A0020024909687F
:102860000143014A11607047BC000020417A0129F0
:1028700002D1074A11700AE0417A032902D1044AC1
:10288000117004E0417A022901D1014A11707047A8
:10289000E000002010B5044634B11322214603485D
:1028A000FEF752F8FEF760FD10BD0000E42800209E
:1028B0000CB50020019000903448006840F480304E
:1028C0003249086000BF3148006800F400300090D1
:1028D0000198401C0190009818B90198B0F5A04FDC
:1028E000F1D12A48006800F4003010B101200090B6
:1028F00001E0002000900098012846D12348403094
:10290000006840F08050214940310860204800684C
:1029100040F440401E4908601C48083000681B49CC
:10292000083108600846006840F400400860084626
:10293000006840F4A05008601648091F0860081F8E
:10294000006840F08070091F086000BF0F480068F1
:1029500000F000700028F9D040F205700E490860C0
:102960000A480830006820F0030008490831086070
:102970000846006840F00200086000BF03480830C5
:10298000006800F00C000828F8D10CBD00380240A7
:102990000070004008544007003C024010B52DED87
:1029A000108B84B000244FF496605149088008468B
:1029B0000088032190FBF1F04E49088000204E4929
:1029C0000880084600884B49098808444A494880DD
:1029D00008464088474909880844474988800020BC
:1029E0004649088008460088424909880844434906
:1029F0004880084640883F49098808443F49888004
:102A000000203F490880084600883A490988084460
:102A10003B49488008464088364909880844384977
:102A2000888000BF5BE03248008803F023F841EC67
:102A30001E0B601C03F007F841EC1F0B9FED310BE0
:102A400053EC102B03F066F853EC1E2BCDE900017C
:102A50009DED000B51EC100B02F040FE41EC1D0B04
:102A60009FED2A0B53EC102B03F054F841EC1C0B98
:102A70009FED280B53EC102B03F04CF841EC1B0B93
:102A8000B0EE4B0AF0EE6B0A01F02EFEB0EE40AA5B
:102A9000F0EE60AA9FED1B0B53EC102B51EC1A0BC0
:102AA00002F060FD41EC190B9FED1C0B53EC102B59
:102AB00003F030F841EC180B9FED1A0B53EC102B80
:102AC00002F00CFECDE902019DED020B51EC100B62
:102AD00002F08CFF154921F81400601C84B20448F0
:102AE000008884429FDB04B0BDEC108B10BD000059
:102AF000680000206A0000206C00002072000020A6
:102B000078000020000000000000F03F00000000FE
:102B100000000040182D4454FB2109400000000033
:102B20000070A74000000000000010404C11002081
:102B3000042808D14FF0E021096941F004014FF069
:102B4000E022116107E04FF0E021096921F0040162
:102B50004FF0E022116170477FB56846FFF710FD26
:102B60004FF47A710198B0FBF1F4E4082146481E55
:102B7000B0F1807F00D31BE0481E4FF0E02250618F
:102B800050170F22002807DA13071E0E0B4B00F018
:102B90000F052D1F5E5503E013071D0E084B1D5436
:102BA00000BF00204FF0E02290610720106100BFBD
:102BB0006FF00400FFF7BCFF7FBD000018ED00E0E0
:102BC00000E400E010B504480068401C02490860B9
:102BD00002F040FC10BD00005400002010B5154864
:102BE000006840F47000134908601348006840F022
:102BF00001001149086000200F49083108600E48A3
:102C000000680E4908400C4908600D48091D08601D
:102C1000081F006820F48020091F08600020064972
:102C20000C310860FFF744FE4FF000600149803925
:102C3000086010BD88ED00E000380240FFFFF6FE9E
:102C40001030002430B58BB005460C4601210846F3
:102C5000FFF776FC01211020FFF742FC0122092139
:102C60003748FFF746F901220B213548FFF741F9B4
:102C700001220D213248FFF73CF901220E21304894
:102C8000FFF737F94FF4D440099002208DF828005F
:102C900000208DF82A0001208DF82B0003208DF8EC
:102CA000290009A92648FFF7DCF8A8B2ADF81800FA
:102CB0000020ADF81A000794ADF820008DF822002E
:102CC00006A9204800F0F6FA6020ADF804000120C3
:102CD000ADF806000020ADF80800ADF8100008209F
:102CE000ADF812000020ADF814000390082115483B
:102CF00000F0CCF901A9134800F08AF90821114825
:102D000000F020FA01A90F4800F0CAF908210D4887
:102D100000F076FA01A90B4800F022FA08210948D0
:102D200000F0B4FA01A9074800F074FA012105483F
:102D300000F042F90121034800F04AF90BB030BD20
:102D400000100240000001400EB501210846FFF7C7
:102D5000D7FB4FF0FF3001905320ADF8000000206A
:102D6000ADF80800ADF802000121880700F012F963
:102D700069464FF0804000F09DFA0121880700F07D
:102D80001BF90EBD10B50121880700F030F938B1EC
:102D90000121880700F00DF90121880700F006F9EC
:102DA00010BD000030B58BB005460C460121022055
:102DB000FFF7A6FB01210420FFF792FB0222062168
:102DC0003448FFF796F8022207213248FFF791F8BE
:102DD000022208212F48FFF78CF8022209212D48F2
:102DE000FFF787F84FF47070099002208DF82800E3
:102DF00001208DF82B0003208DF8290009A9254812
:102E0000FFF72FF8A8B2ADF818000020ADF81A00AF
:102E10000794ADF820008DF8220006A91E4800F0A6
:102E200049FA6020ADF804000120ADF8060000204A
:102E3000ADF80800ADF810000820ADF81200002031
:102E4000ADF8140003900821134800F01FF901A900
:102E5000114800F0DDF808210F4800F073F901A9CE
:102E60000D4800F01DF908210B4800F0C9F901A92F
:102E7000094800F075F90821074800F007FA01A990
:102E8000054800F0C7F90121034800F095F80BB0A0
:102E900030BD0000000802400004004030B58BB097
:102EA00005460C4601210420FFF72AFB01210820DA
:102EB000FFF716FB02220C213448FFF71AF8022212
:102EC0000D213248FFF715F802220E212F48FFF797
:102ED00010F802220F212D48FFF70BF84FF4704035
:102EE000099002208DF8280001208DF82B00032086
:102EF0008DF8290009A92548FEF7B3FFA8B2ADF85F
:102F000018000020ADF81A000794ADF820008DF8E5
:102F1000220006A91E4800F0CDF96020ADF804009B
:102F20000120ADF806000020ADF80800ADF8100053
:102F30000820ADF812000020ADF81400ADF816001E
:102F40000821134800F0A2F801A9114800F060F828
:102F500008210F4800F0F6F801A90D4800F0A0F88C
:102F600008210B4800F04CF901A9094800F0F8F8D5
:102F70000821074800F08AF901A9054800F04AF93C
:102F80000121034800F018F80BB030BD000C0240DE
:102F90000008004021B1028842F08002028004E073
:102FA00002884FF67F731A4002807047CA4302823C
:102FB0007047CA430282704721B1028842F0010281
:102FC000028004E002884FF6FE731A4002807047C8
:102FD00031B1B0F8442042F40042A0F8442005E0AA
:102FE000B0F84420C2F30E02A0F84420704730B578
:102FF0000246002000230024158A05EA0103958972
:1030000005EA010413B10CB1012000E0002030BD3D
:1030100070B5002400220023058C4FF6FE76354063
:103020000584028C8388048B4FF68F752C40B51E67
:103030002C400D882C43751E2A408D892A434D88CB
:103040002A43104DA84202D00F4DA84213D14FF68B
:10305000F7752A40CD892A434FF6FB752A408D88A3
:103060002A434FF6FF652B404FF6FF552B400D8A44
:103070002B434D8A2B43838004838D6845630284F0
:1030800070BD000000000140000401400A4600211C
:10309000018B4FF6F773194011430183704700000D
:1030A00070B5002400220023058C4FF6EF763540E2
:1030B0000584028C8388048B48F6FF752C404FF6FC
:1030C000FF452C400D884FF6FF7606EA05252C4378
:1030D0004FF6DF752A408D8906EA05152A434D888B
:1030E00006EA05152A43154DA84202D0144DA84200
:1030F0001DD14FF67F752A40CD894FF6FF7606EA3F
:1031000005152A434FF6BF752A408D8806EA051536
:103110002A434FF6FF352B404FF2FF752B400D8AA7
:1031200006EA85052B434D8A06EA85052B438380F5
:1031300004838D688563028470BD00000000014037
:10314000000401400A460021018B4FF2FF73194031
:103150004FF6FF7303EA022319430183704700000F
:1031600070B5002400220023058C4FF6FF66354021
:103170000584028C8388848B4FF68F752C404FF624
:10318000FC752C400D882C434FF6FF552A408D8945
:103190004FF6FF7606EA05252A434D8806EA0525FF
:1031A0002A43154DA84202D0144DA8421DD14FF21A
:1031B000FF752A40CD894FF6FF7606EA05252A439A
:1031C0004FF6FF352A408D8806EA05252A434EF63C
:1031D000FF752B404DF6FF752B400D8A06EA05154D
:1031E0002B434D8A06EA05152B43838084838D6823
:1031F000C563028470BD000000000140000401406E
:103200000A460021818B4FF6F773194011438183E1
:103210007047000070B5002200230024058C4EF694
:10322000FF7635400584038C8488828B48F6FF75D1
:103230002A404FF6FF452A400D884FF6FF7606EAF2
:1032400005252A434DF6FF752B408D8906EA053585
:103250002B434D8806EA05352B430A4DA84202D080
:10326000094DA84208D14BF6FF752C400D8A4FF648
:10327000FF7606EA85152C43848082838D68056479
:10328000038470BD00000140000401400A46002193
:10329000818B4FF2FF7319404FF6FF7303EA02234D
:1032A0001943818370474163704781637047C163ED
:1032B0007047000000220288184B98420ED0184B2D
:1032C00098420BD0B0F1804F08D0164B984205D0F1
:1032D000154B984202D0154B984204D14FF68F738C
:1032E0001A404B881A43124B984207D0114B984210
:1032F00004D04FF6FF431A400B891A4302804B68F3
:10330000C3620B880385054B984202D0044B984258
:1033100001D18B7A0386012383827047000001402C
:10332000000401400004004000080040000C004080
:10333000001000400014004010B596B00446012172
:103340000220FFF7CDF801218805FFF7C9F8012118
:103350001020FFF7F5F8072211464348FEF7C9FD94
:1033600014A8FEF7EBFD8020149002208DF8540085
:1033700000208DF8550001208DF8570014A93A4817
:10338000FEF76FFD394800F089F910A800F0B8FA8F
:1033900010940020ADF84400ADF846004FF4806072
:1033A000ADF848000420ADF84A000020ADF84C000C
:1033B00010A92E4800F03AFA00F05EF801224021F0
:1033C0002A4800F062F92A48FEF7F4F96846FEF749
:1033D000FBFA4FF0006000902448001D0190254842
:1033E0000290002003901E200490002005904FF4CE
:1033F000806006900020079008904FF4807009903C
:1034000000020A9000200B900C900D900E906946DF
:103410001748FEF7ABFA002216491E311448FEF792
:1034200080FA01211248FEF771FA01211048FEF7D7
:10343000B5F925208DF83C0000208DF83D008DF871
:103440003E0001208DF83F000FA8FEF781FF01220A
:1034500040F22441054800F0C3F90121034800F07F
:1034600008F916B010BD0000000402400010014031
:1034700040640240342D002010B507231222024977
:103480000248FCF7F7FE10BD702D0020442E0020EE
:1034900010B540F22441284800F078F9002849D0BE
:1034A00025480088244880882448FEF754FA00BB49
:1034B00000212248FEF772F92048FEF748FAC0F1D1
:1034C0001E001F4908601E201C49091D0860081FB6
:1034D000006840F40020091F086001211748FEF72A
:1034E0005DF917480068122824D11648FFF72CF917
:1034F00020E000211148FEF751F91048FEF727FAA5
:10350000C0F11E000E4908601E200C49091D08600C
:10351000081F006820F40020091F086001210748E7
:10352000FEF73CF906480068122803D105481E3012
:10353000FFF70AF910BD000000100140406402408E
:10354000E8000020342D002010B51F48008800F04E
:10355000080018B11C48001D0088C4B240F2255173
:10356000194800F013F970B140F22551164800F0E7
:1035700061F81548001D0088C4B2204601F060FDC6
:103580002046FDF735FD40F227710F4800F0FEF8A8
:10359000C0B10E4801780078401C0C4A10700C48ED
:1035A000405C0949091D08801046007809490978DE
:1035B000884207D104480C30008820F0800002497E
:1035C0000C31088010BD0000004400408D00002038
:1035D000D42100208E00002010B511480088114928
:1035E00008700F48001F0088087000210E48FEF781
:1035F000D5F801200D4908700D490B48FEF7B4F8C5
:1036000000BF0948FEF799F90028FAD14FF400717C
:103610000548FEF7D7F901210348FEF7BFF810BDB2
:1036200004480040980000202860024094000020D8
:10363000000C001010B50022002340F66A14A142CD
:1036400000D100BF0A1201249440A3B2DC430480DD
:1036500010BD10B502460020108A20F470600B885F
:103660004C8823438C882343CC88234318431082FF
:1036700010BD21B1828942F40052828104E0828926
:103680004DF6FF731A40828170471AB1838A0B434B
:10369000838202E0838A8B438382704710B504469D
:1036A0003248844208D101211020FEF759FF002141
:1036B0001020FEF755FF57E02D48844209D1012123
:1036C0004804FEF72DFF00214FF40030FEF728FFDD
:1036D0004AE02848844209D101218804FEF720FFEE
:1036E00000214FF48020FEF71BFF3DE0224884427A
:1036F00009D10121C804FEF713FF00214FF4002077
:10370000FEF70EFF30E01D48844209D10121080573
:10371000FEF706FF00214FF48010FEF701FF23E0C3
:103720001748844208D101212020FEF719FF00210B
:103730002020FEF715FF17E01248844209D101212D
:103740008807FEF7EDFE00214FF08040FEF7E8FE0F
:103750000AE00D48844207D101214005FEF7E0FE52
:1037600000216005FEF7DCFE10BD000000100140E6
:103770000044004000480040004C00400050004021
:103780000014014000780040007C004070B5024603
:10379000002400230025002040F66A16B14200D123
:1037A00000BFC1F3421501F01F03012606FA03F31F
:1037B000012D02D19689334006E0022D02D1168AEE
:1037C000334001E0968A33400C12012606FA04F4D5
:1037D0001688344013B10CB1012000E0002070BD08
:1037E000F0B50346002400260025002040F66A17A5
:1037F000B94200D100BF1846C1F3421401F01F06C0
:10380000012707FA06F5012C01D10C3004E0022C47
:1038100001D1103000E014301AB107682F4307605F
:1038200002E00768AF430760F0BD00002DE9FF47E5
:1038300005460E460024A14600BFA046B08900B14F
:1038400000BF2C8A24F44054F08804432C82AC89B5
:1038500041F20C608443B088318908437189084380
:103860000443AC81AC8A24F44074B0890443AC8234
:103870006846FEF785FE2048854202D01F488542F3
:1038800002D1DDF80C9001E0DDF80890A88900F481
:10389000004040B109EBC90000EB09103168490054
:1038A000B0FBF1F707E009EBC90000EB0910316844
:1038B0008900B0FBF1F76420B7FBF0F004012009A8
:1038C000642101FB1078A88900F4004040B1322047
:1038D00000EBC800B0FBF1F000F00700044308E083
:1038E000322000EB08106421B0FBF1F000F00F0073
:1038F00004432C81BDE8FF87001001400014014003
:103900004FF41651016000218180C18001810C219A
:10391000418100218181704700BFFEE710B58AB068
:10392000044601214804FEF7EBFD01210820FEF7C3
:10393000D7FD26208DF80C0002208DF80D00002008
:103940008DF80E0001208DF80F0003A8FEF700FD92
:10395000072205212A48FEF7CCFA0722062128482B
:10396000FEF7C7FA2020019002208DF808008DF89C
:10397000090000208DF80A0001208DF80B0001A934
:103980001F48FEF76EFA4020019002208DF80800D3
:103990008DF8090001208DF80A008DF80B0001A9AF
:1039A0001748FEF75EFA06940020ADF81C00ADF84B
:1039B0001E00ADF82000ADF824000C20ADF8220068
:1039C0000020ADF81000ADF812004FF40070ADF813
:1039D00014000020ADF8160006A90A48FFF726FFDC
:1039E00004A90848FFF735FE012240F22551054899
:1039F000FFF7F6FE01210348FFF73BFE0AB010BDBA
:103A0000000C02400044004070B505460E460024FC
:103A10000AE0295D0C4802780078401C0A4B1870B7
:103A20000A488154601CC4B2B442F2DB08480088E2
:103A300000F0800030B9012240F2277104480C38B0
:103A4000FFF7CEFE70BD00008E000020D4210020C4
:103A50000C44004003B401984100009850EAC12092
:103A600018BF04204A0D18BF40F0010040F2FF7259
:103A7000B2EB515F08BF40F00200012808BF0520EB
:103A800002B070472DED020B019820F0004001902C
:103A90009DED000B02B070472DE9F04D2DED040BAC
:103AA0002DED0E8B96B0DDE92550279CDDF890A01A
:103AB00025F0004624F00048BAF1000F14BF0121A0
:103AC000002101EB4502FC4953184A1093422AD3C6
:103AD000002814BF0123002303EB44030B44F749E0
:103AE0008B4220D358EA00019FEDF59B76D0DFF89A
:103AF000D8B35D4503D1BAF1000F05D188E0BAF122
:103B0000000F08BF002100D0012101EB450111F594
:103B1000001F08D8002814BF0121002101EB440137
:103B200011F5001F0BD99DED261B9DED240B16B042
:103B3000BDEC0E8B04B0BDE8F04D01F043BA002798
:103B4000002DBCBFE149884521DAE1498845A8BF7D
:103B500002271CDAC3451ADCDE4901EB285114297F
:103B600008DDC1F1340220FA02F101FA02F28242C8
:103B70000DD108E058B9C1F1140228FA02F101FA96
:103B800002F2424503D101F00101C1F1020756EAF8
:103B90000A0124D1002C22DA002D18BF022F01D0F7
:103BA000012F0AD00220FCF7A2FF16B0BDEC0E8B4D
:103BB00004B0BDE8F04D01F0E3B90220FCF797FF37
:103BC00001F0DEF951EC100B01F08EFC41EC100B12
:103BD00016B0BDEC0E8B04B0BDE8F08D18E09FED83
:103BE000BEAB9FEDBF8B002871D1B848804522D174
:103BF00005F1804010F5801008BFBAF1000F07D022
:103C0000B3450ADC002CA8BF9DED260BE0DA0DE0E1
:103C1000B0EE490AF0EE690ADAE7002C06DA9DED0B
:103C2000260B51EC100B01F05FFC6FE0AE487844BE
:103C300090ED000BCCE7D8454DD1002C48DA2EB1E1
:103C400086423AD1BAF1000F42D126E0BAF1000F14
:103C500013D00220FCF74BFF01F0CEF98DED020BE3
:103C60009DED240B8DED000B10EE900A039961F38E
:103C70001E0003909DED020BAAE78DED02AB9DEDBA
:103C8000240B1AEE901A10EE900A8DED000B61F3E2
:103C90001E0003909DED020B9AE78DED028B9DEDCA
:103CA000240B18EE901A10EE900A8DED000B61F3C4
:103CB0001E0003909DED020B8AE709DA9DED240BAF
:103CC00051EC190B53EC102B01F008FD1EE020E025
:103CD0009DED240B7CE786421BDAB4F1804F0DD0BA
:103CE000A4F10050B0F1FF5013D1002D11DB9DED78
:103CF000240B51EC100B01F075FB07E09DED240B3C
:103D000053EC102B51EC100B00F0C2BC41EC100B2B
:103D10005EE79DED240B51EC100B01F0F1F9BAF1C7
:103D2000000FCDE90E0142D19FED710B46B3A6F114
:103D3000E040B0F17F600CD05E4538D1002D00DA54
:103D4000A7B3022F0CBF01204FF0FF3001F07BFE24
:103D5000DCE7002D01DD002C0DDA002D01DD002C4B
:103D60001FDB002D16DA002C14DB012F08BF9FED9E
:103D7000620B3FF42DAFB0EE4A0AF0EE6A0A27E775
:103D8000022F18BF002D0CD0012F0AD1002DFFF6F5
:103D90001FAF06E0002DB8BF002C08DA012F3FF45A
:103DA00017AFB0EE480AF0EE680A11E71BE00120F9
:103DB00000EBE57050EA070115D0791EB0EE498A94
:103DC000F0EE698A084308BF9FED4D8B4E480025F1
:103DD000804570DD4D494E48884514DDB0420DDB0D
:103DE000002C19DB2FE00120FCF781FE16B0BDECA2
:103DF0000E8B04B0BDE8F04D01F0EEB8B34502DC27
:103E0000002C09DC1FE0864202DA002C1BDA03E0FA
:103E10005E452BDD002C16DD0220FCF768FE01F06C
:103E2000EBF88DED020B53EC1A2B51EC180B01F053
:103E300071FECDE900010399019861F31E00039022
:103E40009DED020BC4E60220FCF751FE01F0E4F800
:103E500010EE901A18EE900A8DED020B8DED008B8E
:103E600061F31E0003909DED020BB1E69DED0E0B7C
:103E700053EC192B51EC100B02F058F89FED260B68
:103E8000CDE9080153EC102B9DED080B51EC100B04
:103E900001F040FE9FED221B53EC112B01F06EFF51
:103EA0009DED081B53EC112B01F034FE9FED1E1B02
:103EB00053EC112B3CE08CE0FFFF1F00FFFF0F00D5
:103EC000000000000000F03F0000F03F0000F07F25
:103ED0000000404301FCFFFF000000000000F07FF5
:103EE00000000000000000006E270000000000003D
:103EF0000000000000000080000000000000F0FF53
:103F0000000000000000F0BF0000E0410000F043AE
:103F1000FFFFEF3F00000000000000000000D03F66
:103F2000555555555555D53F000000000000E03F60
:103F300001F024FF9DED080B41EC1A0B53EC102B04
:103F400051EC100B01F0E6FD53EC1A2B01F0E2FDF1
:103F500041EC1A0B9FEDFE0B53EC102B9DED080B63
:103F600051EC100B01F0D6FD41EC1B0B9FEDFA0B51
:103F700051EC1A0B53EC102B01F0CCFD41EC1A0B59
:103F80009FEDF70B53EC102B9DED080B51EC100B34
:103F900001F0C0FD53EC1A2B01F0C8FF41EC1A0BE5
:103FA00051EC1B0B53EC1A2B01F0DCFA0690CDE917
:103FB00006519DED060B53EC1B2B51EC100B01F041
:103FC000B5FF53EC1A2B01F0D9FE41EC100B00F0B9
:103FD000A1B90020B6F5801F0EDA9FEDE30B53EC7C
:103FE000102B9DED0E0B51EC100B01F093FDCDE964
:103FF0000E016FF034000E4600EB2650A0F2FF37A2
:10400000C6F31300DA4940F07F6646F04056884216
:10401000D8BF002408DDD7498142C8BF012403DC92
:104020000024A6F580167F1CD348784400EBC4001A
:104030000F9690ED00CB9DED0E0B53EC1C2B51EC2D
:10404000100B01F073FF9DED0E0B41EC1B0B53ECBD
:104050001C2B51EC100B01F085FA41EC100B51ECCC
:10406000190B53EC102B01F039FB41EC1D0B51ECFB
:104070001B0B53EC1D2B01F04DFD41EC1A0BBF48FF
:104080008DED10AB7844109590ED000B4FF0005083
:1040900040EA660000EB84408DED080B00F500203F
:1040A00009909DED080B53EC1C2B51EC100B01F00B
:1040B0003DFF9DED0E1B53EC112B01F05FFE41EC1B
:1040C000100B53EC102B9DED100B51EC100B01F06D
:1040D00021FD9DED080B41EC1C0B53EC102B9DEDCD
:1040E000100B51EC100B01F015FD53EC1B2B01F0E4
:1040F00045FE53EC1C2B01F019FF53EC1D2B01F076
:1041000009FD41EC1C0B53EC1A2B51EC1A0B01F07E
:1041100001FD41EC1B0B9A480621B0EE4B0AF0EE74
:104120006B0A784400F018FEB0EE401AF0EE601A08
:10413000B0EE41DAF0EE61DA53EC1B2B51EC1B0BC5
:1041400001F0E8FC53EC1D2B01F0E4FC9DED100B9D
:1041500041EC1B0B53EC1A2B51EC100B01F002FA43
:1041600053EC1C2B01F0D6FC53EC1B2B01F0FAF99D
:104170009DED100B41EC1B0B53EC102B51EC100B75
:1041800001F0C8FC41EC1D0B9FED7FEB53EC1E2BA7
:1041900001F0E8F953EC1B2B01F0E4F90890CDE9AC
:1041A00008519DED080B53EC1E2B51EC100B01F048
:1041B000BDFE53EC1D2B01F0B9FE53EC1B2B01F09F
:1041C000DDFD9DED080B41EC1D0B53EC102B9DED1F
:1041D000100B51EC100B01F09DFC41EC1B0B53EC50
:1041E0001A2B51EC1D0B01F095FC9DED080B41ECD9
:1041F0001A0B53EC102B51EC1C0B01F08BFC53EC05
:104200001A2B01F0AFF941EC1A0B51EC1B0B53ECDC
:104210001A2B01F0A7F90C90CDE90C519DED0C0B78
:1042200053EC1B2B51EC100B01F080FE53EC1A2BBE
:1042300001F0A4FD41EC1B0B9FED550B53EC102B33
:104240009DED0C0B51EC100B01F064FC41EC1A0BD2
:104250009FED510B51EC1B0B53EC102B01F05AFC52
:1042600041EC1B0B9FED4E0B53EC102B9DED0C0BFB
:1042700051EC100B01F04EFC53EC1B2B01F072F9CA
:1042800041EC100B4848784400EBC40090ED001B53
:1042900051EC100B53EC112B01F064F941EC1B0BAA
:1042A000384601F0D0FBCDE9080153EC1B2B51EC53
:1042B0001A0B01F057F941EC100B3C48784400EB25
:1042C000C40090ED00CB51EC100B53EC1C2B01F013
:1042D00049F99DED081B53EC112B01F043F90690B1
:1042E000CDE906519DED080B53EC102B9DED060B0F
:1042F00051EC100B01F01AFE53EC1C2B01F016FED2
:1043000053EC1A2B01F012FE53EC1B2B01F036FD7F
:1043100041EC100B9DED261B53EC102B8DED001B7B
:1043200000959DED260B51EC100B01F0F3FB9DED7C
:10433000000B41EC1A0B53EC102B9DED260B51ECAE
:10434000100B01F0F3FD9DED061B53EC112B2FE03C
:10435000000000604715F73FFE822B654715F73FC9
:1043600044DF5DF80BAE543E000000000000404307
:104370008E9803007AB60B00BA22000018230000C2
:10438000F2210000000000000000000000000840D2
:10439000000000E009C7EE3FFD033ADC09C7EE3F2D
:1043A000F5015B14E02F3EBE7E20000038200000A7
:1043B00001F0B0FB53EC1A2B01F0D4F89DED060B85
:1043C00041EC1A0B53EC102B9DED000B51EC100B34
:1043D00001F0A0FBCDE90C019DED0C0B51EC1A0B8B
:1043E00053EC102B01F0BEF8CDE902010C46AA49AE
:1043F0008C422FDB611A084318D19DED0C0B53EC56
:10440000102B9DED020B51EC100B01F08FFD41ECD8
:104410001B0B9FEDA30B51EC1A0B53EC102B01F06F
:10442000A1F853EC1B2B01F073FC2DD20220FCF7FA
:104430005EFB00F0E1FD10EE901A18EE900A8DED93
:10444000020B8DED008B61F31E0003909DED020BBE
:10445000FFF7BEBB944A24F00041914214D3934924
:10446000214408437FF4EFAC9DED0C0B53EC102B73
:104470009DED020B51EC100B01F058FD53EC1A2B83
:1044800001F046FC7FF6DFAC24F000408849894A01
:10449000002601EB205182422BDA481C4FF4801198
:1044A00021FA00F02044844AC0F30A517A44A1F270
:1044B000FF3192ED000B814A8DED080BCA4020EAD6
:1044C0000202C0F3130040F48010C1F1140120FA7D
:1044D00001F60992002CB8BF76429DED080B53EC13
:1044E000102B9DED0C0B51EC100B01F01FFDCDE9D5
:1044F0000C019DED0C0B51EC1A0B53EC102B01F041
:1045000031F89FED6F0B0890CDE9085153EC102B5B
:104510009DED080B51EC100B01F0FCFA41EC1B0B6C
:104520009FED690B53EC102B9DED080B51EC100B1C
:1045300001F0F0FA9DED0C0B41EC1C0B53EC102B31
:104540009DED080B51EC100B01F0F0FC53EC1A2B15
:1045500001F014FC9FED5E1B53EC112B01F0DAFA15
:1045600053EC1C2B00F0FEFF41EC1A0B51EC1B0B23
:1045700053EC1A2B00F0F6FFCDE902019DED020B82
:1045800053EC1B2B51EC100B01F0D0FC53EC1A2B0D
:1045900001F0F4FB9DED020B41EC1A0B53EC102BD8
:1045A00051EC100B01F0B6FACDE908014A489DED37
:1045B000080B0521784400F0CFFB9DED081B51EC62
:1045C000100B53EC112B01F0A5FA9DED021B53ECDF
:1045D000112B01F0D3FBCDE906019DED020B53EC4D
:1045E0001A2B51EC100B01F095FA53EC1A2B00F03A
:1045F000B9FF9FED3B0B41EC1A0B53EC102B9DEDDB
:10460000060B51EC100B01F091FC9DED060B41ECFB
:104610001B0B53EC102B9DED020B51EC100B01F01A
:1046200079FA53EC1B2B01F059F853EC1A2B01F0DB
:104630007DFC9DED021B53EC112B01F077FC53EC3C
:10464000192B01F09BFBCDE9020101EB065001158E
:104650000029C8BF039015DC9DED020B324651ECDA
:10466000100B01F0FAFDFFF7F5F9042808BF00F080
:10467000D3FC32469DED020B51EC100B01F0EDFD29
:10468000CDE902019DED020B51EC180B53EC102B00
:1046900001F040FAFFF73ABB000090400000000034
:1046A000FE822B654715973C00CC904000346F3F4D
:1046B00001FCFFFF0000E03FF01E0000FFFF0F00C5
:1046C00000000000432EE63F396CA80C615C20BE60
:1046D000EF39FAFE422EE63F901D00000000000078
:1046E000000000000000004010B52F499FED2C1B7A
:1046F0002DED020B84B0059820F000408842DCBF0D
:1047000000209DED040B32DD2849884209D1049830
:1047100040B94FF00100FCF7EAF900F05DFC06B08B
:1047200010BD05DB9DED040B00F042FC06B010BD92
:1047300068469DED040B00F03BF810F0030011D02B
:10474000012818D09DED021B9DED000B02281AD008
:1047500000F04AFA51EC100B00F0C6FE06B041EC36
:10476000100B10BD9DED021B9DED000B012000F014
:104770006FFB06B010BD9DED021B9DED000B00F020
:1047800033FA06B010BD012000F062FB51EC100BB3
:1047900000F0AAFE06B041EC100B10BD00000000B6
:1047A0000000000000000000FB21E93F0000F07F56
:1047B0002DE9F14F04462DED020B2DED088B8AB04B
:1047C0009FEDE70B80ED020B139EE74826F00045B6
:1047D00085420ADC9DED120B002084ED000B0AB02F
:1047E000BDEC088B03B0BDE8F08FE0489FEDE0AB77
:1047F0009FEDE1BBA84247DDE14F9FEDE39B9FEDBD
:10480000E48B9DED120B53EC1A2B51EC100B002E88
:104810001CDD01F08BFB41EC100BBD4208D053ECCA
:104820001B2B51EC100B01F081FBC4E900010BE0E4
:1048300053EC192B51EC100B01F078FB53EC182BB7
:1048400001F074FBC4E900010120C8E700F08AFE12
:1048500041EC100BBD4208D053EC1B2B51EC100B5C
:1048600000F080FEC4E900010BE053EC192B51EC81
:10487000100B00F077FE53EC182B00F073FEC4E928
:1048800000014FF0FF30AAE7C348A84279DB9DED55
:10489000120B51EC100B00F033FC41EC180B9FEDA8
:1048A000C00B53EC102B01F035F99FEDBF1B53ECFF
:1048B000112B00F057FE01F069F8074601F0C3F82C
:1048C00041EC190B53EC1A2B01F024F953EC182B83
:1048D00001F054FA41EC180B53EC1B2B51EC190B63
:1048E00001F018F9DFF8C8A241EC100B4FEA155897
:1048F0000125FA4453EC102B51EC180B01F016FB78
:10490000032DC4E900013DD0C1F30A5005EB451168
:10491000A8EB00001139814234DA0AEB051BB0EE36
:1049200048AA9BED000BF0EE68AA53EC102B51EC5B
:10493000190B01F0EFF841EC1B0B51EC1A0B53EC87
:104940001B2B01F0F3FA41EC180B51EC1A0B53EC52
:10495000182B01F0EBFA53EC1B2B01F0E7FA9BED5F
:10496000020B41EC1A0B53EC102B51EC190B01F01C
:10497000D1F853EC1A2B01F0D9FA41EC100B6D1C55
:10498000B8E70EE0002EA8BF3846BFF628AF94ED7A
:10499000000B51EC100B00F0A7FDC4E900017842B8
:1049A0001DE7C6F3130040F4801EC6F30A50A0F2C0
:1049B000F530471100F01F05C5F12000DDF848B0C3
:1049C00008900020069007900520EC467949002DBC
:1049D00007EB0002794408BF51F8221009D051F8C2
:1049E000223001EB8201AB404A68089922FA01F1BA
:1049F0001943A1FB0E26A1FB0B131A449A4234BFA4
:104A00000123002303EB06080CEB8003D3E901A686
:104A10000E448E4234BF0121002192448A4411B1D8
:104A2000924502D903E0924501D2012100E0002124
:104A3000C3E901A641444CF82010011EA0F1010079
:104A4000C4DC029800F10050850F0298DDE903678D
:104A50008000DDF8148000F0F6FF41EC1A0B3046C0
:104A600001F008F89FED541B53EC112B01F052F8A4
:104A700041EC1B0B384600F0FDFF9FED511B53EC42
:104A8000112B01F047F841EC180B404600F0F2FF03
:104A90009FED4D1B53EC112B01F03CF841EC190B31
:104AA00051EC180B53EC192B00F05CFD53EC1B2B55
:104AB00000F058FD53EC1A2B00F054FDCDE908012D
:104AC000002008909DED080B53EC1A2B51EC100BB5
:104AD00001F02CFA53EC1B2B01F028FA53EC182BA5
:104AE00001F024FA53EC192B01F048F99FED381B23
:104AF00053EC112B01F00EF89FED370B41EC180B26
:104B000053EC102B9DED080B51EC100B01F002F84B
:104B100053EC182B00F026FD9FED310B41EC180BE8
:104B200053EC102B9DED080B51EC100B00F0F2FF35
:104B300053EC182B00F016FD41EC100B139810F0FD
:104B4000004F06D06D4251EC100B00F0CDFC41EC53
:104B5000100B284684ED000B41E600000000000029
:104B60000000000000000000FB21E93F7CD902406A
:104B700000004054FB21F93F3163621A61B4D03D1B
:104B8000FB21F93F000000000000601A61B4D03D35
:104B90007370032E8A19A33BFB21394100000000EA
:104BA00083C8C96D305FE43F000000000000E03FB3
:104BB000B21A0000001A0000000000000000103EC1
:104BC000000000000000103C000000000000103A4F
:104BD000182D4454FB21F93D3326A611460B113CF8
:104BE00000000054FB21F93D10B52DED040B2DED17
:104BF000088B82B0B0EE419AF0EE619A0B9820F0EB
:104C000000449FED4BABB4F1795F11DA9DED0A0BD7
:104C100051EC100B00F0BAFE002801BFB0EE4A0ABA
:104C2000F0EE6A0A02B0BDEC088B04BF04B010BD00
:104C30009DED0A0B53EC102B51EC100B00F06AFFAA
:104C400041EC180B3C480621B0EE480AF0EE680A29
:104C5000784400F081F853EC182B51EC100B00F065
:104C600059FF9DED0A0B41EC1B0B53EC192B51EC3A
:104C7000100B00F04FFF41EC190B53EC1B2B51ECC8
:104C8000180B00F047FF53EC192B01F04FF99FED83
:104C90002C0B41EC190B53EC102B51EC180B00F0C2
:104CA00039FF41EC100B2848844210DA53EC192BE1
:104CB00051EC100B01F03AF953EC1A2B01F05EF8AD
:104CC00041EC100B02B0BDEC088B04B010BD1F48C6
:104CD000A042BCBF9FED1E1B8DED001B06DBA4F5A3
:104CE00000100190002000909DED001B51EC100B76
:104CF00053EC112B01F01AF99DED000B41EC180B50
:104D000053EC102B51EC1A0B01F010F941EC1A0B7B
:104D100053EC192B51EC180B01F008F953EC1A2B3A
:104D200001F02CF841EC100BCCE700000000000073
:104D3000000000000000F03F1C1700000000000011
:104D4000000000000000E03F3333D33F0000E93FA4
:104D5000000000000000D23F70B504462DED028B2C
:104D60004D1E00EBC500B0EE408AF0EE608A90ED7B
:104D7000000B35F0060017D053EC182B51EC100B3C
:104D800000F0C8FE41EC100B6D1E04EBC50090ED69
:104D9000001B51EC100B53EC112B00F0E3FB41EC2A
:104DA000100B35F00600E7D1022D36D0042D1CD0B3
:104DB000062D1CBFBDEC028B70BD53EC182B51ECC3
:104DC000100B00F0A7FE94ED0A1B53EC112B00F022
:104DD000C9FB53EC182B00F09DFE94ED081B53EC1F
:104DE000112B00F0BFFB41EC100B53EC182B51ECD6
:104DF000100B00F08FFE94ED061B53EC112B00F00E
:104E0000B1FB53EC182B00F085FE94ED040B53EC32
:104E1000102B00F0A7FB41EC100B53EC182B51ECBE
:104E2000100B00F077FE94ED021B53EC112B00F0F9
:104E300099FB53EC182B00F06DFE94ED001B53EC26
:104E4000112B00F08FFBBDEC028B41EC100B70BD01
:104E500031B504462DED040B2DED0A8BB0EE41BAB1
:104E6000F0EE61BA0B989DED0A0B20F00040B0F116
:104E7000795F0DDA51EC100BFEF7ECFD042808BF4A
:104E800000F0CAF89DED0A0BBDEC0A8B05B030BDF1
:104E900053EC102B51EC100B00F03CFE41EC180BC6
:104EA0009DED0A0B53EC182B51EC100B00F032FE69
:104EB00041EC190B2C48B0EE480AF0EE680A0521C7
:104EC0007844FFF749FF9FED2ACBB0EE40AAF0EE01
:104ED00060AA9CB353EC1C2B51EC190B00F01AFE8A
:104EE00041EC1C0B53EC1A2B51EC190B00F012FE89
:104EF0009FED210B41EC190B53EC102B51EC1B0BCC
:104F000000F008FE53EC192B01F010F853EC182BAD
:104F100000F000FE53EC1B2B01F008F853EC1C2BA7
:104F200001F004F89DED0A1B53EC112B00F026FF55
:104F3000BDEC0A8B05B041EC100B30BDFFE753EC24
:104F40001A2B51EC180B00F0E5FD53EC1C2B00F074
:104F500009FB53EC192B00F0DDFD9DED0A1B53EC12
:104F6000112B00F0FFFAE3E7AC1500000000000091
:104F7000495555555555C5BF000000000000E03F9C
:104F80009FED070B10B553EC102B9FED070B51EC69
:104F9000100B00F0A3FB41EC100B10BD0000000053
:104FA0000000000000000000000000000000F03FD2
:104FB00010B553EC102B51EC100B00F0D3FA41EC70
:104FC000100B10BD10B553EC112B51EC100B00F071
:104FD000C9FA41EC100B10BD9FED050B10B553EC59
:104FE000102B51EC100B00F079FB41EC100B10BDB5
:104FF00000000000000000009FED050B10B553EC11
:10500000102B51EC100B00F085FD41EC100B10BD86
:1050100000000000000000709FED050B10B553EC80
:10502000102B51EC100B00F075FD41EC100B10BD76
:10503000000000000000001000BF704700BF704774
:1050400000B50346282B03D11020FDF707FC12E022
:10505000292B03D12020FDF701FC0CE0302B04D1DB
:105060004FF48050FDF7FAFB05E0312B03D14FF4EC
:105070000050FDF7F3FB00BD10B504466FF00400CF
:10508000FDF756FDE11704EB5171C1F3C701074A63
:1050900011701046007800EB4001C1EBC0104FF6D4
:1050A000FF7101EAC0000249088010BD9A0000208B
:1050B0009C0000201CB501211020FDF711FA0C20E6
:1050C000009001208DF8040000208DF806000320D8
:1050D0008DF8050001208DF8070069460348FCF7AC
:1050E000C0FE0C210148FCF727FF1CBD0010024048
:1050F00010B50248FDF79EFB10BD0000C02800203F
:1051000082B0CDE9000121F0004001909DED000B3F
:1051100002B051EC100B704700BF054A128802F034
:105120004002002AF9D0C2B2014B1B1D1A80704701
:10513000004400404FF4A060FDF746F91B48FEF71D
:10514000FBF84FF4E130FEF7E9FBA820FFF794FFEE
:10515000FDF7F3F840F6C411A720FDF773FD40F604
:10516000C411A720FDF79AFEFFF7A4FFFDF7ECFDA1
:10517000FCF74CFF0E490860FDF7EEFCFCF7E8FA7F
:1051800001200C490870FCF77FF8FFF7B1FFFDF72D
:1051900049F909E0FCF726FD40F2DC5006490860B9
:1051A0004FF4FA70091D0860F4E70000A0860100C2
:1051B00018000020200000203C08004010B50446E4
:1051C000002C4AD094F83400012807D1352221461A
:1051D0002248FBF7B9FBFCF7C7F83EE094F834002F
:1051E000022808D1352221461C483530FBF7ACFB9C
:1051F000FCF7BAF831E094F83400032808D13522DE
:10520000214616486A30FBF79FFBFCF7ADF824E017
:1052100094F83400042808D1352221460F489F30E5
:10522000FBF792FBFCF7A0F817E094F83400052890
:1052300008D1352221460948D430FBF785FBFCF71D
:1052400093F80AE094F83400062806D13522214666
:105250000348FBF779FBFCF787F810BD0A2900200B
:10526000132A002010B54448B0F900004249B1F9B2
:105270000610084400EE100AB8EEC00AF0EE000A6C
:1052800080EE201ABDEEC10A10EE100A00B23B49B2
:1052900008803948B0F902003749B1F908100844CC
:1052A00000EE100AB8EEC00AF0EE000A80EE201AF6
:1052B000BDEEC10A10EE100A00B2304948802E48F7
:1052C000B0F904002C49B1F90A10084400EE100AA4
:1052D000B8EEC00AF0EE000A80EE201ABDEEC10A58
:1052E00010EE100A00B225498880B7EE000A10EED1
:1052F000100AC1F806002048B0F900001E49B1F9B3
:105300000610401A00EE100AF8EEC00A1A48B0F96A
:1053100002001949B1F90810401A00EE100AB8EE5F
:10532000C01A80EE810A10EE100A1449C1F80A0072
:105330001148B0F900001049B1F90610401A00EE0A
:10534000100AF8EEC00A0C48B0F904000A49B1F995
:105350000A10401A00EE100AB8EEC01A80EE810A58
:1053600010EE100A0549C1F80E005A20887404A0F6
:10537000FBF7AAFA022010BD722800206E2A002036
:105380006F75744D61672D63616C6920656E640093
:1053900010B54FF4704007490880488088804FF46A
:1053A0008050C8800881488103A0FBF78DFA022055
:1053B00010BD0000722800204D61672D63616C698B
:1053C000207374617274000010B5044634B1132266
:1053D00021460348FBF7B8FAFBF7C6FF10BD0000F3
:1053E000F728002000B52DED048B83B041EC190B9C
:1053F00000F0D0FC41EC180B18EE100A18EE901AD1
:105400008DED008B002818BF0120084320F00040DC
:10541000C0F17F6000F1E040C00F14D019EE101A07
:1054200019EE900A8DED009B002918BF0121084359
:1054300020F00040C0F17F6000F1E040C00F04BFE9
:105440000120FBF754FB51EC180B03B0BDEC048BAF
:1054500000BD000010B51F48007800B910BD1E48FF
:10546000006840F2E731884207DA1B480068401CB8
:1054700019490860FCF7DCFD29E0002016490860A6
:10548000164800683B2805DA14480068401C134998
:1054900008601CE0002011490860114800683B28A2
:1054A00005DA0F480068401C0D4908600FE0002035
:1054B0000B4908600B480068172805DA094800689E
:1054C000401C0849086002E000200649086000BF4F
:1054D000C4E70000200000206400002060000020DD
:1054E0005C0000205800002081F00041704780F0EF
:1054F0000040704721F00041704720F000407047A5
:1055000021F00042A2F16052B2F5801F01F0004389
:1055100028BFD2F17F6C0BD95FEA001C43EAC202BC
:1055200042EB507018BF704728BF20F00100704751
:10553000B2F5801FBCBF184670474FEA410C1CF5FE
:10554000001F02D2084600F051BE70B500F08CFB7F
:1055500000000089FFF7F6BF4FF00040A0F5800083
:105560007047000010B591EA030F48BF83F0004375
:1055700000F1E484841A71EB030C05D2121943EB99
:105580000C03001B61EB0C01DFF824E14FEA11541E
:10559000A4EB135C1EEA430F18BF9EEA445F73D06E
:1055A00023EA0E03DCF1200E21EA045143F48013B8
:1055B00032D322FA0CFE10EB0E0023FA0CFE41EB64
:1055C0000E01CCF1200E03FA0EFE10EB0E0051F18D
:1055D0000001B1F5801FCCF1200E32D201EB045155
:1055E00012FA0EF2BDE8104058BF7047401C38BF99
:1055F0005FEA420218BF7047002814BF20F0010084
:1056000041F100014FEA410313F5001F38BF704715
:10561000A1F1C04100F076BB012A43EB0302ACF1DB
:10562000200CDCF11F0E32BF4FF0000E23FA0CF3FA
:1056300010EB030041EB0451B4EB115FD0D0A1EBB0
:10564000045101F5801149085FEA300001EB045173
:105650000ED350F1000038BF12FA0EFE08D1BDE89B
:105660001040C9E7401C38BF5FEA4202CAD1C3E715
:10567000BDE810404FEA410313F5001F38BF7047E3
:10568000A1F1C04100F03EBB9EEA445F08D011EAA0
:105690005E0FBDE8104004BF01F0004100207047DC
:1056A000BDE8104070B500F0DFFA00BF64FBBE3EFD
:1056B0000000E0FF02494FF0000000F09CBD00BF79
:1056C0000000F87F491058BFC1F140415B1058BF3E
:1056D000C3F140438B42EFF3008070472DE9C04196
:1056E00030B4DFF8A0C23CEA111418BF3CEA13142E
:1056F00000F0EC8081EA03051CEA111444EAD57439
:1057000018BF1CEA131500F0C780A4EB05044FF086
:10571000004545EAC12145EAC32341EA505143EA25
:10572000525304F17F74994204F500344FEAC020CB
:105730004FEAC22208BF904200F09C804FEA1365F6
:105740000FF24016765D4FEA134506FB05F7C7F1E9
:10575000807706FB07F74FEAD737A7FB0368764247
:10576000C8F58038A7FB06CE38BFA8F1010807FBB3
:1057700008E64FF0000EA6FB028CE6FB03CEDCF140
:10578000000CCEF1004E38BFAEF1010EA6FB0C5856
:105790004FF000074FF00005E6FB0E87A1FB08C69F
:1057A000A0FB07CE16EB0E0645F10005E1FB0765F1
:1057B00015F1E04E7EBFA4F580345FEA46066D41E8
:1057C00016F1800745F100054FEA17274FEA0666F4
:1057D00047EA0567A6F1DE46B6F1805F4FEA152578
:1057E0001FD9384624F0010C05EBC471BCF1FE6FE3
:1057F00001EB0C1102D8F0BCBDE8008124425CBF73
:1058000001F5801E9EEAC47F02D4F0BCBDE8008191
:10581000244238D4F0BCA1F1C041BDE8004100F001
:1058200071BA4FEAD22242EA43524FEAD323A7FB8E
:1058300002864FEAD02040EA415007FB03661EEA89
:105840000E0F4FEAD12105FB026658BFA6EB0056AA
:10585000B6EB00564FEA520E4EEAC37E18EB0E0E20
:1058600056EB530EBDD518EB02085E417F1C55F177
:105870000005B6E74FF480154FF000074FF0000623
:105880004FF00008ADE7F0BC4FF0000001F1C0415F
:1058900001F00041BDE8008111EA0C1F0CEA13156C
:1058A00000D00CE013EA0C1F00F025804FF0000040
:1058B000F0BC81EA030101F00041BDE80081F0BCC9
:1058C000BDE8004181EA030100F01CBAF0BCBDE86C
:1058D000004170B500F0C8F9097EFC3E00F007B841
:1058E00081EA03014FF0000001F00041704781EAB6
:1058F000030100F007BAF0BCBDE800414FF0000022
:1059000021497047FFFDFBF9F7F5F4F2F0EEEDEBFE
:10591000E9E8E6E4E3E1E0DEDDDBDAD8D7D5D4D3AD
:10592000D1D0CFCDCCCBCAC8C7C6C5C4C2C1C0BFF9
:10593000BEBDBCBBBAB9B8B7B6B5B4B3B2B1B0AFFF
:10594000AEADACABAAA9A8A8A7A6A5A4A3A3A2A1E3
:10595000A09F9F9E9D9C9C9B9A999998979796959E
:1059600095949393929191908F8F8E8E8D8C8C8B3A
:105970008B8A8989888887878685858484838382C2
:10598000828181800000FF070000F87F4FEA410319
:105990004FEA5353A3F58063D3F11E03C8BFD3F17D
:1059A000210C0CDD4FF0004242EAC12242EA505283
:1059B00032FA03FC8CEAE17CACEBE1707047102B0F
:1059C000C4BF0020704703F5787CBCF1FF3F04D0D2
:1059D0006FF0004282EA2100704770B500F044F990
:1059E0004992248000207047F2E700004FEA1153EB
:1059F000A3F58063D3F11E03A8BFD3F1200C08DB0D
:105A00004FF0004242EAC12252EA505232FA03F009
:105A1000704709420BD4102BC4BF0020704703F518
:105A2000787CBCF1FF3F05D04FF0FF3070474FF05E
:105A30000000704770B500F017F900BF499224804C
:105A400000207047F0E710F0004248BF4042B0FA33
:105A500080F310FA03F10AD0C3F11D0303F580634C
:105A60004FEA415002EB035202EBD12170474FF055
:105A700000007047B0FA80F310FA03F10AD0C3F1C6
:105A80001D0303F580634FEA41504FEA035202EBD6
:105A9000D12170474FF000007047000051EA030C1D
:105AA00017D41CF5801F58BFBCF5801F00F106807D
:105AB000994218BF704708BF9042704707D711F549
:105AC000801F58BF13F5801F19D49942704789422F
:105AD00070471CF5801F08D5BCF5801FF7D58B4299
