:020000040800F2
:100000000035002071020008192F000811130008A4
:10001000C12D00080D0800082F3D00080000000059
:100020000000000000000000000000000531000892
:10003000E308000800000000A92F0008A134000810
:100040008B0200088B0200088B0200088B0200085C
:100050008B0200088B0200088B0200088B0200084C
:100060008B0200088B020008CD0A00088B020008F2
:100070008B0200088B0200088B0200088B0200082C
:100080008B0200088B0200088B0200088B0200081C
:100090008B0200088B0200088B0200088B0200080C
:1000A0008B0200088B0200088B0200088B020008FC
:1000B0005D3500088B0200088B0200088B020008E7
:1000C0008B0200088B0200088B0200088B020008DC
:1000D0008B020008653A00088B0200081D3B0008EF
:1000E0008B0200088B0200088B0200088B020008BC
:1000F000753600088B0200088B0200088B0200088E
:100100008B0200088B0200088B0200088B0200089B
:100110008B0200088B0200088B0200088B0200088B
:100120008B0200088B0200088B0200088B0200087B
:100130008B0200088B0200088B0200088B0200086B
:100140008B0200088B0200088B0200088B0200085B
:100150008B0200088B0200088B0200088B0200084B
:100160008B0200088B0200088B0200088B0200083B
:100170008B0200088B0200088B0200088B0200082B
:100180008B0200088B02000800F002F800F061F812
:100190000AA090E8000C82448344AAF10107DA45E2
:1001A00001D100F056F8AFF2090EBAE80F0013F0D3
:1001B000010F18BFFB1A43F001031847A485000084
:1001C000C48500000A444FF0000C10F8013B13F006
:1001D000070408BF10F8014B1D1108BF10F8015BA0
:1001E000641E05D010F8016B641E01F8016BF9D193
:1001F00013F0080F1EBF10F8014BAD1C0C1B09D1EA
:100200006D1E58BF01F801CBFAD505E014F8016B5B
:1002100001F8016B6D1EF9D59142D6D370470000ED
:100220000023002400250026103A28BF78C1FBD8FF
:10023000520728BF30C148BF0B607047782900F0D3
:100240007D80002070471FB508F0A7F81FBD10B5CE
:1002500010BD00F0B1F91146FFF7F5FF05F0C0FD44
:1002600000F0CFF903B4FFF7F2FF03BC05F0A0FCE8
:100270000948804709480047FEE7FEE7FEE7FEE73A
:10028000FEE7FEE7FEE7FEE7FEE7FEE70448054976
:10029000054A064B70470000B93400088901000880
:1002A000002F002000350020003100200031002008
:1002B0007047000000487047A02E00200FB404498A
:1002C00010B503AA029800F049F910BC5DF814FBC0
:1002D000AC0100202DE9F0410E46044600202062CA
:1002E0002046E168884730B3252805D0D4E90121AC
:1002F0009047206A401CF2E7E168204600278847C3
:10030000050018D0A5F14100192802D820354FF476
:1003100000673246294620462760FFF78FFF40B12D
:10032000012804D0F61D26F007060836D8E7361D4A
:10033000D6E72846DAE7206ABDE8F08170B50446C2
:100340000D4621461068AFF300802188090502D5CB
:100350000F4A7A4402E00E4A7A440E32002104F138
:10036000240305E000F00F060009965D5E54491C69
:100370000028F7D120780023000704D5702D02D083
:1003800009B1022311322046BDE8704000F08CB85C
:100390004A810000032A40F2308010F0030C00F084
:1003A000158011F8013BBCF1020F624498BF11F8AF
:1003B00001CB00F8013B38BF11F8013BA2F1040268
:1003C00098BF00F801CB38BF00F8013B11F00303E0
:1003D00000F02580083AC0F0088051F8043B083A44
:1003E00051F804CBA0E80810F5E7121D5CBF51F8E6
:1003F000043B40F8043BAFF30080D20724BF11F860
:10040000013B11F801CB48BF11F8012B24BF00F8C4
:10041000013B00F801CB48BF00F8012B704710B535
:10042000203AC0F00B80B1E81850203AA0E81850EC
:10043000B1E81850A0E81850BFF4F5AF5FEA027CAD
:1004400024BFB1E81850A0E8185044BF18C918C01C
:10045000BDE810405FEA827C24BF51F8043B40F8BD
:10046000043B08BF7047D20728BF31F8023B48BFA2
:1004700011F8012B28BF20F8023B48BF00F8012BE0
:10048000704770477047704700487047A02E0020A3
:10049000704710B5FFF70EFF006810BD10B5044699
:1004A000FFF708FF046010BD2DE9F0470D4699469F
:1004B0009246044600F124080168880604D5E069E4
:1004C00021F01001216000E00120A84201DD471B5E
:1004D00000E00027A1697A1902EB0900081AA0615F
:1004E0002078C00602D42046AFF30080002608E042
:1004F000D4E901211AF806009047206A401C761CB6
:1005000020624E45F4DB2078C0060AD52046AFF3C2
:10051000008006E0D4E9012130209047206A401C89
:100520002062381EA7F10107F4DC07E0D4E90121BD
:1005300018F805009047206A401C2062281EA5F18B
:100540000105F3DC2046AFF300802078000602D5D9
:100550000220BDE8F0870120FBE70000074B70B5E3
:100560000D467B4400F011F80446284600F020F8C0
:1005700010B14FF0FF3070BD204670BD2358000011
:1005800001694A1C02610878704700B58FB0CDE957
:1005900001310021059105497944CDE90310114647
:1005A0006846FFF797FE0FB000BD0000E5FFFFFFB4
:1005B000007B00F0800070477546FFF765FFAE4690
:1005C00005006946534620F00700854618B020B55F
:1005D000FFF75CFEBDE820404FF000064FF000073B
:1005E0004FF000084FF0000B21F00701AC46ACE8DB
:1005F000C009ACE8C009ACE8C009ACE8C0098D4648
:10060000704710B50446AFF300802046BDE81040A7
:10061000FFF728BE00B597B058221F4901A8FFF781
:10062000FEFE9DF804005A2808D101201B490870DD
:10063000572201A91A48FFF7ADFE07E0002017492D
:1006400008701749C1F801005A200870144890F842
:1006500036005A281DD00021114880F8361000209D
:100660000F49888400210E48C1840185B7EE000A35
:1006700010EE100A0A49C1F82A00B7EE000A10EE7F
:10068000100AC1F82E00B7EE000A10EE100AC1F8E9
:10069000320017B000BD000000000E08A0010020CD
:1006A000582D002010B5012457220349034800F0BB
:1006B00057F80446204610BD582D002000000E08B3
:1006C00001461C48814201D2002070471A488142ED
:1006D00001D20820F9E71948814201D21020F4E73D
:1006E0001748814201D21820EFE71648814201D213
:1006F0002020EAE71448814201D22820E5E7134888
:10070000814201D23020E0E71148814201D23820F5
:10071000DBE71048814201D24020D6E70E488142F3
:1007200001D24820D1E70D48814201D25020CCE7C8
:100730005820CAE7004000080080000800C00008F8
:10074000000001080000020800000408000006087C
:100750000000080800000A0800000C0800000E084D
:100760002DE9FC5F04460D4690464FF00909012033
:10077000019000264FF0000A00274FF0000B0020E8
:100780000090B4F1006F01D2BDE8FC9F00F0BCFA0C
:10079000002000F009FA264604EB080A3046FFF76D
:1007A0008FFF83465046FFF78BFF00901648864226
:1007B00011D25F460BE00221384600F007FA81466D
:1007C000B9F1090F02D00020019003E0083700982A
:1007D0008742F0D900BFB9F1090F0ED10AE029789C
:1007E000204600F06BFA092802D00020019003E0B7
:1007F000641C6D1C5445F2D300BF012000F0D4F9F5
:1008000000F052FA0198BFE70000FF1F00BFFEE7AB
:1008100010B5102001F0DCFE58B102F0B5FA044624
:10082000E4B1012C1AD0022C18D1102002F062FC85
:1008300014E0202001F0CCFE80B102F00FFA044653
:1008400064B1012C0AD0022C08D1054802F090FCBA
:10085000044802F079FC202002F04CFC10BD00009E
:10086000AF2D0020582D002010B5002404E02046B4
:1008700000F07CFB601CC4B2052CF8DB10BD00004E
:100880000246094B9A4201D2084801E00648103856
:1008900001F000531BB1064B0B40C36002E0044B58
:1008A0000B4083607047000010640240006002400B
:1008B0007D0F7D0F21B1026842F00102026003E06A
:1008C000026822F0010202607047014600200A68B7
:1008D00002F001020AB1012000E0002070474160EF
:1008E00070477047704770477047000000B52DEDA6
:1008F000088B85B001204449087000F0A1FA4348F4
:1009000001F048FD01204249087005F09DFA414878
:1009100006F0E4F84049B1F9100007F070F941EC35
:100920001B0B9FED3E1BB0EE4B0AF0EE6B0A03F083
:100930002FFEB0EE409AF0EE609A3749B1F90E0002
:1009400007F05DF941EC1B0B9FED341BB0EE4B0A39
:10095000F0EE6B0A03F01CFEB0EE40AAF0EE60AAC7
:1009600053EC192B51EC1A0B06F0D8FE41EC180B86
:1009700006F0A2FE2B490860264890ED020ABDEE63
:10098000C00A10EE100A00B2224991ED010ABDEE34
:10099000C00A10EE101A0AB21E4991ED000ABDEE0F
:1009A000C00A10EE101A09B21F4B1B681BB2CDE92A
:1009B0000131CDE903201C48001F006800B21A4A2B
:1009C000083A0090126813B2104A92ED010ABDEE87
:1009D000C00A10EE102A11B20C4A92ED000ABDEEC8
:1009E000C00A10EE102A10B20E4A92ED000ABDEEB7
:1009F000C00A10EE102A12B206F0E1FDFFF708FF60
:100A000005B0BDEC088B00BD10010020A02A00201D
:100A1000340100204C2D0020AC2A002000000000F2
:100A200000000040480000203C040040704710B522
:100A3000F021002002F0C6F910BD000010B52048DA
:100A4000007801283BD11F48008800B21E49088069
:100A5000FFF749FF1A48B0F90400022804DB002020
:100A600017498880FFF742FF1548B0F906000528AE
:100A700004DB00201249C880FFF7D9FF1048B0F905
:100A800008000A2804DB00200D490881FFF72AFF2F
:100A90000B48B0F90A00142804DB002008494881FB
:100AA000FFF722FF0648B0F90C00322804DB0020D3
:100AB00003498881FFF7BAFF00200149087010BD83
:100AC000C41100205C0000203E00002010B5102062
:100AD00000F014F828B1102000F004F8102000F005
:100AE00007F810BD0149086070470000143C014040
:100AF0000149086070470000143C01400146002095
:100B0000034A12680A400AB1012000E00020704741
:100B1000143C0140002123498279002A3AD00A4638
:100B2000126803689A430B461A600A1D126803682C
:100B30009A430B1D1A60027911440A6803681A432C
:100B40000A60184A0832126803689A43154B083342
:100B50001A601A1D126803689A43124B0C331A600C
:100B60004279102A0ED11A1F126803681A430D4BDE
:100B700008331A601A1D126803681A43094B0C33B4
:100B80001A600DE00749427911440A6803681A4364
:100B90000A6005E0027911440A6803689A430A6012
:100BA00070470000003C014030B10749096841F43A
:100BB0008061054A116005E00349096821F48061FC
:100BC000014A116070470000003C024070B50446C5
:100BD0000A460026092502B909E0012A01D11602B8
:100BE00005E0022A01D1160201E04FF4407600F040
:100BF0009DF80546092D28D11548006820F440705D
:100C000013490860084600683043086008460068D9
:100C100020F0F80008600846006844F0020108432C
:100C20000B4908600846006840F48030086000F016
:100C30007DF805460648006820F002000449086077
:100C40000846006820F0F8000860284670BD0000E3
:100C5000103C024009201349096801F48031B1F5C4
:100C6000803F01D101201CE00E49096801F010010C
:100C700009B1062015E00B49096801F4807109B13A
:100C800002200EE00749096801F0EF0109B10720D1
:100C900007E00449096801F0020109B1082000E0F9
:100CA000092070470C3C02400348006840F00040B7
:100CB0000149086070470000103C024030B5024610
:100CC0000C46092500F032F80546092D17D10D48CC
:100CD000006820F440700B4908600846006808600E
:100CE0000846006840F001000860147000F01EF82B
:100CF00005460448006820F00100024908602846C3
:100D000030BD0000103C02400548006800F0004083
:100D100028B1044802490C3908600348086070474C
:100D2000103C024023016745AB89EFCD08B509208F
:100D30000090FFF78FFF009002E0FFF78BFF00901D
:100D40009DF800000128F8D09DF8000008BDF0B51E
:100D50000A4600210023002400BF3DE0012505FADA
:100D600001F3156805EA03049C4234D105684F007D
:100D70000326BE40B543056015794E00B5400668B0
:100D8000354305601579012D02D01579022D16D154
:100D900085684F000326BE40B543856055794E00F7
:100DA000B540866835438560456801268E40B54369
:100DB0004560456896798E40B6B235434560C56852
:100DC0004F000326BE40B543C560D5794E00B540FF
:100DD000C6683543C560491C1029BFD3F0BDF0B5C6
:100DE000002300244D07ED0E02FA05F3CE1000F1AA
:100DF000200555F826504E07F70E0F26BE40B54386
:100E0000CF1000F1200646F82750CE1000F1200543
:100E100055F8265045EA0304CE1000F1200545F8A8
:100E20002640F0BD0246002013690B400BB10120A3
:100E300000E0002070474183704701837047000045
:100E4000324890ED030A324880ED040A2F4890EDB5
:100E5000040AB1EE400A2E4880ED050A2B4890EDB9
:100E6000050A2B4880ED060A2A4890ED000A2A4818
:100E700080ED000A294890ED000A264880ED000A1E
:100E800090ED000A2448D0ED000A30EE600ADFED54
:100E9000240AB4EEE00AF1EE10FA05DB21480068FE
:100EA000401E2049086013E01A4890ED000A1A48D5
:100EB000D0ED000A30EE600ADFED1B0AB4EEE00A66
:100EC000F1EE10FA04D817480068401C1549086074
:100ED000144800684FF4B471484300EE100AB8EEAD
:100EE000C00A0C48D0ED000A30EE200A0F4880ED11
:100EF000000A0A4890ED010A0D4880ED000A0748F3
:100F000090ED020A0B4880ED000A70476C2A002021
:100F1000C02A0020CC000020D8000020A02A0020F9
:100F20000000A543F40000200000A5C3E400002059
:100F3000E8000020EC0000200B4A11684FF0E0228E
:100F400052694FF0E0239B69D21A4FF47A735A43E7
:100F50004FF0E0235B69B2FBF3F201EB4103C3EB1B
:100F6000C11302EBC30070474C00002010B50446CB
:100F700004EB44001B4901EB800090ED000A04EBF8
:100F8000440001EB800080ED010AFFF7D5FF00EE81
:100F9000100AB8EE400A04EB4400124901EB80004D
:100FA00080ED000A04EB440001EB800090ED000AA4
:100FB00004EB440001EB8000D0ED010A30EE600A42
:100FC00004EB440001EB800080ED020A04EB4400D6
:100FD00001EB800090ED020ABCEEC00A10EE100A90
:100FE00010BD0000E81100204FF08040406A7047BB
:100FF00008B50020009001236A460A213C2001F038
:1010000065FD40B99DF80000482809D015A0FFF7FC
:1010100055F9FF2008BD16A0FFF750F9FF20F9E7AA
:10102000702200213C2000F0E9FC052004F056FE6F
:10103000A02201213C2000F0E1FC052004F04EFE3E
:10104000002202213C2000F0D9FC062004F046FEDC
:10105000182200213C2000F0D1FC062004F03EFEC6
:101060000020D7E76572726F722032410D0A0000CE
:101070006572726F722032420D0A000010B504468C
:101080000623224603213C2001F020FD10BD000074
:101090002DE9F04104460D4616461648FFF7EEFFCF
:1010A000144B0E3B5B7C134F0E3F3F7C43EA072300
:1010B0001AB2104B0E3BDB7B0E4F0E3FBF7B43EA59
:1010C00007235B4219B20B4B0E3BDB7C094F0E3FF3
:1010D000BF7C43EA072318B200F06EF80648808A06
:1010E00020800548408D28800348B0F840003080BB
:1010F000BDE8F081022B00208C2B00203EB5044679
:101100006A4601A902A8FFF7C3FFBDF908002549F7
:101110000860BDF904004860BDF9000088602248FD
:10112000B0F90000BDF90810081A00EE100AF8EE38
:10113000C00A1D48D0F8060000EE100A20EE800A12
:101140001A4880ED000A84ED000A1748B0F9020041
:10115000BDF90410081A00EE100AF8EEC00A124891
:10116000D0F80A0000EE100A20EE800A104880ED48
:10117000000A84ED010A0C48B0F90400BDF9001022
:10118000081A00EE100AF8EEC00A0748D0F80E0060
:1011900000EE100A20EE800A064880ED000A84ED79
:1011A000020A3EBDDC2B0020C22D0020F8000020EA
:1011B000FC00002000010020F0B503460C46002092
:1011C0000021012019E0504D35F81060451E4E4FAA
:1011D00027F8156007F1160535F81070451E4A4EC0
:1011E000163626F8157006F1160535F81070451EEE
:1011F000163626F81570451CE8B20A28E3DB424D86
:101200006B822C85EA87002005E03F4D35F91050B0
:101210002944451CE8B20A28F7DB0A2591FBF5F5BD
:101220002DB2394EB5820021002006E0364D16352C
:1012300035F910502944451CE8B20A28F6DB0A2586
:1012400091FBF5F52EB2304D6E850021002006E0B1
:101250002D4D2C3535F910502944451CE8B20A288B
:10126000F6DB0A2591FBF5F52EB2274DA5F8406077
:10127000264DB5F90650244EB6F91460B54203DD8B
:10128000214DAD8A214EF580204DB5F908601E4DE7
:10129000B5F92A50AE4203DD1B4D6D8D1B4E3581D5
:1012A0001A4DB5F90A60184DB5F94050AE4204DD4B
:1012B000154DB5F84050154E7581144DB5F90050D7
:1012C000114EB6F91460B54203DA0F4DAD8A0F4ED8
:1012D00035800E4DB5F902600B4DB5F92A50AE427E
:1012E00003DA094D6D8D094E7580084DB5F904601E
:1012F000054DB5F94050AE4204DA034DB5F8405003
:10130000024EB580F0BD00008C2B0020CE2B0020BB
:1013100000BFFEE710B5044600F0DCF824B101215F
:101320000B48FFF78AFD03E001210948FFF783FD21
:1013300002210748FFF781FD012000F00BF8022190
:101340000348FFF778FD012000F004F810BD00000D
:10135000000C024010B5002106E0062200BF131E5B
:10136000A2F10102FBD1491C8142F6D310BD00005D
:101370001CB50121082001F019FE03200090012076
:101380008DF8040000208DF8060003208DF805007C
:1013900069460248FFF7DBFC1CBD0000000C024060
:1013A00070B5002400F082F8002518E002211048F2
:1013B000FFF741FD0120FFF7CDFF02210C48FFF7A9
:1013C0003CFD6006040E01210948FFF72BFD08B122
:1013D000601CC4B20120FFF7BDFF681CC5B2082D18
:1013E000E4DB02210248FFF726FD204670BD000025
:1013F000000C02402DE9F04106460F46144698467F
:1014000000F07AF8304600F0E3F800F0ADF8FF287D
:1014100005D11DA0FEF752FFFF20BDE8F081384640
:1014200000F0D6F800F0A0F8FF2804D119A0FEF7CC
:1014300045FFFF20F1E700F05FF8711CC8B200F033
:10144000C7F800F091F8FF2804D115A0FEF736FF89
:10145000FF20E2E7002508E0FFF7A2FF2070002050
:10146000FFF758FF641C681CC5B2A8F10100A84230
:10147000F2DCFFF795FF20700120FFF74BFF00F033
:1014800057F80020C9E700006572726F722032467B
:101490000D0A00006572726F722032470D0A00005B
:1014A0006572726F722032480D0A00001CB501206F
:1014B000009000208DF804008DF806008DF80700DC
:1014C00002208DF8050069460148FFF740FC1CBD6D
:1014D000000C02401CB5012000908DF804008DF82E
:1014E000060003208DF8050069460248FFF72FFC2F
:1014F0001CBD0000000C024010B5FFF7EBFF0121FE
:101500000A48FFF79AFC02210848FFF796FC0120E1
:10151000FFF720FF01210548FFF78DFC0120FFF7B1
:1015200019FF02210148FFF786FC10BD000C0240A4
:1015300010B5FFF7CFFF02210A48FFF77CFC01211D
:101540000848FFF778FC0120FFF704FF0221054857
:10155000FFF773FC01210348FFF76FFC0120FFF741
:10156000F9FE10BD000C024010B54FF47A74012151
:101570001348FFF762FCFFF799FF0120FFF7EAFE2F
:1015800002210F48FFF759FC0120FFF7E3FE0AE0B4
:10159000601E80B2041E06D0FFF7CAFF09A0FEF746
:1015A0008DFEFF2010BD01210548FFF73BFC002800
:1015B000EED102210248FFF73EFC0020F2E70000D6
:1015C000000C02406572726F722032410D0A0000F9
:1015D00070B50446FFF77EFF02211348FFF72BFC8E
:1015E00000251DE004F0800020B101210E48FFF726
:1015F00024FC03E001210C48FFF71DFC6006040EEB
:101600000120FFF7A7FE02210748FFF716FC012083
:10161000FFF7A0FE02210448FFF70DFC681CC5B2CD
:10162000082DDFDB70BD0000000C024070B50646DF
:101630000C461546FFF760FF3046FFF7C9FFFFF77E
:1016400093FFFF2804D110A0FEF738FEFF2070BDE5
:101650002046FFF7BDFFFFF787FFFF2804D10DA04D
:10166000FEF72CFEFF20F2E72846FFF7B1FFFFF759
:101670007BFFFF2804D10AA0FEF720FEFF20E6E74B
:10168000FFF756FF0020E2E76572726F7220324268
:101690000D0A00006572726F722032430D0A00005D
:1016A0006572726F722032440D0A000010B5044654
:1016B00000F0E6F82CB14FF400710D48FFF7BDFBC8
:1016C00004E04FF400710A48FFF7B5FB4FF4807156
:1016D0000748FFF7B2FB012000F00CF84FF48071CF
:1016E0000348FFF7A8FB012000F004F810BD00003C
:1016F0000004024010B5002106E0062200BF131EC0
:10170000A2F10102FBD1491C8142F6D310BD0000B9
:101710001CB50121022001F049FC4FF440700090FB
:1017200001208DF8040000208DF8060003208DF8BC
:10173000050069460148FFF70AFB1CBD0004024092
:1017400070B5002400F086F800251BE04FF480718E
:101750001148FFF770FB0120FFF7CCFF4FF48071B9
:101760000D48FFF76AFB6006040E4FF400710A484B
:10177000FFF758FB08B1601CC4B20120FFF7BAFFA5
:10178000681CC5B2082DE1DB4FF480710248FFF7F9
:1017900052FB204670BD0000000402402DE9F041DC
:1017A00006460F461446984600F07EF8304600F094
:1017B000F3F800F0B9F8FF2805D11DA0FEF77EFD73
:1017C000FF20BDE8F081384600F0E6F800F0ACF804
:1017D000FF2804D119A0FEF771FDFF20F1E700F00A
:1017E00063F8711CC8B200F0D7F800F09DF8FF282C
:1017F00004D115A0FEF762FDFF20E2E7002508E016
:10180000FFF79EFF20700020FFF750FF641C681C4C
:10181000C5B2A8F10100A842F2DCFFF791FF2070E9
:101820000120FFF743FF00F05FF80020C9E7000048
:101830006572726F722032460D0A00006572726F17
:10184000722032470D0A00006572726F72203248B2
:101850000D0A00001CB54FF40070009000208DF8B8
:1018600004008DF806008DF8070002208DF80500B1
:1018700069460248FFF76BFA1CBD000000040240F5
:101880001CB54FF40070009001208DF804008DF815
:10189000060003208DF8050069460248FFF757FA55
:1018A0001CBD00000004024010B5FFF7E9FF4FF433
:1018B00000710C48FFF7C1FA4FF480710948FFF737
:1018C000BCFA0120FFF716FF4FF400710548FFF73F
:1018D000B2FA0120FFF70EFF4FF480710148FFF7C5
:1018E000AAFA10BD0004024010B5FFF7C9FF4FF47B
:1018F00080710C48FFF79FFA4FF400710948FFF719
:101900009AFA0120FFF7F6FE4FF480710548FFF7C1
:1019100094FA4FF400710348FFF78FFA0120FFF7A4
:10192000E9FE10BD0004024010B54FF47A744FF484
:1019300000711548FFF781FAFFF78CFF0120FFF7D0
:10194000D9FE4FF480711048FFF777FA0120FFF7B6
:10195000D1FE0AE0601E80B2041E06D0FFF7C4FF6D
:101960000AA0FEF7ABFCFF2010BD4FF40071064843
:10197000FFF758FA0028EDD14FF480710248FFF7C5
:101980005AFA0020F0E70000000402406572726F0E
:10199000722032410D0A000070B50446FFF770FF57
:1019A0004FF480711448FFF746FA002521E004F057
:1019B000800028B14FF400710F48FFF73EFA04E0B1
:1019C0004FF400710C48FFF736FA6006040E012050
:1019D000FFF790FE4FF480710748FFF72EFA0120C1
:1019E000FFF788FE4FF480710348FFF724FA681C64
:1019F000C5B2082DDBDB70BD0004024070B50646A1
:101A00000C461546FFF750FF3046FFF7C5FFFFF7BE
:101A10008BFFFF2804D110A0FEF750FCFF2070BD03
:101A20002046FFF7B9FFFFF77FFFFF2804D10DA085
:101A3000FEF744FCFF20F2E72846FFF7ADFFFFF773
:101A400073FFFF2804D10AA0FEF738FCFF20E6E769
:101A5000FFF74AFF0020E2E76572726F72203242A0
:101A60000D0A00006572726F722032430D0A000089
:101A70006572726F722032440D0A000000B52DEDC0
:101A8000108B93B0FE4890ED000AD0ED000A20EED6
:101A9000200A8DED080A90ED000AFA48D0ED000A00
:101AA00020EE200AB0EE40FAF54890ED000AF64824
:101AB000D0ED000A20EE200AF0EE40AAF04890EDAA
:101AC000000AF248D0ED000A20EE200A8DED070A48
:101AD000EC4890ED000AD0ED000A20EE200AF0EE6E
:101AE00040FA90ED000AE848D0ED000A20EE200A06
:101AF0008DED060AE34890ED000AE448D0ED000AB7
:101B000020EE200AB0EE40BADF4890ED000AD0ED9A
:101B1000000A20EE200AF0EE40BA90ED000ADB4801
:101B2000D0ED000A20EE200A8DED050A90ED000AA6
:101B3000D0ED000A20EE200A8DED040AD44890ED85
:101B4000030ADFEDD40A20EE200ADFEDD30A80EE8F
:101B5000201AD24880ED001ACD4890ED040ADFED3E
:101B6000CD0A20EE200ADFEDCC0A80EE201ACC4808
:101B700080ED001AC64890ED050ADFEDC60A20EE9A
:101B8000200ADFEDC50A80EE201AC64880ED001A53
:101B9000BF4890ED000AC44880ED000ABC4890EDB3
:101BA000010AC24880ED000AB94890ED020AC04817
:101BB00080ED000AB64890ED060ABE4880ED000AA6
:101BC000B34890ED070ABC4880ED000AB04890ED9C
:101BD000080ABA4880ED000AFFF706FAB84908601B
:101BE00008460068B749096888420CD3B4480068C1
:101BF000B4490968401A00EE100AB8EE400ADFED59
:101C0000B20AC0EE208AAE480068AE490860A64815
:101C1000D0ED000A90ED001A60EE810AA34890ED25
:101C2000001AD0ED001A41EE210AA14890ED001AE9
:101C3000D0ED001A41EE210AB0EE600A04F0B2F8CD
:101C4000B0EE408A984890ED000A20EE080A80ED38
:101C5000000A964890ED000A20EE080A80ED000A7E
:101C6000934890ED000A20EE080A80ED000A9148A2
:101C7000D0ED000A90ED001A60EE810A8E4890EDDA
:101C8000001AD0ED001A41EE210A8C4890ED001A9E
:101C9000D0ED001A41EE210AB0EE600A04F082F89D
:101CA000B0EE408A834890ED000A20EE080A80EDED
:101CB000000A814890ED000A20EE080A80ED000A33
:101CC0007E4890ED000A20EE080A80ED000A79486F
:101CD00090ED000AF0EE000A60EE200AB6EE000A6F
:101CE00030EE6B1A9DED040A31EE400A20EE800AB8
:101CF0007148D0ED000AB0EE001A60EE811ADDEDF9
:101D0000060A9DED071A70EEC10A01EEA00A6B48A3
:101D1000D0ED000AB0EE001A60EE810A3BEE2A1AFE
:101D200000EE810A8DED110A624890ED000AF0EE96
:101D3000000A20EE201A9DED060ADDED070A30EEBE
:101D4000200A21EE000A5C48D0ED000AB0EE001A2D
:101D500020EE811AF6EE000A70EEEF1ADDED040AAD
:101D600071EEE00A01EE200A5448D0ED000AB0EE10
:101D7000001A20EE811ADDED050A70EECF0A01EEA1
:101D8000200A8DED100A4B4890ED000AF0EE000A93
:101D900020EE200A7BEE6A0A60EE200A464890EDAB
:101DA000000AB0EE001A20EE011A9DED050A70EE51
:101DB0000F1AB0EE600A01EE210A4048D0ED000A89
:101DC000B0EE001A60EE810AB6EE001A31EE6F1A1C
:101DD00031EE6B1AB0EE409A00EE819A9DED110A39
:101DE00060EE000A9DED100A40EE000A10EE901A17
:101DF000084606F061FACDE900019DED000B03F005
:101E000053FA8DED020B9DED020B51EC100B05F01A
:101E100053FC09EE900AB0EE49AA3BEE6A0AF0EED6
:101E2000000A20EE200A8DED0F0A9DED050A3FEE17
:101E3000000AF0EE000A20EE200A8DED0E0A9DED5C
:101E4000080A30EE6F0A70EE6B0A9DED040A30EE60
:101E5000800A8DED0D0AB0EE000A69EE800AB6EE3A
:101E6000000A30EE6B1A9DED040A31EE400A20EEB6
:101E7000800AB0EE4A9AF0EE000A69EE200A25E0E8
:101E80009000002094000020980000209C0000207A
:101E90006C2A0020DB0F494000003443A0000020E2
:101EA000A4000020A8000020AC000020B00000200A
:101EB000B4000020B8000020BC000020C0000020BA
:101EC000C8000020C40000200024F4493BEE6A1A38
:101ED00000EE810A8DED0C0AB0EE000A29EE801AA0
:101EE0009DED060ADDED070A30EE600A21EE000ADC
:101EF000B0EE4A9AF0EE000A29EE201ADDED050A4E
:101F00007FEE200A01EE200A8DED0B0AB0EE000AEA
:101F100029EE800A7AEE8B0A20EE200AB0EE4A9A69
:101F2000F0EE000A69EE200AB6EE001A31EE6F1AE2
:101F300031EE6B1A00EE810A8DED0A0AAF48D0ED42
:101F4000000A9DED0D0A60EE800AAD4890ED001A82
:101F50009DED0E0A41EE400AAA4890ED001A9DED53
:101F60000A0A21EE001AA848D0ED001A9DED0B0ACE
:101F700001EEC01A30EE81CAA148D0ED000A9DEDF5
:101F80000F0A60EE800AA14890ED001A9DED0D0A3F
:101F900041EE400A9C4890ED001A9DED0C0A21EE9E
:101FA000001A9B48D0ED001A9DED0A0A01EEC01AF6
:101FB00070EE81CA9548D0ED000A9DED0E0A60EEE4
:101FC000800A8E4890ED001A9DED0F0A41EE400AFE
:101FD0008F4890ED001A9DED0B0A21EE001A8948FA
:101FE000D0ED001A9DED0C0A01EEC01A30EE81DA38
:101FF000B5EEC0CAF1EE10FA57D0F5EEC0CAF1EE58
:1020000010FA52D0B5EEC0DAF1EE10FA4DD09FEDD5
:10201000810A6CEE000A804890ED000A00EEA80AE2
:1020200080ED000A9FED7B0A6CEE800A7B4890ED04
:10203000000A00EEA80A80ED000A9FED760A6DEE18
:10204000000A774890ED000A00EEA80A80ED000A29
:10205000744890ED000AF0EE000A00EE8C0A6E481B
:10206000D0ED000A30EE200A6E4880ED000A6E487E
:1020700090ED000AF0EE000A00EEAC0A6748D0EDE1
:10208000000A30EE200A684880ED000A674890EDAB
:10209000000AF0EE000A00EE8D0A6148D0ED000A59
:1020A00030EE200A614880ED000A614890ED000A98
:1020B000B1EE400A5B48D0ED000A20EE200A5D48F0
:1020C000D0ED000A584890ED001A00EEC10A5A48B7
:1020D00090ED001A5548D0ED001AF0EE400A41EE9E
:1020E000610A564890ED000A00EEA80A8DED090A33
:1020F00090ED000A4B48D0ED000A20EE200A4D4832
:10210000D0ED000A494890ED001A00EE810A4A48D5
:10211000D0ED000A444890ED001A00EEC10A444890
:10212000D0ED000AF0EE60DA40EE28DA434890ED98
:10213000000A3D48D0ED000A20EE200A3C48D0EDD0
:10214000000A3A4890ED001A00EEC10A3A48D0ED74
:10215000000A344890ED001A00EE810A3548D0EDAF
:10216000000AB0EE60EA00EE28EA344890ED000A7A
:102170002E48D0ED000A20EE200A2D48D0ED000AAE
:10218000294890ED001A00EE810A2A48D0ED000A95
:10219000244890ED001A00EEC10A2748D0ED000A4D
:1021A000F0EE60EA40EE28EADDED090A60EEA00AF2
:1021B0004DEEAD0A4EEE0E0A4EEEAE0AB0EE600ADD
:1021C00003F0F0FDB0EE408A9DED090A20EE080A0A
:1021D0001A4880ED000A2DEE880A154880ED000AA5
:1021E0002EEE080A134880ED000A2EEE880A1248E7
:1021F00080ED000A13B0BDEC108B00BDB0000020D4
:10220000B4000020BC000020C0000020AC00002072
:10221000B80000200AD7233C84000020880000205A
:102220008C000020A0000020A4000020A8000020B6
:1022300094000020980000209C00002090000020C6
:1022400010B504460C4800F021F8FFF717FC0B48C6
:1022500090ED000A84ED000A094890ED000A84ED33
:10226000010A084890ED000A84ED020A064890ED44
:10227000000A84ED030A10BD6C2A002090000020A3
:1022800094000020980000209C00002030B585B00C
:1022900004460DF1120004A9031F03AACDE90010A2
:1022A000891F02A800F02EFCBDF8080036490880FE
:1022B000BDF80A004880BDF80C008880BDF80E000B
:1022C0000881BDF810004881BDF812008881002502
:1022D0001DE0032D0BDA02A830F9150000EE100AFC
:1022E000B8EEC00A04EB850080ED000A0EE002A8FB
:1022F00030F9150000EE100AB8EEC00ADFED230A2F
:1023000080EE201A04EB850080ED001A6D1C062D6E
:10231000DFDB04F11800FEF7F1FE94ED060ABDEED6
:10232000C00A10EE100A00B21749C88194ED070ADE
:10233000BDEEC00A10EE100A00B2088294ED080A41
:10234000BDEEC00A10EE100A00B248820846B0F98D
:10235000100001EE100AB8EEC11AF0EE410A08466C
:10236000B0F90E0001EE100AB8EEC11AB0EE410A43
:1023700003F028FC00EE100AB8EEC00A044880ED15
:10238000000A05B030BD0000AC2A00203333034200
:10239000F000002010B52DED0C8B04468748FFF7A8
:1023A0004FFF864890ED020AF8EE000A20EE200A60
:1023B000D0ED020A20EE200AD0ED030AB0EE001A9A
:1023C00060EE810A90ED031A00EEC10AF7EE000AF2
:1023D00030EE200A10EE101A084605F06DFF41ECB1
:1023E0001C0B764890ED010AF0EE000A20EE200A60
:1023F000D0ED020A20EE200AD0ED000AB0EE001A5D
:1024000060EE810A90ED031A00EE810A10EE101AB8
:10241000084605F051FF41EC1D0BB0EE4C1AF0EEF2
:102420006C1AB0EE4D0AF0EE6D0A01F0B9FFB0EE95
:1024300040BAF0EE60BA51EC1B0B05F031F941ECFB
:102440001A0B9FED5F0B53EC102B05F03FFC41EC9A
:10245000190B9FED5D0B53EC102B05F01BFA41ECB3
:10246000180B05F029F900EE100A84ED000A534814
:1024700090ED010AF8EE000A20EE200AD0ED030AE2
:1024800020EE200AD0ED000AB0EE001A60EE810ABC
:1024900090ED021A00EE810A10EE101A084605F0BF
:1024A0000BFF41EC1C0BB0EE4C0AF0EE6C0A01F095
:1024B0005BFCB0EE40BAF0EE60BA51EC1B0B05F0DD
:1024C000EFF841EC1A0B9FED3E0B53EC102B05F08F
:1024D000FDFB41EC190B9FED3C0B53EC102B05F071
:1024E000D9F941EC180B05F0E7F800EE100A84ED7D
:1024F000010A324890ED010AF8EE000A20EE200AA7
:10250000D0ED010A20EE200AD0ED020AB0EE001A4A
:1025100060EE810A90ED021A00EEC10AF7EE000AA1
:1025200030EE200A10EE101A084605F0C5FE41EC08
:102530001B0B224890ED020AF0EE000A20EE200A62
:10254000D0ED030A20EE200AD0ED000AB0EE001A0A
:1025500060EE810A90ED011A00EE810A10EE101A69
:10256000084605F0A9FE41EC1C0BB0EE4B1AF0EE4C
:102570006B1AB0EE4C0AF0EE6C0A01F011FFB0EEEF
:1025800040AAF0EE60AA9FED0E0B53EC102B51EC1D
:102590001A0B05F09BFB41EC190B9FED0B0B53EC59
:1025A000102B05F077F941EC180B05F085F800EEDB
:1025B000100A84ED020ABDEC0C8B10BD902A00209D
:1025C000000000000080664000000060FB21094020
:1025D000014604480068084008B101207047002007
:1025E000FCE70000A40100201548C089401C1449E4
:1025F000C88108468088401C00B288800846C08890
:10260000401C00B2C88008460089401C00B2088106
:1026100008464089401C00B2488108468089401C19
:1026200000B2888108460078012804D10846407825
:10263000401C487002E0012001490870704700000A
:10264000C41100202DE9F04304460D46DDE907677B
:1026500000200021012041E0DFF8D8C13CF81080C3
:10266000A0F1010CDFF8CC9129F81C8009F1160CBF
:102670003CF81090A0F1010CDFF8B88108F11608C1
:1026800028F81C9008F1160C3CF81090A0F1010CF1
:1026900008F1160828F81C9008F1160C3CF8109068
:1026A000A0F1010C08F1160828F81C9008F1160C8E
:1026B0003CF81090A0F1010C08F1160828F81C90C5
:1026C00008F1160C3CF81090A0F1010C08F1160866
:1026D00028F81C9000F1010C0CF0FF000A28BBDB6D
:1026E000DFF850C1ACF81240ACF82850ACF83E20EE
:1026F000ACF85430ACF86A60ACF88070002008E0A8
:10270000DFF830C13CF910C0614400F1010C0CF05D
:10271000FF000A28F4DB4FF00A0C91FBFCFC0FFAD7
:102720008CFCDFF81081A8F814C0002100200AE01A
:10273000DFF800C10CF1160C3CF910C0614400F147
:10274000010C0CF0FF000A28F2DB4FF00A0C91FBA1
:10275000FCFC0FFA8CF8DFF8DCC0ACF82A80002112
:1027600000200AE0DFF8CCC00CF12C0C3CF910C0C2
:10277000614400F1010C0CF0FF000A28F2DB4FF07D
:102780000A0C91FBFCFC0FFA8CF8DFF8A8C0ACF83F
:102790004080002100200AE0DFF898C00CF1420CD4
:1027A0003CF910C0614400F1010C0CF0FF000A2854
:1027B000F2DB4FF00A0C91FBFCFC0FFA8CF8DFF80F
:1027C00074C0ACF85680002100200AE0DFF864C035
:1027D0000CF1580C3CF910C0614400F1010C0CF0F4
:1027E000FF000A28F2DB4FF00A0C91FBFCFC0FFA09
:1027F0008CF8DFF840C0ACF86C80002100200AE0C3
:10280000DFF830C00CF16E0C3CF910C0614400F1EF
:10281000010C0CF0FF000A28F2DB4FF00A0C91FBD0
:10282000FCFC0FFA8CF8DFF80CC0ACF88280BDE835
:10283000F0830000082B002010B501221921D020C0
:10284000FFF7DCF8FF2804D10CA0FDF737FDFF20CF
:1028500010BD14A0FDF732FD0A2003F03FFA01225B
:102860003821D020FFF7CAF8FF2804D115A0FDF7C2
:1028700025FDFF20ECE70020EAE7000043616E6ED3
:102880006F7420656E61626C6520696E746572722A
:10289000757074207375636365737366756C6C799A
:1028A0002E0D0A004D50553630353020736574209A
:1028B00073616D706C65207261746520646F6E6504
:1028C0002E0A00006572726F722031490D0A0000F5
:1028D00008B500200090FEF71BFF01236A46752112
:1028E000D020FEF75BFF40B99DF80000682809D0B2
:1028F00036A0FDF7E3FCFF2008BD37A0FDF7DEFCA6
:10290000FF20F9E701226B21D020FFF777F8FF289D
:1029100004D134A0FDF7D2FCFF20EDE703221A21F9
:10292000D020FFF76BF8FF2804D131A0FDF7C6FCDB
:10293000FF20E1E710221B21D020FFF75FF8FF28DE
:1029400004D12EA0FDF7BAFCFF20D5E700221C2100
:10295000D020FFF753F8FF2804D12BA0FDF7AEFCE1
:10296000FF20C9E702223721D020FFF747F8FF28D0
:1029700004D128A0FDF7A2FCFF20BDE700223821EA
:10298000D020FFF73BF8FF2804D125A0FDF796FCE7
:10299000FF20B1E700226A21D020FFF72FF8FF289F
:1029A00004D11FA0FDF78AFCFF20A5E7FEF720FB5E
:1029B000FF2804D11DA0FDF781FCFF209CE74FF408
:1029C000FA7003F08BF9002096E700006572726FD1
:1029D000722031410D0A00006572726F722031421F
:1029E0000D0A00006572726F722031430D0A0000FB
:1029F0006572726F722031450D0A00006572726F48
:102A0000722031460D0A00006572726F72203147E4
:102A10000D0A00006572726F722031480D0A0000C5
:102A20006572726F722031490D0A00006572726F13
:102A30007220314B0D0A000010B502E0C82003F0EF
:102A40004DF9FFF745FFFF28F8D010BD00B585B060
:102A50000121880300F0CAFA0121084600F0A6FA15
:102A60001020039000208DF810008DF81200012036
:102A70008DF8130002208DF8110003A91248FEF70B
:102A800066F90421002000F03FFB10200090002098
:102A90008DF804000C208DF8050001208DF806004B
:102AA0006846FEF737F80A208DF8080002208DF8F6
:102AB000090000208DF80A0001208DF80B0002A803
:102AC00000F02CFA05B000BD000002402DE9F041F5
:102AD00004460D4616461F463B46324629462046CA
:102AE000FEF75CFEFF2805D103A0FDF7E7FBFF2002
:102AF000BDE8F0810020FBE76572726F7220314AF9
:102B00000D0A00002DE9FC4704460D4616461F46F7
:102B1000DDE90A8948480078002872D0002046493B
:102B200008700E23454A3B21D020FFF7CFFF4348D2
:102B30000E30FEF7A3FA414840784049097840EA50
:102B4000012000B23E4908803C48C0783B49897862
:102B500040EA012000B23B490880384840793749B3
:102B6000097940EA012000B2374908803348407AA9
:102B70003249097A40EA012000B2344908802F48DE
:102B8000C07A2E49897A40EA012000B23049088093
:102B90002A48407B2949097B40EA012000B22D499F
:102BA00008800846B0F900002949B1F90010CDE9C4
:102BB00000102648B0F900302348B0F90020214821
:102BC000B0F900101E48B0F90000FFF73BFD2248A5
:102BD000808A20802048408D28801F48B0F840001F
:102BE00030801D48B0F8560038801B48B0F86C00A3
:102BF000A8F800001848B0F88200A9F8000018E012
:102C0000FFE71548808A20801348408D28801248AD
:102C1000B0F8400030801048B0F8560038800E48B8
:102C2000B0F86C00A8F800000B48B0F88200A9F8D2
:102C30000000BDE8FC87000010010020F42A0020FD
:102C40000401002006010020080100200A010020E4
:102C50000C0100200E010020082B002010B5444874
:102C6000B0F900004249B1F90610084400EE100A1C
:102C7000B8EEC00AF0EE000A80EE201ABDEEC10ADE
:102C800010EE100A00B23B4908803948B0F9020042
:102C90003749B1F90810084400EE100AB8EEC00A2E
:102CA000F0EE000A80EE201ABDEEC10A10EE100A06
:102CB00000B2304948802E48B0F904002C49B1F9DF
:102CC0000A10084400EE100AB8EEC00AF0EE000A3E
:102CD00080EE201ABDEEC10A10EE100A00B225499E
:102CE0008880B7EE000A10EE100AC1F806002048EE
:102CF000B0F900001E49B1F90610401A00EE100AA2
:102D0000F8EEC00A1A48B0F902001949B1F90810E2
:102D1000401A00EE100AB8EEC01A80EE810A10EEDA
:102D2000100A1449C1F80A001148B0F9000010490E
:102D3000B1F90610401A00EE100AF8EEC00A0C486D
:102D4000B0F904000A49B1F90A10401A00EE100A5D
:102D5000B8EEC01A80EE810A10EE100A0549C1F8DB
:102D60000E005A20887404A0FDF7A8FA022010BDB6
:102D7000CE2B0020AF2D00204D61672D63616C6963
:102D800020656E640000000010B54FF470400749E4
:102D90000880488088804FF48050C880088148812E
:102DA00003A0FDF78BFA022010BD0000CE2B0020FF
:102DB0004D61672D63616C692073746172740000EA
:102DC00000BFFEE770B505460C46002C63D03248C4
:102DD0000088844215D03C2C09DA3C2090FBF4F0AA
:102DE000401E2E49088001202D49088007E0002060
:102DF0002A4908803C2094FBF0F0294908802648A5
:102E000004802848008825490988884205DA254831
:102E10000088401C234908803DE0002021490880AB
:102E200000F048F8204800882049098808442049D3
:102E300049571B4A128801FB02001C49098890FB74
:102E4000F1F201FB12001849088008464088174932
:102E50000988084416494957114A128801FB0200A3
:102E60001249098890FBF1F201FB12000E494880DB
:102E7000084680880D49098801440D484057084A92
:102E8000128800FB02100949098890FBF1F201FB4E
:102E900012000549888070BD7A0000207C00002067
:102EA000800000207E0000206800002064000020D8
:102EB0009E84000810B50C4800880C4A32F81010A7
:102EC0000B4800F086FD08484088084A32F8101088
:102ED000074800F080FD04488088044A32F810104A
:102EE000034800F07AFD10BD680000206C1A002035
:102EF0000004004010B53221A72000F03FFB10BDB8
:102F000010B5FFF7D7FF10BD10B500F0B5F9FFF70A
:102F1000F1FFFFF7F5FF10BD7047000070B500210D
:102F200000230F22C4781CB3174C246804F4E06417
:102F3000C4F5E064C4F30721C1F10404E3B20A411B
:102F400044789C40E1B28478144021430C07210E60
:102F50000E4C05786155047804F01F050124AC403F
:102F600005786D11AD0005F1E025C5F8004109E0D7
:102F7000047804F01F050124AC40054D0678761155
:102F800045F8264070BD00000CED00E000E400E0D4
:102F900080E100E002490143024A116070470000ED
:102FA0000000FA050CED00E07047000029B1064A68
:102FB00012680243044B1A6004E0034A1268824319
:102FC000014B1A60704700003038024029B1064AB0
:102FD00012680243044B1A6004E0034A12688243F9
:102FE000014B1A60704700004038024029B1064A80
:102FF00012680243044B1A6004E0034A12688243D9
:10300000014B1A607047000044380240F0B50021BF
:1030100000220024022500260223324F3F6807F0D9
:103020000C0121B1042905D0082937D105E02E4F24
:10303000076036E02D4F076033E02A4F3F1F3F689F
:10304000C7F38056274F3F1F3F6807F03F036EB11D
:10305000264FB7FBF3F7DFF88CC0ACF1040CDCF8BB
:1030600000C0CCF3881C07FB0CF40CE01E4FB7FB30
:10307000F3F7DFF870C0ACF1040CDCF800C0CCF35F
:10308000881C07FB0CF4174F3F1F3F68C7F301472D
:103090007F1C7D00B4FBF5F7076002E0124F07606C
:1030A00000BF00BF0F4F3F6807F0F0010909104F44
:1030B0007A5C0768D74047600A4F3F6807F4E051E1
:1030C000890A0B4F7A5C4768D7408760054F3F6895
:1030D00007F46041490B064F7A5C4768D740C760E8
:1030E000F0BD0000083802400024F40000127A000D
:1030F000B3010020024909688143014A1160704709
:10310000A40100207047000030B500228B071C0F7F
:103110000F2303FA04F20B4B8C1053F82430934323
:10312000084C8D1044F8253023468C1053F8243079
:103130008C07240F00FA04F42343024C8D1044F84A
:10314000253030BD0838014010B50446132204F183
:1031500024010248FDF71EF910BD0000C22D002019
:10316000024909680143014A11607047A401002027
:1031700010B5044634B1132221460348FDF70AF97D
:10318000FDF790FA10BD00007C2D00200CB500204A
:10319000019000903448006840F480303249086063
:1031A00000BF3148006800F4003000900198401CD6
:1031B0000190009818B90198B0F5A04FF1D12A48B4
:1031C000006800F4003010B10120009001E0002000
:1031D00000900098012846D123484030006840F014
:1031E00080502149403108602048006840F4404048
:1031F0001E4908601C48083000681B4908310860F7
:103200000846006840F4004008600846006840F442
:10321000A05008601648091F0860081F006840F0A9
:103220008070091F086000BF0F48006800F0007040
:103230000028F9D040F205700E4908600A480830AD
:10324000006820F00300084908310860084600685B
:1032500040F00200086000BF03480830006800F03A
:103260000C000828F8D10CBD003802400070004066
:1032700008544007003C024010B52DED108B84B07F
:1032800000244FF4966051490880084600880321C5
:1032900090FBF1F04E49088000204E490880084616
:1032A00000884B49098808444A49488008464088B4
:1032B00047490988084447498880002046490880D2
:1032C000084600884249098808444349488008461E
:1032D00040883F49098808443F49888000203F4989
:1032E0000880084600883A49098808443B494880D4
:1032F000084640883649098808443849888000BF14
:103300005BE03248008804F091FC41EC1E0B601C2D
:1033100004F075FC41EC1F0B9FED310B53EC102BAF
:1033200004F0D4FC53EC1E2BCDE900019DED000B05
:1033300051EC100B04F0AEFA41EC1D0B9FED2A0B83
:1033400053EC102B04F0C2FC41EC1C0B9FED280B3E
:1033500053EC102B04F0BAFC41EC1B0BB0EE4B0A03
:10336000F0EE6B0A01F03CFFB0EE40AAF0EE60AA6E
:103370009FED1B0B53EC102B51EC1A0B04F0CEF904
:1033800041EC190B9FED1C0B53EC102B04F09EFC31
:1033900041EC180B9FED1A0B53EC102B04F07AFA4A
:1033A000CDE902019DED020B51EC100B04F0FAFB8C
:1033B000154921F81400601C84B204480088844236
:1033C0009FDB04B0BDEC108B10BD0000640000203A
:1033D00066000020680000206E00002074000020BD
:1033E000000000000000F03F00000000000000406E
:1033F000182D4454FB210940000000000000494002
:1034000000000000000014406C1A0020042808D1BD
:103410004FF0E021096941F004014FF0E022116111
:1034200007E04FF0E021096921F004014FF0E022AC
:10343000116170477FB56846FFF7E8FD4FF47A7178
:103440000198B0FBF1F4E4082146481EB0F1807FFA
:1034500000D31BE0481E4FF0E022506150170F22AE
:10346000002807DA13071E0E0B4B00F00F052D1F67
:103470005E5503E013071D0E084B1D5400BF0020CE
:103480004FF0E02290610720106100BF6FF0040050
:10349000FFF7BCFF7FBD000018ED00E000E400E096
:1034A00010B504480068401C0249086003F0A2FF00
:1034B00010BD00004C00002010B51548006840F415
:1034C0007000134908601348006840F0010011497A
:1034D000086000200F49083108600E4800680E4956
:1034E00008400C4908600D48091D0860081F006865
:1034F00020F48020091F0860002006490C31086074
:10350000FFF744FE4FF0006001498039086010BDAC
:1035100088ED00E000380240FFFFF6FE1030002486
:103520000EB501210846FFF751FD4FF0FF30019025
:103530005320ADF800000020ADF80800ADF80200FF
:103540000121880700F0CAF869464FF0804000F07A
:1035500047FA0121880700F0D3F80EBD10B501210C
:10356000880700F0D9F838B10121880700F0C5F8C4
:103570000121880700F0BEF810BD000030B58BB007
:1035800005460C4601210220FFF720FD0121042001
:10359000FFF70CFD022206213448FDF720FC022231
:1035A00007213248FDF71BFC022208212F48FDF7B6
:1035B00016FC022209212D48FDF711FC4FF4707012
:1035C000099002208DF8280001208DF82B0003209F
:1035D0008DF8290009A92548FDF7B9FBA8B2ADF877
:1035E00018000020ADF81A000794ADF820008DF8FF
:1035F000220006A91E4800F0F3F96020ADF804008F
:103600000120ADF806000020ADF80800ADF810006C
:103610000820ADF812000020ADF814000390082136
:10362000134800F0C9F801A9114800F087F80821F3
:103630000F4800F01DF901A90D4800F0C7F8082156
:103640000B4800F073F901A9094800F01FF908219F
:10365000074800F0B1F901A9054800F071F901210E
:10366000034800F04DF80BB030BD000000080240E8
:103670000004004010B51648008820F001001449ED
:10368000088000BF72B613480068401C11490860EA
:1036900000BF0F481430006884B22146002003F0B8
:1036A00049FF0D4800680A49243108600A4840680B
:1036B000091D086008488068091D086000BF0548AA
:1036C0000068401E0349086000B962B600BF10BD23
:1036D00010040140600000202412002021B1028863
:1036E00042F08002028004E002884FF67F731A40A5
:1036F00002807047CA4302827047CA430282704701
:1037000021B1028842F00102028004E002884FF6F3
:10371000FE731A400280704730B502460020002335
:103720000024158A05EA0103958905EA010413B10D
:103730000CB1012000E0002030BD000070B5002475
:1037400000220023058C4FF6FE7635400584028C5E
:103750008388048B4FF68F752C40B51E2C400D8846
:103760002C43751E2A408D892A434D882A43104DCB
:10377000A84202D00F4DA84213D14FF6F7752A4048
:10378000CD892A434FF6FB752A408D882A434FF690
:10379000FF652B404FF6FF552B400D8A2B434D8A7A
:1037A0002B43838004838D684563028470BD0000D1
:1037B00000000140000401400A460021018B4FF641
:1037C000F7731940114301837047000070B500245E
:1037D00000220023058C4FF6EF7635400584028CDD
:1037E0008388048B48F6FF752C404FF6FF452C402C
:1037F0000D884FF6FF7606EA05252C434FF6DF7558
:103800002A408D8906EA05152A434D8806EA0515E2
:103810002A43154DA84202D0144DA8421DD14FF69F
:103820007F752A40CD894FF6FF7606EA05152A43B3
:103830004FF6BF752A408D8806EA05152A434FF6D4
:10384000FF352B404FF2FF752B400D8A06EA8505A8
:103850002B434D8A06EA85052B43838004838D68BC
:103860008563028470BD0000000001400004014037
:103870000A460021018B4FF2FF7319404FF6FF7388
:1038800003EA0223194301837047000070B5002446
:1038900000220023058C4FF6FF6635400584028C1C
:1038A0008388848B4FF68F752C404FF6FC752C4027
:1038B0000D882C434FF6FF552A408D894FF6FF7631
:1038C00006EA05252A434D8806EA05252A43154DB3
:1038D000A84202D0144DA8421DD14FF2FF752A40D4
:1038E000CD894FF6FF7606EA05252A434FF6FF35C8
:1038F0002A408D8806EA05252A434EF6FF752B409F
:103900004DF6FF752B400D8A06EA05152B434D8AAF
:1039100006EA05152B43838084838D68C563028482
:1039200070BD000000000140000401400A46002173
:10393000818B4FF6F7731940114381837047000064
:1039400070B5002200230024058C4EF6FF7635402A
:103950000584038C8488828B48F6FF752A404FF6D5
:10396000FF452A400D884FF6FF7606EA05252A43D3
:103970004DF6FF752B408D8906EA05352B434D88A2
:1039800006EA05352B430A4DA84202D0094DA8424C
:1039900008D14BF6FF752C400D8A4FF6FF7606EAEC
:1039A00085152C43848082838D680564038470BDF3
:1039B00000000140000401400A460021818B4FF2C3
:1039C000FF7319404FF6FF7303EA02231943818303
:1039D00070474163704781637047C163704700005F
:1039E00000220288184B98420ED0184B98420BD0F8
:1039F000B0F1804F08D0164B984205D0154B984235
:103A000002D0154B984204D14FF68F731A404B8861
:103A10001A43124B984207D0114B984204D04FF6EC
:103A2000FF431A400B891A4302804B68C3620B881C
:103A30000385054B984202D0044B984201D18B7A02
:103A40000386012383827047000001400004014087
:103A50000004004000080040000C0040001000403E
:103A60000014004010B540F22551284800F09DF8A0
:103A700000284AD0254800F051F92549087025480A
:103A8000008800F4004088BB2248008800F4804091
:103A900070B1084600780A2803D000201D4908802C
:103AA00024E01C48008840F400401A4908801DE0CA
:103AB000174800780D2806D11648008840F4804049
:103AC0001449088012E01248007812490988C1F3AD
:103AD0000D01114A50540F480088401C0D490880C0
:103AE00008460088C72801DD0020088008480078C3
:103AF000282803D11020FFF733FB06E004480078A4
:103B0000292802D12020FFF72BFB10BD0010014017
:103B1000B2010020B0010020D52D002010B51148C1
:103B20000088114908700F48001F008808700021A4
:103B30000E48FCF7BFFE01200D4908700D490B48E7
:103B4000FCF79EFE00BF0948FCF7BFFE0028FAD133
:103B50004FF400710548FCF7C2FE01210348FCF751
:103B6000A9FE10BD04480040160100202860024054
:103B700012010020000C001021B1828942F4005291
:103B8000828104E082894DF6FF731A40828170477A
:103B900002460020B1F5007F00D100BF13880B4022
:103BA0000BB1012000E00020704770B502460024F0
:103BB00000230025002040F66A16B14200D100BF64
:103BC000C1F3421501F01F03012606FA03F3012D8C
:103BD00002D19689334006E0022D02D1168A334085
:103BE00001E0968A33400C12012606FA04F4168886
:103BF000344013B10CB1012000E0002070BDF0B5DD
:103C00000346002400260025002040F66A17B9422A
:103C100000D100BF1846C1F3421401F01F0601276E
:103C200007FA06F5012C01D10C3004E0022C01D179
:103C3000103000E014301AB107682F43076002E02B
:103C40000768AF430760F0BD2DE9FF4705460E4604
:103C50000024A14600BFA046B08900B100BF2C8A55
:103C600024F44054F08804432C82AC8941F20C6067
:103C70008443B08831890843718908430443AC8187
:103C8000AC8A24F44074B0890443AC826846FFF7E0
:103C9000BDF92048854202D01F48854202D1DDF897
:103CA0000C9001E0DDF80890A88900F4004040B1D4
:103CB00009EBC90000EB091031684900B0FBF1F7CE
:103CC00007E009EBC90000EB091031688900B0FB7F
:103CD000F1F76420B7FBF0F004012009642101FB37
:103CE0001078A88900F4004040B1322000EBC800F1
:103CF000B0FBF1F000F00700044308E0322000EBD5
:103D000008106421B0FBF1F000F00F0004432C8197
:103D1000BDE8FF870010014000140140014688887B
:103D2000C0F308007047C1F308028280704700BFEB
:103D3000FEE703B401984100009850EAC12018BF83
:103D400004204A0D18BF40F0010040F2FF72B2EBB0
:103D5000515F08BF40F00200012808BF052002B0F3
:103D6000704700000000000070B5C1482DED020B47
:103D70002DED0E8B82B0119D25F000449FEDBEDB32
:103D80009FEDBFEB84423EDBA4F140511098A1F1BE
:103D90007F6108430FD0BC48844202DC28D11098D0
:103DA00030B39DED100B02B0BDEC0E8B02B0BDE840
:103DB000704001F0B9BE9DED100B53EC1D2B51EC82
:103DC000100B03F083FF9DED100B41EC180B53EC2F
:103DD0001E2B51EC100B03F079FF53EC182B03F062
:103DE0009DFC41EC100B02B0BDEC0E8B02B070BD1F
:103DF0000120FCF753FB02B0BDEC0E8B02B0BDE816
:103E0000704001F0A5BEA1489FEDA18B844256DA17
:103E10009DED100BB4F1795F0ADA51EC100BFFF74E
:103E200088FF042808BF01F0B3FE9DED100BDAE710
:103E300053EC102B51EC100B03F048FF41EC190B25
:103E400095480621B0EE490AF0EE690A784401F07F
:103E50003FFD53EC192B51EC100B03F037FF41ECF5
:103E60001A0B8E48B0EE490AF0EE690A0421784434
:103E700001F02EFD53EC192B51EC100B03F026FF33
:103E800053EC182B03F04AFC41EC100B51EC1A0BCD
:103E900053EC102B03F0FEFCCDE900019DED000B6F
:103EA00053EC102B9DED100B51EC100B03F00EFF9B
:103EB0009DED101B53EC112B03F030FCD2E09DED77
:103EC000100B51EC100B01F053FF53EC182B04F0C6
:103ED00031F89FED730BCDE9000153EC102B9DEDF4
:103EE000000B51EC100B03F0F1FE41EC190B6E4886
:103EF0000621B0EE490AF0EE690A784401F0E8FCC8
:103F000053EC192B51EC100B03F0E0FE41EC1B0BB2
:103F10006648B0EE490AF0EE690A0421784401F0DF
:103F2000D7FC53EC192B51EC100B03F0CFFE53ECE4
:103F3000182B03F0F3FB41EC1C0B51EC190B03F0B5
:103F400021FA41EC180B5A489FED5BABA04222DCF2
:103F500053EC1C2B51EC1B0B03F09CFCCDE9000136
:103F60009DED000B51EC180B53EC102B03F0AEFE43
:103F700053EC182B03F0D2FB53EC1A2B03F0A6FEE4
:103F800053EC1D2B04F0AEF853EC1E2B03F0D2FFC4
:103F900041EC100B5FE08DED008B002000909DED5B
:103FA000000B51EC180B53EC102B03F0B7FB9DEDFD
:103FB000000B41EC1E0B53EC102B51EC100B03F0DB
:103FC00085FE53EC192B03F0B5FF53EC1E2B03F0C9
:103FD00061FC41EC190B53EC1C2B51EC1B0B03F057
:103FE00059FC41EC1B0B53EC1A2B51EC190B03F051
:103FF0006DFE53EC1D2B03F09DFF41EC190B53ECB0
:104000001A2B51EC180B03F061FE53EC1B2B03F041
:104010005DFE53EC192B04F065F89DED000B41ECAF
:10402000180B53EC1A2B51EC100B03F04FFE9FEDC5
:10403000249B53EC192B03F07DFF41EC100B51EC4A
:10404000180B53EC102B04F04DF853EC192B03F024
:1040500071FF41EC100B002D3FF7C5AE51EC100B7A
:1040600003F01EFB41EC100BBDE600000000000059
:104070000000F03F00000000075C143326A6913CCE
:10408000182D4454FB21F93F0000F07F0000E03F71
:10409000000000000000F03F784600008646000067
:1040A000000000000000E03FCA450000D8450000C5
:1040B0003333EF3F0000000000000000000000402C
:1040C000182D4454FB21E93F70B59B482DED020BA0
:1040D0002DED068B079D25F00044A04218DC974883
:1040E000844202DC0AD1069840B19DED060BBDEC7E
:1040F000068B02B0BDE8704001F016BD002DCCBFAC
:104100009FED8F0B9FED900BBDEC068B02B070BD49
:104110008F48A04215DD8F48A042D8BF4FF0FF3432
:1041200058DD9DED060B51EC100BFFF702FE042845
:1041300008BF01F02DFD9DED060BBDEC068B02B016
:1041400070BD9DED060B51EC100B01F011FECDE999
:10415000060181489FED828BA0423CDD8248A0424F
:104160001FDD00249FED82AB9DED060B53EC1A2B57
:1041700051EC100B03F0D2FA9DED060B41EC190B3C
:1041800053EC1A2B51EC100B03F0A0FD53EC182B41
:1041900003F0A8FF53EC192B03F07CFBCDE90601DB
:1041A00049E09DED060B012453EC182B51EC100B4C
:1041B00003F0B4FA9DED060B41EC190B53EC182BF0
:1041C00051EC100B03F08EFF53EC192B03F062FB44
:1041D000CDE906012FE06848A0421FDD02249FEDD3
:1041E000689B9DED060B53EC192B51EC100B03F063
:1041F0006DFD53EC182B03F091FA9DED060B41EC8D
:10420000180B53EC192B51EC100B03F06BFF53EC14
:10421000182B03F03FFBCDE906010CE09DED060BEA
:10422000032453EC102B9FED580B51EC100B03F0B3
:1042300031FBCDE906019DED060B53EC102B51EC43
:10424000100B03F043FD41EC180B53EC182B03F05B
:104250003DFD41EC190B4E480621B0EE490AF0EE47
:10426000690A784401F034FB53EC182B51EC100B25
:1042700003F02CFD41EC180B4648B0EE490AF0EE75
:10428000690A0521784401F023FB53EC192B51EC0A
:10429000100B03F01BFD41EC100B51EC180B53EC11
:1042A000102B002C0EDA03F039FA9DED061B53ECAF
:1042B000112B03F00BFD9DED061B53EC112B03F0AE
:1042C00039FE35E003F02AFA9DED061B53EC112B65
:1042D00003F0FCFC41EC100B2F48784400EBC400C9
:1042E00090ED001B51EC100B53EC112B03F0FAFE78
:1042F0009DED061B53EC112B03F0F4FE41EC100B6B
:104300002648784400EBC40090ED001B51EC100BE4
:1043100053EC112B03F00EFE41EC100B002DA2BF4D
:10432000BDEC068B02B070BD51EC100B03F0B8F978
:1043300041EC100B01E70000000010440000F07F8A
:10434000182D4454FB21F93F182D4454FB21F9BF8B
:104350000000DC3F0000203E0000F33F00000000B2
:10436000000000000000F03F0000E63F00000000F9
:10437000000000000000004000800340000000003A
:10438000000000000000F83F000000000000F0BF47
:10439000A243000058430000E24200009A4200009D
:1043A00070B56B4E2DED040B2DED028B82B0DDF858
:1043B0001CC0DDE905235C422CF000411C4341EAAE
:1043C000D474049D22F00040B44205D86C422C43C2
:1043D00040EAD474B4420BD99DED061B9DED040B4D
:1043E00002B0BDEC028B04B0BDE8704001F0A6BB8A
:1043F000ACF14054A4F17F641C430BD0022404EAC6
:10440000AC7444EAD27405439FED538B9FED542B5B
:1044100007D015E09DED040B51EC100B01F0CAFB29
:1044200042E0002C11BF012C9DED040B02B0BDEC4D
:10443000028B04BF04B070BD022C38D0032C3BD0DB
:104440000B439FED491B9FED4A0B0AD0B14218D197
:10445000B04209D121F0804120F0804007910590C1
:104460000FE0002A15DA10E0434B7B44002C08BF14
:1044700093ED000B0DD0012C10D0022C17D0032C83
:104480001AD0B0421DD1002A03DAB0EE410AF0EE94
:10449000610A02B0BDEC028B04B070BD93ED000B5D
:1044A00051EC100B03F0FCF841EC100BF1E7B0EE0F
:1044B000480AF0EE680AECE7B0EE420AF0EE620A53
:1044C000E7E7401A00153C28C8BF8DED000B19DC4A
:1044D000BCF1000FBEBF10F13C0F9FED290B8DED1D
:1044E000000B0FDB9DED060B53EC102B9DED040B29
:1044F00051EC100B03F0CEF901F03AFC01F05AFB3D
:10450000CDE90001002C08BF9DED000BC1D0012CAE
:1045100010D0022C9FED1C0B53EC102B9DED000BCB
:1045200051EC100B0DD003F0DDFD53EC182B03F014
:10453000D9FDB9E7019880F0004001909DED000B96
:10454000A7E703F0CFFD53EC182B03F0F3FCABE728
:104550000000F07F00000000182D4454FB210940AA
:10456000182D4454FB2109C0182D4454FB21F9BFD8
:10457000182D4454FB21F93FFA41000000000000CF
:104580000000000000000000075C143326A6A13CD8
:104590002DE9F04D2DED040B2DED0E8B96B0DDE9E0
:1045A0002550279CDDF890A025F0004624F0004817
:1045B000BAF1000F14BF0121002101EB4502FC49B3
:1045C00053184A1093422AD3002814BF0123002312
:1045D00003EB44030B44F7498B4220D358EA000114
:1045E0009FEDF59B76D0DFF8D8B35D4503D1BAF1E6
:1045F000000F05D188E0BAF1000F08BF002100D0FC
:10460000012101EB450111F5001F08D8002814BF56
:104610000121002101EB440111F5001F0BD99DED93
:10462000261B9DED240B16B0BDEC0E8B04B0BDE82F
:10463000F04D01F083BA0027002DBCBFE149884549
:1046400021DAE1498845A8BF02271CDAC3451ADCF4
:10465000DE4901EB2851142908DDC1F1340220FAAA
:1046600002F101FA02F282420DD108E058B9C1F11B
:10467000140228FA02F101FA02F2424503D101F0D4
:104680000101C1F1020756EA0A0124D1002C22DA05
:10469000002D18BF022F01D0012F0AD00220FBF7F6
:1046A000FDFE16B0BDEC0E8B04B0BDE8F04D01F080
:1046B00023BA0220FBF7F2FE01F01EFA51EC100BB8
:1046C00002F0EEFF41EC100B16B0BDEC0E8B04B007
:1046D000BDE8F08D18E09FEDBEAB9FEDBF8B0028CD
:1046E00071D1B848804522D105F1804010F5801085
:1046F00008BFBAF1000F07D0B3450ADC002CA8BFF1
:104700009DED260BE0DA0DE0B0EE490AF0EE690A05
:10471000DAE7002C06DA9DED260B51EC100B02F0C7
:10472000BFFF6FE0AE48784490ED000BCCE7D84572
:104730004DD1002C48DA2EB186423AD1BAF1000FA1
:1047400042D126E0BAF1000F13D00220FBF7A6FEFB
:1047500001F00EFA8DED020B9DED240B8DED000B9B
:1047600010EE900A039961F31E0003909DED020B79
:10477000AAE78DED02AB9DED240B1AEE901A10EE18
:10478000900A8DED000B61F31E0003909DED020B6E
:104790009AE78DED028B9DED240B18EE901A10EE2A
:1047A000900A8DED000B61F31E0003909DED020B4E
:1047B0008AE709DA9DED240B51EC190B53EC102B11
:1047C00003F068F81EE020E09DED240B7CE78642B4
:1047D0001BDAB4F1804F0DD0A4F10050B0F1FF50BE
:1047E00013D1002D11DB9DED240B51EC100B02F0C9
:1047F000C9FD07E09DED240B53EC102B51EC100B81
:1048000000F0C2BC41EC100B5EE79DED240B51ECB7
:10481000100B01F0ADFABAF1000FCDE90E0142D153
:104820009FED710B46B3A6F1E040B0F17F600CD074
:104830005E4538D1002D00DAA7B3022F0CBF01204E
:104840004FF0FF3003F0DBF9DCE7002D01DD002C39
:104850000DDA002D01DD002C1FDB002D16DA002CF7
:1048600014DB012F08BF9FED620B3FF42DAFB0EEBC
:104870004A0AF0EE6A0A27E7022F18BF002D0CD073
:10488000012F0AD1002DFFF61FAF06E0002DB8BFA3
:10489000002C08DA012F3FF417AFB0EE480AF0EE13
:1048A000680A11E71BE0012000EBE57050EA070100
:1048B00015D0791EB0EE498AF0EE698A084308BF28
:1048C0009FED4D8B4E480025804570DD4D494E488B
:1048D000884514DDB0420DDB002C19DB2FE00120F0
:1048E000FBF7DCFD16B0BDEC0E8B04B0BDE8F04D5F
:1048F00001F02EB9B34502DC002C09DC1FE0864232
:1049000002DA002C1BDA03E05E452BDD002C16DDFD
:104910000220FBF7C3FD01F02BF98DED020B53ECE8
:104920001A2B51EC180B03F0D1F9CDE900010399D2
:10493000019861F31E0003909DED020BC4E6022076
:10494000FBF7ACFD01F024F910EE901A18EE900A76
:104950008DED020B8DED008B61F31E0003909DED3C
:10496000020BB1E69DED0E0B53EC192B51EC100B25
:1049700003F0B8FB9FED260BCDE9080153EC102B9B
:104980009DED080B51EC100B03F0A0F99FED221BDD
:1049900053EC112B03F0CEFA9DED081B53EC112BB9
:1049A00003F094F99FED1E1B53EC112B3CE08CE0BF
:1049B000FFFF1F00FFFF0F00000000000000F03F9E
:1049C0000000F03F0000F07F0000404301FCFFFFCB
:1049D000000000000000F07F000000000000000068
:1049E0003E3F0000000000000000000000000080CA
:1049F000000000000000F0FF000000000000F0BF19
:104A00000000E0410000F043FFFFEF3F0000000026
:104A1000000000000000D03F555555555555D53F75
:104A2000000000000000E03F03F084FA9DED080B59
:104A300041EC1A0B53EC102B51EC100B03F046F920
:104A400053EC1A2B03F042F941EC1A0B9FEDFE0BCD
:104A500053EC102B9DED080B51EC100B03F036F9C5
:104A600041EC1B0B9FEDFA0B51EC1A0B53EC102B86
:104A700003F02CF941EC1A0B9FEDF70B53EC102BC4
:104A80009DED080B51EC100B03F020F953EC1A2BA1
:104A900003F028FB41EC1A0B51EC1B0B53EC1A2BC7
:104AA00002F03CFE0690CDE906519DED060B53EC5D
:104AB0001B2B51EC100B03F015FB53EC1A2B03F0DE
:104AC00039FA41EC100B00F0A1B90020B6F5801FB7
:104AD0000EDA9FEDE30B53EC102B9DED0E0B51EC1A
:104AE000100B03F0F3F8CDE90E016FF034000E4621
:104AF00000EB2650A0F2FF37C6F31300DA4940F06E
:104B00007F6646F040568842D8BF002408DDD7496A
:104B10008142C8BF012403DC0024A6F580167F1C57
:104B2000D348784400EBC4000F9690ED00CB9DED88
:104B30000E0B53EC1C2B51EC100B03F0D3FA9DED34
:104B40000E0B41EC1B0B53EC1C2B51EC100B02F029
:104B5000E5FD41EC100B51EC190B53EC102B02F05E
:104B600099FE41EC1D0B51EC1B0B53EC1D2B03F07C
:104B7000ADF841EC1A0BBF488DED10AB78441095A1
:104B800090ED000B4FF0005040EA660000EB8440CF
:104B90008DED080B00F5002009909DED080B53ECFE
:104BA0001C2B51EC100B03F09DFA9DED0E1B53ECEA
:104BB000112B03F0BFF941EC100B53EC102B9DEDC2
:104BC000100B51EC100B03F081F89DED080B41EC3C
:104BD0001C0B53EC102B9DED100B51EC100B03F044
:104BE00075F853EC1B2B03F0A5F953EC1C2B03F0C9
:104BF00079FA53EC1D2B03F069F841EC1C0B53ECD4
:104C00001A2B51EC1A0B03F061F841EC1B0B9A487C
:104C10000621B0EE4B0AF0EE6B0A784400F058FE25
:104C2000B0EE401AF0EE601AB0EE41DAF0EE61DA62
:104C300053EC1B2B51EC1B0B03F048F853EC1D2BD2
:104C400003F044F89DED100B41EC1B0B53EC1A2BB9
:104C500051EC100B02F062FD53EC1C2B03F036F804
:104C600053EC1B2B02F05AFD9DED100B41EC1B0B7E
:104C700053EC102B51EC100B03F028F841EC1D0BFA
:104C80009FED7FEB53EC1E2B02F048FD53EC1B2BEA
:104C900002F044FD0890CDE908519DED080B53EC5E
:104CA0001E2B51EC100B03F01DFA53EC1D2B03F0DF
:104CB00019FA53EC1B2B03F03DF99DED080B41EC69
:104CC0001D0B53EC102B9DED100B51EC100B02F053
:104CD000FDFF41EC1B0B53EC1A2B51EC1D0B02F0AA
:104CE000F5FF9DED080B41EC1A0B53EC102B51EC2A
:104CF0001C0B02F0EBFF53EC1A2B02F00FFD41EC02
:104D00001A0B51EC1B0B53EC1A2B02F007FD0C9005
:104D1000CDE90C519DED0C0B53EC1B2B51EC100B02
:104D200003F0E0F953EC1A2B03F004F941EC1B0BF0
:104D30009FED550B53EC102B9DED0C0B51EC100B14
:104D400002F0C4FF41EC1A0B9FED510B51EC1B0B11
:104D500053EC102B02F0BAFF41EC1B0B9FED4E0BF6
:104D600053EC102B9DED0C0B51EC100B02F0AEFF31
:104D700053EC1B2B02F0D2FC41EC100B484878445A
:104D800000EBC40090ED001B51EC100B53EC112B09
:104D900002F0C4FC41EC1B0B384602F030FFCDE9B9
:104DA000080153EC1B2B51EC1A0B02F0B7FC41EC41
:104DB000100B3C48784400EBC40090ED00CB51EC64
:104DC000100B53EC1C2B02F0A9FC9DED081B53ECBF
:104DD000112B02F0A3FC0690CDE906519DED080BC6
:104DE00053EC102B9DED060B51EC100B03F07AF9F0
:104DF00053EC1C2B03F076F953EC1A2B03F072F9E9
:104E000053EC1B2B03F096F841EC100B9DED261B89
:104E100053EC102B8DED001B00959DED260B51ECF6
:104E2000100B02F053FF9DED000B41EC1A0B53ECFD
:104E3000102B9DED260B51EC100B03F053F99DED5B
:104E4000061B53EC112B2FE0000000604715F73FC5
:104E5000FE822B654715F73F44DF5DF80BAE543EED
:104E600000000000000040438E9803007AB60B005B
:104E7000F2390000E83A00002A3900000000000082
:104E80000000000000000840000000E009C7EE3FFD
:104E9000FD033ADC09C7EE3FF5015B14E02F3EBE8F
:104EA000B63700007037000002F010FF53EC1A2BE9
:104EB00002F034FC9DED060B41EC1A0B53EC102B69
:104EC0009DED000B51EC100B02F000FFCDE90C0141
:104ED0009DED0C0B51EC1A0B53EC102B02F01EFC49
:104EE000CDE902010C46AA498C422FDB611A084326
:104EF00018D19DED0C0B53EC102B9DED020B51ECDA
:104F0000100B03F0EFF841EC1B0B9FEDA30B51ECE2
:104F10001A0B53EC102B02F001FC53EC1B2B02F08C
:104F2000D3FF2DD20220FBF7B9FA00F021FE10EEDC
:104F3000901A18EE900A8DED020B8DED008B61F347
:104F40001E0003909DED020BFFF7BEBB944A24F0B8
:104F50000041914214D39349214408437FF4EFACBC
:104F60009DED0C0B53EC102B9DED020B51EC100B37
:104F700003F0B8F853EC1A2B02F0A6FF7FF6DFAC73
:104F800024F000408849894A002601EB20518242E2
:104F90002BDA481C4FF4801121FA00F02044844A97
:104FA000C0F30A517A44A1F2FF3192ED000B814A1D
:104FB0008DED080BCA4020EA0202C0F3130040F452
:104FC0008010C1F1140120FA01F60992002CB8BF3B
:104FD00076429DED080B53EC102B9DED0C0B51EC24
:104FE000100B03F07FF8CDE90C019DED0C0B51EC9B
:104FF0001A0B53EC102B02F091FB9FED6F0B0890F6
:10500000CDE9085153EC102B9DED080B51EC100B22
:1050100002F05CFE41EC1B0B9FED690B53EC102B77
:105020009DED080B51EC100B02F050FE9DED0C0BAA
:1050300041EC1C0B53EC102B9DED080B51EC100BAD
:1050400003F050F853EC1A2B02F074FF9FED5E1B37
:1050500053EC112B02F03AFE53EC1C2B02F05EFBDA
:1050600041EC1A0B51EC1B0B53EC1A2B02F056FBC4
:10507000CDE902019DED020B53EC1B2B51EC100B03
:1050800003F030F853EC1A2B02F054FF9DED020BA5
:1050900041EC1A0B53EC102B51EC100B02F016FEE6
:1050A000CDE908014A489DED080B0521784400F040
:1050B0000FFC9DED081B51EC100B53EC112B02F073
:1050C00005FE9DED021B53EC112B02F033FFCDE9E1
:1050D00006019DED020B53EC1A2B51EC100B02F064
:1050E000F5FD53EC1A2B02F019FB9FED3B0B41EC45
:1050F0001A0B53EC102B9DED060B51EC100B02F02C
:10510000F1FF9DED060B41EC1B0B53EC102B9DEDBD
:10511000020B51EC100B02F0D9FD53EC1B2B02F0EB
:10512000B9FB53EC1A2B02F0DDFF9DED021B53EC93
:10513000112B02F0D7FF53EC192B02F0FBFECDE947
:10514000020101EB065001150029C8BF039015DCD0
:105150009DED020B324651EC100B03F05AF9FEF7AD
:10516000E8FD042808BF00F013FD32469DED020B58
:1051700051EC100B03F04DF9CDE902019DED020B4E
:1051800051EC180B53EC102B02F0A0FDFFF73ABBCB
:105190000000904000000000FE822B654715973C00
:1051A00000CC904000346F3F01FCFFFF0000E03F67
:1051B000C0360000FFFF0F0000000000432EE63F56
:1051C000396CA80C615C20BEEF39FAFE422EE63F36
:1051D000C834000000000000000000000000004093
:1051E00010B52F499FED2C1B2DED020B84B00598B7
:1051F00020F000408842DCBF00209DED040B32DD32
:105200002849884209D1049840B94FF00100FBF7C2
:1052100045F900F09DFC06B010BD05DB9DED040BCB
:1052200000F082FC06B010BD68469DED040B00F056
:105230007BF810F0030011D0012818D09DED021B5F
:105240009DED000B02281AD000F08AFA51EC100BE9
:1052500002F026FA06B041EC100B10BD9DED021BCA
:105260009DED000B012000F0AFFB06B010BD9DEDE1
:10527000021B9DED000B00F073FA06B010BD01207B
:1052800000F0A2FB51EC100B02F00AFA06B041EC60
:10529000100B10BD00000000000000000000000026
:1052A000FB21E93F0000F07F00B52DED048BB0EE4F
:1052B000409AF0EE609A83B051EC190B02F046FE72
:1052C00041EC180B18EE100A18EE901A8DED008BB9
:1052D000002818BF0120084320F00040C0F17F6083
:1052E00000F1E040C00F14D019EE101A19EE900A28
:1052F0008DED009B002918BF0121084320F00040DC
:10530000C0F17F6000F1E040C00F04BF0120FBF757
:10531000C5F8B0EE480A03B0F0EE680ABDEC048BA5
:1053200000BD0000000000002DE9F14F04462DED06
:10533000020B2DED088B8AB09FEDE70B80ED020B81
:10534000139EE74826F0004585420ADC9DED120BCE
:10535000002084ED000B0AB0BDEC088B03B0BDE863
:10536000F08FE0489FEDE0AB9FEDE1BBA84247DD49
:10537000E14F9FEDE39B9FEDE48B9DED120B53EC12
:105380001A2B51EC100B002E1CDD02F0ABFE41EC91
:10539000100BBD4208D053EC1B2B51EC100B02F04C
:1053A000A1FEC4E900010BE053EC192B51EC100BEA
:1053B00002F098FE53EC182B02F094FEC4E90001B1
:1053C0000120C8E702F0AAF941EC100BBD4208D059
:1053D00053EC1B2B51EC100B02F0A0F9C4E90001B7
:1053E0000BE053EC192B51EC100B02F097F953EC36
:1053F000182B02F093F9C4E900014FF0FF30AAE73F
:10540000C348A84279DB9DED120B51EC100B00F064
:10541000AFFC41EC180B9FEDC00B53EC102B02F0CE
:1054200055FC9FEDBF1B53EC112B02F077F902F0F6
:1054300089FB074602F0E3FB41EC190B53EC1A2BF6
:1054400002F044FC53EC182B02F074FD41EC180BF5
:1054500053EC1B2B51EC190B02F038FCDFF8C8A2FF
:1054600041EC100B4FEA15580125FA4453EC102B70
:1054700051EC180B02F036FE032DC4E900013DD0BB
:10548000C1F30A5005EB4511A8EB00001139814228
:1054900034DA0AEB051BB0EE48AA9BED000BF0EEE8
:1054A00068AA53EC102B51EC190B02F00FFC41ECE5
:1054B0001B0B51EC1A0B53EC1B2B02F013FE41ECAF
:1054C000180B51EC1A0B53EC182B02F00BFE53EC9B
:1054D0001B2B02F007FE9BED020B41EC1A0B53EC69
:1054E000102B51EC190B02F0F1FB53EC1A2B02F0CC
:1054F000F9FD41EC100B6D1CB8E70EE0002EA8BFC3
:105500003846BFF628AF94ED000B51EC100B02F0BB
:10551000C7F8C4E9000178421DE7C6F3130040F460
:10552000801EC6F30A50A0F2F530471100F01F05A7
:10553000C5F12000DDF848B00890002006900790E3
:105540000520EC467949002D07EB0002794408BF9D
:1055500051F8221009D051F8223001EB8201AB4002
:105560004A68089922FA01F11943A1FB0E26A1FB12
:105570000B131A449A4234BF0123002303EB06089D
:105580000CEB8003D3E901A60E448E4234BF012107
:10559000002192448A4411B1924502D903E0924518
:1055A00001D2012100E00021C3E901A641444CF8E9
:1055B0002010011EA0F10100C4DC029800F100508F
:1055C000850F0298DDE903678000DDF8148002F0A2
:1055D00016FB41EC1A0B304602F028FB9FED541BE2
:1055E00053EC112B02F072FB41EC1B0B384602F01E
:1055F0001DFB9FED511B53EC112B02F067FB41EC9F
:10560000180B404602F012FB9FED4D1B53EC112B83
:1056100002F05CFB41EC190B51EC180B53EC192B0D
:1056200002F07CF853EC1B2B02F078F853EC1A2BA9
:1056300002F074F8CDE90801002008909DED080BF8
:1056400053EC1A2B51EC100B02F04CFD53EC1B2BBE
:1056500002F048FD53EC182B02F044FD53EC192BDB
:1056600002F068FC9FED381B53EC112B02F02EFB6F
:105670009FED370B41EC180B53EC102B9DED080BF5
:1056800051EC100B02F022FB53EC182B02F046F801
:105690009FED310B41EC180B53EC102B9DED080BDB
:1056A00051EC100B02F012FB53EC182B02F036F801
:1056B00041EC100B139810F0004F06D06D4251ECE6
:1056C000100B01F0EDFF41EC100B284684ED000BB0
:1056D00041E60000000000000000000000000000A3
:1056E000FB21E93F7CD9024000004054FB21F93FF7
:1056F0003163621A61B4D03DFB21F93F0000000024
:105700000000601A61B4D03D7370032E8A19A33B68
:10571000FB2139410000000083C8C96D305FE43FC0
:10572000000000000000E03F0232000050310000A5
:10573000000000000000103E000000000000103CCF
:10574000000000000000103A182D4454FB21F93DE0
:105750003326A611460B113C00000054FB21F93DF5
:1057600010B52DED040B2DED088B82B0B0EE419AF3
:10577000F0EE619A0B9820F000449FED4BABB4F132
:10578000795F11DA9DED0A0B51EC100B02F0DAF99A
:10579000002801BFB0EE4A0AF0EE6A0A02B0BDEC82
:1057A000088B04BF04B010BD9DED0A0B53EC102B09
:1057B00051EC100B02F08AFA41EC180B3C48062120
:1057C000B0EE480AF0EE680A784400F081F853EC35
:1057D000182B51EC100B02F079FA9DED0A0B41ECFD
:1057E0001B0B53EC192B51EC100B02F06FFA41EC30
:1057F000190B53EC1B2B51EC180B02F067FA53EC0E
:10580000192B02F06FFC9FED2C0B41EC190B53ECA4
:10581000102B51EC180B02F059FA41EC100B2848F0
:10582000844210DA53EC192B51EC100B02F05AFCA5
:1058300053EC1A2B02F07EFB41EC100B02B0BDECD6
:10584000088B04B010BD1F48A042BCBF9FED1E1BBB
:105850008DED001B06DBA4F50010019000200090E8
:105860009DED001B51EC100B53EC112B02F03AFC98
:105870009DED000B41EC180B53EC102B51EC1A0B67
:1058800002F030FC41EC1A0B53EC192B51EC180BC5
:1058900002F028FC53EC1A2B02F04CFB41EC100BED
:1058A000CCE7000000000000000000000000F03F16
:1058B0006C2E000000000000000000000000E03F2F
:1058C0003333D33F0000E93F000000000000D23F27
:1058D00070B504462DED028B4D1E00EBC500B0EEF9
:1058E000408AF0EE608A90ED000B35F0060017D08C
:1058F00053EC182B51EC100B02F0E8F941EC100BB3
:105900006D1E04EBC50090ED001B51EC100B53EC29
:10591000112B01F003FF41EC100B35F00600E7D12D
:10592000022D36D0042D1CD0062D1CBFBDEC028BE1
:1059300070BD53EC182B51EC100B02F0C7F994ED2D
:105940000A1B53EC112B01F0E9FE53EC182B02F06B
:10595000BDF994ED081B53EC112B01F0DFFE41EC77
:10596000100B53EC182B51EC100B02F0AFF994ED27
:10597000061B53EC112B01F0D1FE53EC182B02F057
:10598000A5F994ED040B53EC102B01F0C7FE41EC8C
:10599000100B53EC182B51EC100B02F097F994ED0F
:1059A000021B53EC112B01F0B9FE53EC182B02F043
:1059B0008DF994ED001B53EC112B01F0AFFEBDEC03
:1059C000028B41EC100B70BD31B504462DED040B7C
:1059D0002DED0A8BB0EE41BAF0EE61BA0B989DED59
:1059E0000A0B20F00040B0F1795F0DDA51EC100B9A
:1059F000FEF79FF9042808BF00F0CAF89DED0A0BD6
:105A0000BDEC0A8B05B030BD53EC102B51EC100BE4
:105A100002F05CF941EC180B9DED0A0B53EC182BCE
:105A200051EC100B02F052F941EC190B2C48B0EE7E
:105A3000480AF0EE680A05217844FFF749FF9FED18
:105A40002ACBB0EE40AAF0EE60AA9CB353EC1C2B1C
:105A500051EC190B02F03AF941EC1C0B53EC1A2BE8
:105A600051EC190B02F032F99FED210B41EC190BAF
:105A700053EC102B51EC1B0B02F028F953EC192BB3
:105A800002F030FB53EC182B02F020F953EC1B2BE7
:105A900002F028FB53EC1C2B02F024FB9DED0A1BAB
:105AA00053EC112B02F046FABDEC0A8B05B041EC29
:105AB000100B30BDFFE753EC1A2B51EC180B02F022
:105AC00005F953EC1C2B01F029FE53EC192B02F0C5
:105AD000FDF89DED0A1B53EC112B01F01FFEE3E7CF
