:020000040800F2
:10000000F0340020710200081D2D0008591100086D
:10001000C52B00087D0700080B3B0008000000000E
:10002000000000000000000000000000092F000890
:100030005308000800000000AD2D00089D320008A4
:100040008B0200088B0200088B0200088B0200085C
:100050008B0200088B0200088B0200088B0200084C
:100060008B0200088B0200081D0900088B020008A3
:100070008B0200088B0200088B0200088B0200082C
:100080008B0200088B0200088B0200088B0200081C
:100090008B0200088B0200088B0200088B0200080C
:1000A0008B0200088B0200088B0200088B020008FC
:1000B000593300088B0200088B0200088B020008ED
:1000C0008B0200088B0200088B0200088B020008DC
:1000D0008B020008613800088B02000819390008FB
:1000E0008B0200088B0200088B0200088B020008BC
:1000F000713400088B0200088B0200088B02000894
:100100008B0200088B0200088B0200088B0200089B
:100110008B0200088B0200088B0200088B0200088B
:100120008B0200088B0200088B0200088B0200087B
:100130008B0200088B0200088B0200088B0200086B
:100140008B0200088B0200088B0200088B0200085B
:100150008B0200088B0200088B0200088B0200084B
:100160008B0200088B0200088B0200088B0200083B
:100170008B0200088B0200088B0200088B0200082B
:100180008B0200088B02000800F002F800F061F812
:100190000AA090E8000C82448344AAF10107DA45E2
:1001A00001D100F056F8AFF2090EBAE80F0013F0D3
:1001B000010F18BFFB1A43F001031847F472000047
:1001C000147300000A444FF0000C10F8013B13F0C8
:1001D000070408BF10F8014B1D1108BF10F8015BA0
:1001E000641E05D010F8016B641E01F8016BF9D193
:1001F00013F0080F1EBF10F8014BAD1C0C1B09D1EA
:100200006D1E58BF01F801CBFAD505E014F8016B5B
:1002100001F8016B6D1EF9D59142D6D370470000ED
:100220000023002400250026103A28BF78C1FBD8FF
:10023000520728BF30C148BF0B607047782900F0D3
:100240007D80002070471FB507F00BF81FBD10B56B
:1002500010BD00F0B1F91146FFF7F5FF04F054FEB0
:1002600000F0CFF903B4FFF7F2FF03BC04F03CFD4C
:100270000948804709480047FEE7FEE7FEE7FEE73A
:10028000FEE7FEE7FEE7FEE7FEE7FEE70448054976
:10029000054A064B70470000B53200088901000886
:1002A000F02E0020F0340020F0300020F03000204C
:1002B00070470000004870478C2E00200FB404499E
:1002C00010B503AA029800F049F910BC5DF814FBC0
:1002D000A40100202DE9F0410E46044600202062D2
:1002E0002046E168884730B3252805D0D4E90121AC
:1002F0009047206A401CF2E7E168204600278847C3
:10030000050018D0A5F14100192802D820354FF476
:1003100000673246294620462760FFF78FFF40B12D
:10032000012804D0F61D26F007060836D8E7361D4A
:10033000D6E72846DAE7206ABDE8F08170B50446C2
:100340000D4621461068AFF300802188090502D5CB
:100350000F4A7A4402E00E4A7A440E32002104F138
:10036000240305E000F00F060009965D5E54491C69
:100370000028F7D120780023000704D5702D02D083
:1003800009B1022311322046BDE8704000F08CB85C
:10039000226F0000032A40F2308010F0030C00F0BE
:1003A000158011F8013BBCF1020F624498BF11F8AF
:1003B00001CB00F8013B38BF11F8013BA2F1040268
:1003C00098BF00F801CB38BF00F8013B11F00303E0
:1003D00000F02580083AC0F0088051F8043B083A44
:1003E00051F804CBA0E80810F5E7121D5CBF51F8E6
:1003F000043B40F8043BAFF30080D20724BF11F860
:10040000013B11F801CB48BF11F8012B24BF00F8C4
:10041000013B00F801CB48BF00F8012B704710B535
:10042000203AC0F00B80B1E81850203AA0E81850EC
:10043000B1E81850A0E81850BFF4F5AF5FEA027CAD
:1004400024BFB1E81850A0E8185044BF18C918C01C
:10045000BDE810405FEA827C24BF51F8043B40F8BD
:10046000043B08BF7047D20728BF31F8023B48BFA2
:1004700011F8012B28BF20F8023B48BF00F8012BE0
:100480007047704770477047004870478C2E0020B7
:10049000704710B5FFF70EFF006810BD10B5044699
:1004A000FFF708FF046010BD2DE9F0470D4699469F
:1004B0009246044600F124080168880604D5E069E4
:1004C00021F01001216000E00120A84201DD471B5E
:1004D00000E00027A1697A1902EB0900081AA0615F
:1004E0002078C00602D42046AFF30080002608E042
:1004F000D4E901211AF806009047206A401C761CB6
:1005000020624E45F4DB2078C0060AD52046AFF3C2
:10051000008006E0D4E9012130209047206A401C89
:100520002062381EA7F10107F4DC07E0D4E90121BD
:1005300018F805009047206A401C2062281EA5F18B
:100540000105F3DC2046AFF300802078000602D5D9
:100550000220BDE8F0870120FBE70000074B70B5E3
:100560000D467B4400F011F80446284600F020F8C0
:1005700010B14FF0FF3070BD204670BD4B490000F8
:1005800001694A1C02610878704700B58FB0CDE957
:1005900001310021059105497944CDE90310114647
:1005A0006846FFF797FE0FB000BD0000E5FFFFFFB4
:1005B000007B00F0800070477546FFF765FFAE4690
:1005C00005006946534620F00700854618B020B55F
:1005D000FFF75CFEBDE820404FF000064FF000073B
:1005E0004FF000084FF0000B21F00701AC46ACE8DB
:1005F000C009ACE8C009ACE8C009ACE8C0098D4648
:10060000704710B50446AFF300802046BDE81040A7
:10061000FFF728BE10B5012457220349034800F014
:1006200057F80446204610BD442D002000000E0857
:1006300001461C48814201D2002070471A4881427D
:1006400001D20820F9E71948814201D21020F4E7CD
:100650001748814201D21820EFE71648814201D2A3
:100660002020EAE71448814201D22820E5E7134818
:10067000814201D23020E0E71148814201D2382086
:10068000DBE71048814201D24020D6E70E48814284
:1006900001D24820D1E70D48814201D25020CCE759
:1006A0005820CAE7004000080080000800C0000889
:1006B000000001080000020800000408000006080D
:1006C0000000080800000A0800000C0800000E08DE
:1006D0002DE9FC5F04460D4690464FF009090120C4
:1006E000019000264FF0000A00274FF0000B002079
:1006F0000090B4F1006F01D2BDE8FC9F00F034FA25
:10070000002000F081F9264604EB080A3046FFF786
:100710008FFF83465046FFF78BFF009016488642B6
:1007200011D25F460BE00221384600F07FF9814686
:10073000B9F1090F02D00020019003E008370098BA
:100740008742F0D900BFB9F1090F0ED10AE029782C
:10075000204600F0E3F9092802D00020019003E0D0
:10076000641C6D1C5445F2D300BF012000F04CF90D
:1007700000F0CAF90198BFE70000FF1F00BFFEE7C5
:1007800010B5102001F048FE58B102F0FFF9044600
:10079000E4B1012C1AD0022C18D1102002F0ACFBCD
:1007A00014E0202001F038FE80B102F07BF904460D
:1007B00064B1012C0AD0022C08D1054802F0DAFB02
:1007C000044802F0C3FB202002F096FB10BD00009D
:1007D0009B2D0020442D002010B5002404E020466D
:1007E00000F0F4FA601CC4B2052CF8DB10BD000068
:1007F0000246094B9A4201D2084801E006481038E7
:1008000001F000531BB1064B0B40C36002E0044BE8
:100810000B4083607047000010640240006002409B
:100820007D0F7D0F21B1026842F00102026003E0FA
:10083000026822F0010202607047014600200A6847
:1008400002F001020AB1012000E00020704741607F
:1008500070477047704770477047000010B501201F
:100860000449087004F086FB034805F0CDF9FFF752
:1008700087FF10BD30010020382D0020704710B5D3
:100880007821012002F0A0F910BD000010B5204829
:10089000007801283BD11F48008800B21E4908801B
:1008A000FFF7D9FF1A48B0F90400022804DB002042
:1008B00017498880FFF7D2FF1548B0F906000528D0
:1008C00004DB00201249C880FFF7D9FF1048B0F9B7
:1008D00008000A2804DB00200D490881FFF7BAFF51
:1008E0000B48B0F90A00142804DB002008494881AD
:1008F000FFF7B2FF0648B0F90C00322804DB0020F5
:1009000003498881FFF7BAFF00200149087010BD34
:10091000BC110020580000203E00002010B510201F
:1009200000F01CF850B1102000F00CF8102000F07E
:100930000FF801200249087000F0B2F910BD000064
:100940000C0100200149086070470000143C014080
:100950000149086070470000143C01400146002036
:10096000034A12680A400AB1012000E000207047E3
:10097000143C0140002123498279002A3AD00A46DA
:10098000126803689A430B461A600A1D12680368CE
:100990009A430B1D1A60027911440A6803681A43CE
:1009A0000A60184A0832126803689A43154B0833E4
:1009B0001A601A1D126803689A43124B0C331A60AE
:1009C0004279102A0ED11A1F126803681A430D4B80
:1009D00008331A601A1D126803681A43094B0C3356
:1009E0001A600DE00749427911440A6803681A4306
:1009F0000A6005E0027911440A6803689A430A60B4
:100A000070470000003C014030B10749096841F4DB
:100A10008061054A116005E00349096821F480619D
:100A2000014A116070470000003C024070B5044666
:100A30000A460026092502B909E0012A01D1160259
:100A400005E0022A01D1160201E04FF4407600F0E1
:100A50009DF80546092D28D11548006820F44070FE
:100A6000134908600846006830430860084600687B
:100A700020F0F80008600846006844F002010843CE
:100A80000B4908600846006840F48030086000F0B8
:100A90007DF805460648006820F002000449086019
:100AA0000846006820F0F8000860284670BD000085
:100AB000103C024009201349096801F48031B1F566
:100AC000803F01D101201CE00E49096801F01001AE
:100AD00009B1062015E00B49096801F4807109B1DC
:100AE00002200EE00749096801F0EF0109B1072073
:100AF00007E00449096801F0020109B1082000E09B
:100B0000092070470C3C02400348006840F0004058
:100B10000149086070470000103C024030B50246B1
:100B20000C46092500F032F80546092D17D10D486D
:100B3000006820F440700B490860084600680860AF
:100B40000846006840F001000860147000F01EF8CC
:100B500005460448006820F0010002490860284664
:100B600030BD0000103C02400548006800F0004025
:100B700028B1044802490C390860034808607047EE
:100B8000103C024023016745AB89EFCD08B5092031
:100B90000090FFF78FFF009002E0FFF78BFF0090BF
:100BA0009DF800000128F8D09DF8000008BDF0B5C0
:100BB0000A4600210023002400BF3DE0012505FA7C
:100BC00001F3156805EA03049C4234D105684F001F
:100BD0000326BE40B543056015794E00B540066852
:100BE000354305601579012D02D01579022D16D1F6
:100BF00085684F000326BE40B543856055794E0099
:100C0000B540866835438560456801268E40B5430A
:100C10004560456896798E40B6B235434560C568F3
:100C20004F000326BE40B543C560D5794E00B540A0
:100C3000C6683543C560491C1029BFD3F0BDF0B567
:100C4000002300244D07ED0E02FA05F3CE1000F14B
:100C5000200555F826504E07F70E0F26BE40B54327
:100C6000CF1000F1200646F82750CE1000F12005E5
:100C700055F8265045EA0304CE1000F1200545F84A
:100C80002640F0BD0246002013690B400BB1012045
:100C900000E00020704741837047018370470000E7
:100CA000324890ED030A324880ED040A2F4890ED57
:100CB000040AB1EE400A2E4880ED050A2B4890ED5B
:100CC000050A2B4880ED060A2A4890ED000A2A48BA
:100CD00080ED000A294890ED000A264880ED000AC0
:100CE00090ED000A2448D0ED000A30EE600ADFEDF6
:100CF000240AB4EEE00AF1EE10FA05DB21480068A0
:100D0000401E2049086013E01A4890ED000A1A4876
:100D1000D0ED000A30EE600ADFED1B0AB4EEE00A07
:100D2000F1EE10FA04D817480068401C1549086015
:100D3000144800684FF4B471484300EE100AB8EE4E
:100D4000C00A0C48D0ED000A30EE200A0F4880EDB2
:100D5000000A0A4890ED010A0D4880ED000A074894
:100D600090ED020A0B4880ED000A7047642A0020CB
:100D7000B82A0020C8000020D4000020982A0020B3
:100D80000000A543F00000200000A5C3E000002003
:100D9000E4000020E80000200B4A11684FF0E02238
:100DA00052694FF0E0239B69D21A4FF47A735A4389
:100DB0004FF0E0235B69B2FBF3F201EB4103C3EBBD
:100DC000C11302EBC30070474800002010B5044671
:100DD00004EB44001B4901EB800090ED000A04EB9A
:100DE000440001EB800080ED010AFFF7D5FF00EE23
:100DF000100AB8EE400A04EB4400124901EB8000EF
:100E000080ED000A04EB440001EB800090ED000A45
:100E100004EB440001EB8000D0ED010A30EE600AE3
:100E200004EB440001EB800080ED020A04EB440077
:100E300001EB800090ED020ABCEEC00A10EE100A31
:100E400010BD0000E01100204FF08040406A704764
:100E500008B50020009001236A460A213C2001F0D9
:100E600059FD40B99DF80000482809D015A0FFF7AA
:100E700025FAFF2008BD16A0FFF720FAFF20F9E7AA
:100E8000702200213C2000F0DDFC052003F0C2FFB1
:100E9000A02201213C2000F0D5FC052003F0BAFF80
:100EA000002202213C2000F0CDFC062003F0B2FF1E
:100EB000182200213C2000F0C5FC062003F0AAFF08
:100EC0000020D7E76572726F722032410D0A000070
:100ED0006572726F722032420D0A000010B504462E
:100EE0000623224603213C2001F014FD10BD000022
:100EF0002DE9F04104460D4616461648FFF7EEFF71
:100F0000144B0E3B5B7C134F0E3F3F7C43EA0723A1
:100F10001AB2104B0E3BDB7B0E4F0E3FBF7B43EAFA
:100F200007235B4219B20B4B0E3BDB7C094F0E3F94
:100F3000BF7C43EA072318B200F062F80648808AB3
:100F400020800548408D28800348B0F8400030805C
:100F5000BDE8F081FA2A0020842B00203EB504462B
:100F60006A4601A902A8FFF7C3FF2148B0F90000B3
:100F7000BDF90810081A00EE100AF8EEC00A1C4865
:100F8000D0F8060000EE100A20EE800A194880ED25
:100F9000000A84ED000A1648B0F90200BDF90410F9
:100FA000081A00EE100AF8EEC00A1148D0F80A003C
:100FB00000EE100A20EE800A0F4880ED000A84ED52
:100FC000010A0B48B0F90400BDF90010081A00EE40
:100FD000100AF8EEC00A0648D0F80E0000EE100A1B
:100FE00020EE800A054880ED000A84ED020A3EBD2D
:100FF000AE2D0020F4000020F8000020FC000020AE
:10100000F0B503460C4600200021012019E0504DA8
:1010100035F81060451E4E4F27F8156007F116058C
:1010200035F81070451E4A4E163626F8157006F132
:10103000160535F81070451E163626F81570451C35
:10104000E8B20A28E3DB424D6B822C85EA87002058
:1010500005E03F4D35F910502944451CE8B20A28F7
:10106000F7DB0A2591FBF5F52DB2394EB58200214B
:10107000002006E0364D163535F910502944451C40
:10108000E8B20A28F6DB0A2591FBF5F52EB2304DC1
:101090006E850021002006E02D4D2C3535F91050CD
:1010A0002944451CE8B20A28F6DB0A2591FBF5F530
:1010B0002EB2274DA5F84060264DB5F90650244EB6
:1010C000B6F91460B54203DD214DAD8A214EF5809D
:1010D000204DB5F908601E4DB5F92A50AE4203DD2A
:1010E0001B4D6D8D1B4E35811A4DB5F90A60184D9B
:1010F000B5F94050AE4204DD154DB5F84050154EDF
:101100007581144DB5F90050114EB6F91460B54211
:1011100003DA0F4DAD8A0F4E35800E4DB5F90260E2
:101120000B4DB5F92A50AE4203DA094D6D8D094ECB
:101130007580084DB5F90460054DB5F94050AE42D3
:1011400004DA034DB5F84050024EB580F0BD000002
:10115000842B0020C62B002000BFFEE710B50446FC
:1011600000F0DCF824B101210B48FFF796FD03E005
:1011700001210948FFF78FFD02210748FFF78DFD88
:10118000012000F00BF802210348FFF784FD012045
:1011900000F004F810BD0000000C024010B5002162
:1011A00006E0062200BF131EA2F10102FBD1491C7A
:1011B0008142F6D310BD00001CB50121082001F0CA
:1011C000F7FD0320009001208DF8040000208DF829
:1011D000060003208DF8050069460248FFF7E7FC8A
:1011E0001CBD0000000C024070B5002400F082F825
:1011F000002518E002211048FFF74DFD0120FFF700
:10120000CDFF02210C48FFF748FD6006040E0121C6
:101210000948FFF737FD08B1601CC4B20120FFF791
:10122000BDFF681CC5B2082DE4DB02210248FFF7B0
:1012300032FD204670BD0000000C02402DE9F04157
:1012400006460F461446984600F07AF8304600F0FD
:10125000E3F800F0ADF8FF2805D11DA0FFF72EF848
:10126000FF20BDE8F081384600F0D6F800F0A0F885
:10127000FF2804D119A0FFF721F8FF20F1E700F0C3
:101280005FF8711CC8B200F0C7F800F091F8FF28B1
:1012900004D115A0FFF712F8FF20E2E7002508E0CF
:1012A000FFF7A2FF20700020FFF758FF641C681CA6
:1012B000C5B2A8F10100A842F2DCFFF795FF20704B
:1012C0000120FFF74BFF00F057F80020C9E70000AE
:1012D0006572726F722032460D0A00006572726F7D
:1012E000722032470D0A00006572726F7220324818
:1012F0000D0A00001CB50120009000208DF80400AC
:101300008DF806008DF8070002208DF8050069466B
:101310000148FFF74CFC1CBD000C02401CB501202D
:1013200000908DF804008DF8060003208DF805006C
:1013300069460248FFF73BFC1CBD0000000C024060
:1013400010B5FFF7EBFF01210A48FFF7A6FC0221C9
:101350000848FFF7A2FC0120FFF720FF0121054804
:10136000FFF799FC0120FFF719FF02210148FFF761
:1013700092FC10BD000C024010B5FFF7CFFF022118
:101380000A48FFF788FC01210848FFF784FC012088
:10139000FFF704FF02210548FFF77FFC0121034806
:1013A000FFF77BFC0120FFF7F9FE10BD000C0240A7
:1013B00010B54FF47A7401211348FFF76EFCFFF764
:1013C00099FF0120FFF7EAFE02210F48FFF765FCB5
:1013D0000120FFF7E3FE0AE0601E80B2041E06D083
:1013E000FFF7CAFF09A0FEF769FFFF2010BD01212A
:1013F0000548FFF747FC0028EED102210248FFF71D
:101400004AFC0020F2E70000000C02406572726F97
:10141000722032410D0A000070B50446FFF77EFFCE
:1014200002211348FFF737FC00251DE004F080007F
:1014300020B101210E48FFF730FC03E001210C48E8
:10144000FFF729FC6006040E0120FFF7A7FE02212A
:101450000748FFF722FC0120FFF7A0FE0221044805
:10146000FFF719FC681CC5B2082DDFDB70BD00005A
:10147000000C024070B506460C461546FFF760FFAB
:101480003046FFF7C9FFFFF793FFFF2804D110A0F4
:10149000FEF714FFFF2070BD2046FFF7BDFFFFF7EA
:1014A00087FFFF2804D10DA0FEF708FFFF20F2E719
:1014B0002846FFF7B1FFFFF77BFFFF2804D10AA002
:1014C000FEF7FCFEFF20E6E7FFF756FF0020E2E70D
:1014D0006572726F722032420D0A00006572726F7F
:1014E000722032430D0A00006572726F722032441E
:1014F0000D0A000010B5044600F0E6F82CB14FF4D8
:1015000000710D48FFF7C9FB04E04FF400710A4871
:10151000FFF7C1FB4FF480710748FFF7BEFB0120C6
:1015200000F00CF84FF480710348FFF7B4FB012082
:1015300000F004F810BD00000004024010B50021C6
:1015400006E0062200BF131EA2F10102FBD1491CD6
:101550008142F6D310BD00001CB50121022001F02C
:1015600027FC4FF44070009001208DF8040000200B
:101570008DF8060003208DF8050069460148FFF745
:1015800016FB1CBD0004024070B5002400F086F874
:1015900000251BE04FF480711148FFF77CFB012010
:1015A000FFF7CCFF4FF480710D48FFF776FB600624
:1015B000040E4FF400710A48FFF764FB08B1601C89
:1015C000C4B20120FFF7BAFF681CC5B2082DE1DBE9
:1015D0004FF480710248FFF75EFB204670BD0000AB
:1015E000000402402DE9F04106460F461446984695
:1015F00000F07EF8304600F0F3F800F0B9F8FF286C
:1016000005D11DA0FEF75AFEFF20BDE8F081384647
:1016100000F0E6F800F0ACF8FF2804D119A0FEF7BE
:101620004DFEFF20F1E700F063F8711CC8B200F036
:10163000D7F800F09DF8FF2804D115A0FEF73EFE74
:10164000FF20E2E7002508E0FFF79EFF2070002062
:10165000FFF750FF641C681CC5B2A8F10100A84246
:10166000F2DCFFF791FF20700120FFF743FF00F04D
:101670005FF80020C9E700006572726F7220324681
:101680000D0A00006572726F722032470D0A000069
:101690006572726F722032480D0A00001CB54FF45B
:1016A0000070009000208DF804008DF806008DF881
:1016B000070002208DF8050069460248FFF777FA17
:1016C0001CBD0000000402401CB54FF400700090E7
:1016D00001208DF804008DF8060003208DF8050028
:1016E00069460248FFF763FA1CBD0000000402408F
:1016F00010B5FFF7E9FF4FF400710C48FFF7CDFA82
:101700004FF480710948FFF7C8FA0120FFF716FF70
:101710004FF400710548FFF7BEFA0120FFF70EFFF6
:101720004FF480710148FFF7B6FA10BD0004024083
:1017300010B5FFF7C9FF4FF480710C48FFF7ABFA03
:101740004FF400710948FFF7A6FA0120FFF7F6FEF3
:101750004FF480710548FFF7A0FA4FF40071034879
:10176000FFF79BFA0120FFF7E9FE10BD00040240DD
:1017700010B54FF47A744FF400711548FFF78DFAE5
:10178000FFF78CFF0120FFF7D9FE4FF4807110485E
:10179000FFF783FA0120FFF7D1FE0AE0601E80B256
:1017A000041E06D0FFF7C4FF0AA0FEF787FDFF2046
:1017B00010BD4FF400710648FFF764FA0028EDD120
:1017C0004FF480710248FFF766FA0020F0E700004E
:1017D000000402406572726F722032410D0A0000EF
:1017E00070B50446FFF770FF4FF480711448FFF79F
:1017F00052FA002521E004F0800028B14FF4007176
:101800000F48FFF74AFA04E04FF400710C48FFF765
:1018100042FA6006040E0120FFF790FE4FF480713B
:101820000748FFF73AFA0120FFF788FE4FF480716E
:101830000348FFF730FA681CC5B2082DDBDB70BD2A
:101840000004024070B506460C461546FFF750FFEF
:101850003046FFF7C5FFFFF78BFFFF2804D110A02C
:10186000FEF72CFDFF2070BD2046FFF7B9FFFFF704
:101870007FFFFF2804D10DA0FEF720FDFF20F2E737
:101880002846FFF7ADFFFFF773FFFF2804D10AA03A
:10189000FEF714FDFF20E6E7FFF74AFF0020E2E72E
:1018A0006572726F722032420D0A00006572726FAB
:1018B000722032430D0A00006572726F722032444A
:1018C0000D0A000000B52DED108B93B0FE4890ED91
:1018D000000AD0ED000A20EE200A8DED080A90EDF6
:1018E000000AFA48D0ED000A20EE200AB0EE40FAD5
:1018F000F54890ED000AF648D0ED000A20EE200AE7
:10190000F0EE40AAF04890ED000AF248D0ED000A4F
:1019100020EE200A8DED070AEC4890ED000AD0ED8C
:10192000000A20EE200AF0EE40FA90ED000AE848A6
:10193000D0ED000A20EE200A8DED060AE34890ED76
:10194000000AE448D0ED000A20EE200AB0EE40BACA
:10195000DF4890ED000AD0ED000A20EE200AF0EEFC
:1019600040BA90ED000ADB48D0ED000A20EE200AD4
:101970008DED050A90ED000AD0ED000A20EE200A58
:101980008DED040AD44890ED030ADFEDD40A20EE71
:10199000200ADFEDD30A80EE201AD24880ED001A2B
:1019A000CD4890ED040ADFEDCD0A20EE200ADFEDF0
:1019B000CC0A80EE201ACC4880ED001AC64890ED83
:1019C000050ADFEDC60A20EE200ADFEDC50A80EE2B
:1019D000201AC64880ED001ABF4890ED000AC4489E
:1019E00080ED000ABC4890ED010AC24880ED000A73
:1019F000B94890ED020AC04880ED000AB64890ED63
:101A0000060ABE4880ED000AB34890ED070ABC48BC
:101A100080ED000AB04890ED080ABA4880ED000A4F
:101A2000FFF712FAB849086008460068B749096824
:101A300088420CD3B4480068B4490968401A00EEE3
:101A4000100AB8EE400ADFEDB20AC0EE208AAE48B6
:101A50000068AE490860A648D0ED000A90ED001A73
:101A600060EE810AA34890ED001AD0ED001A41EE15
:101A7000210AA14890ED001AD0ED001A41EE210A8A
:101A8000B0EE600A03F022FAB0EE408A984890ED7A
:101A9000000A20EE080A80ED000A964890ED000A40
:101AA00020EE080A80ED000A934890ED000A20EE2F
:101AB000080A80ED000A9148D0ED000A90ED001A66
:101AC00060EE810A8E4890ED001AD0ED001A41EECA
:101AD000210A8C4890ED001AD0ED001A41EE210A3F
:101AE000B0EE600A03F0F2F9B0EE408A834890ED60
:101AF000000A20EE080A80ED000A814890ED000AF5
:101B000020EE080A80ED000A7E4890ED000A20EEE3
:101B1000080A80ED000A794890ED000AF0EE000A0C
:101B200060EE200AB6EE000A30EE6B1A9DED040A54
:101B300031EE400A20EE800A7148D0ED000AB0EE86
:101B4000001A60EE811ADDED060A9DED071A70EEAF
:101B5000C10A01EEA00A6B48D0ED000AB0EE001AEF
:101B600060EE810A3BEE2A1A00EE810A8DED110A21
:101B7000624890ED000AF0EE000A20EE201A9DED7A
:101B8000060ADDED070A30EE200A21EE000A5C4865
:101B9000D0ED000AB0EE001A20EE811AF6EE000A2F
:101BA00070EEEF1ADDED040A71EEE00A01EE200A94
:101BB0005448D0ED000AB0EE001A20EE811ADDED97
:101BC000050A70EECF0A01EE200A8DED100A4B488F
:101BD00090ED000AF0EE000A20EE200A7BEE6A0A81
:101BE00060EE200A464890ED000AB0EE001A20EEA2
:101BF000011A9DED050A70EE0F1AB0EE600A01EEB3
:101C0000210A4048D0ED000AB0EE001A60EE810AC9
:101C1000B6EE001A31EE6F1A31EE6B1AB0EE409A42
:101C200000EE819A9DED110A60EE000A9DED100A0A
:101C300040EE000A10EE901A084605F0A1FACDE930
:101C400000019DED000B02F0F3FB8DED020B9DED0D
:101C5000020B51EC100B04F019FD09EE900AB0EEE6
:101C600049AA3BEE6A0AF0EE000A20EE200A8DED4A
:101C70000F0A9DED050A3FEE000AF0EE000A20EE85
:101C8000200A8DED0E0A9DED080A30EE6F0A70EE07
:101C90006B0A9DED040A30EE800A8DED0D0AB0EE60
:101CA000000A69EE800AB6EE000A30EE6B1A9DED6E
:101CB000040A31EE400A20EE800AB0EE4A9AF0EEB5
:101CC000000A69EE200A25E08C0000209000002028
:101CD0009400002098000020642A0020DB0F494077
:101CE000000034439C000020A0000020A40000203D
:101CF000A8000020AC000020B0000020B4000020AC
:101D0000B8000020BC000020C4000020C00000205B
:101D10000024F4493BEE6A1A00EE810A8DED0C0AAC
:101D2000B0EE000A29EE801A9DED060ADDED070AE5
:101D300030EE600A21EE000AB0EE4A9AF0EE000A98
:101D400029EE201ADDED050A7FEE200A01EE200AB9
:101D50008DED0B0AB0EE000A29EE800A7AEE8B0AAE
:101D600020EE200AB0EE4A9AF0EE000A69EE200A50
:101D7000B6EE001A31EE6F1A31EE6B1A00EE810AE0
:101D80008DED0A0AAF48D0ED000A9DED0D0A60EE18
:101D9000800AAD4890ED001A9DED0E0A41EE400A12
:101DA000AA4890ED001A9DED0A0A21EE001AA848F3
:101DB000D0ED001A9DED0B0A01EEC01A30EE81CA7B
:101DC000A148D0ED000A9DED0F0A60EE800AA148FF
:101DD00090ED001A9DED0D0A41EE400A9C4890EDF1
:101DE000001A9DED0C0A21EE001A9B48D0ED001A56
:101DF0009DED0A0A01EEC01A70EE81CA9548D0ED39
:101E0000000A9DED0E0A60EE800A8E4890ED001AE1
:101E10009DED0F0A41EE400A8F4890ED001A9DEDAE
:101E20000B0A21EE001A8948D0ED001A9DED0C0A2C
:101E300001EEC01A30EE81DAB5EEC0CAF1EE10FA4A
:101E400057D0F5EEC0CAF1EE10FA52D0B5EEC0DAB6
:101E5000F1EE10FA4DD09FED810A6CEE000A804839
:101E600090ED000A00EEA80A80ED000A9FED7B0AC3
:101E70006CEE800A7B4890ED000A00EEA80A80ED27
:101E8000000A9FED760A6DEE000A774890ED000A91
:101E900000EEA80A80ED000A744890ED000AF0EE0A
:101EA000000A00EE8C0A6E48D0ED000A30EE200ADF
:101EB0006E4880ED000A6E4890ED000AF0EE000AD0
:101EC00000EEAC0A6748D0ED000A30EE200A684800
:101ED00080ED000A674890ED000AF0EE000A00EE7F
:101EE0008D0A6148D0ED000A30EE200A614880ED8D
:101EF000000A614890ED000AB1EE400A5B48D0ED5F
:101F0000000A20EE200A5D48D0ED000A584890ED06
:101F1000001A00EEC10A5A4890ED001A5548D0ED5B
:101F2000001AF0EE400A41EE610A564890ED000AB0
:101F300000EEA80A8DED090A90ED000A4B48D0ED9D
:101F4000000A20EE200A4D48D0ED000A494890EDE5
:101F5000001A00EE810A4A48D0ED000A444890ED8C
:101F6000001A00EEC10A4448D0ED000AF0EE60DA33
:101F700040EE28DA434890ED000A3D48D0ED000AD3
:101F800020EE200A3C48D0ED000A3A4890ED001AB5
:101F900000EEC10A3A48D0ED000A344890ED001A2C
:101FA00000EE810A3548D0ED000AB0EE60EA00EE9E
:101FB00028EA344890ED000A2E48D0ED000A20EEC1
:101FC000200A2D48D0ED000A294890ED001A00EEB5
:101FD000810A2A48D0ED000A244890ED001A00EE4C
:101FE000C10A2748D0ED000AF0EE60EA40EE28EA88
:101FF000DDED090A60EEA00A4DEEAD0A4EEE0E0AC6
:102000004EEEAE0AB0EE600A02F060FFB0EE408A1B
:102010009DED090A20EE080A1A4880ED000A2DEE0F
:10202000880A154880ED000A2EEE080A134880ED54
:10203000000A2EEE880A124880ED000A13B0BDECAB
:10204000108B00BDAC000020B0000020B8000020C4
:10205000BC000020A8000020B40000200AD7233CC8
:102060008000002084000020880000209C000020C8
:10207000A0000020A4000020900000209400002078
:10208000980000208C00002010B504460C4800F099
:1020900021F8FFF717FC0B4890ED000A84ED000AC9
:1020A000094890ED000A84ED010A084890ED000A05
:1020B00084ED020A064890ED000A84ED030A10BD83
:1020C000642A00208C000020900000209400002052
:1020D0009800002030B585B004460DF1120004A927
:1020E000031F03AACDE90010891F02A800F02EFCEF
:1020F000BDF8080036490880BDF80A004880BDF8E0
:102100000C008880BDF80E000881BDF810004881E1
:10211000BDF81200888100251DE0032D0BDA02A80E
:1021200030F9150000EE100AB8EEC00A04EB850085
:1021300080ED000A0EE002A830F9150000EE100A4A
:10214000B8EEC00ADFED230A80EE201A04EB85000A
:1021500080ED001A6D1C062DDFDB04F11800FEF780
:10216000FDFE94ED060ABDEEC00A10EE100A00B2A4
:102170001749C88194ED070ABDEEC00A10EE100A97
:1021800000B2088294ED080ABDEEC00A10EE100AF3
:1021900000B248820846B0F9100001EE100AB8EE0D
:1021A000C11AF0EE410A0846B0F90E0001EE100A1D
:1021B000B8EEC11AB0EE410A02F0A0FD00EE100A1E
:1021C000B8EEC00A044880ED000A05B030BD00003A
:1021D000A42A002033330342EC00002010B52DED7B
:1021E0000C8B04468748FFF74FFF864890ED020AA4
:1021F000F8EE000A20EE200AD0ED020A20EE200AB6
:10220000D0ED030AB0EE001A60EE810A90ED031AD9
:1022100000EEC10AF7EE000A30EE200A10EE101AA6
:10222000084604F0ADFF41EC1C0B764890ED010A26
:10223000F0EE000A20EE200AD0ED020A20EE200A7D
:10224000D0ED000AB0EE001A60EE810A90ED031A9C
:1022500000EE810A10EE101A084604F091FF41ECDE
:102260001D0BB0EE4C1AF0EE6C1AB0EE4D0AF0EE0B
:102270006D0A01F081FFB0EE40BAF0EE60BA51ECA9
:102280001B0B04F0F7F941EC1A0B9FED5F0B53ECBD
:10229000102B04F0B5FC41EC190B9FED5D0B53ECDA
:1022A000102B04F0CDFA41EC180B04F0EFF900EE1E
:1022B000100A84ED000A534890ED010AF8EE000A76
:1022C00020EE200AD0ED030A20EE200AD0ED000A0D
:1022D000B0EE001A60EE810A90ED021A00EE810A5B
:1022E00010EE101A084604F04BFF41EC1C0BB0EE48
:1022F0004C0AF0EE6C0A01F023FCB0EE40BAF0EEAE
:1023000060BA51EC1B0B04F0B5F941EC1A0B9FEDD0
:102310003E0B53EC102B04F073FC41EC190B9FEDBA
:102320003C0B53EC102B04F08BFA41EC180B04F02F
:10233000ADF900EE100A84ED010A324890ED010A71
:10234000F8EE000A20EE200AD0ED010A20EE200A65
:10235000D0ED020AB0EE001A60EE810A90ED021A8A
:1023600000EEC10AF7EE000A30EE200A10EE101A55
:10237000084604F005FF41EC1B0B224890ED020AD1
:10238000F0EE000A20EE200AD0ED030A20EE200A2B
:10239000D0ED000AB0EE001A60EE810A90ED011A4D
:1023A00000EE810A10EE101A084604F0E9FE41EC36
:1023B0001C0BB0EE4B1AF0EE6B1AB0EE4C0AF0EEBE
:1023C0006C0A01F0D9FEB0EE40AAF0EE60AA9FEDD3
:1023D0000E0B53EC102B51EC1A0B04F011FC41ECDA
:1023E000190B9FED0B0B53EC102B04F029FA41EC69
:1023F000180B04F04BF900EE100A84ED020ABDEC54
:102400000C8B10BD882A0020000000000080664070
:1024100000000060FB2109400146044800680840B4
:1024200008B1012070470020FCE700009C0100205B
:102430001548C089401C1449C88108468088401C42
:1024400000B288800846C088401C00B2C880084698
:102450000089401C00B2088108464089401C00B237
:10246000488108468089401C00B28881084600786F
:10247000012804D108464078401C487002E0012041
:102480000149087070470000BC1100202DE9F0439D
:1024900004460D46DDE9076700200021012041E0E8
:1024A000DFF8D8C13CF81080A0F1010CDFF8CC9126
:1024B00029F81C8009F1160C3CF81090A0F1010CD1
:1024C000DFF8B88108F1160828F81C9008F1160CFE
:1024D0003CF81090A0F1010C08F1160828F81C90A7
:1024E00008F1160C3CF81090A0F1010C08F1160848
:1024F00028F81C9008F1160C3CF81090A0F1010C83
:1025000008F1160828F81C9008F1160C3CF81090F9
:10251000A0F1010C08F1160828F81C9000F1010C3C
:102520000CF0FF000A28BBDBDFF850C1ACF812400A
:10253000ACF82850ACF83E20ACF85430ACF86A60E7
:10254000ACF88070002008E0DFF830C13CF910C022
:10255000614400F1010C0CF0FF000A28F4DB4FF09D
:102560000A0C91FBFCFC0FFA8CFCDFF81081A8F838
:1025700014C0002100200AE0DFF800C10CF1160CA5
:102580003CF910C0614400F1010C0CF0FF000A2876
:10259000F2DB4FF00A0C91FBFCFC0FFA8CF8DFF831
:1025A000DCC0ACF82A80002100200AE0DFF8CCC0B3
:1025B0000CF12C0C3CF910C0614400F1010C0CF042
:1025C000FF000A28F2DB4FF00A0C91FBFCFC0FFA2B
:1025D0008CF8DFF8A8C0ACF84080002100200AE0A9
:1025E000DFF898C00CF1420C3CF910C0614400F1D6
:1025F000010C0CF0FF000A28F2DB4FF00A0C91FBF3
:10260000FCFC0FFA8CF8DFF874C0ACF8568000219F
:1026100000200AE0DFF864C00CF1580C3CF910C04F
:10262000614400F1010C0CF0FF000A28F2DB4FF0CE
:102630000A0C91FBFCFC0FFA8CF8DFF840C0ACF8F8
:102640006C80002100200AE0DFF830C00CF16E0C35
:102650003CF910C0614400F1010C0CF0FF000A28A5
:10266000F2DB4FF00A0C91FBFCFC0FFA8CF8DFF860
:102670000CC0ACF88280BDE8F0830000002B002085
:1026800010B501221921D020FFF7DCF8FF2804D172
:102690000CA0FDF713FEFF2010BD14A0FDF70EFEE9
:1026A0000A2002F0B7FB01223821D020FFF7CAF838
:1026B000FF2804D115A0FDF701FEFF20ECE7002064
:1026C000EAE7000043616E6E6F7420656E61626CB4
:1026D0006520696E746572727570742073756363BA
:1026E00065737366756C6C792E0D0A004D50553606
:1026F000303530207365742073616D706C652072A5
:1027000061746520646F6E652E0A00006572726FD9
:10271000722031490D0A000008B500200090FEF734
:102720001BFF01236A467521D020FEF75BFF40B9ED
:102730009DF80000682809D036A0FDF7BFFDFF20F6
:1027400008BD37A0FDF7BAFDFF20F9E701226B2194
:10275000D020FFF777F8FF2804D134A0FDF7AEFDB5
:10276000FF20EDE703221A21D020FFF76BF8FF28A6
:1027700004D131A0FDF7A2FDFF20E1E710221B21CB
:10278000D020FFF75FF8FF2804D12EA0FDF796FDBB
:10279000FF20D5E700221C21D020FFF753F8FF28A7
:1027A00004D12BA0FDF78AFDFF20C9E702223721C3
:1027B000D020FFF747F8FF2804D128A0FDF77EFDC1
:1027C000FF20BDE700223821D020FFF73BF8FF288B
:1027D00004D125A0FDF772FDFF20B1E700226A2198
:1027E000D020FFF72FF8FF2804D11FA0FDF766FDCA
:1027F000FF20A5E7FEF72CFBFF2804D11DA0FDF765
:102800005DFDFF209CE74FF4FA7002F003FB00200F
:1028100096E700006572726F722031410D0A000068
:102820006572726F722031420D0A00006572726F1C
:10283000722031430D0A00006572726F72203145BB
:102840000D0A00006572726F722031460D0A000099
:102850006572726F722031470D0A00006572726FE7
:10286000722031480D0A00006572726F7220314982
:102870000D0A00006572726F7220314B0D0A000064
:1028800010B502E0C82002F0C5FAFFF745FFFF28A7
:10289000F8D010BD00B585B00121880300F0A8FA7A
:1028A0000121084600F084FA1020039000208DF8E2
:1028B00010008DF8120001208DF8130002208DF811
:1028C000110003A91248FEF772F90421002000F05C
:1028D0001DFB1020009000208DF804000C208DF8C6
:1028E000050001208DF806006846FEF743F80A202F
:1028F0008DF8080002208DF8090000208DF80A00EC
:1029000001208DF80B0002A800F00AFA05B000BD06
:10291000000002402DE9F04104460D4616461F46D0
:102920003B46324629462046FEF75CFEFF2805D18D
:1029300003A0FDF7C3FCFF20BDE8F0810020FBE70A
:102940006572726F7220314A0D0A00002DE9FC4752
:1029500004460D4616461F46DDE90A8948480078B8
:10296000002872D00020464908700E23454A3B21BA
:10297000D020FFF7CFFF43480E30FEF7AFFA4148B3
:1029800040784049097840EA012000B23E49088079
:102990003C48C0783B49897840EA012000B23B4975
:1029A0000880384840793749097940EA012000B267
:1029B000374908803348407A3249097A40EA012091
:1029C00000B2344908802F48C07A2E49897A40EAFB
:1029D000012000B2304908802A48407B2949097B00
:1029E00040EA012000B22D4908800846B0F90000F5
:1029F0002949B1F90010CDE900102648B0F900309E
:102A00002348B0F900202148B0F900101E48B0F961
:102A10000000FFF73BFD2248808A20802048408D3F
:102A200028801F48B0F8400030801D48B0F856009C
:102A300038801B48B0F86C00A8F800001848B0F8BF
:102A40008200A9F8000018E0FFE71548808A20807E
:102A50001348408D28801248B0F84000308010485C
:102A6000B0F8560038800E48B0F86C00A8F80000A6
:102A70000B48B0F88200A9F80000BDE8FC87000010
:102A80000C010020EC2A002000010020020100209F
:102A90000401002006010020080100200A01002096
:102AA000002B002010B53349B1F90010314AB2F9BA
:102AB0000620881800EBD071491009B22E4A118007
:102AC0002C49B1F902102B4AB2F90820881800EB02
:102AD000D071491009B2284A51802649B1F9041031
:102AE000244AB2F90A20881800EBD071491009B2C3
:102AF000214A9180B7EE000A10EE100A1146C1F883
:102B000006001C48B0F900001A49B1F90610401A35
:102B10001849B1F90210174AB2F90820891A90FB36
:102B2000F1F000EE100AB8EEC00A10EE100A1249D9
:102B3000C1F80A000F48B0F900000E49B1F90610BB
:102B4000401A0C49B1F904100A4AB2F90A20891A4C
:102B500090FBF1F000EE100AB8EEC00A10EE100A79
:102B60000549C1F80E005A20887404A0FDF7A6FBA1
:102B7000022010BDC62B00209B2D00204D61672D2B
:102B800063616C6920656E640000000010B54FF44D
:102B9000704007490880488088804FF48050C88082
:102BA0000881488103A0FDF789FB022010BD0000C9
:102BB000C62B00204D61672D63616C6920737461C1
:102BC0007274000000BFFEE770B505460C46002C8D
:102BD00063D032480088844215D03C2C09DA3C206E
:102BE00090FBF4F0401E2E49088001202D490880FA
:102BF00007E000202A4908803C2094FBF0F0294996
:102C00000880264804802848008825490988884289
:102C100005DA25480088401C234908803DE0002053
:102C20002149088000F048F8204800882049098898
:102C30000844204949571B4A128801FB02001C49DD
:102C4000098890FBF1F201FB120018490880084640
:102C5000408817490988084416494957114A12887B
:102C600001FB02001249098890FBF1F201FB1200FE
:102C70000E494880084680880D49098801440D485E
:102C80004057084A128800FB02100949098890FB46
:102C9000F1F201FB12000549888070BD760000202A
:102CA000780000207C0000207A00002064000020D2
:102CB000600000207672000810B50C4800880C4AAD
:102CC00032F810100B4800F082FD08484088084A8E
:102CD00032F81010074800F07CFD04488088044A50
:102CE00032F81010034800F076FD10BD640000209B
:102CF000641A00200004004010B53221A72000F023
:102D00003BFB10BD10B5FFF7D7FF10BD10B500F0AD
:102D1000B5F9FFF7F1FFFFF7F5FF10BD70470000B1
:102D200070B5002100230F22C4781CB3174C24680F
:102D300004F4E064C4F5E064C4F30721C1F10404C1
:102D4000E3B20A4144789C40E1B2847814402143C4
:102D50000C07210E0E4C05786155047804F01F0510
:102D60000124AC4005786D11AD0005F1E025C5F8F2
:102D7000004109E0047804F01F050124AC40054D32
:102D80000678761145F8264070BD00000CED00E095
:102D900000E400E080E100E002490143024A1160E2
:102DA000704700000000FA050CED00E070470000DD
:102DB00029B1064A12680243044B1A6004E0034A30
:102DC00012688243014B1A6070470000303802409D
:102DD00029B1064A12680243044B1A6004E0034A10
:102DE00012688243014B1A6070470000403802406D
:102DF00029B1064A12680243044B1A6004E0034AF0
:102E000012688243014B1A60704700004438024048
:102E1000F0B5002100220024022500260223324FB3
:102E20003F6807F00C0121B1042905D0082937D1EA
:102E300005E02E4F076036E02D4F076033E02A4F44
:102E40003F1F3F68C7F38056274F3F1F3F6807F07B
:102E50003F036EB1264FB7FBF3F7DFF88CC0ACF140
:102E6000040CDCF800C0CCF3881C07FB0CF40CE06D
:102E70001E4FB7FBF3F7DFF870C0ACF1040CDCF8C1
:102E800000C0CCF3881C07FB0CF4174F3F1F3F68B2
:102E9000C7F301477F1C7D00B4FBF5F7076002E034
:102EA000124F076000BF00BF0F4F3F6807F0F001EF
:102EB0000909104F7A5C0768D74047600A4F3F689E
:102EC00007F4E051890A0B4F7A5C4768D740876066
:102ED000054F3F6807F46041490B064F7A5C47682D
:102EE000D740C760F0BD0000083802400024F4005D
:102EF00000127A00AB010020024909688143014AAF
:102F0000116070479C0100207047000030B500221E
:102F10008B071C0F0F2303FA04F20B4B8C1053F892
:102F200024309343084C8D1044F8253023468C10F0
:102F300053F824308C07240F00FA04F42343024C86
:102F40008D1044F8253030BD0838014010B50446D6
:102F5000132204F124010248FDF71CFA10BD000001
:102F6000AE2D0020024909680143014A11607047F3
:102F70009C01002010B5044634B1132221460348B9
:102F8000FDF708FAFDF746FB10BD0000682D002094
:102F90000CB50020019000903448006840F4803067
:102FA0003249086000BF3148006800F400300090EA
:102FB0000198401C0190009818B90198B0F5A04FF5
:102FC000F1D12A48006800F4003010B101200090CF
:102FD00001E0002000900098012846D123484030AD
:102FE000006840F080502149403108602048006866
:102FF00040F440401E4908601C48083000681B49E6
:10300000083108600846006840F40040086008463F
:10301000006840F4A05008601648091F0860081FA7
:10302000006840F08070091F086000BF0F4800680A
:1030300000F000700028F9D040F205700E490860D9
:103040000A480830006820F0030008490831086089
:103050000846006840F00200086000BF03480830DE
:10306000006800F00C000828F8D10CBD00380240C0
:103070000070004008544007003C024010B52DEDA0
:10308000108B84B000244FF49660514908800846A4
:103090000088032190FBF1F04E49088000204E4942
:1030A0000880084600884B49098808444A494880F6
:1030B00008464088474909880844474988800020D5
:1030C000464908800846008842490988084443491F
:1030D0004880084640883F49098808443F4988801D
:1030E00000203F490880084600883A49098808447A
:1030F0003B49488008464088364909880844384991
:10310000888000BF5BE03248008803F065FD41EC39
:103110001E0B601C03F049FD41EC1F0B9FED310BB2
:1031200053EC102B03F06CFD53EC1E2BCDE900018A
:103130009DED000B51EC100B03F082FB41EC1D0BDD
:103140009FED2A0B53EC102B03F05AFD41EC1C0BA6
:103150009FED280B53EC102B03F052FD41EC1B0BA1
:10316000B0EE4B0AF0EE6B0A01F0FEF8B0EE40AAAA
:10317000F0EE60AA9FED1B0B53EC102B51EC1A0BD9
:1031800003F0B6FA41EC190B9FED1C0B53EC102B1E
:1031900003F036FD41EC180B9FED140B53EC102B94
:1031A00003F04EFBCDE902019DED020B51EC100B3B
:1031B00003F0CEFC134921F81400601C84B20448CB
:1031C000008884429FDB04B0BDEC108B10BD000072
:1031D0006000002062000020640000206A000020DF
:1031E00070000020000000000000F03F0000000020
:1031F00000000040182D4454FB210940000000004D
:1032000000004940641A0020042808D14FF0E02152
:10321000096941F004014FF0E022116107E04FF02D
:10322000E021096921F004014FF0E02211617047AB
:103230007FB56846FFF7ECFD4FF47A710198B0FB5B
:10324000F1F4E4082146481EB0F1807F00D31BE072
:10325000481E4FF0E022506150170F22002807DA75
:1032600013071E0E0B4B00F00F052D1F5E5503E0DC
:1032700013071D0E084B1D5400BF00204FF0E02225
:1032800090610720106100BF6FF00400FFF7BCFFE2
:103290007FBD000018ED00E000E400E010B5044838
:1032A0000068401C0249086003F03AF910BD0000B4
:1032B0004800002010B51548006840F4700013491C
:1032C00008601348006840F00100114908600020C0
:1032D0000F49083108600E4800680E4908400C4943
:1032E00008600D48091D0860081F006820F4802050
:1032F000091F0860002006490C310860FFF748FEEE
:103300004FF0006001498039086010BD88ED00E091
:1033100000380240FFFFF6FE103000240EB50121F8
:103320000846FFF755FD4FF0FF3001905320ADF8F0
:1033300000000020ADF80800ADF802000121880768
:1033400000F0CAF869464FF0804000F047FA0121CA
:10335000880700F0D3F80EBD10B50121880700F0F2
:10336000D9F838B10121880700F0C5F80121880794
:1033700000F0BEF810BD000030B58BB005460C461D
:1033800001210220FFF724FD01210420FFF710FD99
:10339000022206213448FDF752FC0222072132485E
:1033A000FDF74DFC022208212F48FDF748FC0222C0
:1033B00009212D48FDF743FC4FF47070099002205D
:1033C0008DF8280001208DF82B0003208DF82900AE
:1033D00009A92548FDF7EBFBA8B2ADF818000020BD
:1033E000ADF81A000794ADF820008DF8220006A968
:1033F0001E4800F0F3F96020ADF804000120ADF89C
:1034000006000020ADF80800ADF810000820ADF867
:1034100012000020ADF8140003900821134800F0BA
:10342000C9F801A9114800F087F808210F4800F0F9
:103430001DF901A90D4800F0C7F808210B4800F05C
:1034400073F901A9094800F01FF90821074800F0A5
:10345000B1F901A9054800F071F90121034800F014
:103460004DF80BB030BD00000008024000040040E1
:1034700010B51648008820F001001449088000BFEC
:1034800072B613480068401C1149086000BF0F481D
:103490001430006884B22146002003F0E1F80D48A2
:1034A00000680A49243108600A484068091D08601C
:1034B00008488068091D086000BF05480068401E74
:1034C0000349086000B962B600BF10BD1004014096
:1034D0005C0000201C12002021B1028842F0800212
:1034E000028004E002884FF67F731A400280704722
:1034F000CA4302827047CA430282704721B10288E0
:1035000042F00102028004E002884FF6FE731A4086
:103510000280704730B50246002000230024158A3F
:1035200005EA0103958905EA010413B10CB10120F4
:1035300000E0002030BD000070B500240022002310
:10354000058C4FF6FE7635400584028C8388048B0B
:103550004FF68F752C40B51E2C400D882C43751EE0
:103560002A408D892A434D882A43104DA84202D013
:103570000F4DA84213D14FF6F7752A40CD892A4343
:103580004FF6FB752A408D882A434FF6FF652B4086
:103590004FF6FF552B400D8A2B434D8A2B438380DA
:1035A00004838D684563028470BD00000000014003
:1035B000000401400A460021018B4FF6F7731940C1
:1035C000114301837047000070B5002400220023DE
:1035D000058C4FF6EF7635400584028C8388048B8A
:1035E00048F6FF752C404FF6FF452C400D884FF6EE
:1035F000FF7606EA05252C434FF6DF752A408D89B4
:1036000006EA05152A434D8806EA05152A43154D95
:10361000A84202D0144DA8421DD14FF67F752A4012
:10362000CD894FF6FF7606EA05152A434FF6BF759A
:103630002A408D8806EA05152A434FF6FF352B40B0
:103640004FF2FF752B400D8A06EA85052B434D8A04
:1036500006EA85052B43838004838D688563028495
:1036600070BD000000000140000401400A46002136
:10367000018B4FF2FF7319404FF6FF7303EA0223E9
:10368000194301837047000070B500240022002315
:10369000058C4FF6FF6635400584028C8388848B49
:1036A0004FF68F752C404FF6FC752C400D882C433F
:1036B0004FF6FF552A408D894FF6FF7606EA05251D
:1036C0002A434D8806EA05252A43154DA84202D013
:1036D000144DA8421DD14FF2FF752A40CD894FF6F7
:1036E000FF7606EA05252A434FF6FF352A408D88E6
:1036F00006EA05252A434EF6FF752B404DF6FF7569
:103700002B400D8A06EA05152B434D8A06EA05155E
:103710002B43838084838D68C563028470BD000061
:1037200000000140000401400A460021818B4FF651
:10373000F7731940114381837047000070B5002270
:1037400000230024058C4EF6FF7635400584038C5B
:103750008488828B48F6FF752A404FF6FF452A4041
:103760000D884FF6FF7606EA05252A434DF6FF75CC
:103770002B408D8906EA05352B434D8806EA053531
:103780002B430A4DA84202D0094DA84208D14BF65E
:10379000FF752C400D8A4FF6FF7606EA85152C43FF
:1037A000848082838D680564038470BD00000140BD
:1037B000000401400A460021818B4FF2FF7319403B
:1037C0004FF6FF7303EA0223194381837047416375
:1037D000704781637047C163704700000022028810
:1037E000184B98420ED0184B98420BD0B0F1804F36
:1037F00008D0164B984205D0154B984202D0154B75
:10380000984204D14FF68F731A404B881A43124BDB
:10381000984207D0114B984204D04FF6FF431A400C
:103820000B891A4302804B68C3620B880385054BE2
:10383000984202D0044B984201D18B7A038601232F
:1038400083827047000001400004014000040040F2
:1038500000080040000C0040001000400014004030
:1038600010B540F22551284800F090F800284AD0C1
:10387000254800F045F9254908702548008800F4DE
:10388000004088BB2248008800F4804070B10846A0
:1038900000780A2803D000201D49088024E01C4835
:1038A000008840F400401A4908801DE0174800785D
:1038B0000D2806D11648008840F48040144908803D
:1038C00012E01248007812490988C1F30D01114A2B
:1038D00050540F480088401C0D4908800846008855
:1038E000C72801DD0020088008480078282803D177
:1038F0001020FFF737FB06E004480078292802D1A2
:103900002020FFF72FFB10BD00100140AA0100206E
:10391000A8010020C12D002010B5114800881149D0
:1039200008700F48001F0088087000210E48FCF73F
:1039300079FF01200D4908700D490B48FCF758FF2D
:1039400000BF0948FCF779FF0028FAD14FF4007155
:103950000548FCF77CFF01210348FCF763FF10BD1D
:103960000448004012010020286002400E0100209F
:10397000000C001021B1828942F40052828104E0DF
:1039800082894DF6FF731A408281704770B50246F6
:10399000002400230025002040F66A16B14200D121
:1039A00000BFC1F3421501F01F03012606FA03F31D
:1039B000012D02D19689334006E0022D02D1168AEC
:1039C000334001E0968A33400C12012606FA04F4D3
:1039D0001688344013B10CB1012000E0002070BD06
:1039E000F0B50346002400260025002040F66A17A3
:1039F000B94200D100BF1846C1F3421401F01F06BE
:103A0000012707FA06F5012C01D10C3004E0022C45
:103A100001D1103000E014301AB107682F4307605D
:103A200002E00768AF430760F0BD00002DE9FF47E3
:103A300005460E460024A14600BFA046B08900B14D
:103A400000BF2C8A24F44054F08804432C82AC89B3
:103A500041F20C608443B08831890843718908437E
:103A60000443AC81AC8A24F44074B0890443AC8232
:103A70006846FFF7CDF92048854202D01F488542AD
:103A800002D1DDF80C9001E0DDF80890A88900F47F
:103A9000004040B109EBC90000EB09103168490052
:103AA000B0FBF1F707E009EBC90000EB0910316842
:103AB0008900B0FBF1F76420B7FBF0F004012009A6
:103AC000642101FB1078A88900F4004040B1322045
:103AD00000EBC800B0FBF1F000F00700044308E081
:103AE000322000EB08106421B0FBF1F000F00F0071
:103AF00004432C81BDE8FF87001001400014014001
:103B000001468888C0F30800704700BFFEE703B491
:103B100001984100009850EAC12018BF04204A0DC6
:103B200018BF40F0010040F2FF72B2EB515F08BFD6
:103B300040F00200012808BF052002B070470000D5
:103B400070B5C1482DED020B2DED0E8B82B0119D8D
:103B500025F000449FEDBEDB9FEDBFEB84423EDBD2
:103B6000A4F140511098A1F17F6108430FD0BC48E7
:103B7000844202DC28D1109830B39DED100B02B0C6
:103B8000BDEC0E8B02B0BDE8704001F079B89DED40
:103B9000100B53EC1D2B51EC100B03F031F89DED85
:103BA000100B41EC180B53EC1E2B51EC100B03F0D7
:103BB00027F853EC182B02F09BFD41EC100B02B0E0
:103BC000BDEC0E8B02B070BD0120FCF767FC02B0AB
:103BD000BDEC0E8B02B0BDE8704001F065B8A148A5
:103BE0009FEDA18B844256DA9DED100BB4F1795F05
:103BF0000ADA51EC100BFFF78AFF042808BF01F026
:103C000063F89DED100BDAE753EC102B51EC100B21
:103C100002F0F6FF41EC190B95480621B0EE490A77
:103C2000F0EE690A784400F017FF53EC192B51ECC1
:103C3000100B02F0E5FF41EC1A0B8E48B0EE490A7A
:103C4000F0EE690A0421784400F006FF53EC192BCA
:103C500051EC100B02F0D4FF53EC182B02F048FD8E
:103C600041EC100B51EC1A0B53EC102B02F0E8FD59
:103C7000CDE900019DED000B53EC102B9DED100BD9
:103C800051EC100B02F0BCFF9DED101B53EC112BFF
:103C900002F02EFDD2E09DED100B51EC100B01F067
:103CA000FBF853EC182B03F0A9F89FED730BCDE94B
:103CB000000153EC102B9DED000B51EC100B02F0AA
:103CC0009FFF41EC190B6E480621B0EE490AF0EE59
:103CD000690A784400F0C0FE53EC192B51EC100B2C
:103CE00002F08EFF41EC1B0B6648B0EE490AF0EE85
:103CF000690A0421784400F0AFFE53EC192B51EC13
:103D0000100B02F07DFF53EC182B02F0F1FC41EC9C
:103D10001C0B51EC190B02F0CBFB41EC180B5A4871
:103D20009FED5BABA04222DC53EC1C2B51EC1B0B38
:103D300002F086FDCDE900019DED000B51EC180B62
:103D400053EC102B02F05CFF53EC182B02F0D0FC6C
:103D500053EC1A2B02F054FF53EC1D2B03F026F901
:103D600053EC1E2B03F04AF841EC100B5FE08DED95
:103D7000008B002000909DED000B51EC180B53ECD4
:103D8000102B02F0B5FC9DED000B41EC1E0B53EC2B
:103D9000102B51EC100B02F033FF53EC192B03F0F6
:103DA0002DF853EC1E2B02F04BFD41EC190B53EC9C
:103DB0001C2B51EC1B0B02F043FD41EC1B0B53EC95
:103DC0001A2B51EC190B02F01BFF53EC1D2B03F0C7
:103DD00015F841EC190B53EC1A2B51EC180B02F0AF
:103DE0000FFF53EC1B2B02F00BFF53EC192B03F0CE
:103DF000DDF89DED000B41EC180B53EC1A2B51EC48
:103E0000100B02F0FDFE9FED249B53EC192B02F0EA
:103E1000F5FF41EC100B51EC180B53EC102B03F099
:103E2000C5F853EC192B02F0E9FF41EC100B002D03
:103E30003FF7C5AE51EC100B02F01CFC41EC100B2F
:103E4000BDE60000000000000000F03F00000000A0
:103E5000075C143326A6913C182D4454FB21F93FEE
:103E60000000F07F0000E03F000000000000F03F95
:103E70007836000086360000000000000000E03FB9
:103E8000CA350000D83500003333EF3F0000000092
:103E90000000000000000040182D4454FB21E93FC1
:103EA00070B59B482DED020B2DED068B079D25F07F
:103EB0000044A04218DC9748844202DC0AD10698EC
:103EC00040B19DED060BBDEC068B02B0BDE8704025
:103ED00000F0D6BE002DCCBF9FED8F0B9FED900B59
:103EE000BDEC068B02B070BD8F48A04215DD8F4837
:103EF000A042D8BF4FF0FF3458DD9DED060B51ECCA
:103F0000100BFFF704FE042808BF00F0DDFE9DED56
:103F1000060BBDEC068B02B070BD9DED060B51EC9F
:103F2000100B00F0B9FFCDE9060181489FED828BAF
:103F3000A0423CDD8248A0421FDD00249FED82AB01
:103F40009DED060B53EC1A2B51EC100B02F0D0FB3D
:103F50009DED060B41EC190B53EC1A2B51EC100B99
:103F600002F04EFE53EC182B03F020F853EC192B03
:103F700002F066FCCDE9060149E09DED060B012447
:103F800053EC182B51EC100B02F0B2FB9DED060B1D
:103F900041EC190B53EC182B51EC100B03F006F805
:103FA00053EC192B02F04CFCCDE906012FE06848D8
:103FB000A0421FDD02249FED689B9DED060B53EC94
:103FC000192B51EC100B02F01BFE53EC182B02F0D6
:103FD0008FFB9DED060B41EC180B53EC192B51ECAC
:103FE000100B02F0E3FF53EC182B02F029FCCDE993
:103FF00006010CE09DED060B032453EC102B9FED06
:10400000580B51EC100B02F01BFCCDE906019DEDA5
:10401000060B53EC102B51EC100B02F0F1FD41ECB0
:10402000180B53EC182B02F0EBFD41EC190B4E482A
:104030000621B0EE490AF0EE690A784400F00CFD62
:1040400053EC182B51EC100B02F0DAFD41EC180B7D
:104050004648B0EE490AF0EE690A0521784400F0BE
:10406000FBFC53EC192B51EC100B02F0C9FD41EC99
:10407000100B51EC180B53EC102B002C0EDA02F045
:1040800037FB9DED061B53EC112B02F0B9FD9DEDA6
:10409000061B53EC112B02F0B1FE35E002F028FBB9
:1040A0009DED061B53EC112B02F0AAFD41EC100B09
:1040B0002F48784400EBC40090ED001B51EC100B2E
:1040C00053EC112B02F072FF9DED061B53EC112BEC
:1040D00002F06CFF41EC100B2648784400EBC40062
:1040E00090ED001B51EC100B53EC112B02F086FEEF
:1040F00041EC100B002DA2BFBDEC068B02B070BDD1
:1041000051EC100B02F0B6FA41EC100B01E7000085
:10411000000010440000F07F182D4454FB21F93FAB
:10412000182D4454FB21F9BF0000DC3F0000203E65
:104130000000F33F00000000000000000000F03F1E
:104140000000E63F0000000000000000000000400A
:104150000080034000000000000000000000F83F65
:10416000000000000000F0BF1A330000D032000051
:104170005A3200001232000070B56B4E2DED040B68
:104180002DED028B82B0DDF81CC0DDE905235C4219
:104190002CF000411C4341EAD474049D22F00040FD
:1041A000B44205D86C422C4340EAD474B4420BD9D3
:1041B0009DED061B9DED040B02B0BDEC028B04B01F
:1041C000BDE8704000F066BDACF14054A4F17F64DE
:1041D0001C430BD0022404EAAC7444EAD2740543B5
:1041E0009FED538B9FED542B07D015E09DED040BF5
:1041F00051EC100B00F07AFD42E0002C11BF012CB5
:104200009DED040B02B0BDEC028B04BF04B070BD89
:10421000022C38D0032C3BD00B439FED491B9FED64
:104220004A0B0AD0B14218D1B04209D121F08041E5
:1042300020F08040079105900FE0002A15DA10E089
:10424000434B7B44002C08BF93ED000B0DD0012C99
:1042500010D0022C17D0032C1AD0B0421DD1002A46
:1042600003DAB0EE410AF0EE610A02B0BDEC028B57
:1042700004B070BD93ED000B51EC100B02F0FAF995
:1042800041EC100BF1E7B0EE480AF0EE680AECE7FB
:10429000B0EE420AF0EE620AE7E7401A00153C2849
:1042A000C8BF8DED000B19DCBCF1000FBEBF10F1D3
:1042B0003C0F9FED290B8DED000B0FDB9DED060BE9
:1042C00053EC102B9DED040B51EC100B02F0B8FADF
:1042D00000F0E2FD00F00AFDCDE90001002C08BF6E
:1042E0009DED000BC1D0012C10D0022C9FED1C0BBA
:1042F00053EC102B9DED000B51EC100B0DD002F088
:1043000055FE53EC182B02F051FEB9E7019880F0EE
:10431000004001909DED000BA7E702F047FE53EC33
:10432000182B02F06BFDABE70000F07F00000000EF
:10433000182D4454FB210940182D4454FB2109C079
:10434000182D4454FB21F9BF182D4454FB21F93F8B
:1043500072310000000000000000000000000000BA
:10436000075C143326A6A13C10B52F499FED2C1BEA
:104370002DED020B84B0059820F000408842DCBF90
:1043800000209DED040B32DD2849884209D10498B4
:1043900040B94FF00100FCF781F800F085FC06B051
:1043A00010BD05DB9DED040B00F06AFC06B010BDEE
:1043B00068469DED040B00F07BF810F0030011D06F
:1043C000012818D09DED021B9DED000B02281AD08C
:1043D00000F08AFA51EC100B02F04CF906B041ECF7
:1043E000100B10BD9DED021B9DED000B012000F098
:1043F000AFFB06B010BD9DED021B9DED000B00F064
:1044000073FA06B010BD012000F0A2FB51EC100BB6
:1044100002F030F906B041EC100B10BD00000000B6
:104420000000000000000000FB21E93F0000F07FD9
:1044300000B52DED048BB0EE409AF0EE609A83B09B
:1044400051EC190B02F0E6FC41EC180B18EE100AC7
:1044500018EE901A8DED008B002818BF012008433C
:1044600020F00040C0F17F6000F1E040C00F14D0A8
:1044700019EE101A19EE900A8DED009B002918BF55
:104480000121084320F00040C0F17F6000F1E040CE
:10449000C00F04BF0120FCF701F8B0EE480A03B0DA
:1044A000F0EE680ABDEC048B00BD000000000000C7
:1044B0002DE9F14F04462DED020B2DED088B8AB04E
:1044C0009FEDE70B80ED020B139EE74826F00045B9
:1044D00085420ADC9DED120B002084ED000B0AB032
:1044E000BDEC088B03B0BDE8F08FE0489FEDE0AB7A
:1044F0009FEDE1BBA84247DDE14F9FEDE39B9FEDC0
:10450000E48B9DED120B53EC1A2B51EC100B002E8B
:104510001CDD02F04BFD41EC100BBD4208D053EC0A
:104520001B2B51EC100B02F041FDC4E900010BE024
:1045300053EC192B51EC100B02F038FD53EC182BF7
:1045400002F034FDC4E900010120C8E702F0D0F810
:1045500041EC100BBD4208D053EC1B2B51EC100B5F
:1045600002F0C6F8C4E900010BE053EC192B51EC42
:10457000100B02F0BDF853EC182B02F0B9F8C4E9A7
:1045800000014FF0FF30AAE7C348A84279DB9DED58
:10459000120B51EC100B00F07FFC41EC180B9FED5F
:1045A000C00B53EC102B02F02BFB9FEDBF1B53EC09
:1045B000112B02F09DF802F09BFA074602F0F5FA83
:1045C00041EC190B53EC1A2B02F01AFB53EC182B8D
:1045D00002F014FC41EC180B53EC1B2B51EC190BA3
:1045E00002F00EFBDFF8C8A241EC100B4FEA1558A1
:1045F0000125FA4453EC102B51EC180B02F0D6FCB9
:10460000032DC4E900013DD0C1F30A5005EB45116B
:10461000A8EB00001139814234DA0AEB051BB0EE39
:1046200048AA9BED000BF0EE68AA53EC102B51EC5E
:10463000190B02F0E5FA41EC1B0B51EC1A0B53EC91
:104640001B2B02F0B3FC41EC180B51EC1A0B53EC92
:10465000182B02F0ABFC53EC1B2B02F0A7FC9BEDDC
:10466000020B41EC1A0B53EC102B51EC190B02F01E
:10467000C7FA53EC1A2B02F099FC41EC100B6D1C9D
:10468000B8E70EE0002EA8BF3846BFF628AF94ED7D
:10469000000B51EC100B01F0EDFFC4E90001784272
:1046A0001DE7C6F3130040F4801EC6F30A50A0F2C3
:1046B000F530471100F01F05C5F12000DDF848B0C6
:1046C00008900020069007900520EC467949002DBF
:1046D00007EB0002794408BF51F8221009D051F8C5
:1046E000223001EB8201AB404A68089922FA01F1BD
:1046F0001943A1FB0E26A1FB0B131A449A4234BFA7
:104700000123002303EB06080CEB8003D3E901A689
:104710000E448E4234BF0121002192448A4411B1DB
:10472000924502D903E0924501D2012100E0002127
:10473000C3E901A641444CF82010011EA0F101007C
:10474000C4DC029800F10050850F0298DDE9036790
:104750008000DDF8148002F028FA41EC1A0B304694
:1047600002F03AFA9FED541B53EC112B02F048FA79
:1047700041EC1B0B384602F02FFA9FED511B53EC16
:10478000112B02F03DFA41EC180B404602F024FADE
:104790009FED4D1B53EC112B02F032FA41EC190B3B
:1047A00051EC180B53EC192B01F0A2FF53EC1B2B0F
:1047B00001F09EFF53EC1A2B01F09AFFCDE908019E
:1047C000002008909DED080B53EC1A2B51EC100BB8
:1047D00002F0ECFB53EC1B2B02F0E8FB53EC182B24
:1047E00002F0E4FB53EC192B02F008FB9FED381BA1
:1047F00053EC112B02F004FA9FED370B41EC180B30
:1048000053EC102B9DED080B51EC100B02F0F8F956
:1048100053EC182B01F06CFF9FED310B41EC180BA2
:1048200053EC102B9DED080B51EC100B02F0E8F946
:1048300053EC182B01F05CFF41EC100B139810F0B7
:10484000004F06D06D4251EC100B01F013FF41EC0C
:10485000100B284684ED000B41E60000000000002C
:104860000000000000000000FB21E93F7CD902406D
:1048700000004054FB21F93F3163621A61B4D03D1E
:10488000FB21F93F000000000000601A61B4D03D38
:104890007370032E8A19A33BFB21394100000000ED
:1048A00083C8C96D305FE43F000000000000E03FB6
:1048B000CA2D0000182D0000000000000000103E6E
:1048C000000000000000103C000000000000103A52
:1048D000182D4454FB21F93D3326A611460B113CFB
:1048E00000000054FB21F93D10B52DED040B2DED1A
:1048F000088B82B0B0EE419AF0EE619A0B9820F0EE
:1049000000449FED4BABB4F1795F11DA9DED0A0BDA
:1049100051EC100B02F0ECF8002801BFB0EE4A0A8F
:10492000F0EE6A0A02B0BDEC088B04BF04B010BD03
:104930009DED0A0B53EC102B51EC100B02F060F9BB
:1049400041EC180B3C480621B0EE480AF0EE680A2C
:10495000784400F081F853EC182B51EC100B02F066
:104960004FF99DED0A0B41EC1B0B53EC192B51EC4D
:10497000100B02F045F941EC190B53EC1B2B51ECD9
:10498000180B02F03DF953EC192B02F00FFB9FEDD1
:104990002C0B41EC190B53EC102B51EC180B02F0C3
:1049A0002FF941EC100B2848844210DA53EC192BF4
:1049B00051EC100B02F0FAFA53EC1A2B02F01EFA2B
:1049C00041EC100B02B0BDEC088B04B010BD1F48C9
:1049D000A042BCBF9FED1E1B8DED001B06DBA4F5A6
:1049E00000100190002000909DED001B51EC100B79
:1049F00053EC112B02F0DAFA9DED000B41EC180B91
:104A000053EC102B51EC1A0B02F0D0FA41EC1A0BBC
:104A100053EC192B51EC180B02F0C8FA53EC1A2B7B
:104A200002F0ECF941EC100BCCE7000000000000B4
:104A3000000000000000F03F342A000000000000E9
:104A4000000000000000E03F3333D33F0000E93FA7
:104A5000000000000000D23F70B504462DED028B2F
:104A60004D1E00EBC500B0EE408AF0EE608A90ED7E
:104A7000000B35F0060017D053EC182B51EC100B3F
:104A800002F0BEF841EC100B6D1E04EBC50090ED7A
:104A9000001B51EC100B53EC112B01F029FE41ECE3
:104AA000100B35F00600E7D1022D36D0042D1CD0B6
:104AB000062D1CBFBDEC028B70BD53EC182B51ECC6
:104AC000100B02F09DF894ED0A1B53EC112B01F032
:104AD0000FFE53EC182B02F093F894ED081B53ECE7
:104AE000112B01F005FE41EC100B53EC182B51EC8F
:104AF000100B02F085F894ED061B53EC112B01F01E
:104B0000F7FD53EC182B02F07BF894ED040B53ECFB
:104B1000102B01F0EDFD41EC100B53EC182B51EC78
:104B2000100B02F06DF894ED021B53EC112B01F009
:104B3000DFFD53EC182B02F063F894ED001B53ECEF
:104B4000112B01F0D5FDBDEC028B41EC100B70BDBB
:104B500031B504462DED040B2DED0A8BB0EE41BAB4
:104B6000F0EE61BA0B989DED0A0B20F00040B0F119
:104B7000795F0DDA51EC100BFEF7C9FF042808BF6E
:104B800000F0A2F89DED0A0BBDEC0A8B05B030BD1C
:104B900053EC102B51EC100B02F032F841EC180BD7
:104BA0009DED0A0B53EC182B51EC100B02F028F87A
:104BB00041EC190B2C48B0EE480AF0EE680A0521CA
:104BC0007844FFF749FF9FED2ACBB0EE40AAF0EE04
:104BD00060AA9CB353EC1C2B51EC190B02F010F89B
:104BE00041EC1C0B53EC1A2B51EC190B02F008F89A
:104BF0009FED210B41EC190B53EC102B51EC1B0BCF
:104C000001F0FEFF53EC192B02F0D0F953EC182BF6
:104C100001F0F6FF53EC1B2B02F0C8F953EC1C2BF0
:104C200002F0C4F99DED0A1B53EC112B02F0E6F8DB
:104C3000BDEC0A8B05B041EC100B30BDFFE753EC27
:104C40001A2B51EC180B01F0DBFF53EC1C2B01F07D
:104C50004FFD53EC192B01F0D3FF9DED0A1B53ECD4
:104C6000112B01F045FDE3E7C4280000000000001F
:104C7000495555555555C5BF000000000000E03F9F
:104C800010B553EC102B51EC100B01F031FD41EC41
:104C9000100B10BD10B553EC112B51EC100B01F0A3
:104CA00027FD41EC100B10BD9FED050B10B553EC2B
:104CB000102B51EC100B01F0C3FD41EC100B10BD9B
:104CC00000000000000000009FED050B10B553EC44
:104CD000102B51EC100B01F093FF41EC100B10BDA9
:104CE000000000000000001000BF704710B541EC4C
:104CF000100BFFF7D5F851EC100B10BD10B52DEDD2
:104D00000A8BB0EE409AF0EE609A19EE100A02F0AB
:104D100037FA41EC1B0B19EE900A02F031FA41EC24
:104D20001C0BB0EE4B1AF0EE6B1AB0EE4C0AF0EE24
:104D30006C0AFFF721FAB0EE40AAF0EE60AA51EC3F
:104D40001A0B01F0A3FC08EE900AF5EEC08AF1EE12
:104D500010FA05D29FED1A0A38EE800AF0EE408A6A
:104D60009FED180A28EE800ADFED170A80EE201A60
:104D7000B0EE418A18EE100A02F002FA41EC1B0B69
:104D80009FED120B53EC102B01F0B2FC41EC1A0B0F
:104D900001F07CFC08EE100A9FED0E0AB4EEC08A0A
:104DA000F1EE10FA05DD9FED0B0A38EE400AB0EE89
:104DB000408ABDEEC80A10EE100ABDEC0A8B10BD89
:104DC000DB0FC94000003443DB0F4940B81E85EBC0
:104DD00051B811400000B44310B504466FF0040010
:104DE000FEF712FAE11704EB5171C1F3C701074A4C
:104DF00011701046007800EB4001C1EBC0104FF677
:104E0000FF7101EAC0000249088010BDA001002026
:104E1000A201002070B504464FF4077094FBF0F037
:104E2000C6B24FF4077094FBF0F100FB114085B25D
:104E300005E04FF4077000F009F8701EC6B2002EAE
:104E4000F7D115B1284600F001F870BD0146114AAE
:104E500012884A434FF0E0235A6100229A611A46B1
:104E6000126942F001021A6100BF4FF0E02210699E
:104E700000F001021AB100F48032002AF5D04FF0A0
:104E8000E022126922F001024FF0E0231A610022B1
:104E90009A617047A201002082B0CDE9000121F0A3
:104EA000004001909DED000B02B051EC100B7047DB
:104EB00000BF054A128802F04002002AF9D0C2B2AF
:104EC000014B9A807047000000100140F0EE400A4C
:104ED000F6EE001A60EEA11AB0EE611AB0EE600AAA
:104EE00010EE100A0749A1EB600000EE100A21EE57
:104EF000002AF7EE081A42EE401A61EE801AB0EE70
:104F0000610A7047DF59375F4FF4A060FDF744FF37
:104F10004FF4E13001F04EFBA820FFF75DFFFEF7F4
:104F2000FDF9FDF7ADFCFDF7B5FCFDF7A9FB01F0C0
:104F30008FF901F097F901F07FF80A4800680A49F3
:104F40000860FEF775F9FBF747FC01200749087078
:104F5000FDF7DCFE04E00648FDF740F9FBF796FCA0
:104F6000F9E7000048000020180000201C00002085
:104F7000982A0020324890ED030A324880ED040A56
:104F80002F4890ED040AB1EE400A2E4880ED050A44
:104F90002B4890ED050A2B4880ED060A2A4890ED33
:104FA000000A2A4880ED000A294890ED000A2648A8
:104FB00080ED000A90ED000A2448D0ED000A30EEA2
:104FC000600ADFED240AB4EEE00AF1EE10FA05DB28
:104FD00021480068401E2049086013E01A4890EDFF
:104FE000000A1A48D0ED000A30EE600ADFED1B0A15
:104FF000B4EEE00AF1EE10FA04D817480068401C3D
:1050000015490860144800684FF4B471484300EE35
:10501000100AB8EEC00A0C48D0ED000A30EE200AA3
:105020000F4880ED000A0A4890ED010A0D4880ED16
:10503000000A074890ED020A0A4880ED000A70470E
:10504000042D0020E82B00207C0100208801002096
:10505000382D00200000A543980100200000A5C3C2
:10506000900100209401002008B500200090012349
:105070006A460A213C2001F035F940B99DF800004C
:10508000482809D015A0FBF719F9FF2008BD16A084
:10509000FBF714F9FF20F9E7702200213C20FCF710
:1050A000E9F90520FFF7B6FEA02201213C20FCF71C
:1050B000E1F90520FFF7AEFE002202213C20FCF7BB
:1050C000D9F90620FFF7A6FE182200213C20FCF7A4
:1050D000D1F90620FFF79EFE0020D7E76572726FB8
:1050E000722032410D0A00006572726F72203242E6
:1050F0000D0A000010B504460623224603213C2079
:1051000001F0F0F810BD00002DE9F04104460D4615
:1051100016461648FFF7EEFF144B0E3B5B7C134F11
:105120000E3F3F7C43EA07231AB2104B0E3BDB7B5A
:105130000E4F0E3FBF7B43EA07235B4219B20B4B76
:105140000E3BDB7C094F0E3FBF7C43EA072318B2BE
:1051500000F040F80648808A20800548408D28806D
:105160000348B0F840003080BDE8F0812A2C0020D0
:10517000B42C00203EB504466A4601A902A8FFF7F8
:10518000C3FFBDF9080000EE100AB8EEC00A0E48D1
:1051900080ED000A84ED000ABDF9040000EE100A5B
:1051A000B8EEC00A094880ED000A84ED010ABDF995
:1051B000000000EE100AB8EEC00A054880ED000AB3
:1051C00084ED020A3EBD00001401002018010020F9
:1051D0001C010020F0B503460C46002000210120F0
:1051E00019E0504D35F81060451E4E4F27F81560F8
:1051F00007F1160535F81070451E4A4E163626F88A
:10520000157006F1160535F81070451E163626F88D
:105210001570451CE8B20A28E3DB424D6B822C85F1
:10522000EA87002005E03F4D35F910502944451C20
:10523000E8B20A28F7DB0A2591FBF5F52DB2394EC5
:10524000B5820021002006E0364D163535F91050A4
:105250002944451CE8B20A28F6DB0A2591FBF5F53E
:105260002EB2304D6E850021002006E02D4D2C35EC
:1052700035F910502944451CE8B20A28F6DB0A2506
:1052800091FBF5F52EB2274DA5F84060264DB5F9F6
:105290000650244EB6F91460B54203DD214DAD8AA7
:1052A000214EF580204DB5F908601E4DB5F92A5004
:1052B000AE4203DD1B4D6D8D1B4E35811A4DB5F988
:1052C0000A60184DB5F94050AE4204DD154DB5F8F1
:1052D0004050154E7581144DB5F90050114EB6F978
:1052E0001460B54203DA0F4DAD8A0F4E35800E4D76
:1052F000B5F902600B4DB5F92A50AE4203DA094DFB
:105300006D8D094E7580084DB5F90460054DB5F9F0
:105310004050AE4204DA034DB5F84050024EB5801D
:10532000F0BD0000B42C0020F62C002000B52DEDBF
:10533000108B93B0FE4890ED000AD0ED000A20EEED
:10534000200A8DED080A90ED000AFA48D0ED000A17
:1053500020EE200AB0EE40FAF54890ED000AF6483B
:10536000D0ED000A20EE200AF0EE40AAF04890EDC1
:10537000000AF248D0ED000A20EE200A8DED070A5F
:10538000EC4890ED000AD0ED000A20EE200AF0EE85
:1053900040FA90ED000AE848D0ED000A20EE200A1D
:1053A0008DED060AE34890ED000AE448D0ED000ACE
:1053B00020EE200AB0EE40BADF4890ED000AD0EDB2
:1053C000000A20EE200AF0EE40BA90ED000ADB4819
:1053D000D0ED000A20EE200A8DED050A90ED000ABE
:1053E000D0ED000A20EE200A8DED040AD44890ED9D
:1053F000030ADFEDD40A20EE200ADFEDD30A80EEA7
:10540000201AD24880ED001ACD4890ED040ADFED55
:10541000CD0A20EE200ADFEDCC0A80EE201ACC481F
:1054200080ED001AC64890ED050ADFEDC60A20EEB1
:10543000200ADFEDC50A80EE201AC64880ED001A6A
:10544000BF4890ED000AC44880ED000ABC4890EDCA
:10545000010AC24880ED000AB94890ED020AC0482E
:1054600080ED000AB64890ED060ABE4880ED000ABD
:10547000B34890ED070ABC4880ED000AB04890EDB3
:10548000080ABA4880ED000AFBF7DEFCB84908605C
:1054900008460068B749096888420CD3B4480068D8
:1054A000B4490968401A00EE100AB8EE400ADFED70
:1054B000B20AC0EE208AAE480068AE490860A6482D
:1054C000D0ED000A90ED001A60EE810AA34890ED3D
:1054D000001AD0ED001A41EE210AA14890ED001A01
:1054E000D0ED001A41EE210AB0EE600A00F0C2FFD2
:1054F000B0EE408A984890ED000A20EE080A80ED50
:10550000000A964890ED000A20EE080A80ED000A95
:10551000934890ED000A20EE080A80ED000A9148B9
:10552000D0ED000A90ED001A60EE810A8E4890EDF1
:10553000001AD0ED001A41EE210A8C4890ED001AB5
:10554000D0ED001A41EE210AB0EE600A00F092FFA1
:10555000B0EE408A834890ED000A20EE080A80ED04
:10556000000A814890ED000A20EE080A80ED000A4A
:105570007E4890ED000A20EE080A80ED000A794886
:1055800090ED000AF0EE000A60EE200AB6EE000A86
:1055900030EE6B1A9DED040A31EE400A20EE800ACF
:1055A0007148D0ED000AB0EE001A60EE811ADDED10
:1055B000060A9DED071A70EEC10A01EEA00A6B48BB
:1055C000D0ED000AB0EE001A60EE810A3BEE2A1A16
:1055D00000EE810A8DED110A624890ED000AF0EEAE
:1055E000000A20EE201A9DED060ADDED070A30EED6
:1055F000200A21EE000A5C48D0ED000AB0EE001A45
:1056000020EE811AF6EE000A70EEEF1ADDED040AC4
:1056100071EEE00A01EE200A5448D0ED000AB0EE27
:10562000001A20EE811ADDED050A70EECF0A01EEB8
:10563000200A8DED100A4B4890ED000AF0EE000AAA
:1056400020EE200A7BEE6A0A60EE200A464890EDC2
:10565000000AB0EE001A20EE011A9DED050A70EE68
:105660000F1AB0EE600A01EE210A4048D0ED000AA0
:10567000B0EE001A60EE810AB6EE001A31EE6F1A33
:1056800031EE6B1AB0EE409A00EE819A9DED110A50
:1056900060EE000A9DED100A40EE000A10EE901A2E
:1056A000084601F06DFDCDE900019DED000BFEF710
:1056B000BFFE8DED020B9DED020B51EC100B00F0C7
:1056C000E5FF09EE900AB0EE49AA3BEE6A0AF0EE59
:1056D000000A20EE200A8DED0F0A9DED050A3FEE2F
:1056E000000AF0EE000A20EE200A8DED0E0A9DED74
:1056F000080A30EE6F0A70EE6B0A9DED040A30EE78
:10570000800A8DED0D0AB0EE000A69EE800AB6EE51
:10571000000A30EE6B1A9DED040A31EE400A20EECD
:10572000800AB0EE4A9AF0EE000A69EE200A25E0FF
:105730004001002044010020480100204C010020CD
:10574000042D0020DB0F49400000344350010020AD
:1057500054010020580100205C010020600100205D
:1057600064010020680100206C010020700100200D
:1057700078010020740100200024F4493BEE6A1AED
:1057800000EE810A8DED0C0AB0EE000A29EE801AB7
:105790009DED060ADDED070A30EE600A21EE000AF3
:1057A000B0EE4A9AF0EE000A29EE201ADDED050A65
:1057B0007FEE200A01EE200A8DED0B0AB0EE000A02
:1057C00029EE800A7AEE8B0A20EE200AB0EE4A9A81
:1057D000F0EE000A69EE200AB6EE001A31EE6F1AFA
:1057E00031EE6B1A00EE810A8DED0A0AAF48D0ED5A
:1057F000000A9DED0D0A60EE800AAD4890ED001A9A
:105800009DED0E0A41EE400AAA4890ED001A9DED6A
:105810000A0A21EE001AA848D0ED001A9DED0B0AE5
:1058200001EEC01A30EE81CAA148D0ED000A9DED0C
:105830000F0A60EE800AA14890ED001A9DED0D0A56
:1058400041EE400A9C4890ED001A9DED0C0A21EEB5
:10585000001A9B48D0ED001A9DED0A0A01EEC01A0D
:1058600070EE81CA9548D0ED000A9DED0E0A60EEFB
:10587000800A8E4890ED001A9DED0F0A41EE400A15
:105880008F4890ED001A9DED0B0A21EE001A894811
:10589000D0ED001A9DED0C0A01EEC01A30EE81DA4F
:1058A000B5EEC0CAF1EE10FA57D0F5EEC0CAF1EE6F
:1058B00010FA52D0B5EEC0DAF1EE10FA4DD09FEDED
:1058C000810A6CEE000A804890ED000A00EEA80AFA
:1058D00080ED000A9FED7B0A6CEE800A7B4890ED1C
:1058E000000A00EEA80A80ED000A9FED760A6DEE30
:1058F000000A774890ED000A00EEA80A80ED000A41
:10590000744890ED000AF0EE000A00EE8C0A6E4832
:10591000D0ED000A30EE200A6E4880ED000A6E4895
:1059200090ED000AF0EE000A00EEAC0A6748D0EDF8
:10593000000A30EE200A684880ED000A674890EDC2
:10594000000AF0EE000A00EE8D0A6148D0ED000A70
:1059500030EE200A614880ED000A614890ED000AAF
:10596000B1EE400A5B48D0ED000A20EE200A5D4807
:10597000D0ED000A584890ED001A00EEC10A5A48CE
:1059800090ED001A5548D0ED001AF0EE400A41EEB5
:10599000610A564890ED000A00EEA80A8DED090A4A
:1059A00090ED000A4B48D0ED000A20EE200A4D4849
:1059B000D0ED000A494890ED001A00EE810A4A48ED
:1059C000D0ED000A444890ED001A00EEC10A4448A8
:1059D000D0ED000AF0EE60DA40EE28DA434890EDB0
:1059E000000A3D48D0ED000A20EE200A3C48D0EDE8
:1059F000000A3A4890ED001A00EEC10A3A48D0ED8C
:105A0000000A344890ED001A00EE810A3548D0EDC6
:105A1000000AB0EE60EA00EE28EA344890ED000A91
:105A20002E48D0ED000A20EE200A2D48D0ED000AC5
:105A3000294890ED001A00EE810A2A48D0ED000AAC
:105A4000244890ED001A00EEC10A2748D0ED000A64
:105A5000F0EE60EA40EE28EADDED090A60EEA00A09
:105A60004DEEAD0A4EEE0E0A4EEEAE0AB0EE600AF4
:105A700000F000FDB0EE408A9DED090A20EE080A14
:105A80001A4880ED000A2DEE880A154880ED000ABC
:105A90002EEE080A134880ED000A2EEE880A1248FE
:105AA00080ED000A13B0BDEC108B00BD600100203A
:105AB000640100206C010020700100205C010020C6
:105AC000680100200AD7233C34010020380100205F
:105AD0003C0100205001002054010020580100200A
