:020000040800F2
:100000006034002081020008E5340008951A0008D9
:100010008D3300082F1200086F4200080000000016
:10002000000000000000000000000000C1360008D1
:10003000AB1200080000000075350008113A0008F6
:100040009B0200089B0200089B0200089B0200081C
:100050009B0200089B0200089B0200089B0200080C
:100060009B0200089B020008551400089B02000830
:100070009B0200089B0200089B0200089B020008EC
:100080009B0200089B0200089B0200089B020008DC
:100090009B0200089B0200089B0200089B020008CC
:1000A0009B0200089B0200089B0200089B020008BC
:1000B000CD3A00089B0200089B0200089B02000842
:1000C0009B0200089B0200089B0200089B0200089C
:1000D0009B020008D53F00089B0200085D40000815
:1000E0009B0200089B0200089B0200089B0200087C
:1000F000E53B00089B0200089B0200089B020008E9
:100100009B0200089B0200089B0200089B0200085B
:100110009B0200089B0200089B0200089B0200084B
:100120009B0200089B0200089B0200089B0200083B
:100130009B0200089B0200089B0200089B0200082B
:100140009B0200089B0200089B0200089B0200081B
:100150009B0200089B0200089B0200089B0200080B
:100160009B0200089B0200089B0200089B020008FB
:100170009B0200089B0200089B0200089B020008EB
:100180009B0200089B02000800F002F800F069F8EA
:100190000AA090E8000C82448344AAF10107DA45E2
:1001A00001D100F05EF8AFF2090EBAE80F0013F0CB
:1001B000010F18BFFB1A43F001031847507B0000E2
:1001C000707B00000A444FF0000C10F8013B13F064
:1001D000070408BF10F8014B1D1108BF10F8015BA0
:1001E000641E05D010F8016B641E01F8016BF9D193
:1001F00013F0080F1EBF10F8014BAD1C0C1B09D1EA
:100200006D1E58BF01F801CBFAD505E014F8016B5B
:1002100001F8016B6D1EF9D59142D6D370470000ED
:100220000023002400250026103A28BF78C1FBD8FF
:10023000520728BF30C148BF0B607047662907F0DE
:100240001084002070471FB507F001FC00F0B2FADF
:1002500004000020002106F0EDFDE0601FBD10B598
:1002600010BD00F0BBFB1146FFF7EDFF05F092F962
:1002700000F0D9FB03B4FFF7F2FF03BC05F0E8F888
:100280000948804709480047FEE7FEE7FEE7FEE72A
:10029000FEE7FEE7FEE7FEE7FEE7FEE70448054966
:1002A000054A064B70470000293A000889010008FA
:1002B000602E00206034002060300020603000207C
:1002C0007047000000487047002E00200FB404491A
:1002D00010B503AA029800F05BFA10BC5DF814FB9D
:1002E000980100202DE9F0410E46044600202062CE
:1002F0002046E168884730B3252805D0D4E901219C
:100300009047206A401CF2E7E168204600278847B2
:10031000050018D0A5F14100192802D820354FF466
:1003200000673246294620462760FFF787FF40B125
:10033000012804D0F61D26F007060836D8E7361D3A
:10034000D6E72846DAE7206ABDE8F08170477047B3
:100350007047000000487047002E0020704710B51D
:10036000FFF7B0FF006810BD10B50446FFF7AAFF05
:10037000046010BD70472DE9FF4F0C461E464FF03C
:10038000FF378BB0D2E90001DDF860800A908A4621
:10039000C1F30A5505B93D46002108464FF000005B
:1003A000BAF1000F00F4400005DA00EB80004FF4D2
:1003B000400101EA50004FEA9059B9F1010F00DD08
:1003C000B9460A9850EA4A000ED044F61050A5F2F9
:1003D000FF3545432F14B8F1000F1ED07542291E7A
:1003E0001EDDC9F100021CE0B8F1010F4FF0000062
:1003F00001D0302103E0F24305E02154401CB0421B
:10040000FBDB30460022002121540B99C1F8088003
:10041000C1E900200FB0BDE8F08FBD1B6D1CDEE709
:100420004A4600DA694206A800F066FA06AB93E88D
:10043000070003AB83E8070050460A9900F03CFB35
:100440008DE80700A0F500501F3800900398002D9C
:1004500009DD42F21F014A46084403A90390684699
:1004600000F09BFD08E0A0F500504A461F3803A9A4
:100470000390684600F0A5FD8DE807000004000C1D
:1004800003D04FF0FF30410800E01046B8F1000FF4
:1004900003D00022009215461EE0751E05D400F020
:1004A0008DF9303262556D1EF9D5B34601220843ED
:1004B00002D000227F1C04E02078302801D10022E5
:1004C0007F1E002A099786D01DE0112D07DA00F063
:1004D00075F9303262556D1C50EA0102F5D10843BE
:1004E00002D00098C8B10EE00021681E05E0235C30
:1004F000625C63542254401E491C8142F7DBAB46C8
:10050000A81B401E0990002004F80B000B98099AC4
:10051000C0F80880C0E9002B7CE711264FF00008E6
:1005200059E72DE9F04F88460446D21D22F0070115
:1005300091B0D1E90001CDE90A0103F09AFE02462B
:100540000B98C00F01D02D2007E02068810701D54E
:100550002B2002E0202101EAC000032A099001D0EB
:10056000072A05DB03464146204600F085F90BE1EA
:100570002078800601D5E06900E00620B8F1650F1B
:10058000814606D0B8F1660F18D0B8F1670F70D168
:1005900031E00020B9F1110F009001DB112301E0DF
:1005A00009F101030AAA01A90CA8FFF7E4FEDDE99D
:1005B0000C70002609F10105834647E001204B46F7
:1005C00000904FF000470AAA01A90CA8FFF7D3FE3C
:1005D000DDE90DB00C995D46002610B909F1010066
:1005E0000D18B9EB050003D4C0F1FF3609F1010580
:1005F000A5EB09002BE0B9F1010F01DA4FF0010979
:100600000020B9F1110F0090484601DD112300E0F0
:1006100003460AAA01A90CA8FFF7ADFEDDE90C709C
:100620004D4600268346207800070AD4AB4500DA01
:100630005D4601A8012D04DD411911F8011C302986
:1006400007D04F4502DA17F1040F04DA0120824681
:100650000FE06D1EEEE7002F02DCED1B3E4403E0D1
:10066000781CA84200DD7D1CB81B00F1010A4FF088
:1006700000472078000703D4AA4501DB4FF0FF3A7A
:100680000021B7F1004F0DF143088DF8431024D03D
:1006900002202B23002F01DA7F422D230A21021E84
:1006A000A0F1010000DC5FB197FBF1FC97FBF1F2D8
:1006B00001FB1C7C17460CF1300C08F801CDEEE76D
:1006C000A8F1010003702188090501D5452100E04A
:1006D0006521A0F1010800F8011C09980FA9A1EB00
:1006E0000807FF1D00B10120411901EBEA70A16963
:1006F0003844081A401EA0612078C00602D4204663
:10070000AFF30080099828B1D4E901219047206A0D
:10071000401C20622078C00622D52046AFF300801E
:100720001EE0002E04DBB34502DD01A8805D00E081
:100730003020D4E901219047206A401C2062761CB9
:10074000AAF101005FEA000A0AD100F033F8C0689C
:100750000168405CD4E901219047206A401C206276
:10076000281EA5F10105DCDC07E0D4E9012118F819
:10077000010B9047206A401C2062381EA7F1010738
:10078000F3DC2046AFF30080032011B043E6000005
:10079000074B70B50D467B4400F05BF804462846D5
:1007A00000F018F910B14FF0FF3070BD204670BD59
:1007B000A34D000000487047202E002030B5B0F156
:1007C0000A024FEA900E71F100034EEA817EB0EB0F
:1007D0000E0061EB91014FEA101E4EEA017E10EB14
:1007E0000E0041EB11114FEA102E4EEA016E10EB94
:1007F0000E0041EB11214FEA104E4EEA014E10EB74
:100800000E0041EB1141401841F100014FEAD000C8
:1008100040EA41704FEAD10110EB80054FEA8104B4
:1008200044EA907444EB01046D1944EB0404521B38
:10083000A3414FF0000348BF0A3200D530BD401C31
:1008400041F1000130BD000001694A1C02610878D5
:10085000704700B58FB0CDE9013100210591054900
:100860007944CDE9031011466846FFF73BFD0FB010
:1008700000BD0000E5FFFFFF2DE9F0411F460446E3
:1008800003260168072A01F4006004DB08B116A5FD
:1008900005E016A503E008B115A500E015A521F0B7
:1008A00010002060A069C01EA0610FB1401EA061B1
:1008B0002046AFF300804FB1D4E90121384690477C
:1008C000206A401C2062C01C206206E0206AFAE711
:1008D000D4E9012115F8010B9047761EF8D2204685
:1008E000AFF30080BDE8F0814E414E006E616E00B6
:1008F000494E4600696E66002DE9F047814616466E
:100900008AB0334878440DC88DE80D0030487844EB
:10091000801C03AC0DC884E80D0041F69B300844F0
:10092000372190FBF1F290FBF1F5A5F1800501FB79
:1009300012041B3C02D56442012000E00020DFF8D5
:1009400090A080460027FA44AAF1BE0A0DE0E00715
:1009500009D03246684607EB47010AEB810100F0F7
:1009600030FB8DE8070064107F1C002CEFD1184F7E
:100970007F44AC3F18E0E80714D007EB04100DF1FA
:10098000180A90E80E008AE80E00C068F04201D113
:1009900098190890324606A903A800F012FB03AB91
:1009A00083E807006D10641C002DE4D132466946CF
:1009B000B8F1000F03A802D000F0EFFA01E000F058
:1009C00000FBC9E90001C9F808200AB0BDE8F087BA
:1009D000EC730000007B00F0800070477546FFF765
:1009E000B9FCAE4605006946534620F0070085462F
:1009F00018B020B5FFF752FCBDE820404FF00006CC
:100A00004FF000074FF000084FF0000B21F00701F6
:100A1000AC46ACE8C009ACE8C009ACE8C009ACE839
:100A2000C0098D46704710B50446AFF300802046DC
:100A3000BDE81040FFF71EBC4FF0013C50F8042BFE
:100A400051F8043B9A4221D1A2EB0C03934313EAE1
:100A5000CC1317D150F8042B51F8043B9A4215D10E
:100A6000A2EB0C03934313EACC130BD150F8042BE5
:100A700051F8043B9A4209D1A2EB0C03934313EAC9
:100A8000CC13DBD04FF00000704700BFD01A01BA82
:100A9000B1FA81F101F0180122FA01F0CB40C1F165
:100AA0002001DBB2C0B2C01A2CFA01F3D11A914373
:100AB00011EAC311E6D170475FEA400C08BF91F01C
:100AC000000F4FEA8C234FEAC12243EA51514FEA0B
:100AD0001C5018BF00F5F0404FEA300018BF41F03D
:100AE00000415FEA6C5C00F02980BCF1FF3F08BF69
:100AF00040F080407047130C06BF12044FF0100CFA
:100B00004FF0000C130E04BF12020CF1080C130F6F
:100B100004BF12010CF1040C930F04BF92000CF1FE
:100B2000020CD30F04BF52000CF1010C11464FF020
:100B30000002A0F11F00A0EB0C00704711F0004F65
:100B400008BF704731F000413FF4D5AF0B0C06BF32
:100B500009044FF0100C4FF0000C0B0E04BF0902FB
:100B60000CF1080C0B0F04BF09010CF1040C8B0FE6
:100B700004BF89000CF1020CCB0F04BF49000CF13B
:100B8000010CCCF12003A0EB0C0022FA03F302FAD3
:100B90000CF241EA030100F10100704720F07F4CA4
:100BA00080EA030023F07F47ACEB070303F57C5397
:100BB00000F0004003F1FF032DE980494FEA154B97
:100BC00009B44FEA144325EA0B4E24EA03480FF216
:100BD000042606EB132749083E785FEA320203FB3E
:100BE0000667C7F5000707FB06F64FEA54374FEADA
:100BF000D64606F1020607FB066CCCF1005C4FEA14
:100C00001C472CEA074C07FB06F40CFB06F504EB2B
:100C100015464FEA961634BF00204FF000404FEAC9
:100C2000D13706FB07FC4FEA1C4C0CFB0BF7D21B21
:100C300003FB0CF761EB07010CFB0EF7B0EB074071
:100C400072EB17420CFB08F734BFA2EB0742B2EB82
:100C5000074261EB17414FEA0C444FEA910706FB4C
:100C600007FC4FEA1C4C0CFB0BF7B0EBC74072EBD8
:100C7000573203FB0CF734BFA2EBC742B2EBC742BB
:100C800061EB57310CFB0EF7B0EBC70072EB5772FC
:100C90000CFB08F734BFA2EBC702B2EBC70261EB53
:100CA0005771039F4FEA816141EA921104EBCC0432
:100CB0004FEAD1374FEA826206FB07FC42EA901204
:100CC0004FEA80604FEA1C4C0CFB0BF7D21B03FB76
:100CD0000CF761EB07010CFB0EF7B0EB074072EB72
:100CE00017420CFB08F734BFA2EB0742B2EB0742F6
:100CF00061EB17414FEA8C554FEA910704EB9C24B6
:100D000006FB07FC4FEA1C4C0CFB0BF7B0EBC74093
:100D100072EB573203FB0CF734BFA2EBC742B2EBC6
:100D2000C74261EB57310CFB0EF7B0EBC70072EB1B
:100D300057720CFB08F734BFA2EBC702B2EBC70235
:100D400061EB577115EB4C254FEA816141EA921135
:100D50004FEA82624FEAD13742EA901206FB07FC63
:100D600044F100044FEA80604FEA1C4C0CFB0BF787
:100D7000D21B03FB0CF761EB07010CFB0EF7B0EB8A
:100D8000074072EB17420CFB08F734BFA2EB074297
:100D9000B2EB074261EB174115EB1C154FEA8131AD
:100DA00041EA92414FEA823242EA90424FEA803071
:100DB0004FEA0C7644F1000448EA03434EEA0B483C
:100DC0004FF0000EB2EB080C71EB030724BF624634
:100DD00039464EEB0E0E4FF0000B001852414941C0
:100DE0004BEB0B0BB2EB080C71EB03077BF1000B29
:100DF00024BF624639464EEB0E0E4FF0000B001832
:100E0000524149414BEB0B0BB2EB080C71EB030762
:100E10007BF1000B24BF624639464EEB0E0E51EAC1
:100E2000020718BF46F0010616EB0E7655F10002D8
:100E300054F1000103D5BDE88901BDE80088BDE893
:100E40008901BDE80048B619524141EB0101A3F107
:100E50000103704780807F7E7D7C7B7A797877760E
:100E600076757473727171706F6E6E6D6C6C6B6A87
:100E70006A69686867666665646463636261616025
:100E8000605F5F5E5E5D5D5C5C5B5B5A5A595958A2
:100E9000585757565655555554545353525252510C
:100EA000515050504F4F4F4E4E4D4D4D4C4C4C4B62
:100EB0004B4B4A4A4A4949494848484747474746A9
:100EC00046464545454444444443434343424242E5
:100ED00042414141002B26D4770021D01CB54FEA76
:100EE000370703B44FF010004FF010014FF000002F
:100EF0000FBCBDE810400BF1010BBBF1010F08BFA7
:100F00005FEA170722BF12F1010211F101014FF050
:100F1000004143F1000300F0004043EA0000704745
:100F2000F9D35708DAE746EA064613F1400F4FEACD
:100F300016461FDD13F1200FDFBF16430A460021BE
:100F400020335B42C8D0C3F1200746EA064602FAC6
:100F500007F74FEA164646EA0706C3F1200722FACA
:100F600003F201FA07F721FA03F14FF0000342EA16
:100F70000702B1E746EA020646EA06464FEA164687
:100F800046EA0106BCBF46EA0646360C4FF00003AF
:100F90004FF000024FF000019EE72DE9C048934654
:100FA00030B491E8380007C831EA400C48BF34EA51
:100FB000430C03D5FFF7F2FDFFF78CFFF0BCBDE853
:100FC00000882DE9C048934630B491E8380007C83E
:100FD00010F0804F08BF13F0804F03D100F005F8E8
:100FE000FFF778FFF0BCBDE8008820F07F4780EA7B
:100FF000030023F07F4C07EB0C03A3F57C5300F0B8
:101000000040A3F1FE0392F0000F00F0B38095F0D2
:10101000000F00F077802DE901494FEA11404FEAB7
:10102000144621EA004800FB06FC24EA064708FBB8
:1010300006F607FB08F800FB07F718EB06484CEB31
:10104000164C4FEA124B18EB07484FEA15464CEB8B
:10105000174022EA0B4E0BFB06FC25EA06470EFB67
:1010600006F607FB0EFE0BFB07F71EEB064E4CEBDE
:10107000164C4FF000061EEB074E4CEB174B18EBCF
:101080000B0840F1000018EB0E0B58EB000840F184
:1010900000008F1A4FF000013CBFC943661B14BF0C
:1010A000B5EB040C00213CBFC943F61B4FEA1744C3
:1010B0004EEA8E0E27EA04454FEA1C4704FB0762FE
:1010C0002CEA074C05FB07F70CFB05F604FB0CFCB0
:1010D00016EB074642EB174216EB0C4642EB1C425E
:1010E0001BEB060658EB0202414146EA9E0601D57B
:1010F000BDE80189B619524141EB0101A3F1010399
:10110000BDE801894FEA14454FEA114724EA054634
:1011100021EA074C05FB07F406FB07F70CFB06F179
:1011200005FB0CFC11EB074144EB17444FEA124757
:1011300011EB0C4144EB1C4422EA074C05FB07F27F
:1011400006FB07F70CFB06F605FB0CFC16EB074647
:1011500042EB174216EB0C4642EB1C456A1854F161
:10116000000148BF7047B619524141EB0101A3F19C
:101170000103704795F0000F37D04FEA11424FEA54
:10118000144721EA024624EA074C02FB07F106FB5A
:1011900007F70CFB06F402FB0CFC14EB074441EBD5
:1011A00017414FEA154714EB0C4441EB1C4125EA6B
:1011B000074C02FB07F506FB07F70CFB06F602FBE4
:1011C0000CFC16EB074645EB174516EB0C4645EBBA
:1011D0001C42121951F1000148BF7047B619524123
:1011E00041EB0101A3F1010370474FEA14454FEAB7
:1011F000114724EA054621EA074C05FB07F106FBE7
:1012000007F70CFB06F24FF0000605FB0CFC12EB97
:10121000074241EB174112EB0C4251EB1C4148BF16
:101220007047921841EB0101A3F10103704700BF21
:10123000FEE710B5002404E0204600F087FA601CA9
:10124000C4B2052CF8DB10BD0246094B9A4201D20C
:10125000084801E00648103801F000531BB1064B66
:101260000B40C36002E0044B0B40836070470000FA
:1012700010640240006002407D0F7D0F21B10268C2
:1012800042F00102026003E0026822F00102026003
:101290007047014600200A6802F001020AB10120ED
:1012A00000E000207047416070477047704770470A
:1012B0007047000010B52DED068B86B00120324935
:1012C000087000F0ADF9314801F008FC0120304908
:1012D000087004F08FF92F4804F0D6FF2B4890EDEA
:1012E000020A10EE101A084606F040FB41EC180BFB
:1012F000264890ED010A10EE101A084606F036FB5B
:1013000041EC190B214890ED000A10EE101A084626
:1013100006F02CFB41EC1A0B8DED028B8DED009B42
:1013200053EC1A2B1CA0FEF7D1FF002120480068C7
:1013300000B2CDE9010103911D48001F049100682E
:1013400000B21B4C083C0090246823B20F4C94ED73
:10135000020ABDEEC00A10EE104A22B20B4C94ED08
:10136000010ABDEEC00A10EE104A21B2074C94EDFE
:10137000000ABDEEC00A10EE104A20B205F0E9FCEA
:1013800006B0BDEC068B10BD080100208C2A0020A1
:10139000280100202C2D00207961773D25663B79BE
:1013A00061773D25663B726F6C6C3D25662F6E0044
:1013B0003C040040704710B57821012001F0E8FF9F
:1013C00010BD000010B52048007801283BD11F480F
:1013D000008800B21E490880FFF769FF1A48B0F97B
:1013E0000400022804DB002017498880FFF762FF11
:1013F0001548B0F90600052804DB00201249C88012
:10140000FFF7D9FF1048B0F908000A2804DB0020D4
:101410000D490881FFF74AFF0B48B0F90A0014286C
:1014200004DB002008494881FFF742FF0648B0F975
:101430000C00322804DB002003498881FFF7BAFF43
:1014400000200149087010BDB01100205800002094
:101450003E00002010B5102000F014F828B1102034
:1014600000F004F8102000F007F810BD01490860F2
:1014700070470000143C01400149086070470000BB
:10148000143C014001460020034A12680A400AB198
:10149000012000E000207047143C01400021234956
:1014A0008279002A3AD00A46126803689A430B46AA
:1014B0001A600A1D126803689A430B1D1A600279AC
:1014C00011440A6803681A430A60184A083212680D
:1014D00003689A43154B08331A601A1D1268036893
:1014E0009A43124B0C331A604279102A0ED11A1FFC
:1014F000126803681A430D4B08331A601A1D1268EC
:1015000003681A43094B0C331A600DE0074942790E
:1015100011440A6803681A430A6005E0027911441D
:101520000A6803689A430A6070470000003C014063
:10153000F0B50A4600210023002400BF3DE001254C
:1015400005FA01F3156805EA03049C4234D10568E5
:101550004F000326BE40B543056015794E00B540E7
:101560000668354305601579012D02D01579022DE5
:1015700016D185684F000326BE40B5438560557976
:101580004E00B540866835438560456801268E402B
:10159000B5434560456896798E40B6B2354345609F
:1015A000C5684F000326BE40B543C560D5794E00DF
:1015B000B540C6683543C560491C1029BFD3F0BD8E
:1015C000F0B5002300244D07ED0E02FA05F3CE100E
:1015D00000F1200555F826504E07F70E0F26BE40A5
:1015E000B543CF1000F1200646F82750CE1000F189
:1015F000200555F8265045EA0304CE1000F12005D9
:1016000045F82640F0BD0246002013690B400BB19F
:10161000012000E00020704741837047018370473C
:10162000324890ED030A324880ED040A2F4890EDCD
:10163000040AB1EE400A2E4880ED050A2B4890EDD1
:10164000050A2B4880ED060A2A4890ED000A2A4830
:1016500080ED000A294890ED000A264880ED000A36
:1016600090ED000A2448D0ED000A30EE600ADFED6C
:10167000240AB4EEE00AF1EE10FA05DB2148006816
:10168000401E2049086013E01A4890ED000A1A48ED
:10169000D0ED000A30EE600ADFED1B0AB4EEE00A7E
:1016A000F1EE10FA04D817480068401C154908608C
:1016B000144800684FF4B471484300EE100AB8EEC5
:1016C000C00A0C48D0ED000A30EE200A0F4880ED29
:1016D000000A0A4890ED010A0D4880ED000A07480B
:1016E00090ED020A0B4880ED000A7047582A00204E
:1016F000AC2A0020C8000020D40000208C2A002042
:101700000000A543EC0000200000A5C3E00000207D
:10171000E4000020E80000200B4A11684FF0E022AE
:1017200052694FF0E0239B69D21A4FF47A735A43FF
:101730004FF0E0235B69B2FBF3F201EB4103C3EB33
:10174000C11302EBC30070474800002010B50446E7
:1017500004EB44001B4901EB800090ED000A04EB10
:10176000440001EB800080ED010AFFF7D5FF00EE99
:10177000100AB8EE400A04EB4400124901EB800065
:1017800080ED000A04EB440001EB800090ED000ABC
:1017900004EB440001EB8000D0ED010A30EE600A5A
:1017A00004EB440001EB800080ED020A04EB4400EE
:1017B00001EB800090ED020ABCEEC00A10EE100AA8
:1017C00010BD0000D41100204FF08040406A7047E7
:1017D00008B50020009001236A460A213C2001F050
:1017E0000DFD40B99DF80000482809D015A0FEF76E
:1017F0006DFDFF2008BD16A0FEF768FDFF20F9E78C
:10180000702200213C2000F0BBFC052003F048FEC4
:10181000A02201213C2000F0B3FC052003F040FE93
:10182000002202213C2000F0ABFC062003F038FE31
:10183000182200213C2000F0A3FC062003F030FE1B
:101840000020D7E76572726F722032410D0A0000E6
:101850006572726F722032420D0A000010B50446A4
:101860000623224603213C2001F0C8FC10BD0000E5
:101870002DE9F04104460D4616461648FFF7EEFFE7
:10188000144B0E3B5B7C134F0E3F3F7C43EA072318
:101890001AB2104B0E3BDB7B0E4F0E3FBF7B43EA71
:1018A00007235B4219B20B4B0E3BDB7C094F0E3F0B
:1018B000BF7C43EA072318B200F040F80648808A4C
:1018C00020800548408D28800348B0F840003080D3
:1018D000BDE8F081EE2A0020782B00203EB50446BA
:1018E0006A4601A902A8FFF7C3FFBDF9080000EE90
:1018F000100AB8EEC00A0E4880ED000A84ED000A16
:10190000BDF9040000EE100AB8EEC00A094880EDE7
:10191000000A84ED010ABDF9000000EE100AB8EEDD
:10192000C00A054880ED000A84ED020A3EBD0000B1
:10193000F0000020F4000020F8000020F0B503467D
:101940000C4600200021012019E0504D35F81060B0
:10195000451E4E4F27F8156007F1160535F8107033
:10196000451E4A4E163626F8157006F1160535F84E
:101970001070451E163626F81570451CE8B20A2868
:10198000E3DB424D6B822C85EA87002005E03F4D6A
:1019900035F910502944451CE8B20A28F7DB0A251E
:1019A00091FBF5F52DB2394EB5820021002006E0FD
:1019B000364D163535F910502944451CE8B20A2831
:1019C000F6DB0A2591FBF5F52EB2304D6E85002130
:1019D000002006E02D4D2C3535F910502944451CCA
:1019E000E8B20A28F6DB0A2591FBF5F52EB2274D61
:1019F000A5F84060264DB5F90650244EB6F914609E
:101A0000B54203DD214DAD8A214EF580204DB5F95B
:101A100008601E4DB5F92A50AE4203DD1B4D6D8D99
:101A20001B4E35811A4DB5F90A60184DB5F9405075
:101A3000AE4204DD154DB5F84050154E7581144D7C
:101A4000B5F90050114EB6F91460B54203DA0F4DE6
:101A5000AD8A0F4E35800E4DB5F902600B4DB5F9CC
:101A60002A50AE4203DA094D6D8D094E7580084D3E
:101A7000B5F90460054DB5F94050AE4204DA034DA6
:101A8000B5F84050024EB580F0BD0000782B002024
:101A9000BA2B002000BFFEE710B5044600F0DCF8CA
:101AA00024B101210B48FFF7B9FD03E001210948EA
:101AB000FFF7B2FD02210748FFF7B0FD012000F05B
:101AC0000BF802210348FFF7A7FD012000F004F8FE
:101AD00010BD0000000C024010B5002106E00622F7
:101AE00000BF131EA2F10102FBD1491C8142F6D3B3
:101AF00010BD00001CB50121082001F03DFD0320B0
:101B0000009001208DF8040000208DF806000320CD
:101B10008DF8050069460248FFF70AFD1CBD00006C
:101B2000000C024070B5002400F082F8002518E097
:101B300002211048FFF770FD0120FFF7CDFF0221C1
:101B40000C48FFF76BFD6006040E01210948FFF702
:101B50005AFD08B1601CC4B20120FFF7BDFF681C2C
:101B6000C5B2082DE4DB02210248FFF755FD2046EF
:101B700070BD0000000C02402DE9F04106460F4602
:101B80001446984600F07AF8304600F0E3F800F08A
:101B9000ADF8FF2805D11DA0FEF798FBFF20BDE89A
:101BA000F081384600F0D6F800F0A0F8FF2804D104
:101BB00019A0FEF78BFBFF20F1E700F05FF8711C26
:101BC000C8B200F0C7F800F091F8FF2804D115A0C2
:101BD000FEF77CFBFF20E2E7002508E0FFF7A2FF0D
:101BE00020700020FFF758FF641C681CC5B2A8F1E4
:101BF0000100A842F2DCFFF795FF20700120FFF7FB
:101C00004BFF00F057F80020C9E700006572726FC3
:101C1000722032460D0A00006572726F72203247E0
:101C20000D0A00006572726F722032480D0A0000C2
:101C30001CB50120009000208DF804008DF80600EE
:101C40008DF8070002208DF8050069460148FFF76E
:101C50006FFC1CBD000C02401CB5012000908DF8EB
:101C600004008DF8060003208DF80500694602483F
:101C7000FFF75EFC1CBD0000000C024010B5FFF732
:101C8000EBFF01210A48FFF7C9FC02210848FFF7D2
:101C9000C5FC0120FFF720FF01210548FFF7BCFC30
:101CA0000120FFF719FF02210148FFF7B5FC10BD25
:101CB000000C024010B5FFF7CFFF02210A48FFF7E2
:101CC000ABFC01210848FFF7A7FC0120FFF704FF48
:101CD00002210548FFF7A2FC01210348FFF79EFC03
:101CE0000120FFF7F9FE10BD000C024010B54FF4C3
:101CF0007A7401211348FFF791FCFFF799FF012047
:101D0000FFF7EAFE02210F48FFF788FC0120FFF7EA
:101D1000E3FE0AE0601E80B2041E06D0FFF7CAFF91
:101D200009A0FEF7D3FAFF2010BD01210548FFF7F7
:101D30006AFC0028EED102210248FFF76DFC00206A
:101D4000F2E70000000C02406572726F72203241AF
:101D50000D0A000070B50446FFF77EFF022113480C
:101D6000FFF75AFC00251DE004F0800020B101219E
:101D70000E48FFF753FC03E001210C48FFF74CFC31
:101D80006006040E0120FFF7A7FE02210748FFF7B7
:101D900045FC0120FFF7A0FE02210448FFF73CFCB0
:101DA000681CC5B2082DDFDB70BD0000000C0240CE
:101DB00070B506460C461546FFF760FF3046FFF744
:101DC000C9FFFFF793FFFF2804D110A0FEF77EFAAA
:101DD000FF2070BD2046FFF7BDFFFFF787FFFF28FC
:101DE00004D10DA0FEF772FAFF20F2E72846FFF7B4
:101DF000B1FFFFF77BFFFF2804D10AA0FEF766FAC8
:101E0000FF20E6E7FFF756FF0020E2E76572726FFA
:101E1000722032420D0A00006572726F72203243E6
:101E20000D0A00006572726F722032440D0A0000C4
:101E300010B5044600F0E6F82CB14FF400710D48DF
:101E4000FFF7ECFB04E04FF400710A48FFF7E4FBF6
:101E50004FF480710748FFF7E1FB012000F00CF818
:101E60004FF480710348FFF7D7FB012000F004F81E
:101E700010BD00000004024010B5002106E006225B
:101E800000BF131EA2F10102FBD1491C8142F6D30F
:101E900010BD00001CB50121022001F06DFB4FF4C4
:101EA0004070009001208DF8040000208DF806009D
:101EB00003208DF8050069460148FFF739FB1CBD7A
:101EC0000004024070B5002400F086F800251BE0F5
:101ED0004FF480711148FFF79FFB0120FFF7CCFF03
:101EE0004FF480710D48FFF799FB6006040E4FF424
:101EF00000710A48FFF787FB08B1601CC4B20120DB
:101F0000FFF7BAFF681CC5B2082DE1DB4FF4807102
:101F10000248FFF781FB204670BD0000000402402C
:101F20002DE9F04106460F461446984600F07EF82B
:101F3000304600F0F3F800F0B9F8FF2805D11DA0F5
:101F4000FEF7C4F9FF20BDE8F081384600F0E6F85E
:101F500000F0ACF8FF2804D119A0FEF7B7F9FF2074
:101F6000F1E700F063F8711CC8B200F0D7F800F098
:101F70009DF8FF2804D115A0FEF7A8F9FF20E2E79D
:101F8000002508E0FFF79EFF20700020FFF750FFBC
:101F9000641C681CC5B2A8F10100A842F2DCFFF77E
:101FA00091FF20700120FFF743FF00F05FF8002051
:101FB000C9E700006572726F722032460D0A000098
:101FC0006572726F722032470D0A00006572726F7F
:101FD000722032480D0A00001CB54FF400700090CA
:101FE00000208DF804008DF806008DF8070002200F
:101FF0008DF8050069460248FFF79AFA1CBD0000FB
:10200000000402401CB54FF40070009001208DF8D0
:1020100004008DF8060003208DF80500694602488B
:10202000FFF786FA1CBD00000004024010B5FFF760
:10203000E9FF4FF400710C48FFF7F0FA4FF480719C
:102040000948FFF7EBFA0120FFF716FF4FF4007184
:102050000548FFF7E1FA0120FFF70EFF4FF480710A
:102060000148FFF7D9FA10BD0004024010B5FFF790
:10207000C9FF4FF480710C48FFF7CEFA4FF400719E
:102080000948FFF7C9FA0120FFF7F6FE4FF4807107
:102090000548FFF7C3FA4FF400710348FFF7BEFA93
:1020A0000120FFF7E9FE10BD0004024010B54FF417
:1020B0007A744FF400711548FFF7B0FAFFF78CFF00
:1020C0000120FFF7D9FE4FF480711048FFF7A6FA00
:1020D0000120FFF7D1FE0AE0601E80B2041E06D088
:1020E000FFF7C4FF0AA0FEF7F1F8FF2010BD4FF480
:1020F00000710648FFF787FA0028EDD14FF4807190
:102100000248FFF789FA0020F0E7000000040240CF
:102110006572726F722032410D0A000070B504467C
:10212000FFF770FF4FF480711448FFF775FA002530
:1021300021E004F0800028B14FF400710F48FFF750
:102140006DFA04E04FF400710C48FFF765FA600681
:10215000040E0120FFF790FE4FF480710748FFF74F
:102160005DFA0120FFF788FE4FF480710348FFF706
:1021700053FA681CC5B2082DDBDB70BD00040240B9
:1021800070B506460C461546FFF750FF3046FFF780
:10219000C5FFFFF78BFFFF2804D110A0FEF796F8CC
:1021A000FF2070BD2046FFF7B9FFFFF77FFFFF2834
:1021B00004D10DA0FEF78AF8FF20F2E72846FFF7CA
:1021C000ADFFFFF773FFFF2804D10AA0FEF77EF8EA
:1021D000FF20E6E7FFF74AFF0020E2E76572726F33
:1021E000722032420D0A00006572726F7220324313
:1021F0000D0A00006572726F722032440D0A0000F1
:1022000000B52DED108B93B0FE4890ED000AD0ED97
:10221000000A20EE200A8DED080A90ED000AFA4827
:10222000D0ED000A20EE200AB0EE40FAF54890ED1D
:10223000000AF648D0ED000A20EE200AF0EE40AA8F
:10224000F04890ED000AF248D0ED000A20EE200A96
:102250008DED070AEC4890ED000AD0ED000A20EE63
:10226000200AF0EE40FA90ED000AE848D0ED000AAE
:1022700020EE200A8DED060AE34890ED000AE448BE
:10228000D0ED000A20EE200AB0EE40BADF4890ED13
:10229000000AD0ED000A20EE200AF0EE40BA90EDE0
:1022A000000ADB48D0ED000A20EE200A8DED050A79
:1022B00090ED000AD0ED000A20EE200A8DED040A10
:1022C000D44890ED030ADFEDD40A20EE200ADFEDBA
:1022D000D30A80EE201AD24880ED001ACD4890ED46
:1022E000040ADFEDCD0A20EE200ADFEDCC0A80EEF5
:1022F000201ACC4880ED001AC64890ED050ADFEDA3
:10230000C60A20EE200ADFEDC50A80EE201AC64874
:1023100080ED001ABF4890ED000AC44880ED000A25
:10232000BC4890ED010AC24880ED000AB94890ED22
:10233000020AC04880ED000AB64890ED060ABE4881
:1023400080ED000AB34890ED070ABC4880ED000A12
:10235000B04890ED080ABA4880ED000AFFF734FA59
:10236000B849086008460068B749096888420CD334
:10237000B4480068B4490968401A00EE100AB8EE83
:10238000400ADFEDB20AC0EE208AAE480068AE49CE
:102390000860A648D0ED000A90ED001A60EE810AB0
:1023A000A34890ED001AD0ED001A41EE210AA14891
:1023B00090ED001AD0ED001A41EE210AB0EE600A4D
:1023C00003F0CAF8B0EE408A984890ED000A20EE7B
:1023D000080A80ED000A964890ED000A20EE080AEF
:1023E00080ED000A934890ED000A20EE080A80ED87
:1023F000000A9148D0ED000A90ED001A60EE810AC3
:102400008E4890ED001AD0ED001A41EE210A8C485A
:1024100090ED001AD0ED001A41EE210AB0EE600AEC
:1024200003F09AF8B0EE408A834890ED000A20EE5F
:10243000080A80ED000A814890ED000A20EE080AA3
:1024400080ED000A7E4890ED000A20EE080A80ED3B
:10245000000A794890ED000AF0EE000A60EE200ACA
:10246000B6EE000A30EE6B1A9DED040A31EE400A1A
:1024700020EE800A7148D0ED000AB0EE001A60EE3E
:10248000811ADDED060A9DED071A70EEC10A01EE14
:10249000A00A6B48D0ED000AB0EE001A60EE810A87
:1024A0003BEE2A1A00EE810A8DED110A624890ED8A
:1024B000000AF0EE000A20EE201A9DED060ADDED7E
:1024C000070A30EE200A21EE000A5C48D0ED000A2F
:1024D000B0EE001A20EE811AF6EE000A70EEEF1A46
:1024E000DDED040A71EEE00A01EE200A5448D0ED59
:1024F000000AB0EE001A20EE811ADDED050A70EE3A
:10250000CF0A01EE200A8DED100A4B4890ED000A2B
:10251000F0EE000A20EE200A7BEE6A0A60EE200A46
:10252000464890ED000AB0EE001A20EE011A9DED2B
:10253000050A70EE0F1AB0EE600A01EE210A40485B
:10254000D0ED000AB0EE001A60EE810AB6EE001A75
:1025500031EE6F1A31EE6B1AB0EE409A00EE819AAE
:102560009DED110A60EE000A9DED100A40EE000A92
:1025700010EE901A084605F0F9F9CDE900019DED3D
:10258000000B02F009FB8DED020B9DED020B51ECEF
:10259000100B04F071FC09EE900AB0EE49AA3BEE74
:1025A0006A0AF0EE000A20EE200A8DED0F0A9DED7A
:1025B000050A3FEE000AF0EE000A20EE200A8DED3B
:1025C0000E0A9DED080A30EE6F0A70EE6B0A9DED63
:1025D000040A30EE800A8DED0D0AB0EE000A69EEB5
:1025E000800AB6EE000A30EE6B1A9DED040A31EE59
:1025F000400A20EE800AB0EE4A9AF0EE000A69EE38
:10260000200A25E08C00002090000020940000208B
:1026100098000020582A0020DB0F49400000344376
:102620009C000020A0000020A4000020A8000020A2
:10263000AC000020B0000020B4000020B800002052
:10264000BC000020C4000020C00000200024F44989
:102650003BEE6A1A00EE810A8DED0C0AB0EE000A1C
:1026600029EE801A9DED060ADDED070A30EE600ABC
:1026700021EE000AB0EE4A9AF0EE000A29EE201A86
:10268000DDED050A7FEE200A01EE200A8DED0B0A32
:10269000B0EE000A29EE800A7AEE8B0A20EE200ABC
:1026A000B0EE4A9AF0EE000A69EE200AB6EE001A81
:1026B00031EE6F1A31EE6B1A00EE810A8DED0A0AC7
:1026C000AF48D0ED000A9DED0D0A60EE800AAD48DE
:1026D00090ED001A9DED0E0A41EE400AAA4890EDD9
:1026E000001A9DED0A0A21EE001AA848D0ED001A42
:1026F0009DED0B0A01EEC01A30EE81CAA148D0ED63
:10270000000A9DED0F0A60EE800AA14890ED001AC4
:102710009DED0D0A41EE400A9C4890ED001A9DED9A
:102720000C0A21EE001A9B48D0ED001A9DED0A0A12
:1027300001EEC01A70EE81CA9548D0ED000A9DEDF9
:102740000E0A60EE800A8E4890ED001A9DED0F0A89
:1027500041EE400A8F4890ED001A9DED0B0A21EEE4
:10276000001A8948D0ED001A9DED0C0A01EEC01A3E
:1027700030EE81DAB5EEC0CAF1EE10FA57D0F5EEC0
:10278000C0CAF1EE10FA52D0B5EEC0DAF1EE10FA8E
:102790004DD09FED810A6CEE000A804890ED000A52
:1027A00000EEA80A80ED000A9FED7B0A6CEE800A1D
:1027B0007B4890ED000A00EEA80A80ED000A9FED2C
:1027C000760A6DEE000A774890ED000A00EEA80A3E
:1027D00080ED000A744890ED000AF0EE000A00EE69
:1027E0008C0A6E48D0ED000A30EE200A6E4880ED6B
:1027F000000A6E4890ED000AF0EE000A00EEAC0A06
:102800006748D0ED000A30EE200A684880ED000AE3
:10281000674890ED000AF0EE000A00EE8D0A61486C
:10282000D0ED000A30EE200A614880ED000A6148D0
:1028300090ED000AB1EE400A5B48D0ED000A20EEB0
:10284000200A5D48D0ED000A584890ED001A00EECD
:10285000C10A5A4890ED001A5548D0ED001AF0EE22
:10286000400A41EE610A564890ED000A00EEA80ABF
:102870008DED090A90ED000A4B48D0ED000A20EEDC
:10288000200A4D48D0ED000A494890ED001A00EEAC
:10289000810A4A48D0ED000A444890ED001A00EE43
:1028A000C10A4448D0ED000AF0EE60DA40EE28DAC2
:1028B000434890ED000A3D48D0ED000A20EE200A82
:1028C0003C48D0ED000A3A4890ED001A00EEC10AEB
:1028D0003A48D0ED000A344890ED001A00EE810A23
:1028E0003548D0ED000AB0EE60EA00EE28EA344840
:1028F00090ED000A2E48D0ED000A20EE200A2D4867
:10290000D0ED000A294890ED001A00EE810A2A480D
:10291000D0ED000A244890ED001A00EEC10A2748C5
:10292000D0ED000AF0EE60EA40EE28EADDED090A9B
:1029300060EEA00A4DEEAD0A4EEE0E0A4EEEAE0A65
:10294000B0EE600A02F008FEB0EE408A9DED090A82
:1029500020EE080A1A4880ED000A2DEE880A154874
:1029600080ED000A2EEE080A134880ED000A2EEED4
:10297000880A124880ED000A13B0BDEC108B00BD30
:10298000AC000020B0000020B8000020BC000020F7
:10299000A8000020B40000200AD7233C80000020BB
:1029A00084000020880000209C000020A00000205F
:1029B000A400002090000020940000209800002037
:1029C0008C00002010B504460C4800F021F8FFF7F9
:1029D00017FC0B4890ED000A84ED000A094890EDC1
:1029E000000A84ED010A084890ED000A84ED020A0D
:1029F000064890ED000A84ED030A10BD582A002015
:102A00008C000020900000209400002098000020FE
:102A100030B585B004460DF1120004A9031F03AAC6
:102A2000CDE90010891F02A800F004FCBDF80800E1
:102A300028490880BDF80A004880BDF80C0088804D
:102A4000BDF80E000881BDF810004881BDF81200E5
:102A5000888100251DE0032D0BDA02A830F915004E
:102A600000EE100AB8EEC00A04EB850080ED000A03
:102A70000EE002A830F9150000EE100AB8EEC00A08
:102A8000DFED150A80EE201A04EB850080ED001AB8
:102A90006D1C062DDFDB04F11800FEF71FFF94ED1F
:102AA000060ABDEEC00A10EE100A00B20949C8813C
:102AB00094ED070ABDEEC00A10EE100A00B20882BB
:102AC00094ED080ABDEEC00A10EE100A00B248826A
:102AD00005B030BD982A00203333034210B52DEDE8
:102AE0000C8B04468748FFF76DFF864890ED020A7D
:102AF000F8EE000A20EE200AD0ED020A20EE200AAD
:102B0000D0ED030AB0EE001A60EE810A90ED031AD0
:102B100000EEC10AF7EE000A30EE200A10EE101A9D
:102B2000084604F023FF41EC1C0B764890ED010AA7
:102B3000F0EE000A20EE200AD0ED020A20EE200A74
:102B4000D0ED000AB0EE001A60EE810A90ED031A93
:102B500000EE810A10EE101A084604F007FF41EC5F
:102B60001D0BB0EE4C1AF0EE6C1AB0EE4D0AF0EE02
:102B70006D0A01F0B5FEB0EE40BAF0EE60BA51EC6D
:102B80001B0B04F06DF941EC1A0B9FED5F0B53EC3E
:102B9000102B04F02BFC41EC190B9FED5D0B53EC5B
:102BA000102B04F043FA41EC180B04F065F900EE29
:102BB000100A84ED000A534890ED010AF8EE000A6D
:102BC00020EE200AD0ED030A20EE200AD0ED000A04
:102BD000B0EE001A60EE810A90ED021A00EE810A52
:102BE00010EE101A084604F0C1FE41EC1C0BB0EECA
:102BF0004C0AF0EE6C0A01F057FBB0EE40BAF0EE72
:102C000060BA51EC1B0B04F02BF941EC1A0B9FED51
:102C10003E0B53EC102B04F0E9FB41EC190B9FED3C
:102C20003C0B53EC102B04F001FA41EC180B04F0B0
:102C300023F900EE100A84ED010A324890ED010AF2
:102C4000F8EE000A20EE200AD0ED010A20EE200A5C
:102C5000D0ED020AB0EE001A60EE810A90ED021A81
:102C600000EEC10AF7EE000A30EE200A10EE101A4C
:102C7000084604F07BFE41EC1B0B224890ED020A53
:102C8000F0EE000A20EE200AD0ED030A20EE200A22
:102C9000D0ED000AB0EE001A60EE810A90ED011A44
:102CA00000EE810A10EE101A084604F05FFE41ECB7
:102CB0001C0BB0EE4B1AF0EE6B1AB0EE4C0AF0EEB5
:102CC0006C0A01F00DFEB0EE40AAF0EE60AA9FED96
:102CD0000E0B53EC102B51EC1A0B04F087FB41EC5C
:102CE000190B9FED0B0B53EC102B04F09FF941ECEB
:102CF000180B04F0C1F800EE100A84ED020ABDECD6
:102D00000C8B10BD7C2A0020000000000080664073
:102D100000000060FB2109401548C089401C14498F
:102D2000C88108468088401C00B288800846C08858
:102D3000401C00B2C88008460089401C00B20881CF
:102D400008464089401C00B2488108468089401CE2
:102D500000B2888108460078012804D108464078EE
:102D6000401C487002E001200149087070470000D3
:102D7000B01100202DE9F04304460D46DDE9076758
:102D800000200021012041E0DFF8D8C13CF810808C
:102D9000A0F1010CDFF8CC9129F81C8009F1160C88
:102DA0003CF81090A0F1010CDFF8B88108F116088A
:102DB00028F81C9008F1160C3CF81090A0F1010CBA
:102DC00008F1160828F81C9008F1160C3CF8109031
:102DD000A0F1010C08F1160828F81C9008F1160C57
:102DE0003CF81090A0F1010C08F1160828F81C908E
:102DF00008F1160C3CF81090A0F1010C08F116082F
:102E000028F81C9000F1010C0CF0FF000A28BBDB35
:102E1000DFF850C1ACF81240ACF82850ACF83E20B6
:102E2000ACF85430ACF86A60ACF88070002008E070
:102E3000DFF830C13CF910C0614400F1010C0CF026
:102E4000FF000A28F4DB4FF00A0C91FBFCFC0FFAA0
:102E50008CFCDFF81081A8F814C0002100200AE0E3
:102E6000DFF800C10CF1160C3CF910C0614400F110
:102E7000010C0CF0FF000A28F2DB4FF00A0C91FB6A
:102E8000FCFC0FFA8CF8DFF8DCC0ACF82A800021DB
:102E900000200AE0DFF8CCC00CF12C0C3CF910C08B
:102EA000614400F1010C0CF0FF000A28F2DB4FF046
:102EB0000A0C91FBFCFC0FFA8CF8DFF8A8C0ACF808
:102EC0004080002100200AE0DFF898C00CF1420C9D
:102ED0003CF910C0614400F1010C0CF0FF000A281D
:102EE000F2DB4FF00A0C91FBFCFC0FFA8CF8DFF8D8
:102EF00074C0ACF85680002100200AE0DFF864C0FE
:102F00000CF1580C3CF910C0614400F1010C0CF0BC
:102F1000FF000A28F2DB4FF00A0C91FBFCFC0FFAD1
:102F20008CF8DFF840C0ACF86C80002100200AE08B
:102F3000DFF830C00CF16E0C3CF910C0614400F1B8
:102F4000010C0CF0FF000A28F2DB4FF00A0C91FB99
:102F5000FCFC0FFA8CF8DFF80CC0ACF88280BDE8FE
:102F6000F0830000F42A002010B501221921D0209E
:102F7000FFF706F9FF2804D10CA0FDF7A7F9FF2001
:102F800010BD14A0FDF7A2F90A2002F089FA01226F
:102F90003821D020FFF7F4F8FF2804D115A0FDF761
:102FA00095F9FF20ECE70020EAE7000043616E6E30
:102FB0006F7420656E61626C6520696E74657272F3
:102FC000757074207375636365737366756C6C7963
:102FD0002E0D0A004D505536303530207365742063
:102FE00073616D706C65207261746520646F6E65CD
:102FF0002E0A00006572726F722031490D0A0000BE
:1030000008B500200090FEF745FF01236A467521B0
:10301000D020FEF785FF40B99DF80000682809D050
:1030200036A0FDF753F9FF2008BD37A0FDF74EF994
:10303000FF20F9E701226B21D020FFF7A1F8FF283C
:1030400004D134A0FDF742F9FF20EDE703221A2155
:10305000D020FFF795F8FF2804D131A0FDF736F90D
:10306000FF20E1E710221B21D020FFF789F8FF287D
:1030700004D12EA0FDF72AF9FF20D5E700221C215C
:10308000D020FFF77DF8FF2804D12BA0FDF71EF913
:10309000FF20C9E702223721D020FFF771F8FF286F
:1030A00004D128A0FDF712F9FF20BDE70022382146
:1030B000D020FFF765F8FF2804D125A0FDF706F919
:1030C000FF20B1E700226A21D020FFF759F8FF283E
:1030D00004D11FA0FDF7FAF8FF20A5E7FEF778FB63
:1030E000FF2804D11DA0FDF7F1F8FF209CE74FF465
:1030F000FA7002F0D5F9002096E700006572726F51
:10310000722031410D0A00006572726F72203142E7
:103110000D0A00006572726F722031430D0A0000C3
:103120006572726F722031450D0A00006572726F10
:10313000722031460D0A00006572726F72203147AD
:103140000D0A00006572726F722031480D0A00008E
:103150006572726F722031490D0A00006572726FDC
:103160007220314B0D0A000010B502E0C82002F0B9
:1031700097F9FFF745FFFF28F8D010BD00B585B0DF
:103180000121880300F018FA0121084600F0F4F943
:103190001020039000208DF810008DF812000120FF
:1031A0008DF8130002208DF8110003A91248FEF7D4
:1031B000BFF90421002000F085FA102000900020C3
:1031C0008DF804000C208DF8050001208DF8060014
:1031D0006846FEF763F90A208DF8080002208DF892
:1031E000090000208DF80A0001208DF80B0002A8CC
:1031F00000F07AF905B000BD000002402DE9F04171
:1032000004460D4616461F463B4632462946204692
:10321000FEF786FEFF2805D103A0FDF757F8FF2033
:10322000BDE8F0810020FBE76572726F7220314AC1
:103230000D0A00002DE9FC4704460D4616461F46C0
:10324000DDE90A8948480078002872D00020464904
:1032500008700E23454A3B21D020FFF7CFFF43489B
:103260000E30FEF7FBFA414840784049097840EAC1
:10327000012000B23E4908803C48C0783B4989782B
:1032800040EA012000B23B4908803848407937497C
:10329000097940EA012000B2374908803348407A72
:1032A0003249097A40EA012000B2344908802F48A7
:1032B000C07A2E49897A40EA012000B2304908805C
:1032C0002A48407B2949097B40EA012000B22D4968
:1032D00008800846B0F900002949B1F90010CDE98D
:1032E00000102648B0F900302348B0F900202148EA
:1032F000B0F900101E48B0F90000FFF73BFD22486E
:10330000808A20802048408D28801F48B0F84000E7
:1033100030801D48B0F8560038801B48B0F86C006B
:10332000A8F800001848B0F88200A9F8000018E0DA
:10333000FFE71548808A20801348408D2880124876
:10334000B0F8400030801048B0F8560038800E4881
:10335000B0F86C00A8F800000B48B0F88200A9F89B
:103360000000BDE8FC87000008010020E02A0020E2
:10337000FC000020FE0000200001002002010020CF
:103380000401002006010020F42A002000BFFEE70F
:1033900070B505460C46002C63D032480088844244
:1033A00015D03C2C09DA3C2090FBF4F0401E2E494D
:1033B000088001202D49088007E000202A49088064
:1033C0003C2094FBF0F029490880264804802848D6
:1033D000008825490988884205DA25480088401C6C
:1033E000234908803DE000202149088000F048F88A
:1033F00020480088204909880844204949571B4A29
:10340000128801FB02001C49098890FBF1F201FBC4
:10341000120018490880084640881749098808445E
:1034200016494957114A128801FB020012490988BE
:1034300090FBF1F201FB12000E494880084680889B
:103440000D49098801440D484057084A128800FB7D
:1034500002100949098890FBF1F201FB12000549AD
:10346000888070BD76000020780000207C0000205D
:103470007A0000206400002060000020667A0008C6
:1034800010B50C4800880C4A32F810100B4800F0B8
:1034900058FD08484088084A32F81010074800F0E4
:1034A00052FD04488088044A32F81010034800F0A6
:1034B0004CFD10BD64000020581A0020000400409C
:1034C00010B53221A72000F011FB10BD10B5FFF799
:1034D000D7FF10BD10B500F08BF9FFF7F1FFFFF734
:1034E000F5FF10BD7047000070B5002100230F22CA
:1034F000C4781CB3174C246804F4E064C4F5E06499
:10350000C4F30721C1F10404E3B20A4144789C40AA
:10351000E1B28478144021430C07210E0E4C05784B
:103520006155047804F01F050124AC4005786D1145
:10353000AD0005F1E025C5F8004109E0047804F08C
:103540001F050124AC40054D0678761145F826404C
:1035500070BD00000CED00E000E400E080E100E060
:1035600002490143024A1160704700000000FA0559
:103570000CED00E07047000029B1064A12680243D2
:10358000044B1A6004E0034A12688243014B1A603C
:10359000704700003038024029B1064A12680243E1
:1035A000044B1A6004E0034A12688243014B1A601C
:1035B000704700004038024029B1064A12680243B1
:1035C000044B1A6004E0034A12688243014B1A60FC
:1035D0007047000044380240F0B50021002200246A
:1035E000022500260223324F3F6807F00C0121B16B
:1035F000042905D0082937D105E02E4F076036E0B1
:103600002D4F076033E02A4F3F1F3F68C7F38056B6
:10361000274F3F1F3F6807F03F036EB1264FB7FBB0
:10362000F3F7DFF88CC0ACF1040CDCF800C0CCF38D
:10363000881C07FB0CF40CE01E4FB7FBF3F7DFF818
:1036400070C0ACF1040CDCF800C0CCF3881C07FBA4
:103650000CF4174F3F1F3F68C7F301477F1C7D00E5
:10366000B4FBF5F7076002E0124F076000BF00BF30
:103670000F4F3F6807F0F0010909104F7A5C0768A7
:10368000D74047600A4F3F6807F4E051890A0B4F63
:103690007A5C4768D7408760054F3F6807F4604110
:1036A000490B064F7A5C4768D740C760F0BD000001
:1036B000083802400024F40000127A009E01002025
:1036C0007047000030B500228B071C0F0F2303FA50
:1036D00004F20B4B8C1053F824309343084C8D109C
:1036E00044F8253023468C1053F824308C07240FDF
:1036F00000FA04F42343024C8D1044F8253030BD09
:10370000083801400CB50020019000903448006852
:1037100040F480303249086000BF3148006800F44E
:10372000003000900198401C0190009818B9019851
:10373000B0F5A04FF1D12A48006800F4003010B174
:103740000120009001E0002000900098012846D15F
:1037500023484030006840F08050214940310860E3
:103760002048006840F440401E4908601C4808306A
:1037700000681B49083108600846006840F40040B2
:1037800008600846006840F4A05008601648091F09
:103790000860081F006840F08070091F086000BFC3
:1037A0000F48006800F000700028F9D040F2057062
:1037B0000E4908600A480830006820F003000849F4
:1037C000083108600846006840F00200086000BF49
:1037D00003480830006800F00C000828F8D10CBD40
:1037E000003802400070004008544007003C02408E
:1037F00010B52DED108B84B000244FF49660514924
:10380000088008460088032190FBF1F04E490880AB
:1038100000204E490880084600884B490988084422
:103820004A4948800846408847490988084447492A
:103830008880002046490880084600884249098857
:10384000084443494880084640883F49098808445D
:103850003F49888000203F490880084600883A494F
:10386000098808443B494880084640883649098809
:1038700008443849888000BF5BE03248008803F084
:10388000A1FD41EC1E0B601C03F085FD41EC1F0BFC
:103890009FED310B53EC102B03F0A8FD53EC1E2BC6
:1038A000CDE900019DED000B51EC100B03F0BEFBC8
:1038B00041EC1D0B9FED2A0B53EC102B03F096FDF2
:1038C00041EC1C0B9FED280B53EC102B03F08EFDED
:1038D00041EC1B0BB0EE4B0AF0EE6B0A01F0F8F86E
:1038E000B0EE40AAF0EE60AA9FED1B0B53EC102B3C
:1038F00051EC1A0B03F0F2FA41EC190B9FED1C0B83
:1039000053EC102B03F072FD41EC180B9FED140BE0
:1039100053EC102B03F08AFBCDE902019DED020B65
:1039200051EC100B03F00AFD134921F81400601C40
:1039300084B20448008884429FDB04B0BDEC108B45
:1039400010BD000060000020620000206400002024
:103950006A00002070000020000000000000F03F1E
:103960000000000000000040182D4454FB210940D5
:103970000000000000004940581A0020042808D127
:103980004FF0E021096941F004014FF0E02211619C
:1039900007E04FF0E021096921F004014FF0E02237
:1039A000116170477FB56846FFF716FE4FF47A71D4
:1039B0000198B0FBF1F4E4082146481EB0F1807F85
:1039C00000D31BE0481E4FF0E022506150170F2239
:1039D000002807DA13071E0E0B4B00F00F052D1FF2
:1039E0005E5503E013071D0E084B1D5400BF002059
:1039F0004FF0E02290610720106100BF6FF00400DB
:103A0000FFF7BCFF7FBD000018ED00E000E400E020
:103A100010B504480068401C0249086003F0B4F87F
:103A200010BD00004800002010B51548006840F4A3
:103A30007000134908601348006840F00100114904
:103A4000086000200F49083108600E4800680E49E0
:103A500008400C4908600D48091D0860081F0068EF
:103A600020F48020091F0860002006490C310860FE
:103A7000FFF748FE4FF0006001498039086010BD33
:103A800088ED00E000380240FFFFF6FE1030002411
:103A90000EB501210846FFF77FFD4FF0FF30019082
:103AA0005320ADF800000020ADF80800ADF802008A
:103AB0000121880700F0CAF869464FF0804000F005
:103AC00047FA0121880700F0D3F80EBD10B5012197
:103AD000880700F0D9F838B10121880700F0C5F84F
:103AE0000121880700F0BEF810BD000030B58BB092
:103AF00005460C4601210220FFF74EFD012104205E
:103B0000FFF73AFD022206213448FDF759FD022253
:103B100007213248FDF754FD022208212F48FDF706
:103B20004FFD022209212D48FDF74AFD4FF4707028
:103B3000099002208DF8280001208DF82B00032029
:103B40008DF8290009A92548FDF7F2FCA8B2ADF8C7
:103B500018000020ADF81A000794ADF820008DF889
:103B6000220006A91E4800F0F3F96020ADF8040019
:103B70000120ADF806000020ADF80800ADF81000F7
:103B80000820ADF812000020ADF8140003900821C1
:103B9000134800F0C9F801A9114800F087F808217E
:103BA0000F4800F01DF901A90D4800F0C7F80821E1
:103BB0000B4800F073F901A9094800F01FF908212A
:103BC000074800F0B1F901A9054800F071F9012199
:103BD000034800F04DF80BB030BD00000008024073
:103BE0000004004010B51648008820F00100144978
:103BF000088000BF72B613480068401C1149086075
:103C000000BF0F481430006884B22146002003F042
:103C10005BF80D4800680A49243108600A4840688A
:103C2000091D086008488068091D086000BF054834
:103C30000068401E0349086000B962B600BF10BDAD
:103C4000100401405C0000201012002021B1028805
:103C500042F08002028004E002884FF67F731A402F
:103C600002807047CA4302827047CA43028270478B
:103C700021B1028842F00102028004E002884FF67E
:103C8000FE731A400280704730B5024600200023C0
:103C90000024158A05EA0103958905EA010413B198
:103CA0000CB1012000E0002030BD000070B5002400
:103CB00000220023058C4FF6FE7635400584028CE9
:103CC0008388048B4FF68F752C40B51E2C400D88D1
:103CD0002C43751E2A408D892A434D882A43104D56
:103CE000A84202D00F4DA84213D14FF6F7752A40D3
:103CF000CD892A434FF6FB752A408D882A434FF61B
:103D0000FF652B404FF6FF552B400D8A2B434D8A04
:103D10002B43838004838D684563028470BD00005B
:103D200000000140000401400A460021018B4FF6CB
:103D3000F7731940114301837047000070B50024E8
:103D400000220023058C4FF6EF7635400584028C67
:103D50008388048B48F6FF752C404FF6FF452C40B6
:103D60000D884FF6FF7606EA05252C434FF6DF75E2
:103D70002A408D8906EA05152A434D8806EA05156D
:103D80002A43154DA84202D0144DA8421DD14FF62A
:103D90007F752A40CD894FF6FF7606EA05152A433E
:103DA0004FF6BF752A408D8806EA05152A434FF65F
:103DB000FF352B404FF2FF752B400D8A06EA850533
:103DC0002B434D8A06EA85052B43838004838D6847
:103DD0008563028470BD00000000014000040140C2
:103DE0000A460021018B4FF2FF7319404FF6FF7313
:103DF00003EA0223194301837047000070B50024D1
:103E000000220023058C4FF6FF6635400584028CA6
:103E10008388848B4FF68F752C404FF6FC752C40B1
:103E20000D882C434FF6FF552A408D894FF6FF76BB
:103E300006EA05252A434D8806EA05252A43154D3D
:103E4000A84202D0144DA8421DD14FF2FF752A405E
:103E5000CD894FF6FF7606EA05252A434FF6FF3552
:103E60002A408D8806EA05252A434EF6FF752B4029
:103E70004DF6FF752B400D8A06EA05152B434D8A3A
:103E800006EA05152B43838084838D68C56302840D
:103E900070BD000000000140000401400A460021FE
:103EA000818B4FF6F77319401143818370470000EF
:103EB00070B5002200230024058C4EF6FF763540B5
:103EC0000584038C8488828B48F6FF752A404FF660
:103ED000FF452A400D884FF6FF7606EA05252A435E
:103EE0004DF6FF752B408D8906EA05352B434D882D
:103EF00006EA05352B430A4DA84202D0094DA842D7
:103F000008D14BF6FF752C400D8A4FF6FF7606EA76
:103F100085152C43848082838D680564038470BD7D
:103F200000000140000401400A460021818B4FF24D
:103F3000FF7319404FF6FF7303EA0223194381838D
:103F400070474163704781637047C16370470000E9
:103F500000220288184B98420ED0184B98420BD082
:103F6000B0F1804F08D0164B984205D0154B9842BF
:103F700002D0154B984204D14FF68F731A404B88EC
:103F80001A43124B984207D0114B984204D04FF677
:103F9000FF431A400B891A4302804B68C3620B88A7
:103FA0000385054B984202D0044B984201D18B7A8D
:103FB0000386012383827047000001400004014012
:103FC0000004004000080040000C004000100040C9
:103FD0000014004010B540F225511D4800F085F84E
:103FE00010B31B4800F03AF9C4B21A48008800F434
:103FF0000040C8B91748008800F4804060B10A2C1E
:1040000003D000201349088020E01248008840F4C3
:1040100000401049088019E00D2C06D10D48008899
:1040200040F480400B49088010E00A480088C0F343
:104030000D0009490C5407480088401C05490880B8
:1040400008460088C72801DD0020088010BD000058
:10405000001001409C010020382D002010B51148AF
:104060000088114908700F48001F0088087000215F
:104070000E48FDF703F901200D4908700D490B4862
:10408000FDF7E2F800BF0948FDF703F90028FAD16F
:104090004FF400710548FDF706F901210348FDF7CB
:1040A000EDF810BD044800400E01002028600240D9
:1040B0000A010020000C001021B1828942F4005254
:1040C000828104E082894DF6FF731A408281704735
:1040D00002460020B1F5007F00D100BF13880B40DD
:1040E0000BB1012000E00020704770B502460024AB
:1040F00000230025002040F66A16B14200D100BF1F
:10410000C1F3421501F01F03012606FA03F3012D46
:1041100002D19689334006E0022D02D1168A33403F
:1041200001E0968A33400C12012606FA04F4168840
:10413000344013B10CB1012000E0002070BDF0B597
:104140000346002400260025002040F66A17B942E5
:1041500000D100BF1846C1F3421401F01F06012729
:1041600007FA06F5012C01D10C3004E0022C01D134
:10417000103000E014301AB107682F43076002E0E6
:104180000768AF430760F0BD2DE9FF4705460E46BF
:104190000024A14600BFA046B08900B100BF2C8A10
:1041A00024F44054F08804432C82AC8941F20C6022
:1041B0008443B08831890843718908430443AC8142
:1041C000AC8A24F44074B0890443AC826846FFF79B
:1041D00003FA2048854202D01F48854202D1DDF80B
:1041E0000C9001E0DDF80890A88900F4004040B18F
:1041F00009EBC90000EB091031684900B0FBF1F789
:1042000007E009EBC90000EB091031688900B0FB39
:10421000F1F76420B7FBF0F004012009642101FBF1
:104220001078A88900F4004040B1322000EBC800AB
:10423000B0FBF1F000F00700044308E0322000EB8F
:1042400008106421B0FBF1F000F00F0004432C8152
:10425000BDE8FF8700100140001401400146888836
:10426000C0F308007047C1F308028280704700BFA6
:10427000FEE703B401984100009850EAC12018BF3E
:1042800004204A0D18BF40F0010040F2FF72B2EB6B
:10429000515F08BF40F00200012808BF052002B0AE
:1042A000704700000000000070B5C1482DED020B02
:1042B0002DED0E8B82B0119D25F000449FEDBEDBED
:1042C0009FEDBFEB84423EDBA4F140511098A1F179
:1042D0007F6108430FD0BC48844202DC28D110988B
:1042E00030B39DED100B02B0BDEC0E8B02B0BDE8FB
:1042F000704001F079B89DED100B53EC1D2B51EC83
:10430000100B03F073F89DED100B41EC180B53EC00
:104310001E2B51EC100B03F069F853EC182B02F034
:10432000DDFD41EC100B02B0BDEC0E8B02B070BD98
:104330000120FCF719F802B0BDEC0E8B02B0BDE80D
:10434000704001F065B8A1489FEDA18B844256DA18
:104350009DED100BB4F1795F0ADA51EC100BFFF709
:1043600088FF042808BF01F063F89DED100BDAE721
:1043700053EC102B51EC100B03F038F841EC190BF7
:1043800095480621B0EE490AF0EE690A784400F03B
:1043900017FF53EC192B51EC100B03F027F841ECED
:1043A0001A0B8E48B0EE490AF0EE690A04217844EF
:1043B00000F006FF53EC192B51EC100B03F016F82C
:1043C00053EC182B02F08AFD41EC100B51EC1A0B48
:1043D00053EC102B02F02AFECDE900019DED000BFD
:1043E00053EC102B9DED100B51EC100B02F0FEFF67
:1043F0009DED101B53EC112B02F070FDD2E09DEDF2
:10440000100B51EC100B01F08DF853EC182B03F04E
:10441000EBF89FED730BCDE9000153EC102B9DEDF4
:10442000000B51EC100B02F0E1FF41EC190B6E4850
:104430000621B0EE490AF0EE690A784400F0C0FEA9
:1044400053EC192B51EC100B02F0D0FF41EC1B0B7D
:104450006648B0EE490AF0EE690A0421784400F09B
:10446000AFFE53EC192B51EC100B02F0BFFF53ECD5
:10447000182B02F033FD41EC1C0B51EC190B02F030
:104480004BFB41EC180B5A489FED5BABA04222DC82
:1044900053EC1C2B51EC1B0B02F0C8FDCDE90001C5
:1044A0009DED000B51EC180B53EC102B02F09EFF0E
:1044B00053EC182B02F012FD53EC1A2B02F096FF6E
:1044C00053EC1D2B03F068F953EC1E2B03F08CF812
:1044D00041EC100B5FE08DED008B002000909DED16
:1044E000000B51EC180B53EC102B02F0F7FC9DED78
:1044F000000B41EC1E0B53EC102B51EC100B02F097
:1045000075FF53EC192B03F06FF853EC1E2B02F0E0
:104510008DFD41EC190B53EC1C2B51EC1B0B02F0E5
:1045200085FD41EC1B0B53EC1A2B51EC190B02F0DF
:104530005DFF53EC1D2B03F057F841EC190B53ECC6
:104540001A2B51EC180B02F051FF53EC1B2B02F00D
:104550004DFF53EC192B03F01FF99DED000B41ECBF
:10456000180B53EC1A2B51EC100B02F03FFF9FED90
:10457000249B53EC192B03F037F841EC100B51EC52
:10458000180B53EC102B03F007F953EC192B03F025
:104590002BF841EC100B002D3FF7C5AE51EC100B82
:1045A00002F05EFC41EC100BBDE6000000000000D4
:1045B0000000F03F00000000075C143326A6913C89
:1045C000182D4454FB21F93F0000F07F0000E03F2C
:1045D000000000000000F03FD8360000E636000082
:1045E000000000000000E03F2A36000038360000DE
:1045F0003333EF3F000000000000000000000040E7
:10460000182D4454FB21E93F70B59B482DED020B5A
:104610002DED068B079D25F00044A04218DC97483D
:10462000844202DC0AD1069840B19DED060BBDEC38
:10463000068B02B0BDE8704000F0D6BE002DCCBFA6
:104640009FED8F0B9FED900BBDEC068B02B070BD04
:104650008F48A04215DD8F48A042D8BF4FF0FF34ED
:1046600058DD9DED060B51EC100BFFF702FE042800
:1046700008BF00F0DDFE9DED060BBDEC068B02B021
:1046800070BD9DED060B51EC100B00F04BFFCDE91A
:10469000060181489FED828BA0423CDD8248A0420A
:1046A0001FDD00249FED82AB9DED060B53EC1A2B12
:1046B00051EC100B02F012FC9DED060B41EC190BB6
:1046C00053EC1A2B51EC100B02F090FE53EC182B0C
:1046D00003F062F853EC192B02F0A8FCCDE90601B7
:1046E00049E09DED060B012453EC182B51EC100B07
:1046F00002F0F4FB9DED060B41EC190B53EC182B6B
:1047000051EC100B03F048F853EC192B02F08EFC1F
:10471000CDE906012FE06848A0421FDD02249FED8D
:10472000689B9DED060B53EC192B51EC100B02F01E
:104730005DFE53EC182B02F0D1FB9DED060B41EC16
:10474000180B53EC192B51EC100B03F025F853EC1C
:10475000182B02F06BFCCDE906010CE09DED060B79
:10476000032453EC102B9FED580B51EC100B02F06F
:104770005DFCCDE906019DED060B53EC102B51ECD1
:10478000100B02F033FE41EC180B53EC182B02F027
:104790002DFE41EC190B4E480621B0EE490AF0EE11
:1047A000690A784400F00CFD53EC182B51EC100B07
:1047B00002F01CFE41EC180B4648B0EE490AF0EE40
:1047C000690A0521784400F0FBFC53EC192B51ECED
:1047D000100B02F00BFE41EC100B51EC180B53ECDC
:1047E000102B002C0EDA02F079FB9DED061B53EC2A
:1047F000112B02F0FBFD9DED061B53EC112B02F07B
:10480000F3FE35E002F06AFB9DED061B53EC112B25
:1048100002F0ECFD41EC100B2F48784400EBC40093
:1048200090ED001B51EC100B53EC112B02F0B4FF78
:104830009DED061B53EC112B02F0AEFF41EC100B6B
:104840002648784400EBC40090ED001B51EC100B9F
:1048500053EC112B02F0C8FE41EC100B002DA2BF4F
:10486000BDEC068B02B070BD51EC100B02F0F8FAF3
:1048700041EC100B01E70000000010440000F07F45
:10488000182D4454FB21F93F182D4454FB21F9BF46
:104890000000DC3F0000203E0000F33F000000006D
:1048A000000000000000F03F0000E63F00000000B4
:1048B00000000000000000400080034000000000F5
:1048C000000000000000F83F000000000000F0BF02
:1048D0007A33000030330000BA3200007232000038
:1048E00070B56B4E2DED040B2DED028B82B0DDF813
:1048F0001CC0DDE905235C422CF000411C4341EA69
:10490000D474049D22F00040B44205D86C422C437C
:1049100040EAD474B4420BD99DED061B9DED040B07
:1049200002B0BDEC028B04B0BDE8704000F066BD83
:10493000ACF14054A4F17F641C430BD0022404EA80
:10494000AC7444EAD27405439FED538B9FED542B16
:1049500007D015E09DED040B51EC100B00F07AFD33
:1049600042E0002C11BF012C9DED040B02B0BDEC08
:10497000028B04BF04B070BD022C38D0032C3BD096
:104980000B439FED491B9FED4A0B0AD0B14218D152
:10499000B04209D121F0804120F08040079105907C
:1049A0000FE0002A15DA10E0434B7B44002C08BFCF
:1049B00093ED000B0DD0012C10D0022C17D0032C3E
:1049C0001AD0B0421DD1002A03DAB0EE410AF0EE4F
:1049D000610A02B0BDEC028B04B070BD93ED000B18
:1049E00051EC100B02F03CFA41EC100BF1E7B0EE89
:1049F000480AF0EE680AECE7B0EE420AF0EE620A0E
:104A0000E7E7401A00153C28C8BF8DED000B19DC04
:104A1000BCF1000FBEBF10F13C0F9FED290B8DEDD7
:104A2000000B0FDB9DED060B53EC102B9DED040BE3
:104A300051EC100B02F0FAFA00F074FD00F00AFDE0
:104A4000CDE90001002C08BF9DED000BC1D0012C69
:104A500010D0022C9FED1C0B53EC102B9DED000B86
:104A600051EC100B0DD002F097FE53EC182B02F016
:104A700093FEB9E7019880F0004001909DED000B96
:104A8000A7E702F089FE53EC182B02F0ADFDABE76F
:104A90000000F07F00000000182D4454FB21094065
:104AA000182D4454FB2109C0182D4454FB21F9BF93
:104AB000182D4454FB21F93FD231000000000000C2
:104AC0000000000000000000075C143326A6A13C93
:104AD00010B52F499FED2C1B2DED020B84B00598CE
:104AE00020F000408842DCBF00209DED040B32DD49
:104AF0002849884209D1049840B94FF00100FBF7DA
:104B000033FC00F085FC06B010BD05DB9DED040B09
:104B100000F06AFC06B010BD68469DED040B00F085
:104B20007BF810F0030011D0012818D09DED021B76
:104B30009DED000B02281AD000F08AFA51EC100B00
:104B400002F08EF906B041EC100B10BD9DED021B7A
:104B50009DED000B012000F0AFFB06B010BD9DEDF8
:104B6000021B9DED000B00F073FA06B010BD012092
:104B700000F0A2FB51EC100B02F072F906B041EC10
:104B8000100B10BD0000000000000000000000003D
:104B9000FB21E93F0000F07F00B52DED048BB0EE66
:104BA000409AF0EE609A83B051EC190B02F028FDA8
:104BB00041EC180B18EE100A18EE901A8DED008BD0
:104BC000002818BF0120084320F00040C0F17F609A
:104BD00000F1E040C00F14D019EE101A19EE900A3F
:104BE0008DED009B002918BF0121084320F00040F3
:104BF000C0F17F6000F1E040C00F04BF0120FBF76F
:104C0000B3FBB0EE480A03B0F0EE680ABDEC048BCB
:104C100000BD0000000000002DE9F14F04462DED1D
:104C2000020B2DED088B8AB09FEDE70B80ED020B98
:104C3000139EE74826F0004585420ADC9DED120BE5
:104C4000002084ED000B0AB0BDEC088B03B0BDE87A
:104C5000F08FE0489FEDE0AB9FEDE1BBA84247DD60
:104C6000E14F9FEDE39B9FEDE48B9DED120B53EC29
:104C70001A2B51EC100B002E1CDD02F08DFD41ECC7
:104C8000100BBD4208D053EC1B2B51EC100B02F063
:104C900083FDC4E900010BE053EC192B51EC100B20
:104CA00002F07AFD53EC182B02F076FDC4E9000106
:104CB0000120C8E702F012F941EC100BBD4208D008
:104CC00053EC1B2B51EC100B02F008F9C4E9000166
:104CD0000BE053EC192B51EC100B02F0FFF853ECE6
:104CE000182B02F0FBF8C4E900014FF0FF30AAE7EF
:104CF000C348A84279DB9DED120B51EC100B00F07C
:104D000011FC41EC180B9FEDC00B53EC102B02F083
:104D10006DFB9FEDBF1B53EC112B02F0DFF802F08F
:104D2000DDFA074602F037FB41EC190B53EC1A2B66
:104D300002F05CFB53EC182B02F056FC41EC180B14
:104D400053EC1B2B51EC190B02F050FBDFF8C8A2FF
:104D500041EC100B4FEA15580125FA4453EC102B87
:104D600051EC180B02F018FD032DC4E900013DD0F1
:104D7000C1F30A5005EB4511A8EB0000113981423F
:104D800034DA0AEB051BB0EE48AA9BED000BF0EEFF
:104D900068AA53EC102B51EC190B02F027FB41ECE5
:104DA0001B0B51EC1A0B53EC1B2B02F0F5FC41ECE6
:104DB000180B51EC1A0B53EC182B02F0EDFC53ECD2
:104DC0001B2B02F0E9FC9BED020B41EC1A0B53ECA0
:104DD000102B51EC190B02F009FB53EC1A2B02F0CB
:104DE000DBFC41EC100B6D1CB8E70EE0002EA8BFF9
:104DF0003846BFF628AF94ED000B51EC100B02F0D3
:104E00002FF8C4E9000178421DE7C6F3130040F40F
:104E1000801EC6F30A50A0F2F530471100F01F05BE
:104E2000C5F12000DDF848B00890002006900790FA
:104E30000520EC467949002D07EB0002794408BFB4
:104E400051F8221009D051F8223001EB8201AB4019
:104E50004A68089922FA01F11943A1FB0E26A1FB29
:104E60000B131A449A4234BF0123002303EB0608B4
:104E70000CEB8003D3E901A60E448E4234BF01211E
:104E8000002192448A4411B1924502D903E092452F
:104E900001D2012100E00021C3E901A641444CF800
:104EA0002010011EA0F10100C4DC029800F10050A6
:104EB000850F0298DDE903678000DDF8148002F0B9
:104EC0006AFA41EC1A0B304602F07CFA9FED541B53
:104ED00053EC112B02F08AFA41EC1B0B384602F01E
:104EE00071FA9FED511B53EC112B02F07FFA41EC4C
:104EF000180B404602F066FA9FED4D1B53EC112B48
:104F000002F074FA41EC190B51EC180B53EC192B0D
:104F100001F0E4FF53EC1B2B01F0E0FF53EC1A2BE4
:104F200001F0DCFFCDE90801002008909DED080BA1
:104F300053EC1A2B51EC100B02F02EFC53EC1B2BF4
:104F400002F02AFC53EC182B02F026FC53EC192B30
:104F500002F04AFB9FED381B53EC112B02F046FA8E
:104F60009FED370B41EC180B53EC102B9DED080B0C
:104F700051EC100B02F03AFA53EC182B01F0AEFF93
:104F80009FED310B41EC180B53EC102B9DED080BF2
:104F900051EC100B02F02AFA53EC182B01F09EFF93
:104FA00041EC100B139810F0004F06D06D4251ECFD
:104FB000100B01F055FF41EC100B284684ED000B5F
:104FC00041E60000000000000000000000000000BA
:104FD000FB21E93F7CD9024000004054FB21F93F0E
:104FE0003163621A61B4D03DFB21F93F000000003B
:104FF0000000601A61B4D03D7370032E8A19A33B80
:10500000FB2139410000000083C8C96D305FE43FD7
:10501000000000000000E03F2A2E0000782D000074
:10502000000000000000103E000000000000103CE6
:10503000000000000000103A182D4454FB21F93DF7
:105040003326A611460B113C00000054FB21F93D0C
:1050500010B52DED040B2DED088B82B0B0EE419A0A
:10506000F0EE619A0B9820F000449FED4BABB4F149
:10507000795F11DA9DED0A0B51EC100B02F02EF95D
:10508000002801BFB0EE4A0AF0EE6A0A02B0BDEC99
:10509000088B04BF04B010BD9DED0A0B53EC102B20
:1050A00051EC100B02F0A2F941EC180B3C48062120
:1050B000B0EE480AF0EE680A784400F081F853EC4C
:1050C000182B51EC100B02F091F99DED0A0B41ECFD
:1050D0001B0B53EC192B51EC100B02F087F941EC30
:1050E000190B53EC1B2B51EC180B02F07FF953EC0E
:1050F000192B02F051FB9FED2C0B41EC190B53ECDB
:10510000102B51EC180B02F071F941EC100B2848F0
:10511000844210DA53EC192B51EC100B02F03CFBDB
:1051200053EC1A2B02F060FA41EC100B02B0BDEC0C
:10513000088B04B010BD1F48A042BCBF9FED1E1BD2
:105140008DED001B06DBA4F50010019000200090FF
:105150009DED001B51EC100B53EC112B02F01CFBCE
:105160009DED000B41EC180B53EC102B51EC1A0B7E
:1051700002F012FB41EC1A0B53EC192B51EC180BFB
:1051800002F00AFB53EC1A2B02F02EFA41EC100B42
:10519000CCE7000000000000000000000000F03F2D
:1051A000942A000000000000000000000000E03F22
:1051B0003333D33F0000E93F000000000000D23F3E
:1051C00070B504462DED028B4D1E00EBC500B0EE10
:1051D000408AF0EE608A90ED000B35F0060017D0A3
:1051E00053EC182B51EC100B02F000F941EC100BB2
:1051F0006D1E04EBC50090ED001B51EC100B53EC41
:10520000112B01F06BFE41EC100B35F00600E7D1DD
:10521000022D36D0042D1CD0062D1CBFBDEC028BF8
:1052200070BD53EC182B51EC100B02F0DFF894ED2D
:105230000A1B53EC112B01F051FE53EC182B02F01A
:10524000D5F894ED081B53EC112B01F047FE41EC0F
:10525000100B53EC182B51EC100B02F0C7F894ED27
:10526000061B53EC112B01F039FE53EC182B02F006
:10527000BDF894ED040B53EC102B01F02FFE41EC24
:10528000100B53EC182B51EC100B02F0AFF894ED0F
:10529000021B53EC112B01F021FE53EC182B02F0F2
:1052A000A5F894ED001B53EC112B01F017FEBDEC9B
:1052B000028B41EC100B70BD31B504462DED040B93
:1052C0002DED0A8BB0EE41BAF0EE61BA0B989DED70
:1052D0000A0B20F00040B0F1795F0DDA51EC100BB1
:1052E000FEF7C7FF042808BF00F0A2F89DED0A0BE7
:1052F000BDEC0A8B05B030BD53EC102B51EC100BFC
:1053000002F074F841EC180B9DED0A0B53EC182BCE
:1053100051EC100B02F06AF841EC190B2C48B0EE7E
:10532000480AF0EE680A05217844FFF749FF9FED2F
:105330002ACBB0EE40AAF0EE60AA9CB353EC1C2B33
:1053400051EC190B02F052F841EC1C0B53EC1A2BE8
:1053500051EC190B02F04AF89FED210B41EC190BAF
:1053600053EC102B51EC1B0B02F040F853EC192BB3
:1053700002F012FA53EC182B02F038F853EC1B2B06
:1053800002F00AFA53EC1C2B02F006FA9DED0A1B00
:1053900053EC112B02F028F9BDEC0A8B05B041EC5F
:1053A000100B30BDFFE753EC1A2B51EC180B02F039
:1053B0001DF853EC1C2B01F091FD53EC192B02F05E
:1053C00015F89DED0A1B53EC112B01F087FDE3E767
:1053D0002429000000000000495555555555C5BF0A
:1053E000000000000000E03F10B553EC102B51EC22
:1053F000100B01F073FD41EC100B10BD10B553EC18
:10540000112B51EC100B01F069FD41EC100B10BD9C
:105410009FED050B10B553EC102B51EC100B01F068
:1054200005FE41EC100B10BD000000000000000064
:105430009FED050B10B553EC102B51EC100B01F048
:10544000D5FF41EC100B10BD000000000000001063
:1054500000BF704710B541EC100BFFF7D5F851ECC9
:10546000100B10BD10B504466FF00400FEF786FA6D
:10547000E11704EB5171C1F3C701074A11701046DF
:10548000007800EB4001C1EBC0104FF6FF7101EA5C
:10549000C0000249088010BD940100209601002040
:1054A00070B504464FF4077094FBF0F0C6B24FF4A9
:1054B000077094FBF0F100FB114085B205E04FF45A
:1054C000077000F009F8701EC6B2002EF7D115B1B2
:1054D000284600F001F870BD0146114A12884A437F
:1054E0004FF0E0235A6100229A611A46126942F095
:1054F00001021A6100BF4FF0E022106900F00102C2
:105500001AB100F48032002AF5D04FF0E02212697F
:1055100022F001024FF0E0231A6100229A617047E5
:105520009601002082B0CDE9000121F000400190F9
:105530009DED000B02B051EC100B704700BF054A07
:10554000128802F04002002AF9D0C2B2014B9A80C0
:105550007047000000100140F0EE400AF6EE001A1D
:1055600060EEA11AB0EE611AB0EE600A10EE100AF9
:105570000749A1EB600000EE100A21EE002AF7EEC9
:10558000081A42EE401A61EE801AB0EE610A7047C6
:10559000DF59375F4FF4A060FDF7E2FF4FF4E130D1
:1055A00001F03CFBA820FFF75DFFFEF771FAFDF765
:1055B000DBFDFDF7E3FDFDF7D7FC01F07DF901F020
:1055C00085F901F079F80848006808490860FEF795
:1055D000E9F9FBF72EFE012005490870FDF77AFF77
:1055E00001E0FBF7EFFEFCE7480000201800002078
:1055F0001C000020324890ED030A324880ED040A76
:105600002F4890ED040AB1EE400A2E4880ED050ABD
:105610002B4890ED050A2B4880ED060A2A4890EDAC
:10562000000A2A4880ED000A294890ED000A264821
:1056300080ED000A90ED000A2448D0ED000A30EE1B
:10564000600ADFED240AB4EEE00AF1EE10FA05DBA1
:1056500021480068401E2049086013E01A4890ED78
:10566000000A1A48D0ED000A30EE600ADFED1B0A8E
:10567000B4EEE00AF1EE10FA04D817480068401CB6
:1056800015490860144800684FF4B471484300EEAF
:10569000100AB8EEC00A0C48D0ED000A30EE200A1D
:1056A0000F4880ED000A0A4890ED010A0D4880ED90
:1056B000000A074890ED020A0A4880ED000A704788
:1056C000F82C0020DC2B0020740100208001002039
:1056D0002C2D00200000A543900100200000A5C350
:1056E000880100208C01002008B5002000900123D3
:1056F0006A460A213C2001F029F940B99DF80000D2
:10570000482809D015A0FAF7E1FDFF2008BD16A032
:10571000FAF7DCFDFF20F9E7702200213C20FCF7BE
:1057200047FB0520FFF7BCFEA02201213C20FCF72F
:105730003FFB0520FFF7B4FE002202213C20FCF7CE
:1057400037FB0620FFF7ACFE182200213C20FCF7B7
:105750002FFB0620FFF7A4FE0020D7E76572726FCB
:10576000722032410D0A00006572726F722032425F
:105770000D0A000010B504460623224603213C20F2
:1057800001F0E4F810BD00002DE9F04104460D469B
:1057900016461648FFF7EEFF144B0E3B5B7C134F8B
:1057A0000E3F3F7C43EA07231AB2104B0E3BDB7BD4
:1057B0000E4F0E3FBF7B43EA07235B4219B20B4BF0
:1057C0000E3BDB7C094F0E3FBF7C43EA072318B238
:1057D00000F040F80648808A20800548408D2880E7
:1057E0000348B0F840003080BDE8F0811E2C002056
:1057F000A82C00203EB504466A4601A902A8FFF77E
:10580000C3FFBDF9080000EE100AB8EEC00A0E484A
:1058100080ED000A84ED000ABDF9040000EE100AD4
:10582000B8EEC00A094880ED000A84ED010ABDF90E
:10583000000000EE100AB8EEC00A054880ED000A2C
:1058400084ED020A3EBD000010010020140100207A
:1058500018010020F0B503460C460020002101206D
:1058600019E0504D35F81060451E4E4F27F8156071
:1058700007F1160535F81070451E4A4E163626F803
:10588000157006F1160535F81070451E163626F807
:105890001570451CE8B20A28E3DB424D6B822C856B
:1058A000EA87002005E03F4D35F910502944451C9A
:1058B000E8B20A28F7DB0A2591FBF5F52DB2394E3F
:1058C000B5820021002006E0364D163535F910501E
:1058D0002944451CE8B20A28F6DB0A2591FBF5F5B8
:1058E0002EB2304D6E850021002006E02D4D2C3566
:1058F00035F910502944451CE8B20A28F6DB0A2580
:1059000091FBF5F52EB2274DA5F84060264DB5F96F
:105910000650244EB6F91460B54203DD214DAD8A20
:10592000214EF580204DB5F908601E4DB5F92A507D
:10593000AE4203DD1B4D6D8D1B4E35811A4DB5F901
:105940000A60184DB5F94050AE4204DD154DB5F86A
:105950004050154E7581144DB5F90050114EB6F9F1
:105960001460B54203DA0F4DAD8A0F4E35800E4DEF
:10597000B5F902600B4DB5F92A50AE4203DA094D74
:105980006D8D094E7580084DB5F90460054DB5F96A
:105990004050AE4204DA034DB5F84050024EB58097
:1059A000F0BD0000A82C0020EA2C002000B52DED51
:1059B000108B93B0FE4890ED000AD0ED000A20EE67
:1059C000200A8DED080A90ED000AFA48D0ED000A91
:1059D00020EE200AB0EE40FAF54890ED000AF648B5
:1059E000D0ED000A20EE200AF0EE40AAF04890ED3B
:1059F000000AF248D0ED000A20EE200A8DED070AD9
:105A0000EC4890ED000AD0ED000A20EE200AF0EEFE
:105A100040FA90ED000AE848D0ED000A20EE200A96
:105A20008DED060AE34890ED000AE448D0ED000A47
:105A300020EE200AB0EE40BADF4890ED000AD0ED2B
:105A4000000A20EE200AF0EE40BA90ED000ADB4892
:105A5000D0ED000A20EE200A8DED050A90ED000A37
:105A6000D0ED000A20EE200A8DED040AD44890ED16
:105A7000030ADFEDD40A20EE200ADFEDD30A80EE20
:105A8000201AD24880ED001ACD4890ED040ADFEDCF
:105A9000CD0A20EE200ADFEDCC0A80EE201ACC4899
:105AA00080ED001AC64890ED050ADFEDC60A20EE2B
:105AB000200ADFEDC50A80EE201AC64880ED001AE4
:105AC000BF4890ED000AC44880ED000ABC4890ED44
:105AD000010AC24880ED000AB94890ED020AC048A8
