:020000040800F2
:1000000030320020550200088D360008191E000805
:1000100031350008F90E0008694B000800000000A7
:10002000000000000000000000000000553B000838
:10003000AB1300080000000001380008193F000859
:100040006F0200086F0200086F0200086F020008CC
:100050006F0200086F0200086F0200086F020008BC
:100060006F0200086F020008B91500086F0200084F
:100070006F0200086F0200086F0200086F0200089C
:100080006F0200086F0200086F0200086F0200088C
:100090006F0200086F0200086F0200086F0200087C
:1000A0006F0200086F0200086F0200086F0200086C
:1000B000D94000086F0200086F0200086F020008B4
:1000C0006F0200086F0200086F0200086F0200084C
:1000D0006F020008ED460008A547000829480008FF
:1000E0006F0200086F0200086F0200086F0200082C
:1000F0006F0200086F0200086F0200086F0200081C
:100100006F0200086F0200086F0200086F0200080B
:100110006F0200086F0200086F0200086F020008FB
:100120006F0200086F0200086F0200086F020008EB
:100130006F0200086F0200086F0200086F020008DB
:100140006F0200086F0200086F0200086F020008CB
:100150006F0200086F0200086F0200086F020008BB
:100160006F0200086F0200086F0200086F020008AB
:100170006F0200086F0200086F0200086F0200089B
:100180006F0200086F02000800F002F800F052F859
:100190000AA090E8000C82448344AAF10107DA45E2
:1001A00001D100F047F8AFF2090EBAE80F0013F0E2
:1001B000010F18BFFB1A43F001031847547F0000DA
:1001C000747F00000A4410F8014B14F00F0508BFBB
:1001D00010F8015B240908BF10F8014B6D1E05D013
:1001E00010F8013B6D1E01F8013BF9D1641E03D0EC
:1001F000641E01F8015BFBD19142E4D3704700001B
:100200000023002400250026103A28BF78C1FBD81F
:10021000520728BF30C148BF0B60704700207047AD
:100220001FB507F0A6FD9DE8030000F035FC1FBDDB
:1002300010B510BD00F0C9FC1146FFF7F1FF06F044
:100240008FFD00F0E7FC03B4FFF7F2FF03BC06F0FC
:100250004FFC00000948804709480047FEE7FEE7D9
:10026000FEE7FEE7FEE7FEE7FEE7FEE7FEE7FEE766
:1002700004480549054A064B70470000313F000815
:1002800089010008302C002030320020302E002060
:10029000302E002010B5044600BF00BF00BF00BFD5
:1002A000002CFDD000BF00BF00BF0029FDD000BF63
:1002B00000BF00BF002AFDD000BF00BF00BF002B61
:1002C000FDD000BF72B6216002FB0310401E6060CB
:1002D000A3600020E06022746161A16162B6002029
:1002E00010BD2DE9F04104460D460026002700BF51
:1002F00000BF002CFDD000BF00BF00BF002DFDD00F
:1003000000BF1C2000F099FA064616B90020BDE88F
:10031000F08104FB05F000F090FA07460FB90020C9
:10032000F5E72B46224639463046FFF7B3FF304605
:10033000EDE710B5044600BF00BF002CFDD000BFA4
:1003400000BF00BF20680028FCD000BF206800F07C
:10035000A3FA204600F0A0FA10BD034600BF00BF7C
:1003600000BF00BF002BFDD000BF00BF00BF0029B1
:10037000FDD000BF00BF00BF002AFDD000BF72B695
:1003800019608818401E58609A600020D860196172
:10039000596162B60020704770B5044600250026FA
:1003A00000BF00BF002CFDD000BF182000F045FAB0
:1003B00005460DB9002070BD204600F03EFA064605
:1003C0000EB90020F7E7224631462846FFF7C5FF61
:1003D0002846F0E710B5044600BF00BF002CFDD052
:1003E00000BF00BF00BF20680028FCD000BF20680D
:1003F00000F052FA204600F04FFA10BD30B5024628
:1004000000230C4600BF00BF00BF00BF002AFDD084
:1004100000BF00BF00BF0029FDD000BF906810B929
:100420004FF0FF3030BD002310E055689069A842BE
:1004300001D91068906114F8010B9569287072B6A3
:100440009069401C906162B6581CC3B2107C9842FF
:10045000EBDC72B69068401E9060D068401CD060A3
:1004600062B60020DEE7024600BF00BF00BF00BF4B
:10047000002AFDD000BF906810B94FF0FF307047E0
:1004800072B650695368984201D91068506150693A
:1004900001705069401C50619068401E9060D068A7
:1004A000401CD06062B60020E9E770B503460C46F8
:1004B000002500BF00BF00BF00BF002BFDD000BF64
:1004C000986810B94FF0FF3070BD002119E09868AE
:1004D00010B94FF0FF3516E072B65E685869B04249
:1004E00001D918685861605C5E6930705869401CB9
:1004F00058619868401E9860D868401CD86062B601
:10050000491C9142E3D300BF2846DDE730B50246DF
:1005100000230C4600BF00BF00BF00BF002AFDD073
:1005200000BF00BF00BF0029FDD000BFD06810B9D8
:100530004FF0FF3030BD002310E055685069A842ED
:1005400001D9106850615069007804F8010B72B647
:100550005069401C506162B6581CC3B2107C98426E
:10056000EBDC72B69068401C9060D068401ED06092
:1005700062B60020DEE70146002000BF00BF00BFDA
:1005800000BF0029FDD000BF72B60A694B689A42CD
:1005900001D90A680A610A6910780A69521C0A615D
:1005A0008A68521C8A60CA68521ECA6062B6704766
:1005B00070B5024600230C4600BF00BF00BF00BF5D
:1005C000002AFDD000BF00BF00BF0029FDD000BF42
:1005D000D06810B94FF0FF3070BD72B6167CD0688D
:1005E000401E556906FB00501568451BD2E90060A6
:1005F000801B401CB5FBF0F600FB16501568284424
:100600005061D2E90250401E284490600120D06021
:1006100062B6002310E055685069A84201D91068FD
:1006200050615069007804F8010B72B65069401CA3
:10063000506162B6581CC3B2107C9842EBDC72B6B3
:100640009068401C9060D068401ED06062B6002068
:10065000C2E710B50146002000BF00BF00BF00BFC9
:100660000029FDD000BF72B6D1E903321A44521EF0
:100670000B68D31AD1E90042121B521CB3FBF2F4EF
:1006800002FB14320B681A440A610A691078D1E936
:1006900002231A448A600022CA6062B610BD70B597
:1006A00003460C46154600222E46002100BF00BF1F
:1006B000002BFDD000BF00BF00BF002DFDD000BF4C
:1006C000D868A04202D84FF0FF3070BD59690022AF
:1006D00006E05868884200D21968491C501CC2B212
:1006E000187C60439042F4DC002209E0586888429C
:1006F00000D21968087806F8010B491C501CC2B2D8
:10070000187C9042F2DC0020DFE710B502460B4671
:100710000024002100BF00BF002AFDD000BF1169E6
:10072000002406E05068884200D21168491C601C11
:10073000C4B29C42F6DB087810BD014600BF00BF82
:100740000029FDD000BFC86808B90120704700200B
:10075000FCE7014600BF00BF0029FDD000BFC8680C
:1007600008B9012070470020FCE7014600BF00BF28
:100770000029FDD000BF886808B90120704700201B
:10078000FCE7014600BF00BF0029FDD000BF88681C
:1007900008B9012070470020FCE7014600BF00BFF8
:1007A0000029FDD000BFC8687047014600BF00BFE8
:1007B0000029FDD000BFC8687047014600BF00BFD8
:1007C0000029FDD000BF88687047014600BF00BF08
:1007D0000029FDD000BF88687047014600BF00BFF8
:1007E00000BF00BF0029FDD000BF72B6D1E90020D4
:1007F000801A0A7C90FBF2F088600020C8600868CC
:1008000048610868886162B600207047014600BFF1
:1008100000BF00BF00BF0029FDD000BF72B6D1E904
:100820000020801A88600020C86008680861086895
:10083000486162B600207047704770B5064600F008
:100840000FF9056806F10B0020F00704B4429CBFC5
:10085000002070BD2B466A68BAB11068A04210D360
:1008600004F1080188423CBF5068586007D35168C2
:10087000101941601168091B016058601460101D57
:1008800070BD13465268002AE7D12146284600F081
:10089000EFF80028DED170BD70B50446051F00F0EA
:1008A000DFF80068002C14BF446870BD002C18BF2E
:1008B000AC423CBF20466468F8D301680A18AA42DB
:1008C00018BF456003D12A680546114401602868B5
:1008D0004119A1421CBF6C6070BD616869602168EC
:1008E0000844286070BD00000FB4044910B503AA85
:1008F000029800F013F910BC5DF814FB24010020ED
:100900002DE9F0410E460446002020622046E168B1
:10091000884730B3252805D0D4E901219047206AC3
:10092000401CF2E7E168204600278847050018D000
:10093000A5F14100192802D820354FF4006732464E
:10094000294620462760FFF769FC40B1012804D002
:10095000F61D26F007060836D8E7361DD6E72846E6
:10096000DAE7206ABDE8F081032A40F2308010F017
:10097000030C00F0158011F8013BBCF1020F62443A
:1009800098BF11F801CB00F8013B38BF11F8013BCB
:10099000A2F1040298BF00F801CB38BF00F8013B78
:1009A00011F0030300F02580083AC0F0088051F8E8
:1009B000043B083A51F804CBA0E80810F5E7121DF3
:1009C0005CBF51F8043B40F8043BAFF30080D20712
:1009D00024BF11F8013B11F801CB48BF11F8012BDE
:1009E00024BF00F8013B00F801CB48BF00F8012B01
:1009F000704710B5203AC0F00B80B1E81850203A8B
:100A0000A0E81850B1E81850A0E81850BFF4F5AFAE
:100A10005FEA027C24BFB1E81850A0E8185044BF38
:100A200018C918C0BDE810405FEA827C24BF51F8A5
:100A3000043B40F8043B08BF7047D20728BF31F899
:100A4000023B48BF11F8012B28BF20F8023B48BFEA
:100A500000F8012B704770477047704770470000DF
:100A600000487047D42B002070477047704770478C
:100A700038B504460A4600206946AFF300800028D6
:100A800008BF38BD02460099204600F061F80120F9
:100A900038BD012000F092B8F8B5AFF300800546EC
:100AA00000200C46102000BF0646A819A0420DD910
:100AB000324669460020AFF30080070008BF00F00F
:100AC0007DF80098A04218BF0546C419FFF7C8FF7B
:100AD00005600746F01D20F007004619284600F083
:100AE0000AF8B44208BFF8BDA21B31463868BDE819
:100AF000F84000F02DB800210160C0E901107047F6
:100B00001020704710B500F01FF8006810BD10B538
:100B1000044600F019F8046010BD0000074B70B5E2
:100B20000D467B4400F033F80446284600F042F8B6
:100B300010B14FF0FF3070BD204670BDE361000082
:100B400000487047CC2B002000487047CC2B002079
:100B5000034640688C46002818BF88423CBF0346C5
:100B60004068F8D318681844884207D00CF1030095
:100B700020F00700001D411A521A0146081D0A60A4
:100B8000FFF78ABE01694A1C02610878704700B508
:100B90008FB0CDE901310021059105497944CDE9B6
:100BA000031011466846FFF7ABFE0FB000BD000012
:100BB000E5FFFFFF007B00F08000704710B500F0FC
:100BC00037F8BDE8104000F02EB87546FFF7B8FFC3
:100BD000AE4605006946534620F00700854618B02A
:100BE00020B5FFF745FBBDE820404FF000064FF071
:100BF00000074FF000084FF0000B21F00701AC4652
:100C0000ACE8C009ACE8C009ACE8C009ACE8C00970
:100C10008D46704710B50446AFF300802046BDE80E
:100C20001040FFF710BB002801D005F061BF7047EE
:100C300010B5012805D0002103A000F021F8012003
:100C400010BD09A1F8E7000053494752544D454DE6
:100C50003A204F7574206F662068656170206D655D
:100C60006D6F7279000000003A2048656170206D58
:100C7000656D6F727920636F727275707465640050
:100C800070B505460C460A2000E06D1C05F032FFE9
:100C900035B128780028F8D102E0641C05F02AFF5D
:100CA00014B120780028F8D1BDE870400A2005F082
:100CB00021BF000000B59BB06C2232496846FFF7A7
:100CC00098FE9DF800005A2808D101202E4908708E
:100CD0006A2269462D48FFF747FE07E000202A49AF
:100CE00008702A49C1F801005A200870274890F876
:100CF00036005A281DD00021244880F836100020E4
:100D00002249888400212148C1840185B7EE000A68
:100D100010EE100A1D49C1F82A00B7EE000A10EEC5
:100D2000100AC1F82E00B7EE000A10EE100AC1F842
:100D30003200164890F849005A2820D00021134864
:100D400080F8491000201149A1F8370000210F4810
:100D5000A0F83910A0F83B10B7EE000A10EE100A08
:100D60000A49C1F83D00B7EE000A10EE100AC1F8BA
:100D70004100B7EE000A10EE100AC1F845001BB0A2
:100D800000BD000000000E083C0100207A28002071
:100D900010B501246A220349034800F057F80446BD
:100DA000204610BD7A28002000000E0801461C488D
:100DB000814201D2002070471A48814201D20820A6
:100DC000F9E71948814201D21020F4E7174881421F
:100DD00001D21820EFE71648814201D22020EAE72D
:100DE0001448814201D22820E5E71348814201D20C
:100DF0003020E0E71148814201D23820DBE710487B
:100E0000814201D24020D6E70E48814201D24820DB
:100E1000D1E70D48814201D25020CCE75820CAE7E3
:100E2000004000080080000800C000080000010821
:100E3000000002080000040800000608000008087E
:100E400000000A0800000C0800000E082DE9FC5FF5
:100E500004460D4690464FF00909012001900026F6
:100E60004FF0000A00274FF0000B00200090B4F173
:100E7000006F01D2BDE8FC9F00F0BCFC002000F038
:100E800009FC264604EB080A3046FFF78FFF83462D
:100E90005046FFF78BFF00901648864211D25F46FE
:100EA0000BE00221384600F007FC8146B9F1090F3A
:100EB00002D00020019003E0083700988742F0D963
:100EC00000BFB9F1090F0ED10AE02978204600F0E1
:100ED0006BFC092802D00020019003E0641C6D1C0B
:100EE0005445F2D300BF012000F0D4FB00F052FCC7
:100EF0000198BFE70000FF1F00BFFEE710B51020FC
:100F000001F01EFF60B102F0F7FA0446002C44D055
:100F1000012C42D0022C40D1102002F013FE3CE004
:100F2000202001F00DFF88B102F050FA0446A4B36E
:100F3000012C32D0022C30D1184802F055FE18484E
:100F400002F02AFE202002F0FDFD26E04FF4805042
:100F500001F0F6FE58B105F0D5FF0446ECB1012CC6
:100F60001BD0022C19D1C00202F0ECFD15E04FF4A9
:100F7000005001F0E5FE80B105F02EFF044664B19B
:100F8000012C0AD0022C08D1064805F0D7FF0448EE
:100F900002F002FE200302F0D5FD10BDE42800207F
:100FA0007A2800200A290020554890ED000A55486B
:100FB000D0ED000A30EE600A5348D0ED000A30EE62
:100FC000600A524880ED030A90ED000AD0ED030A52
:100FD00020EE200A80ED060A90ED030AF2EE040AE4
:100FE000B4EEE00AF1EE10FA03DD00204749086391
:100FF00035E0012045490863084690ED070AD0ED29
:10100000010A90ED031A00EE810A80ED070A90EDC7
:10101000070AD0ED0A0AB4EEE00AF1EE10FA02DD9A
:1010200090ED0A0A02E0394890ED070A374880ED52
:10103000070A90ED070AD0ED0A0AF1EE600AB4EE55
:10104000E00AF1EE10FA04D290ED0A0AB1EE400A7D
:1010500002E02E4890ED070A2C4880ED070A2B4845
:1010600090ED030AD0ED040A30EE600AD0ED020ADA
:1010700020EE200A80ED080A90ED060AD0ED0C0A59
:10108000F8EEE00A90ED071A00EE810AD0ED080AAA
:1010900030EE200A80ED090A90ED090AD0ED0B0A26
:1010A000B4EEE00AF1EE10FA02DD90ED0B0A02E078
:1010B000164890ED090A154880ED090A90ED090AD5
:1010C000D0ED0B0AF1EE600AB4EEE00AF1EE10FA90
:1010D00004D290ED0B0AB1EE400A02E00B4890ED0D
:1010E000090A0A4880ED090A90ED030A80ED040A16
:1010F00090ED090ABDEEC00A10EE100A00B270476A
:10110000480100205001002058010020CC29002077
:1011100010B5002404E0204600F0ACFC601CC4B212
:10112000052CF8DB10BD00000246094B9A4201D2A3
:10113000084801E00648103801F000531BB1064B87
:101140000B40C36002E0044B0B408360704700001B
:1011500010640240006002407D0F7D0F21B10268E3
:1011600042F00102026003E0026822F00102026024
:1011700070470000016821F0010101600021016059
:1011800041608160C1600161212141614A49884219
:1011900004D13D21484A103A91608CE0464918310B
:1011A000884205D14FF47461434A103A916082E05D
:1011B00041493031884205D14FF474113E4A103A0A
:1011C000916078E03C494831884205D14FF0746124
:1011D000394A103A91606EE037496031884204D153
:1011E0003649354A103AD16065E033497831884252
:1011F00004D13349304A103AD1605CE02E49903135
:10120000884204D12F492C4A103AD16053E02A4930
:10121000A831884205D14FF03D51274A103AD1609C
:1012200049E02949884204D13D21274A083A116002
:1012300041E025491831884205D14FF47461224AB2
:10124000083A116037E020493031884205D14FF427
:1012500074111D4A083A11602DE01B49483188423B
:1012600005D14FF07461184A083A116023E016491D
:101270006031884204D11149134A121F11601AE0EB
:1012800011497831884204D10D490F4A121F11606B
:1012900011E00D499031884204D10A490A4A121FCF
:1012A000116008E00849A831884204D14FF03D514F
:1012B000054A121F11607047106002403D00002077
:1012C000400F002000003D201064024021B1026860
:1012D00042F48022026003E0026822F4802202606D
:1012E000704722B1036843F40023036003E00368FE
:1012F00023F40023036001617047014600200A685F
:1013000002F001020AB1012000E00020704701460E
:10131000486880B27047014600200A6802F4002243
:101320000AB1012000E000207047000010B5002243
:101330000268134B1A40CC680B6823434C69234363
:101340008C692343CC6923430C6A23434C6A2343AF
:101350008C6A23434C6B23438C6B23431A430260F8
:10136000426922F00702D1E90B3423431A43426158
:101370000B6943604B6883608B68C36010BD0000DD
:101380003F801CF041607047002101604160816036
:10139000C160016141618161C1610162416281623B
:1013A000C162016341638163704770477047704752
:1013B0007047000010B52DED088B01201E49087004
:1013C00000F0C2FA1D4801F09DFB1D49B1F9100063
:1013D00006F001F941EC1B0B9FED1A1BB0EE4B0A16
:1013E000F0EE6B0A04F074F8B0EE409AF0EE609AFA
:1013F0001349B1F90E0006F0EEF841EC1B0B9FED1E
:10140000111BB0EE4B0AF0EE6B0A04F061F8B0EE7F
:1014100040AAF0EE60AA53EC192B51EC1A0B05F020
:1014200069FE41EC180B05F033FE08490860FFF730
:1014300065FDBDEC088B10BD1801002004260020BE
:101440001026002000000000000000405000002096
:101450007047000010B52DED048B9FED2C0A2C4831
:1014600080ED000A2B4890ED020A2B4880ED000A1F
:10147000FFF79AFD00EE100AB8EEC00A274880ED8B
:10148000000A90ED000ADFED260AB4EEE00AF1EE64
:1014900010FA02DD9FED220A0FE0204890ED000ACD
:1014A000DFED200AB4EEE00AF1EE10FA02D29FED71
:1014B0001D0A02E0194890ED000A184880ED000A64
:1014C000006806F0E5FB41EC190BB0EE490AF0EEBE
:1014D000690A03F0F1FFB0EE408AF0EE608A51EC49
:1014E000180B06F04BF884B20C4991ED000AB5EEEA
:1014F000C00AF1EE10FA01DD012100E000210846EA
:10150000214602F017F8BDEC048B10BD000000006E
:101510004801002004260020500100204C0000203B
:1015200000001644000016C410B5204800780128B9
:101530003BD11F48008800B21E490880FFF737FFE3
:101540001A48B0F90400022804DB002017498880FB
:10155000FFF730FF1548B0F90600052804DB00202E
:101560001249C880FFF776FF1048B0F908000A2832
:1015700004DB00200D490881FFF718FF0B48B0F984
:101580000A00142804DB002008494881FFF710FFF7
:101590000648B0F90C00322804DB0020034988819A
:1015A000FFF756FF00200149087010BD70110020A0
:1015B000640000204200002010B5102000F014F854
:1015C00028B1102000F004F8102000F007F810BD3A
:1015D0000149086070470000143C0140014908605F
:1015E00070470000143C014001460020034A126885
:1015F0000A400AB1012000E000207047143C01407D
:10160000002123498279002A3AD00A4612680368E9
:101610009A430B461A600A1D126803689A430B1D11
:101620001A60027911440A6803681A430A60184A6A
:101630000832126803689A43154B08331A601A1D62
:10164000126803689A43124B0C331A604279102ACD
:101650000ED11A1F126803681A430D4B08331A6023
:101660001A1D126803681A43094B0C331A600DE007
:101670000749427911440A6803681A430A6005E081
:10168000027911440A6803689A430A6070470000AF
:10169000003C014030B10749096841F48061054AC6
:1016A000116005E00349096821F48061014A116075
:1016B00070470000003C024070B504460A46002610
:1016C000092502B909E0012A01D1160205E0022A22
:1016D00001D1160201E04FF4407600F09DF8054676
:1016E000092D28D11548006820F44070134908607E
:1016F00008460068304308600846006820F0F8009B
:1017000008600846006844F0020108430B4908607D
:101710000846006840F48030086000F07DF8054617
:101720000648006820F00200044908600846006886
:1017300020F0F8000860284670BD0000103C024010
:1017400009201349096801F48031B1F5803F01D1C6
:1017500001201CE00E49096801F0100109B10620C2
:1017600015E00B49096801F4807109B102200EE00F
:101770000749096801F0EF0109B1072007E00449B2
:10178000096801F0020109B1082000E00920704752
:101790000C3C02400348006840F0004001490860EA
:1017A00070470000103C024030B502460C46092547
:1017B00000F032F80546092D17D10D48006820F4D5
:1017C00040700B49086008460068086008460068D9
:1017D00040F001000860147000F01EF8054604484F
:1017E000006820F0010002490860284630BD000072
:1017F000103C02400548006800F0004028B1044851
:1018000002490C390860034808607047103C0240E8
:1018100023016745AB89EFCD08B509200090FFF79C
:101820008FFF009002E0FFF78BFF00909DF8000013
:101830000128F8D09DF8000008BDF0B50A46002147
:101840000023002400BF3DE0012505FA01F31568DF
:1018500005EA03049C4234D105684F000326BE40CC
:10186000B543056015794E00B540066835430560FF
:101870001579012D02D01579022D16D185684F00FA
:101880000326BE40B543856055794E00B540866855
:1018900035438560456801268E40B54345604568FF
:1018A00096798E40B6B235434560C5684F00032631
:1018B000BE40B543C560D5794E00B540C6683543D6
:1018C000C560491C1029BFD3F0BDF0B5002300242A
:1018D0004D07ED0E02FA05F3CE1000F1200555F884
:1018E00026504E07F70E0F26BE40B543CF1000F12D
:1018F000200646F82750CE1000F1200555F8265056
:1019000045EA0304CE1000F1200545F82640F0BD5D
:101910000246002013690B400BB1012000E00020BB
:10192000704741837047018370474FF6FF71016034
:101930000021017141718171C171704701480078C6
:101940007047000064010020324890ED030A3248DD
:1019500080ED040A2F4890ED040AB1EE400A2E48AB
:1019600080ED050A2B4890ED050A2B4880ED060A0C
:101970002A4890ED000A2A4880ED000A294890ED97
:10198000000A264880ED000A90ED000A2448D0EDB8
:10199000000A30EE600ADFED240AB4EEE00AF1EE50
:1019A00010FA05DB21480068401E2049086013E05A
:1019B0001A4890ED000A1A48D0ED000A30EE600A8D
:1019C000DFED1B0AB4EEE00AF1EE10FA04D8174876
:1019D0000068401C15490860144800684FF4B47151
:1019E000484300EE100AB8EEC00A0C48D0ED000AD9
:1019F00030EE200A0F4880ED000A0A4890ED010AF7
:101A00000D4880ED000A074890ED020A0B4880ED72
:101A1000000A7047D025002038260020D40000207E
:101A2000E0000020042600200000A543FC00002068
:101A30000000A5C3EC000020F0000020F40000200E
:101A40000B4A11684FF0E02252694FF0E0239B6986
:101A5000D21A4FF47A735A434FF0E0235B69B2FB1A
:101A6000F3F201EB4103C3EBC11302EBC300704778
:101A70005400002010B5044604EB44001B4901EB60
:101A8000800090ED000A04EB440001EB800080ED43
:101A9000010AFFF7D5FF00EE100AB8EE400A04EB8A
:101AA0004400124901EB800080ED000A04EB440081
:101AB00001EB800090ED000A04EB440001EB800094
:101AC000D0ED010A30EE600A04EB440001EB800027
:101AD00080ED020A04EB440001EB800090ED020A65
:101AE000BCEEC00A10EE100A10BD000094110020D8
:101AF0004FF08040406A704708B5002000900123F5
:101B00006A460A213C2001F099FB40B99DF800008B
:101B1000482809D015A0FEF7E7FEFF2008BD16A053
:101B2000FEF7E2FEFF20F9E7702200213C2000F0E2
:101B30001DFB052005F074F8A02201213C2000F0D7
:101B400015FB052005F06CF8002202213C2000F076
:101B50000DFB062005F064F8182200213C2000F05F
:101B600005FB062005F05CF80020D7E76572726F70
:101B7000722032410D0A00006572726F722032428B
:101B80000D0A000010B504460623224603213C201E
:101B900001F054FB10BD00002DE9F04104460D4654
:101BA00016461648FFF7EEFF144B0E3B5B7C134FB7
:101BB0000E3F3F7C43EA07231AB2104B0E3BDB7B00
:101BC0000E4F0E3FBF7B43EA07235B4219B20B4B1C
:101BD0000E3BDB7C094F0E3FBF7C43EA072318B264
:101BE00000F06EF80648808A20800548408D2880E5
:101BF0000348B0F840003080BDE8F081A226002004
:101C00002C2700203EB504466A4601A902A8FFF72A
:101C1000C3FFBDF9080025490860BDF9040048600C
:101C2000BDF9000088602248B0F90000BDF9081035
:101C3000081A00EE100AF8EEC00A1D48D0F8060097
:101C400000EE100A20EE800A1A4880ED000A84EDAA
:101C5000000A1748B0F90200BDF90410081A00EE96
:101C6000100AF8EEC00A1248D0F80A0000EE100A76
:101C700020EE800A104880ED000A84ED010A0C482D
:101C8000B0F90400BDF90010081A00EE100AF8EED1
:101C9000C00A0748D0F80E0000EE100A20EE800AB5
:101CA000064880ED000A84ED020A3EBD7C27002034
:101CB000F728002000010020040100200801002076
:101CC000F0B503460C4600200021012019E0504DDC
:101CD00035F81060451E4E4F27F8156007F11605C0
:101CE00035F81070451E4A4E163626F8157006F166
:101CF000160535F81070451E163626F81570451C69
:101D0000E8B20A28E3DB424D6B822C85EA8700208B
:101D100005E03F4D35F910502944451CE8B20A282A
:101D2000F7DB0A2591FBF5F52DB2394EB58200217E
:101D3000002006E0364D163535F910502944451C73
:101D4000E8B20A28F6DB0A2591FBF5F52EB2304DF4
:101D50006E850021002006E02D4D2C3535F9105000
:101D60002944451CE8B20A28F6DB0A2591FBF5F563
:101D70002EB2274DA5F84060264DB5F90650244EE9
:101D8000B6F91460B54203DD214DAD8A214EF580D0
:101D9000204DB5F908601E4DB5F92A50AE4203DD5D
:101DA0001B4D6D8D1B4E35811A4DB5F90A60184DCE
:101DB000B5F94050AE4204DD154DB5F84050154E12
:101DC0007581144DB5F90050114EB6F91460B54245
:101DD00003DA0F4DAD8A0F4E35800E4DB5F9026016
:101DE0000B4DB5F92A50AE4203DA094D6D8D094EFF
:101DF0007580084DB5F90460054DB5F94050AE4207
:101E000004DA034DB5F84050024EB580F0BD000035
:101E10002C2700206E27002000BFFEE710B50446E7
:101E200000F0E6F82CB14FF400710D48FFF77BFD90
:101E300004E04FF400710A48FFF773FD4FF480711E
:101E40000748FFF770FD012000F00CF84FF4807197
:101E50000348FFF766FD012000F004F810BD000004
:101E60000004024010B5002106E0062200BF131E48
:101E7000A2F10102FBD1491C8142F6D310BD000042
:101E80001CB50121022001F0BDFC4FF44070009010
:101E900001208DF8040000208DF8060003208DF845
:101EA000050069460148FFF7C8FC1CBD000402405C
:101EB00070B5002400F086F800251BE04FF4807117
:101EC0001148FFF72EFD0120FFF7CCFF4FF4807182
:101ED0000D48FFF728FD6006040E4FF400710A4814
:101EE000FFF716FD08B1601CC4B20120FFF7BAFF6E
:101EF000681CC5B2082DE1DB4FF480710248FFF782
:101F000010FD204670BD0000000402402DE9F041A4
:101F100006460F461446984600F07EF8304600F01C
:101F2000F3F800F0B9F8FF2805D11DA0FEF7DCFC9E
:101F3000FF20BDE8F081384600F0E6F800F0ACF88C
:101F4000FF2804D119A0FEF7CFFCFF20F1E700F035
:101F500063F8711CC8B200F0D7F800F09DF8FF28B4
:101F600004D115A0FEF7C0FCFF20E2E7002508E041
:101F7000FFF79EFF20700020FFF750FF641C681CD5
:101F8000C5B2A8F10100A842F2DCFFF791FF207072
:101F90000120FFF743FF00F05FF80020C9E70000D1
:101FA0006572726F722032460D0A00006572726FA0
:101FB000722032470D0A00006572726F722032483B
:101FC0000D0A00001CB54FF40070009000208DF841
:101FD00004008DF806008DF8070002208DF805003A
:101FE00069460248FFF729FC1CBD000000040240BE
:101FF0001CB54FF40070009001208DF804008DF89E
:10200000060003208DF8050069460248FFF715FC1D
:102010001CBD00000004024010B5FFF7E9FF4FF4BB
:1020200000710C48FFF77FFC4FF480710948FFF7FF
:102030007AFC0120FFF716FF4FF400710548FFF707
:1020400070FC0120FFF70EFF4FF480710148FFF78D
:1020500068FC10BD0004024010B5FFF7C9FF4FF443
:1020600080710C48FFF75DFC4FF400710948FFF7E1
:1020700058FC0120FFF7F6FE4FF480710548FFF78A
:1020800052FC4FF400710348FFF74DFC0120FFF7AD
:10209000E9FE10BD0004024010B54FF47A744FF40D
:1020A00000711548FFF73FFCFFF78CFF0120FFF799
:1020B000D9FE4FF480711048FFF735FC0120FFF77F
:1020C000D1FE0AE0601E80B2041E06D0FFF7C4FFF6
:1020D0000AA0FEF709FCFF2010BD4FF4007106486E
:1020E000FFF716FC0028EDD14FF480710248FFF78E
:1020F00018FC0020F0E70000000402406572726FD7
:10210000722032410D0A000070B50446FFF770FFDF
:102110004FF480711448FFF704FC002521E004F01F
:10212000800028B14FF400710F48FFF7FCFB04E07A
:102130004FF400710C48FFF7F4FB6006040E012019
:10214000FFF790FE4FF480710748FFF7ECFB01208A
:10215000FFF788FE4FF480710348FFF7E2FB681C2D
:10216000C5B2082DDBDB70BD0004024070B5064629
:102170000C461546FFF750FF3046FFF7C5FFFFF747
:102180008BFFFF2804D110A0FEF7AEFBFF2070BD2F
:102190002046FFF7B9FFFFF77FFFFF2804D10DA00E
:1021A000FEF7A2FBFF20F2E72846FFF7ADFFFFF79F
:1021B00073FFFF2804D10AA0FEF796FBFF20E6E795
:1021C000FFF74AFF0020E2E76572726F7220324229
:1021D0000D0A00006572726F722032430D0A000012
:1021E0006572726F722032440D0A000000B52DED49
:1021F000108B93B0FE4890ED000AD0ED000A20EE5F
:10220000200A8DED080A90ED000AFA48D0ED000A88
:1022100020EE200AB0EE40FAF54890ED000AF648AC
:10222000D0ED000A20EE200AF0EE40AAF04890ED32
:10223000000AF248D0ED000A20EE200A8DED070AD0
:10224000EC4890ED000AD0ED000A20EE200AF0EEF6
:1022500040FA90ED000AE848D0ED000A20EE200A8E
:102260008DED060AE34890ED000AE448D0ED000A3F
:1022700020EE200AB0EE40BADF4890ED000AD0ED23
:10228000000A20EE200AF0EE40BA90ED000ADB488A
:10229000D0ED000A20EE200A8DED050A90ED000A2F
:1022A000D0ED000A20EE200A8DED040AD44890ED0E
:1022B000030ADFEDD40A20EE200ADFEDD30A80EE18
:1022C000201AD24880ED001ACD4890ED040ADFEDC7
:1022D000CD0A20EE200ADFEDCC0A80EE201ACC4891
:1022E00080ED001AC64890ED050ADFEDC60A20EE23
:1022F000200ADFEDC50A80EE201AC64880ED001ADC
:10230000BF4890ED000AC44880ED000ABC4890ED3B
:10231000010AC24880ED000AB94890ED020AC0489F
:1023200080ED000AB64890ED060ABE4880ED000A2E
:10233000B34890ED070ABC4880ED000AB04890ED24
:10234000080ABA4880ED000AFFF7D2FBB8490860D6
:1023500008460068B749096888420CD3B448006849
:10236000B4490968401A00EE100AB8EE400ADFEDE1
:10237000B20AC0EE208AAE480068AE490860A6489E
:10238000D0ED000A90ED001A60EE810AA34890EDAE
:10239000001AD0ED001A41EE210AA14890ED001A72
:1023A000D0ED001A41EE210AB0EE600A04F0BAFC4A
:1023B000B0EE408A984890ED000A20EE080A80EDC1
:1023C000000A964890ED000A20EE080A80ED000A07
:1023D000934890ED000A20EE080A80ED000A91482B
:1023E000D0ED000A90ED001A60EE810A8E4890ED63
:1023F000001AD0ED001A41EE210A8C4890ED001A27
:10240000D0ED001A41EE210AB0EE600A04F08AFC19
:10241000B0EE408A834890ED000A20EE080A80ED75
:10242000000A814890ED000A20EE080A80ED000ABB
:102430007E4890ED000A20EE080A80ED000A7948F7
:1024400090ED000AF0EE000A60EE200AB6EE000AF7
:1024500030EE6B1A9DED040A31EE400A20EE800A40
:102460007148D0ED000AB0EE001A60EE811ADDED81
:10247000060A9DED071A70EEC10A01EEA00A6B482C
:10248000D0ED000AB0EE001A60EE810A3BEE2A1A87
:1024900000EE810A8DED110A624890ED000AF0EE1F
:1024A000000A20EE201A9DED060ADDED070A30EE47
:1024B000200A21EE000A5C48D0ED000AB0EE001AB6
:1024C00020EE811AF6EE000A70EEEF1ADDED040A36
:1024D00071EEE00A01EE200A5448D0ED000AB0EE99
:1024E000001A20EE811ADDED050A70EECF0A01EE2A
:1024F000200A8DED100A4B4890ED000AF0EE000A1C
:1025000020EE200A7BEE6A0A60EE200A464890ED33
:10251000000AB0EE001A20EE011A9DED050A70EED9
:102520000F1AB0EE600A01EE210A4048D0ED000A11
:10253000B0EE001A60EE810AB6EE001A31EE6F1AA4
:1025400031EE6B1AB0EE409A00EE819A9DED110AC1
:1025500060EE000A9DED100A40EE000A10EE901A9F
:10256000084605F095FBCDE900019DED000B03F059
:102570003BFE8DED020B9DED020B51EC100B04F0B8
:1025800087FD09EE900AB0EE49AA3BEE6A0AF0EE2A
:10259000000A20EE200A8DED0F0A9DED050A3FEEA0
:1025A000000AF0EE000A20EE200A8DED0E0A9DEDE5
:1025B000080A30EE6F0A70EE6B0A9DED040A30EEE9
:1025C000800A8DED0D0AB0EE000A69EE800AB6EEC3
:1025D000000A30EE6B1A9DED040A31EE400A20EE3F
:1025E000800AB0EE4A9AF0EE000A69EE200A25E071
:1025F000980000209C000020A0000020A4000020E3
:10260000D0250020DB0F494000003443A800002003
:10261000AC000020B0000020B4000020B800002072
:10262000BC000020C0000020C4000020C800002022
:10263000D0000020CC0000200024F4493BEE6A1AB0
:1026400000EE810A8DED0C0AB0EE000A29EE801A28
:102650009DED060ADDED070A30EE600A21EE000A64
:10266000B0EE4A9AF0EE000A29EE201ADDED050AD6
:102670007FEE200A01EE200A8DED0B0AB0EE000A73
:1026800029EE800A7AEE8B0A20EE200AB0EE4A9AF2
:10269000F0EE000A69EE200AB6EE001A31EE6F1A6B
:1026A00031EE6B1A00EE810A8DED0A0AAF48D0EDCB
:1026B000000A9DED0D0A60EE800AAD4890ED001A0B
:1026C0009DED0E0A41EE400AAA4890ED001A9DEDDC
:1026D0000A0A21EE001AA848D0ED001A9DED0B0A57
:1026E00001EEC01A30EE81CAA148D0ED000A9DED7E
:1026F0000F0A60EE800AA14890ED001A9DED0D0AC8
:1027000041EE400A9C4890ED001A9DED0C0A21EE26
:10271000001A9B48D0ED001A9DED0A0A01EEC01A7E
:1027200070EE81CA9548D0ED000A9DED0E0A60EE6C
:10273000800A8E4890ED001A9DED0F0A41EE400A86
:102740008F4890ED001A9DED0B0A21EE001A894882
:10275000D0ED001A9DED0C0A01EEC01A30EE81DAC0
:10276000B5EEC0CAF1EE10FA57D0F5EEC0CAF1EEE0
:1027700010FA52D0B5EEC0DAF1EE10FA4DD09FED5E
:10278000810A6CEE000A804890ED000A00EEA80A6B
:1027900080ED000A9FED7B0A6CEE800A7B4890ED8D
:1027A000000A00EEA80A80ED000A9FED760A6DEEA1
:1027B000000A774890ED000A00EEA80A80ED000AB2
:1027C000744890ED000AF0EE000A00EE8C0A6E48A4
:1027D000D0ED000A30EE200A6E4880ED000A6E4807
:1027E00090ED000AF0EE000A00EEAC0A6748D0ED6A
:1027F000000A30EE200A684880ED000A674890ED34
:10280000000AF0EE000A00EE8D0A6148D0ED000AE1
:1028100030EE200A614880ED000A614890ED000A20
:10282000B1EE400A5B48D0ED000A20EE200A5D4878
:10283000D0ED000A584890ED001A00EEC10A5A483F
:1028400090ED001A5548D0ED001AF0EE400A41EE26
:10285000610A564890ED000A00EEA80A8DED090ABB
:1028600090ED000A4B48D0ED000A20EE200A4D48BA
:10287000D0ED000A494890ED001A00EE810A4A485E
:10288000D0ED000A444890ED001A00EEC10A444819
:10289000D0ED000AF0EE60DA40EE28DA434890ED21
:1028A000000A3D48D0ED000A20EE200A3C48D0ED59
:1028B000000A3A4890ED001A00EEC10A3A48D0EDFD
:1028C000000A344890ED001A00EE810A3548D0ED38
:1028D000000AB0EE60EA00EE28EA344890ED000A03
:1028E0002E48D0ED000A20EE200A2D48D0ED000A37
:1028F000294890ED001A00EE810A2A48D0ED000A1E
:10290000244890ED001A00EEC10A2748D0ED000AD5
:10291000F0EE60EA40EE28EADDED090A60EEA00A7A
:102920004DEEAD0A4EEE0E0A4EEEAE0AB0EE600A65
:1029300004F0F8F9B0EE408A9DED090A20EE080A8D
:102940001A4880ED000A2DEE880A154880ED000A2D
:102950002EEE080A134880ED000A2EEE880A12486F
:1029600080ED000A13B0BDEC108B00BDB800002054
:10297000BC000020C4000020C8000020B4000020DB
:10298000C00000200AD7233C8C00002090000020CB
:1029900094000020A8000020AC000020B00000201F
:1029A0009C000020A0000020A4000020980000202F
:1029B00010B504460C4800F021F8FFF717FC0B484F
:1029C00090ED000A84ED000A094890ED000A84EDBC
:1029D000010A084890ED000A84ED020A064890EDCD
:1029E000000A84ED030A10BDD025002098000020C5
:1029F0009C000020A0000020A400002030B585B07D
:102A000004460DF1120004A9031F03AACDE900102A
:102A1000891F02A800F02EFCBDF808003649088086
:102A2000BDF80A004880BDF80C008880BDF80E0093
:102A30000881BDF810004881BDF81200888100258A
:102A40001DE0032D0BDA02A830F9150000EE100A84
:102A5000B8EEC00A04EB850080ED000A0EE002A883
:102A600030F9150000EE100AB8EEC00ADFED230AB7
:102A700080EE201A04EB850080ED001A6D1C062DF7
:102A8000DFDB04F11800FFF7BDF894ED060ABDEE98
:102A9000C00A10EE100A00B21749C88194ED070A67
:102AA000BDEEC00A10EE100A00B2088294ED080ACA
:102AB000BDEEC00A10EE100A00B248820846B0F916
:102AC000100001EE100AB8EEC11AF0EE410A0846F5
:102AD000B0F90E0001EE100AB8EEC11AB0EE410ACC
:102AE00004F012F800EE100AB8EEC00A044880EDB7
:102AF000000A05B030BD0000102600203333034229
:102B0000F800002010B52DED0C8B04468748FFF728
:102B10004FFF864890ED020AF8EE000A20EE200AE8
:102B2000D0ED020A20EE200AD0ED030AB0EE001A22
:102B300060EE810A90ED031A00EEC10AF7EE000A7A
:102B400030EE200A10EE101A084605F0A1F841EC0C
:102B50001C0B764890ED010AF0EE000A20EE200AE8
:102B6000D0ED020A20EE200AD0ED000AB0EE001AE5
:102B700060EE810A90ED031A00EE810A10EE101A41
:102B8000084605F085F841EC1D0BB0EE4C1AF0EE4E
:102B90006C1AB0EE4D0AF0EE6D0A02F095FBB0EE45
:102BA00040BAF0EE60BA51EC1B0B04F065FA41EC50
:102BB0001A0B9FED5F0B53EC102B04F073FD41ECEF
:102BC000190B9FED5D0B53EC102B04F04FFB41EC08
:102BD000180B04F05DFA00EE100A84ED000A534869
:102BE00090ED010AF8EE000A20EE200AD0ED030A6B
:102BF00020EE200AD0ED000AB0EE001A60EE810A45
:102C000090ED021A00EE810A10EE101A084605F047
:102C10003FF841EC1C0BB0EE4C0AF0EE6C0A02F0EF
:102C200037F8B0EE40BAF0EE60BA51EC1B0B04F08E
:102C300023FA41EC1A0B9FED3E0B53EC102B04F0E2
:102C400031FD41EC190B9FED3C0B53EC102B04F0C4
:102C50000DFB41EC180B04F01BFA00EE100A84ED9A
:102C6000010A324890ED010AF8EE000A20EE200A2F
:102C7000D0ED010A20EE200AD0ED020AB0EE001AD3
:102C800060EE810A90ED021A00EEC10AF7EE000A2A
:102C900030EE200A10EE101A084604F0F9FF41EC5D
:102CA0001B0B224890ED020AF0EE000A20EE200AEB
:102CB000D0ED030A20EE200AD0ED000AB0EE001A93
:102CC00060EE810A90ED011A00EE810A10EE101AF2
:102CD000084604F0DDFF41EC1C0BB0EE4B1AF0EEA1
:102CE0006B1AB0EE4C0AF0EE6C0A02F0EDFAB0EEA0
:102CF00040AAF0EE60AA9FED0E0B53EC102B51ECA6
:102D00001A0B04F0CFFC41EC190B9FED0B0B53ECAD
:102D1000102B04F0ABFA41EC180B04F0B9F900EEFB
:102D2000100A84ED020ABDEC0C8B10BDF4250020C6
:102D3000000000000080664000000060FB210940A8
:102D4000014604480068084008B10120704700208F
:102D5000FCE70000400100201548C089401C1449D0
:102D6000C88108468088401C00B288800846C08818
:102D7000401C00B2C88008460089401C00B208818F
:102D800008464089401C00B2488108468089401CA2
:102D900000B2888108460078012804D108464078AE
:102DA000401C487002E00120014908707047000093
:102DB000701100202DE9F04304460D46DDE9076758
:102DC00000200021012041E0DFF8D8C13CF810804C
:102DD000A0F1010CDFF8CC9129F81C8009F1160C48
:102DE0003CF81090A0F1010CDFF8B88108F116084A
:102DF00028F81C9008F1160C3CF81090A0F1010C7A
:102E000008F1160828F81C9008F1160C3CF81090F0
:102E1000A0F1010C08F1160828F81C9008F1160C16
:102E20003CF81090A0F1010C08F1160828F81C904D
:102E300008F1160C3CF81090A0F1010C08F11608EE
:102E400028F81C9000F1010C0CF0FF000A28BBDBF5
:102E5000DFF850C1ACF81240ACF82850ACF83E2076
:102E6000ACF85430ACF86A60ACF88070002008E030
:102E7000DFF830C13CF910C0614400F1010C0CF0E6
:102E8000FF000A28F4DB4FF00A0C91FBFCFC0FFA60
:102E90008CFCDFF81081A8F814C0002100200AE0A3
:102EA000DFF800C10CF1160C3CF910C0614400F1D0
:102EB000010C0CF0FF000A28F2DB4FF00A0C91FB2A
:102EC000FCFC0FFA8CF8DFF8DCC0ACF82A8000219B
:102ED00000200AE0DFF8CCC00CF12C0C3CF910C04B
:102EE000614400F1010C0CF0FF000A28F2DB4FF006
:102EF0000A0C91FBFCFC0FFA8CF8DFF8A8C0ACF8C8
:102F00004080002100200AE0DFF898C00CF1420C5C
:102F10003CF910C0614400F1010C0CF0FF000A28DC
:102F2000F2DB4FF00A0C91FBFCFC0FFA8CF8DFF897
:102F300074C0ACF85680002100200AE0DFF864C0BD
:102F40000CF1580C3CF910C0614400F1010C0CF07C
:102F5000FF000A28F2DB4FF00A0C91FBFCFC0FFA91
:102F60008CF8DFF840C0ACF86C80002100200AE04B
:102F7000DFF830C00CF16E0C3CF910C0614400F178
:102F8000010C0CF0FF000A28F2DB4FF00A0C91FB59
:102F9000FCFC0FFA8CF8DFF80CC0ACF88280BDE8BE
:102FA000F0830000A826002010B501221921D020AE
:102FB000FFF7DCF8FF2804D10CA0FDF795FCFF20FB
:102FC00010BD14A0FDF790FC0A2003F029FE012299
:102FD0003821D020FFF7CAF8FF2804D115A0FDF74B
:102FE00083FCFF20ECE70020EAE7000043616E6EFF
:102FF0006F7420656E61626C6520696E74657272B3
:10300000757074207375636365737366756C6C7922
:103010002E0D0A004D505536303530207365742022
:1030200073616D706C65207261746520646F6E658C
:103030002E0A00006572726F722031490D0A00007D
:1030400008B500200090FEF71BFF01236A4675219A
:10305000D020FEF75BFF40B99DF80000682809D03A
:1030600036A0FDF741FCFF2008BD37A0FDF73CFC72
:10307000FF20F9E701226B21D020FFF777F8FF2826
:1030800004D134A0FDF730FCFF20EDE703221A2124
:10309000D020FFF76BF8FF2804D131A0FDF724FC06
:1030A000FF20E1E710221B21D020FFF75FF8FF2867
:1030B00004D12EA0FDF718FCFF20D5E700221C212B
:1030C000D020FFF753F8FF2804D12BA0FDF70CFC0C
:1030D000FF20C9E702223721D020FFF747F8FF2859
:1030E00004D128A0FDF700FCFF20BDE70022382115
:1030F000D020FFF73BF8FF2804D125A0FDF7F4FB13
:10310000FF20B1E700226A21D020FFF72FF8FF2827
:1031100004D11FA0FDF7E8FBFF20A5E7FEF7ECFCBC
:10312000FF2804D11DA0FDF7DFFBFF209CE74FF433
:10313000FA7003F075FD002096E700006572726F6B
:10314000722031410D0A00006572726F72203142A7
:103150000D0A00006572726F722031430D0A000083
:103160006572726F722031450D0A00006572726FD0
:10317000722031460D0A00006572726F722031476D
:103180000D0A00006572726F722031480D0A00004E
:103190006572726F722031490D0A00006572726F9C
:1031A0007220314B0D0A000010B502E0C82003F078
:1031B00037FDFFF745FFFF28F8D010BD00B585B0FB
:1031C0000121880300F04EFB0121084600F01AFBA4
:1031D0001020039000208DF810008DF812000120BF
:1031E0008DF8130002208DF8110003A91248FEF794
:1031F00024FB0421002000F0AFFC102000900020F0
:103200008DF804000C208DF8050001208DF80600D3
:103210006846FEF7F5F90A208DF8080002208DF8BF
:10322000090000208DF80A0001208DF80B0002A88B
:1032300000F02EFA05B000BD000002402DE9F0417B
:1032400004460D4616461F463B4632462946204652
:10325000FEF75CFEFF2805D103A0FDF745FBFF202C
:10326000BDE8F0810020FBE76572726F7220314A81
:103270000D0A00002DE9FC4704460D4616461F4680
:10328000DDE90A8948480078002872D000204649C4
:1032900008700E23454A3B21D020FFF7CFFF43485B
:1032A0000E30FEF76FFC414840784049097840EA0B
:1032B000012000B23E4908803C48C0783B498978EB
:1032C00040EA012000B23B4908803848407937493C
:1032D000097940EA012000B2374908803348407A32
:1032E0003249097A40EA012000B2344908802F4867
:1032F000C07A2E49897A40EA012000B2304908801C
:103300002A48407B2949097B40EA012000B22D4927
:1033100008800846B0F900002949B1F90010CDE94C
:1033200000102648B0F900302348B0F900202148A9
:10333000B0F900101E48B0F90000FFF73BFD22482D
:10334000808A20802048408D28801F48B0F84000A7
:1033500030801D48B0F8560038801B48B0F86C002B
:10336000A8F800001848B0F88200A9F8000018E09A
:10337000FFE71548808A20801348408D2880124836
:10338000B0F8400030801048B0F8560038800E4841
:10339000B0F86C00A8F800000B48B0F88200A9F85B
:1033A0000000BDE8FC8700001801002094260020E2
:1033B0000C0100200E01002010010020120100204D
:1033C0001401002016010020A826002010B5444852
:1033D000B0F900004249B1F90610084400EE100AA5
:1033E000B8EEC00AF0EE000A80EE201ABDEEC10A67
:1033F00010EE100A00B23B4908803948B0F90200CB
:103400003749B1F90810084400EE100AB8EEC00AB6
:10341000F0EE000A80EE201ABDEEC10A10EE100A8E
:1034200000B2304948802E48B0F904002C49B1F967
:103430000A10084400EE100AB8EEC00AF0EE000AC6
:1034400080EE201ABDEEC10A10EE100A00B2254926
:103450008880B7EE000A10EE100AC1F80600204876
:10346000B0F900001E49B1F90610401A00EE100A2A
:10347000F8EEC00A1A48B0F902001949B1F908106B
:10348000401A00EE100AB8EEC01A80EE810A10EE63
:10349000100A1449C1F80A001148B0F90000104997
:1034A000B1F90610401A00EE100AF8EEC00A0C48F6
:1034B000B0F904000A49B1F90A10401A00EE100AE6
:1034C000B8EEC01A80EE810A10EE100A0549C1F864
:1034D0000E005A20887404A0FDF706FA022010BDE1
:1034E0006E270020E42800204D61672D63616C6920
:1034F00020656E640000000010B54FF4704007496D
:103500000880488088804FF48050C88008814881B6
:1035100003A0FDF7E9F9022010BD00006E2700208E
:103520004D61672D63616C69207374617274000072
:1035300000BFFEE770B505460C46002C63D032484C
:103540000088844215D03C2C09DA3C2090FBF4F032
:10355000401E2E49088001202D49088007E00020E8
:103560002A4908803C2094FBF0F02949088026482D
:1035700004802848008825490988884205DA2548BA
:103580000088401C234908803DE000202149088034
:1035900000F048F82048008820490988084420495C
:1035A00049571B4A128801FB02001C49098890FBFD
:1035B000F1F201FB120018490880084640881749BB
:1035C0000988084416494957114A128801FB02002C
:1035D0001249098890FBF1F201FB12000E49488064
:1035E000084680880D49098801440D484057084A1B
:1035F000128800FB02100949098890FBF1F201FBD7
:1036000012000549888070BD7E00002080000020E7
:1036100084000020820000206C0000206800002050
:10362000767E000810B50C4800880C4A32F810105D
:103630000B4800F066FF08484088084A32F810102E
:10364000074800F060FF04488088044A32F81010F0
:10365000034800F05AFF10BD6C000020D01100207C
:103660000004004010B540F6B831A72000F044FD3A
:1036700010BD10B5FFF7D6FF10BD10B500F038FB38
:10368000FFF7F0FFFFF7F5FF10BD70477047000030
:1036900070B5002100230F22C4781CB3174C246896
:1036A00004F4E064C4F5E064C4F30721C1F1040448
:1036B000E3B20A4144789C40E1B28478144021434B
:1036C0000C07210E0E4C05786155047804F01F0597
:1036D0000124AC4005786D11AD0005F1E025C5F879
:1036E000004109E0047804F01F050124AC40054DB9
:1036F0000678761145F8264070BD00000CED00E01C
:1037000000E400E080E100E002490143024A116068
:10371000704700000000FA050CED00E09FED2B0A59
:103720002B4880ED000A9FED2B0A80ED010A9FEDEA
:10373000290A80ED020A9FED270A80ED030A9FED1A
:10374000250A80ED040A9FED240A80ED0A0A9FED08
:10375000230A80ED0B0A9FED220A224880ED000A21
:103760009FED1C0A80ED010A9FED1F0A80ED020A01
:103770009FED180A80ED030A9FED160A80ED040AFA
:103780009FED1A0A80ED0A0A9FED190A80ED0B0AD7
:10379000B2EE040A174880ED000A9FED0E0A80ED94
:1037A000010A9FED150A80ED020A9FED0A0A80EDDD
:1037B000030A9FED080A80ED040A9FED100A80EDD0
:1037C0000A0A9FED050A80ED0B0A7047CDCCCC3D6F
:1037D000302900200000000000C00F4500401C45BB
:1037E00000008C42CC2900200000C8420000FA43AF
:1037F00000009644002A002000007A440000FA44A9
:103800007047000029B1064A12680243044B1A604F
:1038100004E0034A12688243014B1A6070470000BB
:103820003038024029B1064A12680243044B1A603C
:1038300004E0034A12688243014B1A60704700009B
:103840004038024029B1064A12680243044B1A600C
:1038500004E0034A12688243014B1A60704700007B
:103860002038024029B1064A12680243044B1A600C
:1038700004E0034A12688243014B1A60704700005B
:103880004438024029B1064A12680243044B1A60C8
:1038900004E0034A12688243014B1A60704700003B
:1038A00024380240F0B50021002200240225002621
:1038B0000223324F3F6807F00C0121B1042905D0E3
:1038C000082937D105E02E4F076036E02D4F0760FD
:1038D00033E02A4F3F1F3F68C7F38056274F3F1FF3
:1038E0003F6807F03F036EB1264FB7FBF3F7DFF8F1
:1038F0008CC0ACF1040CDCF800C0CCF3881C07FBD6
:103900000CF40CE01E4FB7FBF3F7DFF870C0ACF11E
:10391000040CDCF800C0CCF3881C07FB0CF4174F38
:103920003F1F3F68C7F301477F1C7D00B4FBF5F7DD
:10393000076002E0124F076000BF00BF0F4F3F68F3
:1039400007F0F0010909104F7A5C0768D74047601B
:103950000A4F3F6807F4E051890A0B4F7A5C4768C9
:10396000D7408760054F3F6807F46041490B064F19
:103970007A5C4768D740C760F0BD00000838024055
:103980000024F40000127A002A01002010B52DED69
:10399000048B0446B4F90010A1F5806003F01BFE0F
:1039A00041EC190B9FED2D0B53EC102B03F07AFE1D
:1039B00041EC180B03F0B2FD2A490860B4F902107B
:1039C000481E03F008FE41EC190B9FED240B53EC4D
:1039D000102B03F067FE41EC180B03F09FFD21490B
:1039E00048602148406B096808441F4948630846FD
:1039F000806B1C49496808441B4988630846406B32
:103A0000B0F5FA7F03D84FF4FA70486308E016481F
:103A1000406BB0F5166F03D34FF41660124948633C
:103A20001148806BB0F5FA7F04D84FF4FA700E4954
:103A3000886308E00C48806BB0F5166F03D34FF431
:103A40001660094988630848406B06498860064843
:103A5000806BC860BDEC048B10BD00009A999999E9
:103A60009999B93F7C2A00200000014010B5044616
:103A700004B910BD2078617840EA0120C0F30A0043
:103A80002F4908806078C010A17840EA4110C0F347
:103A90000A002B494880A0788011E17840EA810033
:103AA000217940EA8120C0F30A00254988802079E5
:103AB0004010617940EAC110C0F30A002049C88073
:103AC00060790011800808726079C0F301104872B3
:103AD000A079E17940EA012000B219494881207AB1
:103AE000617A40EA012001B215488181A07AE17A29
:103AF00040EA012001B21248C181217B8174617BBF
:103B0000C174A07B0E498882084600F059F8FDF781
:103B100015FF012804D002280DD003280CD103E0A2
:103B20000748FFF733FF07E005491431A1F10A0008
:103B3000FFF7ABFD00E000BF00BF00BF99E700004A
:103B4000342A0020024909688143014A1160704704
:103B5000400100207047000030B500228B071C0F89
:103B60000F2303FA04F20B4B8C1053F824309343C9
:103B7000084C8D1044F8253023468C1053F824301F
:103B80008C07240F00FA04F42343024C8D1044F8F0
:103B9000253030BD0838014010B50446132204F129
:103BA00024010548FCF7E0FE132204F13701034825
:103BB000FCF7DAFE10BD0000F72800201D290020C8
:103BC000417A012902D1074A11700AE0417A03299A
:103BD00002D1044A117004E0417A022901D1014A5C
:103BE000117070476401002010B5044634B11322EF
:103BF00021460348FCF7B8FEFDF7CAF810BD0000E7
:103C00009E2800200CB500200190009034480068E8
:103C100040F480303249086000BF3148006800F449
:103C2000003000900198401C0190009818B901984C
:103C3000B0F5A04FF1D12A48006800F4003010B16F
:103C40000120009001E0002000900098012846D15A
:103C500023484030006840F08050214940310860DE
:103C60002048006840F440401E4908601C48083065
:103C700000681B49083108600846006840F40040AD
:103C800008600846006840F4A05008601648091F04
:103C90000860081F006840F08070091F086000BFBE
:103CA0000F48006800F000700028F9D040F205705D
:103CB0000E4908600A480830006820F003000849EF
:103CC000083108600846006840F00200086000BF44
:103CD00003480830006800F00C000828F8D10CBD3B
:103CE000003802400070004008544007003C024089
:103CF00010B52DED108B84B000244FF4966051491F
:103D0000088008460088032190FBF1F04E490880A6
:103D100000204E490880084600884B49098808441D
:103D20004A49488008464088474909880844474925
:103D30008880002046490880084600884249098852
:103D4000084443494880084640883F490988084458
:103D50003F49888000203F490880084600883A494A
:103D6000098808443B494880084640883649098804
:103D700008443849888000BF5BE03248008803F07F
:103D800041FC41EC1E0B601C03F025FC41EC1F0BB9
:103D90009FED310B53EC102B03F084FC53EC1E2BE6
:103DA000CDE900019DED000B51EC100B03F05EFA24
:103DB00041EC1D0B9FED2A0B53EC102B03F072FC12
:103DC00041EC1C0B9FED280B53EC102B03F06AFC0D
:103DD00041EC1B0BB0EE4B0AF0EE6B0A02F0A0F9BF
:103DE000B0EE40AAF0EE60AA9FED1B0B53EC102B37
:103DF00051EC1A0B03F07EF941EC190B9FED1C0BF3
:103E000053EC102B03F04EFC41EC180B9FED1A0BFA
:103E100053EC102B03F02AFACDE902019DED020BC1
:103E200051EC100B03F0AAFB154921F81400601C9B
:103E300084B20448008884429FDB04B0BDEC108B40
:103E400010BD0000680000206A0000206C00002007
:103E50007200002078000020000000000000F03F09
:103E60000000000000000040182D4454FB210940D0
:103E7000000000000070A74000000000000010409B
:103E8000D0110020042808D14FF0E021096941F049
:103E900004014FF0E022116107E04FF0E0210969D1
:103EA00021F004014FF0E022116170477FB56846B0
:103EB000FFF7F8FC4FF47A710198B0FBF1F4E408D5
:103EC0002146481EB0F1807F00D31BE0481E4FF012
:103ED000E022506150170F22002807DA13071E0E48
:103EE0000B4B00F00F052D1F5E5503E013071D0E51
:103EF000084B1D5400BF00204FF0E02290610720C6
:103F0000106100BF6FF00400FFF7BCFF7FBD000031
:103F100018ED00E000E400E010B504480068401C23
:103F20000249086003F05EF810BD00005400002054
:103F300010B51548006840F4700013490860134834
:103F4000006840F001001149086000200F49083165
:103F500008600E4800680E4908400C4908600D488A
:103F6000091D0860081F006820F48020091F0860F0
:103F7000002006490C310860FFF744FE4FF0006056
:103F800001498039086010BD88ED00E0003802402A
:103F9000FFFFF6FE1030002430B58BB005460C460E
:103FA00001210846FFF75EFC01211020FFF72AFCE3
:103FB000012209213748FDF788FC01220B213548F1
:103FC000FDF783FC01220D213248FDF77EFC012222
:103FD0000E213048FDF779FC4FF4D44009900220BF
:103FE0008DF8280000208DF82A0001208DF82B0084
:103FF00003208DF8290009A92648FDF71EFCA8B268
:10400000ADF818000020ADF81A000794ADF82000B4
:104010008DF8220006A9204800F07AFA6020ADF859
:1040200004000120ADF806000020ADF80800ADF84E
:1040300010000820ADF812000020ADF81400039025
:104040000821154800F050F901A9134800F00EF9B5
:104050000821114800F0A4F901A90F4800F04EF919
:1040600008210D4800F0FAF901A90B4800F0A6F963
:104070000821094800F038FA01A9074800F0F8F9CA
:104080000121054800F0C6F80121034800F0CEF8F0
:104090000BB030BD00100240000001400EB5012100
:1040A0000846FFF7BFFB4FF0FF3001905320ADF8FB
:1040B00000000020ADF80800ADF8020001218807DB
:1040C00000F096F869464FF0804000F021FA012197
:1040D000880700F09FF80EBD10B50121880700F099
:1040E000B4F838B10121880700F091F80121880760
:1040F00000F08AF810BD000030B58BB005460C46C4
:1041000001210220FFF78EFB01210420FFF77AFB3B
:10411000022206213448FDF7D8FB0222072132484B
:10412000FDF7D3FB022208212F48FDF7CEFB022228
:1041300009212D48FDF7C9FB4FF47070099002204A
:104140008DF8280001208DF82B0003208DF8290020
:1041500009A92548FDF771FBA8B2ADF818000020A9
:10416000ADF81A000794ADF820008DF8220006A9DA
:104170001E4800F0CDF96020ADF804000120ADF834
:1041800006000020ADF80800ADF810000820ADF8DA
:1041900012000020ADF8140003900821134800F02D
:1041A000A3F801A9114800F061F808210F4800F0B8
:1041B000F7F801A90D4800F0A1F808210B4800F01C
:1041C0004DF901A9094800F0F9F80821074800F065
:1041D0008BF901A9054800F04BF90121034800F0D3
:1041E00019F80BB030BD0000000802400004004088
:1041F00021B1028842F08002028004E002884FF67A
:104200007F731A4002807047CA4302827047CA43D4
:104210000282704721B1028842F00102028004E06C
:1042200002884FF6FE731A400280704731B1B0F831
:10423000442042F40042A0F8442005E0B0F84420B5
:10424000C2F30E02A0F84420704730B502460020A9
:1042500000230024158A05EA0103958905EA010473
:1042600013B10CB1012000E0002030BD70B5002476
:1042700000220023058C4FF6FE7635400584028C23
:104280008388048B4FF68F752C40B51E2C400D880B
:104290002C43751E2A408D892A434D882A43104D90
:1042A000A84202D00F4DA84213D14FF6F7752A400D
:1042B000CD892A434FF6FB752A408D882A434FF655
:1042C000FF652B404FF6FF552B400D8A2B434D8A3F
:1042D0002B43838004838D684563028470BD000096
:1042E00000000140000401400A460021018B4FF606
:1042F000F7731940114301837047000070B5002423
:1043000000220023058C4FF6EF7635400584028CA1
:104310008388048B48F6FF752C404FF6FF452C40F0
:104320000D884FF6FF7606EA05252C434FF6DF751C
:104330002A408D8906EA05152A434D8806EA0515A7
:104340002A43154DA84202D0144DA8421DD14FF664
:104350007F752A40CD894FF6FF7606EA05152A4378
:104360004FF6BF752A408D8806EA05152A434FF699
:10437000FF352B404FF2FF752B400D8A06EA85056D
:104380002B434D8A06EA85052B43838004838D6881
:104390008563028470BD00000000014000040140FC
:1043A0000A460021018B4FF2FF7319404FF6FF734D
:1043B00003EA0223194301837047000070B500240B
:1043C00000220023058C4FF6FF6635400584028CE1
:1043D0008388848B4FF68F752C404FF6FC752C40EC
:1043E0000D882C434FF6FF552A408D894FF6FF76F6
:1043F00006EA05252A434D8806EA05252A43154D78
:10440000A84202D0144DA8421DD14FF2FF752A4098
:10441000CD894FF6FF7606EA05252A434FF6FF358C
:104420002A408D8806EA05252A434EF6FF752B4063
:104430004DF6FF752B400D8A06EA05152B434D8A74
:1044400006EA05152B43838084838D68C563028447
:1044500070BD000000000140000401400A46002138
:10446000818B4FF6F7731940114381837047000029
:1044700070B5002200230024058C4EF6FF763540EF
:104480000584038C8488828B48F6FF752A404FF69A
:10449000FF452A400D884FF6FF7606EA05252A4398
:1044A0004DF6FF752B408D8906EA05352B434D8867
:1044B00006EA05352B430A4DA84202D0094DA84211
:1044C00008D14BF6FF752C400D8A4FF6FF7606EAB1
:1044D00085152C43848082838D680564038470BDB8
:1044E00000000140000401400A460021818B4FF288
:1044F000FF7319404FF6FF7303EA022319438183C8
:1045000070474163704781637047C1637047000023
:1045100000220288184B98420ED0184B98420BD0BC
:10452000B0F1804F08D0164B984205D0154B9842F9
:1045300002D0154B984204D14FF68F731A404B8826
:104540001A43124B984207D0114B984204D04FF6B1
:10455000FF431A400B891A4302804B68C3620B88E1
:104560000385054B984202D0044B984201D18B7AC7
:10457000038601238382704700000140000401404C
:104580000004004000080040000C00400010004003
:104590000014004010B596B0044601210220FFF738
:1045A00031F901218805FFF72DF901211020FFF7CE
:1045B00059F9072211464348FDF787F914A8FDF77A
:1045C000B4F98020149002208DF8540000208DF85A
:1045D000550001208DF8570014A93A48FDF72DF930
:1045E000394800F083F910A800F0B2FA10940020C6
:1045F000ADF84400ADF846004FF48060ADF84800D7
:104600000420ADF84A000020ADF84C0010A92E4857
:1046100000F034FA00F05EF8012240212A4800F050
:104620005CF92A48FCF7A6FD6846FCF7ADFE4FF0A2
:10463000006000902448001D019025480290002051
:1046400003901E200490002005904FF48060069097
:104650000020079008904FF48070099000020A90A3
:1046600000200B900C900D900E9069461748FCF7B7
:104670005DFE002216491E311448FCF732FE01216E
:104680001248FCF723FE01211048FCF767FD2520A6
:104690008DF83C0000208DF83D008DF83E00012093
:1046A0008DF83F000FA8FEF7F3FF012240F22441EE
:1046B000054800F0BDF90121034800F002F916B0E9
:1046C00010BD0000000402400010014040640240A0
:1046D0008C2A002010B50723122202490248FBF75A
:1046E000D9FD10BDC82A00209C2B002010B540F237
:1046F0002441284800F072F9002849D02548008854
:10470000244880882448FCF706FE00BB002122488C
:10471000FCF724FD2048FCF7FAFDC0F11E001F49FC
:1047200008601E201C49091D0860081F006840F42D
:104730000020091F086001211748FCF70FFD1748EA
:104740000068122824D11648FFF790F920E00021D4
:104750001148FCF703FD1048FCF7D9FDC0F11E001D
:104760000E4908601E200C49091D0860081F0068DA
:1047700020F40020091F086001210748FCF7EEFC27
:1047800006480068122803D105481E30FFF76EF96D
:1047900010BD000000100140406402406C01002088
:1047A0008C2A002010B51C48008800F0080018B1C1
:1047B0001948001D0088C4B240F22551164800F087
:1047C0000DF940B140F22551134800F05BF8124852
:1047D000001D0088C4B240F227710F4800F0FEF8B7
:1047E000C0B10E4801780078401C0C4A10700C488B
:1047F000405C0949091D088010460078094909787C
:10480000884207D104480C30008820F0800002491B
:104810000C31088010BD00000044004086000020DC
:10482000D02100208700002010B5114800881149D0
:1048300008700F48001F0088087000210E48FCF720
:104840008DFC01200D4908700D490B48FCF76CFCEC
:1048500000BF0948FCF751FD0028FAD14FF4007160
:104860000548FCF78FFD01210348FCF777FC10BDDC
:10487000044800401E010020286002401A01002068
:10488000000C001010B50022002340F66A14A1426B
:1048900000D100BF0A1201249440A3B2DC4304807B
:1048A00010BD10B502460020108A20F470600B88FD
:1048B0004C8823438C882343CC882343184310829D
:1048C00010BD21B1828942F40052828104E08289C4
:1048D0004DF6FF731A40828170471AB1838A0B43E9
:1048E000838202E0838A8B438382704710B504463B
:1048F0003248844208D101211020FEF7C3FF002175
:104900001020FEF7BFFF57E02D48844209D1012156
:104910004804FEF797FF00214FF40030FEF792FFA6
:104920004AE02848844209D101218804FEF78AFF21
:1049300000214FF48020FEF785FF3DE022488442AD
:1049400009D10121C804FEF77DFF00214FF40020AA
:10495000FEF778FF30E01D48844209D101210805A7
:10496000FEF770FF00214FF48010FEF76BFF23E08D
:104970001748844208D101212020FEF783FF00213F
:104980002020FEF77FFF17E01248844209D1012161
:104990008807FEF757FF00214FF08040FEF752FFD7
:1049A0000AE00D48844207D101214005FEF74AFF85
:1049B00000216005FEF746FF10BD00000010014019
:1049C0000044004000480040004C004000500040BF
:1049D0000014014000780040007C004070B50246A1
:1049E000002400230025002040F66A16B14200D1C1
:1049F00000BFC1F3421501F01F03012606FA03F3BD
:104A0000012D02D19689334006E0022D02D1168A8B
:104A1000334001E0968A33400C12012606FA04F472
:104A20001688344013B10CB1012000E0002070BDA5
:104A3000F0B50346002400260025002040F66A1742
:104A4000B94200D100BF1846C1F3421401F01F065D
:104A5000012707FA06F5012C01D10C3004E0022CE5
:104A600001D1103000E014301AB107682F430760FD
:104A700002E00768AF430760F0BD00002DE9FF4783
:104A800005460E460024A14600BFA046B08900B1ED
:104A900000BF2C8A24F44054F08804432C82AC8953
:104AA00041F20C608443B08831890843718908431E
:104AB0000443AC81AC8A24F44074B0890443AC82D2
:104AC0006846FEF7EFFE2048854202D01F48854227
:104AD00002D1DDF80C9001E0DDF80890A88900F41F
:104AE000004040B109EBC90000EB091031684900F2
:104AF000B0FBF1F707E009EBC90000EB09103168E2
:104B00008900B0FBF1F76420B7FBF0F00401200945
:104B1000642101FB1078A88900F4004040B13220E4
:104B200000EBC800B0FBF1F000F00700044308E020
:104B3000322000EB08106421B0FBF1F000F00F0010
:104B400004432C81BDE8FF870010014000140140A0
:104B50004FF41651016000218180C18001810C2138
:104B6000418100218181704700BFFEE710B58AB006
:104B7000044601214804FEF755FE01210820FEF7F6
:104B800041FE26208DF80C0002208DF80D0000203B
:104B90008DF80E0001208DF80F0003A8FEF778FDB8
:104BA000072205212B48FCF790FE07220621294801
:104BB000FCF78BFE2020019002208DF808008DF874
:104BC000090000208DF80A0001208DF80B0001A9D2
:104BD0002048FCF732FE4020019002208DF80800AA
:104BE0008DF8090001208DF80A0000208DF80B00D7
:104BF00001A91848FCF721FE06940020ADF81C001E
:104C0000ADF81E00ADF82000ADF824000C20ADF882
:104C100022000020ADF81000ADF812004FF4007033
:104C2000ADF814000020ADF8160006A90A48FFF7F9
:104C300025FF04A90848FFF734FE012240F2255160
:104C40000548FFF7F5FE01210348FFF73AFE0AB0D9
:104C500010BD0000000C02400044004003B4019865
:104C60004100009850EAC12018BF04204A0D18BF27
:104C700040F0010040F2FF72B2EB515F08BF40F01C
:104C80000200012808BF052002B0704700000000A4
:104C900070B5C1482DED020B2DED0E8B82B0119D2C
:104CA00025F000449FEDBEDB9FEDBFEB84423EDB71
:104CB000A4F140511098A1F17F6108430FD0BC4886
:104CC000844202DC28D1109830B39DED100B02B065
:104CD000BDEC0E8B02B0BDE8704001F0C5BE9DED8D
:104CE000100B53EC1D2B51EC100B02F0DBFC9DED77
:104CF000100B41EC180B53EC1E2B51EC100B02F077
:104D0000D1FC53EC182B02F0F5F941EC100B02B07A
:104D1000BDEC0E8B02B070BD0120FBF7F8FE02B0B7
:104D2000BDEC0E8B02B0BDE8704001F0B1BEA148F1
:104D30009FEDA18B844256DA9DED100BB4F1795FA3
:104D40000ADA51EC100BFFF789FF042808BF01F0C5
:104D5000BFFE9DED100BDAE753EC102B51EC100B5E
:104D600002F0A0FC41EC190B95480621B0EE490A6F
:104D7000F0EE690A784401F04BFD53EC192B51EC2D
:104D8000100B02F08FFC41EC1A0B8E48B0EE490A72
:104D9000F0EE690A0421784401F03AFD53EC192B36
:104DA00051EC100B02F07EFC53EC182B02F0A2F930
:104DB00041EC100B51EC1A0B53EC102B02F056FA8D
:104DC000CDE900019DED000B53EC102B9DED100B78
:104DD00051EC100B02F066FC9DED101B53EC112BF7
:104DE00002F088F9D2E09DED100B51EC100B01F0B0
:104DF0007FFF53EC182B02F089FD9FED730BCDE97B
:104E0000000153EC102B9DED000B51EC100B02F048
:104E100049FC41EC190B6E480621B0EE490AF0EE50
:104E2000690A784401F0F4FC53EC192B51EC100B97
:104E300002F038FC41EC1B0B6648B0EE490AF0EE7C
:104E4000690A0421784401F0E3FC53EC192B51EC7E
:104E5000100B02F027FC53EC182B02F04BF941EC3D
:104E60001C0B51EC190B02F085F841EC180B5A4859
:104E70009FED5BABA04222DC53EC1C2B51EC1B0BD7
:104E800002F0F4F9CDE900019DED000B51EC180B97
:104E900053EC102B02F006FC53EC182B02F02AF90D
:104EA00053EC1A2B02F0FEFB53EC1D2B02F006FE16
:104EB00053EC1E2B02F02AFD41EC100B5FE08DED50
:104EC000008B002000909DED000B51EC180B53EC73
:104ED000102B02F00FF99DED000B41EC1E0B53EC73
:104EE000102B51EC100B02F0DDFB53EC192B02F0F0
:104EF0000DFD53EC1E2B02F0B9F941EC190B53ECEC
:104F00001C2B51EC1B0B02F0B1F941EC1B0B53ECC9
:104F10001A2B51EC190B02F0C5FB53EC1D2B02F0C0
:104F2000F5FC41EC190B53EC1A2B51EC180B02F069
:104F3000B9FB53EC1B2B02F0B5FB53EC192B02F021
:104F4000BDFD9DED000B41EC180B53EC1A2B51EC01
:104F5000100B02F0A7FB9FED249B53EC192B02F0E2
:104F6000D5FC41EC100B51EC180B53EC102B02F05C
:104F7000A5FD53EC192B02F0C9FC41EC100B002DE0
:104F80003FF7C5AE51EC100B02F076F841EC100B78
:104F9000BDE60000000000000000F03F000000003F
:104FA000075C143326A6913C182D4454FB21F93F8D
:104FB0000000F07F0000E03F000000000000F03F34
:104FC000003100000E310000000000000000E03F52
:104FD00052300000603000003333EF3F000000002B
:104FE0000000000000000040182D4454FB21E93F60
:104FF00070B59B482DED020B2DED068B079D25F01E
:105000000044A04218DC9748844202DC0AD106988A
:1050100040B19DED060BBDEC068B02B0BDE87040C3
:1050200001F022BD002DCCBF9FED8F0B9FED900BAB
:10503000BDEC068B02B070BD8F48A04215DD8F48D5
:10504000A042D8BF4FF0FF3458DD9DED060B51EC68
:10505000100BFFF703FE042808BF01F039FD9DED9A
:10506000060BBDEC068B02B070BD9DED060B51EC3E
:10507000100B01F03DFECDE9060181489FED828BCA
:10508000A0423CDD8248A0421FDD00249FED82ABA0
:105090009DED060B53EC1A2B51EC100B02F02AF885
:1050A0009DED060B41EC190B53EC1A2B51EC100B38
:1050B00002F0F8FA53EC182B02F000FD53EC192B18
:1050C00002F0D4F8CDE9060149E09DED060B01247C
:1050D00053EC182B51EC100B02F00CF89DED060B65
:1050E00041EC190B53EC182B51EC100B02F0E6FCC1
:1050F00053EC192B02F0BAF8CDE906012FE068480D
:10510000A0421FDD02249FED689B9DED060B53EC32
:10511000192B51EC100B02F0C5FA53EC182B01F0CF
:10512000E9FF9DED060B41EC180B53EC192B51ECEC
:10513000100B02F0C3FC53EC182B02F097F8CDE9EA
:1051400006010CE09DED060B032453EC102B9FEDA4
:10515000580B51EC100B02F089F8CDE906019DEDDA
:10516000060B53EC102B51EC100B02F09BFA41ECA8
:10517000180B53EC182B02F095FA41EC190B4E4822
:105180000621B0EE490AF0EE690A784401F040FBCE
:1051900053EC182B51EC100B02F084FA41EC180B75
:1051A0004648B0EE490AF0EE690A0521784401F05C
:1051B0002FFB53EC192B51EC100B02F073FA41EC5E
:1051C000100B51EC180B53EC102B002C0EDA01F0E5
:1051D00091FF9DED061B53EC112B02F063FA9DED40
:1051E000061B53EC112B02F091FB35E001F082FF1E
:1051F0009DED061B53EC112B02F054FA41EC100B01
:105200002F48784400EBC40090ED001B51EC100BCC
:1052100053EC112B02F052FC9DED061B53EC112BAD
:1052200002F04CFC41EC100B2648784400EBC40023
:1052300090ED001B51EC100B53EC112B02F066FBB0
:1052400041EC100B002DA2BFBDEC068B02B070BD6F
:1052500051EC100B01F010FF41EC100B01E70000C6
:10526000000010440000F07F182D4454FB21F93F4A
:10527000182D4454FB21F9BF0000DC3F0000203E04
:105280000000F33F00000000000000000000F03FBD
:105290000000E63F000000000000000000000040A9
:1052A0000080034000000000000000000000F83F04
:1052B000000000000000F0BF2A2E0000E02D0000DA
:1052C0006A2D0000222D000070B56B4E2DED040BF1
:1052D0002DED028B82B0DDF81CC0DDE905235C42B8
:1052E0002CF000411C4341EAD474049D22F000409C
:1052F000B44205D86C422C4340EAD474B4420BD972
:105300009DED061B9DED040B02B0BDEC028B04B0BD
:10531000BDE8704001F0B2BBACF14054A4F17F6431
:105320001C430BD0022404EAAC7444EAD274054353
:105330009FED538B9FED542B07D015E09DED040B93
:1053400051EC100B01F0D8FB42E0002C11BF012CF6
:105350009DED040B02B0BDEC028B04BF04B070BD28
:10536000022C38D0032C3BD00B439FED491B9FED03
:105370004A0B0AD0B14218D1B04209D121F0804184
:1053800020F08040079105900FE0002A15DA10E028
:10539000434B7B44002C08BF93ED000B0DD0012C38
:1053A00010D0022C17D0032C1AD0B0421DD1002AE5
:1053B00003DAB0EE410AF0EE610A02B0BDEC028BF6
:1053C00004B070BD93ED000B51EC100B01F054FED6
:1053D00041EC100BF1E7B0EE480AF0EE680AECE79A
:1053E000B0EE420AF0EE620AE7E7401A00153C28E8
:1053F000C8BF8DED000B19DCBCF1000FBEBF10F172
:105400003C0F9FED290B8DED000B0FDB9DED060B87
:1054100053EC102B9DED040B51EC100B01F026FF0B
:1054200001F066FC01F068FBCDE90001002C08BF2B
:105430009DED000BC1D0012C10D0022C9FED1C0B58
:1054400053EC102B9DED000B51EC100B0DD002F026
:1054500035FB53EC182B02F031FBB9E7019880F0D3
:10546000004001909DED000BA7E702F027FB53ECF5
:10547000182B02F04BFAABE70000F07F00000000B1
:10548000182D4454FB210940182D4454FB2109C018
:10549000182D4454FB21F9BF182D4454FB21F93F2A
:1054A000822C00000000000000000000000000004E
:1054B000075C143326A6A13C2DED020B019820F0C9
:1054C000004001909DED000B02B07047000000000D
:1054D0002DE9F04D2DED040B2DED0E8B96B0DDE991
:1054E0002550279CDDF890A025F0004624F00048C8
:1054F000BAF1000F14BF0121002101EB4502FC4964
:1055000053184A1093422AD3002814BF01230023C2
:1055100003EB44030B44F7498B4220D358EA0001C4
:105520009FEDF59B76D0DFF8D8B35D4503D1BAF196
:10553000000F05D188E0BAF1000F08BF002100D0AC
:10554000012101EB450111F5001F08D8002814BF07
:105550000121002101EB440111F5001F0BD99DED44
:10556000261B9DED240B16B0BDEC0E8B04B0BDE8E0
:10557000F04D01F083BA0027002DBCBFE1498845FA
:1055800021DAE1498845A8BF02271CDAC3451ADCA5
:10559000DE4901EB2851142908DDC1F1340220FA5B
:1055A00002F101FA02F282420DD108E058B9C1F1CC
:1055B000140228FA02F101FA02F2424503D101F085
:1055C0000101C1F1020756EA0A0124D1002C22DAB6
:1055D000002D18BF022F01D0012F0AD00220FBF7A7
:1055E00096FA16B0BDEC0E8B04B0BDE8F04D01F09C
:1055F00023BA0220FBF78BFA01F01EFA51EC100BD4
:1056000001F03AFD41EC100B16B0BDEC0E8B04B06E
:10561000BDE8F08D18E09FEDBEAB9FEDBF8B00287D
:1056200071D1B848804522D105F1804010F5801035
:1056300008BFBAF1000F07D0B3450ADC002CA8BFA1
:105640009DED260BE0DA0DE0B0EE490AF0EE690AB6
:10565000DAE7002C06DA9DED260B51EC100B01F079
:105660000BFD6FE0AE48784490ED000BCCE7D845D9
:105670004DD1002C48DA2EB186423AD1BAF1000F52
:1056800042D126E0BAF1000F13D00220FBF73FFA17
:1056900001F00EFA8DED020B9DED240B8DED000B4C
:1056A00010EE900A039961F31E0003909DED020B2A
:1056B000AAE78DED02AB9DED240B1AEE901A10EEC9
:1056C000900A8DED000B61F31E0003909DED020B1F
:1056D0009AE78DED028B9DED240B18EE901A10EEDB
:1056E000900A8DED000B61F31E0003909DED020BFF
:1056F0008AE709DA9DED240B51EC190B53EC102BC2
:1057000001F0B4FD1EE020E09DED240B7CE7864215
:105710001BDAB4F1804F0DD0A4F10050B0F1FF506E
:1057200013D1002D11DB9DED240B51EC100B01F07A
:1057300021FC07E09DED240B53EC102B51EC100BDA
:1057400000F0C2BC41EC100B5EE79DED240B51EC68
:10575000100B01F0CDFABAF1000FCDE90E0142D1E4
:105760009FED710B46B3A6F1E040B0F17F600CD025
:105770005E4538D1002D00DAA7B3022F0CBF0120FF
:105780004FF0FF3001F027FFDCE7002D01DD002C9A
:105790000DDA002D01DD002C1FDB002D16DA002CA8
:1057A00014DB012F08BF9FED620B3FF42DAFB0EE6D
:1057B0004A0AF0EE6A0A27E7022F18BF002D0CD024
:1057C000012F0AD1002DFFF61FAF06E0002DB8BF54
:1057D000002C08DA012F3FF417AFB0EE480AF0EEC4
:1057E000680A11E71BE0012000EBE57050EA0701B1
:1057F00015D0791EB0EE498AF0EE698A084308BFD9
:105800009FED4D8B4E480025804570DD4D494E483B
:10581000884514DDB0420DDB002C19DB2FE00120A0
:10582000FBF775F916B0BDEC0E8B04B0BDE8F04D7A
:1058300001F02EB9B34502DC002C09DC1FE08642E2
:1058400002DA002C1BDA03E05E452BDD002C16DDAE
:105850000220FBF75CF901F02BF98DED020B53EC04
:105860001A2B51EC180B01F01DFFCDE90001039933
:10587000019861F31E0003909DED020BC4E6022027
:10588000FBF745F901F024F910EE901A18EE900A92
:105890008DED020B8DED008B61F31E0003909DEDED
:1058A000020BB1E69DED0E0B53EC192B51EC100BD6
:1058B00002F004F99FED260BCDE9080153EC102B03
:1058C0009DED080B51EC100B01F0ECFE9FED221B3F
:1058D00053EC112B02F01AF89DED081B53EC112B21
:1058E00001F0E0FE9FED1E1B53EC112B3CE08CE021
:1058F000FFFF1F00FFFF0F00000000000000F03F4F
:105900000000F03F0000F07F0000404301FCFFFF7B
:10591000000000000000F07F000000000000000018
:10592000AE29000000000000000000000000008020
:10593000000000000000F0FF000000000000F0BFC9
:105940000000E0410000F043FFFFEF3F00000000D7
:10595000000000000000D03F555555555555D53F26
:10596000000000000000E03F01F0D0FF9DED080BBB
:1059700041EC1A0B53EC102B51EC100B01F092FE82
:1059800053EC1A2B01F08EFE41EC1A0B9FEDFE0B2F
:1059900053EC102B9DED080B51EC100B01F082FE27
:1059A00041EC1B0B9FEDFA0B51EC1A0B53EC102B37
:1059B00001F078FE41EC1A0B9FEDF70B53EC102B26
:1059C0009DED080B51EC100B01F06CFE53EC1A2B03
:1059D00002F074F841EC1A0B51EC1B0B53EC1A2B30
:1059E00001F088FB0690CDE906519DED060B53ECC6
:1059F0001B2B51EC100B02F061F853EC1A2B01F049
:105A000085FF41EC100B00F0A1B90020B6F5801F16
:105A10000EDA9FEDE30B53EC102B9DED0E0B51ECCA
:105A2000100B01F03FFECDE90E016FF034000E4681
:105A300000EB2650A0F2FF37C6F31300DA4940F01E
:105A40007F6646F040568842D8BF002408DDD7491B
:105A50008142C8BF012403DC0024A6F580167F1C08
:105A6000D348784400EBC4000F9690ED00CB9DED39
:105A70000E0B53EC1C2B51EC100B02F01FF89DED9C
:105A80000E0B41EC1B0B53EC1C2B51EC100B01F0DB
:105A900031FB41EC100B51EC190B53EC102B01F0C6
:105AA000E5FB41EC1D0B51EC1B0B53EC1D2B01F0E6
:105AB000F9FD41EC1A0BBF488DED10AB7844109501
:105AC00090ED000B4FF0005040EA660000EB844080
:105AD0008DED080B00F5002009909DED080B53ECAF
