:020000040800F2
:100000006832002041020008F73000083D1A00085D
:100010009D2F0008EF1100087F3E0008000000003F
:10002000000000000000000000000000D1320008C5
:100030006B1200080000000085310008213600081E
:100040005B0200085B0200085B0200085B0200081C
:100050005B0200085B0200085B0200085B0200080C
:100060005B0200085B020008FD1300085B02000849
:100070005B0200085B0200085B0200085B020008EC
:100080005B0200085B0200085B0200085B020008DC
:100090005B0200085B0200085B0200085B020008CC
:1000A0005B0200085B0200085B0200085B020008BC
:1000B000DD3600085B0200085B0200085B020008F6
:1000C0005B0200085B0200085B0200085B0200089C
:1000D0005B020008E53B00085B0200086D3C00087D
:1000E0005B0200085B0200085B0200085B0200087C
:1000F000F53700085B0200085B0200085B0200089D
:100100005B0200085B0200085B0200085B0200085B
:100110005B0200085B0200085B0200085B0200084B
:100120005B0200085B0200085B0200085B0200083B
:100130005B0200085B0200085B0200085B0200082B
:100140005B0200085B0200085B0200085B0200081B
:100150005B0200085B0200085B0200085B0200080B
:100160005B0200085B0200085B0200085B020008FB
:100170005B0200085B0200085B0200085B020008EB
:100180005B0200085B02000800F002F800F049F88A
:100190000AA090E8000C82448344AAF10107DA45E2
:1001A00001D100F03EF8AFF2090EBAE80F0013F0EB
:1001B000010F18BFFB1A43F001031847306200001B
:1001C00050620000103A24BF78C878C1FAD85207AC
:1001D00024BF30C830C144BF04680C6070470000C1
:1001E0000023002400250026103A28BF78C1FBD840
:1001F000520728BF30C148BF0B607047662905F021
:10020000A087002070471FB505F091FF00F0B2FAFB
:1002100004000020002105F07DF9E0601FBD10B54D
:1002200010BD00F0BBFB1146FFF7EDFF04F0BAFF75
:1002300000F0D9FB03B4FFF7F2FF03BC04F010FF9A
:100240000948804709480047FEE7FEE7FEE7FEE76A
:10025000FEE7FEE7FEE7FEE7FEE7FEE704480549A6
:10026000054A064B7047000039360008890100082E
:10027000682C002068320020682E0020682E0020A4
:100280007047000000487047082C00200FB4044954
:1002900010B503AA029800F05BFA10BC5DF814FBDD
:1002A000100100202DE9F0410E4604460020206296
:1002B0002046E168884730B3252805D0D4E90121DC
:1002C0009047206A401CF2E7E168204600278847F3
:1002D000050018D0A5F14100192802D820354FF4A7
:1002E00000673246294620462760FFF787FF40B166
:1002F000012804D0F61D26F007060836D8E7361D7B
:10030000D6E72846DAE7206ABDE8F08170477047F3
:100310007047000000487047082C0020704710B557
:10032000FFF7B0FF006810BD10B50446FFF7AAFF45
:10033000046010BD70472DE9FF4F0C461E464FF07C
:10034000FF378BB0D2E90001DDF860800A908A4661
:10035000C1F30A5505B93D46002108464FF000009B
:10036000BAF1000F00F4400005DA00EB80004FF412
:10037000400101EA50004FEA9059B9F1010F00DD48
:10038000B9460A9850EA4A000ED044F61050A5F239
:10039000FF3545432F14B8F1000F1ED07542291EBA
:1003A0001EDDC9F100021CE0B8F1010F4FF00000A2
:1003B00001D0302103E0F24305E02154401CB0425B
:1003C000FBDB30460022002121540B99C1F8088044
:1003D000C1E900200FB0BDE8F08FBD1B6D1CDEE74A
:1003E0004A4600DA694206A800F066FA06AB93E8CE
:1003F000070003AB83E8070050460A9900F03CFB76
:100400008DE80700A0F500501F3800900398002DDC
:1004100009DD42F21F014A46084403A903906846D9
:1004200000F09BFD08E0A0F500504A461F3803A9E4
:100430000390684600F0A5FD8DE807000004000C5D
:1004400003D04FF0FF30410800E01046B8F1000F34
:1004500003D00022009215461EE0751E05D400F060
:100460008DF9303262556D1EF9D5B346012208432D
:1004700002D000227F1C04E02078302801D1002225
:100480007F1E002A099786D01DE0112D07DA00F0A3
:1004900075F9303262556D1C50EA0102F5D10843FE
:1004A00002D00098C8B10EE00021681E05E0235C70
:1004B000625C63542254401E491C8142F7DBAB4608
:1004C000A81B401E0990002004F80B000B98099A05
:1004D000C0F80880C0E9002B7CE711264FF0000827
:1004E00059E72DE9F04F88460446D21D22F0070156
:1004F00091B0D1E90001CDE90A0103F0C2FC024646
:100500000B98C00F01D02D2007E02068810701D58E
:100510002B2002E0202101EAC000032A099001D02B
:10052000072A05DB03464146204600F085F90BE12A
:100530002078800601D5E06900E00620B8F1650F5B
:10054000814606D0B8F1660F18D0B8F1670F70D1A8
:1005500031E00020B9F1110F009001DB112301E01F
:1005600009F101030AAA01A90CA8FFF7E4FEDDE9DD
:100570000C70002609F10105834647E001204B4637
:1005800000904FF000470AAA01A90CA8FFF7D3FE7C
:10059000DDE90DB00C995D46002610B909F10100A6
:1005A0000D18B9EB050003D4C0F1FF3609F10105C0
:1005B000A5EB09002BE0B9F1010F01DA4FF00109B9
:1005C0000020B9F1110F0090484601DD112300E031
:1005D00003460AAA01A90CA8FFF7ADFEDDE90C70DD
:1005E0004D4600268346207800070AD4AB4500DA42
:1005F0005D4601A8012D04DD411911F8011C3029C7
:1006000007D04F4502DA17F1040F04DA01208246C1
:100610000FE06D1EEEE7002F02DCED1B3E4403E011
:10062000781CA84200DD7D1CB81B00F1010A4FF0C8
:1006300000472078000703D4AA4501DB4FF0FF3ABA
:100640000021B7F1004F0DF143088DF8431024D07D
:1006500002202B23002F01DA7F422D230A21021EC4
:10066000A0F1010000DC5FB197FBF1FC97FBF1F218
:1006700001FB1C7C17460CF1300C08F801CDEEE7AD
:10068000A8F1010003702188090501D5452100E08A
:100690006521A0F1010800F8011C09980FA9A1EB40
:1006A0000807FF1D00B10120411901EBEA70A169A3
:1006B0003844081A401EA0612078C00602D42046A3
:1006C000AFF30080099828B1D4E901219047206A4E
:1006D000401C20622078C00622D52046AFF300805F
:1006E0001EE0002E04DBB34502DD01A8805D00E0C2
:1006F0003020D4E901219047206A401C2062761CFA
:10070000AAF101005FEA000A0AD100F033F8C068DC
:100710000168405CD4E901219047206A401C2062B6
:10072000281EA5F10105DCDC07E0D4E9012118F859
:10073000010B9047206A401C2062381EA7F1010778
:10074000F3DC2046AFF30080032011B043E6000045
:10075000074B70B50D467B4400F05BF80446284615
:1007600000F018F910B14FF0FF3070BD204670BD99
:10077000F349000000487047282C002030B5B0F144
:100780000A024FEA900E71F100034EEA817EB0EB4F
:100790000E0061EB91014FEA101E4EEA017E10EB54
:1007A0000E0041EB11114FEA102E4EEA016E10EBD4
:1007B0000E0041EB11214FEA104E4EEA014E10EBB4
:1007C0000E0041EB1141401841F100014FEAD00009
:1007D00040EA41704FEAD10110EB80054FEA8104F5
:1007E00044EA907444EB01046D1944EB0404521B79
:1007F000A3414FF0000348BF0A3200D530BD401C72
:1008000041F1000130BD000001694A1C0261087815
:10081000704700B58FB0CDE9013100210591054940
:100820007944CDE9031011466846FFF73BFD0FB050
:1008300000BD0000E5FFFFFF2DE9F0411F46044623
:1008400003260168072A01F4006004DB08B116A53D
:1008500005E016A503E008B115A500E015A521F0F7
:1008600010002060A069C01EA0610FB1401EA061F1
:100870002046AFF300804FB1D4E9012138469047BC
:10088000206A401C2062C01C206206E0206AFAE751
:10089000D4E9012115F8010B9047761EF8D22046C5
:1008A000AFF30080BDE8F0814E414E006E616E00F6
:1008B000494E4600696E66002DE9F04781461646AE
:1008C0008AB0334878440DC88DE80D00304878442C
:1008D000801C03AC0DC884E80D0041F69B30084431
:1008E000372190FBF1F290FBF1F5A5F1800501FBBA
:1008F00012041B3C02D56442012000E00020DFF816
:1009000090A080460027FA44AAF1BE0A0DE0E00755
:1009100009D03246684607EB47010AEB810100F037
:1009200030FB8DE8070064107F1C002CEFD1184FBE
:100930007F44AC3F18E0E80714D007EB04100DF13A
:10094000180A90E80E008AE80E00C068F04201D153
:1009500098190890324606A903A800F012FB03ABD1
:1009600083E807006D10641C002DE4D1324669460F
:10097000B8F1000F03A802D000F0EFFA01E000F098
:1009800000FBC9E90001C9F808200AB0BDE8F087FA
:100990000C5B0000007B00F0800070477546FFF79D
:1009A000B9FCAE4605006946534620F0070085466F
:1009B00018B020B5FFF752FCBDE820404FF000060C
:1009C0004FF000074FF000084FF0000B21F0070137
:1009D000AC46ACE8C009ACE8C009ACE8C009ACE87A
:1009E000C0098D46704710B50446AFF3008020461D
:1009F000BDE81040FFF71EBC4FF0013C50F8042B3F
:100A000051F8043B9A4221D1A2EB0C03934313EA21
:100A1000CC1317D150F8042B51F8043B9A4215D14E
:100A2000A2EB0C03934313EACC130BD150F8042B25
:100A300051F8043B9A4209D1A2EB0C03934313EA09
:100A4000CC13DBD04FF00000704700BFD01A01BAC2
:100A5000B1FA81F101F0180122FA01F0CB40C1F1A5
:100A60002001DBB2C0B2C01A2CFA01F3D11A9143B3
:100A700011EAC311E6D170475FEA400C08BF91F05C
:100A8000000F4FEA8C234FEAC12243EA51514FEA4B
:100A90001C5018BF00F5F0404FEA300018BF41F07D
:100AA00000415FEA6C5C00F02980BCF1FF3F08BFA9
:100AB00040F080407047130C06BF12044FF0100C3A
:100AC0004FF0000C130E04BF12020CF1080C130FB0
:100AD00004BF12010CF1040C930F04BF92000CF13F
:100AE000020CD30F04BF52000CF1010C11464FF061
:100AF0000002A0F11F00A0EB0C00704711F0004FA6
:100B000008BF704731F000413FF4D5AF0B0C06BF72
:100B100009044FF0100C4FF0000C0B0E04BF09023B
:100B20000CF1080C0B0F04BF09010CF1040C8B0F26
:100B300004BF89000CF1020CCB0F04BF49000CF17B
:100B4000010CCCF12003A0EB0C0022FA03F302FA13
:100B50000CF241EA030100F10100704720F07F4CE4
:100B600080EA030023F07F47ACEB070303F57C53D7
:100B700000F0004003F1FF032DE980494FEA154BD7
:100B800009B44FEA144325EA0B4E24EA03480FF256
:100B9000042606EB132749083E785FEA320203FB7E
:100BA0000667C7F5000707FB06F64FEA54374FEA1A
:100BB000D64606F1020607FB066CCCF1005C4FEA54
:100BC0001C472CEA074C07FB06F40CFB06F504EB6C
:100BD00015464FEA961634BF00204FF000404FEA0A
:100BE000D13706FB07FC4FEA1C4C0CFB0BF7D21B62
:100BF00003FB0CF761EB07010CFB0EF7B0EB0740B2
:100C000072EB17420CFB08F734BFA2EB0742B2EBC2
:100C1000074261EB17414FEA0C444FEA910706FB8C
:100C200007FC4FEA1C4C0CFB0BF7B0EBC74072EB18
:100C3000573203FB0CF734BFA2EBC742B2EBC742FB
:100C400061EB57310CFB0EF7B0EBC70072EB57723C
:100C50000CFB08F734BFA2EBC702B2EBC70261EB93
:100C60005771039F4FEA816141EA921104EBCC0472
:100C70004FEAD1374FEA826206FB07FC42EA901244
:100C80004FEA80604FEA1C4C0CFB0BF7D21B03FBB6
:100C90000CF761EB07010CFB0EF7B0EB074072EBB2
:100CA00017420CFB08F734BFA2EB0742B2EB074236
:100CB00061EB17414FEA8C554FEA910704EB9C24F6
:100CC00006FB07FC4FEA1C4C0CFB0BF7B0EBC740D4
:100CD00072EB573203FB0CF734BFA2EBC742B2EB07
:100CE000C74261EB57310CFB0EF7B0EBC70072EB5C
:100CF00057720CFB08F734BFA2EBC702B2EBC70276
:100D000061EB577115EB4C254FEA816141EA921175
:100D10004FEA82624FEAD13742EA901206FB07FCA3
:100D200044F100044FEA80604FEA1C4C0CFB0BF7C7
:100D3000D21B03FB0CF761EB07010CFB0EF7B0EBCA
:100D4000074072EB17420CFB08F734BFA2EB0742D7
:100D5000B2EB074261EB174115EB1C154FEA8131ED
:100D600041EA92414FEA823242EA90424FEA8030B1
:100D70004FEA0C7644F1000448EA03434EEA0B487C
:100D80004FF0000EB2EB080C71EB030724BF624674
:100D900039464EEB0E0E4FF0000B00185241494100
:100DA0004BEB0B0BB2EB080C71EB03077BF1000B69
:100DB00024BF624639464EEB0E0E4FF0000B001872
:100DC000524149414BEB0B0BB2EB080C71EB0307A3
:100DD0007BF1000B24BF624639464EEB0E0E51EA02
:100DE000020718BF46F0010616EB0E7655F1000219
:100DF00054F1000103D5BDE88901BDE80088BDE8D4
:100E00008901BDE80048B619524141EB0101A3F147
:100E10000103704780807F7E7D7C7B7A797877764E
:100E200076757473727171706F6E6E6D6C6C6B6AC7
:100E30006A69686867666665646463636261616065
:100E4000605F5F5E5E5D5D5C5C5B5B5A5A595958E2
:100E5000585757565655555554545353525252514C
:100E6000515050504F4F4F4E4E4D4D4D4C4C4C4BA2
:100E70004B4B4A4A4A4949494848484747474746E9
:100E80004646454545444444444343434342424225
:100E900042414141002B26D4770021D01CB54FEAB6
:100EA000370703B44FF010004FF010014FF000006F
:100EB0000FBCBDE810400BF1010BBBF1010F08BFE7
:100EC0005FEA170722BF12F1010211F101014FF091
:100ED000004143F1000300F0004043EA0000704786
:100EE000F9D35708DAE746EA064613F1400F4FEA0E
:100EF00016461FDD13F1200FDFBF16430A460021FF
:100F000020335B42C8D0C3F1200746EA064602FA06
:100F100007F74FEA164646EA0706C3F1200722FA0A
:100F200003F201FA07F721FA03F14FF0000342EA56
:100F30000702B1E746EA020646EA06464FEA1646C7
:100F400046EA0106BCBF46EA0646360C4FF00003EF
:100F50004FF000024FF000019EE72DE9C048934694
:100F600030B491E8380007C831EA400C48BF34EA91
:100F7000430C03D5FFF7F2FDFFF78CFFF0BCBDE893
:100F800000882DE9C048934630B491E8380007C87E
:100F900010F0804F08BF13F0804F03D100F005F828
:100FA000FFF778FFF0BCBDE8008820F07F4780EABB
:100FB000030023F07F4C07EB0C03A3F57C5300F0F8
:100FC0000040A3F1FE0392F0000F00F0B38095F013
:100FD000000F00F077802DE901494FEA11404FEAF8
:100FE000144621EA004800FB06FC24EA064708FBF9
:100FF00006F607FB08F800FB07F718EB06484CEB72
:10100000164C4FEA124B18EB07484FEA15464CEBCB
:10101000174022EA0B4E0BFB06FC25EA06470EFBA7
:1010200006F607FB0EFE0BFB07F71EEB064E4CEB1E
:10103000164C4FF000061EEB074E4CEB174B18EB0F
:101040000B0840F1000018EB0E0B58EB000840F1C4
:1010500000008F1A4FF000013CBFC943661B14BF4C
:10106000B5EB040C00213CBFC943F61B4FEA174403
:101070004EEA8E0E27EA04454FEA1C4704FB07623E
:101080002CEA074C05FB07F70CFB05F604FB0CFCF0
:1010900016EB074642EB174216EB0C4642EB1C429E
:1010A0001BEB060658EB0202414146EA9E0601D5BB
:1010B000BDE80189B619524141EB0101A3F10103D9
:1010C000BDE801894FEA14454FEA114724EA054675
:1010D00021EA074C05FB07F406FB07F70CFB06F1BA
:1010E00005FB0CFC11EB074144EB17444FEA124798
:1010F00011EB0C4144EB1C4422EA074C05FB07F2C0
:1011000006FB07F70CFB06F605FB0CFC16EB074687
:1011100042EB174216EB0C4642EB1C456A1854F1A1
:10112000000148BF7047B619524141EB0101A3F1DC
:101130000103704795F0000F37D04FEA11424FEA94
:10114000144721EA024624EA074C02FB07F106FB9A
:1011500007F70CFB06F402FB0CFC14EB074441EB15
:1011600017414FEA154714EB0C4441EB1C4125EAAB
:10117000074C02FB07F506FB07F70CFB06F602FB24
:101180000CFC16EB074645EB174516EB0C4645EBFA
:101190001C42121951F1000148BF7047B619524163
:1011A00041EB0101A3F1010370474FEA14454FEAF7
:1011B000114724EA054621EA074C05FB07F106FB27
:1011C00007F70CFB06F24FF0000605FB0CFC12EBD8
:1011D000074241EB174112EB0C4251EB1C4148BF57
:1011E0007047921841EB0101A3F10103704700BF62
:1011F000FEE710B5002404E0204600F07BFA601CF6
:10120000C4B2052CF8DB10BD0246094B9A4201D24C
:10121000084801E00648103801F000531BB1064BA6
:101220000B40C36002E0044B0B408360704700003A
:1012300010640240006002407D0F7D0F21B1026802
:1012400042F00102026003E0026822F00102026043
:101250007047014600200A6802F001020AB101202D
:1012600000E000207047416070477047704770474A
:101270007047000010B52DED068B86B001202E4979
:10128000087000F0A1F92D4801F030FA2B4890EDDC
:10129000020A10EE101A084604F0D8FE41EC180BB2
:1012A000264890ED010A10EE101A084604F0CEFE12
:1012B00041EC190B214890ED000A10EE101A084677
:1012C00004F0C4FE41EC1A0B8DED028B8DED009BFA
:1012D00053EC1A2B1AA0FEF7D9FF00211E48006814
:1012E00000B2CDE9010103911B48001F0491006881
:1012F00000B2194C083C0090246823B20F4C94EDC6
:10130000020ABDEEC00A10EE104A22B20B4C94ED58
:10131000010ABDEEC00A10EE104A21B2074C94ED4E
:10132000000ABDEEC00A10EE104A20B204F081F8A7
:1013300006B0BDEC068B10BD04010020042A00207D
:101340007961773D25663B7961773D25663B726F14
:101350006C6C3D25662F6E003C040040704710B554
:101360003C21012001F01CFE10BD000010B52048FA
:10137000007801283BD11F48008800B21E49088030
:10138000FFF775FF1A48B0F90400022804DB0020BB
:1013900017498880FFF76EFF1548B0F90600052849
:1013A00004DB00201249C880FFF7D9FF1048B0F9CC
:1013B00008000A2804DB00200D490881FFF756FFCA
:1013C0000B48B0F90A00142804DB002008494881C2
:1013D000FFF74EFF0648B0F90C00322804DB00206E
:1013E00003498881FFF7BAFF00200149087010BD4A
:1013F00028110020540000203E00002010B51020CD
:1014000000F014F828B1102000F004F8102000F0CB
:1014100007F810BD0149086070470000143C014006
:101420000149086070470000143C0140014600205B
:10143000034A12680A400AB1012000E00020704708
:10144000143C0140002123498279002A3AD00A46FF
:10145000126803689A430B461A600A1D12680368F3
:101460009A430B1D1A60027911440A6803681A43F3
:101470000A60184A0832126803689A43154B083309
:101480001A601A1D126803689A43124B0C331A60D3
:101490004279102A0ED11A1F126803681A430D4BA5
:1014A00008331A601A1D126803681A43094B0C337B
:1014B0001A600DE00749427911440A6803681A432B
:1014C0000A6005E0027911440A6803689A430A60D9
:1014D00070470000003C0140F0B50A46002100239F
:1014E000002400BF3DE0012505FA01F3156805EA77
:1014F00003049C4234D105684F000326BE40B54327
:10150000056015794E00B5400668354305601579CC
:10151000012D02D01579022D16D185684F000326C2
:10152000BE40B543856055794E00B5408668354369
:101530008560456801268E40B543456045689679CB
:101540008E40B6B235434560C5684F000326BE40A5
:10155000B543C560D5794E00B540C6683543C56012
:10156000491C1029BFD3F0BDF0B5002300244D075E
:10157000ED0E02FA05F3CE1000F1200555F82650C5
:101580004E07F70E0F26BE40B543CF1000F12006E0
:1015900046F82750CE1000F1200555F8265045EAB0
:1015A0000304CE1000F1200545F82640F0BD0246A8
:1015B000002013690B400BB1012000E000207047B0
:1015C0004183704701837047324890ED030A3248E7
:1015D00080ED040A2F4890ED040AB1EE400A2E482F
:1015E00080ED050A2B4890ED050A2B4880ED060A90
:1015F0002A4890ED000A2A4880ED000A294890ED1B
:10160000000A264880ED000A90ED000A2448D0ED3B
:10161000000A30EE600ADFED240AB4EEE00AF1EED3
:1016200010FA05DB21480068401E2049086013E0DD
:101630001A4890ED000A1A48D0ED000A30EE600A10
:10164000DFED1B0AB4EEE00AF1EE10FA04D81748F9
:101650000068401C15490860144800684FF4B471D4
:10166000484300EE100AB8EEC00A0C48D0ED000A5C
:1016700030EE200A0F4880ED000A0A4890ED010A7A
:101680000D4880ED000A074890ED020A0B4880EDF6
:10169000000A7047D0290020242A0020C40000201E
:1016A000D0000020042A00200000A543E80000200C
:1016B0000000A5C3DC000020E0000020E4000020C2
:1016C0000B4A11684FF0E02252694FF0E0239B690A
:1016D000D21A4FF47A735A434FF0E0235B69B2FB9E
:1016E000F3F201EB4103C3EBC11302EBC3007047FC
:1016F0004400002010B5044604EB44001B4901EBF4
:10170000800090ED000A04EB440001EB800080EDC6
:10171000010AFFF7D5FF00EE100AB8EE400A04EB0D
:101720004400124901EB800080ED000A04EB440004
:1017300001EB800090ED000A04EB440001EB800017
:10174000D0ED010A30EE600A04EB440001EB8000AA
:1017500080ED020A04EB440001EB800090ED020AE8
:10176000BCEEC00A10EE100A10BD00004C110020A3
:101770004FF08040406A704708B500200090012378
:101780006A460A213C2001F041FB40B99DF8000067
:10179000482809D015A0FEF779FDFF2008BD16A046
:1017A000FEF774FDFF20F9E7702200213C2000F0D5
:1017B000EFFA052003F07CFCA02201213C2000F080
:1017C000E7FA052003F074FC002202213C2000F01F
:1017D000DFFA062003F06CFC182200213C2000F008
:1017E000D7FA062003F064FC0020D7E76572726F19
:1017F000722032410D0A00006572726F722032420F
:101800000D0A000010B504460623224603213C20A1
:1018100001F0FCFA10BD00002DE9F04104460D4630
:1018200016461648FFF7EEFF144B0E3B5B7C134F3A
:101830000E3F3F7C43EA07231AB2104B0E3BDB7B83
:101840000E4F0E3FBF7B43EA07235B4219B20B4B9F
:101850000E3BDB7C094F0E3FBF7C43EA072318B2E7
:1018600000F040F80648808A20800548408D288096
:101870000348B0F840003080BDE8F081662A0020BF
:10188000F02A00203EB504466A4601A902A8FFF7E7
:10189000C3FFBDF9080000EE100AB8EEC00A0E48FA
:1018A00080ED000A84ED000ABDF9040000EE100A84
:1018B000B8EEC00A094880ED000A84ED010ABDF9BE
:1018C000000000EE100AB8EEC00A054880ED000ADC
:1018D00084ED020A3EBD0000EC000020F000002074
:1018E000F4000020F0B503460C4600200021012042
:1018F00019E0504D35F81060451E4E4F27F8156021
:1019000007F1160535F81070451E4A4E163626F8B2
:10191000157006F1160535F81070451E163626F8B6
:101920001570451CE8B20A28E3DB424D6B822C851A
:10193000EA87002005E03F4D35F910502944451C49
:10194000E8B20A28F7DB0A2591FBF5F52DB2394EEE
:10195000B5820021002006E0364D163535F91050CD
:101960002944451CE8B20A28F6DB0A2591FBF5F567
:101970002EB2304D6E850021002006E02D4D2C3515
:1019800035F910502944451CE8B20A28F6DB0A252F
:1019900091FBF5F52EB2274DA5F84060264DB5F91F
:1019A0000650244EB6F91460B54203DD214DAD8AD0
:1019B000214EF580204DB5F908601E4DB5F92A502D
:1019C000AE4203DD1B4D6D8D1B4E35811A4DB5F9B1
:1019D0000A60184DB5F94050AE4204DD154DB5F81A
:1019E0004050154E7581144DB5F90050114EB6F9A1
:1019F0001460B54203DA0F4DAD8A0F4E35800E4D9F
:101A0000B5F902600B4DB5F92A50AE4203DA094D23
:101A10006D8D094E7580084DB5F90460054DB5F919
:101A20004050AE4204DA034DB5F84050024EB58046
:101A3000F0BD0000F02A0020322B002000BFFEE79E
:101A400010B5044600F0E6F82CB14FF400710D48D3
:101A5000FFF7B8FD04E04FF400710A48FFF7B0FD4E
:101A60004FF480710748FFF7ADFD012000F00CF83E
:101A70004FF480710348FFF7A3FD012000F004F844
:101A800010BD00000004024010B5002106E006224F
:101A900000BF131EA2F10102FBD1491C8142F6D303
:101AA00010BD00001CB50121022001F06DFB4FF4B8
:101AB0004070009001208DF804008DF8060003208E
:101AC0008DF8050069460248FFF706FD1CBD0000C1
:101AD0000004024070B5002400F086F800251BE0E9
:101AE0004FF480711148FFF76BFD0120FFF7CCFF29
:101AF0004FF480710D48FFF765FD6006040E4FF44A
:101B000000710A48FFF753FD08B1601CC4B2012000
:101B1000FFF7BAFF681CC5B2082DE1DB4FF48071F6
:101B20000248FFF74DFD204670BD00000004024052
:101B30002DE9F04106460F461446984600F07EF81F
:101B4000304600F0F3F800F0B9F8FF2805D11DA0E9
:101B5000FEF79CFBFF20BDE8F081384600F0E6F878
:101B600000F0ACF8FF2804D119A0FEF78FFBFF208E
:101B7000F1E700F063F8711CC8B200F0D7F800F08C
:101B80009DF8FF2804D115A0FEF780FBFF20E2E7B7
:101B9000002508E0FFF79EFF20700020FFF750FFB0
:101BA000641C681CC5B2A8F10100A842F2DCFFF772
:101BB00091FF20700120FFF743FF00F05FF8002045
:101BC000C9E700006572726F722032460D0A00008C
:101BD0006572726F722032470D0A00006572726F73
:101BE000722032480D0A00001CB54FF400700090BE
:101BF00000208DF804008DF806008DF80700022003
:101C00008DF8050069460248FFF766FC1CBD000020
:101C1000000402401CB54FF40070009001208DF8C4
:101C200004008DF8060003208DF80500694602487F
:101C3000FFF752FC1CBD00000004024010B5FFF786
:101C4000E9FF4FF400710C48FFF7BCFC4FF48071C2
:101C50000948FFF7B7FC0120FFF716FF4FF40071AA
:101C60000548FFF7ADFC0120FFF70EFF4FF4807130
:101C70000148FFF7A5FC10BD0004024010B5FFF7B6
:101C8000C9FF4FF480710C48FFF79AFC4FF40071C4
:101C90000948FFF795FC0120FFF7F6FE4FF480712D
:101CA0000548FFF78FFC4FF400710348FFF78AFCEB
:101CB0000120FFF7E9FE10BD0004024010B54FF40B
:101CC0007A744FF400711548FFF77CFCFFF78CFF26
:101CD0000120FFF7D9FE4FF480711048FFF772FC26
:101CE0000120FFF7D1FE0AE0601E80B2041E06D07C
:101CF000FFF7C4FF0AA0FEF7C9FAFF2010BD4FF49A
:101D000000710648FFF753FC0028EDD14FF48071B5
:101D10000248FFF755FC0020F0E7000000040240F5
:101D20006572726F722032410D0A000070B5044670
:101D3000FFF770FF4FF480711448FFF741FC002556
:101D400021E004F0800028B14FF400710F48FFF744
:101D500039FC04E04FF400710C48FFF731FC6006D9
:101D6000040E0120FFF790FE4FF480710748FFF743
:101D700029FC0120FFF788FE4FF480710348FFF72C
:101D80001FFC681CC5B2082DDBDB70BD00040240DF
:101D900070B506460C461546FFF750FF3046FFF774
:101DA000C5FFFFF78BFFFF2804D110A0FEF76EFAE6
:101DB000FF2070BD2046FFF7B9FFFFF77FFFFF2828
:101DC00004D10DA0FEF762FAFF20F2E72846FFF7E4
:101DD000ADFFFFF773FFFF2804D10AA0FEF756FA04
:101DE000FF20E6E7FFF74AFF0020E2E76572726F27
:101DF000722032420D0A00006572726F7220324307
:101E00000D0A00006572726F722032440D0A0000E4
:101E100000B52DED108B93B0FE4890ED000AD0ED8B
:101E2000000A20EE200A8DED080A90ED000AFA481B
:101E3000D0ED000A20EE200AB0EE40FAF54890ED11
:101E4000000AF648D0ED000A20EE200AF0EE40AA83
:101E5000F04890ED000AF248D0ED000A20EE200A8A
:101E60008DED070AEC4890ED000AD0ED000A20EE57
:101E7000200AF0EE40FA90ED000AE848D0ED000AA2
:101E800020EE200A8DED060AE34890ED000AE448B2
:101E9000D0ED000A20EE200AB0EE40BADF4890ED07
:101EA000000AD0ED000A20EE200AF0EE40BA90EDD4
:101EB000000ADB48D0ED000A20EE200A8DED050A6D
:101EC00090ED000AD0ED000A20EE200A8DED040A04
:101ED000D44890ED030ADFEDD40A20EE200ADFEDAE
:101EE000D30A80EE201AD24880ED001ACD4890ED3A
:101EF000040ADFEDCD0A20EE200ADFEDCC0A80EEE9
:101F0000201ACC4880ED001AC64890ED050ADFED96
:101F1000C60A20EE200ADFEDC50A80EE201AC64868
:101F200080ED001ABF4890ED000AC44880ED000A19
:101F3000BC4890ED010AC24880ED000AB94890ED16
:101F4000020AC04880ED000AB64890ED060ABE4875
:101F500080ED000AB34890ED070ABC4880ED000A06
:101F6000B04890ED080ABA4880ED000AFFF700FC7F
:101F7000B849086008460068B749096888420CD328
:101F8000B4480068B4490968401A00EE100AB8EE77
:101F9000400ADFEDB20AC0EE208AAE480068AE49C2
:101FA0000860A648D0ED000A90ED001A60EE810AA4
:101FB000A34890ED001AD0ED001A41EE210AA14885
:101FC00090ED001AD0ED001A41EE210AB0EE600A41
:101FD00003F0CAF8B0EE408A984890ED000A20EE6F
:101FE000080A80ED000A964890ED000A20EE080AE3
:101FF00080ED000A934890ED000A20EE080A80ED7B
:10200000000A9148D0ED000A90ED001A60EE810AB6
:102010008E4890ED001AD0ED001A41EE210A8C484E
:1020200090ED001AD0ED001A41EE210AB0EE600AE0
:1020300003F09AF8B0EE408A834890ED000A20EE53
:10204000080A80ED000A814890ED000A20EE080A97
:1020500080ED000A7E4890ED000A20EE080A80ED2F
:10206000000A794890ED000AF0EE000A60EE200ABE
:10207000B6EE000A30EE6B1A9DED040A31EE400A0E
:1020800020EE800A7148D0ED000AB0EE001A60EE32
:10209000811ADDED060A9DED071A70EEC10A01EE08
:1020A000A00A6B48D0ED000AB0EE001A60EE810A7B
:1020B0003BEE2A1A00EE810A8DED110A624890ED7E
:1020C000000AF0EE000A20EE201A9DED060ADDED72
:1020D000070A30EE200A21EE000A5C48D0ED000A23
:1020E000B0EE001A20EE811AF6EE000A70EEEF1A3A
:1020F000DDED040A71EEE00A01EE200A5448D0ED4D
:10210000000AB0EE001A20EE811ADDED050A70EE2D
:10211000CF0A01EE200A8DED100A4B4890ED000A1F
:10212000F0EE000A20EE200A7BEE6A0A60EE200A3A
:10213000464890ED000AB0EE001A20EE011A9DED1F
:10214000050A70EE0F1AB0EE600A01EE210A40484F
:10215000D0ED000AB0EE001A60EE810AB6EE001A69
:1021600031EE6F1A31EE6B1AB0EE409A00EE819AA2
:102170009DED110A60EE000A9DED100A40EE000A86
:1021800010EE901A084603F061FFCDE900019DEDC5
:10219000000B02F009FB8DED020B9DED020B51ECE3
:1021A000100B03F0D9F909EE900AB0EE49AA3BEE04
:1021B0006A0AF0EE000A20EE200A8DED0F0A9DED6E
:1021C000050A3FEE000AF0EE000A20EE200A8DED2F
:1021D0000E0A9DED080A30EE6F0A70EE6B0A9DED57
:1021E000040A30EE800A8DED0D0AB0EE000A69EEA9
:1021F000800AB6EE000A30EE6B1A9DED040A31EE4D
:10220000400A20EE800AB0EE4A9AF0EE000A69EE2B
:10221000200A25E0880000208C000020900000208B
:1022200094000020D0290020DB0F494000003443F7
:10223000980000209C000020A0000020A4000020A6
:10224000A8000020AC000020B0000020B400002056
:10225000B8000020C0000020BC0000200024F44989
:102260003BEE6A1A00EE810A8DED0C0AB0EE000A10
:1022700029EE801A9DED060ADDED070A30EE600AB0
:1022800021EE000AB0EE4A9AF0EE000A29EE201A7A
:10229000DDED050A7FEE200A01EE200A8DED0B0A26
:1022A000B0EE000A29EE800A7AEE8B0A20EE200AB0
:1022B000B0EE4A9AF0EE000A69EE200AB6EE001A75
:1022C00031EE6F1A31EE6B1A00EE810A8DED0A0ABB
:1022D000AF48D0ED000A9DED0D0A60EE800AAD48D2
:1022E00090ED001A9DED0E0A41EE400AAA4890EDCD
:1022F000001A9DED0A0A21EE001AA848D0ED001A36
:102300009DED0B0A01EEC01A30EE81CAA148D0ED56
:10231000000A9DED0F0A60EE800AA14890ED001AB8
:102320009DED0D0A41EE400A9C4890ED001A9DED8E
:102330000C0A21EE001A9B48D0ED001A9DED0A0A06
:1023400001EEC01A70EE81CA9548D0ED000A9DEDED
:102350000E0A60EE800A8E4890ED001A9DED0F0A7D
:1023600041EE400A8F4890ED001A9DED0B0A21EED8
:10237000001A8948D0ED001A9DED0C0A01EEC01A32
:1023800030EE81DAB5EEC0CAF1EE10FA57D0F5EEB4
:10239000C0CAF1EE10FA52D0B5EEC0DAF1EE10FA82
:1023A0004DD09FED810A6CEE000A804890ED000A46
:1023B00000EEA80A80ED000A9FED7B0A6CEE800A11
:1023C0007B4890ED000A00EEA80A80ED000A9FED20
:1023D000760A6DEE000A774890ED000A00EEA80A32
:1023E00080ED000A744890ED000AF0EE000A00EE5D
:1023F0008C0A6E48D0ED000A30EE200A6E4880ED5F
:10240000000A6E4890ED000AF0EE000A00EEAC0AF9
:102410006748D0ED000A30EE200A684880ED000AD7
:10242000674890ED000AF0EE000A00EE8D0A614860
:10243000D0ED000A30EE200A614880ED000A6148C4
:1024400090ED000AB1EE400A5B48D0ED000A20EEA4
:10245000200A5D48D0ED000A584890ED001A00EEC1
:10246000C10A5A4890ED001A5548D0ED001AF0EE16
:10247000400A41EE610A564890ED000A00EEA80AB3
:102480008DED090A90ED000A4B48D0ED000A20EED0
:10249000200A4D48D0ED000A494890ED001A00EEA0
:1024A000810A4A48D0ED000A444890ED001A00EE37
:1024B000C10A4448D0ED000AF0EE60DA40EE28DAB6
:1024C000434890ED000A3D48D0ED000A20EE200A76
:1024D0003C48D0ED000A3A4890ED001A00EEC10ADF
:1024E0003A48D0ED000A344890ED001A00EE810A17
:1024F0003548D0ED000AB0EE60EA00EE28EA344834
:1025000090ED000A2E48D0ED000A20EE200A2D485A
:10251000D0ED000A294890ED001A00EE810A2A4801
:10252000D0ED000A244890ED001A00EEC10A2748B9
:10253000D0ED000AF0EE60EA40EE28EADDED090A8F
:1025400060EEA00A4DEEAD0A4EEE0E0A4EEEAE0A59
:10255000B0EE600A02F008FEB0EE408A9DED090A76
:1025600020EE080A1A4880ED000A2DEE880A154868
:1025700080ED000A2EEE080A134880ED000A2EEEC8
:10258000880A124880ED000A13B0BDEC108B00BD24
:10259000A8000020AC000020B4000020B8000020FB
:1025A000A4000020B00000200AD7233C7C000020BB
:1025B0008000002084000020980000209C00002063
:1025C000A00000208C00002090000020940000203B
:1025D0008800002010B504460C4800F021F8FFF7F1
:1025E00017FC0B4890ED000A84ED000A094890EDB5
:1025F000000A84ED010A084890ED000A84ED020A01
:10260000064890ED000A84ED030A10BDD029002091
:10261000880000208C000020900000209400002002
:1026200030B585B004460DF1120004A9031F03AABA
:10263000CDE90010891F02A800F004FCBDF80800D5
:1026400028490880BDF80A004880BDF80C00888041
:10265000BDF80E000881BDF810004881BDF81200D9
:10266000888100251DE0032D0BDA02A830F9150042
:1026700000EE100AB8EEC00A04EB850080ED000AF7
:102680000EE002A830F9150000EE100AB8EEC00AFC
:10269000DFED150A80EE201A04EB850080ED001AAC
:1026A0006D1C062DDFDB04F11800FFF7EBF894ED4D
:1026B000060ABDEEC00A10EE100A00B20949C88130
:1026C00094ED070ABDEEC00A10EE100A00B20882AF
:1026D00094ED080ABDEEC00A10EE100A00B248825E
:1026E00005B030BD102A00203333034210B52DED64
:1026F0000C8B04468748FFF76DFF864890ED020A71
:10270000F8EE000A20EE200AD0ED020A20EE200AA0
:10271000D0ED030AB0EE001A60EE810A90ED031AC4
:1027200000EEC10AF7EE000A30EE200A10EE101A91
:10273000084603F08BFC41EC1C0B764890ED010A37
:10274000F0EE000A20EE200AD0ED020A20EE200A68
:10275000D0ED000AB0EE001A60EE810A90ED031A87
:1027600000EE810A10EE101A084603F06FFC41ECEF
:102770001D0BB0EE4C1AF0EE6C1AB0EE4D0AF0EEF6
:102780006D0A01F0B5FEB0EE40BAF0EE60BA51EC61
:102790001B0B02F0D5FE41EC1A0B9FED5F0B53ECC7
:1027A000102B03F093F941EC190B9FED5D0B53ECEB
:1027B000102B02F0ABFF41EC180B02F0CDFE00EE47
:1027C000100A84ED000A534890ED010AF8EE000A61
:1027D00020EE200AD0ED030A20EE200AD0ED000AF8
:1027E000B0EE001A60EE810A90ED021A00EE810A46
:1027F00010EE101A084603F029FC41EC1C0BB0EE59
:102800004C0AF0EE6C0A01F057FBB0EE40BAF0EE65
:1028100060BA51EC1B0B02F093FE41EC1A0B9FEDDA
:102820003E0B53EC102B03F051F941EC190B9FEDCB
:102830003C0B53EC102B02F069FF41EC180B02F03B
:102840008BFE00EE100A84ED010A324890ED010A79
:10285000F8EE000A20EE200AD0ED010A20EE200A50
:10286000D0ED020AB0EE001A60EE810A90ED021A75
:1028700000EEC10AF7EE000A30EE200A10EE101A40
:10288000084603F0E3FB41EC1B0B224890ED020AE3
:10289000F0EE000A20EE200AD0ED030A20EE200A16
:1028A000D0ED000AB0EE001A60EE810A90ED011A38
:1028B00000EE810A10EE101A084603F0C7FB41EC47
:1028C0001C0BB0EE4B1AF0EE6B1AB0EE4C0AF0EEA9
:1028D0006C0A01F00DFEB0EE40AAF0EE60AA9FED8A
:1028E0000E0B53EC102B51EC1A0B03F0EFF841ECEC
:1028F000190B9FED0B0B53EC102B02F007FF41EC73
:10290000180B02F029FE00EE100A84ED020ABDEC5D
:102910000C8B10BDF42900200000000000806640F0
:1029200000000060FB2109401548C089401C144983
:10293000C88108468088401C00B288800846C0884C
:10294000401C00B2C88008460089401C00B20881C3
:1029500008464089401C00B2488108468089401CD6
:1029600000B2888108460078012804D108464078E2
:10297000401C487002E001200149087070470000C7
:10298000281100202DE9F04304460D46DDE90767D4
:1029900000200021012041E0DFF8D8C13CF8108080
:1029A000A0F1010CDFF8CC9129F81C8009F1160C7C
:1029B0003CF81090A0F1010CDFF8B88108F116087E
:1029C00028F81C9008F1160C3CF81090A0F1010CAE
:1029D00008F1160828F81C9008F1160C3CF8109025
:1029E000A0F1010C08F1160828F81C9008F1160C4B
:1029F0003CF81090A0F1010C08F1160828F81C9082
:102A000008F1160C3CF81090A0F1010C08F1160822
:102A100028F81C9000F1010C0CF0FF000A28BBDB29
:102A2000DFF850C1ACF81240ACF82850ACF83E20AA
:102A3000ACF85430ACF86A60ACF88070002008E064
:102A4000DFF830C13CF910C0614400F1010C0CF01A
:102A5000FF000A28F4DB4FF00A0C91FBFCFC0FFA94
:102A60008CFCDFF81081A8F814C0002100200AE0D7
:102A7000DFF800C10CF1160C3CF910C0614400F104
:102A8000010C0CF0FF000A28F2DB4FF00A0C91FB5E
:102A9000FCFC0FFA8CF8DFF8DCC0ACF82A800021CF
:102AA00000200AE0DFF8CCC00CF12C0C3CF910C07F
:102AB000614400F1010C0CF0FF000A28F2DB4FF03A
:102AC0000A0C91FBFCFC0FFA8CF8DFF8A8C0ACF8FC
:102AD0004080002100200AE0DFF898C00CF1420C91
:102AE0003CF910C0614400F1010C0CF0FF000A2811
:102AF000F2DB4FF00A0C91FBFCFC0FFA8CF8DFF8CC
:102B000074C0ACF85680002100200AE0DFF864C0F1
:102B10000CF1580C3CF910C0614400F1010C0CF0B0
:102B2000FF000A28F2DB4FF00A0C91FBFCFC0FFAC5
:102B30008CF8DFF840C0ACF86C80002100200AE07F
:102B4000DFF830C00CF16E0C3CF910C0614400F1AC
:102B5000010C0CF0FF000A28F2DB4FF00A0C91FB8D
:102B6000FCFC0FFA8CF8DFF80CC0ACF88280BDE8F2
:102B7000F08300006C2A002010B501221921D0201A
:102B8000FFF706F9FF2804D10CA0FDF77FFBFF201B
:102B900010BD14A0FDF77AFB0A2002F089FA012289
:102BA0003821D020FFF7F4F8FF2804D115A0FDF755
:102BB0006DFBFF20ECE70020EAE7000043616E6E4A
:102BC0006F7420656E61626C6520696E74657272E7
:102BD000757074207375636365737366756C6C7957
:102BE0002E0D0A004D505536303530207365742057
:102BF00073616D706C65207261746520646F6E65C1
:102C00002E0A00006572726F722031490D0A0000B1
:102C100008B500200090FEF745FF01236A467521A4
:102C2000D020FEF785FF40B99DF80000682809D044
:102C300036A0FDF72BFBFF2008BD37A0FDF726FBD4
:102C4000FF20F9E701226B21D020FFF7A1F8FF2830
:102C500004D134A0FDF71AFBFF20EDE703221A216F
:102C6000D020FFF795F8FF2804D131A0FDF70EFB27
:102C7000FF20E1E710221B21D020FFF789F8FF2871
:102C800004D12EA0FDF702FBFF20D5E700221C2176
:102C9000D020FFF77DF8FF2804D12BA0FDF7F6FA2E
:102CA000FF20C9E702223721D020FFF771F8FF2863
:102CB00004D128A0FDF7EAFAFF20BDE70022382161
:102CC000D020FFF765F8FF2804D125A0FDF7DEFA34
:102CD000FF20B1E700226A21D020FFF759F8FF2832
:102CE00004D11FA0FDF7D2FAFF20A5E7FEF744FDAF
:102CF000FF2804D11DA0FDF7C9FAFF209CE74FF47F
:102D0000FA7002F0D5F9002096E700006572726F44
:102D1000722031410D0A00006572726F72203142DB
:102D20000D0A00006572726F722031430D0A0000B7
:102D30006572726F722031450D0A00006572726F04
:102D4000722031460D0A00006572726F72203147A1
:102D50000D0A00006572726F722031480D0A000082
:102D60006572726F722031490D0A00006572726FD0
:102D70007220314B0D0A000010B502E0C82002F0AD
:102D800097F9FFF745FFFF28F8D010BD00B585B0D3
:102D90000121880300F018FA0121084600F0F4F937
:102DA0001020039000208DF810008DF812000120F3
:102DB0008DF8130002208DF8110003A91248FEF7C8
:102DC0008BFB0421002000F085FA102000900020E9
:102DD0008DF804000C208DF8050001208DF8060008
:102DE0006846FEF72FFB0A208DF8080002208DF8B8
:102DF000090000208DF80A0001208DF80B0002A8C0
:102E000000F07AF905B000BD000002402DE9F04164
:102E100004460D4616461F463B4632462946204686
:102E2000FEF786FEFF2805D103A0FDF72FFAFF204D
:102E3000BDE8F0810020FBE76572726F7220314AB5
:102E40000D0A00002DE9FC4704460D4616461F46B4
:102E5000DDE90A8948480078002872D000204649F8
:102E600008700E23454A3B21D020FFF7CFFF43488F
:102E70000E30FEF7C7FC414840784049097840EAE7
:102E8000012000B23E4908803C48C0783B4989781F
:102E900040EA012000B23B49088038484079374970
:102EA000097940EA012000B2374908803348407A66
:102EB0003249097A40EA012000B2344908802F489B
:102EC000C07A2E49897A40EA012000B23049088050
:102ED0002A48407B2949097B40EA012000B22D495C
:102EE00008800846B0F900002949B1F90010CDE981
:102EF00000102648B0F900302348B0F900202148DE
:102F0000B0F900101E48B0F90000FFF73BFD224861
:102F1000808A20802048408D28801F48B0F84000DB
:102F200030801D48B0F8560038801B48B0F86C005F
:102F3000A8F800001848B0F88200A9F8000018E0CE
:102F4000FFE71548808A20801348408D288012486A
:102F5000B0F8400030801048B0F8560038800E4875
:102F6000B0F86C00A8F800000B48B0F88200A9F88F
:102F70000000BDE8FC87000004010020582A002062
:102F8000F8000020FA000020FC000020FE000020D5
:102F900000010020020100206C2A002000BFFEE793
:102FA00070B505460C46002C63D032480088844238
:102FB00015D03C2C09DA3C2090FBF4F0401E2E4941
:102FC000088001202D49088007E000202A49088058
:102FD0003C2094FBF0F029490880264804802848CA
:102FE000008825490988884205DA25480088401C60
:102FF000234908803DE000202149088000F048F87E
:1030000020480088204909880844204949571B4A1C
:10301000128801FB02001C49098890FBF1F201FBB8
:103020001200184908800846408817490988084452
:1030300016494957114A128801FB020012490988B2
:1030400090FBF1F201FB12000E494880084680888F
:103050000D49098801440D484057084A128800FB71
:1030600002100949098890FBF1F201FB12000549A1
:10307000888070BD7200002074000020780000205D
:1030800076000020600000205C00002046610008FF
:1030900010B50C4800880C4A32F810100B4800F0AC
:1030A00058FD08484088084A32F81010074800F0D8
:1030B00052FD04488088044A32F81010034800F09A
:1030C0004CFD10BD60000020D0190020000400401D
:1030D00010B541F28831A72000F010FB10BD10B5EB
:1030E000FFF7D6FF10BD10B500F08AF9FFF7F0FF2B
:1030F000FFF7F5FF10BD704770B5002100230F22C8
:10310000C4781CB3174C246804F4E064C4F5E0648C
:10311000C4F30721C1F10404E3B20A4144789C409E
:10312000E1B28478144021430C07210E0E4C05783F
:103130006155047804F01F050124AC4005786D1139
:10314000AD0005F1E025C5F8004109E0047804F080
:103150001F050124AC40054D0678761145F8264040
:1031600070BD00000CED00E000E400E080E100E054
:1031700002490143024A1160704700000000FA054D
:103180000CED00E07047000029B1064A12680243C6
:10319000044B1A6004E0034A12688243014B1A6030
:1031A000704700003038024029B1064A12680243D5
:1031B000044B1A6004E0034A12688243014B1A6010
:1031C000704700004038024029B1064A12680243A5
:1031D000044B1A6004E0034A12688243014B1A60F0
:1031E0007047000044380240F0B50021002200245E
:1031F000022500260223324F3F6807F00C0121B15F
:10320000042905D0082937D105E02E4F076036E0A4
:103210002D4F076033E02A4F3F1F3F68C7F38056AA
:10322000274F3F1F3F6807F03F036EB1264FB7FBA4
:10323000F3F7DFF88CC0ACF1040CDCF800C0CCF381
:10324000881C07FB0CF40CE01E4FB7FBF3F7DFF80C
:1032500070C0ACF1040CDCF800C0CCF3881C07FB98
:103260000CF4174F3F1F3F68C7F301477F1C7D00D9
:10327000B4FBF5F7076002E0124F076000BF00BF24
:103280000F4F3F6807F0F0010909104F7A5C07689B
:10329000D74047600A4F3F6807F4E051890A0B4F57
:1032A0007A5C4768D7408760054F3F6807F4604104
:1032B000490B064F7A5C4768D740C760F0BD0000F5
:1032C000083802400024F40000127A0016010020A1
:1032D0007047000030B500228B071C0F0F2303FA44
:1032E00004F20B4B8C1053F824309343084C8D1090
:1032F00044F8253023468C1053F824308C07240FD3
:1033000000FA04F42343024C8D1044F8253030BDFC
:10331000083801400CB50020019000903448006846
:1033200040F480303249086000BF3148006800F442
:10333000003000900198401C0190009818B9019845
:10334000B0F5A04FF1D12A48006800F4003010B168
:103350000120009001E0002000900098012846D153
:1033600023484030006840F08050214940310860D7
:103370002048006840F440401E4908601C4808305E
:1033800000681B49083108600846006840F40040A6
:1033900008600846006840F4A05008601648091FFD
:1033A0000860081F006840F08070091F086000BFB7
:1033B0000F48006800F000700028F9D040F2057056
:1033C0000E4908600A480830006820F003000849E8
:1033D000083108600846006840F00200086000BF3D
:1033E00003480830006800F00C000828F8D10CBD34
:1033F000003802400070004008544007003C024082
:1034000010B52DED108B84B000244FF49660514917
:10341000088008460088032190FBF1F04E4908809F
:1034200000204E490880084600884B490988084416
:103430004A4948800846408847490988084447491E
:10344000888000204649088008460088424909884B
:10345000084443494880084640883F490988084451
:103460003F49888000203F490880084600883A4943
:10347000098808443B4948800846408836490988FD
:1034800008443849888000BF5BE03248008802F079
:1034900009FB41EC1E0B601C02F0EDFA41EC1F0B26
:1034A0009FED310B53EC102B02F010FB53EC1E2B55
:1034B000CDE900019DED000B51EC100B02F026F957
:1034C00041EC1D0B9FED2A0B53EC102B02F0FEFA82
:1034D00041EC1C0B9FED280B53EC102B02F0F6FA7D
:1034E00041EC1B0BB0EE4B0AF0EE6B0A01F0F8F862
:1034F000B0EE40AAF0EE60AA9FED1B0B53EC102B30
:1035000051EC1A0B02F05AF841EC190B9FED1C0B11
:1035100053EC102B02F0DAFA41EC180B9FED140B70
:1035200053EC102B02F0F2F8CDE902019DED020BF5
:1035300051EC100B02F072FA134921F81400601CD0
:1035400084B20448008884429FDB04B0BDEC108B39
:1035500010BD00005C0000205E0000206000002024
:10356000660000206C000020000000000000F03F1A
:103570000000000000000040182D4454FB210940C9
:10358000000000000087B340D0190020042808D1B3
:103590004FF0E021096941F004014FF0E022116190
:1035A00007E04FF0E021096921F004014FF0E0222B
:1035B000116170477FB56846FFF716FE4FF47A71C8
:1035C0000198B0FBF1F4E4082146481EB0F1807F79
:1035D00000D31BE0481E4FF0E022506150170F222D
:1035E000002807DA13071E0E0B4B00F00F052D1FE6
:1035F0005E5503E013071D0E084B1D5400BF00204D
:103600004FF0E02290610720106100BF6FF00400CE
:10361000FFF7BCFF7FBD000018ED00E000E400E014
:1036200010B504480068401C0249086001F01CFE07
:1036300010BD00004400002010B51548006840F49B
:103640007000134908601348006840F001001149F8
:10365000086000200F49083108600E4800680E49D4
:1036600008400C4908600D48091D0860081F0068E3
:1036700020F48020091F0860002006490C310860F2
:10368000FFF748FE4FF0006001498039086010BD27
:1036900088ED00E000380240FFFFF6FE1030002405
:1036A0000EB501210846FFF77FFD4FF0FF30019076
:1036B0005320ADF800000020ADF80800ADF802007E
:1036C0000121880700F0CAF869464FF0804000F0F9
:1036D00047FA0121880700F0D3F80EBD10B501218B
:1036E000880700F0D9F838B10121880700F0C5F843
:1036F0000121880700F0BEF810BD000030B58BB086
:1037000005460C4601210220FFF74EFD0121042051
:10371000FFF73AFD022206213448FDF725FF022279
:1037200007213248FDF720FF022208212F48FDF72C
:103730001BFF022209212D48FDF716FF4FF4707080
:10374000099002208DF8280001208DF82B0003201D
:103750008DF8290009A92548FDF7BEFEA8B2ADF8ED
:1037600018000020ADF81A000794ADF820008DF87D
:10377000220006A91E4800F0F3F96020ADF804000D
:103780000120ADF806000020ADF80800ADF81000EB
:103790000820ADF812000020ADF8140003900821B5
:1037A000134800F0C9F801A9114800F087F8082172
:1037B0000F4800F01DF901A90D4800F0C7F80821D5
:1037C0000B4800F073F901A9094800F01FF908211E
:1037D000074800F0B1F901A9054800F071F901218D
:1037E000034800F04DF80BB030BD00000008024067
:1037F0000004004010B51648008820F0010014496C
:10380000088000BF72B613480068401C1149086068
:1038100000BF0F481430006884B22146002001F038
:10382000C3FD0D4800680A49243108600A48406811
:10383000091D086008488068091D086000BF054828
:103840000068401E0349086000B962B600BF10BDA1
:1038500010040140580000208811002021B1028886
:1038600042F08002028004E002884FF67F731A4023
:1038700002807047CA4302827047CA43028270477F
:1038800021B1028842F00102028004E002884FF672
:10389000FE731A400280704730B5024600200023B4
:1038A0000024158A05EA0103958905EA010413B18C
:1038B0000CB1012000E0002030BD000070B50024F4
:1038C00000220023058C4FF6FE7635400584028CDD
:1038D0008388048B4FF68F752C40B51E2C400D88C5
:1038E0002C43751E2A408D892A434D882A43104D4A
:1038F000A84202D00F4DA84213D14FF6F7752A40C7
:10390000CD892A434FF6FB752A408D882A434FF60E
:10391000FF652B404FF6FF552B400D8A2B434D8AF8
:103920002B43838004838D684563028470BD00004F
:1039300000000140000401400A460021018B4FF6BF
:10394000F7731940114301837047000070B50024DC
:1039500000220023058C4FF6EF7635400584028C5B
:103960008388048B48F6FF752C404FF6FF452C40AA
:103970000D884FF6FF7606EA05252C434FF6DF75D6
:103980002A408D8906EA05152A434D8806EA051561
:103990002A43154DA84202D0144DA8421DD14FF61E
:1039A0007F752A40CD894FF6FF7606EA05152A4332
:1039B0004FF6BF752A408D8806EA05152A434FF653
:1039C000FF352B404FF2FF752B400D8A06EA850527
:1039D0002B434D8A06EA85052B43838004838D683B
:1039E0008563028470BD00000000014000040140B6
:1039F0000A460021018B4FF2FF7319404FF6FF7307
:103A000003EA0223194301837047000070B50024C4
:103A100000220023058C4FF6FF6635400584028C9A
:103A20008388848B4FF68F752C404FF6FC752C40A5
:103A30000D882C434FF6FF552A408D894FF6FF76AF
:103A400006EA05252A434D8806EA05252A43154D31
:103A5000A84202D0144DA8421DD14FF2FF752A4052
:103A6000CD894FF6FF7606EA05252A434FF6FF3546
:103A70002A408D8806EA05252A434EF6FF752B401D
:103A80004DF6FF752B400D8A06EA05152B434D8A2E
:103A900006EA05152B43838084838D68C563028401
:103AA00070BD000000000140000401400A460021F2
:103AB000818B4FF6F77319401143818370470000E3
:103AC00070B5002200230024058C4EF6FF763540A9
:103AD0000584038C8488828B48F6FF752A404FF654
:103AE000FF452A400D884FF6FF7606EA05252A4352
:103AF0004DF6FF752B408D8906EA05352B434D8821
:103B000006EA05352B430A4DA84202D0094DA842CA
:103B100008D14BF6FF752C400D8A4FF6FF7606EA6A
:103B200085152C43848082838D680564038470BD71
:103B300000000140000401400A460021818B4FF241
:103B4000FF7319404FF6FF7303EA02231943818381
:103B500070474163704781637047C16370470000DD
:103B600000220288184B98420ED0184B98420BD076
:103B7000B0F1804F08D0164B984205D0154B9842B3
:103B800002D0154B984204D14FF68F731A404B88E0
:103B90001A43124B984207D0114B984204D04FF66B
:103BA000FF431A400B891A4302804B68C3620B889B
:103BB0000385054B984202D0044B984201D18B7A81
:103BC0000386012383827047000001400004014006
:103BD0000004004000080040000C004000100040BD
:103BE0000014004010B540F225511D4800F085F842
:103BF00010B31B4800F03AF9C4B21A48008800F428
:103C00000040C8B91748008800F4804060B10A2C11
:103C100003D000201349088020E01248008840F4B7
:103C200000401049088019E00D2C06D10D4800888D
:103C300040F480400B49088010E00A480088C0F337
:103C40000D0009490C5407480088401C05490880AC
:103C500008460088C72801DD0020088010BD00004C
:103C600000100140140100203E2B002010B5114827
:103C70000088114908700F48001F00880870002153
:103C80000E48FDF7DBFA01200D4908700D490B487D
:103C9000FDF7BAFA00BF0948FDF7DBFA0028FAD1B0
:103CA0004FF400710548FDF7DEFA01210348FDF7E6
:103CB000C5FA10BD044800400A01002028600240F7
:103CC00006010020000C001021B1828942F400524C
:103CD000828104E082894DF6FF731A408281704729
:103CE00002460020B1F5007F00D100BF13880B40D1
:103CF0000BB1012000E00020704770B5024600249F
:103D000000230025002040F66A16B14200D100BF12
:103D1000C1F3421501F01F03012606FA03F3012D3A
:103D200002D19689334006E0022D02D1168A334033
:103D300001E0968A33400C12012606FA04F4168834
:103D4000344013B10CB1012000E0002070BDF0B58B
:103D50000346002400260025002040F66A17B942D9
:103D600000D100BF1846C1F3421401F01F0601271D
:103D700007FA06F5012C01D10C3004E0022C01D128
:103D8000103000E014301AB107682F43076002E0DA
:103D90000768AF430760F0BD2DE9FF4705460E46B3
:103DA0000024A14600BFA046B08900B100BF2C8A04
:103DB00024F44054F08804432C82AC8941F20C6016
:103DC0008443B08831890843718908430443AC8136
:103DD000AC8A24F44074B0890443AC826846FFF78F
:103DE00003FA2048854202D01F48854202D1DDF8FF
:103DF0000C9001E0DDF80890A88900F4004040B183
:103E000009EBC90000EB091031684900B0FBF1F77C
:103E100007E009EBC90000EB091031688900B0FB2D
:103E2000F1F76420B7FBF0F004012009642101FBE5
:103E30001078A88900F4004040B1322000EBC8009F
:103E4000B0FBF1F000F00700044308E0322000EB83
:103E500008106421B0FBF1F000F00F0004432C8146
:103E6000BDE8FF870010014000140140014688882A
:103E7000C0F308007047C1F308028280704700BF9A
:103E8000FEE703B401984100009850EAC12018BF32
:103E900004204A0D18BF40F0010040F2FF72B2EB5F
:103EA000515F08BF40F00200012808BF052002B0A2
:103EB000704700000000000070B5C1482DED020BF6
:103EC0002DED0E8B82B0119D25F000449FEDBEDBE1
:103ED0009FEDBFEB84423EDBA4F140511098A1F16D
:103EE0007F6108430FD0BC48844202DC28D110987F
:103EF00030B39DED100B02B0BDEC0E8B02B0BDE8EF
:103F0000704001F079B89DED100B53EC1D2B51EC76
:103F1000100B01F0DBFD9DED100B41EC180B53EC89
:103F20001E2B51EC100B01F0D1FD53EC182B01F0BE
:103F300045FB41EC100B02B0BDEC0E8B02B070BD26
:103F40000120FCF7F1F902B0BDEC0E8B02B0BDE828
:103F5000704001F065B8A1489FEDA18B844256DA0C
:103F60009DED100BB4F1795F0ADA51EC100BFFF7FD
:103F700088FF042808BF01F063F89DED100BDAE715
:103F800053EC102B51EC100B01F0A0FD41EC190B80
:103F900095480621B0EE490AF0EE690A784400F02F
:103FA00017FF53EC192B51EC100B01F08FFD41EC76
:103FB0001A0B8E48B0EE490AF0EE690A04217844E3
:103FC00000F006FF53EC192B51EC100B01F07EFDB5
:103FD00053EC182B01F0F2FA41EC100B51EC1A0BD8
:103FE00053EC102B01F092FBCDE900019DED000B8D
:103FF00053EC102B9DED100B51EC100B01F066FDF6
:104000009DED101B53EC112B01F0D8FAD2E09DED81
:10401000100B51EC100B01F08DF853EC182B01F044
:1040200053FE9FED730BCDE9000153EC102B9DED7A
:10403000000B51EC100B01F049FD41EC190B6E48DF
:104040000621B0EE490AF0EE690A784400F0C0FE9D
:1040500053EC192B51EC100B01F038FD41EC1B0B0C
:104060006648B0EE490AF0EE690A0421784400F08F
:10407000AFFE53EC192B51EC100B01F027FD53EC64
:10408000182B01F09BFA41EC1C0B51EC190B01F0C1
:10409000B3F841EC180B5A489FED5BABA04222DC11
:1040A00053EC1C2B51EC1B0B01F030FBCDE9000154
:1040B0009DED000B51EC180B53EC102B01F006FD9D
:1040C00053EC182B01F07AFA53EC1A2B01F0FEFC9A
:1040D00053EC1D2B01F0D0FE53EC1E2B01F0F4FD30
:1040E00041EC100B5FE08DED008B002000909DED0A
:1040F000000B51EC180B53EC102B01F05FFA9DED07
:10410000000B41EC1E0B53EC102B51EC100B01F08B
:10411000DDFC53EC192B01F0D7FD53EC1E2B01F005
:10412000F5FA41EC190B53EC1C2B51EC1B0B01F075
:10413000EDFA41EC1B0B53EC1A2B51EC190B01F06F
:10414000C5FC53EC1D2B01F0BFFD41EC190B53ECEA
:104150001A2B51EC180B01F0B9FC53EC1B2B01F09E
:10416000B5FC53EC192B01F087FE9DED000B41ECE3
:10417000180B53EC1A2B51EC100B01F0A7FC9FED20
:10418000249B53EC192B01F09FFD41EC100B51ECDB
:10419000180B53EC102B01F06FFE53EC192B01F0B0
:1041A00093FD41EC100B002D3FF7C5AE51EC100B09
:1041B00001F0C6F941EC100BBDE600000000000064
:1041C0000000F03F00000000075C143326A6913C7D
:1041D000182D4454FB21F93F0000F07F0000E03F20
:1041E000000000000000F03FA8210000B621000000
:1041F000000000000000E03FFA200000082100005D
:104200003333EF3F000000000000000000000040DA
:10421000182D4454FB21E93F70B59B482DED020B4E
:104220002DED068B079D25F00044A04218DC974831
:10423000844202DC0AD1069840B19DED060BBDEC2C
:10424000068B02B0BDE8704000F0D6BE002DCCBF9A
:104250009FED8F0B9FED900BBDEC068B02B070BDF8
:104260008F48A04215DD8F48A042D8BF4FF0FF34E1
:1042700058DD9DED060B51EC100BFFF702FE0428F4
:1042800008BF00F0DDFE9DED060BBDEC068B02B015
:1042900070BD9DED060B51EC100B00F04BFFCDE90E
:1042A000060181489FED828BA0423CDD8248A042FE
:1042B0001FDD00249FED82AB9DED060B53EC1A2B06
:1042C00051EC100B01F07AF99DED060B41EC190B46
:1042D00053EC1A2B51EC100B01F0F8FB53EC182B9C
:1042E00001F0CAFD53EC192B01F010FACDE90601DB
:1042F00049E09DED060B012453EC182B51EC100BFB
:1043000001F05CF99DED060B41EC190B53EC182BF9
:1043100051EC100B01F0B0FD53EC192B01F0F6F944
:10432000CDE906012FE06848A0421FDD02249FED81
:10433000689B9DED060B53EC192B51EC100B01F013
:10434000C5FB53EC182B01F039F99DED060B41EC40
:10435000180B53EC192B51EC100B01F08DFD53ECA5
:10436000182B01F0D3F9CDE906010CE09DED060B09
:10437000032453EC102B9FED580B51EC100B01F064
:10438000C5F9CDE906019DED060B53EC102B51EC60
:10439000100B01F09BFB41EC180B53EC182B01F0B8
:1043A00095FB41EC190B4E480621B0EE490AF0EEA0
:1043B000690A784400F00CFD53EC182B51EC100BFB
:1043C00001F084FB41EC180B4648B0EE490AF0EED0
:1043D000690A0521784400F0FBFC53EC192B51ECE1
:1043E000100B01F073FB41EC100B51EC180B53EC6C
:1043F000102B002C0EDA01F0E1F89DED061B53ECBA
:10440000112B01F063FB9DED061B53EC112B01F00A
:104410005BFC35E001F0D2F89DED061B53EC112B4F
:1044200001F054FB41EC100B2F48784400EBC40022
:1044300090ED001B51EC100B53EC112B01F01CFD07
:104440009DED061B53EC112B01F016FD41EC100BFA
:104450002648784400EBC40090ED001B51EC100B93
:1044600053EC112B01F030FC41EC100B002DA2BFDE
:10447000BDEC068B02B070BD51EC100B01F060F882
:1044800041EC100B01E70000000010440000F07F39
:10449000182D4454FB21F93F182D4454FB21F9BF3A
:1044A0000000DC3F0000203E0000F33F0000000061
:1044B000000000000000F03F0000E63F00000000A8
:1044C00000000000000000400080034000000000E9
:1044D000000000000000F83F000000000000F0BFF6
:1044E0004A1E0000001E00008A1D0000421D000040
:1044F00070B56B4E2DED040B2DED028B82B0DDF807
:104500001CC0DDE905235C422CF000411C4341EA5C
:10451000D474049D22F00040B44205D86C422C4370
:1045200040EAD474B4420BD99DED061B9DED040BFB
:1045300002B0BDEC028B04B0BDE8704000F066BD77
:10454000ACF14054A4F17F641C430BD0022404EA74
:10455000AC7444EAD27405439FED538B9FED542B0A
:1045600007D015E09DED040B51EC100B00F07AFD27
:1045700042E0002C11BF012C9DED040B02B0BDECFC
:10458000028B04BF04B070BD022C38D0032C3BD08A
:104590000B439FED491B9FED4A0B0AD0B14218D146
:1045A000B04209D121F0804120F080400791059070
:1045B0000FE0002A15DA10E0434B7B44002C08BFC3
:1045C00093ED000B0DD0012C10D0022C17D0032C32
:1045D0001AD0B0421DD1002A03DAB0EE410AF0EE43
:1045E000610A02B0BDEC028B04B070BD93ED000B0C
:1045F00051EC100B00F0A4FF41EC100BF1E7B0EE12
:10460000480AF0EE680AECE7B0EE420AF0EE620A01
:10461000E7E7401A00153C28C8BF8DED000B19DCF8
:10462000BCF1000FBEBF10F13C0F9FED290B8DEDCB
:10463000000B0FDB9DED060B53EC102B9DED040BD7
:1046400051EC100B01F062F800F074FD00F00AFD6F
:10465000CDE90001002C08BF9DED000BC1D0012C5D
:1046600010D0022C9FED1C0B53EC102B9DED000B7A
:1046700051EC100B0DD001F0FFFB53EC182B01F0A7
:10468000FBFBB9E7019880F0004001909DED000B25
:10469000A7E701F0F1FB53EC182B01F015FBABE79A
:1046A0000000F07F00000000182D4454FB21094059
:1046B000182D4454FB2109C0182D4454FB21F9BF87
:1046C000182D4454FB21F93FA21C000000000000FB
:1046D0000000000000000000075C143326A6A13C87
:1046E00010B52F499FED2C1B2DED020B84B00598C2
:1046F00020F000408842DCBF00209DED040B32DD3D
:104700002849884209D1049840B94FF00100FBF7CD
:104710000BFE00F085FC06B010BD05DB9DED040B23
:1047200000F06AFC06B010BD68469DED040B00F079
:104730007BF810F0030011D0012818D09DED021B6A
:104740009DED000B02281AD000F08AFA51EC100BF4
:1047500000F0F6FE06B041EC100B10BD9DED021B03
:104760009DED000B012000F0AFFB06B010BD9DEDEC
:10477000021B9DED000B00F073FA06B010BD012086
:1047800000F0A2FB51EC100B00F0DAFE06B041EC99
:10479000100B10BD00000000000000000000000031
:1047A000FB21E93F0000F07F00B52DED048BB0EE5A
:1047B000409AF0EE609A83B051EC190B01F090FA38
:1047C00041EC180B18EE100A18EE901A8DED008BC4
:1047D000002818BF0120084320F00040C0F17F608E
:1047E00000F1E040C00F14D019EE101A19EE900A33
:1047F0008DED009B002918BF0121084320F00040E7
:10480000C0F17F6000F1E040C00F04BF0120FBF762
:104810008BFDB0EE480A03B0F0EE680ABDEC048BE5
:1048200000BD0000000000002DE9F14F04462DED11
:10483000020B2DED088B8AB09FEDE70B80ED020B8C
:10484000139EE74826F0004585420ADC9DED120BD9
:10485000002084ED000B0AB0BDEC088B03B0BDE86E
:10486000F08FE0489FEDE0AB9FEDE1BBA84247DD54
:10487000E14F9FEDE39B9FEDE48B9DED120B53EC1D
:104880001A2B51EC100B002E1CDD01F0F5FA41EC57
:10489000100BBD4208D053EC1B2B51EC100B01F058
:1048A000EBFAC4E900010BE053EC192B51EC100BAF
:1048B00001F0E2FA53EC182B01F0DEFAC4E9000132
:1048C0000120C8E700F07AFE41EC100BBD4208D091
:1048D00053EC1B2B51EC100B00F070FEC4E90001EF
:1048E0000BE053EC192B51EC100B00F067FE53EC6E
:1048F000182B00F063FEC4E900014FF0FF30AAE777
:10490000C348A84279DB9DED120B51EC100B00F06F
:1049100011FC41EC180B9FEDC00B53EC102B01F078
:10492000D5F89FEDBF1B53EC112B00F047FE01F0B3
:1049300045F8074601F09FF841EC190B53EC1A2B90
:1049400001F0C4F853EC182B01F0BEF941EC180B40
:1049500053EC1B2B51EC190B01F0B8F8DFF8C8A28F
:1049600041EC100B4FEA15580125FA4453EC102B7B
:1049700051EC180B01F080FA032DC4E900013DD081
:10498000C1F30A5005EB4511A8EB00001139814233
:1049900034DA0AEB051BB0EE48AA9BED000BF0EEF3
:1049A00068AA53EC102B51EC190B01F08FF841EC75
:1049B0001B0B51EC1A0B53EC1B2B01F05DFA41EC75
:1049C000180B51EC1A0B53EC182B01F055FA53EC61
:1049D0001B2B01F051FA9BED020B41EC1A0B53EC2F
:1049E000102B51EC190B01F071F853EC1A2B01F05C
:1049F00043FA41EC100B6D1CB8E70EE0002EA8BF87
:104A00003846BFF628AF94ED000B51EC100B00F0C8
:104A100097FDC4E9000178421DE7C6F3130040F496
:104A2000801EC6F30A50A0F2F530471100F01F05B2
:104A3000C5F12000DDF848B00890002006900790EE
:104A40000520EC467949002D07EB0002794408BFA8
:104A500051F8221009D051F8223001EB8201AB400D
:104A60004A68089922FA01F11943A1FB0E26A1FB1D
:104A70000B131A449A4234BF0123002303EB0608A8
:104A80000CEB8003D3E901A60E448E4234BF012112
:104A9000002192448A4411B1924502D903E0924523
:104AA00001D2012100E00021C3E901A641444CF8F4
:104AB0002010011EA0F10100C4DC029800F100509A
:104AC000850F0298DDE903678000DDF8148000F0AF
:104AD000D2FF41EC1A0B304600F0E4FF9FED541B6F
:104AE00053EC112B00F0F2FF41EC1B0B384600F0A9
:104AF000D9FF9FED511B53EC112B00F0E7FF41EC68
:104B0000180B404600F0CEFF9FED4D1B53EC112BD0
:104B100000F0DCFF41EC190B51EC180B53EC192B96
:104B200000F04CFD53EC1B2B00F048FD53EC1A2B0E
:104B300000F044FDCDE90801002008909DED080B30
:104B400053EC1A2B51EC100B01F096F953EC1B2B84
:104B500001F092F953EC182B01F08EF953EC192B5C
:104B600001F0B2F89FED381B53EC112B00F0AEFFB3
:104B70009FED370B41EC180B53EC102B9DED080B00
:104B800051EC100B00F0A2FF53EC182B00F016FDB7
:104B90009FED310B41EC180B53EC102B9DED080BE6
:104BA00051EC100B00F092FF53EC182B00F006FDB7
:104BB00041EC100B139810F0004F06D06D4251ECF1
:104BC000100B00F0BDFC41EC100B284684ED000BEF
:104BD00041E60000000000000000000000000000AE
:104BE000FB21E93F7CD9024000004054FB21F93F02
:104BF0003163621A61B4D03DFB21F93F000000002F
:104C00000000601A61B4D03D7370032E8A19A33B73
:104C1000FB2139410000000083C8C96D305FE43FCB
:104C2000000000000000E03FFA18000048180000F3
:104C3000000000000000103E000000000000103CDA
:104C4000000000000000103A182D4454FB21F93DEB
:104C50003326A611460B113C00000054FB21F93D00
:104C600010B52DED040B2DED088B82B0B0EE419AFE
:104C7000F0EE619A0B9820F000449FED4BABB4F13D
:104C8000795F11DA9DED0A0B51EC100B00F096FEE6
:104C9000002801BFB0EE4A0AF0EE6A0A02B0BDEC8D
:104CA000088B04BF04B010BD9DED0A0B53EC102B14
:104CB00051EC100B00F00AFF41EC180B3C480621A8
:104CC000B0EE480AF0EE680A784400F081F853EC40
:104CD000182B51EC100B00F0F9FE9DED0A0B41EC86
:104CE0001B0B53EC192B51EC100B00F0EFFE41ECB9
:104CF000190B53EC1B2B51EC180B00F0E7FE53EC97
:104D0000192B01F0B9F89FED2C0B41EC190B53EC6A
:104D1000102B51EC180B00F0D9FE41EC100B284879
:104D2000844210DA53EC192B51EC100B01F0A4F86B
:104D300053EC1A2B00F0C8FF41EC100B02B0BDEC95
:104D4000088B04B010BD1F48A042BCBF9FED1E1BC6
:104D50008DED001B06DBA4F50010019000200090F3
:104D60009DED001B51EC100B53EC112B01F084F85E
:104D70009DED000B41EC180B53EC102B51EC1A0B72
:104D800001F07AF841EC1A0B53EC192B51EC180B8B
:104D900001F072F853EC1A2B00F096FF41EC100B67
:104DA000CCE7000000000000000000000000F03F21
:104DB0006415000000000000000000000000E03F5B
:104DC0003333D33F0000E93F000000000000D23F32
:104DD00070B504462DED028B4D1E00EBC500B0EE04
:104DE000408AF0EE608A90ED000B35F0060017D097
:104DF00053EC182B51EC100B00F068FE41EC100B3B
:104E00006D1E04EBC50090ED001B51EC100B53EC34
:104E1000112B00F0D3FB41EC100B35F00600E7D16D
:104E2000022D36D0042D1CD0062D1CBFBDEC028BEC
:104E300070BD53EC182B51EC100B00F047FE94EDB5
:104E40000A1B53EC112B00F0B9FB53EC182B00F0AC
:104E50003DFE94ED081B53EC112B00F0AFFB41EC31
:104E6000100B53EC182B51EC100B00F02FFE94EDAF
:104E7000061B53EC112B00F0A1FB53EC182B00F098
:104E800025FE94ED040B53EC102B00F097FB41EC46
:104E9000100B53EC182B51EC100B00F017FE94ED97
:104EA000021B53EC112B00F089FB53EC182B00F084
:104EB0000DFE94ED001B53EC112B00F07FFBBDECBD
:104EC000028B41EC100B70BD31B504462DED040B87
:104ED0002DED0A8BB0EE41BAF0EE61BA0B989DED64
:104EE0000A0B20F00040B0F1795F0DDA51EC100BA5
:104EF000FEF7C7FF042808BF00F0A2F89DED0A0BDB
:104F0000BDEC0A8B05B030BD53EC102B51EC100BEF
:104F100000F0DCFD41EC180B9DED0A0B53EC182B57
:104F200051EC100B00F0D2FD41EC190B2C48B0EE07
:104F3000480AF0EE680A05217844FFF749FF9FED23
:104F40002ACBB0EE40AAF0EE60AA9CB353EC1C2B27
:104F500051EC190B00F0BAFD41EC1C0B53EC1A2B71
:104F600051EC190B00F0B2FD9FED210B41EC190B38
:104F700053EC102B51EC1B0B00F0A8FD53EC192B3C
:104F800000F07AFF53EC182B00F0A0FD53EC1B2B24
:104F900000F072FF53EC1C2B00F06EFF9DED0A1B1E
:104FA00053EC112B00F090FEBDEC0A8B05B041ECE8
:104FB000100B30BDFFE753EC1A2B51EC180B00F02F
:104FC00085FD53EC1C2B00F0F9FA53EC192B00F083
:104FD0007DFD9DED0A1B53EC112B00F0EFFAE3E78A
:104FE000F413000000000000495555555555C5BF44
:104FF000000000000000E03F10B553EC102B51EC16
:10500000100B00F0DBFA41EC100B10BD10B553ECA7
:10501000112B51EC100B00F0D1FA41EC100B10BD2C
:105020009FED050B10B553EC102B51EC100B00F05D
:105030006DFB41EC100B10BD0000000000000000F3
:105040009FED050B10B553EC102B51EC100B00F03D
:105050003DFD41EC100B10BD0000000000000010F1
:1050600000BF704710B541EC100BFFF7D5F851ECBD
:10507000100B10BD10B504466FF00400FEF786FA61
:10508000E11704EB5171C1F3C701074A11701046D3
:10509000007800EB4001C1EBC0104FF6FF7101EA50
:1050A000C0000249088010BD0C0100200E01002044
:1050B00070B504464FF4077094FBF0F0C6B24FF49D
:1050C000077094FBF0F100FB114085B205E04FF44E
:1050D000077000F009F8701EC6B2002EF7D115B1A6
:1050E000284600F001F870BD0146114A12884A4373
:1050F0004FF0E0235A6100229A611A46126942F089
:1051000001021A6100BF4FF0E022106900F00102B5
:105110001AB100F48032002AF5D04FF0E022126973
:1051200022F001024FF0E0231A6100229A617047D9
:105130000E01002082B0CDE9000121F00040019075
:105140009DED000B02B051EC100B704700BF054AFB
:10515000128802F04002002AF9D0C2B2014B9A80B4
:105160007047000000100140F0EE400AF6EE001A11
:1051700060EEA11AB0EE611AB0EE600A10EE100AED
:105180000749A1EB600000EE100A21EE002AF7EEBD
:10519000081A42EE401A61EE801AB0EE610A7047BA
:1051A000DF59375F4FF4A060FDF7E2FF4FF4E130C5
:1051B00000F0A4F8A820FFF75DFFFEF771FAFDF7F5
:1051C000DBFDFDF7E3FDFDF7D7FC08480068084963
:1051D0000860FEF7EFF9FCF70CF8012005490870AC
:1051E000FDF781FF01E0FCF7C1F8FCE74400002077
:1051F000180000201C00002000B52DED048B83B0AA
:1052000041EC190B00F06CFD41EC180B18EE100A84
:1052100018EE901A8DED008B002818BF012008436E
:1052200020F00040C0F17F6000F1E040C00F14D0DA
:1052300019EE101A19EE900A8DED009B002918BF87
:105240000121084320F00040C0F17F6000F1E04000
:10525000C00F04BF0120FBF767F851EC180B03B037
:10526000BDEC048B00BD000010B51F48007800B9EC
:1052700010BD1E48006840F2E731884207DA1B483B
:105280000068401C19490860FDF74EFB29E000202A
:1052900016490860164800683B2805DA144800687B
:1052A000401C134908601CE00020114908601148A7
:1052B00000683B2805DA0F480068401C0D4908606B
:1052C0000FE000200B4908600B480068172805DA3A
:1052D00009480068401C0849086002E000200649AF
:1052E000086000BFC4E700001C000020540000203C
:1052F000500000204C0000204800002010B588B06D
:10530000044601210846FDF73FFF01211020FDF76B
:105310005BFF072209212248FCF726F907220A2110
:105320001F48FCF721F94FF4C060069002208DF869
:105330001C008DF81D0000208DF81E0001208DF846
:105340001F0006A91648FCF7C7F802940020ADF824
:105350000C00ADF80E00ADF81000ADF814000C20F4
:10536000ADF8120002A90F48FEF716FD01210D4805
:10537000FEF7AAFC012240F225510A48FEF7E7FC9D
:1053800025208DF8040003208DF805008DF8060017
:1053900001208DF8070001A8FDF7AEFE08B010BD92
:1053A0000000024000100140034A52F82020521C25
:1053B000014B43F820207047C4110020F0B589B09C
:1053C00006460F4615461C2D01DD09B0F0BD002133
:1053D00001AAE81C115488208DF804008DF805609E
:1053E0008DF80650002405E0395DE01C01AA115437
:1053F000601CC4B2AC42F7DB00240AE001A9E81C3F
:10540000085C095D0844C1B201AAE81C1154601C83
:10541000C4B2E81C8442F1DB002405E001A9085D68
:1054200000F068F8601CC4B2281D8442F6DB00BF9F
:10543000CBE72DE9F04F87B004460D4616461F46D0
:10544000DDE911ABDDF840904FF0000806E00020E8
:105450000DF8080008F1010000F0FF08B8F11C0F7A
:10546000F5DB200A8DF80000E0B28DF80100280A73
:105470008DF80200E8B28DF80300300A8DF80400C0
:10548000F0B28DF80500380A8DF80600F8B28DF8F4
:1054900007004FEA19208DF8080009F0FF008DF889
:1054A00009004FEA1A208DF80A000AF0FF008DF873
:1054B0000B004FEA1B208DF812000BF0FF008DF857
:1054C00013001398000A8DF814001398C0B28DF8D9
:1054D00015001498000A8DF816001498C0B28DF8C3
:1054E00017001C226946AF20FFF768FF07B0BDE830
:1054F000F08F000010B5044600BF40210448FEF7BD
:10550000EFFB0028F9D021460148FEF7B4FC10BD9E
:105510000010014010B500290AD00878002807D0F3
:1055200005487844FBF768FA002801D0002010BD38
:105530000248784410BD0000EA0E0000E20E0000B0
:1055400081F00041704780F00040704721F0004139
:10555000704720F00040704721F00042A2F16052F5
:10556000B2F5801F01F0004328BFD2F17F6C0BD948
:105570005FEA001C43EAC20242EB507018BF70475A
:1055800028BF20F001007047B2F5801FBCBF18464D
:1055900070474FEA410C1CF5001F02D2084600F08C
:1055A000CBBD70B500F03CFB00000089FFF7F6BFF3
:1055B0004FF00040A0F580007047000010B591EA60
:1055C000030F48BF83F0004300F15E84841A71EB3F
:1055D000030C05D2121943EB0C03001B61EB0C0109
:1055E000DFF824E14FEA1154A4EB135C1EEA430FE9
:1055F00018BF9EEA445F73D023EA0E03DCF1200E4D
:1056000021EA045143F4801332D322FA0CFE10EB4A
:105610000E0023FA0CFE41EB0E01CCF1200E03FA32
:105620000EFE10EB0E0051F10001B1F5801FCCF120
:10563000200E32D201EB045112FA0EF2BDE81040F6
:1056400058BF7047401C38BF5FEA420218BF70471E
:10565000002814BF20F0010041F100014FEA41038E
:1056600013F5001F38BF7047A1F1C04100F026BB01
:10567000012A43EB0302ACF1200CDCF11F0E32BF18
:105680004FF0000E23FA0CF310EB030041EB045132
:10569000B4EB115FD0D0A1EB045101F580114908A2
:1056A0005FEA300001EB04510ED350F1000038BF27
:1056B00012FA0EFE08D1BDE81040C9E7401C38BF01
:1056C0005FEA4202CAD1C3E7BDE810404FEA410396
:1056D00013F5001F38BF7047A1F1C04100F0EEBACA
:1056E0009EEA445F08D011EA5E0FBDE8104004BF97
:1056F00001F0004100207047BDE8104070B500F097
:105700008FFA00BF64FBBE3E0000E0FF2DE9C04100
:1057100030B4DFF8A0C23CEA111418BF3CEA1314FD
:1057200000F0EC8081EA03051CEA111444EAD57408
:1057300018BF1CEA131500F0C780A4EB05044FF056
:10574000004545EAC12145EAC32341EA505143EAF5
:10575000525304F17F74994204F500344FEAC0209B
:105760004FEAC22208BF904200F09C804FEA1365C6
:105770000FF24016765D4FEA134506FB05F7C7F1B9
:10578000807706FB07F74FEAD737A7FB0368764217
:10579000C8F58038A7FB06CE38BFA8F1010807FB83
:1057A00008E64FF0000EA6FB028CE6FB03CEDCF110
:1057B000000CCEF1004E38BFAEF1010EA6FB0C5826
:1057C0004FF000074FF00005E6FB0E87A1FB08C66F
:1057D000A0FB07CE16EB0E0645F10005E1FB0765C1
:1057E00015F1E04E7EBFA4F580345FEA46066D41B8
:1057F00016F1800745F100054FEA17274FEA0666C4
:1058000047EA0567A6F1DE46B6F1805F4FEA152547
:105810001FD9384624F0010C05EBC471BCF1FE6FB2
:1058200001EB0C1102D8F0BCBDE8008124425CBF42
:1058300001F5801E9EEAC47F02D4F0BCBDE8008161
:10584000244238D4F0BCA1F1C041BDE8004100F0D1
:1058500035BA4FEAD22242EA43524FEAD323A7FB9A
:1058600002864FEAD02040EA415007FB03661EEA59
:105870000E0F4FEAD12105FB026658BFA6EB00567A
:10588000B6EB00564FEA520E4EEAC37E18EB0E0EF0
:1058900056EB530EBDD518EB02085E417F1C55F147
:1058A0000005B6E74FF480154FF000074FF00006F3
:1058B0004FF00008ADE7F0BC4FF0000001F1C0412F
:1058C00001F00041BDE8008111EA0C1F0CEA13153C
:1058D00000D00CE013EA0C1F00F025804FF0000010
:1058E000F0BC81EA030101F00041BDE80081F0BC99
:1058F000BDE8004181EA030100F0E0B9F0BCBDE879
:10590000004170B500F08CF9097EFC3E00F007B84C
:1059100081EA03014FF0000001F00041704781EA85
:10592000030100F0CBB9F0BCBDE800414FF000002E
:1059300021497047FFFDFBF9F7F5F4F2F0EEEDEBCE
:10594000E9E8E6E4E3E1E0DEDDDBDAD8D7D5D4D37D
:10595000D1D0CFCDCCCBCAC8C7C6C5C4C2C1C0BFC9
:10596000BEBDBCBBBAB9B8B7B6B5B4B3B2B1B0AFCF
:10597000AEADACABAAA9A8A8A7A6A5A4A3A3A2A1B3
:10598000A09F9F9E9D9C9C9B9A999998979796956E
:1059900095949393929191908F8F8E8E8D8C8C8B0A
:1059A0008B8A898988888787868585848483838292
:1059B000828181800000FF070000F87F4FEA4103E9
:1059C0004FEA5353A3F58063D3F11E03C8BFD3F14D
:1059D000210C0CDD4FF0004242EAC12242EA505253
:1059E00032FA03FC8CEAE17CACEBE1707047102BDF
:1059F000C4BF0020704703F5787CBCF1FF3F04D0A2
:105A00006FF0004282EA2100704770B500F008F99B
:105A10004992248000207047F2E700004FEA1153BA
:105A2000A3F58063D3F11E03A8BFD3F1200C08DBDC
:105A30004FF0004242EAC12252EA505232FA03F0D9
:105A4000704709420BD4102BC4BF0020704703F5E8
:105A5000787CBCF1FF3F05D04FF0FF3070474FF02E
:105A60000000704770B500F0DBF800BF4992248059
:105A700000207047F0E710F0004248BF4042B0FA03
:105A800080F310FA03F10AD0C3F11D0303F580631C
:105A90004FEA415002EB035202EBD12170474FF025
:105AA00000007047B0FA80F310FA03F10AD0C3F196
:105AB0001D0303F580634FEA41504FEA035202EBA6
:105AC000D12170474FF0000070470000DFF848C157
:105AD00070B51CEA111E1EBF1CEA13159EEA0C0FBE
