:020000040800F2
:10000000303600205502000835480008C12F00088E
:10001000D94600081D170008B55E00080000000062
:10002000000000000000000000000000394D000842
:10003000A324000800000000E54900086151000801
:100040006F0200086F0200086F0200086F020008CC
:100050006F0200086F0200086F0200086F020008BC
:100060006F0200086F020008612700086F02000895
:100070006F0200086F0200086F0200086F0200089C
:100080006F0200086F0200086F0200086D18000878
:10009000311800086F0200086F0200086F020008A4
:1000A0006F0200086F0200086F0200086F0200086C
:1000B000215300086F0200086F0200086F02000859
:1000C0006F0200086F0200086F0200086F0200084C
:1000D0006F0200082D5A0008E55A0008755B0008F9
:1000E0006F0200086F0200086F0200086F0200082C
:1000F0006F0200086F0200086F0200086F0200081C
:100100006F0200086F0200086F0200086F0200080B
:100110006F0200086F0200086F0200086F020008FB
:100120006F0200086F0200086F0200086F020008EB
:100130006F0200086F0200086F0200086F020008DB
:100140006F0200086F0200086F0200086F020008CB
:100150006F0200086F0200086F0200086F020008BB
:100160006F0200086F0200086F0200086F020008AB
:100170006F0200086F0200086F0200086F0200089B
:100180006F0200086F02000800F002F800F052F859
:100190000AA090E8000C82448344AAF10107DA45E2
:1001A00001D100F047F8AFF2090EBAE80F0013F0E2
:1001B000010F18BFFB1A43F001031847CC9300004E
:1001C000EC9300000A4410F8014B14F00F0508BF2F
:1001D00010F8015B240908BF10F8014B6D1E05D013
:1001E00010F8013B6D1E01F8013BF9D1641E03D0EC
:1001F000641E01F8015BFBD19142E4D3704700001B
:100200000023002400250026103A28BF78C1FBD81F
:10021000520728BF30C148BF0B60704700207047AD
:100220001FB508F0E2FF9DE8030000F035FC1FBD9C
:1002300010B510BD00F0C9FC1146FFF7F1FF07F043
:1002400075FF00F0E7FC03B4FFF7F2FF03BC07F013
:1002500017FE00000948804709480047FEE7FEE70F
:10026000FEE7FEE7FEE7FEE7FEE7FEE7FEE7FEE766
:1002700004480549054A064B7047000079510008BB
:100280008901000830300020303600203032002054
:100290003032002010B5044600BF00BF00BF00BFD1
:1002A000002CFDD000BF00BF00BF0029FDD000BF63
:1002B00000BF00BF002AFDD000BF00BF00BF002B61
:1002C000FDD000BF72B6216002FB0310401E6060CB
:1002D000A3600020E06022746161A16162B6002029
:1002E00010BD2DE9F04104460D460026002700BF51
:1002F00000BF002CFDD000BF00BF00BF002DFDD00F
:1003000000BF1C2000F099FA064616B90020BDE88F
:10031000F08104FB05F000F090FA07460FB90020C9
:10032000F5E72B46224639463046FFF7B3FF304605
:10033000EDE710B5044600BF00BF002CFDD000BFA4
:1003400000BF00BF20680028FCD000BF206800F07C
:10035000A3FA204600F0A0FA10BD034600BF00BF7C
:1003600000BF00BF002BFDD000BF00BF00BF0029B1
:10037000FDD000BF00BF00BF002AFDD000BF72B695
:1003800019608818401E58609A600020D860196172
:10039000596162B60020704770B5044600250026FA
:1003A00000BF00BF002CFDD000BF182000F045FAB0
:1003B00005460DB9002070BD204600F03EFA064605
:1003C0000EB90020F7E7224631462846FFF7C5FF61
:1003D0002846F0E710B5044600BF00BF002CFDD052
:1003E00000BF00BF00BF20680028FCD000BF20680D
:1003F00000F052FA204600F04FFA10BD30B5024628
:1004000000230C4600BF00BF00BF00BF002AFDD084
:1004100000BF00BF00BF0029FDD000BF906810B929
:100420004FF0FF3030BD002310E055689069A842BE
:1004300001D91068906114F8010B9569287072B6A3
:100440009069401C906162B6581CC3B2107C9842FF
:10045000EBDC72B69068401E9060D068401CD060A3
:1004600062B60020DEE7024600BF00BF00BF00BF4B
:10047000002AFDD000BF906810B94FF0FF307047E0
:1004800072B650695368984201D91068506150693A
:1004900001705069401C50619068401E9060D068A7
:1004A000401CD06062B60020E9E770B503460C46F8
:1004B000002500BF00BF00BF00BF002BFDD000BF64
:1004C000986810B94FF0FF3070BD002119E09868AE
:1004D00010B94FF0FF3516E072B65E685869B04249
:1004E00001D918685861605C5E6930705869401CB9
:1004F00058619868401E9860D868401CD86062B601
:10050000491C9142E3D300BF2846DDE730B50246DF
:1005100000230C4600BF00BF00BF00BF002AFDD073
:1005200000BF00BF00BF0029FDD000BFD06810B9D8
:100530004FF0FF3030BD002310E055685069A842ED
:1005400001D9106850615069007804F8010B72B647
:100550005069401C506162B6581CC3B2107C98426E
:10056000EBDC72B69068401C9060D068401ED06092
:1005700062B60020DEE70146002000BF00BF00BFDA
:1005800000BF0029FDD000BF72B60A694B689A42CD
:1005900001D90A680A610A6910780A69521C0A615D
:1005A0008A68521C8A60CA68521ECA6062B6704766
:1005B00070B5024600230C4600BF00BF00BF00BF5D
:1005C000002AFDD000BF00BF00BF0029FDD000BF42
:1005D000D06810B94FF0FF3070BD72B6167CD0688D
:1005E000401E556906FB00501568451BD2E90060A6
:1005F000801B401CB5FBF0F600FB16501568284424
:100600005061D2E90250401E284490600120D06021
:1006100062B6002310E055685069A84201D91068FD
:1006200050615069007804F8010B72B65069401CA3
:10063000506162B6581CC3B2107C9842EBDC72B6B3
:100640009068401C9060D068401ED06062B6002068
:10065000C2E710B50146002000BF00BF00BF00BFC9
:100660000029FDD000BF72B6D1E903321A44521EF0
:100670000B68D31AD1E90042121B521CB3FBF2F4EF
:1006800002FB14320B681A440A610A691078D1E936
:1006900002231A448A600022CA6062B610BD70B597
:1006A00003460C46154600222E46002100BF00BF1F
:1006B000002BFDD000BF00BF00BF002DFDD000BF4C
:1006C000D868A04202D84FF0FF3070BD59690022AF
:1006D00006E05868884200D21968491C501CC2B212
:1006E000187C60439042F4DC002209E0586888429C
:1006F00000D21968087806F8010B491C501CC2B2D8
:10070000187C9042F2DC0020DFE710B502460B4671
:100710000024002100BF00BF002AFDD000BF1169E6
:10072000002406E05068884200D21168491C601C11
:10073000C4B29C42F6DB087810BD014600BF00BF82
:100740000029FDD000BFC86808B90120704700200B
:10075000FCE7014600BF00BF0029FDD000BFC8680C
:1007600008B9012070470020FCE7014600BF00BF28
:100770000029FDD000BF886808B90120704700201B
:10078000FCE7014600BF00BF0029FDD000BF88681C
:1007900008B9012070470020FCE7014600BF00BFF8
:1007A0000029FDD000BFC8687047014600BF00BFE8
:1007B0000029FDD000BFC8687047014600BF00BFD8
:1007C0000029FDD000BF88687047014600BF00BF08
:1007D0000029FDD000BF88687047014600BF00BFF8
:1007E00000BF00BF0029FDD000BF72B6D1E90020D4
:1007F000801A0A7C90FBF2F088600020C8600868CC
:1008000048610868886162B600207047014600BFF1
:1008100000BF00BF00BF0029FDD000BF72B6D1E904
:100820000020801A88600020C86008680861086895
:10083000486162B600207047704770B5064600F008
:100840000FF9056806F10B0020F00704B4429CBFC5
:10085000002070BD2B466A68BAB11068A04210D360
:1008600004F1080188423CBF5068586007D35168C2
:10087000101941601168091B016058601460101D57
:1008800070BD13465268002AE7D12146284600F081
:10089000EFF80028DED170BD70B50446051F00F0EA
:1008A000DFF80068002C14BF446870BD002C18BF2E
:1008B000AC423CBF20466468F8D301680A18AA42DB
:1008C00018BF456003D12A680546114401602868B5
:1008D0004119A1421CBF6C6070BD616869602168EC
:1008E0000844286070BD00000FB4044910B503AA85
:1008F000029800F013F910BC5DF814FB44010020CD
:100900002DE9F0410E460446002020622046E168B1
:10091000884730B3252805D0D4E901219047206AC3
:10092000401CF2E7E168204600278847050018D000
:10093000A5F14100192802D820354FF4006732464E
:10094000294620462760FFF769FC40B1012804D002
:10095000F61D26F007060836D8E7361DD6E72846E6
:10096000DAE7206ABDE8F081032A40F2308010F017
:10097000030C00F0158011F8013BBCF1020F62443A
:1009800098BF11F801CB00F8013B38BF11F8013BCB
:10099000A2F1040298BF00F801CB38BF00F8013B78
:1009A00011F0030300F02580083AC0F0088051F8E8
:1009B000043B083A51F804CBA0E80810F5E7121DF3
:1009C0005CBF51F8043B40F8043BAFF30080D20712
:1009D00024BF11F8013B11F801CB48BF11F8012BDE
:1009E00024BF00F8013B00F801CB48BF00F8012B01
:1009F000704710B5203AC0F00B80B1E81850203A8B
:100A0000A0E81850B1E81850A0E81850BFF4F5AFAE
:100A10005FEA027C24BFB1E81850A0E8185044BF38
:100A200018C918C0BDE810405FEA827C24BF51F8A5
:100A3000043B40F8043B08BF7047D20728BF31F899
:100A4000023B48BF11F8012B28BF20F8023B48BFEA
:100A500000F8012B704770477047704770470000DF
:100A600000487047D82F0020704770477047704784
:100A700038B504460A4600206946AFF300800028D6
:100A800008BF38BD02460099204600F061F80120F9
:100A900038BD012000F092B8F8B5AFF300800546EC
:100AA00000200C46102000BF0646A819A0420DD910
:100AB000324669460020AFF30080070008BF00F00F
:100AC0007DF80098A04218BF0546C419FFF7C8FF7B
:100AD00005600746F01D20F007004619284600F083
:100AE0000AF8B44208BFF8BDA21B31463868BDE819
:100AF000F84000F02DB800210160C0E901107047F6
:100B00001020704710B500F01FF8006810BD10B538
:100B1000044600F019F8046010BD0000074B70B5E2
:100B20000D467B4400F033F80446284600F042F8B6
:100B300010B14FF0FF3070BD204670BDAF750000A2
:100B400000487047D02F002000487047D02F002069
:100B5000034640688C46002818BF88423CBF0346C5
:100B60004068F8D318681844884207D00CF1030095
:100B700020F00700001D411A521A0146081D0A60A4
:100B8000FFF78ABE01694A1C02610878704700B508
:100B90008FB0CDE901310021059105497944CDE9B6
:100BA000031011466846FFF7ABFE0FB000BD000012
:100BB000E5FFFFFF007B00F08000704710B500F0FC
:100BC00037F8BDE8104000F02EB87546FFF7B8FFC3
:100BD000AE4605006946534620F00700854618B02A
:100BE00020B5FFF745FBBDE820404FF000064FF071
:100BF00000074FF000084FF0000B21F00701AC4652
:100C0000ACE8C009ACE8C009ACE8C009ACE8C00970
:100C10008D46704710B50446AFF300802046BDE80E
:100C20001040FFF710BB002801D007F029B970472A
:100C300010B5012805D0002103A000F021F8012003
:100C400010BD09A1F8E7000053494752544D454DE6
:100C50003A204F7574206F662068656170206D655D
:100C60006D6F7279000000003A2048656170206D58
:100C7000656D6F727920636F727275707465640050
:100C800070B505460C460A2000E06D1C07F0FAF826
:100C900035B128780028F8D102E0641C07F0F2F89A
:100CA00014B120780028F8D1BDE870400A2007F080
:100CB000E9B8000010B55A4800785A49097890FB05
:100CC000F1F201FB120157480078401E814202D127
:100CD000012055494871524800785449097890FBE1
:100CE000F1F201FB120151480078401E814202D10D
:100CF00001204D4988714A4800784D49097890FB98
:100D0000F1F201FB12014A480078801E814202D1B3
:100D1000012045494874424800784649097890FBCB
:100D2000F1F201FB120143480078401E814202D1DA
:100D300001203D4908713A4800783F49097890FB05
:100D4000F1F201FB12013C480078401E814202D1C1
:100D5000012035494873324800783849097890FBBA
:100D6000F1F201FB120135480078801E814202D168
:100D700001202D49C8732A4800783149097890FB31
:100D8000F1F201FB12012E480078801E814202D14F
:100D9000012025490874224800782A49097890FBE7
:100DA000F1F201FB120127480078C01E814202D1F6
:100DB00001201D4988741A4800782349097890FB5E
:100DC000F1F201FB120120480078C01E814204D1DB
:100DD0001548C07C401C1449C87411480078401C58
:100DE000C0B20F490870C82801DD002008700E4805
:100DF000007838B10C4A5178107800F079FA002068
:100E0000094908700848807840B100200649887078
:100E10000E4801780E48007800F03EFA10BD000040
:100E20009600002097000020F0210020980000206C
:100E3000990000209A0000209B0000209C000020C8
:100E40009D0000209E0000209F00002093000020B5
:100E50009200002070B504460E460025002004E0F4
:100E6000215C2944CDB2411CC8B2711E8142F7DC1D
:100E7000A01910F8010CA84200D070BD2078AA2853
:100E800002D16078AF2800D0F7E7A07801280FD111
:100E9000207901280CD02079032809D02079042852
:100EA00006D02079212802DB2079262800DD00BF2A
:100EB000A078022810D12079012806D1B249C87142
:100EC000087248728872C87208732079A02802D10B
:100ED0000120AD49C87000BFA07810285ED12079EC
:100EE000000200B26179084300EE100AB8EEC00AB1
:100EF00010EE100AA5490860A079000200B2E1795D
:100F0000084300EE100AB8EEC00A10EE100A9F491E
:100F10004860207A000200B2617A084300EE100AAD
:100F2000B8EEC00A10EE100A98498860A07A000254
:100F300000B2E17A084300EE100AB8EEC00A10EEE3
:100F4000100A93490860207B000200B2617B0843CD
:100F500000EE100AB8EEC00A10EE100A8C49486084
:100F6000A07B000200B2E17B084300EE100AB8EE5D
:100F7000C00A10EE100A864988608348807838B924
:100F8000012081498870A0788249087082480570E4
:100F90007E4807F017F97E4807F014F9A078112869
:100FA0005ED12079000200B26179084300EE100A98
:100FB000B8EEC00A10EE100A78490860A079000265
:100FC00000B2E179084300EE100AB8EEC00A10EE54
:100FD000100A72494860207A000200B2617A084320
:100FE00000EE100AB8EEC00A10EE100A6B498860D5
:100FF000A07A000200B2E17A084300EE100AB8EECF
:10100000C00A10EE100A66490860207B000200B298
:10101000617B084300EE100AB8EEC00A10EE100A19
:101020005F494860A07B000200B2E17B084300EE0C
:10103000100AB8EEC00A10EE100A594988605248EA
:10104000807838B9012050498870A07851490870DB
:1010500051480570514807F0B5F8514807F0B2F80B
:10106000A07812285ED12079000200B2617908438D
:1010700000EE100AB8EEC00A10EE100A49490860E6
:10108000A079000200B2E179084300EE100AB8EE40
:10109000C00A10EE100A43494860207A000200B2EC
:1010A000617A084300EE100AB8EEC00A10EE100A8A
:1010B0003C498860A07A000200B2E17A084300EE61
:1010C000100AB8EEC00A10EE100A37490860207BFB
:1010D000000200B2617B084300EE100AB8EEC00ABD
:1010E00010EE100A30494860A07B000200B2E17B9C
:1010F000084300EE100AB8EEC00A10EE100A2A49A2
:1011000088602148807838B901201F498870A0780C
:101110002049087020480570224807F053F82248FB
:1011200007F050F8A07813280FD11748807838B905
:10113000012015498870A078164908701648057076
:1011400003F0F4FB012019490880A07814280AD183
:101150000D48807838B901200B498870A0780D4976
:1011600008700D480570A07815280AD106488078C7
:1011700038B9012004498870A078064908700648EB
:10118000057000BF79E60000F0210020502B002000
:10119000892B00209200002093000020FB2B0020D0
:1011A000C22B0020A62C00206D2C002094000020D3
:1011B00010B504463448007838B9AA2C05D101206E
:1011C00031490870314804705DE02F4800780128EB
:1011D00007D1AF2C05D102202B4908702B48447051
:1011E00051E029480078022807D1F12C05DA0320C4
:1011F000254908702548847045E023480078032875
:101200000CD1322C0ADA04201F4908701F48C47020
:101210001F48047000201F49087034E01A48007805
:10122000042819D11A480078002815DD18480078DC
:10123000401E174908701748007816490978491C5C
:10124000144A1170001D11490C5411480078D0B98E
:1012500005200D49087016E00B48007805280FD1CD
:101260000020094908700B480078001D07490C54FC
:1012700008480078401DC1B20448FFF7EBFD02E0CA
:1012800000200149087010BDA20000203622002075
:10129000A0000020A100002070B504460D46AA2041
:1012A0000D4908704870EF2088700220C870084609
:1012B000047145710026002005E00749095C3144AE
:1012C000CEB2411CC8B20628F7DB0348867107215D
:1012D00000F004F870BD00000422002070B505463F
:1012E0000C462146014804F05DFE70BD042200203A
:1012F00070B504460D46AA200D4908704870EE20CE
:1013000088700220C87008460471457100260020CC
:1013100005E00749095C3144CEB2411CC8B2062839
:10132000F7DB034886710721FFF7D8FF70BD000087
:10133000042200202DE9F84F05460E461746984630
:10134000DDE90AAB0024AA222146641C5F4842540E
:101350002146641C425402222146641C425400224D
:101360002146641C425400959DF801202146641CCE
:1013700042549DF800202146641C425400969DF87A
:1013800001202146641C42549DF800202146601C27
:10139000C4B24E48425400979DF801202046611C7B
:1013A000CCB24A490A549DF800202046611CCCB2B8
:1013B00046490A54CDF800809DF801202046611C62
:1013C000CCB242490A549DF800202046611CCCB2A0
:1013D0003E490A54CDF800A09DF801202046611C2A
:1013E000CCB23A490A549DF800202046611CCCB288
:1013F00036490A54CDF800B09DF801202146601C02
:10140000C4B2324842549DF800202146601CC4B248
:101410002E4842540C9800909DF801202046611CF3
:10142000CCB22A490A549DF800202046611CCCB257
:1014300026490A540D9800909DF801202046611C11
:10144000CCB222490A549DF800202046611CCCB23F
:101450001E490A540E9800909DF801202046611CF8
:10146000CCB21A490A549DF800202046611CCCB227
:1014700016490A54002000909DF801202046611C66
:10148000CCB212490A549DF800202046611CCCB20F
:101490000E490A54201FC8704FF00009002006E0D2
:1014A0000A49095C494401F0FF09411CC8B2A04245
:1014B000F6DB2046611CCCB2044901F800902146BD
:1014C0000248FFF70BFFBDE8F88F00000422002060
:1014D00000B5E9B04FF4D072324901A8FFF789FA9C
:1014E0009DF804005A2809D101202F4908704FF4B3
:1014F000D07201A92D48FFF737FA07E000202A49EA
:1015000008702A49C1F801005A200870274890F84D
:1015100036005A281DD00021244880F836100020BB
:101520002249888400212148C1840185B7EE000A40
:1015300010EE100A1D49C1F82A00B7EE000A10EE9D
:10154000100AC1F82E00B7EE000A10EE100AC1F81A
:101550003200164890F849005A2820D0002113483C
:1015600080F8491000201149A1F8370000210F48E8
:10157000A0F83910A0F83B10B7EE000A10EE100AE0
:101580000A49C1F83D00B7EE000A10EE100AC1F892
:101590004100B7EE000A10EE100AC1F8450069B02C
:1015A00000BD000000000E085C010020642900203E
:1015B00010B501244FF4D0720349044800F058F8E4
:1015C0000446204610BD00006429002000000E08DB
:1015D00001461C48814201D2002070471A488142CE
:1015E00001D20820F9E71948814201D21020F4E71E
:1015F0001748814201D21820EFE71648814201D2F4
:101600002020EAE71448814201D22820E5E7134868
:10161000814201D23020E0E71148814201D23820D6
:10162000DBE71048814201D24020D6E70E488142D4
:1016300001D24820D1E70D48814201D25020CCE7A9
:101640005820CAE7004000080080000800C00008D9
:10165000000001080000020800000408000006085D
:101660000000080800000A0800000C0800000E082E
:101670002DE9FC5F04460D4690464FF00909012014
:10168000019000264FF0000A00274FF0000B0020C9
:101690000090B4F1006F01D2BDE8FC9F01F07EF92B
:1016A000002001F0CBF8264604EB080A3046FFF78D
:1016B0008FFF83465046FFF78BFF00901648864207
:1016C00011D25F460BE00221384601F0C9F881468D
:1016D000B9F1090F02D00020019003E0083700980B
:1016E0008742F0D900BFB9F1090F0ED10AE029787D
:1016F000204601F02DF9092802D00020019003E0D6
:10170000641C6D1C5445F2D300BF012001F096F813
:1017100001F014F90198BFE70000FF1F00BFFEE7CA
:1017200000B58BB00121084603F05EF9012148069F
:1017300003F06AF909220B213B4801F09AF90922CA
:101740000C21394801F095F94FF4C0500290022065
:101750008DF80C0002A9344801F043F914208DF8EB
:10176000040002208DF8050001208DF806008DF898
:10177000070001A803F060F813208DF80400012091
:101780008DF805008DF806008DF8070001A803F01C
:1017900053F8264800F0E8F808A800F020FB0020E5
:1017A0008DF826008DF827008DF828008DF8290087
:1017B0008DF82A0001208DF82B0000208DF82200E2
:1017C0008DF8230008208DF8240003208DF82500D3
:1017D000ADF8200008A9154800F0FFF900208DF8A9
:1017E0001A008DF81B0001208DF81C000020ADF8B8
:1017F0001000ADF81200ADF81400ADF81600ADF809
:10180000180001208DF81D0004A800F0C9F801227D
:101810000221064800F0D8F901221146034800F0E1
:10182000D3F90BB000BD000000000240006400408E
:1018300000B585B002210B4800F036F978B10421DB
:10184000084800F03DF80849064800F01DF86A46CF
:101850000021044800F04BFA684600F0B9FB05B0DF
:1018600000BD0000006400400800003210B50121F6
:10187000044800F019F918B10121024800F020F8DD
:1018800010BD00000064004000220C4B994202D1C0
:101890000023836111E0C1F3130201F000730BB167
:1018A000C2600AE001F080630BB1026105E001F063
:1018B00000630BB1826000E0426070477000F0305E
:1018C000B1F5007F3AD00FDC202928D006DC0129B1
:1018D0001CD004291DD0082940D11DE0402921D069
:1018E000B1F5807F3AD126E0B1F5004F31D006DC6A
:1018F000B1F5806F25D0B1F5006F2FD124E0B1F59F
:10190000803F12D0B1F5003F28D111E0154A826026
:1019100025E00822C26022E01022C2601FE00822F7
:1019200002611CE01022026119E00822426016E008
:101930001022426013E00422426010E00422426060
:101940000DE0042242600AE000228261042242602B
:1019500005E0002282610422426000E000BF00BF77
:10196000704700000101010010B504460B48844295
:1019700009D10121480603F057F800214FF000700B
:1019800003F052F808E00121880603F04DF8002129
:101990004FF0806003F048F810BD00000064004084
:1019A00010B50021837A012202FA03F13D4A126840
:1019B00042F001023B4B1A603A4A1C3212688A43D9
:1019C000384B1C331A60027BCAB9364A0C32126893
:1019D0008A43344B0C331A604288C38842EA03437B
:1019E000304A4032847A42F834300288838842EAAE
:1019F00003432C4A4032847A02EBC4025360027BD8
:101A0000012A19D1274A0C3212680A43254B0C339C
:101A10001A604288038842EA0343224A4032847AA9
:101A200042F83430C288838842EA03431D4A403278
:101A3000847A02EBC4025360C27A3AB9194A121D81
:101A400012688A43174B1B1D1A6006E0154A121DC7
:101A500012680A43134B1B1D1A60028932B9114ADE
:101A6000143212688A430F4B14331A600289012A18
:101A700006D10C4A143212680A430A4B14331A6016
:101A8000427B012A06D1074A1C3212680A43054BE1
:101A90001C331A60034A126822F00102014B1A60DB
:101AA00010BD00000066004070B504460D460026DB
:101AB00060692840002871D0B5F5807F5CD010DCCB
:101AC000082D35D006DC012D20D0022D24D0042D88
:101AD00072D127E0102D31D0202D35D0402D6BD183
:101AE00038E0B5F5004F60D009DCB5F5007F49D08E
:101AF000B5F5806F4CD0B5F5006F5DD14FE0B5F511
:101B0000803F2DD0B5F5003F56D12FE0A0682D497C
:101B100000F05FFA064651E0E068032100F059FA50
:101B200006464BE0E068082100F053FA064645E01F
:101B3000E068102100F04DFA06463FE020690321DD
:101B400000F047FA064639E02069082100F041FA22
:101B5000064633E02069102100F03BFA06462DE0EE
:101B60006068082100F035FA064627E06068102119
:101B700000F02FFA064621E0A069012100F029FAC1
:101B800006461BE0A069022100F023FA064615E094
:101B9000A069042100F01DFA06460FE00FE0A069DD
:101BA000702100F016FA064608E06068042100F093
:101BB00010FA064602E0FFE7002600BF00E000261C
:101BC000304670BD010101001AB143690B43436106
:101BD00002E043698B434361704730B50246002001
:101BE0000023146824F002041460146844F0010413
:101BF000146000E05B1C546804F001041CB94FF64B
:101C0000FF74A342F6D1546804F001040CB900201B
:101C10006CE08C79012C04D1146844F080041460C9
:101C200003E0146824F080041460CC79012C04D102
:101C3000146844F04004146003E0146824F0400485
:101C400014600C7A012C04D1146844F02004146050
:101C500003E0146824F0200414604C7A012C04D1B1
:101C6000146844F01004146003E0146824F01004B5
:101C700014608C7A012C04D1146844F008041460B8
:101C800003E0146824F008041460CC7A012C04D119
:101C9000146844F00404146003E0146824F004049D
:101CA00014608C78A407CD7844EA05640D7944EA81
:101CB00005444D7944EA05540D886D1E2C43D461CA
:101CC000146824F001041460002300E05B1C5468D5
:101CD00004F001041CB14FF6FF74A342F6D154681E
:101CE00004F001040CB1002000E0012030BD10B56B
:101CF00000F5D87303EB01131B6803F004031372A0
:101D0000137A53B900F5D87303EB01131B6840F243
:101D1000FF7404EA5353136009E000F5D87303EB32
:101D200001131B686FF0604404EAD303536000F5AD
:101D3000D87303EB01131B6803F00203537200F521
:101D4000D87303EB01135B6803F00F03937200F584
:101D5000D87303EB01135B681B0AD37400F5D873C7
:101D600003EB01139B68D37200F5D87303EB0113E7
:101D70009B681C0A147300F5D87303EB01139B686E
:101D80001C0C547300F5D87303EB01139B681B0EF6
:101D9000937300F5D87303EB0113DB68D37300F57D
:101DA000D87303EB0113DB681C0A147400F5D873B5
:101DB00003EB0113DB681C0C547400F5D87303EBC0
:101DC0000113DB681B0E937421B9C36843F0200331
:101DD000C36003E0036943F02003036110BD0021E9
:101DE0008171C171017241728172C1728170C17061
:101DF000032101710221417101210180704710B559
:101E000002460020936803F08063B3F1806F00D135
:101E100010E0936803F00063B3F1006F01D101207B
:101E200008E0936803F08053B3F1805F01D1022092
:101E300000E00420042874D002F5C07303EB001303
:101E40001B6803F0010402F5C07303EB00131C6070
:101E50000B7A7BB94B7A0C8843EA445302F5C07481
:101E600004EB00142468234302F5C07404EB00144F
:101E7000236010E00B7A4C6843EAC4034C7A234396
:101E800002F5C07404EB00142468234302F5C07407
:101E900004EB001423608B7A03F00F038B7202F5BE
:101EA000C07303EB00135B6823F00F0402F5C073EB
:101EB00003EB00135C6002F5C07303EB00135B6877
:101EC0008C7A234302F5C07404EB001463608B7BAF
:101ED0001C064B7B44EA03440B7B44EA0323CC7A85
:101EE000234302F5C07404EB0014A3608B7C1C0632
:101EF0004B7C44EA03440B7C44EA0323CC7B23431E
:101F000002F5C07404EB0014E36002F5C07303EB48
:101F100000131B6843F0010402F5C07303EB0013C8
:101F20001C6010BD10B5102001F0DEFF60B102F0A2
:101F3000B7FB0446002C44D0012C42D0022C40D1E7
:101F4000102002F0F1FE3CE0202001F0CDFF88B12E
:101F500002F010FB0446A4B3012C32D0022C30D185
:101F6000184802F03BFF184802F008FF202002F05A
:101F7000DBFE26E04FF4805001F0B6FF58B106F0CA
:101F80000BFA0446ECB1012C1BD0022C19D1C00273
:101F900002F0CAFE15E04FF4005001F0A5FF80B139
:101FA00006F064F9044664B1012C0AD0022C08D171
:101FB000064806F00DFA044802F0E0FE200302F0A5
:101FC000B3FE10BD042B0020642900202A2B002022
:101FD00070470246002002EA01030BB1012000E035
:101FE0000020704710B52DED068B824890ED000A59
:101FF0008148D0ED000A30EE600A8048D0ED000A3A
:1020000030EE600A10EE100A7D49C860084600688C
:1020100000EE100A0846C06800EE900A20EE200A82
:1020200010EE100A88610846C06800EE100AF2EE51
:10203000040AB4EEE00AF1EE10FA02DD00200863B3
:1020400045E001206E4908630846C06900EE100AA9
:102050000846406800EE900A0846C06801EE100A83
:1020600000EE810A10EE100AC8610846C06900EE51
:10207000100A0846806A00EE900AB4EEE00AF1EE1B
:1020800010FA02DD0846806A01E05D48C0695C49DB
:10209000C8610846C06900EE100A0846806A00EE72
:1020A000900AF1EE600AB4EEE00AF1EE10FA06D200
:1020B0000846806A00EE100AB1EE400A03E050487C
:1020C000C06900EE100A10EE100A4D49C8614C4874
:1020D000C06800EE100A4A48006900EE900A70EEEF
:1020E000600A4748806800EE100A20EE800A10EE71
:1020F000100A434908620846806900EE100A084643
:10210000006B00EE900AB8EEE01A0846C06900EED7
:10211000900A01EE200A0846006A00EE900A30EEAE
:10212000200A10EE100A48620846406A00EE100AC3
:102130000846C06A00EE900AB4EEE00AF1EE10FA2A
:1021400002DD0846C06A01E02D48406A2C49486219
:102150000846406A00EE100A0846C06A00EE900A7F
:10216000F1EE600AB4EEE00AF1EE10FA06D208468B
:10217000C06A00EE100AB1EE400A03E02048406A4F
:1021800000EE100A10EE100A1D4948620846C068A9
:1021900008610846416B084606F0B6FF41EC180B93
:1021A0001748C168084606F0AFFF41EC1A0BB0EEC5
:1021B0004A0AF0EE6A0A04F047FBB0EE409AF0EEED
:1021C000609A53EC182B51EC190B06F06BFC05D2FE
:1021D0009FED0C0A10EE100A094948620848406A4F
:1021E00000EE100ABDEEC00A10EE100A00B2BDECFF
:1021F000068B10BD680100207001002078010020CE
:10220000FB2B00200000000010B5002404E0204655
:1022100000F004FD601CC4B2052CF8DB10BD00000A
:102220000246094B9A4201D2084801E0064810389C
:1022300001F000531BB1064B0B40C36002E0044B9E
:102240000B40836070470000106402400060024051
:102250007D0F7D0F21B1026842F00102026003E0B0
:10226000026822F00102026070470000016821F05C
:10227000010101600021016041608160C160016174
:10228000212141614A49884204D13D21484A103AFE
:1022900091608CE046491831884205D14FF4746151
:1022A000434A103A916082E041493031884205D179
:1022B0004FF474113E4A103A916078E03C4948313D
:1022C000884205D14FF07461394A103A91606EE04E
:1022D00037496031884204D13649354A103AD160D5
:1022E00065E033497831884204D13349304A103AA5
:1022F000D1605CE02E499031884204D12F492C4AAC
:10230000103AD16053E02A49A831884205D14FF0F4
:102310003D51274A103AD16049E02949884204D109
:102320003D21274A083A116041E025491831884289
:1023300005D14FF47461224A083A116037E0204910
:102340003031884205D14FF474111D4A083A1160AA
:102350002DE01B494831884205D14FF07461184A7D
:10236000083A116023E016496031884204D11149CE
:10237000134A121F11601AE011497831884204D1C2
:102380000D490F4A121F116011E00D49903188422A
:1023900004D10A490A4A121F116008E00849A8310D
:1023A000884204D14FF03D51054A121F1160704719
:1023B000106002403D000020400F002000003D2042
:1023C0001064024021B1026842F48022026003E0FE
:1023D000026822F480220260704722B1036843F44D
:1023E0000023036003E0036823F40023036001611A
:1023F0007047014600200A6802F001020AB101207C
:1024000000E0002070470146486880B270470146EE
:1024100000200A6802F400220AB1012000E0002036
:102420007047000010B500220268134B1A40CC68B8
:102430000B6823434C6923438C692343CC692343B2
:102440000C6A23434C6A23438C6A23434C6B23431B
:102450008C6B23431A430260426922F00702D1E9E0
:102460000B3423431A4342610B6943604B6883601A
:102470008B68C36010BD00003F801CF04160704756
:102480000021016041608160C16001614161816141
:10249000C161016241628162C16201634163816322
:1024A00070477047704710B5FEF704FC10BD7047C9
:1024B00010B52DED088B86B001204549087000F05D
:1024C00017FB444801F0F2FB4349B1F9100006F054
:1024D000BEFA41EC1B0B9FED411BB0EE4B0AF0EE38
:1024E0006B0A04F0BDF9B0EE409AF0EE609A3A49FA
:1024F000B1F90E0006F0ABFA41EC1B0B9FED371B58
:10250000B0EE4B0AF0EE6B0A04F0AAF9B0EE40AA66
:10251000F0EE60AA53EC192B51EC1A0B06F026F8DA
:1025200041EC180B05F0F0FF2E4908602E4890EDA5
:10253000020ABDEEC00A10EE100A02B22A4890ED5F
:10254000010ABDEEC00A10EE100A01B2264890ED55
:10255000000ABDEEC00A10EE100A00B2234B93ED44
:10256000040ABDEEC00A10EE103A1BB2CDE90130EC
:10257000CDE903121E48406A00EE100ABDEEC00A03
:1025800010EE100A00B21A4C0090E46800EE104AF7
:10259000BDEEC00A10EE104A23B20E4C94ED020AB2
:1025A000BDEEC00A10EE104A22B20A4C94ED010AA8
:1025B000BDEEC00A10EE104A21B20E4C246820B2C3
:1025C000FEF7B8FEFFF7AEFC06B0BDEC088B10BD01
:1025D00038010020AC260020B826002000000000B2
:1025E000000000405C00002058290020E026002068
:1025F000C22B0020340400407047000010B52DEDC0
:10260000048B9FED2C0A2C4880ED000A2B4890ED9E
:10261000020A2B4880ED000AFFF7E4FC00EE100AE6
:10262000B8EEC00A274880ED000A90ED000ADFED01
:10263000260AB4EEE00AF1EE10FA02DD9FED220A5E
:102640000FE0204890ED000ADFED200AB4EEE00A2A
:10265000F1EE10FA02D29FED1D0A02E0194890ED4A
:10266000000A184880ED000A006806F04DFD41ECB4
:10267000190BB0EE490AF0EE690A04F0E5F8B0EE85
:10268000408AF0EE608A51EC180B06F0B3F984B280
:102690000C4991ED000AB5EEC00AF1EE10FA01DD29
:1026A000012100E000210846214602F017F8BDECA8
:1026B000048B10BD0000000068010020AC26002043
:1026C000700100205800002000001644000016C4CD
:1026D00010B52048007801283BD11F48008800B27F
:1026E0001E490880FFF7DFFE1A48B0F904000228EF
:1026F00004DB002017498880FFF7DAFE1548B0F99F
:102700000600052804DB00201249C880FFF776FF89
:102710001048B0F908000A2804DB00200D490881A0
:10272000FFF7C0FE0B48B0F90A00142804DB0020B4
:1027300008494881FFF7BBFE0648B0F90C00322873
:1027400004DB002003498881FFF756FF0020014980
:10275000087010BD90110020700000204E00002075
:1027600010B5102000F014F828B1102000F004F883
:10277000102000F007F810BD014908607047000004
:10278000143C01400149086070470000143C0140BE
:1027900001460020034A12680A400AB1012000E005
:1027A00000207047143C0140002123498279002A0F
:1027B0003AD00A46126803689A430B461A600A1D0B
:1027C000126803689A430B1D1A60027911440A6863
:1027D00003681A430A60184A0832126803689A4369
:1027E000154B08331A601A1D126803689A43124B7E
:1027F0000C331A604279102A0ED11A1F126803682E
:102800001A430D4B08331A601A1D126803681A43E5
:10281000094B0C331A600DE00749427911440A68EC
:1028200003681A430A6005E0027911440A680368E4
:102830009A430A6070470000003C014030B10749EC
:10284000096841F48061054A116005E0034909689F
:1028500021F48061014A116070470000003C024091
:1028600070B504460A460026092502B909E0012A86
:1028700001D1160205E0022A01D1160201E04FF44F
:10288000407600F09DF80546092D28D115480068CE
:1028900020F440701349086008460068304308601F
:1028A0000846006820F0F80008600846006844F018
:1028B000020108430B4908600846006840F4803074
:1028C000086000F07DF805460648006820F0020028
:1028D000044908600846006820F0F80008602846AF
:1028E00070BD0000103C024009201349096801F442
:1028F0008031B1F5803F01D101201CE00E4909680B
:1029000001F0100109B1062015E00B49096801F436
:10291000807109B102200EE00749096801F0EF015A
:1029200009B1072007E00449096801F0020109B173
:10293000082000E0092070470C3C02400348006872
:1029400040F000400149086070470000103C024020
:1029500030B502460C46092500F032F80546092D2F
:1029600017D10D48006820F440700B4908600846F4
:10297000006808600846006840F0010008601470B4
:1029800000F01EF805460448006820F001000249E6
:102990000860284630BD0000103C02400548006831
:1029A00000F0004028B1044802490C39086003488F
:1029B00008607047103C024023016745AB89EFCDAA
:1029C00008B509200090FFF78FFF009002E0FFF7A5
:1029D0008BFF00909DF800000128F8D09DF80000C2
:1029E00008BDF0B50A4600210023002400BF3DE0E9
:1029F000012505FA01F3156805EA03049C4234D168
:102A000005684F000326BE40B543056015794E00AA
:102A1000B5400668354305601579012D02D015795A
:102A2000022D16D185684F000326BE40B543856050
:102A300055794E00B5408668354385604568012666
:102A40008E40B5434560456896798E40B6B23543B1
:102A50004560C5684F000326BE40B543C560D579C3
:102A60004E00B540C6683543C560491C1029BFD328
:102A7000F0BDF0B5002300244D07ED0E02FA05F37A
:102A8000CE1000F1200555F826504E07F70E0F2600
:102A9000BE40B543CF1000F1200646F82750CE10B7
:102AA00000F1200555F8265045EA0304CE1000F148
:102AB000200545F82640F0BD0246002013690B4072
:102AC0000BB1012000E00020704741837047018373
:102AD00070474FF6FF7101600021017141718171F2
:102AE000C1717047014800787047000084010020E0
:102AF000324890ED030A324880ED040A2F4890EDE9
:102B0000040AB1EE400A2E4880ED050A2B4890EDEC
:102B1000050A2B4880ED060A2A4890ED000A2A484B
:102B200080ED000A294890ED000A264880ED000A51
:102B300090ED000A2448D0ED000A30EE600ADFED87
:102B4000240AB4EEE00AF1EE10FA05DB2148006831
:102B5000401E2049086013E01A4890ED000A1A4808
:102B6000D0ED000A30EE600ADFED1B0AB4EEE00A99
:102B7000F1EE10FA04D817480068401C15490860A7
:102B8000144800684FF4B471484300EE100AB8EEE0
:102B9000C00A0C48D0ED000A30EE200A0F4880ED44
:102BA000000A0A4890ED010A0D4880ED000A074826
:102BB00090ED020A0B4880ED000A7047782600204D
:102BC000E0260020F400002000010020AC260020B8
:102BD0000000A5431C0100200000A5C30C0100203B
:102BE00010010020140100200B4A11684FF0E02270
:102BF00052694FF0E0239B69D21A4FF47A735A431B
:102C00004FF0E0235B69B2FBF3F201EB4103C3EB4E
:102C1000C11302EBC30070476000002010B50446EA
:102C200004EB44001B4901EB800090ED000A04EB2B
:102C3000440001EB800080ED010AFFF7D5FF00EEB4
:102C4000100AB8EE400A04EB4400124901EB800080
:102C500080ED000A04EB440001EB800090ED000AD7
:102C600004EB440001EB8000D0ED010A30EE600A75
:102C700004EB440001EB800080ED020A04EB440009
:102C800001EB800090ED020ABCEEC00A10EE100AC3
:102C900010BD0000B41100204FF08040406A704722
:102CA00008B50020009001236A460A213C2001F06B
:102CB00099FB40B99DF80000482809D015A0FDF700
:102CC00013FEFF2008BD16A0FDF70EFEFF20F9E75A
:102CD000702200213C2000F01DFB052005F084F946
:102CE000A02201213C2000F015FB052005F07CF915
:102CF000002202213C2000F00DFB062005F074F9B3
:102D0000182200213C2000F005FB062005F06CF99C
:102D10000020D7E76572726F722032410D0A000001
:102D20006572726F722032420D0A000010B50446BF
:102D30000623224603213C2001F054FB10BD000075
:102D40002DE9F04104460D4616461648FFF7EEFF02
:102D5000144B0E3B5B7C134F0E3F3F7C43EA072333
:102D60001AB2104B0E3BDB7B0E4F0E3FBF7B43EA8C
:102D700007235B4219B20B4B0E3BDB7C094F0E3F26
:102D8000BF7C43EA072318B200F06EF80648808A39
:102D900020800548408D28800348B0F840003080EE
:102DA000BDE8F0814A270020D42700203EB5044624
:102DB0006A4601A902A8FFF7C3FFBDF9080025492B
:102DC0000860BDF904004860BDF900008860224831
:102DD000B0F90000BDF90810081A00EE100AF8EE6C
:102DE000C00A1D48D0F8060000EE100A20EE800A46
:102DF0001A4880ED000A84ED000A1748B0F9020075
:102E0000BDF90410081A00EE100AF8EEC00A1248C4
:102E1000D0F80A0000EE100A20EE800A104880ED7B
:102E2000000A84ED010A0C48B0F90400BDF9001055
:102E3000081A00EE100AF8EEC00A0748D0F80E0093
:102E400000EE100A20EE800A064880ED000A84EDAC
:102E5000020A3EBD24280020172B0020200100205C
:102E60002401002028010020F0B503460C46002074
:102E70000021012019E0504D35F81060451E4E4FDD
:102E800027F8156007F1160535F81070451E4A4EF3
:102E9000163626F8157006F1160535F81070451E21
:102EA000163626F81570451CE8B20A28E3DB424DB9
:102EB0006B822C85EA87002005E03F4D35F91050E4
:102EC0002944451CE8B20A28F7DB0A2591FBF5F5F1
:102ED0002DB2394EB5820021002006E0364D163560
:102EE00035F910502944451CE8B20A28F6DB0A25BA
:102EF00091FBF5F52EB2304D6E850021002006E0E5
:102F00002D4D2C3535F910502944451CE8B20A28BE
:102F1000F6DB0A2591FBF5F52EB2274DA5F84060AA
:102F2000264DB5F90650244EB6F91460B54203DDBE
:102F3000214DAD8A214EF580204DB5F908601E4D1A
:102F4000B5F92A50AE4203DD1B4D6D8D1B4E358108
:102F50001A4DB5F90A60184DB5F94050AE4204DD7E
:102F6000154DB5F84050154E7581144DB5F900500A
:102F7000114EB6F91460B54203DA0F4DAD8A0F4E0B
:102F800035800E4DB5F902600B4DB5F92A50AE42B1
:102F900003DA094D6D8D094E7580084DB5F9046051
:102FA000054DB5F94050AE4204DA034DB5F8405036
:102FB000024EB580F0BD0000D42700201628002066
:102FC00000BFFEE710B5044600F0E6F82CB14FF460
:102FD00000710D48FFF77BFD04E04FF400710A48D3
:102FE000FFF773FD4FF480710748FFF770FD012074
:102FF00000F00CF84FF480710348FFF766FD0120E4
:1030000000F004F810BD00000004024010B50021DB
:1030100006E0062200BF131EA2F10102FBD1491CEB
:103020008142F6D310BD00001CB50121022001F041
:10303000DBFC4FF44070009001208DF8040000206C
:103040008DF8060003208DF8050069460148FFF75A
:10305000C8FC1CBD0004024070B5002400F086F8D6
:1030600000251BE04FF480711148FFF72EFD012071
:10307000FFF7CCFF4FF480710D48FFF728FD600685
:10308000040E4FF400710A48FFF716FD08B1601CEA
:10309000C4B20120FFF7BAFF681CC5B2082DE1DBFE
:1030A0004FF480710248FFF710FD204670BD00000C
:1030B000000402402DE9F04106460F4614469846AA
:1030C00000F07EF8304600F0F3F800F0B9F8FF2881
:1030D00005D11DA0FDF708FCFF20BDE8F0813846B2
:1030E00000F0E6F800F0ACF8FF2804D119A0FDF7D5
:1030F000FBFBFF20F1E700F063F8711CC8B200F0A1
:10310000D7F800F09DF8FF2804D115A0FDF7ECFBDF
:10311000FF20E2E7002508E0FFF79EFF2070002077
:10312000FFF750FF641C681CC5B2A8F10100A8425B
:10313000F2DCFFF791FF20700120FFF743FF00F062
:103140005FF80020C9E700006572726F7220324696
:103150000D0A00006572726F722032470D0A00007E
:103160006572726F722032480D0A00001CB54FF470
:103170000070009000208DF804008DF806008DF896
:10318000070002208DF8050069460248FFF729FC78
:103190001CBD0000000402401CB54FF400700090FC
:1031A00001208DF804008DF8060003208DF805003D
:1031B00069460248FFF715FC1CBD000000040240F0
:1031C00010B5FFF7E9FF4FF400710C48FFF77FFCE3
:1031D0004FF480710948FFF77AFC0120FFF716FFD2
:1031E0004FF400710548FFF770FC0120FFF70EFF58
:1031F0004FF480710148FFF768FC10BD00040240E5
:1032000010B5FFF7C9FF4FF480710C48FFF75DFC64
:103210004FF400710948FFF758FC0120FFF7F6FE54
:103220004FF480710548FFF752FC4FF400710348DA
:10323000FFF74DFC0120FFF7E9FE10BD000402403E
:1032400010B54FF47A744FF400711548FFF73FFC46
:10325000FFF78CFF0120FFF7D9FE4FF48071104873
:10326000FFF735FC0120FFF7D1FE0AE0601E80B2B7
:10327000041E06D0FFF7C4FF0AA0FDF735FBFF20B0
:1032800010BD4FF400710648FFF716FC0028EDD181
:103290004FF480710248FFF718FC0020F0E70000AF
:1032A000000402406572726F722032410D0A000004
:1032B00070B50446FFF770FF4FF480711448FFF7B4
:1032C00004FC002521E004F0800028B14FF40071D7
:1032D0000F48FFF7FCFB04E04FF400710C48FFF7C8
:1032E000F4FB6006040E0120FFF790FE4FF480719E
:1032F0000748FFF7ECFB0120FFF788FE4FF48071D1
:103300000348FFF7E2FB681CC5B2082DDBDB70BD8C
:103310000004024070B506460C461546FFF750FF04
:103320003046FFF7C5FFFFF78BFFFF2804D110A041
:10333000FDF7DAFAFF2070BD2046FFF7B9FFFFF76F
:103340007FFFFF2804D10DA0FDF7CEFAFF20F2E7A2
:103350002846FFF7ADFFFFF773FFFF2804D10AA04F
:10336000FDF7C2FAFF20E6E7FFF74AFF0020E2E799
:103370006572726F722032420D0A00006572726FC0
:10338000722032430D0A00006572726F722032445F
:103390000D0A000000B52DED108B93B0FE4890EDA6
:1033A000000AD0ED000A20EE200A8DED080A90ED0B
:1033B000000AFA48D0ED000A20EE200AB0EE40FAEA
:1033C000F54890ED000AF648D0ED000A20EE200AFC
:1033D000F0EE40AAF04890ED000AF248D0ED000A65
:1033E00020EE200A8DED070AEC4890ED000AD0EDA2
:1033F000000A20EE200AF0EE40FA90ED000AE848BC
:10340000D0ED000A20EE200A8DED060AE34890ED8B
:10341000000AE448D0ED000A20EE200AB0EE40BADF
:10342000DF4890ED000AD0ED000A20EE200AF0EE11
:1034300040BA90ED000ADB48D0ED000A20EE200AE9
:103440008DED050A90ED000AD0ED000A20EE200A6D
:103450008DED040AD44890ED030ADFEDD40A20EE86
:10346000200ADFEDD30A80EE201AD24880ED001A40
:10347000CD4890ED040ADFEDCD0A20EE200ADFED05
:10348000CC0A80EE201ACC4880ED001AC64890ED98
:10349000050ADFEDC60A20EE200ADFEDC50A80EE40
:1034A000201AC64880ED001ABF4890ED000AC448B3
:1034B00080ED000ABC4890ED010AC24880ED000A88
:1034C000B94890ED020AC04880ED000AB64890ED78
:1034D000060ABE4880ED000AB34890ED070ABC48D2
:1034E00080ED000AB04890ED080ABA4880ED000A65
:1034F000FFF7D2FBB849086008460068B749096879
:1035000088420CD3B4480068B4490968401A00EEF8
:10351000100AB8EE400ADFEDB20AC0EE208AAE48CB
:103520000068AE490860A648D0ED000A90ED001A88
:1035300060EE810AA34890ED001AD0ED001A41EE2A
:10354000210AA14890ED001AD0ED001A41EE210A9F
:10355000B0EE600A04F0CCFDB0EE408A984890EDE1
:10356000000A20EE080A80ED000A964890ED000A55
:1035700020EE080A80ED000A934890ED000A20EE44
:10358000080A80ED000A9148D0ED000A90ED001A7B
:1035900060EE810A8E4890ED001AD0ED001A41EEDF
:1035A000210A8C4890ED001AD0ED001A41EE210A54
:1035B000B0EE600A04F09CFDB0EE408A834890EDC6
:1035C000000A20EE080A80ED000A814890ED000A0A
:1035D00020EE080A80ED000A7E4890ED000A20EEF9
:1035E000080A80ED000A794890ED000AF0EE000A22
:1035F00060EE200AB6EE000A30EE6B1A9DED040A6A
:1036000031EE400A20EE800A7148D0ED000AB0EE9B
:10361000001A60EE811ADDED060A9DED071A70EEC4
:10362000C10A01EEA00A6B48D0ED000AB0EE001A04
:1036300060EE810A3BEE2A1A00EE810A8DED110A36
:10364000624890ED000AF0EE000A20EE201A9DED8F
:10365000060ADDED070A30EE200A21EE000A5C487A
:10366000D0ED000AB0EE001A20EE811AF6EE000A44
:1036700070EEEF1ADDED040A71EEE00A01EE200AA9
:103680005448D0ED000AB0EE001A20EE811ADDEDAC
:10369000050A70EECF0A01EE200A8DED100A4B48A4
:1036A00090ED000AF0EE000A20EE200A7BEE6A0A96
:1036B00060EE200A464890ED000AB0EE001A20EEB7
:1036C000011A9DED050A70EE0F1AB0EE600A01EEC8
:1036D000210A4048D0ED000AB0EE001A60EE810ADF
:1036E000B6EE001A31EE6F1A31EE6B1AB0EE409A58
:1036F00000EE819A9DED110A60EE000A9DED100A20
:1037000040EE000A10EE901A084605F0FDFCCDE9E7
:1037100000019DED000B03F02FFF8DED020B9DEDE1
:10372000020B51EC100B04F0EFFE09EE900AB0EE24
:1037300049AA3BEE6A0AF0EE000A20EE200A8DED5F
:103740000F0A9DED050A3FEE000AF0EE000A20EE9A
:10375000200A8DED0E0A9DED080A30EE6F0A70EE1C
:103760006B0A9DED040A30EE800A8DED0D0AB0EE75
:10377000000A69EE800AB6EE000A30EE6B1A9DED83
:10378000040A31EE400A20EE800AB0EE4A9AF0EECA
:10379000000A69EE200A25E0B8000020BC000020E5
:1037A000C0000020C400002078260020DB0F494024
:1037B00000003443C8000020CC000020D0000020CE
:1037C000D4000020D8000020DC000020E000002011
:1037D000E4000020E8000020F0000020EC000020C1
:1037E0000024F4493BEE6A1A00EE810A8DED0C0AC2
:1037F000B0EE000A29EE801A9DED060ADDED070AFB
:1038000030EE600A21EE000AB0EE4A9AF0EE000AAD
:1038100029EE201ADDED050A7FEE200A01EE200ACE
:103820008DED0B0AB0EE000A29EE800A7AEE8B0AC3
:1038300020EE200AB0EE4A9AF0EE000A69EE200A65
:10384000B6EE001A31EE6F1A31EE6B1A00EE810AF5
:103850008DED0A0AAF48D0ED000A9DED0D0A60EE2D
:10386000800AAD4890ED001A9DED0E0A41EE400A27
:10387000AA4890ED001A9DED0A0A21EE001AA84808
:10388000D0ED001A9DED0B0A01EEC01A30EE81CA90
:10389000A148D0ED000A9DED0F0A60EE800AA14814
:1038A00090ED001A9DED0D0A41EE400A9C4890ED06
:1038B000001A9DED0C0A21EE001A9B48D0ED001A6B
:1038C0009DED0A0A01EEC01A70EE81CA9548D0ED4E
:1038D000000A9DED0E0A60EE800A8E4890ED001AF7
:1038E0009DED0F0A41EE400A8F4890ED001A9DEDC4
:1038F0000B0A21EE001A8948D0ED001A9DED0C0A42
:1039000001EEC01A30EE81DAB5EEC0CAF1EE10FA5F
:1039100057D0F5EEC0CAF1EE10FA52D0B5EEC0DACB
:10392000F1EE10FA4DD09FED810A6CEE000A80484E
:1039300090ED000A00EEA80A80ED000A9FED7B0AD8
:103940006CEE800A7B4890ED000A00EEA80A80ED3C
:10395000000A9FED760A6DEE000A774890ED000AA6
:1039600000EEA80A80ED000A744890ED000AF0EE1F
:10397000000A00EE8C0A6E48D0ED000A30EE200AF4
:103980006E4880ED000A6E4890ED000AF0EE000AE5
:1039900000EEAC0A6748D0ED000A30EE200A684815
:1039A00080ED000A674890ED000AF0EE000A00EE94
:1039B0008D0A6148D0ED000A30EE200A614880EDA2
:1039C000000A614890ED000AB1EE400A5B48D0ED74
:1039D000000A20EE200A5D48D0ED000A584890ED1C
:1039E000001A00EEC10A5A4890ED001A5548D0ED71
:1039F000001AF0EE400A41EE610A564890ED000AC6
:103A000000EEA80A8DED090A90ED000A4B48D0EDB2
:103A1000000A20EE200A4D48D0ED000A494890EDFA
:103A2000001A00EE810A4A48D0ED000A444890EDA1
:103A3000001A00EEC10A4448D0ED000AF0EE60DA48
:103A400040EE28DA434890ED000A3D48D0ED000AE8
:103A500020EE200A3C48D0ED000A3A4890ED001ACA
:103A600000EEC10A3A48D0ED000A344890ED001A41
:103A700000EE810A3548D0ED000AB0EE60EA00EEB3
:103A800028EA344890ED000A2E48D0ED000A20EED6
:103A9000200A2D48D0ED000A294890ED001A00EECA
:103AA000810A2A48D0ED000A244890ED001A00EE61
:103AB000C10A2748D0ED000AF0EE60EA40EE28EA9D
:103AC000DDED090A60EEA00A4DEEAD0A4EEE0E0ADB
:103AD0004EEEAE0AB0EE600A04F00AFBB0EE408A89
:103AE0009DED090A20EE080A1A4880ED000A2DEE25
:103AF000880A154880ED000A2EEE080A134880ED6A
:103B0000000A2EEE880A124880ED000A13B0BDECC0
:103B1000108B00BDD8000020DC000020E400002055
:103B2000E8000020D4000020E00000200AD7233C59
:103B3000AC000020B0000020B4000020C80000202D
:103B4000CC000020D0000020BC000020C0000020DD
:103B5000C4000020B800002010B504460C4800F056
:103B600021F8FFF717FC0B4890ED000A84ED000ADE
:103B7000094890ED000A84ED010A084890ED000A1A
:103B800084ED020A064890ED000A84ED030A10BD98
:103B900078260020B8000020BC000020C0000020D3
:103BA000C400002030B585B004460DF1120004A910
:103BB000031F03AACDE90010891F02A800F02EFC04
:103BC000BDF8080036490880BDF80A004880BDF8F5
:103BD0000C008880BDF80E000881BDF810004881F7
:103BE000BDF81200888100251DE0032D0BDA02A824
:103BF00030F9150000EE100AB8EEC00A04EB85009B
:103C000080ED000A0EE002A830F9150000EE100A5F
:103C1000B8EEC00ADFED230A80EE201A04EB85001F
:103C200080ED001A6D1C062DDFDB04F11800FFF794
:103C3000BDF894ED060ABDEEC00A10EE100A00B2FF
:103C40001749C88194ED070ABDEEC00A10EE100AAC
:103C500000B2088294ED080ABDEEC00A10EE100A08
:103C600000B248820846B0F9100001EE100AB8EE22
:103C7000C11AF0EE410A0846B0F90E0001EE100A32
:103C8000B8EEC11AB0EE410A04F006F900EE100ACF
:103C9000B8EEC00A044880ED000A05B030BD00004F
:103CA000B8260020333303421801002010B52DED53
:103CB0000C8B04468748FFF74FFF864890ED020AB9
:103CC000F8EE000A20EE200AD0ED020A20EE200ACB
:103CD000D0ED030AB0EE001A60EE810A90ED031AEF
:103CE00000EEC10AF7EE000A30EE200A10EE101ABC
:103CF000084605F009FA41EC1C0B764890ED010AE4
:103D0000F0EE000A20EE200AD0ED020A20EE200A92
:103D1000D0ED000AB0EE001A60EE810A90ED031AB1
:103D200000EE810A10EE101A084605F0EDF941EC9C
:103D30001D0BB0EE4C1AF0EE6C1AB0EE4D0AF0EE20
:103D40006D0A02F089FCB0EE40BAF0EE60BA51ECB8
:103D50001B0B04F0CDFB41EC1A0B9FED5F0B53ECFA
:103D6000102B04F0DBFE41EC190B9FED5D0B53ECC7
:103D7000102B04F0B7FC41EC180B04F0C5FB00EE6F
:103D8000100A84ED000A534890ED010AF8EE000A8B
:103D900020EE200AD0ED030A20EE200AD0ED000A22
:103DA000B0EE001A60EE810A90ED021A00EE810A70
:103DB00010EE101A084605F0A7F941EC1C0BB0EE06
:103DC0004C0AF0EE6C0A02F02BF9B0EE40BAF0EEBD
:103DD00060BA51EC1B0B04F08BFB41EC1A0B9FED0E
:103DE0003E0B53EC102B04F099FE41EC190B9FEDA8
:103DF0003C0B53EC102B04F075FC41EC180B04F059
:103E000083FB00EE100A84ED010A324890ED010AAE
:103E1000F8EE000A20EE200AD0ED010A20EE200A7A
:103E2000D0ED020AB0EE001A60EE810A90ED021A9F
:103E300000EEC10AF7EE000A30EE200A10EE101A6A
:103E4000084605F061F941EC1B0B224890ED020A8F
:103E5000F0EE000A20EE200AD0ED030A20EE200A40
:103E6000D0ED000AB0EE001A60EE810A90ED011A62
:103E700000EE810A10EE101A084605F045F941ECF3
:103E80001C0BB0EE4B1AF0EE6B1AB0EE4C0AF0EED3
:103E90006C0A02F0E1FBB0EE40AAF0EE60AA9FEDE2
:103EA0000E0B53EC102B51EC1A0B04F037FE41ECC7
:103EB000190B9FED0B0B53EC102B04F013FC41EC92
:103EC000180B04F021FB00EE100A84ED020ABDEC91
:103ED0000C8B10BD9C260020000000000080664076
:103EE00000000060FB2109400146044800680840CA
:103EF00008B1012070470020FCE7000060010020AD
:103F00001548C089401C1449C88108468088401C57
:103F100000B288800846C088401C00B2C8800846AD
:103F20000089401C00B2088108464089401C00B24C
:103F3000488108468089401C00B288810846007884
:103F4000012804D108464078401C487002E0012056
:103F50000149087070470000901100202DE9F043DE
:103F600004460D46DDE9076700200021012041E0FD
:103F7000DFF8D8C13CF81080A0F1010CDFF8CC913B
:103F800029F81C8009F1160C3CF81090A0F1010CE6
:103F9000DFF8B88108F1160828F81C9008F1160C13
:103FA0003CF81090A0F1010C08F1160828F81C90BC
:103FB00008F1160C3CF81090A0F1010C08F116085D
:103FC00028F81C9008F1160C3CF81090A0F1010C98
:103FD00008F1160828F81C9008F1160C3CF810900F
:103FE000A0F1010C08F1160828F81C9000F1010C52
:103FF0000CF0FF000A28BBDBDFF850C1ACF8124020
:10400000ACF82850ACF83E20ACF85430ACF86A60FC
:10401000ACF88070002008E0DFF830C13CF910C037
:10402000614400F1010C0CF0FF000A28F4DB4FF0B2
:104030000A0C91FBFCFC0FFA8CFCDFF81081A8F84D
:1040400014C0002100200AE0DFF800C10CF1160CBA
:104050003CF910C0614400F1010C0CF0FF000A288B
:10406000F2DB4FF00A0C91FBFCFC0FFA8CF8DFF846
:10407000DCC0ACF82A80002100200AE0DFF8CCC0C8
:104080000CF12C0C3CF910C0614400F1010C0CF057
:10409000FF000A28F2DB4FF00A0C91FBFCFC0FFA40
:1040A0008CF8DFF8A8C0ACF84080002100200AE0BE
:1040B000DFF898C00CF1420C3CF910C0614400F1EB
:1040C000010C0CF0FF000A28F2DB4FF00A0C91FB08
:1040D000FCFC0FFA8CF8DFF874C0ACF856800021B5
:1040E00000200AE0DFF864C00CF1580C3CF910C065
:1040F000614400F1010C0CF0FF000A28F2DB4FF0E4
:104100000A0C91FBFCFC0FFA8CF8DFF840C0ACF80D
:104110006C80002100200AE0DFF830C00CF16E0C4A
:104120003CF910C0614400F1010C0CF0FF000A28BA
:10413000F2DB4FF00A0C91FBFCFC0FFA8CF8DFF875
:104140000CC0ACF88280BDE8F0830000502700204E
:1041500010B501221921D020FFF7DCF8FF2804D187
:104160000CA0FCF7C1FBFF2010BD14A0FCF7BCFBAA
:104170000A2003F039FF01223821D020FFF7CAF8C6
:10418000FF2804D115A0FCF7AFFBFF20ECE70020CF
:10419000EAE7000043616E6E6F7420656E61626CC9
:1041A0006520696E746572727570742073756363CF
:1041B00065737366756C6C792E0D0A004D5055361B
:1041C000303530207365742073616D706C652072BA
:1041D00061746520646F6E652E0A00006572726FEF
:1041E000722031490D0A000008B500200090FEF74A
:1041F0001BFF01236A467521D020FEF75BFF40B903
:104200009DF80000682809D036A0FCF76DFBFF2060
:1042100008BD37A0FCF768FBFF20F9E701226B21FE
:10422000D020FFF777F8FF2804D134A0FCF75CFB1F
:10423000FF20EDE703221A21D020FFF76BF8FF28BB
:1042400004D131A0FCF750FBFF20E1E710221B2135
:10425000D020FFF75FF8FF2804D12EA0FCF744FB25
:10426000FF20D5E700221C21D020FFF753F8FF28BC
:1042700004D12BA0FCF738FBFF20C9E7022237212D
:10428000D020FFF747F8FF2804D128A0FCF72CFB2B
:10429000FF20BDE700223821D020FFF73BF8FF28A0
:1042A00004D125A0FCF720FBFF20B1E700226A2102
:1042B000D020FFF72FF8FF2804D11FA0FCF714FB34
:1042C000FF20A5E7FEF7ECFCFF2804D11DA0FCF7BA
:1042D0000BFBFF209CE74FF4FA7003F085FE0020F3
:1042E00096E700006572726F722031410D0A00007E
:1042F0006572726F722031420D0A00006572726F32
:10430000722031430D0A00006572726F72203145D0
:104310000D0A00006572726F722031460D0A0000AE
:104320006572726F722031470D0A00006572726FFC
:10433000722031480D0A00006572726F7220314997
:104340000D0A00006572726F7220314B0D0A000079
:1043500010B502E0C82003F047FEFFF745FFFF2835
:10436000F8D010BD00B585B00121880300F06CFBCA
:104370000121084600F038FB1020039000208DF842
:1043800010008DF8120001208DF8130002208DF826
:10439000110003A91248FEF724FB0421002000F0BD
:1043A000CDFC1020009000208DF804000C208DF82A
:1043B000050001208DF806006846FEF7F5F90A2091
:1043C0008DF8080002208DF8090000208DF80A0001
:1043D00001208DF80B0002A800F02EFA05B000BDF8
:1043E000000002402DE9F04104460D4616461F46E6
:1043F0003B46324629462046FEF75CFEFF2805D1A3
:1044000003A0FCF771FAFF20BDE8F0810020FBE774
:104410006572726F7220314A0D0A00002DE9FC4767
:1044200004460D4616461F46DDE90A8948480078CD
:10443000002872D00020464908700E23454A3B21CF
:10444000D020FFF7CFFF43480E30FEF76FFC414806
:1044500040784049097840EA012000B23E4908808E
:104460003C48C0783B49897840EA012000B23B498A
:104470000880384840793749097940EA012000B27C
:10448000374908803348407A3249097A40EA0120A6
:1044900000B2344908802F48C07A2E49897A40EA10
:1044A000012000B2304908802A48407B2949097B15
:1044B00040EA012000B22D4908800846B0F900000A
:1044C0002949B1F90010CDE900102648B0F90030B3
:1044D0002348B0F900202148B0F900101E48B0F977
:1044E0000000FFF73BFD2248808A20802048408D55
:1044F00028801F48B0F8400030801D48B0F85600B2
:1045000038801B48B0F86C00A8F800001848B0F8D4
:104510008200A9F8000018E0FFE71548808A208093
:104520001348408D28801248B0F840003080104871
:10453000B0F8560038800E48B0F86C00A8F80000BB
:104540000B48B0F88200A9F80000BDE8FC87000025
:10455000380100203C2700202C0100202E010020E3
:1045600030010020320100203401002036010020FB
:104570005027002010B54448B0F900004249B1F975
:104580000610084400EE100AB8EEC00AF0EE000A69
:1045900080EE201ABDEEC10A10EE100A00B23B49AF
:1045A00008803948B0F902003749B1F908100844C9
:1045B00000EE100AB8EEC00AF0EE000A80EE201AF3
:1045C000BDEEC10A10EE100A00B2304948802E48F4
:1045D000B0F904002C49B1F90A10084400EE100AA1
:1045E000B8EEC00AF0EE000A80EE201ABDEEC10A55
:1045F00010EE100A00B225498880B7EE000A10EECE
:10460000100AC1F806002048B0F900001E49B1F9AF
:104610000610401A00EE100AF8EEC00A1A48B0F967
:1046200002001949B1F90810401A00EE100AB8EE5C
:10463000C01A80EE810A10EE100A1449C1F80A006F
:104640001148B0F900001049B1F90610401A00EE07
:10465000100AF8EEC00A0C48B0F904000A49B1F992
:104660000A10401A00EE100AB8EEC01A80EE810A55
:1046700010EE100A0549C1F80E005A20887404A0F3
:10468000FCF732F9022010BD16280020042B002070
:104690004D61672D63616C6920656E6400000000E8
:1046A00010B54FF4704007490880488088804FF467
:1046B0008050C8800881488103A0FCF715F90220CA
:1046C00010BD0000162800204D61672D63616C69E4
:1046D000207374617274000000BFFEE770B5054678
:1046E0000C46002C63D032480088844215D03C2C04
:1046F00009DA3C2090FBF4F0401E2E49088001208E
:104700002D49088007E000202A4908803C2094FBBE
:10471000F0F0294908802648048028480088254967
:104720000988884205DA25480088401C234908800A
:104730003DE000202149088000F048F8204800882A
:10474000204909880844204949571B4A128801FB1F
:1047500002001C49098890FBF1F201FB1200184984
:10476000088008464088174909880844164949576F
:10477000114A128801FB02001249098890FBF1F2EC
:1047800001FB12000E494880084680880D490988BF
:1047900001440D484057084A128800FB021009499D
:1047A000098890FBF1F201FB12000549888070BD79
:1047B0008A0000208C000020900000208E00002045
:1047C0007800002074000020EE92000810B50C481C
:1047D00000880C4A32F810100B4801F032F80848F3
:1047E0004088084A32F81010074801F02CF80448B5
:1047F0008088044A32F81010034801F026F810BDF2
:1048000078000020F01100200004004010B540F6B0
:10481000B831A72000F094FD10BD10B5FFF7D6FF0A
:1048200010BD10B500F088FBFFF7F0FFFFF7F5FFB4
:1048300010BD70477047000070B5002100230F22A3
:10484000C4781CB3174C246804F4E064C4F5E06435
:10485000C4F30721C1F10404E3B20A4144789C4047
:10486000E1B28478144021430C07210E0E4C0578E8
:104870006155047804F01F050124AC4005786D11E2
:10488000AD0005F1E025C5F8004109E0047804F029
:104890001F050124AC40054D0678761145F82640E9
:1048A00070BD00000CED00E000E400E080E100E0FD
:1048B00002490143024A1160704700000000FA05F6
:1048C0000CED00E010B50446392204F14A0111480C
:1048D000FCF74AF8392204F183010F48FCF744F849
:1048E000392204F1BC010D48FCF73EF8392204F1ED
:1048F000F5010B48FCF738F8392204F5977109489F
:10490000FCF732F8392204F267110748FCF72CF85B
:1049100010BD0000DF2C0020182D0020512D00209C
:104920008A2D0020C32D0020FC2D002010B5234827
:10493000FFF7C8FF22480068224908602048406805
:1049400048601F48806888609FED1F0A10EE100ABB
:10495000C8609FED1D0A10EE100A08619FED1B0A4A
:1049600010EE100A88629FED1A0A10EE100AC86253
:10497000012081F838001748006817490860154879
:10498000406848601348806888609FED0F0A10EE09
:10499000100AC8609FED0C0A10EE100A08619FED26
:1049A0000F0A10EE100A88629FED0D0A10EE100A31
:1049B000C862032081F8380010BD0000642900207F
:1049C000DF2C0020502B00200000000000C00F450D
:1049D00000401C45512D0020A62C00200000FA4369
:1049E000000096447047000029B1064A126802434D
:1049F000044B1A6004E0034A12688243014B1A60B8
:104A0000704700003038024029B1064A126802435C
:104A1000044B1A6004E0034A12688243014B1A6097
:104A2000704700004038024029B1064A126802432C
:104A3000044B1A6004E0034A12688243014B1A6077
:104A4000704700002038024029B1064A126802432C
:104A5000044B1A6004E0034A12688243014B1A6057
:104A6000704700004438024029B1064A12680243E8
:104A7000044B1A6004E0034A12688243014B1A6037
:104A80007047000024380240F0B5002100220024C5
:104A9000022500260223324F3F6807F00C0121B1A6
:104AA000042905D0082937D105E02E4F076036E0EC
:104AB0002D4F076033E02A4F3F1F3F68C7F38056F2
:104AC000274F3F1F3F6807F03F036EB1264FB7FBEC
:104AD000F3F7DFF88CC0ACF1040CDCF800C0CCF3C9
:104AE000881C07FB0CF40CE01E4FB7FBF3F7DFF854
:104AF00070C0ACF1040CDCF800C0CCF3881C07FBE0
:104B00000CF4174F3F1F3F68C7F301477F1C7D0020
:104B1000B4FBF5F7076002E0124F076000BF00BF6B
:104B20000F4F3F6807F0F0010909104F7A5C0768E2
:104B3000D74047600A4F3F6807F4E051890A0B4F9E
:104B40007A5C4768D7408760054F3F6807F460414B
:104B5000490B064F7A5C4768D740C760F0BD00003C
:104B6000083802400024F40000127A004A010020B4
:104B700010B52DED048B0446B4F90010A1F580604A
:104B800003F065FF41EC190B9FED2D0B53EC102B3F
:104B900003F0C4FF41EC180B03F0FCFE2A49086047
:104BA000B4F90210481E03F052FF41EC190B9FEDBF
:104BB000240B53EC102B03F0B1FF41EC180B03F066
:104BC000E9FE214948602148406B096808441F49B3
:104BD00048630846806B1C49496808441B49886340
:104BE0000846406BB0F5FA7F03D84FF4FA7048637B
:104BF00008E01648406BB0F5166F03D34FF416600B
:104C0000124948631148806BB0F5FA7F04D84FF41D
:104C1000FA700E49886308E00C48806BB0F5166F97
:104C200003D34FF41660094988630848406B06496E
:104C300088600648806BC860BDEC048B10BD000026
:104C40009A9999999999B93F802E002000000140C6
:104C500010B5044604B910BD2078617840EA0120FF
:104C6000C0F30A002F4908806078C010A17840EA9C
:104C70004110C0F30A002B494880A0788011E178E8
:104C800040EA8100217940EA8120C0F30A002549E9
:104C9000888020794010617940EAC110C0F30A0091
:104CA0002049C88060790011800808726079C0F3DB
:104CB00001104872A079E17940EA012000B2194957
:104CC0004881207A617A40EA012001B21548818149
:104CD000A07AE17A40EA012001B21248C181217B29
:104CE0008174617BC174A07B0E498882084600F004
:104CF00061F8FDF7F7FE012804D002280DD0032843
:104D00000CD103E00748FFF733FF07E005491431F2
:104D1000A1F10A00FFF78DFD00E000BF00BF00BF5A
:104D200099E70000382E0020024909688143014AB2
:104D300011607047600100207047000030B500220C
:104D40008B071C0F0F2303FA04F20B4B8C1053F844
:104D500024309343084C8D1044F8253023468C10A2
:104D600053F824308C07240F00FA04F42343024C38
:104D70008D1044F8253030BD0838014010B5044688
:104D8000132204F124010548FBF7EEFD132204F180
:104D900037010348FBF7E8FD10BD0000172B00208A
:104DA0003D2B0020024909680143014A1160704708
:104DB00060010020417A012902D1074A11700AE0FE
:104DC000417A032902D1044A117004E0417A022990
:104DD00001D1014A117070478401002010B50446CA
:104DE00034B1132221460348FBF7BEFDFCF7E0FB7C
:104DF00010BD0000882900200CB500200190009013
:104E00003448006840F480303249086000BF3148BF
:104E1000006800F4003000900198401C0190009858
:104E200018B90198B0F5A04FF1D12A48006800F4F4
:104E3000003010B10120009001E0002000900098A7
:104E4000012846D123484030006840F08050214975
:104E5000403108602048006840F440401E49086026
:104E60001C48083000681B49083108600846006883
:104E700040F4004008600846006840F4A050086014
:104E80001648091F0860081F006840F08070091F5D
:104E9000086000BF0F48006800F000700028F9D0DB
:104EA00040F205700E4908600A480830006820F09A
:104EB00003000849083108600846006840F0020015
:104EC000086000BF03480830006800F00C000828A4
:104ED000F8D10CBD00380240007000400854400773
:104EE000003C024070B586B006460C46154640F2BE
:104EF000FF10019000208DF80C008DF80D000820A7
:104F00008DF80E00200A8DF80F008DF81040290A48
:104F10008DF811108DF8125000218DF813108DF8B6
:104F200014108DF815108DF8161001A93046FCF7F5
:104F300066FF06B070BD000010B52DED108B84B07B
:104F400000244FF4966051490880084600880321E8
:104F500090FBF1F04E49088000204E490880084639
:104F600000884B49098808444A49488008464088D7
:104F700047490988084447498880002046490880F5
:104F80000846008842490988084443494880084641
:104F900040883F49098808443F49888000203F49AC
:104FA0000880084600883A49098808443B494880F7
:104FB000084640883649098808443849888000BF37
:104FC0005BE03248008803F059FD41EC1E0B601C89
:104FD00003F03DFD41EC1F0B9FED310B53EC102B0B
:104FE00003F09CFD53EC1E2BCDE900019DED000B61
:104FF00051EC100B03F076FB41EC1D0B9FED2A0BDF
:1050000053EC102B03F08AFD41EC1C0B9FED280B99
:1050100053EC102B03F082FD41EC1B0BB0EE4B0A5E
:10502000F0EE6B0A02F044FAB0EE40AAF0EE60AA8D
:105030009FED1B0B53EC102B51EC1A0B03F096FA5F
:1050400041EC190B9FED1C0B53EC102B03F066FD8C
:1050500041EC180B9FED1A0B53EC102B03F042FBA5
:10506000CDE902019DED020B51EC100B03F0C2FCE7
:10507000154921F81400601C84B204480088844259
:105080009FDB04B0BDEC108B10BD0000740000204D
:1050900076000020780000207E00002084000020A0
:1050A000000000000000F03F000000000000004091
:1050B000182D4454FB210940000000000070A74057
:1050C0000000000000001040F0110020042808D16A
:1050D0004FF0E021096941F004014FF0E022116135
:1050E00007E04FF0E021096921F004014FF0E022D0
:1050F000116170477FB56846FFF7C6FC4FF47A71BF
:105100000198B0FBF1F4E4082146481EB0F1807F1D
:1051100000D31BE0481E4FF0E022506150170F22D1
:10512000002807DA13071E0E0B4B00F00F052D1F8A
:105130005E5503E013071D0E084B1D5400BF0020F1
:105140004FF0E02290610720106100BF6FF0040073
:10515000FFF7BCFF7FBD000018ED00E000E400E0B9
:1051600010B504480068401C0249086003F076F955
:1051700010BD00006000002010B51548006840F424
:105180007000134908601348006840F0010011499D
:10519000086000200F49083108600E4800680E4979
:1051A00008400C4908600D48091D0860081F006888
:1051B00020F48020091F0860002006490C31086097
:1051C000FFF71AFE4FF0006001498039086010BDFA
:1051D00088ED00E000380240FFFFF6FE10300024AA
:1051E00030B58BB005460C4601210846FFF72CFC74
:1051F00001211020FFF7F8FB012209213748FDF7B4
:1052000038FC01220B213548FDF733FC01220D212A
:105210003248FDF72EFC01220E213048FDF729FC13
:105220004FF4D440099002208DF8280000208DF81A
:105230002A0001208DF82B0003208DF8290009A9F0
:105240002648FDF7CEFBA8B2ADF818000020ADF857
:105250001A000794ADF820008DF8220006A9204816
:1052600000F0F6FA6020ADF804000120ADF8060069
:105270000020ADF80800ADF810000820ADF81200CD
:105280000020ADF8140003900821154800F0CCF977
:1052900001A9134800F08AF90821114800F020FA0A
:1052A00001A90F4800F0CAF908210D4800F076FA6C
:1052B00001A90B4800F022FA0821094800F0B4FACD
:1052C00001A9074800F074FA0121054800F042F9ED
:1052D0000121034800F04AF90BB030BD0010024034
:1052E000000001400EB501210846FFF78DFB4FF08D
:1052F000FF3001905320ADF800000020ADF8080009
:10530000ADF802000121880700F012F969464FF05C
:10531000804000F09DFA0121880700F01BF90EBDC6
:1053200010B50121880700F030F938B10121880754
:1053300000F00DF90121880700F006F910BD00000A
:1053400030B58BB005460C4601210220FFF75CFB0F
:1053500001210420FFF748FB022206213448FDF713
:1053600088FB022207213248FDF783FB0222082135
:105370002F48FDF77EFB022209212D48FDF779FB1E
:105380004FF47070099002208DF8280001208DF8EC
:105390002B0003208DF8290009A92548FDF721FBE2
:1053A000A8B2ADF818000020ADF81A000794ADF8C7
:1053B00020008DF8220006A91E4800F049FA60205E
:1053C000ADF804000120ADF806000020ADF808009B
:1053D000ADF810000820ADF812000020ADF8140060
:1053E00003900821134800F01FF901A9114800F0AB
:1053F000DDF808210F4800F073F901A90D4800F00D
:105400001DF908210B4800F0C9F901A9094800F06D
:1054100075F90821074800F007FA01A9054800F0CE
:10542000C7F90121034800F095F80BB030BD00002A
:10543000000802400004004030B58BB005460C4621
:1054400001210420FFF7E0FA01210820FFF7CCFA40
:1054500002220C213448FDF70CFB02220D213248B8
:10546000FDF707FB02220E212F48FDF702FB022267
:105470000F212D48FDF7FDFA4FF4704009900220EE
:105480008DF8280001208DF82B0003208DF82900CD
:1054900009A92548FDF7A5FAA8B2ADF81800002023
:1054A000ADF81A000794ADF820008DF8220006A987
:1054B0001E4800F0CDF96020ADF804000120ADF8E1
:1054C00006000020ADF80800ADF810000820ADF887
:1054D00012000020ADF81400ADF8160008211348A2
:1054E00000F0A2F801A9114800F060F808210F4867
:1054F00000F0F6F801A90D4800F0A0F808210B48CB
:1055000000F04CF901A9094800F0F8F80821074813
:1055100000F08AF901A9054800F04AF90121034881
:1055200000F018F80BB030BD000C0240000800403D
:1055300021B1028842F08002028004E002884FF626
:105540007F731A4002807047CA4302827047CA4381
:105550000282704721B1028842F00102028004E019
:1055600002884FF6FE731A400280704731B1B0F8DE
:10557000442042F40042A0F8442005E0B0F8442062
:10558000C2F30E02A0F84420704730B50246002056
:1055900000230024158A05EA0103958905EA010420
:1055A00013B10CB1012000E0002030BD70B5002423
:1055B00000220023058C4FF6FE7635400584028CD0
:1055C0008388048B4FF68F752C40B51E2C400D88B8
:1055D0002C43751E2A408D892A434D882A43104D3D
:1055E000A84202D00F4DA84213D14FF6F7752A40BA
:1055F000CD892A434FF6FB752A408D882A434FF602
:10560000FF652B404FF6FF552B400D8A2B434D8AEB
:105610002B43838004838D684563028470BD000042
:1056200000000140000401400A460021018B4FF6B2
:10563000F7731940114301837047000070B50024CF
:1056400000220023058C4FF6EF7635400584028C4E
:105650008388048B48F6FF752C404FF6FF452C409D
:105660000D884FF6FF7606EA05252C434FF6DF75C9
:105670002A408D8906EA05152A434D8806EA051554
:105680002A43154DA84202D0144DA8421DD14FF611
:105690007F752A40CD894FF6FF7606EA05152A4325
:1056A0004FF6BF752A408D8806EA05152A434FF646
:1056B000FF352B404FF2FF752B400D8A06EA85051A
:1056C0002B434D8A06EA85052B43838004838D682E
:1056D0008563028470BD00000000014000040140A9
:1056E0000A460021018B4FF2FF7319404FF6FF73FA
:1056F00003EA0223194301837047000070B50024B8
:1057000000220023058C4FF6FF6635400584028C8D
:105710008388848B4FF68F752C404FF6FC752C4098
:105720000D882C434FF6FF552A408D894FF6FF76A2
:1057300006EA05252A434D8806EA05252A43154D24
:10574000A84202D0144DA8421DD14FF2FF752A4045
:10575000CD894FF6FF7606EA05252A434FF6FF3539
:105760002A408D8806EA05252A434EF6FF752B4010
:105770004DF6FF752B400D8A06EA05152B434D8A21
:1057800006EA05152B43838084838D68C5630284F4
:1057900070BD000000000140000401400A460021E5
:1057A000818B4FF6F77319401143818370470000D6
:1057B00070B5002200230024058C4EF6FF7635409C
:1057C0000584038C8488828B48F6FF752A404FF647
:1057D000FF452A400D884FF6FF7606EA05252A4345
:1057E0004DF6FF752B408D8906EA05352B434D8814
:1057F00006EA05352B430A4DA84202D0094DA842BE
:1058000008D14BF6FF752C400D8A4FF6FF7606EA5D
:1058100085152C43848082838D680564038470BD64
:1058200000000140000401400A460021818B4FF234
:10583000FF7319404FF6FF7303EA02231943818374
:1058400070474163704781637047C16370470000D0
:1058500000220288184B98420ED0184B98420BD069
:10586000B0F1804F08D0164B984205D0154B9842A6
:1058700002D0154B984204D14FF68F731A404B88D3
:105880001A43124B984207D0114B984204D04FF65E
:10589000FF431A400B891A4302804B68C3620B888E
:1058A0000385054B984202D0044B984201D18B7A74
:1058B00003860123838270470000014000040140F9
:1058C0000004004000080040000C004000100040B0
:1058D0000014004010B596B0044601210220FFF7E5
:1058E00083F801218805FFF77FF801211020FFF7D9
:1058F000ABF8072211464348FDF7BBF814A8FDF7A3
:10590000E8F88020149002208DF8540000208DF8D3
:10591000550001208DF8570014A93A48FDF761F8A9
:10592000394800F089F910A800F0B8FA1094002066
:10593000ADF84400ADF846004FF48060ADF8480083
:105940000420ADF84A000020ADF84C0010A92E4804
:1059500000F03AFA00F05EF8012240212A4800F0F7
:1059600062F92A48FCF782FC6846FCF789FD4FF093
:10597000006000902448001D0190254802900020FE
:1059800003901E200490002005904FF48060069044
:105990000020079008904FF48070099000020A9050
:1059A00000200B900C900D900E9069461748FCF764
:1059B00039FD002216491E311448FCF70EFD012165
:1059C0001248FCF7FFFC01211048FCF743FC25209E
:1059D0008DF83C0000208DF83D008DF83E00012040
:1059E0008DF83F000FA8FEF727FF012240F2244167
:1059F000054800F0C3F90121034800F008F916B08A
:105A000010BD00000004024000100140406402404C
:105A1000902E002010B50723122202490248FAF7FF
:105A200039FC10BDCC2E0020A02F002010B540F274
:105A30002441284800F078F9002849D025480088FA
:105A4000244880882448FCF7E2FC00BB002122485F
:105A5000FCF700FC2048FCF7D6FCC0F11E001F49F3
:105A600008601E201C49091D0860081F006840F4DA
:105A70000020091F086001211748FCF7EBFB1748BD
:105A80000068122824D11648FFF7E2F820E0002130
:105A90001148FCF7DFFB1048FCF7B5FCC0F11E0015
:105AA0000E4908601E200C49091D0860081F006887
:105AB00020F40020091F086001210748FCF7CAFBF9
:105AC00006480068122803D105481E30FFF7C0F8C9
:105AD00010BD000000100140406402408C01002015
