:020000040800F2
:1000000018120020410200088D2F0008291A00084C
:10001000892F0008EF110008173B000800000000BE
:10002000000000000000000000000000693100082E
:100030006B120008000000001D3000082D3300087E
:100040005B0200085B0200085B0200085B0200081C
:100050005B0200085B0200085B0200085B0200080C
:100060005B0200085B020008E91300085B0200085D
:100070005B0200085B0200085B0200085B020008EC
:100080005B0200085B0200085B0200085B020008DC
:100090005B0200085B0200085B0200085B020008CC
:1000A0005B0200085B0200085B0200085B020008BC
:1000B000E93300085B0200085B0200085B020008ED
:1000C0005B0200085B0200085B0200085B0200089C
:1000D0005B0200087D3800085B0200080539000853
:1000E0005B0200085B0200085B0200085B0200087C
:1000F0005B0200085B0200085B0200085B0200086C
:100100005B0200085B0200085B0200085B0200085B
:100110005B0200085B0200085B0200085B0200084B
:100120005B0200085B0200085B0200085B0200083B
:100130005B0200085B0200085B0200085B0200082B
:100140005B0200085B0200085B0200085B0200081B
:100150005B0200085B0200085B0200085B0200080B
:100160005B0200085B0200085B0200085B020008FB
:100170005B0200085B0200085B0200085B020008EB
:100180005B0200085B02000800F002F800F049F88A
:100190000AA090E8000C82448344AAF10107DA45E2
:1001A00001D100F03EF8AFF2090EBAE80F0013F0EB
:1001B000010F18BFFB1A43F001031847D85B00007A
:1001C000F85B0000103A24BF78C878C1FAD852070B
:1001D00024BF30C830C144BF04680C6070470000C1
:1001E0000023002400250026103A28BF78C1FBD840
:1001F000520728BF30C148BF0B607047662905F021
:10020000F484002070471FB505F0E5FC00F0B2FA59
:1002100004000020002104F051FEE0601FBD10B575
:1002200010BD00F0BBFB1146FFF7EDFF04F080FCB2
:1002300000F0D9FB03B4FFF7F2FF03BC04F092FB1C
:100240000948804709480047FEE7FEE7FEE7FEE76A
:10025000FEE7FEE7FEE7FEE7FEE7FEE704480549A6
:10026000054A064B70470000453300088901000825
:10027000180C002018120020180E0020180E002064
:100280007047000000487047B80B00200FB40449C5
:1002900010B503AA029800F05BFA10BC5DF814FBDD
:1002A000C00000202DE9F0410E46044600202062E7
:1002B0002046E168884730B3252805D0D4E90121DC
:1002C0009047206A401CF2E7E168204600278847F3
:1002D000050018D0A5F14100192802D820354FF4A7
:1002E00000673246294620462760FFF787FF40B166
:1002F000012804D0F61D26F007060836D8E7361D7B
:10030000D6E72846DAE7206ABDE8F08170477047F3
:100310007047000000487047B80B0020704710B5C8
:10032000FFF7B0FF006810BD10B50446FFF7AAFF45
:10033000046010BD70472DE9FF4F0C461E464FF07C
:10034000FF378BB0D2E90001DDF860800A908A4661
:10035000C1F30A5505B93D46002108464FF000009B
:10036000BAF1000F00F4400005DA00EB80004FF412
:10037000400101EA50004FEA9059B9F1010F00DD48
:10038000B9460A9850EA4A000ED044F61050A5F239
:10039000FF3545432F14B8F1000F1ED07542291EBA
:1003A0001EDDC9F100021CE0B8F1010F4FF00000A2
:1003B00001D0302103E0F24305E02154401CB0425B
:1003C000FBDB30460022002121540B99C1F8088044
:1003D000C1E900200FB0BDE8F08FBD1B6D1CDEE74A
:1003E0004A4600DA694206A800F066FA06AB93E8CE
:1003F000070003AB83E8070050460A9900F03CFB76
:100400008DE80700A0F500501F3800900398002DDC
:1004100009DD42F21F014A46084403A903906846D9
:1004200000F09BFD08E0A0F500504A461F3803A9E4
:100430000390684600F0A5FD8DE807000004000C5D
:1004400003D04FF0FF30410800E01046B8F1000F34
:1004500003D00022009215461EE0751E05D400F060
:100460008DF9303262556D1EF9D5B346012208432D
:1004700002D000227F1C04E02078302801D1002225
:100480007F1E002A099786D01DE0112D07DA00F0A3
:1004900075F9303262556D1C50EA0102F5D10843FE
:1004A00002D00098C8B10EE00021681E05E0235C70
:1004B000625C63542254401E491C8142F7DBAB4608
:1004C000A81B401E0990002004F80B000B98099A05
:1004D000C0F80880C0E9002B7CE711264FF0000827
:1004E00059E72DE9F04F88460446D21D22F0070156
:1004F00091B0D1E90001CDE90A0103F00EFB0246FB
:100500000B98C00F01D02D2007E02068810701D58E
:100510002B2002E0202101EAC000032A099001D02B
:10052000072A05DB03464146204600F085F90BE12A
:100530002078800601D5E06900E00620B8F1650F5B
:10054000814606D0B8F1660F18D0B8F1670F70D1A8
:1005500031E00020B9F1110F009001DB112301E01F
:1005600009F101030AAA01A90CA8FFF7E4FEDDE9DD
:100570000C70002609F10105834647E001204B4637
:1005800000904FF000470AAA01A90CA8FFF7D3FE7C
:10059000DDE90DB00C995D46002610B909F10100A6
:1005A0000D18B9EB050003D4C0F1FF3609F10105C0
:1005B000A5EB09002BE0B9F1010F01DA4FF00109B9
:1005C0000020B9F1110F0090484601DD112300E031
:1005D00003460AAA01A90CA8FFF7ADFEDDE90C70DD
:1005E0004D4600268346207800070AD4AB4500DA42
:1005F0005D4601A8012D04DD411911F8011C3029C7
:1006000007D04F4502DA17F1040F04DA01208246C1
:100610000FE06D1EEEE7002F02DCED1B3E4403E011
:10062000781CA84200DD7D1CB81B00F1010A4FF0C8
:1006300000472078000703D4AA4501DB4FF0FF3ABA
:100640000021B7F1004F0DF143088DF8431024D07D
:1006500002202B23002F01DA7F422D230A21021EC4
:10066000A0F1010000DC5FB197FBF1FC97FBF1F218
:1006700001FB1C7C17460CF1300C08F801CDEEE7AD
:10068000A8F1010003702188090501D5452100E08A
:100690006521A0F1010800F8011C09980FA9A1EB40
:1006A0000807FF1D00B10120411901EBEA70A169A3
:1006B0003844081A401EA0612078C00602D42046A3
:1006C000AFF30080099828B1D4E901219047206A4E
:1006D000401C20622078C00622D52046AFF300805F
:1006E0001EE0002E04DBB34502DD01A8805D00E0C2
:1006F0003020D4E901219047206A401C2062761CFA
:10070000AAF101005FEA000A0AD100F033F8C068DC
:100710000168405CD4E901219047206A401C2062B6
:10072000281EA5F10105DCDC07E0D4E9012118F859
:10073000010B9047206A401C2062381EA7F1010778
:10074000F3DC2046AFF30080032011B043E6000045
:10075000074B70B50D467B4400F05BF80446284615
:1007600000F018F910B14FF0FF3070BD204670BD99
:10077000F742000000487047D80B002030B5B0F1B8
:100780000A024FEA900E71F100034EEA817EB0EB4F
:100790000E0061EB91014FEA101E4EEA017E10EB54
:1007A0000E0041EB11114FEA102E4EEA016E10EBD4
:1007B0000E0041EB11214FEA104E4EEA014E10EBB4
:1007C0000E0041EB1141401841F100014FEAD00009
:1007D00040EA41704FEAD10110EB80054FEA8104F5
:1007E00044EA907444EB01046D1944EB0404521B79
:1007F000A3414FF0000348BF0A3200D530BD401C72
:1008000041F1000130BD000001694A1C0261087815
:10081000704700B58FB0CDE9013100210591054940
:100820007944CDE9031011466846FFF73BFD0FB050
:1008300000BD0000E5FFFFFF2DE9F0411F46044623
:1008400003260168072A01F4006004DB08B116A53D
:1008500005E016A503E008B115A500E015A521F0F7
:1008600010002060A069C01EA0610FB1401EA061F1
:100870002046AFF300804FB1D4E9012138469047BC
:10088000206A401C2062C01C206206E0206AFAE751
:10089000D4E9012115F8010B9047761EF8D22046C5
:1008A000AFF30080BDE8F0814E414E006E616E00F6
:1008B000494E4600696E66002DE9F04781461646AE
:1008C0008AB0334878440DC88DE80D00304878442C
:1008D000801C03AC0DC884E80D0041F69B30084431
:1008E000372190FBF1F290FBF1F5A5F1800501FBBA
:1008F00012041B3C02D56442012000E00020DFF816
:1009000090A080460027FA44AAF1BE0A0DE0E00755
:1009100009D03246684607EB47010AEB810100F037
:1009200030FB8DE8070064107F1C002CEFD1184FBE
:100930007F44AC3F18E0E80714D007EB04100DF13A
:10094000180A90E80E008AE80E00C068F04201D153
:1009500098190890324606A903A800F012FB03ABD1
:1009600083E807006D10641C002DE4D1324669460F
:10097000B8F1000F03A802D000F0EFFA01E000F098
:1009800000FBC9E90001C9F808200AB0BDE8F087FA
:10099000B4540000007B00F0800070477546FFF7FC
:1009A000B9FCAE4605006946534620F0070085466F
:1009B00018B020B5FFF752FCBDE820404FF000060C
:1009C0004FF000074FF000084FF0000B21F0070137
:1009D000AC46ACE8C009ACE8C009ACE8C009ACE87A
:1009E000C0098D46704710B50446AFF3008020461D
:1009F000BDE81040FFF71EBC4FF0013C50F8042B3F
:100A000051F8043B9A4221D1A2EB0C03934313EA21
:100A1000CC1317D150F8042B51F8043B9A4215D14E
:100A2000A2EB0C03934313EACC130BD150F8042B25
:100A300051F8043B9A4209D1A2EB0C03934313EA09
:100A4000CC13DBD04FF00000704700BFD01A01BAC2
:100A5000B1FA81F101F0180122FA01F0CB40C1F1A5
:100A60002001DBB2C0B2C01A2CFA01F3D11A9143B3
:100A700011EAC311E6D170475FEA400C08BF91F05C
:100A8000000F4FEA8C234FEAC12243EA51514FEA4B
:100A90001C5018BF00F5F0404FEA300018BF41F07D
:100AA00000415FEA6C5C00F02980BCF1FF3F08BFA9
:100AB00040F080407047130C06BF12044FF0100C3A
:100AC0004FF0000C130E04BF12020CF1080C130FB0
:100AD00004BF12010CF1040C930F04BF92000CF13F
:100AE000020CD30F04BF52000CF1010C11464FF061
:100AF0000002A0F11F00A0EB0C00704711F0004FA6
:100B000008BF704731F000413FF4D5AF0B0C06BF72
:100B100009044FF0100C4FF0000C0B0E04BF09023B
:100B20000CF1080C0B0F04BF09010CF1040C8B0F26
:100B300004BF89000CF1020CCB0F04BF49000CF17B
:100B4000010CCCF12003A0EB0C0022FA03F302FA13
:100B50000CF241EA030100F10100704720F07F4CE4
:100B600080EA030023F07F47ACEB070303F57C53D7
:100B700000F0004003F1FF032DE980494FEA154BD7
:100B800009B44FEA144325EA0B4E24EA03480FF256
:100B9000042606EB132749083E785FEA320203FB7E
:100BA0000667C7F5000707FB06F64FEA54374FEA1A
:100BB000D64606F1020607FB066CCCF1005C4FEA54
:100BC0001C472CEA074C07FB06F40CFB06F504EB6C
:100BD00015464FEA961634BF00204FF000404FEA0A
:100BE000D13706FB07FC4FEA1C4C0CFB0BF7D21B62
:100BF00003FB0CF761EB07010CFB0EF7B0EB0740B2
:100C000072EB17420CFB08F734BFA2EB0742B2EBC2
:100C1000074261EB17414FEA0C444FEA910706FB8C
:100C200007FC4FEA1C4C0CFB0BF7B0EBC74072EB18
:100C3000573203FB0CF734BFA2EBC742B2EBC742FB
:100C400061EB57310CFB0EF7B0EBC70072EB57723C
:100C50000CFB08F734BFA2EBC702B2EBC70261EB93
:100C60005771039F4FEA816141EA921104EBCC0472
:100C70004FEAD1374FEA826206FB07FC42EA901244
:100C80004FEA80604FEA1C4C0CFB0BF7D21B03FBB6
:100C90000CF761EB07010CFB0EF7B0EB074072EBB2
:100CA00017420CFB08F734BFA2EB0742B2EB074236
:100CB00061EB17414FEA8C554FEA910704EB9C24F6
:100CC00006FB07FC4FEA1C4C0CFB0BF7B0EBC740D4
:100CD00072EB573203FB0CF734BFA2EBC742B2EB07
:100CE000C74261EB57310CFB0EF7B0EBC70072EB5C
:100CF00057720CFB08F734BFA2EBC702B2EBC70276
:100D000061EB577115EB4C254FEA816141EA921175
:100D10004FEA82624FEAD13742EA901206FB07FCA3
:100D200044F100044FEA80604FEA1C4C0CFB0BF7C7
:100D3000D21B03FB0CF761EB07010CFB0EF7B0EBCA
:100D4000074072EB17420CFB08F734BFA2EB0742D7
:100D5000B2EB074261EB174115EB1C154FEA8131ED
:100D600041EA92414FEA823242EA90424FEA8030B1
:100D70004FEA0C7644F1000448EA03434EEA0B487C
:100D80004FF0000EB2EB080C71EB030724BF624674
:100D900039464EEB0E0E4FF0000B00185241494100
:100DA0004BEB0B0BB2EB080C71EB03077BF1000B69
:100DB00024BF624639464EEB0E0E4FF0000B001872
:100DC000524149414BEB0B0BB2EB080C71EB0307A3
:100DD0007BF1000B24BF624639464EEB0E0E51EA02
:100DE000020718BF46F0010616EB0E7655F1000219
:100DF00054F1000103D5BDE88901BDE80088BDE8D4
:100E00008901BDE80048B619524141EB0101A3F147
:100E10000103704780807F7E7D7C7B7A797877764E
:100E200076757473727171706F6E6E6D6C6C6B6AC7
:100E30006A69686867666665646463636261616065
:100E4000605F5F5E5E5D5D5C5C5B5B5A5A595958E2
:100E5000585757565655555554545353525252514C
:100E6000515050504F4F4F4E4E4D4D4D4C4C4C4BA2
:100E70004B4B4A4A4A4949494848484747474746E9
:100E80004646454545444444444343434342424225
:100E900042414141002B26D4770021D01CB54FEAB6
:100EA000370703B44FF010004FF010014FF000006F
:100EB0000FBCBDE810400BF1010BBBF1010F08BFE7
:100EC0005FEA170722BF12F1010211F101014FF091
:100ED000004143F1000300F0004043EA0000704786
:100EE000F9D35708DAE746EA064613F1400F4FEA0E
:100EF00016461FDD13F1200FDFBF16430A460021FF
:100F000020335B42C8D0C3F1200746EA064602FA06
:100F100007F74FEA164646EA0706C3F1200722FA0A
:100F200003F201FA07F721FA03F14FF0000342EA56
:100F30000702B1E746EA020646EA06464FEA1646C7
:100F400046EA0106BCBF46EA0646360C4FF00003EF
:100F50004FF000024FF000019EE72DE9C048934694
:100F600030B491E8380007C831EA400C48BF34EA91
:100F7000430C03D5FFF7F2FDFFF78CFFF0BCBDE893
:100F800000882DE9C048934630B491E8380007C87E
:100F900010F0804F08BF13F0804F03D100F005F828
:100FA000FFF778FFF0BCBDE8008820F07F4780EABB
:100FB000030023F07F4C07EB0C03A3F57C5300F0F8
:100FC0000040A3F1FE0392F0000F00F0B38095F013
:100FD000000F00F077802DE901494FEA11404FEAF8
:100FE000144621EA004800FB06FC24EA064708FBF9
:100FF00006F607FB08F800FB07F718EB06484CEB72
:10100000164C4FEA124B18EB07484FEA15464CEBCB
:10101000174022EA0B4E0BFB06FC25EA06470EFBA7
:1010200006F607FB0EFE0BFB07F71EEB064E4CEB1E
:10103000164C4FF000061EEB074E4CEB174B18EB0F
:101040000B0840F1000018EB0E0B58EB000840F1C4
:1010500000008F1A4FF000013CBFC943661B14BF4C
:10106000B5EB040C00213CBFC943F61B4FEA174403
:101070004EEA8E0E27EA04454FEA1C4704FB07623E
:101080002CEA074C05FB07F70CFB05F604FB0CFCF0
:1010900016EB074642EB174216EB0C4642EB1C429E
:1010A0001BEB060658EB0202414146EA9E0601D5BB
:1010B000BDE80189B619524141EB0101A3F10103D9
:1010C000BDE801894FEA14454FEA114724EA054675
:1010D00021EA074C05FB07F406FB07F70CFB06F1BA
:1010E00005FB0CFC11EB074144EB17444FEA124798
:1010F00011EB0C4144EB1C4422EA074C05FB07F2C0
:1011000006FB07F70CFB06F605FB0CFC16EB074687
:1011100042EB174216EB0C4642EB1C456A1854F1A1
:10112000000148BF7047B619524141EB0101A3F1DC
:101130000103704795F0000F37D04FEA11424FEA94
:10114000144721EA024624EA074C02FB07F106FB9A
:1011500007F70CFB06F402FB0CFC14EB074441EB15
:1011600017414FEA154714EB0C4441EB1C4125EAAB
:10117000074C02FB07F506FB07F70CFB06F602FB24
:101180000CFC16EB074645EB174516EB0C4645EBFA
:101190001C42121951F1000148BF7047B619524163
:1011A00041EB0101A3F1010370474FEA14454FEAF7
:1011B000114724EA054621EA074C05FB07F106FB27
:1011C00007F70CFB06F24FF0000605FB0CFC12EBD8
:1011D000074241EB174112EB0C4251EB1C4148BF57
:1011E0007047921841EB0101A3F10103704700BF62
:1011F000FEE710B5002404E0204600F071FA601C00
:10120000C4B2052CF8DB10BD0246094B9A4201D24C
:10121000084801E00648103801F000531BB1064BA6
:101220000B40C36002E0044B0B408360704700003A
:1012300010640240006002407D0F7D0F21B1026802
:1012400042F00102026003E0026822F00102026043
:101250007047014600200A6802F001020AB101202D
:1012600000E000207047416070477047704770474A
:101270007047000000B52DED068B85B0012029498F
:10128000087000F097F9284801F026FA264890EDFA
:10129000020A10EE101A084604F02CFC41EC180B60
:1012A000214890ED010A10EE101A084604F022FCC5
:1012B00041EC190B1C4890ED000A10EE101A08467C
:1012C00004F018FC41EC1A0B8DED028B8DED009BA8
:1012D00053EC1A2B15A0FEF7D9FF002001900290C5
:1012E00003900490104B009093ED020ABDEEC00AEB
:1012F00010EE103A1AB20C4B93ED010ABDEEC00A83
:1013000010EE103A19B2084B93ED000ABDEEC00A78
:1013100010EE103A18B2002303F05FFD05B0BDECEB
:10132000068B00BDB4000020B40900207961773D30
:1013300025663B7961773D25663B726F6C6C3D2578
:10134000662F6E0002480068401C01490860704723
:10135000140000207047000010B5204800780128D4
:101360003BD11F48008800B21E490880FFF77FFF6D
:101370001A48B0F90400022804DB002017498880CD
:10138000FFF778FF1548B0F90600052804DB0020B8
:101390001249C880FFF7DEFF1048B0F908000A289C
:1013A00004DB00200D490881FFF760FF0B48B0F90E
:1013B0000A00142804DB002008494881FFF758FF81
:1013C0000648B0F90C00322804DB0020034988816C
:1013D000FFF7B8FF00200149087010BDD8000020B9
:1013E000280000201000002010B5102000F014F894
:1013F00028B1102000F004F8102000F007F810BD0C
:101400000149086070470000143C01400149086030
:1014100070470000143C014001460020034A126856
:101420000A400AB1012000E000207047143C01404E
:10143000002123498279002A3AD00A4612680368BB
:101440009A430B461A600A1D126803689A430B1DE3
:101450001A60027911440A6803681A430A60184A3C
:101460000832126803689A43154B08331A601A1D34
:10147000126803689A43124B0C331A604279102A9F
:101480000ED11A1F126803681A430D4B08331A60F5
:101490001A1D126803681A43094B0C331A600DE0D9
:1014A0000749427911440A6803681A430A6005E053
:1014B000027911440A6803689A430A607047000081
:1014C000003C0140F0B50A4600210023002400BF83
:1014D0003DE0012505FA01F3156805EA03049C4285
:1014E00034D105684F000326BE40B5430560157929
:1014F0004E00B5400668354305601579012D02D0D0
:101500001579022D16D185684F000326BE40B543DC
:10151000856055794E00B5408668354385604568DD
:1015200001268E40B5434560456896798E40B6B237
:1015300035434560C5684F000326BE40B543C560CE
:10154000D5794E00B540C6683543C560491C1029A1
:10155000BFD3F0BDF0B5002300244D07ED0E02FA15
:1015600005F3CE1000F1200555F826504E07F70E72
:101570000F26BE40B543CF1000F1200646F8275095
:10158000CE1000F1200555F8265045EA0304CE1090
:1015900000F1200545F82640F0BD02460020136901
:1015A0000B400BB1012000E00020704741837047E1
:1015B00001837047324890ED030A324880ED040AF7
:1015C0002F4890ED040AB1EE400A2E4880ED050A3E
:1015D0002B4890ED050A2B4880ED060A2A4890ED2D
:1015E000000A2A4880ED000A294890ED000A2648A2
:1015F00080ED000A90ED000A2448D0ED000A30EE9C
:10160000600ADFED240AB4EEE00AF1EE10FA05DB21
:1016100021480068401E2049086013E01A4890EDF8
:10162000000A1A48D0ED000A30EE600ADFED1B0A0E
:10163000B4EEE00AF1EE10FA04D817480068401C36
:1016400015490860144800684FF4B471484300EE2F
:10165000100AB8EEC00A0C48D0ED000A30EE200A9D
:101660000F4880ED000A0A4890ED010A0D4880ED10
:10167000000A074890ED020A0B4880ED000A704707
:1016800080090020D4090020740000208000002080
:10169000B40900200000A543980000200000A5C365
:1016A0008C00002090000020940000200B4A11685C
:1016B0004FF0E02252694FF0E0239B69D21A4FF4B9
:1016C0007A735A434FF0E0235B69B2FBF3F201EB0C
:1016D0004103C3EBC11302EBC300704718000020A5
:1016E00010B5044604EB44001B4901EB800090ED6B
:1016F000000A04EB440001EB800080ED010AFFF7D3
:10170000D5FF00EE100AB8EE400A04EB440012497F
:1017100001EB800080ED000A04EB440001EB800047
:1017200090ED000A04EB440001EB8000D0ED010ACB
:1017300030EE600A04EB440001EB800080ED020A09
:1017400004EB440001EB800090ED020ABCEEC00AFD
:1017500010EE100A10BD0000FC0000204FF0804089
:10176000406A704708B50020009001236A460A21AC
:101770003C2001F041FB40B99DF80000482809D009
:1017800015A0FEF783FDFF2008BD16A0FEF77EFD25
:10179000FF20F9E7702200213C2000F0EFFA05203D
:1017A00003F008F9A02201213C2000F0E7FA05200F
:1017B00003F000F9002202213C2000F0DFFA0620AD
:1017C00003F0F8F8182200213C2000F0D7FA062098
:1017D00003F0F0F80020D7E76572726F7220324193
:1017E0000D0A00006572726F722032420D0A00000D
:1017F00010B504460623224603213C2001F0FCFAE2
:1018000010BD00002DE9F04104460D46164616486D
:10181000FFF7EEFF144B0E3B5B7C134F0E3F3F7CFC
:1018200043EA07231AB2104B0E3BDB7B0E4F0E3FF1
:10183000BF7B43EA07235B4219B20B4B0E3BDB7CB9
:10184000094F0E3FBF7C43EA072318B200F040F86F
:101850000648808A20800548408D28800348B0F8DB
:1018600040003080BDE8F081160A0020A00A002068
:101870003EB504466A4601A902A8FFF7C3FFBDF9B9
:10188000080000EE100AB8EEC00A0E4880ED000A0B
:1018900084ED000ABDF9040000EE100AB8EEC00A9B
:1018A000094880ED000A84ED010ABDF9000000EE50
:1018B000100AB8EEC00A054880ED000A84ED020A5D
:1018C0003EBD00009C000020A0000020A4000020DD
:1018D000F0B503460C4600200021012019E0504DD0
:1018E00035F81060451E4E4F27F8156007F11605B4
:1018F00035F81070451E4A4E163626F8157006F15A
:10190000160535F81070451E163626F81570451C5C
:10191000E8B20A28E3DB424D6B822C85EA8700207F
:1019200005E03F4D35F910502944451CE8B20A281E
:10193000F7DB0A2591FBF5F52DB2394EB582002172
:10194000002006E0364D163535F910502944451C67
:10195000E8B20A28F6DB0A2591FBF5F52EB2304DE8
:101960006E850021002006E02D4D2C3535F91050F4
:101970002944451CE8B20A28F6DB0A2591FBF5F557
:101980002EB2274DA5F84060264DB5F90650244EDD
:10199000B6F91460B54203DD214DAD8A214EF580C4
:1019A000204DB5F908601E4DB5F92A50AE4203DD51
:1019B0001B4D6D8D1B4E35811A4DB5F90A60184DC2
:1019C000B5F94050AE4204DD154DB5F84050154E06
:1019D0007581144DB5F90050114EB6F91460B54239
:1019E00003DA0F4DAD8A0F4E35800E4DB5F902600A
:1019F0000B4DB5F92A50AE4203DA094D6D8D094EF3
:101A00007580084DB5F90460054DB5F94050AE42FA
:101A100004DA034DB5F84050024EB580F0BD000029
:101A2000A00A0020E20A002000BFFEE710B504462D
:101A300000F0E6F82CB14FF400710D48FFF7B8FD47
:101A400004E04FF400710A48FFF7B0FD4FF48071D5
:101A50000748FFF7ADFD012000F00CF84FF480714E
:101A60000348FFF7A3FD012000F004F810BD0000BB
:101A70000004024010B5002106E0062200BF131E3C
:101A8000A2F10102FBD1491C8142F6D310BD000036
:101A90001CB50121022001F0C3FA4FF44070009000
:101AA00001208DF804008DF8060003208DF8050054
:101AB00069460248FFF706FD1CBD00000004024015
:101AC00070B5002400F086F800251BE04FF480710B
:101AD0001148FFF76BFD0120FFF7CCFF4FF4807139
:101AE0000D48FFF765FD6006040E4FF400710A48CB
:101AF000FFF753FD08B1601CC4B20120FFF7BAFF25
:101B0000681CC5B2082DE1DB4FF480710248FFF775
:101B10004DFD204670BD0000000402402DE9F0415B
:101B200006460F461446984600F07EF8304600F010
:101B3000F3F800F0B9F8FF2805D11DA0FEF7A6FBC9
:101B4000FF20BDE8F081384600F0E6F800F0ACF880
:101B5000FF2804D119A0FEF799FBFF20F1E700F060
:101B600063F8711CC8B200F0D7F800F09DF8FF28A8
:101B700004D115A0FEF78AFBFF20E2E7002508E06C
:101B8000FFF79EFF20700020FFF750FF641C681CC9
:101B9000C5B2A8F10100A842F2DCFFF791FF207066
:101BA0000120FFF743FF00F05FF80020C9E70000C5
:101BB0006572726F722032460D0A00006572726F94
:101BC000722032470D0A00006572726F722032482F
:101BD0000D0A00001CB54FF40070009000208DF835
:101BE00004008DF806008DF8070002208DF805002E
:101BF00069460248FFF766FC1CBD00000004024075
:101C00001CB54FF40070009001208DF804008DF891
:101C1000060003208DF8050069460248FFF752FCD4
:101C20001CBD00000004024010B5FFF7E9FF4FF4AF
:101C300000710C48FFF7BCFC4FF480710948FFF7B6
:101C4000B7FC0120FFF716FF4FF400710548FFF7BE
:101C5000ADFC0120FFF70EFF4FF480710148FFF744
:101C6000A5FC10BD0004024010B5FFF7C9FF4FF4FA
:101C700080710C48FFF79AFC4FF400710948FFF798
:101C800095FC0120FFF7F6FE4FF480710548FFF741
:101C90008FFC4FF400710348FFF78AFC0120FFF727
:101CA000E9FE10BD0004024010B54FF47A744FF401
:101CB00000711548FFF77CFCFFF78CFF0120FFF750
:101CC000D9FE4FF480711048FFF772FC0120FFF736
:101CD000D1FE0AE0601E80B2041E06D0FFF7C4FFEA
:101CE0000AA0FEF7D3FAFF2010BD4FF4007106489A
:101CF000FFF753FC0028EDD14FF480710248FFF745
:101D000055FC0020F0E70000000402406572726F8D
:101D1000722032410D0A000070B50446FFF770FFD3
:101D20004FF480711448FFF741FC002521E004F0D6
:101D3000800028B14FF400710F48FFF739FC04E030
:101D40004FF400710C48FFF731FC6006040E0120CF
:101D5000FFF790FE4FF480710748FFF729FC012040
:101D6000FFF788FE4FF480710348FFF71FFC681CE3
:101D7000C5B2082DDBDB70BD0004024070B506461D
:101D80000C461546FFF750FF3046FFF7C5FFFFF73B
:101D90008BFFFF2804D110A0FEF778FAFF2070BD5A
:101DA0002046FFF7B9FFFFF77FFFFF2804D10DA002
:101DB000FEF76CFAFF20F2E72846FFF7ADFFFFF7CA
:101DC00073FFFF2804D10AA0FEF760FAFF20E6E7C0
:101DD000FFF74AFF0020E2E76572726F722032421D
:101DE0000D0A00006572726F722032430D0A000006
:101DF0006572726F722032440D0A000000B52DED3D
:101E0000108B93B0FE4890ED000AD0ED000A20EE52
:101E1000200A8DED080A90ED000AFA48D0ED000A7C
:101E200020EE200AB0EE40FAF54890ED000AF648A0
:101E3000D0ED000A20EE200AF0EE40AAF04890ED26
:101E4000000AF248D0ED000A20EE200A8DED070AC4
:101E5000EC4890ED000AD0ED000A20EE200AF0EEEA
:101E600040FA90ED000AE848D0ED000A20EE200A82
:101E70008DED060AE34890ED000AE448D0ED000A33
:101E800020EE200AB0EE40BADF4890ED000AD0ED17
:101E9000000A20EE200AF0EE40BA90ED000ADB487E
:101EA000D0ED000A20EE200A8DED050A90ED000A23
:101EB000D0ED000A20EE200A8DED040AD44890ED02
:101EC000030ADFEDD40A20EE200ADFEDD30A80EE0C
:101ED000201AD24880ED001ACD4890ED040ADFEDBB
:101EE000CD0A20EE200ADFEDCC0A80EE201ACC4885
:101EF00080ED001AC64890ED050ADFEDC60A20EE17
:101F0000200ADFEDC50A80EE201AC64880ED001ACF
:101F1000BF4890ED000AC44880ED000ABC4890ED2F
:101F2000010AC24880ED000AB94890ED020AC04893
:101F300080ED000AB64890ED060ABE4880ED000A22
:101F4000B34890ED070ABC4880ED000AB04890ED18
:101F5000080ABA4880ED000AFFF700FCB84908609B
:101F600008460068B749096888420CD3B44800683D
:101F7000B4490968401A00EE100AB8EE400ADFEDD5
:101F8000B20AC0EE208AAE480068AE490860A64892
:101F9000D0ED000A90ED001A60EE810AA34890EDA2
:101FA000001AD0ED001A41EE210AA14890ED001A66
:101FB000D0ED001A41EE210AB0EE600A02F09AFD5F
:101FC000B0EE408A984890ED000A20EE080A80EDB5
:101FD000000A964890ED000A20EE080A80ED000AFB
:101FE000934890ED000A20EE080A80ED000A91481F
:101FF000D0ED000A90ED001A60EE810A8E4890ED57
:10200000001AD0ED001A41EE210A8C4890ED001A1A
:10201000D0ED001A41EE210AB0EE600A02F06AFD2E
:10202000B0EE408A834890ED000A20EE080A80ED69
:10203000000A814890ED000A20EE080A80ED000AAF
:102040007E4890ED000A20EE080A80ED000A7948EB
:1020500090ED000AF0EE000A60EE200AB6EE000AEB
:1020600030EE6B1A9DED040A31EE400A20EE800A34
:102070007148D0ED000AB0EE001A60EE811ADDED75
:10208000060A9DED071A70EEC10A01EEA00A6B4820
:10209000D0ED000AB0EE001A60EE810A3BEE2A1A7B
:1020A00000EE810A8DED110A624890ED000AF0EE13
:1020B000000A20EE201A9DED060ADDED070A30EE3B
:1020C000200A21EE000A5C48D0ED000AB0EE001AAA
:1020D00020EE811AF6EE000A70EEEF1ADDED040A2A
:1020E00071EEE00A01EE200A5448D0ED000AB0EE8D
:1020F000001A20EE811ADDED050A70EECF0A01EE1E
:10210000200A8DED100A4B4890ED000AF0EE000A0F
:1021100020EE200A7BEE6A0A60EE200A464890ED27
:10212000000AB0EE001A20EE011A9DED050A70EECD
:102130000F1AB0EE600A01EE210A4048D0ED000A05
:10214000B0EE001A60EE810AB6EE001A31EE6F1A98
:1021500031EE6B1AB0EE409A00EE819A9DED110AB5
:1021600060EE000A9DED100A40EE000A10EE901A93
:10217000084603F0BFFCCDE900019DED000B02F025
:1021800043FA8DED020B9DED020B51EC100B02F0AA
:10219000B7FE09EE900AB0EE49AA3BEE6A0AF0EEED
:1021A000000A20EE200A8DED0F0A9DED050A3FEE94
:1021B000000AF0EE000A20EE200A8DED0E0A9DEDD9
:1021C000080A30EE6F0A70EE6B0A9DED040A30EEDD
:1021D000800A8DED0D0AB0EE000A69EE800AB6EEB7
:1021E000000A30EE6B1A9DED040A31EE400A20EE33
:1021F000800AB0EE4A9AF0EE000A69EE200A25E065
:10220000380000203C000020400000204400002056
:1022100080090020DB0F49400000344348000020C3
:102220004C000020500000205400002058000020E6
:102230005C00002060000020640000206800002096
:10224000700000206C0000200024F4493BEE6A1A64
:1022500000EE810A8DED0C0AB0EE000A29EE801A1C
:102260009DED060ADDED070A30EE600A21EE000A58
:10227000B0EE4A9AF0EE000A29EE201ADDED050ACA
:102280007FEE200A01EE200A8DED0B0AB0EE000A67
:1022900029EE800A7AEE8B0A20EE200AB0EE4A9AE6
:1022A000F0EE000A69EE200AB6EE001A31EE6F1A5F
:1022B00031EE6B1A00EE810A8DED0A0AAF48D0EDBF
:1022C000000A9DED0D0A60EE800AAD4890ED001AFF
:1022D0009DED0E0A41EE400AAA4890ED001A9DEDD0
:1022E0000A0A21EE001AA848D0ED001A9DED0B0A4B
:1022F00001EEC01A30EE81CAA148D0ED000A9DED72
:102300000F0A60EE800AA14890ED001A9DED0D0ABB
:1023100041EE400A9C4890ED001A9DED0C0A21EE1A
:10232000001A9B48D0ED001A9DED0A0A01EEC01A72
:1023300070EE81CA9548D0ED000A9DED0E0A60EE60
:10234000800A8E4890ED001A9DED0F0A41EE400A7A
:102350008F4890ED001A9DED0B0A21EE001A894876
:10236000D0ED001A9DED0C0A01EEC01A30EE81DAB4
:10237000B5EEC0CAF1EE10FA57D0F5EEC0CAF1EED4
:1023800010FA52D0B5EEC0DAF1EE10FA4DD09FED52
:10239000810A6CEE000A804890ED000A00EEA80A5F
:1023A00080ED000A9FED7B0A6CEE800A7B4890ED81
:1023B000000A00EEA80A80ED000A9FED760A6DEE95
:1023C000000A774890ED000A00EEA80A80ED000AA6
:1023D000744890ED000AF0EE000A00EE8C0A6E4898
:1023E000D0ED000A30EE200A6E4880ED000A6E48FB
:1023F00090ED000AF0EE000A00EEAC0A6748D0ED5E
:10240000000A30EE200A684880ED000A674890ED27
:10241000000AF0EE000A00EE8D0A6148D0ED000AD5
:1024200030EE200A614880ED000A614890ED000A14
:10243000B1EE400A5B48D0ED000A20EE200A5D486C
:10244000D0ED000A584890ED001A00EEC10A5A4833
:1024500090ED001A5548D0ED001AF0EE400A41EE1A
:10246000610A564890ED000A00EEA80A8DED090AAF
:1024700090ED000A4B48D0ED000A20EE200A4D48AE
:10248000D0ED000A494890ED001A00EE810A4A4852
:10249000D0ED000A444890ED001A00EEC10A44480D
:1024A000D0ED000AF0EE60DA40EE28DA434890ED15
:1024B000000A3D48D0ED000A20EE200A3C48D0ED4D
:1024C000000A3A4890ED001A00EEC10A3A48D0EDF1
:1024D000000A344890ED001A00EE810A3548D0ED2C
:1024E000000AB0EE60EA00EE28EA344890ED000AF7
:1024F0002E48D0ED000A20EE200A2D48D0ED000A2B
:10250000294890ED001A00EE810A2A48D0ED000A11
:10251000244890ED001A00EEC10A2748D0ED000AC9
:10252000F0EE60EA40EE28EADDED090A60EEA00A6E
:102530004DEEAD0A4EEE0E0A4EEEAE0AB0EE600A59
:1025400002F0D8FAB0EE408A9DED090A20EE080AA2
:102550001A4880ED000A2DEE880A154880ED000A21
:102560002EEE080A134880ED000A2EEE880A124863
:1025700080ED000A13B0BDEC108B00BD58000020A8
:102580005C0000206400002068000020540000204F
:10259000600000200AD7233C2C00002030000020DF
:1025A00034000020480000204C0000205000002093
:1025B0003C000020400000204400002038000020A3
:1025C00010B504460C4800F021F8FFF717FC0B4843
:1025D00090ED000A84ED000A094890ED000A84EDB0
:1025E000010A084890ED000A84ED020A064890EDC1
:1025F000000A84ED030A10BD800900203800002085
:102600003C000020400000204400002030B585B090
:1026100004460DF1120004A9031F03AACDE900101E
:10262000891F02A800F004FCBDF8080028490880B2
:10263000BDF80A004880BDF80C008880BDF80E0087
:102640000881BDF810004881BDF81200888100257E
:102650001DE0032D0BDA02A830F9150000EE100A78
:10266000B8EEC00A04EB850080ED000A0EE002A877
:1026700030F9150000EE100AB8EEC00ADFED150AB9
:1026800080EE201A04EB850080ED001A6D1C062DEB
:10269000DFDB04F11800FFF7EBF894ED060ABDEE5E
:1026A000C00A10EE100A00B20949C88194ED070A69
:1026B000BDEEC00A10EE100A00B2088294ED080ABE
:1026C000BDEEC00A10EE100A00B2488205B030BD5F
:1026D000C00900203333034210B52DED0C8B0446A6
:1026E0008748FFF76DFF864890ED020AF8EE000A72
:1026F00020EE200AD0ED020A20EE200AD0ED030AD7
:10270000B0EE001A60EE810A90ED031A00EEC10AE5
:10271000F7EE000A30EE200A10EE101A084603F019
:10272000E9F941EC1C0B764890ED010AF0EE000A45
:1027300020EE200AD0ED020A20EE200AD0ED000A99
:10274000B0EE001A60EE810A90ED031A00EE810AE5
:1027500010EE101A084603F0CDF941EC1D0BB0EE57
:102760004C1AF0EE6C1AB0EE4D0AF0EE6D0A01F064
:102770001BFDB0EE40BAF0EE60BA51EC1B0B02F05C
:10278000B3FB41EC1A0B9FED5F0B53EC102B02F0E7
:1027900061FE41EC190B9FED5D0B53EC102B02F029
:1027A00095FC41EC180B02F0ABFB00EE100A84ED37
:1027B000000A534890ED010AF8EE000A20EE200AC4
:1027C000D0ED030A20EE200AD0ED000AB0EE001A88
:1027D00060EE810A90ED021A00EE810A10EE101AE6
:1027E000084603F087F941EC1C0BB0EE4C0AF0EE02
:1027F0006C0A01F0BDF9B0EE40BAF0EE60BA51ECEF
:102800001B0B02F071FB41EC1A0B9FED3E0B53ECDE
:10281000102B02F01FFE41EC190B9FED3C0B53EC0B
:10282000102B02F053FC41EC180B02F069FB00EE98
:10283000100A84ED010A324890ED010AF8EE000A10
:1028400020EE200AD0ED010A20EE200AD0ED020A87
:10285000B0EE001A60EE810A90ED021A00EEC10A95
:10286000F7EE000A30EE200A10EE101A084603F0C8
:1028700041F941EC1B0B224890ED020AF0EE000AF0
:1028800020EE200AD0ED030A20EE200AD0ED000A47
:10289000B0EE001A60EE810A90ED011A00EE810A96
:1028A00010EE101A084603F025F941EC1C0BB0EEAF
:1028B0004B1AF0EE6B1AB0EE4C0AF0EE6C0A01F017
:1028C00073FCB0EE40AAF0EE60AA9FED0E0B53EC45
:1028D000102B51EC1A0B02F0BDFD41EC190B9FEDD2
:1028E0000B0B53EC102B02F0F1FB41EC180B02F038
:1028F00007FB00EE100A84ED020ABDEC0C8B10BD44
:10290000A409002000000000008066400000006074
:10291000FB2109401548C089401C1449C88108465C
:102920008088401C00B288800846C088401C00B2E5
:10293000C88008460089401C00B2088108464089CA
:10294000401C00B2488108468089401C00B2888142
:1029500008460078012804D108464078401C487099
:1029600002E001200149087070470000D8000020F3
:102970002DE9F04304460D46DDE9076700200021FC
:10298000012041E0DFF8D8C13CF81080A0F1010C33
:10299000DFF8CC9129F81C8009F1160C3CF8109056
:1029A000A0F1010CDFF8B88108F1160828F81C9096
:1029B00008F1160C3CF81090A0F1010C08F1160873
:1029C00028F81C9008F1160C3CF81090A0F1010CAE
:1029D00008F1160828F81C9008F1160C3CF8109025
:1029E000A0F1010C08F1160828F81C9008F1160C4B
:1029F0003CF81090A0F1010C08F1160828F81C9082
:102A000000F1010C0CF0FF000A28BBDBDFF850C11D
:102A1000ACF81240ACF82850ACF83E20ACF854307A
:102A2000ACF86A60ACF88070002008E0DFF830C1D4
:102A30003CF910C0614400F1010C0CF0FF000A28C1
:102A4000F4DB4FF00A0C91FBFCFC0FFA8CFCDFF876
:102A50001081A8F814C0002100200AE0DFF800C1AE
:102A60000CF1160C3CF910C0614400F1010C0CF0A3
:102A7000FF000A28F2DB4FF00A0C91FBFCFC0FFA76
:102A80008CF8DFF8DCC0ACF82A80002100200AE0D6
:102A9000DFF8CCC00CF12C0C3CF910C0614400F103
:102AA000010C0CF0FF000A28F2DB4FF00A0C91FB3E
:102AB000FCFC0FFA8CF8DFF8A8C0ACF840800021CD
:102AC00000200AE0DFF898C00CF1420C3CF910C07D
:102AD000614400F1010C0CF0FF000A28F2DB4FF01A
:102AE0000A0C91FBFCFC0FFA8CF8DFF874C0ACF810
:102AF0005680002100200AE0DFF864C00CF1580C79
:102B00003CF910C0614400F1010C0CF0FF000A28F0
:102B1000F2DB4FF00A0C91FBFCFC0FFA8CF8DFF8AB
:102B200040C0ACF86C80002100200AE0DFF830C023
:102B30000CF16E0C3CF910C0614400F1010C0CF07A
:102B4000FF000A28F2DB4FF00A0C91FBFCFC0FFAA5
:102B50008CF8DFF80CC0ACF88280BDE8F083000090
:102B60001C0A002010B501221921D020FFF706F918
:102B7000FF2804D10CA0FDF789FBFF2010BD14A095
:102B8000FDF784FB0A2001F015FF01223821D02037
:102B9000FFF7F4F8FF2804D115A0FDF777FBFF201D
:102BA000ECE70020EAE7000043616E6E6F74206579
:102BB0006E61626C6520696E7465727275707420E6
:102BC0007375636365737366756C6C792E0D0A009B
:102BD0004D505536303530207365742073616D70FB
:102BE0006C65207261746520646F6E652E0A00004A
:102BF0006572726F722031490D0A000008B500201D
:102C00000090FEF745FF01236A467521D020FEF7AC
:102C100085FF40B99DF80000682809D036A0FDF76F
:102C200035FBFF2008BD37A0FDF730FBFF20F9E79B
:102C300001226B21D020FFF7A1F8FF2804D134A096
:102C4000FDF724FBFF20EDE703221A21D020FFF738
:102C500095F8FF2804D131A0FDF718FBFF20E1E72C
:102C600010221B21D020FFF789F8FF2804D12EA0C5
:102C7000FDF70CFBFF20D5E700221C21D020FFF739
:102C80007DF8FF2804D12BA0FDF700FBFF20C9E74A
:102C900002223721D020FFF771F8FF2804D128A0A5
:102CA000FDF7F4FAFF20BDE700223821D020FFF71E
:102CB00065F8FF2804D125A0FDF7E8FAFF20B1E769
:102CC00000226A21D020FFF759F8FF2804D11FA065
:102CD000FDF7DCFAFF20A5E7FEF744FDFF2804D14D
:102CE0001DA0FDF7D3FAFF209CE74FF4FA7001F026
:102CF00061FE002096E700006572726F722031411C
:102D00000D0A00006572726F722031420D0A0000D8
:102D10006572726F722031430D0A00006572726F26
:102D2000722031450D0A00006572726F72203146C3
:102D30000D0A00006572726F722031470D0A0000A3
:102D40006572726F722031480D0A00006572726FF1
:102D5000722031490D0A00006572726F7220314B8A
:102D60000D0A000010B502E0C82001F023FEFFF7B5
:102D700045FFFF28F8D010BD00B585B001218803BC
:102D800000F06EF90121084600F04AF91020039086
:102D900000208DF810008DF8120001208DF813002E
:102DA00002208DF8110003A91248FEF78BFB0421C5
:102DB000002000F0DBF91020009000208DF80400C6
:102DC0000C208DF8050001208DF806006846FEF7FE
:102DD0002FFB0A208DF8080002208DF80900002042
:102DE0008DF80A0001208DF80B0002A800F0D0F841
:102DF00005B000BD000002402DE9F04104460D463B
:102E000016461F463B46324629462046FEF786FEBA
:102E1000FF2805D103A0FDF739FAFF20BDE8F081B6
:102E20000020FBE76572726F7220314A0D0A0000C4
:102E30002DE9FC4704460D4616461F46DDE90A8982
:102E400048480078002872D00020464908700E23B8
:102E5000454A3B21D020FFF7CFFF43480E30FEF715
:102E6000C7FC414840784049097840EA012000B257
:102E70003E4908803C48C0783B49897840EA0120B7
:102E800000B23B490880384840793749097940EA1F
:102E9000012000B2374908803348407A3249097A24
:102EA00040EA012000B2344908802F48C07A2E49F8
:102EB000897A40EA012000B2304908802A48407BE4
:102EC0002949097B40EA012000B22D4908800846C3
:102ED000B0F900002949B1F90010CDE900102648E9
:102EE000B0F900302348B0F900202148B0F90010B3
:102EF0001E48B0F90000FFF73BFD2248808A208081
:102F00002048408D28801F48B0F8400030801D4880
:102F1000B0F8560038801B48B0F86C00A8F80000E4
:102F20001848B0F88200A9F8000018E0FFE715483B
:102F3000808A20801348408D28801248B0F84000D5
:102F400030801048B0F8560038800E48B0F86C0059
:102F5000A8F800000B48B0F88200A9F80000BDE80E
:102F6000FC870000B4000020080A0020A800002010
:102F7000AA000020AC000020AE000020B00000201D
:102F8000B20000201C0A002000BFFEE770470000CE
:102F900070B5002100230F22C4781CB3174C24689D
:102FA00004F4E064C4F5E064C4F30721C1F104044F
:102FB000E3B20A4144789C40E1B284781440214352
:102FC0000C07210E0E4C05786155047804F01F059E
:102FD0000124AC4005786D11AD0005F1E025C5F880
:102FE000004109E0047804F01F050124AC40054DC0
:102FF0000678761145F8264070BD00000CED00E023
:1030000000E400E080E100E002490143024A11606F
:10301000704700000000FA050CED00E0704700006A
:1030200029B1064A12680243044B1A6004E0034ABD
:1030300012688243014B1A6070470000303802402A
:1030400029B1064A12680243044B1A6004E0034A9D
:1030500012688243014B1A607047000040380240FA
:1030600029B1064A12680243044B1A6004E0034A7D
:1030700012688243014B1A607047000044380240D6
:10308000F0B5002100220024022500260223324F41
:103090003F6807F00C0121B1042905D0082937D178
:1030A00005E02E4F076036E02D4F076033E02A4FD2
:1030B0003F1F3F68C7F38056274F3F1F3F6807F009
:1030C0003F036EB1264FB7FBF3F7DFF88CC0ACF1CE
:1030D000040CDCF800C0CCF3881C07FB0CF40CE0FB
:1030E0001E4FB7FBF3F7DFF870C0ACF1040CDCF84F
:1030F00000C0CCF3881C07FB0CF4174F3F1F3F6840
:10310000C7F301477F1C7D00B4FBF5F7076002E0C1
:10311000124F076000BF00BF0F4F3F6807F0F0017C
:103120000909104F7A5C0768D74047600A4F3F682B
:1031300007F4E051890A0B4F7A5C4768D7408760F3
:10314000054F3F6807F46041490B064F7A5C4768BA
:10315000D740C760F0BD0000083802400024F400EA
:1031600000127A00C60000207047000030B500222F
:103170008B071C0F0F2303FA04F20B4B8C1053F830
:1031800024309343084C8D1044F8253023468C108E
:1031900053F824308C07240F00FA04F42343024C24
:1031A0008D1044F8253030BD083801400CB50020A2
:1031B000019000903448006840F480303249086043
:1031C00000BF3148006800F4003000900198401CB6
:1031D0000190009818B90198B0F5A04FF1D12A4894
:1031E000006800F4003010B10120009001E00020E0
:1031F00000900098012846D123484030006840F0F4
:1032000080502149403108602048006840F4404027
:103210001E4908601C48083000681B4908310860D6
:103220000846006840F4004008600846006840F422
:10323000A05008601648091F0860081F006840F089
:103240008070091F086000BF0F48006800F0007020
:103250000028F9D040F205700E4908600A4808308D
:10326000006820F00300084908310860084600683B
:1032700040F00200086000BF03480830006800F01A
:103280000C000828F8D10CBD003802400070004046
:1032900008544007003C0240042808D14FF0E021C8
:1032A000096941F004014FF0E022116107E04FF09D
:1032B000E021096921F004014FF0E022116170471B
:1032C0007FB56846FFF7DCFE4FF47A710198B0FBDA
:1032D000F1F4E4082146481EB0F1807F00D31BE0E2
:1032E000481E4FF0E022506150170F22002807DAE5
:1032F00013071E0E0B4B00F00F052D1F5E5503E04C
:1033000013071D0E084B1D5400BF00204FF0E02294
:1033100090610720106100BF6FF00400FFF7BCFF51
:103320007FBD000018ED00E000E400E010B50448A7
:103330000068401C0249086001F074FC10BD0000E8
:103340001800002010B51548006840F470001349BB
:1033500008601348006840F001001149086000202F
:103360000F49083108600E4800680E4908400C49B2
:1033700008600D48091D0860081F006820F48020BF
:10338000091F0860002006490C310860FFF70EFF96
:103390004FF0006001498039086010BD88ED00E001
:1033A00000380240FFFFF6FE103000240EB5012168
:1033B0000846FFF745FE4FF0FF3001905320ADF86F
:1033C00000000020ADF80800ADF8020001218807D8
:1033D00000F096F869464FF0804000F00DFA0121A8
:1033E000880700F09FF80EBD10B50121880700F096
:1033F000A5F838B10121880700F091F8012188076C
:1034000000F08AF810BD000030B58BB005460C46C0
:1034100001210220FFF714FE01210420FFF700FE26
:10342000022206213448FEF795F80222072132488D
:10343000FEF790F8022208212F48FEF78BF80222AF
:1034400009212D48FEF786F84FF47070099002208C
:103450008DF8280001208DF82B0003208DF829001D
:1034600009A92548FEF72EF8A8B2ADF818000020EB
:10347000ADF81A000794ADF820008DF8220006A9D7
:103480001E4800F0B9F96020ADF804000120ADF845
:1034900006000020ADF80800ADF810000820ADF8D7
:1034A00012000020ADF8140003900821134800F02A
:1034B00095F801A9114800F053F808210F4800F0D1
:1034C000E9F801A90D4800F093F808210B4800F035
:1034D0003FF901A9094800F0EBF80821074800F07E
:1034E0007DF901A9054800F03DF90121034800F0EC
:1034F00019F80BB030BD0000000802400004004085
:1035000021B1028842F08002028004E002884FF676
:103510007F731A4002807047CA4302827047CA43D1
:103520000282704721B1028842F00102028004E069
:1035300002884FF6FE731A400280704730B502468B
:10354000002000230024158A05EA0103958905EA75
:10355000010413B10CB1012000E0002030BD0000D7
:1035600070B5002400220023058C4FF6FE7635400E
:103570000584028C8388048B4FF68F752C40B51E12
:103580002C400D882C43751E2A408D892A434D8876
:103590002A43104DA84202D00F4DA84213D14FF636
:1035A000F7752A40CD892A434FF6FB752A408D884E
:1035B0002A434FF6FF652B404FF6FF552B400D8AEF
:1035C0002B434D8A2B43838004838D68456302849B
:1035D00070BD000000000140000401400A460021C7
:1035E000018B4FF6F77319401143018370470000B8
:1035F00070B5002400220023058C4FF6EF7635408D
:103600000584028C8388048B48F6FF752C404FF6A6
:10361000FF452C400D884FF6FF7606EA05252C4322
:103620004FF6DF752A408D8906EA05152A434D8835
:1036300006EA05152A43154DA84202D0144DA842AA
:103640001DD14FF67F752A40CD894FF6FF7606EAE9
:1036500005152A434FF6BF752A408D8806EA0515E1
:103660002A434FF6FF352B404FF2FF752B400D8A52
:1036700006EA85052B434D8A06EA85052B438380A0
:1036800004838D688563028470BD000000000140E2
:10369000000401400A460021018B4FF2FF731940DC
:1036A0004FF6FF7303EA02231943018370470000BA
:1036B00070B5002400220023058C4FF6FF663540CC
:1036C0000584028C8388848B4FF68F752C404FF6CF
:1036D000FC752C400D882C434FF6FF552A408D89F0
:1036E0004FF6FF7606EA05252A434D8806EA0525AA
:1036F0002A43154DA84202D0144DA8421DD14FF2C5
:10370000FF752A40CD894FF6FF7606EA05252A4344
:103710004FF6FF352A408D8806EA05252A434EF6E6
:10372000FF752B404DF6FF752B400D8A06EA0515F7
:103730002B434D8A06EA05152B43838084838D68CD
:10374000C563028470BD0000000001400004014018
:103750000A460021818B4FF6F7731940114381838C
:103760007047000070B5002200230024058C4EF63F
:10377000FF7635400584038C8488828B48F6FF757C
:103780002A404FF6FF452A400D884FF6FF7606EA9D
:1037900005252A434DF6FF752B408D8906EA053530
:1037A0002B434D8806EA05352B430A4DA84202D02B
:1037B000094DA84208D14BF6FF752C400D8A4FF6F3
:1037C000FF7606EA85152C43848082838D68056424
:1037D000038470BD00000140000401400A4600213E
:1037E000818B4FF2FF7319404FF6FF7303EA0223F8
:1037F000194381837047000000220288184B9842C9
:103800000ED0184B98420BD0B0F1804F08D0164B19
:10381000984205D0154B984202D0154B984204D1DE
:103820004FF68F731A404B881A43124B984207D0B9
:10383000114B984204D04FF6FF431A400B891A43AC
:1038400002804B68C3620B880385054B984202D007
:10385000044B984201D18B7A0386012383827047FF
:103860000000014000040140000400400008004046
:10387000000C0040001000400014004010B540F261
:1038800025511D4800F085F810B31B4800F03AF9A7
:10389000C4B21A48008800F40040C8B9174800882C
:1038A00000F4804060B10A2C03D000201349088046
:1038B00020E01248008840F400401049088019E0D8
:1038C0000D2C06D10D48008840F480400B4908803B
:1038D00010E00A480088C0F30D0009490C5407485D
:1038E0000088401C0549088008460088C72801DD7B
:1038F0000020088010BD000000100140C40000201E
:10390000EE0A002010B511480088114908700F48D0
:10391000001F0088087000210E48FDF78FFC012071
:103920000D4908700D490B48FDF76EFC00BF0948B2
:10393000FDF78FFC0028FAD14FF400710548FDF720
:1039400092FC01210348FDF779FC10BD04480040BA
:10395000BA00002028600240B6000020000C0010D1
:1039600021B1828942F40052828104E082894DF6BD
:10397000FF731A408281704702460020B1F5007F34
:1039800000D100BF13880B400BB1012000E00020E4
:10399000704770B50246002400230025002040F641
:1039A0006A16B14200D100BFC1F3421501F01F03F6
:1039B000012606FA03F3012D02D19689334006E071
:1039C000022D02D1168A334001E0968A33400C1250
:1039D000012606FA04F41688344013B10CB1012014
:1039E00000E0002070BDF0B503460024002600254D
:1039F000002040F66A17B94200D100BF1846C1F353
:103A0000421401F01F06012707FA06F5012C01D127
:103A10000C3004E0022C01D1103000E014301AB157
:103A200007682F43076002E00768AF430760F0BDF7
:103A30002DE9FF4705460E460024A14600BFA046DB
:103A4000B08900B100BF2C8A24F44054F0880443AC
:103A50002C82AC8941F20C608443B08831890843E0
:103A6000718908430443AC81AC8A24F44074B08962
:103A70000443AC826846FFF703FB2048854202D02E
:103A80001F48854202D1DDF80C9001E0DDF8089076
:103A9000A88900F4004040B109EBC90000EB09100F
:103AA00031684900B0FBF1F707E009EBC90000EB12
:103AB000091031688900B0FBF1F76420B7FBF0F022
:103AC00004012009642101FB1078A88900F400405A
:103AD00040B1322000EBC800B0FBF1F000F007006D
:103AE000044308E0322000EB08106421B0FBF1F041
:103AF00000F00F0004432C81BDE8FF870010014057
:103B00000014014001468888C0F308007047C1F3E3
:103B100008028280704700BFFEE703B401984100AD
:103B2000009850EAC12018BF04204A0D18BF40F089
:103B3000010040F2FF72B2EB515F08BF40F002009B
:103B4000012808BF052002B070474100080218BFD5
:103B500004200A0E18BF40F001004FF07F4232EA05
:103B6000010108BF40F00200012808BF052070478E
:103B700070B5C1482DED020B2DED0E8B82B0119D5D
:103B800025F000449FEDBEDB9FEDBFEB84423EDBA2
:103B9000A4F140511098A1F17F6108430FD0BC48B7
:103BA000844202DC28D1109830B39DED100B02B096
:103BB000BDEC0E8B02B0BDE8704000F0DEBD9DEDA7
:103BC000100B53EC1D2B51EC100B01F043FC9DED41
:103BD000100B41EC180B53EC1E2B51EC100B01F0A9
:103BE00039FC53EC182B01F0BDF941EC100B02B07D
:103BF000BDEC0E8B02B070BD0120FCF795FB02B04E
:103C0000BDEC0E8B02B0BDE8704000F0CDBDA14808
:103C10009FEDA18B844256DA9DED100BB4F1795FD4
:103C20000ADA51EC100BFFF778FF042808BF00F008
:103C3000CBFD9DED100BDAE753EC102B51EC100B84
:103C400001F008FC41EC190B95480621B0EE490A39
:103C5000F0EE690A784400F014FD53EC192B51EC96
:103C6000100B01F0F7FB41EC1A0B8E48B0EE490A3D
:103C7000F0EE690A0421784400F003FD53EC192B9F
:103C800051EC100B01F0E6FB53EC182B01F06AF934
:103C900041EC100B51EC1A0B53EC102B01F016FAFF
:103CA000CDE900019DED000B53EC102B9DED100BA9
:103CB00051EC100B01F0CEFB9DED101B53EC112BC2
:103CC00001F050F9D2E09DED100B51EC100B00F01B
:103CD000B3FE53EC182B01F04BFD9FED730BCDE9B8
:103CE000000153EC102B9DED000B51EC100B01F07B
:103CF000B1FB41EC190B6E480621B0EE490AF0EE1B
:103D0000690A784400F0BDFC53EC192B51EC100B00
:103D100001F0A0FB41EC1B0B6648B0EE490AF0EE47
:103D2000690A0421784400F0ACFC53EC192B51ECE7
:103D3000100B01F08FFB53EC182B01F013F941EC41
:103D40001C0B51EC190B00F035FF41EC180B5A48D5
:103D50009FED5BABA04222DC53EC1C2B51EC1B0B08
:103D600001F0B4F9CDE900019DED000B51EC180B09
:103D700053EC102B01F06EFB53EC182B01F0F2F812
:103D800053EC1A2B01F066FB53EC1D2B01F0C8FD20
:103D900053EC1E2B01F0ECFC41EC100B5FE08DEDC1
:103DA000008B002000909DED000B51EC180B53ECA4
:103DB000102B01F0D7F89DED000B41EC1E0B53ECDE
:103DC000102B51EC100B01F045FB53EC192B01F0BB
:103DD000CFFC53EC1E2B01F079F941EC190B53EC9D
:103DE0001C2B51EC1B0B01F071F941EC1B0B53EC3C
:103DF0001A2B51EC190B01F02DFB53EC1D2B01F08C
:103E0000B7FC41EC190B53EC1A2B51EC180B01F0D9
:103E100021FB53EC1B2B01F01DFB53EC192B01F084
:103E20007FFD9DED000B41EC180B53EC1A2B51EC70
:103E3000100B01F00FFB9FED249B53EC192B01F0AD
:103E400097FC41EC100B51EC180B53EC102B01F0CC
:103E500067FD53EC192B01F08BFC41EC100B002D8E
:103E60003FF7C5AE51EC100B01F03EF841EC100BE2
:103E7000BDE60000000000000000F03F0000000070
:103E8000075C143326A6913C182D4454FB21F93FBE
:103E90000000F07F0000E03F000000000000F03F65
:103EA000981F0000A61F0000000000000000E03F77
:103EB000EA1E0000F81E00003333EF3F0000000050
:103EC0000000000000000040182D4454FB21E93F91
:103ED00070B59B482DED020B2DED068B079D25F04F
:103EE0000044A04218DC9748844202DC0AD10698BC
:103EF00040B19DED060BBDEC068B02B0BDE87040F5
:103F000000F03BBC002DCCBF9FED8F0B9FED900BC5
:103F1000BDEC068B02B070BD8F48A04215DD8F4806
:103F2000A042D8BF4FF0FF3458DD9DED060B51EC99
:103F3000100BFFF7F2FD042808BF00F045FC9DEDD3
:103F4000060BBDEC068B02B070BD9DED060B51EC6F
:103F5000100B00F071FDCDE9060181489FED828BC9
:103F6000A0423CDD8248A0421FDD00249FED82ABD1
:103F70009DED060B53EC1A2B51EC100B00F0F2FFE9
:103F80009DED060B41EC190B53EC1A2B51EC100B69
:103F900001F060FA53EC182B01F0C2FC53EC192B22
:103FA00001F094F8CDE9060149E09DED060B0124EE
:103FB00053EC182B51EC100B00F0D4FF9DED060BC9
:103FC00041EC190B53EC182B51EC100B01F0A8FC31
:103FD00053EC192B01F07AF8CDE906012FE068487F
:103FE000A0421FDD02249FED689B9DED060B53EC64
:103FF000192B51EC100B01F02DFA53EC182B00F09B
:10400000B1FF9DED060B41EC180B53EC192B51EC55
:10401000100B01F085FC53EC182B01F057F8CDE99B
:1040200006010CE09DED060B032453EC102B9FEDD5
:10403000580B51EC100B01F049F8CDE906019DED4C
:10404000060B53EC102B51EC100B01F003FA41EC72
:10405000180B53EC182B01F0FDF941EC190B4E48ED
:104060000621B0EE490AF0EE690A784400F009FB37
:1040700053EC182B51EC100B01F0ECF941EC180B40
:104080004648B0EE490AF0EE690A0521784400F08E
:10409000F8FA53EC192B51EC100B01F0DBF941EC61
:1040A000100B51EC180B53EC102B002C0EDA00F017
:1040B00059FF9DED061B53EC112B01F0CBF99DED43
:1040C000061B53EC112B01F053FB35E000F04AFFC7
:1040D0009DED061B53EC112B01F0BCF941EC100BCC
:1040E0002F48784400EBC40090ED001B51EC100BFE
:1040F00053EC112B01F014FC9DED061B53EC112B1E
:1041000001F00EFC41EC100B2648784400EBC40093
:1041100090ED001B51EC100B53EC112B01F028FB20
:1041200041EC100B002DA2BFBDEC068B02B070BDA0
:1041300051EC100B00F0D8FE41EC100B01E7000031
:10414000000010440000F07F182D4454FB21F93F7B
:10415000182D4454FB21F9BF0000DC3F0000203E35
:104160000000F33F00000000000000000000F03FEE
:104170000000E63F000000000000000000000040DA
:104180000080034000000000000000000000F83F35
:10419000000000000000F0BF3A1C0000F01B00000F
:1041A0007A1B0000321B000070B56B4E2DED040B26
:1041B0002DED028B82B0DDF81CC0DDE905235C42E9
:1041C0002CF000411C4341EAD474049D22F00040CD
:1041D000B44205D86C422C4340EAD474B4420BD9A3
:1041E0009DED061B9DED040B02B0BDEC028B04B0EF
:1041F000BDE8704000F0CBBAACF14054A4F17F644C
:104200001C430BD0022404EAAC7444EAD274054384
:104210009FED538B9FED542B07D015E09DED040BC4
:1042200051EC100B00F0A0FB42E0002C11BF012C60
:104230009DED040B02B0BDEC028B04BF04B070BD59
:10424000022C38D0032C3BD00B439FED491B9FED34
:104250004A0B0AD0B14218D1B04209D121F08041B5
:1042600020F08040079105900FE0002A15DA10E059
:10427000434B7B44002C08BF93ED000B0DD0012C69
:1042800010D0022C17D0032C1AD0B0421DD1002A16
:1042900003DAB0EE410AF0EE610A02B0BDEC028B27
:1042A00004B070BD93ED000B51EC100B00F01CFE40
:1042B00041EC100BF1E7B0EE480AF0EE680AECE7CB
:1042C000B0EE420AF0EE620AE7E7401A00153C2819
:1042D000C8BF8DED000B19DCBCF1000FBEBF10F1A3
:1042E0003C0F9FED290B8DED000B0FDB9DED060BB9
:1042F00053EC102B9DED040B51EC100B00F0E6FE7F
:1043000000F09AFB00F030FBCDE90001002C08BF63
:104310009DED000BC1D0012C10D0022C9FED1C0B89
:1043200053EC102B9DED000B51EC100B0DD001F058
:10433000F7FA53EC182B01F0F3FAB9E7019880F083
:10434000004001909DED000BA7E701F0E9FA53EC66
:10435000182B01F00DFAABE70000F07F0000000021
:10436000182D4454FB210940182D4454FB2109C049
:10437000182D4454FB21F9BF182D4454FB21F93F5B
:10438000621A0000000000000000000000000000B1
:10439000075C143326A6A13C10B52DED020B2DEDC4
:1043A000088B84B09DED0C0B51EC100B01F086F9DD
:1043B00041EC180B9DED0C0B53EC182B51EC100B32
:1043C00001F0AEFA41EC190B0D989FED290B10F09E
:1043D000004F53EC102B51EC190B9FED21AB9FEDCF
:1043E00022BB0ED000F0FAFF0ED953EC1B2B51EC80
:1043F000190B01F02DF91CD214E000BF41EC180B91
:1044000017E000F0EBFF06D253EC1A2B51EC180B1F
:1044100001F086FAF2E753EC1B2B51EC190B01F07B
:1044200017F906D853EC1A2B51EC180B00F09AFD33
:10443000E4E78DED028B9DED0C0B18EE901A10EE5B
:10444000900A8DED000B61F31E0003909DED020BB1
:1044500004B0BDEC088B02B010BD000000000000ED
:10446000000000000000F03F000000000000E03FFE
:10447000000000000000E0BF00B510EE101A2DEDA6
:10448000028B81B0524A6846B2EB410F2ED94FF0F1
:10449000E640B0EB410F94BF00204FF0FF3000909A
:1044A0000098B0EE408A00286ADB10F0010F4BD074
:1044B00068EE080A9FED471A9FED470A00EE810A51
:1044C0009FED461A10F0020F00EE801AB7EE000AB8
:1044D00000EE810A02BF01B0BDEC028B00BD00BF3F
:1044E00001B0B1EE400ABDEC028B00BD3C4B21F0A7
:1044F0000042934241D911F0004FDFED3A0A20EE1D
:10450000201ADFED390A19BF31EE601A71EE200A68
:1045100031EE201A71EE600ABDEEE01A11EE100ABB
:104520009FED321A00F0030000EEC10A9FED301A31
:10453000009000EEC10A9FED2F1A00EEC10A9FED18
:104540002E1A00EEC10AABE728EE080A9FED2B1ADF
:10455000DFED2B0A10F0020F40EE410A9FED291A01
:1045600000EE201A61EE000AB0EE480A08EE200ABA
:10457000B6D101B0BDEC028B00BD00F049F98FE768
:1045800018EE100A4000B0F17F4F0DD218EE100A5D
:10459000FFF7DBFA042808BF00F032F9B0EE480A52
:1045A00001B0BDEC028B00BD09D10120FBF7BCFEC0
:1045B00001B0BDEC028B5DF804EB00F019B901B05D
:1045C000B0EE480ABDEC028B5DF804EB00F00CB9CC
:1045D000B61F927EB93AB2BACA9F2A3DDDFFFFBE2E
:1045E000490E494683F9223F0000004B0000C93FB5
:1045F00000A0FD390020A2331A61342C336D4C39F0
:10460000DA82083CA0AA2ABE00B52DED048BB0EEDC
:10461000409AF0EE609A83B051EC190B01F0B4F8B7
:1046200041EC180B18EE100A18EE901A8DED008B65
:10463000002818BF0120084320F00040C0F17F602F
:1046400000F1E040C00F14D019EE101A19EE900AD4
:104650008DED009B002918BF0121084320F0004088
:10466000C0F17F6000F1E040C00F04BF0120FBF704
:104670005BFEB0EE480A03B0F0EE680ABDEC048BB6
:1046800000BD70B504462DED028B4D1E00EBC5003C
:10469000B0EE408AF0EE608A90ED000B35F0060037
:1046A00017D053EC182B51EC100B00F0D3FE41EC5B
:1046B000100B6D1E04EBC50090ED001B51EC100BB0
:1046C00053EC112B00F04EFC41EC100B35F00600C2
:1046D000E7D1022D36D0042D1CD0062D1CBFBDEC19
:1046E000028B70BD53EC182B51EC100B00F0B2FE96
:1046F00094ED0A1B53EC112B00F034FC53EC182BF7
:1047000000F0A8FE94ED081B53EC112B00F02AFCDE
:1047100041EC100B53EC182B51EC100B00F09AFEEF
:1047200094ED061B53EC112B00F01CFC53EC182BE2
:1047300000F090FE94ED040B53EC102B00F012FCF3
:1047400041EC100B53EC182B51EC100B00F082FED7
:1047500094ED021B53EC112B00F004FC53EC182BCE
:1047600000F078FE94ED001B53EC112B00F0FAFBE7
:10477000BDEC028B41EC100B70BD10B553EC102B4F
:1047800051EC100B00F0EEFB41EC100B10BD10B51E
:1047900053EC112B51EC100B00F0E4FB41EC100B2F
:1047A00010BD0000000000009FED050B10B553EC9C
:1047B000102B51EC100B00F089FC41EC100B10BDDC
:1047C00000000000000000009FED050B10B553EC49
:1047D000102B51EC100B00F03DFE41EC100B10BD06
:1047E000000000000000001030EE000A70470000DA
:1047F000DFED020A80EEA00A704700000000000012
:104800009FED020A20EE000A704700000000001031
:104810002DE9F0014FF07F42B2EB410F9FBF4FF007
:10482000FF310160BDE8F00170474FF0004242EAFD
:104830000123C1F3C752783A551112F01F0C434CB3
:10484000CCF120067C44C1F3C752A2F178024FEAB2
:10485000621204EB820254F8254008BFD2E90156E7
:1048600012D0556804FA0CF425FA06F73C43976811
:1048700005FA0CF527FA06F8D26807FA0CFCF240A4
:1048800045EA08054CEA0206A4FB034CA5FB0352CB
:10489000A6FB03631D449D4234BF01260026131965
:1048A000334416B1934202D903E0934201D201226C
:1048B00000E00022624402F1200C9206DC0C42EA85
:1048C000443200EE102A5B03DFED210AF8EEC01A35
:1048D00000EE103A4FEA9C1C11F0004FB8EE400A6F
:1048E000C0F800C020EE201A00EE105ADFED190AC1
:1048F000B8EE400A20EE200A71EE810A70EE800ABE
:1049000010EE902A02F500626FF30B0200EE902A7F
:1049100070EEE11A31EEC11ADFED101A30EE411AD5
:104920009FED0D0A20EE800A01EE210A9FED0C1A80
:1049300000EE810A04BFBDE8F0017047CCF1805160
:104940000160BDE8F001B1EE400A70479814000024
:10495000000000360000802C22AAFD29DB0FC92FA1
:104960000000C92F00BF704710B541EC100BFFF7D6
:10497000AFFA51EC100B10BD10B504466FF00400F7
:10498000FEF78AFCE11704EB5171C1F3C701074A36
:1049900011701046007800EB4001C1EBC0104FF6DB
:1049A000FF7101EAC0000249088010BDBC00002070
:1049B000BE00002070B504464FF4077094FBF0F081
:1049C000C6B24FF4077094FBF0F100FB114085B2C2
:1049D00005E04FF4077000F009F8701EC6B2002E13
:1049E000F7D115B1284600F001F870BD0146114A13
:1049F00012884A434FF0E0235A6100229A611A4616
:104A0000126942F001021A6100BF4FF0E022106902
:104A100000F001021AB100F48032002AF5D04FF004
:104A2000E022126922F001024FF0E0231A61002215
:104A30009A617047BE00002082B0CDE9000121F0EC
:104A4000004001909DED000B02B051EC100B70473F
:104A500000BF054A128802F04002002AF9D0C2B213
:104A6000014B9A80704700000010014070B52DED99
:104A7000068B00242FE000EE104AB8EEC00ADFEDEE
:104A8000190A20EE200ADFED180A80EE201AB0EE97
:104A9000418AB0EE480AFFF7EFFCDFED140A20EE82
:104AA000200A10EE105A284601F024F841EC1A0BA7
:104AB000B0EE4A0AF0EE6A0AFFF76EFCB0EE409ADA
:104AC000F0EE609A51EC190B00F058FC00B2084966
:104AD00021F81400641CB4F5806FCCDBBDEC068BB0
:104AE00070BD0000DB0FC9400000804400FEFF469F
:104AF00080010020F0EE400AF6EE001A60EEA11AE6
:104B0000B0EE611AB0EE600A10EE100A0749A1EB90
:104B1000600000EE100A21EE002AF7EE081A42EEBD
:104B2000401A61EE801AB0EE610A7047DF59375FB4
:104B30004FF4A060FEF768FA4FF4E13000F0BCF8E3
:104B4000A820FFF719FFFEF731FCFEF70BF9FEF77F
:104B500013F9FEF707F841F28831A720FEF754FC5D
:104B60000948006809490860FEF7AAFBFCF741FB09
:104B7000012007490870FFF779FF03E000F00AF809
:104B8000FCF7EAFBFAE70000180000200000002014
:104B9000040000204FF4FA700549086040F2DC5030
:104BA000091D08604FF4FA60091D08607047000095
:104BB0003404004000B52DED048B83B041EC190B9B
:104BC00000F0E2FD41EC180B18EE100A18EE901AF6
:104BD0008DED008B002818BF0120084320F0004015
:104BE000C0F17F6000F1E040C00F14D019EE101A40
:104BF00019EE900A8DED009B002918BF0121084392
:104C000020F00040C0F17F6000F1E040C00F04BF21
:104C10000120FBF789FB51EC180B03B0BDEC048BB2
:104C200000BD000010B51F48007800B910BD1E4837
:104C3000006840F2E731884207DA1B480068401CF0
:104C400019490860FDF766FE29E000201649086052
:104C5000164800683B2805DA14480068401C1349D0
:104C600008601CE0002011490860114800683B28DA
:104C700005DA0F480068401C0D4908600FE000206D
:104C80000B4908600B480068172805DA09480068D6
:104C9000401C0849086002E000200649086000BF87
:104CA000C4E70000040000202800002024000020A9
:104CB000200000201C00002010B588B0044601210F
:104CC0000846FEF7ADF901211020FEF7C9F90722C9
:104CD00009212248FCF73EFC07220A211F48FCF765
:104CE00039FC4FF4C060069002208DF81C008DF84E
:104CF0001D0000208DF81E0001208DF81F0006A960
:104D00001648FCF7DFFB02940020ADF80C00ADF86C
:104D10000E00ADF81000ADF814000C20ADF8120034
:104D200002A90F48FEF784FE01210D48FEF718FE88
:104D3000012240F225510A48FEF755FE25208DF844
:104D4000040003208DF805008DF8060001208DF881
:104D5000070001A8FEF71CF908B010BD00000240D2
:104D600000100140F0B589B006460F4615461C2DCF
:104D700001DD09B0F0BD002101AAE81C1154882012
:104D80008DF804008DF805608DF80650002405E0CC
:104D9000395DE01C01AA1154601CC4B2AC42F7DBBF
:104DA00000240AE001A9E81C085C095D0844C1B2BE
:104DB00001AAE81C1154601CC4B2E81C8442F1DB57
:104DC000002405E001A9085D00F068F8601CC4B289
:104DD000281D8442F6DB00BFCBE72DE9F04F87B0FA
:104DE00004460D4616461F46DDE911ABDDF840903E
:104DF0004FF0000806E000200DF8080008F101005F
:104E000000F0FF08B8F11C0FF5DB200A8DF8000058
:104E1000E0B28DF80100280A8DF80200E8B28DF8A2
:104E20000300300A8DF80400F0B28DF80500380A4E
:104E30008DF80600F8B28DF807004FEA19208DF8BA
:104E4000080009F0FF008DF809004FEA1A208DF8DC
:104E50000A000AF0FF008DF80B004FEA1B208DF8C6
:104E600012000BF0FF008DF813001398000A8DF864
:104E700014001398C0B28DF815001498000A8DF82C
:104E800016001498C0B28DF817001C226946AF2096
:104E9000FFF768FF07B0BDE8F08F000010B50446CB
:104EA00000BF40210448FEF767FD0028F9D02146E5
:104EB0000148FEF72CFE10BD0010014010B500297E
:104EC0000AD00878002807D005487844FBF794FDFD
:104ED000002801D0002010BD0248784410BD000019
:104EE000EA0E0000E20E000081F00041704780F001
:104EF0000040704721F00041704720F000407047AB
:104F000021F00042A2F16052B2F5801F01F000438F
:104F100028BFD2F17F6C0BD95FEA001C43EAC202C2
:104F200042EB507018BF704728BF20F00100704757
:104F3000B2F5801FBCBF184670474FEA410C1CF504
:104F4000001F02D2084600F04BBE70B500F02CFBEB
:104F500000000089FFF7F6BF4FF00040A0F5800089
:104F60007047000010B591EA030F48BF83F000437B
:104F700000F1DE84841A71EB030C05D2121943EBA5
:104F80000C03001B61EB0C01DFF824E14FEA115424
:104F9000A4EB135C1EEA430F18BF9EEA445F73D074
:104FA00023EA0E03DCF1200E21EA045143F48013BE
:104FB00032D322FA0CFE10EB0E0023FA0CFE41EB6A
:104FC0000E01CCF1200E03FA0EFE10EB0E0051F193
:104FD0000001B1F5801FCCF1200E32D201EB04515B
:104FE00012FA0EF2BDE8104058BF7047401C38BF9F
:104FF0005FEA420218BF7047002814BF20F001008A
:1050000041F100014FEA410313F5001F38BF70471B
:10501000A1F1C04100F016BB012A43EB0302ACF141
:10502000200CDCF11F0E32BF4FF0000E23FA0CF300
:1050300010EB030041EB0451B4EB115FD0D0A1EBB6
:10504000045101F5801149085FEA300001EB045179
:105050000ED350F1000038BF12FA0EFE08D1BDE8A1
:105060001040C9E7401C38BF5FEA4202CAD1C3E71B
:10507000BDE810404FEA410313F5001F38BF7047E9
:10508000A1F1C04100F0DEBA9EEA445F08D011EA07
:105090005E0FBDE8104004BF01F0004100207047E2
:1050A000BDE8104070B500F07FFA00BF64FBBE3E63
:1050B0000000E0FF491058BFC1F140415B1058BFEC
:1050C000C3F140438B42EFF3008070472DE9C041AC
:1050D00030B4DFF8A0C23CEA111418BF3CEA131444
:1050E00000F0EC8081EA03051CEA111444EAD5744F
:1050F00018BF1CEA131500F0C780A4EB05044FF09D
:10510000004545EAC12145EAC32341EA505143EA3B
:10511000525304F17F74994204F500344FEAC020E1
:105120004FEAC22208BF904200F09C804FEA13650C
:105130000FF24016765D4FEA134506FB05F7C7F1FF
:10514000807706FB07F74FEAD737A7FB036876425D
:10515000C8F58038A7FB06CE38BFA8F1010807FBC9
:1051600008E64FF0000EA6FB028CE6FB03CEDCF156
:10517000000CCEF1004E38BFAEF1010EA6FB0C586C
:105180004FF000074FF00005E6FB0E87A1FB08C6B5
:10519000A0FB07CE16EB0E0645F10005E1FB076507
:1051A00015F1E04E7EBFA4F580345FEA46066D41FE
:1051B00016F1800745F100054FEA17274FEA06660A
:1051C00047EA0567A6F1DE46B6F1805F4FEA15258E
:1051D0001FD9384624F0010C05EBC471BCF1FE6FF9
:1051E00001EB0C1102D8F0BCBDE8008124425CBF89
:1051F00001F5801E9EEAC47F02D4F0BCBDE80081A8
:10520000244238D4F0BCA1F1C041BDE8004100F017
:1052100019BA4FEAD22242EA43524FEAD323A7FBFC
:1052200002864FEAD02040EA415007FB03661EEA9F
:105230000E0F4FEAD12105FB026658BFA6EB0056C0
:10524000B6EB00564FEA520E4EEAC37E18EB0E0E36
:1052500056EB530EBDD518EB02085E417F1C55F18D
:105260000005B6E74FF480154FF000074FF0000639
:105270004FF00008ADE7F0BC4FF0000001F1C04175
:1052800001F00041BDE8008111EA0C1F0CEA131582
:1052900000D00CE013EA0C1F00F025804FF0000056
:1052A000F0BC81EA030101F00041BDE80081F0BCDF
:1052B000BDE8004181EA030100F0C4B9F0BCBDE8DB
:1052C000004170B500F070F9097EFC3E00F007B8AF
:1052D00081EA03014FF0000001F00041704781EACC
:1052E000030100F0AFB9F0BCBDE800414FF0000091
:1052F00021497047FFFDFBF9F7F5F4F2F0EEEDEB15
:10530000E9E8E6E4E3E1E0DEDDDBDAD8D7D5D4D3C3
:10531000D1D0CFCDCCCBCAC8C7C6C5C4C2C1C0BF0F
:10532000BEBDBCBBBAB9B8B7B6B5B4B3B2B1B0AF15
:10533000AEADACABAAA9A8A8A7A6A5A4A3A3A2A1F9
:10534000A09F9F9E9D9C9C9B9A99999897979695B4
:1053500095949393929191908F8F8E8E8D8C8C8B50
:105360008B8A8989888887878685858484838382D8
:10537000828181800000FF070000F87F4FEA41032F
:105380004FEA5353A3F58063D3F11E03C8BFD3F193
:10539000210C0CDD4FF0004242EAC12242EA505299
:1053A00032FA03FC8CEAE17CACEBE1707047102B25
:1053B000C4BF0020704703F5787CBCF1FF3F04D0E8
:1053C0006FF0004282EA2100704770B500F0ECF8FF
:1053D0004992248000207047F2E7000051EA030C54
:1053E00017D41CF5801F58BFBCF5801F00F1068044
:1053F000994218BF704708BF9042704707D711F510
:10540000801F58BF13F5801F19D4994270478942F5
:1054100070471CF5801F08D5BCF5801FF7D58B425F
:1054200018BF704708BF824270474FF4001C1CEB46
:10543000410F38BF1CEB430F01D28B42704770B550
:1054400000F0B2F8922449004FF000514FF0805321
:10545000FFF730BEDFF848C170B51CEA111E1EBF51
:105460001CEA13159EEA0C0F95EA0C0F00F06F80F2
:1054700081EA030423EA4C134EEAD47E21EA4C115C
:1054800041F4801143F48013AE44A1FB024CA0FB15
:105490000365AEF17F7E361955EB0C05A1FB034C7D
:1054A0004CF10003A0FB021C16EB0C06654153F106
:1054B0000003094218BF46F0010613F4007F0BD128
:1054C0004FEA03314FEA0530340341EA155140EA0F
:1054D00016506FF003020AE04FEAC3214FEAC520DD
:1054E000F40241EA555140EA56506FF0020202EBD5
:1054F0002E4201EB025585EACE710AD05FEA440CD8
:1055000018BF24F0004450F1000041F1000120EAEE
:10551000D47040F2FE7C624500D270BDA84214BF38
:105520004FF080444FF04044002E08BF0024BEF1ED
:10553000806FA8BFA1F1C041BDE8704080F28280B9
:105540004FF0000001F1C04101F0004170479EEAB8
:105550000C0F0CEA131518BF95EA0C0F06D04FF08C
:10556000000081EA030E0EF0004170BD00F01CF84F
:105570008900013E00F007B800F009B84FEA430C7B
:105580005FEA5C5C08D081EA030100F05BB84FEA97
:10559000410C5FEA5C5CF6D14FF0000001497047B6
:1055A0000000FF070000F87F0EF1020E2EF0030E40
:1055B0005EF8046B364205D4012A43EB030515F56A
:1055C000001F12D8012841EB010C1CF5001F0CD85C
:1055D0000ED14FEAD17C15F5001F0CEB4C0C0CF1F1
:1055E000020C08BF4CEBD37C04E04FF0080C01E048
:1055F0004FEAD37C0CEB4C0526FA05F606F00706BD
:10560000B6F1040C06D20EEB860CBDE870404CF0EF
:10561000010C6047DFE80CF0090B02024FF000417B
:105620004FF00000A1F5002170BD19461046012879
:1056300051EB010418BFD4F5001484BF002001F021
:10564000004170BD0808A0F500114FEA3101704714
:1056500053EA010C17D41CF5801F58BFBCF5801FFE
:1056600000F106808B4218BF704708BF8242704726
:1056700007D713F5801F58BF11F5801F19D48B422F
:1056800070479B4270471CF5801F08D5BCF5801FF2
:10569000F7D5994218BF704708BF904270474FF442
:1056A000001C1CEB430F38BF1CEB410F01D2994289
:1056B00070470FB40CBC03BCFFF7C1BE5FEA410CDE
:1056C0005FEA5C5CACF580635B1C39D4D3F13402D7
:1056D00040F34580B2F1200314DA4FF0010C0CFACC
:1056E00002FCACF101030340B3EB5C0220EA0300CF
:1056F00008BF10EA0C0F98BF704710EB0C0041F187
:10570000000170470AD0C3F1200201FA02FC01280F
:1057100021FA03F101FA03F14CF100004FF0010C02
:105720000CFA03FCACF10103B0F1004F21EA0301D4
:1057300008BF11EA0C0F4FF0000088BF61447047AA
:10574000B3F1FF3F28BF50EAC12C01F000414FF0F8
:10575000000084BF41F07C5141F470017047B3F503
:10576000806FB8BF704770B5FFF71EFF40DBB6BE55
:1057700091EA030F10B581F000413FF5FBAB83F0D8
:10578000004300F0D5B800002DE9F04101F5801C80
:10579000BCF5001FC0F2A9804FEA115C21EA0C5150
:1057A0000CF1FD0C41F480115FEA5C0C0CF5C07C3F
:1057B00001D34000494130A4890241EA9051870257
:1057C0008E0E0A0CA45D04FB04F602FB06F6C6F17D
:1057D0004046A4FB0662F60D46EA422606FB06F4A6
:1057E000A4FB01235242C3F1404338BF5B1EA6FB1A
:1057F00002420024E6FB0324D20B42EA4446A6FB05
:105800000623A1FB02E2A3FB07E4E3FB614264423F
:10581000C2F1404E38BFAEF1010EA6FB04234FF09B
:105820000002E6FB0E32A2FB03463400E2FB626498
:10583000A1FB06E6A4FB07E8E4FB61687642C8F139
:10584000405838BFA8F10108A2FB06E4A3FB08E515
:10585000E2FB6854A1FB05E6A7FB04E8E1FB6486D4
:1058600018F1200556F10006A809A8F11B08B10996
:1058700008F03F08B8F10A0F40EA86601CD901EB36
:105880000C51BDE8F08100BFFCF5EEE8E2DDD8D3B5
:10589000CFCBC7C3C0BDB9B6B4B1AEACA9A7A5A3A1
:1058A000A19F9D9B9A9896959392908F8D8C8B89B2
:1058B0008887868584838281A0FB006800FB01F2D3
:1058C00008EB4208B8EB872807D5341858EB0104D9
:1058D000D5D5401C51F10001D1E7341A78EB010411
:1058E000CDD4401E71F10001C9E75FEA4C0C5FEABC
:1058F0009C5C0DD105D34FF0000001F00041BDE8E4
:10590000F081BDE8F04170B5FFF74EFE6DDBFFBEE4
:10591000BDE8F0414FF00000004970470000F87FFB
:1059200010B591EA030F48BF83F000433FF522AB67
:10593000841A71EB030C07D212198CF0004C43EB64
:105940000C03001B61EB0C01DFF8A4E14FEA1154DA
:10595000A4EB135C1EEA430F18BF9EEA445F00F0FD
:10596000B08023EA6E03524221EA0451C3EB6E0376
:1059700038BF5B1EDCF1200E25D322FA0CFE10EBA3
:105980000E0043FA0CFE41EB0E01CCF1200E03FA9F
:105990000EFE10EB0E0051F10001CCF1200E29D4C7
:1059A00012FA0EF201EB0451BDE8104058BF7047E7
:1059B000401C1CBFB2F1004F704700280CBF491CAF
:1059C00020F00100704712EB020E43EB030218BFF8
:1059D0004FF0010E4EEA4202ACF1200CDCF11E0E3B
:1059E00054D943FA0CFE10EB0E0051F1FF31CCF10B
:1059F0001E0ED5D50EF1010E12FA0EFE404141EBFE
:105A0000010101EB445C5FEA5C5C10D910EBDE70D5
:105A100001EB045138BFBEF1004FBDE8104018BF84
:105A2000704700280CBF491C20F00100704730D29D
:105A30004FEAD42C11F5001124F400641BD0B1FA04
:105A400081F20B3AA41AA41ED2F12003914030FA3D
:105A500003F31943904001EBCC71002C01EB04518E
:105A6000BDE81040A8BF704701F1C0414FF00000F1
:105A700001F000417047B0FA80F310FA03F100D151
:105A800010BDE41A173C4805C90AE4E701EB0451CC
:105A900010BD491001EB0451BDE810404FEA300041
:105AA00002E04FF0000170474A0008BF0042F8D002
:105AB000B2F5001F28BF704701F000414FF0000011
:105AC00070479EEA445F07D011EA5E0FBDE81040C0
:105AD00004BF002100207047BDE8104070B5FFF7FB
