:020000040800F2
:10000000703400206D0200086D2A0008FD11000800
:10001000152900084907000897380008000000006B
:10002000000000000000000000000000592C000843
:100030007308000800000000FD2A000805300008D1
:10004000870200088702000887020008870200086C
:10005000870200088702000887020008870200085C
:100060008702000887020008B90900088702000813
:10007000870200088702000887020008870200083C
:10008000870200088702000887020008870200082C
:10009000870200088702000887020008870200081C
:1000A000870200088702000887020008870200080C
:1000B000C130000887020008870200088702000894
:1000C00087020008870200088702000887020008EC
:1000D00087020008C935000887020008A536000815
:1000E00087020008870200088702000887020008CC
:1000F000D93100088702000887020008870200083B
:1001000087020008870200088702000887020008AB
:10011000870200088702000887020008870200089B
:10012000870200088702000887020008870200088B
:10013000870200088702000887020008870200087B
:10014000870200088702000887020008870200086B
:10015000870200088702000887020008870200085B
:10016000870200088702000887020008870200084B
:10017000870200088702000887020008870200083B
:10018000870200088702000800F002F800F05EF81D
:100190000AA090E8000C82448344AAF10107DA45E2
:1001A00001D100F053F8AFF2090EBAE80F0013F0D6
:1001B000010F18BFFB1A43F001031847C46B00007E
:1001C000E46B00000A444FF0000C10F8013B13F000
:1001D000070408BF10F8014B1D1108BF10F8015BA0
:1001E000641E05D010F8016B641E01F8016BF9D193
:1001F00013F0080F1EBF10F8014BAD1C0C1B09D1EA
:100200006D1E58BF01F801CBFAD505E014F8016B5B
:1002100001F8016B6D1EF9D59142D6D370470000ED
:100220000023002400250026103A28BF78C1FBD8FF
:10023000520728BF30C148BF0B607047002070478D
:100240001FB506F0CCFB1FBD10B510BD00F02CF99A
:100250001146FFF7F5FF05F077FB00F04AF903B40C
:10026000FFF7F2FF03BC05F057FA0000094880478A
:1002700009480047FEE7FEE7FEE7FEE7FEE7FEE788
:10028000FEE7FEE7FEE7FEE704480549054A064BA0
:10029000704700001D30000889010008702E002002
:1002A0007034002070300020703000207047000053
:1002B000004870470C2E00200FB4044910B503AA63
:1002C000029800F0C3F810BC5DF814FB2401002074
:1002D0002DE9F0410E460446002020622046E168E8
:1002E000884730B3252805D0D4E901219047206AFA
:1002F000401CF2E7E168204600278847050018D037
:10030000A5F14100192802D820354FF40067324684
:10031000294620462760FFF791FF40B1012804D00D
:10032000F61D26F007060836D8E7361DD6E728461C
:10033000DAE7206ABDE8F081032A40F2308010F04D
:10034000030C00F0158011F8013BBCF1020F624470
:1003500098BF11F801CB00F8013B38BF11F8013B01
:10036000A2F1040298BF00F801CB38BF00F8013BAE
:1003700011F0030300F02580083AC0F0088051F81E
:10038000043B083A51F804CBA0E80810F5E7121D29
:100390005CBF51F8043B40F8043BAFF30080D20748
:1003A00024BF11F8013B11F801CB48BF11F8012B14
:1003B00024BF00F8013B00F801CB48BF00F8012B37
:1003C000704710B5203AC0F00B80B1E81850203AC1
:1003D000A0E81850B1E81850A0E81850BFF4F5AFE5
:1003E0005FEA027C24BFB1E81850A0E8185044BF6F
:1003F00018C918C0BDE810405FEA827C24BF51F8DC
:10040000043B40F8043B08BF7047D20728BF31F8CF
:10041000023B48BF11F8012B28BF20F8023B48BF20
:1004200000F8012B704770477047704700487047CD
:100430000C2E0020704710B5FFF73AFF006810BD82
:1004400010B50446FFF734FF046010BD074B70B5CC
:100450000D467B4400F011F80446284600F020F8D1
:1004600010B14FF0FF3070BD204670BD9B540000AE
:1004700001694A1C02610878704700B58FB0CDE968
:1004800001310021059105497944CDE90310114658
:100490006846FFF71DFF0FB000BD0000E5FFFFFF3E
:1004A000007B00F0800070477546FFF7BFFFAE4647
:1004B00005006946534620F00700854618B020B570
:1004C000FFF7E2FEBDE820404FF000064FF00007C6
:1004D0004FF000084FF0000B21F00701AC46ACE8EC
:1004E000C009ACE8C009ACE8C009ACE8C0098D4659
:1004F000704710B50446AFF300802046BDE81040B9
:10050000FFF7ADBE00B59BB06C2232496846FFF7DD
:1005100058FF9DF800005A2808D101202E49087084
:100520006A2269462D48FFF707FF07E000202A49A5
:1005300008702A49C1F801005A200870274890F82D
:1005400036005A281DD00021244880F8361000209B
:100550002249888400212148C1840185B7EE000A20
:1005600010EE100A1D49C1F82A00B7EE000A10EE7D
:10057000100AC1F82E00B7EE000A10EE100AC1F8FA
:100580003200164890F849005A2820D0002113481C
:1005900080F8491000201149A1F8370000210F48C8
:1005A000A0F83910A0F83B10B7EE000A10EE100AC0
:1005B0000A49C1F83D00B7EE000A10EE100AC1F872
:1005C0004100B7EE000A10EE100AC1F845001BB05A
:1005D00000BD000000000E08180100208E2C002035
:1005E00010B501246A220349034800F057F8044675
:1005F000204610BD8E2C002000000E0801461C482D
:10060000814201D2002070471A48814201D208205D
:10061000F9E71948814201D21020F4E717488142D6
:1006200001D21820EFE71648814201D22020EAE7E4
:100630001448814201D22820E5E71348814201D2C3
:100640003020E0E71148814201D23820DBE7104832
:10065000814201D24020D6E70E48814201D2482093
:10066000D1E70D48814201D25020CCE75820CAE79B
:10067000004000080080000800C0000800000108D9
:100680000000020800000408000006080000080836
:1006900000000A0800000C0800000E082DE9FC5FAD
:1006A00004460D4690464FF00909012001900026AE
:1006B0004FF0000A00274FF0000B00200090B4F12B
:1006C000006F01D2BDE8FC9F00F094FA002000F01A
:1006D000E1F9264604EB080A3046FFF78FFF834610
:1006E0005046FFF78BFF00901648864211D25F46B6
:1006F0000BE00221384600F0DFF98146B9F1090F1D
:1007000002D00020019003E0083700988742F0D91A
:1007100000BFB9F1090F0ED10AE02978204600F098
:1007200043FA092802D00020019003E0641C6D1CEC
:100730005445F2D300BF012000F0ACF900F02AFAD2
:100740000198BFE70000FF1F00BFFEE710B51020B3
:1007500001F0E8FC60B102F0C1F80446002C44D07E
:10076000012C42D0022C40D1102002F06DFA3CE066
:10077000202001F0D7FC88B102F01AF80446A4B397
:10078000012C32D0022C30D1184802F0A3FA1848BC
:1007900002F084FA202002F057FA26E04FF480504D
:1007A00001F0C0FC58B105F091F90446ECB1012C00
:1007B0001BD0022C19D1C00202F046FA15E04FF40A
:1007C000005001F0AFFC80B105F0EAF8044664B1D6
:1007D000012C0AD0022C08D1064805F093F90448F0
:1007E00002F05CFA200302F02FFA10BDF82C002072
:1007F0008E2C00201E2D002010B5002404E0204681
:1008000000F02AFB601CC4B2052CF8DB10BD000010
:100810000246094B9A4201D2084801E006481038C6
:1008200001F000531BB1064B0B40C36002E0044BC8
:100830000B4083607047000010640240006002407B
:100840007D0F7D0F21B1026842F00102026003E0DA
:10085000026822F0010202607047014600200A6827
:1008600002F001020AB1012000E00020704741605F
:1008700070477047704770477047000010B52DED06
:10088000088B01201E49087000F050FA1D4801F045
:100890002BFB1D49B1F9100005F0D3FC41EC1B0BFB
:1008A0009FED1A1BB0EE4B0AF0EE6B0A03F024FC2E
:1008B000B0EE409AF0EE609A1349B1F90E0005F0DF
:1008C000C0FC41EC1B0B9FED111BB0EE4B0AF0EE90
:1008D0006B0A03F011FCB0EE40AAF0EE60AA53ECF4
:1008E000192B51EC1A0B05F03BFA41EC180B05F0F3
:1008F00005FA08490860FFF729FFBDEC088B10BD19
:1009000010010020182A0020242A002000000000E6
:100910000000004048000020704710B5F021002082
:1009200001F0FAFF10BD000010B520480078012842
:100930003BD11F48008800B21E490880FFF79BFF8B
:100940001A48B0F90400022804DB00201749888007
:10095000FFF794FF1548B0F90600052804DB0020D6
:100960001249C880FFF7D9FF1048B0F908000A28DB
:1009700004DB00200D490881FFF77CFF0B48B0F92C
:100980000A00142804DB002008494881FFF774FF9F
:100990000648B0F90C00322804DB002003498881A6
:1009A000FFF7BAFF00200149087010BD3C1100207C
:1009B0005C0000203E00002010B5102000F014F86C
:1009C00028B1102000F004F8102000F007F810BD46
:1009D0000149086070470000143C0140014908606B
:1009E00070470000143C014001460020034A126891
:1009F0000A400AB1012000E000207047143C014089
:100A0000002123498279002A3AD00A4612680368F5
:100A10009A430B461A600A1D126803689A430B1D1D
:100A20001A60027911440A6803681A430A60184A76
:100A30000832126803689A43154B08331A601A1D6E
:100A4000126803689A43124B0C331A604279102AD9
:100A50000ED11A1F126803681A430D4B08331A602F
:100A60001A1D126803681A43094B0C331A600DE013
:100A70000749427911440A6803681A430A6005E08D
:100A8000027911440A6803689A430A6070470000BB
:100A9000003C014030B10749096841F48061054AD2
:100AA000116005E00349096821F48061014A116081
:100AB00070470000003C024070B504460A4600261C
:100AC000092502B909E0012A01D1160205E0022A2E
:100AD00001D1160201E04FF4407600F09DF8054682
:100AE000092D28D11548006820F44070134908608A
:100AF00008460068304308600846006820F0F800A7
:100B000008600846006844F0020108430B49086089
:100B10000846006840F48030086000F07DF8054623
:100B20000648006820F00200044908600846006892
:100B300020F0F8000860284670BD0000103C02401C
:100B400009201349096801F48031B1F5803F01D1D2
:100B500001201CE00E49096801F0100109B10620CE
:100B600015E00B49096801F4807109B102200EE01B
:100B70000749096801F0EF0109B1072007E00449BE
:100B8000096801F0020109B1082000E0092070475E
:100B90000C3C02400348006840F0004001490860F6
:100BA00070470000103C024030B502460C46092553
:100BB00000F032F80546092D17D10D48006820F4E1
:100BC00040700B49086008460068086008460068E5
:100BD00040F001000860147000F01EF8054604485B
:100BE000006820F0010002490860284630BD00007E
:100BF000103C02400548006800F0004028B104485D
:100C000002490C390860034808607047103C0240F4
:100C100023016745AB89EFCD08B509200090FFF7A8
:100C20008FFF009002E0FFF78BFF00909DF800001F
:100C30000128F8D09DF8000008BDF0B50A46002153
:100C40000023002400BF3DE0012505FA01F31568EB
:100C500005EA03049C4234D105684F000326BE40D8
:100C6000B543056015794E00B5400668354305600B
:100C70001579012D02D01579022D16D185684F0006
:100C80000326BE40B543856055794E00B540866861
:100C900035438560456801268E40B543456045680B
:100CA00096798E40B6B235434560C5684F0003263D
:100CB000BE40B543C560D5794E00B540C6683543E2
:100CC000C560491C1029BFD3F0BDF0B50023002436
:100CD0004D07ED0E02FA05F3CE1000F1200555F890
:100CE00026504E07F70E0F26BE40B543CF1000F139
:100CF000200646F82750CE1000F1200555F8265062
:100D000045EA0304CE1000F1200545F82640F0BD69
:100D10000246002013690B400BB1012000E00020C7
:100D2000704741837047018370470000324890ED5F
:100D3000030A324880ED040A2F4890ED040AB1EE10
:100D4000400A2E4880ED050A2B4890ED050A2B48F5
:100D500080ED060A2A4890ED000A2A4880ED000A34
:100D6000294890ED000A264880ED000A90ED000A1F
:100D70002448D0ED000A30EE600ADFED240AB4EE1C
:100D8000E00AF1EE10FA05DB21480068401E204918
:100D9000086013E01A4890ED000A1A48D0ED000AE6
:100DA00030EE600ADFED1B0AB4EEE00AF1EE10FA55
:100DB00004D817480068401C1549086014480068AA
:100DC0004FF4B471484300EE100AB8EEC00A0C4864
:100DD000D0ED000A30EE200A0F4880ED000A0A48E4
:100DE00090ED010A0D4880ED000A074890ED020AD7
:100DF0000B4880ED000A7047E42900204C2A0020AF
:100E0000CC000020D8000020182A00200000A543B4
:100E1000F40000200000A5C3E4000020E80000204A
:100E2000EC0000200B4A11684FF0E02252694FF0AD
:100E3000E0239B69D21A4FF47A735A434FF0E023B0
:100E40005B69B2FBF3F201EB4103C3EBC11302EBAD
:100E5000C30070474C00002010B5044604EB44006A
:100E60001B4901EB800090ED000A04EB440001EB0C
:100E7000800080ED010AFFF7D5FF00EE100AB8EE02
:100E8000400A04EB4400124901EB800080ED000AA7
:100E900004EB440001EB800090ED000A04EB4400F9
:100EA00001EB8000D0ED010A30EE600A04EB440053
:100EB00001EB800080ED020A04EB440001EB8000AE
:100EC00090ED020ABCEEC00A10EE100A10BD000040
:100ED000601100204FF08040406A704708B5002044
:100EE000009001236A460A213C2001F099FB40B999
:100EF0009DF80000482809D015A0FFF7DDF9FF2074
:100F000008BD16A0FFF7D8F9FF20F9E770220021ED
:100F10003C2000F01DFB052004F094FCA0220121E0
:100F20003C2000F015FB052004F08CFC002202217F
:100F30003C2000F00DFB062004F084FC1822002168
:100F40003C2000F005FB062004F07CFC0020D7E7E5
:100F50006572726F722032410D0A00006572726F05
:100F6000722032420D0A000010B5044606232246C4
:100F700003213C2001F054FB10BD00002DE9F0419D
:100F800004460D4616461648FFF7EEFF144B0E3B7F
:100F90005B7C134F0E3F3F7C43EA07231AB2104B92
:100FA0000E3BDB7B0E4F0E3FBF7B43EA07235B42CA
:100FB00019B20B4B0E3BDB7C094F0E3FBF7C43EA63
:100FC000072318B200F06EF80648808A2080054892
:100FD000408D28800348B0F840003080BDE8F081A3
:100FE000B62A0020402B00203EB504466A4601A9DF
:100FF00002A8FFF7C3FFBDF9080025490860BDF945
:1010000004004860BDF9000088602248B0F9000083
:10101000BDF90810081A00EE100AF8EEC00A1D48C3
:10102000D0F8060000EE100A20EE800A1A4880ED83
:10103000000A84ED000A1748B0F90200BDF9041057
:10104000081A00EE100AF8EEC00A1248D0F80A009A
:1010500000EE100A20EE800A104880ED000A84EDB0
:10106000010A0C48B0F90400BDF90010081A00EE9E
:10107000100AF8EEC00A0748D0F80E0000EE100A79
:1010800020EE800A064880ED000A84ED020A3EBD8B
:10109000902B00200B2D0020F8000020FC000020E9
:1010A00000010020F0B503460C460020002101207D
:1010B00019E0504D35F81060451E4E4F27F8156069
:1010C00007F1160535F81070451E4A4E163626F8FB
:1010D000157006F1160535F81070451E163626F8FF
:1010E0001570451CE8B20A28E3DB424D6B822C8563
:1010F000EA87002005E03F4D35F910502944451C92
:10110000E8B20A28F7DB0A2591FBF5F52DB2394E36
:10111000B5820021002006E0364D163535F9105015
:101120002944451CE8B20A28F6DB0A2591FBF5F5AF
:101130002EB2304D6E850021002006E02D4D2C355D
:1011400035F910502944451CE8B20A28F6DB0A2577
:1011500091FBF5F52EB2274DA5F84060264DB5F967
:101160000650244EB6F91460B54203DD214DAD8A18
:10117000214EF580204DB5F908601E4DB5F92A5075
:10118000AE4203DD1B4D6D8D1B4E35811A4DB5F9F9
:101190000A60184DB5F94050AE4204DD154DB5F862
:1011A0004050154E7581144DB5F90050114EB6F9E9
:1011B0001460B54203DA0F4DAD8A0F4E35800E4DE7
:1011C000B5F902600B4DB5F92A50AE4203DA094D6C
:1011D0006D8D094E7580084DB5F90460054DB5F962
:1011E0004050AE4204DA034DB5F84050024EB5808F
:1011F000F0BD0000402B0020822B002000BFFEE746
:1012000010B5044600F0E6F82CB14FF400710D481B
:10121000FFF789FD04E04FF400710A48FFF781FDF4
:101220004FF480710748FFF77EFD012000F00CF8B5
:101230004FF480710348FFF774FD012000F004F8BB
:1012400010BD00000004024010B5002106E0062297
:1012500000BF131EA2F10102FBD1491C8142F6D34B
:1012600010BD00001CB50121022001F049FC4FF423
:101270004070009001208DF8040000208DF80600D9
:1012800003208DF8050069460148FFF7D6FC1CBD18
:101290000004024070B5002400F086F800251BE031
:1012A0004FF480711148FFF73CFD0120FFF7CCFFA0
:1012B0004FF480710D48FFF736FD6006040E4FF4C1
:1012C00000710A48FFF724FD08B1601CC4B2012078
:1012D000FFF7BAFF681CC5B2082DE1DB4FF480713F
:1012E0000248FFF71EFD204670BD000000040240CA
:1012F0002DE9F04106460F461446984600F07EF868
:10130000304600F0F3F800F0B9F8FF2805D11DA031
:10131000FEF7D2FFFF20BDE8F081384600F0E6F886
:1013200000F0ACF8FF2804D119A0FEF7C5FFFF209C
:10133000F1E700F063F8711CC8B200F0D7F800F0D4
:101340009DF8FF2804D115A0FEF7B6FFFF20E2E7C5
:10135000002508E0FFF79EFF20700020FFF750FFF8
:10136000641C681CC5B2A8F10100A842F2DCFFF7BA
:1013700091FF20700120FFF743FF00F05FF800208D
:10138000C9E700006572726F722032460D0A0000D4
:101390006572726F722032470D0A00006572726FBB
:1013A000722032480D0A00001CB54FF40070009006
:1013B00000208DF804008DF806008DF8070002204B
:1013C0008DF8050069460248FFF737FC1CBD000098
:1013D000000402401CB54FF40070009001208DF80D
:1013E00004008DF8060003208DF8050069460248C8
:1013F000FFF723FC1CBD00000004024010B5FFF7FE
:10140000E9FF4FF400710C48FFF78DFC4FF4807139
:101410000948FFF788FC0120FFF716FF4FF4007121
:101420000548FFF77EFC0120FFF70EFF4FF48071A7
:101430000148FFF776FC10BD0004024010B5FFF72D
:10144000C9FF4FF480710C48FFF76BFC4FF400713B
:101450000948FFF766FC0120FFF7F6FE4FF48071A4
:101460000548FFF760FC4FF400710348FFF75BFC91
:101470000120FFF7E9FE10BD0004024010B54FF453
:101480007A744FF400711548FFF74DFCFFF78CFF9D
:101490000120FFF7D9FE4FF480711048FFF743FC9D
:1014A0000120FFF7D1FE0AE0601E80B2041E06D0C4
:1014B000FFF7C4FF0AA0FEF7FFFEFF2010BD4FF4A8
:1014C00000710648FFF724FC0028EDD14FF480712D
:1014D0000248FFF726FC0020F0E70000000402406D
:1014E0006572726F722032410D0A000070B50446B9
:1014F000FFF770FF4FF480711448FFF712FC0025CE
:1015000021E004F0800028B14FF400710F48FFF78C
:101510000AFC04E04FF400710C48FFF702FC60067F
:10152000040E0120FFF790FE4FF480710748FFF78B
:10153000FAFB0120FFF788FE4FF480710348FFF7A4
:10154000F0FB681CC5B2082DDBDB70BD0004024057
:1015500070B506460C461546FFF750FF3046FFF7BC
:10156000C5FFFFF78BFFFF2804D110A0FEF7A4FEF4
:10157000FF2070BD2046FFF7B9FFFFF77FFFFF2870
:1015800004D10DA0FEF798FEFF20F2E72846FFF7F2
:10159000ADFFFFF773FFFF2804D10AA0FEF78CFE12
:1015A000FF20E6E7FFF74AFF0020E2E76572726F6F
:1015B000722032420D0A00006572726F722032434F
:1015C0000D0A00006572726F722032440D0A00002D
:1015D00000B52DED108B93B0FE4890ED000AD0EDD4
:1015E000000A20EE200A8DED080A90ED000AFA4864
:1015F000D0ED000A20EE200AB0EE40FAF54890ED5A
:10160000000AF648D0ED000A20EE200AF0EE40AACB
:10161000F04890ED000AF248D0ED000A20EE200AD2
:101620008DED070AEC4890ED000AD0ED000A20EE9F
:10163000200AF0EE40FA90ED000AE848D0ED000AEA
:1016400020EE200A8DED060AE34890ED000AE448FA
:10165000D0ED000A20EE200AB0EE40BADF4890ED4F
:10166000000AD0ED000A20EE200AF0EE40BA90ED1C
:10167000000ADB48D0ED000A20EE200A8DED050AB5
:1016800090ED000AD0ED000A20EE200A8DED040A4C
:10169000D44890ED030ADFEDD40A20EE200ADFEDF6
:1016A000D30A80EE201AD24880ED001ACD4890ED82
:1016B000040ADFEDCD0A20EE200ADFEDCC0A80EE31
:1016C000201ACC4880ED001AC64890ED050ADFEDDF
:1016D000C60A20EE200ADFEDC50A80EE201AC648B1
:1016E00080ED001ABF4890ED000AC44880ED000A62
:1016F000BC4890ED010AC24880ED000AB94890ED5F
:10170000020AC04880ED000AB64890ED060ABE48BD
:1017100080ED000AB34890ED070ABC4880ED000A4E
:10172000B04890ED080ABA4880ED000AFFF7D2FBF6
:10173000B849086008460068B749096888420CD370
:10174000B4480068B4490968401A00EE100AB8EEBF
:10175000400ADFEDB20AC0EE208AAE480068AE490A
:101760000860A648D0ED000A90ED001A60EE810AEC
:10177000A34890ED001AD0ED001A41EE210AA148CD
:1017800090ED001AD0ED001A41EE210AB0EE600A89
:1017900004F0BCF8B0EE408A984890ED000A20EEC4
:1017A000080A80ED000A964890ED000A20EE080A2B
:1017B00080ED000A934890ED000A20EE080A80EDC3
:1017C000000A9148D0ED000A90ED001A60EE810AFF
:1017D0008E4890ED001AD0ED001A41EE210A8C4897
:1017E00090ED001AD0ED001A41EE210AB0EE600A29
:1017F00004F08CF8B0EE408A834890ED000A20EEA9
:10180000080A80ED000A814890ED000A20EE080ADF
:1018100080ED000A7E4890ED000A20EE080A80ED77
:10182000000A794890ED000AF0EE000A60EE200A06
:10183000B6EE000A30EE6B1A9DED040A31EE400A56
:1018400020EE800A7148D0ED000AB0EE001A60EE7A
:10185000811ADDED060A9DED071A70EEC10A01EE50
:10186000A00A6B48D0ED000AB0EE001A60EE810AC3
:101870003BEE2A1A00EE810A8DED110A624890EDC6
:10188000000AF0EE000A20EE201A9DED060ADDEDBA
:10189000070A30EE200A21EE000A5C48D0ED000A6B
:1018A000B0EE001A20EE811AF6EE000A70EEEF1A82
:1018B000DDED040A71EEE00A01EE200A5448D0ED95
:1018C000000AB0EE001A20EE811ADDED050A70EE76
:1018D000CF0A01EE200A8DED100A4B4890ED000A68
:1018E000F0EE000A20EE200A7BEE6A0A60EE200A83
:1018F000464890ED000AB0EE001A20EE011A9DED68
:10190000050A70EE0F1AB0EE600A01EE210A404897
:10191000D0ED000AB0EE001A60EE810AB6EE001AB1
:1019200031EE6F1A31EE6B1AB0EE409A00EE819AEA
:101930009DED110A60EE000A9DED100A40EE000ACE
:1019400010EE901A084604F0D9FFCDE900019DED94
:10195000000B03F05DFA8DED020B9DED020B51ECD7
:10196000100B04F0CBF909EE900AB0EE49AA3BEE59
:101970006A0AF0EE000A20EE200A8DED0F0A9DEDB6
:10198000050A3FEE000AF0EE000A20EE200A8DED77
:101990000E0A9DED080A30EE6F0A70EE6B0A9DED9F
:1019A000040A30EE800A8DED0D0AB0EE000A69EEF1
:1019B000800AB6EE000A30EE6B1A9DED040A31EE95
:1019C000400A20EE800AB0EE4A9AF0EE000A69EE74
:1019D000200A25E0900000209400002098000020BC
:1019E0009C000020E4290020DB0F49400000344324
:1019F000A0000020A4000020A8000020AC000020CF
:101A0000B0000020B4000020B8000020BC0000207E
:101A1000C0000020C8000020C40000200024F449B9
:101A20003BEE6A1A00EE810A8DED0C0AB0EE000A58
:101A300029EE801A9DED060ADDED070A30EE600AF8
:101A400021EE000AB0EE4A9AF0EE000A29EE201AC2
:101A5000DDED050A7FEE200A01EE200A8DED0B0A6E
:101A6000B0EE000A29EE800A7AEE8B0A20EE200AF8
:101A7000B0EE4A9AF0EE000A69EE200AB6EE001ABD
:101A800031EE6F1A31EE6B1A00EE810A8DED0A0A03
:101A9000AF48D0ED000A9DED0D0A60EE800AAD481A
:101AA00090ED001A9DED0E0A41EE400AAA4890ED15
:101AB000001A9DED0A0A21EE001AA848D0ED001A7E
:101AC0009DED0B0A01EEC01A30EE81CAA148D0ED9F
:101AD000000A9DED0F0A60EE800AA14890ED001A01
:101AE0009DED0D0A41EE400A9C4890ED001A9DEDD7
:101AF0000C0A21EE001A9B48D0ED001A9DED0A0A4F
:101B000001EEC01A70EE81CA9548D0ED000A9DED35
:101B10000E0A60EE800A8E4890ED001A9DED0F0AC5
:101B200041EE400A8F4890ED001A9DED0B0A21EE20
:101B3000001A8948D0ED001A9DED0C0A01EEC01A7A
:101B400030EE81DAB5EEC0CAF1EE10FA57D0F5EEFC
:101B5000C0CAF1EE10FA52D0B5EEC0DAF1EE10FACA
:101B60004DD09FED810A6CEE000A804890ED000A8E
:101B700000EEA80A80ED000A9FED7B0A6CEE800A59
:101B80007B4890ED000A00EEA80A80ED000A9FED68
:101B9000760A6DEE000A774890ED000A00EEA80A7A
:101BA00080ED000A744890ED000AF0EE000A00EEA5
:101BB0008C0A6E48D0ED000A30EE200A6E4880EDA7
:101BC000000A6E4890ED000AF0EE000A00EEAC0A42
:101BD0006748D0ED000A30EE200A684880ED000A20
:101BE000674890ED000AF0EE000A00EE8D0A6148A9
:101BF000D0ED000A30EE200A614880ED000A61480D
:101C000090ED000AB1EE400A5B48D0ED000A20EEEC
:101C1000200A5D48D0ED000A584890ED001A00EE09
:101C2000C10A5A4890ED001A5548D0ED001AF0EE5E
:101C3000400A41EE610A564890ED000A00EEA80AFB
:101C40008DED090A90ED000A4B48D0ED000A20EE18
:101C5000200A4D48D0ED000A494890ED001A00EEE8
:101C6000810A4A48D0ED000A444890ED001A00EE7F
:101C7000C10A4448D0ED000AF0EE60DA40EE28DAFE
:101C8000434890ED000A3D48D0ED000A20EE200ABE
:101C90003C48D0ED000A3A4890ED001A00EEC10A27
:101CA0003A48D0ED000A344890ED001A00EE810A5F
:101CB0003548D0ED000AB0EE60EA00EE28EA34487C
:101CC00090ED000A2E48D0ED000A20EE200A2D48A3
:101CD000D0ED000A294890ED001A00EE810A2A484A
:101CE000D0ED000A244890ED001A00EEC10A274802
:101CF000D0ED000AF0EE60EA40EE28EADDED090AD8
:101D000060EEA00A4DEEAD0A4EEE0E0A4EEEAE0AA1
:101D1000B0EE600A03F0FAFDB0EE408A9DED090ACC
:101D200020EE080A1A4880ED000A2DEE880A1548B0
:101D300080ED000A2EEE080A134880ED000A2EEE10
:101D4000880A124880ED000A13B0BDEC108B00BD6C
:101D5000B0000020B4000020BC000020C000002023
:101D6000AC000020B80000200AD7233C84000020EB
:101D7000880000208C000020A0000020A40000208B
:101D8000A800002094000020980000209C00002063
:101D90009000002010B504460C4800F021F8FFF731
:101DA00017FC0B4890ED000A84ED000A094890EDFD
:101DB000000A84ED010A084890ED000A84ED020A49
:101DC000064890ED000A84ED030A10BDE4290020C6
:101DD0009000002094000020980000209C0000202B
:101DE00030B585B004460DF1120004A9031F03AA03
:101DF000CDE90010891F02A800F02EFCBDF80800F4
:101E000036490880BDF80A004880BDF80C0088807B
:101E1000BDF80E000881BDF810004881BDF8120021
:101E2000888100251DE0032D0BDA02A830F915008A
:101E300000EE100AB8EEC00A04EB850080ED000A3F
:101E40000EE002A830F9150000EE100AB8EEC00A44
:101E5000DFED230A80EE201A04EB850080ED001AE6
:101E60006D1C062DDFDB04F11800FFF7BDF894EDC3
:101E7000060ABDEEC00A10EE100A00B21749C8816A
:101E800094ED070ABDEEC00A10EE100A00B20882F7
:101E900094ED080ABDEEC00A10EE100A00B24882A6
:101EA0000846B0F9100001EE100AB8EEC11AF0EEC3
:101EB000410A0846B0F90E0001EE100AB8EEC11A48
:101EC000B0EE410A03F032FC00EE100AB8EEC00A90
:101ED000044880ED000A05B030BD0000242A00202F
:101EE00033330342F000002010B52DED0C8B044677
:101EF0008748FFF74FFF864890ED020AF8EE000A88
:101F000020EE200AD0ED020A20EE200AD0ED030ACE
:101F1000B0EE001A60EE810A90ED031A00EEC10ADD
:101F2000F7EE000A30EE200A10EE101A084604F010
:101F3000E5FC41EC1C0B764890ED010AF0EE000A3E
:101F400020EE200AD0ED020A20EE200AD0ED000A91
:101F5000B0EE001A60EE810A90ED031A00EE810ADD
:101F600010EE101A084604F0C9FC41EC1D0BB0EE4F
:101F70004C1AF0EE6C1AB0EE4D0AF0EE6D0A01F05C
:101F8000C3FFB0EE40BAF0EE60BA51EC1B0B03F0A9
:101F9000A9FE41EC1A0B9FED5F0B53EC102B04F0E4
:101FA000B7F941EC190B9FED5D0B53EC102B03F0CF
:101FB00093FF41EC180B03F0A1FE00EE100A84ED34
:101FC000000A534890ED010AF8EE000A20EE200ABC
:101FD000D0ED030A20EE200AD0ED000AB0EE001A80
:101FE00060EE810A90ED021A00EE810A10EE101ADE
:101FF000084604F083FC41EC1C0BB0EE4C0AF0EEFA
:102000006C0A01F065FCB0EE40BAF0EE60BA51EC3B
:102010001B0B03F067FE41EC1A0B9FED3E0B53ECDC
:10202000102B04F075F941EC190B9FED3C0B53ECB0
:10203000102B03F051FF41EC180B03F05FFE00EE94
:10204000100A84ED010A324890ED010AF8EE000A08
:1020500020EE200AD0ED010A20EE200AD0ED020A7F
:10206000B0EE001A60EE810A90ED021A00EEC10A8D
:10207000F7EE000A30EE200A10EE101A084604F0BF
:102080003DFC41EC1B0B224890ED020AF0EE000AE9
:1020900020EE200AD0ED030A20EE200AD0ED000A3F
:1020A000B0EE001A60EE810A90ED011A00EE810A8E
:1020B00010EE101A084604F021FC41EC1C0BB0EEA7
:1020C0004B1AF0EE6B1AB0EE4C0AF0EE6C0A01F00F
:1020D0001BFFB0EE40AAF0EE60AA9FED0E0B53EC92
:1020E000102B51EC1A0B04F013F941EC190B9FED76
:1020F0000B0B53EC102B03F0EFFE41EC180B03F02D
:10210000FDFD00EE100A84ED020ABDEC0C8B10BD43
:10211000082A0020000000000080664000000060E7
:10212000FB210940014604480068084008B101202D
:1021300070470020FCE700001C0100201548C08902
:10214000401C1449C88108468088401C00B2888021
:102150000846C088401C00B2C88008460089401C60
:1021600000B2088108464089401C00B248810846F8
:102170008089401C00B2888108460078012804D17B
:1021800008464078401C487002E001200149087070
:10219000704700003C1100202DE9F04304460D4635
:1021A000DDE9076700200021012041E0DFF8D8C108
:1021B0003CF81080A0F1010CDFF8CC9129F81C80CC
:1021C00009F1160C3CF81090A0F1010CDFF8B88171
:1021D00008F1160828F81C9008F1160C3CF810902D
:1021E000A0F1010C08F1160828F81C9008F1160C53
:1021F0003CF81090A0F1010C08F1160828F81C908A
:1022000008F1160C3CF81090A0F1010C08F116082A
:1022100028F81C9008F1160C3CF81090A0F1010C65
:1022200008F1160828F81C9000F1010C0CF0FF00D2
:102230000A28BBDBDFF850C1ACF81240ACF82850DC
:10224000ACF83E20ACF85430ACF86A60ACF8807062
:10225000002008E0DFF830C13CF910C0614400F113
:10226000010C0CF0FF000A28F4DB4FF00A0C91FB84
:10227000FCFC0FFA8CFCDFF81081A8F814C00021D8
:1022800000200AE0DFF800C10CF1160C3CF910C088
:10229000614400F1010C0CF0FF000A28F2DB4FF062
:1022A0000A0C91FBFCFC0FFA8CF8DFF8DCC0ACF8F0
:1022B0002A80002100200AE0DFF8CCC00CF12C0CB1
:1022C0003CF910C0614400F1010C0CF0FF000A2839
:1022D000F2DB4FF00A0C91FBFCFC0FFA8CF8DFF8F4
:1022E000A8C0ACF84080002100200AE0DFF898C0C8
:1022F0000CF1420C3CF910C0614400F1010C0CF0EF
:10230000FF000A28F2DB4FF00A0C91FBFCFC0FFAED
:102310008CF8DFF874C0ACF85680002100200AE089
:10232000DFF864C00CF1580C3CF910C0614400F1B6
:10233000010C0CF0FF000A28F2DB4FF00A0C91FBB5
:10234000FCFC0FFA8CF8DFF840C0ACF86C80002180
:1023500000200AE0DFF830C00CF16E0C3CF910C030
:10236000614400F1010C0CF0FF000A28F2DB4FF091
:102370000A0C91FBFCFC0FFA8CF8DFF80CC0ACF8EF
:102380008280BDE8F0830000BC2A002010B5012245
:102390001921D020FFF7DCF8FF2804D10CA0FDF7AD
:1023A0008BFFFF2010BD14A0FDF786FF0A2003F06D
:1023B00049FA01223821D020FFF7CAF8FF2804D1BA
:1023C00015A0FDF779FFFF20ECE70020EAE7000009
:1023D00043616E6E6F7420656E61626C6520696E1C
:1023E0007465727275707420737563636573736658
:1023F000756C6C792E0D0A004D50553630353020F5
:102400007365742073616D706C65207261746520F2
:10241000646F6E652E0A00006572726F722031491A
:102420000D0A000008B500200090FEF71BFF0123F5
:102430006A467521D020FEF75BFF40B99DF8000089
:10244000682809D036A0FDF737FFFF2008BD37A068
:10245000FDF732FFFF20F9E701226B21D020FFF7C3
:1024600077F8FF2804D134A0FDF726FFFF20EDE721
:1024700003221A21D020FFF76BF8FF2804D131A0E6
:10248000FDF71AFFFF20E1E710221B21D020FFF704
:102490005FF8FF2804D12EA0FDF70EFFFF20D5E73F
:1024A00000221C21D020FFF753F8FF2804D12BA0D5
:1024B000FDF702FFFF20C9E702223721D020FFF7F6
:1024C00047F8FF2804D128A0FDF7F6FEFF20BDE75E
:1024D00000223821D020FFF73BF8FF2804D125A0A7
:1024E000FDF7EAFEFF20B1E700226A21D020FFF7C6
:1024F0002FF8FF2804D11FA0FDF7DEFEFF20A5E77F
:10250000FEF7ECFCFF2804D11DA0FDF7D5FEFF204F
:102510009CE74FF4FA7003F095F9002096E700006D
:102520006572726F722031410D0A00006572726F20
:10253000722031420D0A00006572726F72203143C1
:102540000D0A00006572726F722031450D0A00009D
:102550006572726F722031460D0A00006572726FEB
:10256000722031470D0A00006572726F7220314887
:102570000D0A00006572726F722031490D0A000069
:102580006572726F7220314B0D0A000010B502E0C7
:10259000C82003F057F9FFF745FFFF28F8D010BD1A
:1025A00000B585B00121880300F0CAFA0121084670
:1025B00000F0A6FA1020039000208DF810008DF88E
:1025C000120001208DF8130002208DF8110003A9DC
:1025D0001248FEF732FB0421002000F03FFB1020E0
:1025E000009000208DF804000C208DF805000120DB
:1025F0008DF806006846FEF703FA0A208DF80800F9
:1026000002208DF8090000208DF80A0001208DF8C5
:102610000B0002A800F02CFA05B000BD000002403B
:102620002DE9F04104460D4616461F463B4632460C
:1026300029462046FEF75CFEFF2805D103A0FDF7E2
:102640003BFEFF20BDE8F0810020FBE76572726F62
:102650007220314A0D0A00002DE9FC4704460D4660
:1026600016461F46DDE90A8948480078002872D0DE
:102670000020464908700E23454A3B21D020FFF731
:10268000CFFF43480E30FEF76FFC41484078404989
:10269000097840EA012000B23E4908803C48C078F1
:1026A0003B49897840EA012000B23B49088038481C
:1026B00040793749097940EA012000B2374908805A
:1026C0003348407A3249097A40EA012000B234495D
:1026D00008802F48C07A2E49897A40EA012000B24A
:1026E000304908802A48407B2949097B40EA01207B
:1026F00000B22D4908800846B0F900002949B1F917
:102700000010CDE900102648B0F900302348B0F998
:1027100000202148B0F900101E48B0F90000FFF772
:102720003BFD2248808A20802048408D28801F4819
:10273000B0F8400030801D48B0F8560038801B4883
:10274000B0F86C00A8F800001848B0F88200A9F8AA
:10275000000018E0FFE71548808A20801348408D6C
:1027600028801248B0F8400030801048B0F8560079
:1027700038800E48B0F86C00A8F800000B48B0F89C
:102780008200A9F80000BDE8FC87000010010020CD
:10279000A82A0020040100200601002008010020D2
:1027A0000A0100200C0100200E010020BC2A00209C
:1027B00010B54448B0F900004249B1F90610084488
:1027C00000EE100AB8EEC00AF0EE000A80EE201A01
:1027D000BDEEC10A10EE100A00B23B49088039482C
:1027E000B0F902003749B1F90810084400EE100AA8
:1027F000B8EEC00AF0EE000A80EE201ABDEEC10A63
:1028000010EE100A00B2304948802E48B0F904009A
:102810002C49B1F90A10084400EE100AB8EEC00ABB
:10282000F0EE000A80EE201ABDEEC10A10EE100A8A
:1028300000B225498880B7EE000A10EE100AC1F8F0
:1028400006002048B0F900001E49B1F90610401AF0
:1028500000EE100AF8EEC00A1A48B0F90200194951
:10286000B1F90810401A00EE100AB8EEC01A80EE56
:10287000810A10EE100A1449C1F80A001148B0F993
:1028800000001049B1F90610401A00EE100AF8EEE7
:10289000C00A0C48B0F904000A49B1F90A10401AFC
:1028A00000EE100AB8EEC01A80EE810A10EE100A8F
:1028B0000549C1F80E005A20887404A0FDF7FCFCFD
:1028C000022010BD822B0020F82C00204D61672DC6
:1028D00063616C6920656E640000000010B54FF400
:1028E000704007490880488088804FF48050C88035
:1028F0000881488103A0FDF7DFFC022010BD000025
:10290000822B00204D61672D63616C6920737461B7
:102910007274000000BFFEE770B505460C46002C3F
:1029200063D032480088844215D03C2C09DA3C2020
:1029300090FBF4F0401E2E49088001202D490880AC
:1029400007E000202A4908803C2094FBF0F0294948
:10295000088026480480284800882549098888423C
:1029600005DA25480088401C234908803DE0002006
:102970002149088000F048F820480088204909884B
:102980000844204949571B4A128801FB02001C4990
:10299000098890FBF1F201FB1200184908800846F3
:1029A000408817490988084416494957114A12882E
:1029B00001FB02001249098890FBF1F201FB1200B1
:1029C0000E494880084680880D49098801440D4811
:1029D0004057084A128800FB02100949098890FBF9
:1029E000F1F201FB12000549888070BD7A000020D9
:1029F0007C000020800000207E0000206800002075
:102A000064000020E26A000810B50C4800880C4AF7
:102A100032F810100B4800F08EFD08484088084A34
:102A200032F81010074800F088FD04488088044AF6
:102A300032F81010034800F082FD10BD680000203D
:102A4000E41900200004004010B53221A72000F056
:102A500047FB10BD10B5FFF7D7FF10BD10B500F054
:102A6000BDF9FFF7F1FFFFF7F5FF10BD704700005C
:102A700070B5002100230F22C4781CB3174C2468C2
:102A800004F4E064C4F5E064C4F30721C1F1040474
:102A9000E3B20A4144789C40E1B284781440214377
:102AA0000C07210E0E4C05786155047804F01F05C3
:102AB0000124AC4005786D11AD0005F1E025C5F8A5
:102AC000004109E0047804F01F050124AC40054DE5
:102AD0000678761145F8264070BD00000CED00E048
:102AE00000E400E080E100E002490143024A116095
:102AF000704700000000FA050CED00E07047000090
:102B000029B1064A12680243044B1A6004E0034AE2
:102B100012688243014B1A6070470000303802404F
:102B200029B1064A12680243044B1A6004E0034AC2
:102B300012688243014B1A6070470000403802401F
:102B400029B1064A12680243044B1A6004E0034AA2
:102B500012688243014B1A607047000044380240FB
:102B6000F0B5002100220024022500260223324F66
:102B70003F6807F00C0121B1042905D0082937D19D
:102B800005E02E4F076036E02D4F076033E02A4FF7
:102B90003F1F3F68C7F38056274F3F1F3F6807F02E
:102BA0003F036EB1264FB7FBF3F7DFF88CC0ACF1F3
:102BB000040CDCF800C0CCF3881C07FB0CF40CE020
:102BC0001E4FB7FBF3F7DFF870C0ACF1040CDCF874
:102BD00000C0CCF3881C07FB0CF4174F3F1F3F6865
:102BE000C7F301477F1C7D00B4FBF5F7076002E0E7
:102BF000124F076000BF00BF0F4F3F6807F0F001A2
:102C00000909104F7A5C0768D74047600A4F3F6850
:102C100007F4E051890A0B4F7A5C4768D740876018
:102C2000054F3F6807F46041490B064F7A5C4768DF
:102C3000D740C760F0BD0000083802400024F4000F
:102C400000127A002B010020024909688143014AE1
:102C5000116070471C0100207047000030B5002251
:102C60008B071C0F0F2303FA04F20B4B8C1053F845
:102C700024309343084C8D1044F8253023468C10A3
:102C800053F824308C07240F00FA04F42343024C39
:102C90008D1044F8253030BD0838014010B5044689
:102CA000132204F124010548FDF746FB132204F129
:102CB00037010348FDF740FB10BD00000B2D00203D
:102CC000312D0020024909680143014A1160704713
:102CD0001C01002010B5044634B1132221460348DC
:102CE000FDF72AFBFDF77CFC10BD0000B22C002094
:102CF0000CB50020019000903448006840F480300A
:102D00003249086000BF3148006800F4003000908C
:102D10000198401C0190009818B90198B0F5A04F97
:102D2000F1D12A48006800F4003010B10120009071
:102D300001E0002000900098012846D1234840304F
:102D4000006840F080502149403108602048006808
:102D500040F440401E4908601C48083000681B4988
:102D6000083108600846006840F4004008600846E2
:102D7000006840F4A05008601648091F0860081F4A
:102D8000006840F08070091F086000BF0F480068AD
:102D900000F000700028F9D040F205700E4908607C
:102DA0000A480830006820F003000849083108602C
:102DB0000846006840F00200086000BF0348083081
:102DC000006800F00C000828F8D10CBD0038024063
:102DD0000070004008544007003C024010B52DED43
:102DE000108B84B000244FF4966051490880084647
:102DF0000088032190FBF1F04E49088000204E49E5
:102E00000880084600884B49098808444A49488098
:102E10000846408847490988084447498880002077
:102E200046490880084600884249098808444349C1
:102E30004880084640883F49098808443F498880BF
:102E400000203F490880084600883A49098808441C
:102E50003B49488008464088364909880844384933
:102E6000888000BF5BE03248008803F001FA41EC43
:102E70001E0B601C03F0E5F941EC1F0B9FED310BBD
:102E800053EC102B03F044FA53EC1E2BCDE9000158
:102E90009DED000B51EC100B03F01EF841EC1D0BE7
:102EA0009FED2A0B53EC102B03F032FA41EC1C0B74
:102EB0009FED280B53EC102B03F02AFA41EC1B0B6F
:102EC000B0EE4B0AF0EE6B0A01F03EFFB0EE40AA06
:102ED000F0EE60AA9FED1B0B53EC102B51EC1A0B7C
:102EE00002F03EFF41EC190B9FED1C0B53EC102B35
:102EF00003F00EFA41EC180B9FED1A0B53EC102B5C
:102F000002F0EAFFCDE902019DED020B51EC100B3E
:102F100003F06AF9154921F81400601C84B20448D2
:102F2000008884429FDB04B0BDEC108B10BD000014
:102F30006400002066000020680000206E00002071
:102F400074000020000000000000F03F00000000BE
:102F500000000040182D4454FB21094000000000EF
:102F6000000049400000000000001440E419002067
:102F7000042808D14FF0E021096941F004014FF025
:102F8000E022116107E04FF0E021096921F004011E
:102F90004FF0E022116170477FB56846FFF7E0FD12
:102FA0004FF47A710198B0FBF1F4E4082146481E11
:102FB000B0F1807F00D31BE0481E4FF0E02250614B
:102FC00050170F22002807DA13071E0E0B4B00F0D4
:102FD0000F052D1F5E5503E013071D0E084B1D54F2
:102FE00000BF00204FF0E02290610720106100BF79
:102FF0006FF00400FFF7BCFF7FBD000018ED00E09C
:1030000000E400E010B504480068401C0249086074
:1030100002F0BEFD10BD00004C00002010B51548A8
:10302000006840F47000134908601348006840F0DD
:1030300001001149086000200F49083108600E485E
:1030400000680E4908400C4908600D48091D0860D9
:10305000081F006820F48020091F0860002006492E
:103060000C310860FFF744FE4FF0006001498039E1
:10307000086010BD88ED00E000380240FFFFF6FE5A
:10308000103000240EB501210846FFF749FD4FF02E
:10309000FF3001905320ADF800000020ADF808008B
:1030A000ADF802000121880700F0CAF869464FF028
:1030B000804000F047FA0121880700F0D3F80EBDE8
:1030C00010B50121880700F0D9F838B1012188072F
:1030D00000F0C5F80121880700F0BEF810BD00001F
:1030E00030B58BB005460C4601210220FFF718FDD4
:1030F00001210420FFF704FD022206213448FDF7D8
:10310000E4FD022207213248FDF7DFFD02220821FB
:103110002F48FDF7DAFD022209212D48FDF7D5FDE4
:103120004FF47070099002208DF8280001208DF86E
:103130002B0003208DF8290009A92548FDF77DFD06
:10314000A8B2ADF818000020ADF81A000794ADF849
:1031500020008DF8220006A91E4800F0F3F9602037
:10316000ADF804000120ADF806000020ADF808001D
:10317000ADF810000820ADF812000020ADF81400E2
:1031800003900821134800F0C9F801A9114800F084
:1031900087F808210F4800F01DF901A90D4800F03B
:1031A000C7F808210B4800F073F901A9094800F09D
:1031B0001FF90821074800F0B1F901A9054800F0FE
:1031C00071F90121034800F04DF80BB030BD00004B
:1031D000000802400004004010B51648008820F0A6
:1031E00001001449088000BF72B613480068401CF3
:1031F0001149086000BF0F481430006884B22146AE
:10320000002002F065FD0D4800680A49243108607D
:103210000A484068091D086008488068091D086060
:1032200000BF05480068401E0349086000B962B647
:1032300000BF10BD10040140600000209C11002060
:1032400021B1028842F08002028004E002884FF639
:103250007F731A4002807047CA4302827047CA4394
:103260000282704721B1028842F00102028004E02C
:1032700002884FF6FE731A400280704730B502464E
:10328000002000230024158A05EA0103958905EA38
:10329000010413B10CB1012000E0002030BD00009A
:1032A00070B5002400220023058C4FF6FE763540D1
:1032B0000584028C8388048B4FF68F752C40B51ED5
:1032C0002C400D882C43751E2A408D892A434D8839
:1032D0002A43104DA84202D00F4DA84213D14FF6F9
:1032E000F7752A40CD892A434FF6FB752A408D8811
:1032F0002A434FF6FF652B404FF6FF552B400D8AB2
:103300002B434D8A2B43838004838D68456302845D
:1033100070BD000000000140000401400A46002189
:10332000018B4FF6F773194011430183704700007A
:1033300070B5002400220023058C4FF6EF7635404F
:103340000584028C8388048B48F6FF752C404FF669
:10335000FF452C400D884FF6FF7606EA05252C43E5
:103360004FF6DF752A408D8906EA05152A434D88F8
:1033700006EA05152A43154DA84202D0144DA8426D
:103380001DD14FF67F752A40CD894FF6FF7606EAAC
:1033900005152A434FF6BF752A408D8806EA0515A4
:1033A0002A434FF6FF352B404FF2FF752B400D8A15
:1033B00006EA85052B434D8A06EA85052B43838063
:1033C00004838D688563028470BD000000000140A5
:1033D000000401400A460021018B4FF2FF7319409F
:1033E0004FF6FF7303EA022319430183704700007D
:1033F00070B5002400220023058C4FF6FF6635408F
:103400000584028C8388848B4FF68F752C404FF691
:10341000FC752C400D882C434FF6FF552A408D89B2
:103420004FF6FF7606EA05252A434D8806EA05256C
:103430002A43154DA84202D0144DA8421DD14FF287
:10344000FF752A40CD894FF6FF7606EA05252A4307
:103450004FF6FF352A408D8806EA05252A434EF6A9
:10346000FF752B404DF6FF752B400D8A06EA0515BA
:103470002B434D8A06EA05152B43838084838D6890
:10348000C563028470BD00000000014000040140DB
:103490000A460021818B4FF6F7731940114381834F
:1034A0007047000070B5002200230024058C4EF602
:1034B000FF7635400584038C8488828B48F6FF753F
:1034C0002A404FF6FF452A400D884FF6FF7606EA60
:1034D00005252A434DF6FF752B408D8906EA0535F3
:1034E0002B434D8806EA05352B430A4DA84202D0EE
:1034F000094DA84208D14BF6FF752C400D8A4FF6B6
:10350000FF7606EA85152C43848082838D680564E6
:10351000038470BD00000140000401400A46002100
:10352000818B4FF2FF7319404FF6FF7303EA0223BA
:103530001943818370474163704781637047C1635A
:103540007047000000220288184B98420ED0184B9A
:1035500098420BD0B0F1804F08D0164B984205D05E
:10356000154B984202D0154B984204D14FF68F73F9
:103570001A404B881A43124B984207D0114B98427D
:1035800004D04FF6FF431A400B891A4302804B6860
:10359000C3620B880385054B984202D0044B9842C6
:1035A00001D18B7A0386012383827047000001409A
:1035B000000401400004004000080040000C0040EE
:1035C000001000400014004010B540F22551314871
:1035D00000F0A2F800285CD02E4800F057F92E49E0
:1035E00008702E48008800F4004088BB2B480088F3
:1035F00000F4804070B1084600780A2803D000200B
:103600002649088024E02548008840F400402349EA
:1036100008801DE0204800780D2806D11F4800884A
:1036200040F480401D49088012E01B4800781B4987
:103630000988C1F30D011A4A505418480088401CEB
:103640001649088008460088C72801DD0020088048
:1036500011480078282803D11020FFF733FB18E029
:103660000D480078292803D12020FFF72BFB10E01C
:1036700009480078302804D14FF48050FFF722FB2E
:1036800007E005480078312803D14FF40050FFF7D8
:1036900019FB10BD001001402A0100202801002064
:1036A000442D002010B511480088114908700F48BA
:1036B000001F0088087000210E48FDF7C3F80120A4
:1036C0000D4908700D490B48FDF7A2F800BF0948E5
:1036D000FDF7C3F80028FAD14FF400710548FDF753
:1036E000C6F801210348FDF7ADF810BD04480040BD
:1036F000160100202860024012010020000C00107A
:1037000021B1828942F40052828104E082894DF61F
:10371000FF731A408281704770B50246002400236F
:103720000025002040F66A16B14200D100BFC1F367
:10373000421501F01F03012606FA03F3012D02D101
:103740009689334006E0022D02D1168A334001E00B
:10375000968A33400C12012606FA04F41688344087
:1037600013B10CB1012000E0002070BDF0B503469C
:10377000002400260025002040F66A17B94200D137
:1037800000BF1846C1F3421401F01F06012707FAD3
:1037900006F5012C01D10C3004E0022C01D11030CF
:1037A00000E014301AB107682F43076002E0076891
:1037B000AF430760F0BD00002DE9FF4705460E4608
:1037C0000024A14600BFA046B08900B100BF2C8AEA
:1037D00024F44054F08804432C82AC8941F20C60FC
:1037E0008443B08831890843718908430443AC811C
:1037F000AC8A24F44074B0890443AC826846FFF775
:10380000AFF92048854202D01F48854202D1DDF839
:103810000C9001E0DDF80890A88900F4004040B168
:1038200009EBC90000EB091031684900B0FBF1F762
:1038300007E009EBC90000EB091031688900B0FB13
:10384000F1F76420B7FBF0F004012009642101FBCB
:103850001078A88900F4004040B1322000EBC80085
:10386000B0FBF1F000F00700044308E0322000EB69
:1038700008106421B0FBF1F000F00F0004432C812C
:10388000BDE8FF8700100140001401400146888810
:10389000C0F30800704700BFFEE703B40198410081
:1038A000009850EAC12018BF04204A0D18BF40F00C
:1038B000010040F2FF72B2EB515F08BF40F002001E
:1038C000012808BF052002B070470000000000007A
:1038D00070B5C1482DED020B2DED0E8B82B0119D00
:1038E00025F000449FEDBEDB9FEDBFEB84423EDB45
:1038F000A4F140511098A1F17F6108430FD0BC485A
:10390000844202DC28D1109830B39DED100B02B038
:10391000BDEC0E8B02B0BDE8704001F0B9BE9DED6C
:10392000100B53EC1D2B51EC100B02F0F1FC9DED34
:10393000100B41EC180B53EC1E2B51EC100B02F04A
:10394000E7FC53EC182B02F00BFA41EC100B02B021
:10395000BDEC0E8B02B070BD0120FCF771FD02B012
:10396000BDEC0E8B02B0BDE8704001F0A5BEA148D1
:103970009FEDA18B844256DA9DED100BB4F1795F77
:103980000ADA51EC100BFFF788FF042808BF01F09A
:10399000B3FE9DED100BDAE753EC102B51EC100B3E
:1039A00002F0B6FC41EC190B95480621B0EE490A2D
:1039B000F0EE690A784401F03FFD53EC192B51EC0D
:1039C000100B02F0A5FC41EC1A0B8E48B0EE490A30
:1039D000F0EE690A0421784401F02EFD53EC192B16
:1039E00051EC100B02F094FC53EC182B02F0B8F9D8
:1039F00041EC100B51EC1A0B53EC102B02F06CFA4B
:103A0000CDE900019DED000B53EC102B9DED100B4B
:103A100051EC100B02F07CFC9DED101B53EC112BB4
:103A200002F09EF9D2E09DED100B51EC100B01F06D
:103A300053FF53EC182B02F09FFD9FED730BCDE964
:103A4000000153EC102B9DED000B51EC100B02F01C
:103A50005FFC41EC190B6E480621B0EE490AF0EE0E
:103A6000690A784401F0E8FC53EC192B51EC100B77
:103A700002F04EFC41EC1B0B6648B0EE490AF0EE3A
:103A8000690A0421784401F0D7FC53EC192B51EC5E
:103A9000100B02F03DFC53EC182B02F061F941ECE5
:103AA0001C0B51EC190B02F03BF841EC180B5A4877
:103AB0009FED5BABA04222DC53EC1C2B51EC1B0BAB
:103AC00002F00AFACDE900019DED000B51EC180B54
:103AD00053EC102B02F01CFC53EC182B02F040F9B5
:103AE00053EC1A2B02F014FC53EC1D2B02F01CFEBD
:103AF00053EC1E2B02F040FD41EC100B5FE08DED0E
:103B0000008B002000909DED000B51EC180B53EC46
:103B1000102B02F025F99DED000B41EC1E0B53EC30
:103B2000102B51EC100B02F0F3FB53EC192B02F0AD
:103B300023FD53EC1E2B02F0CFF941EC190B53EC93
:103B40001C2B51EC1B0B02F0C7F941EC1B0B53EC87
:103B50001A2B51EC190B02F0DBFB53EC1D2B02F07E
:103B60000BFD41EC190B53EC1A2B51EC180B02F026
:103B7000CFFB53EC1B2B02F0CBFB53EC192B02F0C9
:103B8000D3FD9DED000B41EC180B53EC1A2B51ECBF
:103B9000100B02F0BDFB9FED249B53EC192B02F0A0
:103BA000EBFC41EC100B51EC180B53EC102B02F01A
:103BB000BBFD53EC192B02F0DFFC41EC100B002D88
:103BC0003FF7C5AE51EC100B02F08CF841EC100B36
:103BD000BDE60000000000000000F03F0000000013
:103BE000075C143326A6913C182D4454FB21F93F61
:103BF0000000F07F0000E03F000000000000F03F08
:103C0000303100003E310000000000000000E03FC5
:103C100082300000903000003333EF3F000000009E
:103C20000000000000000040182D4454FB21E93F33
:103C300070B59B482DED020B2DED068B079D25F0F1
:103C40000044A04218DC9748844202DC0AD106985E
:103C500040B19DED060BBDEC068B02B0BDE8704097
:103C600001F016BD002DCCBF9FED8F0B9FED900B8B
:103C7000BDEC068B02B070BD8F48A04215DD8F48A9
:103C8000A042D8BF4FF0FF3458DD9DED060B51EC3C
:103C9000100BFFF702FE042808BF01F02DFD9DED7B
:103CA000060BBDEC068B02B070BD9DED060B51EC12
:103CB000100B01F011FECDE9060181489FED828BCA
:103CC000A0423CDD8248A0421FDD00249FED82AB74
:103CD0009DED060B53EC1A2B51EC100B02F040F843
:103CE0009DED060B41EC190B53EC1A2B51EC100B0C
:103CF00002F00EFB53EC182B02F016FD53EC192BBF
:103D000002F0EAF8CDE9060149E09DED060B012439
:103D100053EC182B51EC100B02F022F89DED060B22
:103D200041EC190B53EC182B51EC100B02F0FCFC7E
:103D300053EC192B02F0D0F8CDE906012FE06848CA
:103D4000A0421FDD02249FED689B9DED060B53EC06
:103D5000192B51EC100B02F0DBFA53EC182B01F08D
:103D6000FFFF9DED060B41EC180B53EC192B51ECAA
:103D7000100B02F0D9FC53EC182B02F0ADF8CDE992
:103D800006010CE09DED060B032453EC102B9FED78
:103D9000580B51EC100B02F09FF8CDE906019DED98
:103DA000060B53EC102B51EC100B02F0B1FA41EC66
:103DB000180B53EC182B02F0ABFA41EC190B4E48E0
:103DC0000621B0EE490AF0EE690A784401F034FBAE
:103DD00053EC182B51EC100B02F09AFA41EC180B33
:103DE0004648B0EE490AF0EE690A0521784401F030
:103DF00023FB53EC192B51EC100B02F089FA41EC28
:103E0000100B51EC180B53EC102B002C0EDA01F0B8
:103E1000A7FF9DED061B53EC112B02F079FA9DEDE7
:103E2000061B53EC112B02F0A7FB35E001F098FFC5
:103E30009DED061B53EC112B02F06AFA41EC100BBE
:103E40002F48784400EBC40090ED001B51EC100BA0
:103E500053EC112B02F068FC9DED061B53EC112B6B
:103E600002F062FC41EC100B2648784400EBC400E1
:103E700090ED001B51EC100B53EC112B02F07CFB6E
:103E800041EC100B002DA2BFBDEC068B02B070BD43
:103E900051EC100B01F026FF41EC100B01E7000084
:103EA000000010440000F07F182D4454FB21F93F1E
:103EB000182D4454FB21F9BF0000DC3F0000203ED8
:103EC0000000F33F00000000000000000000F03F91
:103ED0000000E63F0000000000000000000000407D
:103EE0000080034000000000000000000000F83FD8
:103EF000000000000000F0BF5A2E0000102E00004D
:103F00009A2D0000522D000070B56B4E2DED040B64
:103F10002DED028B82B0DDF81CC0DDE905235C428B
:103F20002CF000411C4341EAD474049D22F000406F
:103F3000B44205D86C422C4340EAD474B4420BD945
:103F40009DED061B9DED040B02B0BDEC028B04B091
:103F5000BDE8704001F0A6BBACF14054A4F17F6411
:103F60001C430BD0022404EAAC7444EAD274054327
:103F70009FED538B9FED542B07D015E09DED040B67
:103F800051EC100B01F0CAFB42E0002C11BF012CD8
:103F90009DED040B02B0BDEC028B04BF04B070BDFC
:103FA000022C38D0032C3BD00B439FED491B9FEDD7
:103FB0004A0B0AD0B14218D1B04209D121F0804158
:103FC00020F08040079105900FE0002A15DA10E0FC
:103FD000434B7B44002C08BF93ED000B0DD0012C0C
:103FE00010D0022C17D0032C1AD0B0421DD1002AB9
:103FF00003DAB0EE410AF0EE610A02B0BDEC028BCA
:1040000004B070BD93ED000B51EC100B01F06AFE93
:1040100041EC100BF1E7B0EE480AF0EE680AECE76D
:10402000B0EE420AF0EE620AE7E7401A00153C28BB
:10403000C8BF8DED000B19DCBCF1000FBEBF10F145
:104040003C0F9FED290B8DED000B0FDB9DED060B5B
:1040500053EC102B9DED040B51EC100B01F03CFFC9
:1040600001F03AFC01F05AFBCDE90001002C08BF39
:104070009DED000BC1D0012C10D0022C9FED1C0B2C
:1040800053EC102B9DED000B51EC100B0DD002F0FA
:104090004BFB53EC182B02F047FBB9E7019880F07B
:1040A000004001909DED000BA7E702F03DFB53ECB3
:1040B000182B02F061FAABE70000F07F000000006F
:1040C000182D4454FB210940182D4454FB2109C0EC
:1040D000182D4454FB21F9BF182D4454FB21F93FFE
:1040E000B22C0000000000000000000000000000F2
:1040F000075C143326A6A13C2DE9F04D2DED040BF1
:104100002DED0E8B96B0DDE92550279CDDF890A0B3
:1041100025F0004624F00048BAF1000F14BF012139
:10412000002101EB4502FC4953184A1093422AD35F
:10413000002814BF0123002303EB44030B44F74979
:104140008B4220D358EA00019FEDF59B76D0DFF833
:10415000D8B35D4503D1BAF1000F05D188E0BAF1BB
:10416000000F08BF002100D0012101EB450111F52E
:10417000001F08D8002814BF0121002101EB4401D1
:1041800011F5001F0BD99DED261B9DED240B16B0DC
:10419000BDEC0E8B04B0BDE8F04D01F083BA0027F2
:1041A000002DBCBFE149884521DAE1498845A8BF17
:1041B00002271CDAC3451ADCDE4901EB2851142919
:1041C00008DDC1F1340220FA02F101FA02F2824262
:1041D0000DD108E058B9C1F1140228FA02F101FA30
:1041E00002F2424503D101F00101C1F1020756EA92
:1041F0000A0124D1002C22DA002D18BF022F01D091
:10420000012F0AD00220FCF71BF916B0BDEC0E8B73
:1042100004B0BDE8F04D01F023BA0220FCF710F91C
:1042200001F01EFA51EC100B01F05CFD41EC100B9B
:1042300016B0BDEC0E8B04B0BDE8F08D18E09FED1C
:10424000BEAB9FEDBF8B002871D1B848804522D10D
:1042500005F1804010F5801008BFBAF1000F07D0BB
:10426000B3450ADC002CA8BF9DED260BE0DA0DE07B
:10427000B0EE490AF0EE690ADAE7002C06DA9DEDA5
:10428000260B51EC100B01F02DFD6FE0AE48784489
:1042900090ED000BCCE7D8454DD1002C48DA2EB17B
:1042A00086423AD1BAF1000F42D126E0BAF1000FAE
:1042B00013D00220FCF7C4F801F00EFA8DED020BCA
:1042C0009DED240B8DED000B10EE900A039961F328
:1042D0001E0003909DED020BAAE78DED02AB9DED54
:1042E000240B1AEE901A10EE900A8DED000B61F37C
:1042F0001E0003909DED020B9AE78DED028B9DED64
:10430000240B18EE901A10EE900A8DED000B61F35D
:104310001E0003909DED020B8AE709DA9DED240B48
:1043200051EC190B53EC102B01F0D6FD1EE020E0F0
:104330009DED240B7CE786421BDAB4F1804F0DD053
:10434000A4F10050B0F1FF5013D1002D11DB9DED11
:10435000240B51EC100B01F0E3FB07E09DED240B67
:1043600053EC102B51EC100B00F0C2BC41EC100BC5
:104370005EE79DED240B51EC100B01F0ADFABAF1A4
:10438000000FCDE90E0142D19FED710B46B3A6F1AE
:10439000E040B0F17F600CD05E4538D1002D00DAEE
:1043A000A7B3022F0CBF01204FF0FF3001F049FFEF
:1043B000DCE7002D01DD002C0DDA002D01DD002CE5
:1043C0001FDB002D16DA002C14DB012F08BF9FED38
:1043D000620B3FF42DAFB0EE4A0AF0EE6A0A27E70F
:1043E000022F18BF002D0CD0012F0AD1002DFFF68F
:1043F0001FAF06E0002DB8BF002C08DA012F3FF4F4
:1044000017AFB0EE480AF0EE680A11E71BE0012092
:1044100000EBE57050EA070115D0791EB0EE498A2D
:10442000F0EE698A084308BF9FED4D8B4E4800258A
:10443000804570DD4D494E48884514DDB0420DDBA6
:10444000002C19DB2FE00120FBF7FAFF16B0BDECC2
:104450000E8B04B0BDE8F04D01F02EB9B34502DC7F
:10446000002C09DC1FE0864202DA002C1BDA03E094
:104470005E452BDD002C16DD0220FBF7E1FF01F08D
:104480002BF98DED020B53EC1A2B51EC180B01F0AC
:104490003FFFCDE900010399019861F31E000390ED
:1044A0009DED020BC4E60220FBF7CAFF01F024F9E0
:1044B00010EE901A18EE900A8DED020B8DED008B28
:1044C00061F31E0003909DED020BB1E69DED0E0B16
:1044D00053EC192B51EC100B02F026F99FED260B33
:1044E000CDE9080153EC102B9DED080B51EC100B9E
:1044F00001F00EFF9FED221B53EC112B02F03CF854
:104500009DED081B53EC112B01F002FF9FED1E1BCC
:1045100053EC112B3CE08CE0FFFF1F00FFFF0F006E
:10452000000000000000F03F0000F03F0000F07FBE
:104530000000404301FCFFFF000000000000F07F8E
:104540000000000000000000F6290000000000004C
:104550000000000000000080000000000000F0FFEC
:10456000000000000000F0BF0000E0410000F04348
:10457000FFFFEF3F00000000000000000000D03F00
:10458000555555555555D53F000000000000E03FFA
:1045900001F0F2FF9DED080B41EC1A0B53EC102BD0
:1045A00051EC100B01F0B4FE53EC1A2B01F0B0FEED
:1045B00041EC1A0B9FEDFE0B53EC102B9DED080BFD
:1045C00051EC100B01F0A4FE41EC1B0B9FEDFA0B1C
:1045D00051EC1A0B53EC102B01F09AFE41EC1A0B24
:1045E0009FEDF70B53EC102B9DED080B51EC100BCE
:1045F00001F08EFE53EC1A2B02F096F841EC1A0BE8
:1046000051EC1B0B53EC1A2B01F0AAFB0690CDE9E1
:1046100006519DED060B53EC1B2B51EC100B02F0D9
:1046200083F853EC1A2B01F0A7FF41EC100B00F0BC
:10463000A1B90020B6F5801F0EDA9FEDE30B53EC15
:10464000102B9DED0E0B51EC100B01F061FECDE92E
:104650000E016FF034000E4600EB2650A0F2FF373B
:10466000C6F31300DA4940F07F6646F040568842B0
:10467000D8BF002408DDD7498142C8BF012403DC2C
:104680000024A6F580167F1CD348784400EBC400B4
:104690000F9690ED00CB9DED0E0B53EC1C2B51ECC7
:1046A000100B02F041F89DED0E0B41EC1B0B53EC8F
:1046B0001C2B51EC100B01F053FB41EC100B51EC97
:1046C000190B53EC102B01F007FC41EC1D0B51ECC6
:1046D0001B0B53EC1D2B01F01BFE41EC1A0BBF48CA
:1046E0008DED10AB7844109590ED000B4FF000501D
:1046F00040EA660000EB84408DED080B00F50020D9
:1047000009909DED080B53EC1C2B51EC100B02F0A3
:104710000BF89DED0E1B53EC112B01F02DFF41EC1E
:10472000100B53EC102B9DED100B51EC100B01F006
:10473000EFFD9DED080B41EC1C0B53EC102B9DED98
:10474000100B51EC100B01F0E3FD53EC1B2B01F0AF
:1047500013FF53EC1C2B01F0E7FF53EC1D2B01F072
:10476000D7FD41EC1C0B53EC1A2B51EC1A0B01F04A
:10477000CFFD41EC1B0B9A480621B0EE4B0AF0EE40
:104780006B0A784400F058FEB0EE401AF0EE601A62
:10479000B0EE41DAF0EE61DA53EC1B2B51EC1B0B5F
:1047A00001F0B6FD53EC1D2B01F0B2FD9DED100B99
:1047B00041EC1B0B53EC1A2B51EC100B01F0D0FA0F
:1047C00053EC1C2B01F0A4FD53EC1B2B01F0C8FA99
:1047D0009DED100B41EC1B0B53EC102B51EC100B0F
:1047E00001F096FD41EC1D0B9FED7FEB53EC1E2B72
:1047F00001F0B6FA53EC1B2B01F0B2FA0890CDE9A8
:1048000008519DED080B53EC1E2B51EC100B01F0E1
:104810008BFF53EC1D2B01F087FF53EC1B2B01F09A
:10482000ABFE9DED080B41EC1D0B53EC102B9DEDE9
:10483000100B51EC100B01F06BFD41EC1B0B53EC1A
:104840001A2B51EC1D0B01F063FD9DED080B41ECA3
:104850001A0B53EC102B51EC1C0B01F059FD53ECCF
:104860001A2B01F07DFA41EC1A0B51EC1B0B53ECA7
:104870001A2B01F075FA0C90CDE90C519DED0C0B43
:1048800053EC1B2B51EC100B01F04EFF53EC1A2B89
:1048900001F072FE41EC1B0B9FED550B53EC102BFE
:1048A0009DED0C0B51EC100B01F032FD41EC1A0B9D
:1048B0009FED510B51EC1B0B53EC102B01F028FD1D
:1048C00041EC1B0B9FED4E0B53EC102B9DED0C0B95
:1048D00051EC100B01F01CFD53EC1B2B01F040FAC6
:1048E00041EC100B4848784400EBC40090ED001BED
:1048F00051EC100B53EC112B01F032FA41EC1B0B75
:10490000384601F09EFCCDE9080153EC1B2B51EC1D
:104910001A0B01F025FA41EC100B3C48784400EBEF
:10492000C40090ED00CB51EC100B53EC1C2B01F0AC
:1049300017FA9DED081B53EC112B01F011FA0690AC
:10494000CDE906519DED080B53EC102B9DED060BA8
:1049500051EC100B01F0E8FE53EC1C2B01F0E4FECF
:1049600053EC1A2B01F0E0FE53EC1B2B01F004FE7C
:1049700041EC100B9DED261B53EC102B8DED001B15
:1049800000959DED260B51EC100B01F0C1FC9DED47
:10499000000B41EC1A0B53EC102B9DED260B51EC48
:1049A000100B01F0C1FE9DED061B53EC112B2FE007
:1049B000000000604715F73FFE822B654715F73F63
:1049C00044DF5DF80BAE543E0000000000004043A1
:1049D0008E9803007AB60B00AA240000A0250000E0
:1049E000E22300000000000000000000000008407A
:1049F000000000E009C7EE3FFD033ADC09C7EE3FC7
:104A0000F5015B14E02F3EBE6E220000282200005C
:104A100001F07EFC53EC1A2B01F0A2F99DED060B80
:104A200041EC1A0B53EC102B9DED000B51EC100BCD
:104A300001F06EFCCDE90C019DED0C0B51EC1A0B55
:104A400053EC102B01F08CF9CDE902010C46AA4978
:104A50008C422FDB611A084318D19DED0C0B53ECEF
:104A6000102B9DED020B51EC100B01F05DFE41ECA3
:104A70001B0B9FEDA30B51EC1A0B53EC102B01F009
:104A80006FF953EC1B2B01F041FD2DD20220FBF7F7
:104A9000D7FC00F021FE10EE901A18EE900A8DED72
:104AA000020B8DED008B61F31E0003909DED020B58
:104AB000FFF7BEBB944A24F00041914214D39349BE
:104AC000214408437FF4EFAC9DED0C0B53EC102B0D
:104AD0009DED020B51EC100B01F026FE53EC1A2B4E
:104AE00001F014FD7FF6DFAC24F000408849894ACC
:104AF000002601EB205182422BDA481C4FF4801132
:104B000021FA00F02044844AC0F30A517A44A1F209
:104B1000FF3192ED000B814A8DED080BCA4020EA6F
:104B20000202C0F3130040F48010C1F1140120FA16
:104B300001F60992002CB8BF76429DED080B53ECAC
:104B4000102B9DED0C0B51EC100B01F0EDFDCDE9A0
:104B50000C019DED0C0B51EC1A0B53EC102B01F0DA
:104B6000FFF89FED6F0B0890CDE9085153EC102B27
:104B70009DED080B51EC100B01F0CAFB41EC1B0B37
:104B80009FED690B53EC102B9DED080B51EC100BB6
:104B900001F0BEFB9DED0C0B41EC1C0B53EC102BFC
:104BA0009DED080B51EC100B01F0BEFD53EC1A2BE0
:104BB00001F0E2FC9FED5E1B53EC112B01F0A8FB12
:104BC00053EC1C2B01F0CCF841EC1A0B51EC1B0BF5
:104BD00053EC1A2B01F0C4F8CDE902019DED020B54
:104BE00053EC1B2B51EC100B01F09EFD53EC1A2BD8
:104BF00001F0C2FC9DED020B41EC1A0B53EC102BA3
:104C000051EC100B01F084FBCDE908014A489DED01
:104C1000080B0521784400F00FFC9DED081B51ECBA
:104C2000100B53EC112B01F073FB9DED021B53ECA9
:104C3000112B01F0A1FCCDE906019DED020B53EC17
:104C40001A2B51EC100B01F063FB53EC1A2B01F003
:104C500087F89FED3B0B41EC1A0B53EC102B9DEDAD
:104C6000060B51EC100B01F05FFD9DED060B41ECC6
:104C70001B0B53EC102B9DED020B51EC100B01F0B4
:104C800047FB53EC1B2B01F027F953EC1A2B01F0D7
:104C90004BFD9DED021B53EC112B01F045FD53EC38
:104CA000192B01F069FCCDE9020101EB0650011559
:104CB0000029C8BF039015DC9DED020B324651EC74
:104CC000100B01F0C8FEFEF7E8FD042808BF00F055
:104CD00013FD32469DED020B51EC100B01F0BBFEB3
:104CE000CDE902019DED020B51EC180B53EC102B9A
:104CF00001F00EFBFFF73ABB0000904000000000FF
:104D0000FE822B654715973C00CC904000346F3FE6
:104D100001FCFFFF0000E03F78210000FFFF0F00D3
:104D200000000000432EE63F396CA80C615C20BEF9
:104D3000EF39FAFE422EE63F801F0000000000001F
:104D4000000000000000004010B52F499FED2C1B13
:104D50002DED020B84B0059820F000408842DCBFA6
:104D600000209DED040B32DD2849884209D10498CA
:104D700040B94FF00100FBF763FB00F09DFC06B06B
:104D800010BD05DB9DED040B00F082FC06B010BDEC
:104D900068469DED040B00F07BF810F0030011D085
:104DA000012818D09DED021B9DED000B02281AD0A2
:104DB00000F08AFA51EC100B00F094FF06B041ECC1
:104DC000100B10BD9DED021B9DED000B012000F0AE
:104DD000AFFB06B010BD9DED021B9DED000B00F07A
:104DE00073FA06B010BD012000F0A2FB51EC100BCD
:104DF00000F078FF06B041EC100B10BD0000000081
:104E00000000000000000000FB21E93F0000F07FEF
:104E100000B52DED048BB0EE409AF0EE609A83B0B1
:104E200051EC190B01F0B4FB41EC180B18EE100A11
:104E300018EE901A8DED008B002818BF0120084352
:104E400020F00040C0F17F6000F1E040C00F14D0BE
:104E500019EE101A19EE900A8DED009B002918BF6B
:104E60000121084320F00040C0F17F6000F1E040E4
:104E7000C00F04BF0120FBF7E3FAB0EE480A03B00D
:104E8000F0EE680ABDEC048B00BD000000000000DD
:104E90002DE9F14F04462DED020B2DED088B8AB064
:104EA0009FEDE70B80ED020B139EE74826F00045CF
:104EB00085420ADC9DED120B002084ED000B0AB048
:104EC000BDEC088B03B0BDE8F08FE0489FEDE0AB90
:104ED0009FEDE1BBA84247DDE14F9FEDE39B9FEDD6
:104EE000E48B9DED120B53EC1A2B51EC100B002EA2
:104EF0001CDD01F019FC41EC100BBD4208D053EC55
:104F00001B2B51EC100B01F00FFCC4E900010BE06E
:104F100053EC192B51EC100B01F006FC53EC182B41
:104F200001F002FCC4E900010120C8E700F018FF0D
:104F300041EC100BBD4208D053EC1B2B51EC100B75
:104F400000F00EFFC4E900010BE053EC192B51EC0B
:104F5000100B00F005FF53EC182B00F001FFC4E923
:104F600000014FF0FF30AAE7C348A84279DB9DED6E
:104F7000120B51EC100B00F0AFFC41EC180B9FED45
:104F8000C00B53EC102B01F0C3F99FEDBF1B53EC8A
:104F9000112B00F0E5FE01F0F7F8074601F051F99A
:104FA00041EC190B53EC1A2B01F0B2F953EC182B0E
:104FB00001F0E2FA41EC180B53EC1B2B51EC190BEE
:104FC00001F0A6F9DFF8C8A241EC100B4FEA155822
:104FD0000125FA4453EC102B51EC180B01F0A4FB03
:104FE000032DC4E900013DD0C1F30A5005EB451182
:104FF000A8EB00001139814234DA0AEB051BB0EE50
:1050000048AA9BED000BF0EE68AA53EC102B51EC74
:10501000190B01F07DF941EC1B0B51EC1A0B53EC11
:105020001B2B01F081FB41EC180B51EC1A0B53ECDC
:10503000182B01F079FB53EC1B2B01F075FB9BED5A
:10504000020B41EC1A0B53EC102B51EC190B01F035
:105050005FF953EC1A2B01F067FB41EC100B6D1C50
:10506000B8E70EE0002EA8BF3846BFF628AF94ED93
:10507000000B51EC100B00F035FEC4E90001784242
:105080001DE7C6F3130040F4801EC6F30A50A0F2D9
:10509000F530471100F01F05C5F12000DDF848B0DC
:1050A00008900020069007900520EC467949002DD5
:1050B00007EB0002794408BF51F8221009D051F8DB
:1050C000223001EB8201AB404A68089922FA01F1D3
:1050D0001943A1FB0E26A1FB0B131A449A4234BFBD
:1050E0000123002303EB06080CEB8003D3E901A6A0
:1050F0000E448E4234BF0121002192448A4411B1F2
:10510000924502D903E0924501D2012100E000213D
:10511000C3E901A641444CF82010011EA0F1010092
:10512000C4DC029800F10050850F0298DDE90367A6
:105130008000DDF8148001F084F841EC1A0B304651
:1051400001F096F89FED541B53EC112B01F0E0F8A1
:1051500041EC1B0B384601F08BF89FED511B53ECD3
:10516000112B01F0D5F841EC180B404601F080F806
:105170009FED4D1B53EC112B01F0CAF841EC190BBC
:1051800051EC180B53EC192B00F0EAFD53EC1B2BE0
:1051900000F0E6FD53EC1A2B00F0E2FDCDE908012A
:1051A000002008909DED080B53EC1A2B51EC100BCE
:1051B00001F0BAFA53EC1B2B01F0B6FA53EC182BA2
:1051C00001F0B2FA53EC192B01F0D6F99FED381B20
:1051D00053EC112B01F09CF89FED370B41EC180BB1
:1051E00053EC102B9DED080B51EC100B01F090F8D7
:1051F00053EC182B00F0B4FD9FED310B41EC180B74
:1052000053EC102B9DED080B51EC100B01F080F8C6
:1052100053EC182B00F0A4FD41EC100B139810F088
:10522000004F06D06D4251EC100B00F05BFD41ECDD
:10523000100B284684ED000B41E600000000000042
:105240000000000000000000FB21E93F7CD9024083
:1052500000004054FB21F93F3163621A61B4D03D34
:10526000FB21F93F000000000000601A61B4D03D4E
:105270007370032E8A19A33BFB2139410000000003
:1052800083C8C96D305FE43F000000000000E03FCC
:10529000BA1C0000081C0000000000000000103EC6
:1052A000000000000000103C000000000000103A68
:1052B000182D4454FB21F93D3326A611460B113C11
:1052C00000000054FB21F93D10B52DED040B2DED30
:1052D000088B82B0B0EE419AF0EE619A0B9820F004
:1052E00000449FED4BABB4F1795F11DA9DED0A0BF1
:1052F00051EC100B00F048FF002801BFB0EE4A0A45
:10530000F0EE6A0A02B0BDEC088B04BF04B010BD19
:105310009DED0A0B53EC102B51EC100B00F0F8FF35
:1053200041EC180B3C480621B0EE480AF0EE680A42
:10533000784400F081F853EC182B51EC100B00F07E
:10534000E7FF9DED0A0B41EC1B0B53EC192B51ECC5
:10535000100B00F0DDFF41EC190B53EC1B2B51EC53
:10536000180B00F0D5FF53EC192B01F0DDF99FED80
:105370002C0B41EC190B53EC102B51EC180B00F0DB
:10538000C7FF41EC100B2848844210DA53EC192B6C
:1053900051EC100B01F0C8F953EC1A2B01F0ECF8AA
:1053A00041EC100B02B0BDEC088B04B010BD1F48DF
:1053B000A042BCBF9FED1E1B8DED001B06DBA4F5BC
:1053C00000100190002000909DED001B51EC100B8F
:1053D00053EC112B01F0A8F99DED000B41EC180BDB
:1053E00053EC102B51EC1A0B01F09EF941EC1A0B07
:1053F00053EC192B51EC180B01F096F953EC1A2BC6
:1054000001F0BAF841EC100BCCE7000000000000FE
:10541000000000000000F03F241900000000000020
:10542000000000000000E03F3333D33F0000E93FBD
:10543000000000000000D23F70B504462DED028B45
:105440004D1E00EBC500B0EE408AF0EE608A90ED94
:10545000000B35F0060017D053EC182B51EC100B55
:1054600000F056FF41EC100B6D1E04EBC50090EDF3
:10547000001B51EC100B53EC112B00F071FC41ECB4
:10548000100B35F00600E7D1022D36D0042D1CD0CC
:10549000062D1CBFBDEC028B70BD53EC182B51ECDC
:1054A000100B00F035FF94ED0A1B53EC112B00F0AC
:1054B00057FC53EC182B00F02BFF94ED081B53EC1A
:1054C000112B00F04DFC41EC100B53EC182B51EC60
:1054D000100B00F01DFF94ED061B53EC112B00F098
:1054E0003FFC53EC182B00F013FF94ED040B53EC2E
:1054F000102B00F035FC41EC100B53EC182B51EC49
:10550000100B00F005FF94ED021B53EC112B00F083
:1055100027FC53EC182B00F0FBFE94ED001B53EC22
:10552000112B00F01DFCBDEC028B41EC100B70BD8B
:1055300031B504462DED040B2DED0A8BB0EE41BACA
:10554000F0EE61BA0B989DED0A0B20F00040B0F12F
:10555000795F0DDA51EC100BFEF79FF9042808BFB4
:1055600000F0CAF89DED0A0BBDEC0A8B05B030BD0A
:1055700053EC102B51EC100B00F0CAFE41EC180B51
:105580009DED0A0B53EC182B51EC100B00F0C0FEF4
:1055900041EC190B2C48B0EE480AF0EE680A0521E0
:1055A0007844FFF749FF9FED2ACBB0EE40AAF0EE1A
:1055B00060AA9CB353EC1C2B51EC190B00F0A8FE15
:1055C00041EC1C0B53EC1A2B51EC190B00F0A0FE14
:1055D0009FED210B41EC190B53EC102B51EC1B0BE5
:1055E00000F096FE53EC192B01F09EF853EC182BAB
:1055F00000F08EFE53EC1B2B01F096F853EC1C2BA5
:1056000001F092F89DED0A1B53EC112B00F0B4FF52
:10561000BDEC0A8B05B041EC100B30BDFFE753EC3D
:105620001A2B51EC180B00F073FE53EC1C2B00F0FE
:1056300097FB53EC192B00F06BFE9DED0A1B53EC0E
:10564000112B00F08DFBE3E7B41700000000000011
:10565000495555555555C5BF000000000000E03FB5
:105660009FED070B10B553EC102B9FED070B51EC82
:10567000100B00F031FC41EC100B10BD00000000DD
:105680000000000000000000000000000000F03FEB
:1056900010B553EC102B51EC100B00F061FB41ECFA
:1056A000100B10BD10B553EC112B51EC100B00F08A
:1056B00057FB41EC100B10BD9FED050B10B553ECE3
:1056C000102B51EC100B00F007FC41EC100B10BD3F
:1056D00000000000000000009FED050B10B553EC2A
:1056E000102B51EC100B00F013FE41EC100B10BD11
:1056F00000000000000000709FED050B10B553EC9A
:10570000102B51EC100B00F003FE41EC100B10BD00
:10571000000000000000001000BF704710B541EC11
:10572000100BFEF785FA51EC100B10BD10B52DEDE6
:105730000A8BB0EE409AF0EE609A19EE100A01F072
:10574000DDF841EC1B0B19EE900A01F0D7F841ECA3
:105750001C0BB0EE4B1AF0EE6B1AB0EE4C0AF0EEEA
:105760006C0AFEF7D1FBB0EE40AAF0EE60AA51EC55
:105770001A0B00F0C3FA08EE900AF5EEC08AF1EEBB
:1057800010FA05D29FED1A0A38EE800AF0EE408A30
:105790009FED180A28EE800ADFED170A80EE201A26
:1057A000B0EE418A18EE100A01F0A8F841EC1B0B8C
:1057B0009FED120B53EC102B00F0D2FA41EC1A0BB8
:1057C00000F09CFA08EE100A9FED0E0AB4EEC08AB3
:1057D000F1EE10FA05DD9FED0B0A38EE400AB0EE4F
:1057E000408ABDEEC80A10EE100ABDEC0A8B10BD4F
:1057F000DB0FC94000003443DB0F4940B81E85EB86
:1058000051B811400000B44310B504466FF00400D5
:10581000FDF7AEFBE11704EB5171C1F3C701074A75
:1058200011701046007800EB4001C1EBC0104FF63C
:10583000FF7101EAC0000249088010BD200100206C
:105840002201002070B504464FF4077094FBF0F07D
:10585000C6B24FF4077094FBF0F100FB114085B223
:1058600005E04FF4077000F009F8701EC6B2002E74
:10587000F7D115B1284600F001F870BD0146114A74
:1058800012884A434FF0E0235A6100229A611A4677
:10589000126942F001021A6100BF4FF0E022106964
:1058A00000F001021AB100F48032002AF5D04FF066
:1058B000E022126922F001024FF0E0231A61002277
:1058C0009A6170472201002010B50248FDF7E6F901
:1058D00010BD00008E2C002082B0CDE9000121F027
:1058E000004001909DED000B02B051EC100B704791
:1058F00000BF054A128802F04002002AF9D0C2B265
:10590000014B9A807047000000100140F0EE400A01
:10591000F6EE001A60EEA11AB0EE611AB0EE600A5F
:1059200010EE100A0749A1EB600000EE100A21EE0C
:10593000002AF7EE081A42EE401A61EE801AB0EE25
:10594000610A7047DF59375F4FF4A060FDF7CCF86C
:105950004FF4E13000F066F9A820FFF755FFFDF79E
:1059600091FBFCF713FEFCF71BFEFCF70FFDFBF7AA
:10597000B1FA09490860FDF70FFBFAF73DFF012076
:1059800006490870FDF76AF8FAF7BCFDFFF79CFFBF
:1059900001E0FAF7C9FFFCE7180000201C00002016
:1059A00010B54448B0F900004249B1F90610084466
:1059B00000EE100AB8EEC00AF0EE000A80EE201ADF
:1059C000BDEEC10A10EE100A00B23B49088039480A
:1059D000B0F902003749B1F90810084400EE100A86
:1059E000B8EEC00AF0EE000A80EE201ABDEEC10A41
:1059F00010EE100A00B2304948802E48B0F9040079
:105A00002C49B1F90A10084400EE100AB8EEC00A99
:105A1000F0EE000A80EE201ABDEEC10A10EE100A68
:105A200000B225498880B7EE000A10EE100AC1F8CE
:105A300006002048B0F900001E49B1F90610401ACE
:105A400000EE100AF8EEC00A1A48B0F9020019492F
:105A5000B1F90810401A00EE100AB8EEC01A80EE34
:105A6000810A10EE100A1449C1F80A001148B0F971
:105A700000001049B1F90610401A00EE100AF8EEC5
:105A8000C00A0C48B0F904000A49B1F90A10401ADA
:105A900000EE100AB8EEC01A80EE810A10EE100A6D
:105AA0000549C1F80E005A20887404A0FAF704FCD6
:105AB000022010BD822C00201E2D00206F75744D19
:105AC00061672D63616C6920656E640010B54FF4E9
:105AD000704007490880488088804FF48050C88013
