:020000040800F2
:10000000703600202D0200086B120008350F000822
:1000100011110008C908000837210008000000007D
:10002000000000000000000000000000551400085F
:10003000F309000800000000F9120008C1170008C9
:10004000470200084702000847020008470200086C
:10005000470200084702000847020008470200085C
:100060004702000847020008B50B000847020008D5
:10007000470200084702000847020008470200083C
:10008000470200084702000847020008470200082C
:10009000470200084702000847020008470200081C
:1000A000470200084702000847020008470200080C
:1000B0007D180008470200084702000847020008B0
:1000C00047020008470200084702000847020008EC
:1000D00047020008851D0008611E0008E51E000893
:1000E00047020008470200084702000847020008CC
:1000F0009519000847020008470200084702000857
:1001000047020008470200084702000847020008AB
:10011000470200084702000847020008470200089B
:10012000470200084702000847020008470200088B
:10013000470200084702000847020008470200087B
:10014000470200084702000847020008470200086B
:10015000470200084702000847020008470200085B
:10016000470200084702000847020008470200084B
:10017000470200084702000847020008470200083B
:10018000470200084702000800F002F800F03EF8BD
:100190000AA090E8000C82448344AAF10107DA45E2
:1001A00001D100F033F8AFF2090EBAE80F0013F0F6
:1001B000010F18BFFB1A43F00103184794490000D0
:1001C000B4490000103A24BF78C878C1FAD8520761
:1001D00024BF30C830C144BF04680C6070470000C1
:1001E0000023002400250026103A28BF78C1FBD840
:1001F000520728BF30C148BF0B60704700207047CE
:100200001FB504F047FB1FBD10B510BD00F02CF961
:100210001146FFF7F5FF03F053FB00F04AF903B472
:10022000FFF7F2FF03BC03F0EBFA00000948804738
:1002300009480047FEE7FEE7FEE7FEE7FEE7FEE7C8
:10024000FEE7FEE7FEE7FEE704480549054A064BE0
:1002500070470000D917000889010008703000209D
:10026000703600207032002070320020704700008D
:10027000004870470C3000200FB4044910B503AAA1
:10028000029800F0C3F810BC5DF814FB9800002041
:100290002DE9F0410E460446002020622046E16828
:1002A000884730B3252805D0D4E901219047206A3A
:1002B000401CF2E7E168204600278847050018D077
:1002C000A5F14100192802D820354FF400673246C5
:1002D000294620462760FFF791FF40B1012804D04E
:1002E000F61D26F007060836D8E7361DD6E728465D
:1002F000DAE7206ABDE8F081032A40F2308010F08E
:10030000030C00F0158011F8013BBCF1020F6244B0
:1003100098BF11F801CB00F8013B38BF11F8013B41
:10032000A2F1040298BF00F801CB38BF00F8013BEE
:1003300011F0030300F02580083AC0F0088051F85E
:10034000043B083A51F804CBA0E80810F5E7121D69
:100350005CBF51F8043B40F8043BAFF30080D20788
:1003600024BF11F8013B11F801CB48BF11F8012B54
:1003700024BF00F8013B00F801CB48BF00F8012B77
:10038000704710B5203AC0F00B80B1E81850203A01
:10039000A0E81850B1E81850A0E81850BFF4F5AF25
:1003A0005FEA027C24BFB1E81850A0E8185044BFAF
:1003B00018C918C0BDE810405FEA827C24BF51F81C
:1003C000043B40F8043B08BF7047D20728BF31F810
:1003D000023B48BF11F8012B28BF20F8023B48BF61
:1003E00000F8012B7047704770477047004870470E
:1003F0000C300020704710B5FFF73AFF006810BDC1
:1004000010B50446FFF734FF046010BD074B70B50C
:100410000D467B4400F011F80446284600F020F811
:1004200010B14FF0FF3070BD204670BD8F3400001A
:1004300001694A1C02610878704700B58FB0CDE9A8
:1004400001310021059105497944CDE90310114698
:100450006846FFF71DFF0FB000BD0000E5FFFFFF7E
:10046000007B00F0800070477546FFF7BFFFAE4687
:1004700005006946534620F00700854618B020B5B0
:10048000FFF7E2FEBDE820404FF000064FF0000706
:100490004FF000084FF0000B21F00701AC46ACE82C
:1004A000C009ACE8C009ACE8C009ACE8C0098D4699
:1004B000704710B50446AFF300802046BDE81040F9
:1004C000FFF7ADBE70B506460D461C2D00DD70BDB4
:1004D000002404E0305D03F0C1FB601CC4B2AC42F8
:1004E000F8DB00BFF3E700002DE9F84F05460E46A4
:1004F00017469846DDE90AAB0024AA222146641C6F
:100500005F4842542146641C425402222146641C26
:10051000425400222146641C425400959DF801205B
:100520002146641C42549DF800202146641C42541C
:1005300000969DF801202146641C42549DF800203D
:100540002146601CC4B24E48425400979DF80120D9
:100550002046611CCCB24A490A549DF8002020462E
:10056000611CCCB246490A54CDF800809DF80120A8
:100570002046611CCCB242490A549DF80020204616
:10058000611CCCB23E490A54CDF800A09DF8012070
:100590002046611CCCB23A490A549DF800202046FE
:1005A000611CCCB236490A54CDF800B09DF8012048
:1005B0002146601CC4B2324842549DF800202146B6
:1005C000601CC4B22E4842540C9800909DF8012043
:1005D0002046611CCCB22A490A549DF800202046CE
:1005E000611CCCB226490A540D9800909DF8012058
:1005F0002046611CCCB222490A549DF800202046B6
:10060000611CCCB21E490A540E9800909DF801203E
:100610002046611CCCB21A490A549DF8002020469D
:10062000611CCCB216490A54002000909DF80120AC
:100630002046611CCCB212490A549DF80020204685
:10064000611CCCB20E490A54201FC8704FF000093B
:10065000002006E00A49095C494401F0FF09411CF9
:10066000C8B2A042F6DB2046611CCCB2044901F8B6
:10067000009021460248FFF725FFBDE8F88F0000F3
:100680006C29002000B59BB06C2232496846FFF708
:1006900078FE9DF800005A2808D101202E490870E4
:1006A0006A2269462D48FFF727FE07E000202A4905
:1006B00008702A49C1F801005A200870274890F8AC
:1006C00036005A281DD00021244880F8361000201A
:1006D0002249888400212148C1840185B7EE000A9F
:1006E00010EE100A1D49C1F82A00B7EE000A10EEFC
:1006F000100AC1F82E00B7EE000A10EE100AC1F879
:100700003200164890F849005A2820D0002113489A
:1007100080F8491000201149A1F8370000210F4846
:10072000A0F83910A0F83B10B7EE000A10EE100A3E
:100730000A49C1F83D00B7EE000A10EE100AC1F8F0
:100740004100B7EE000A10EE100AC1F845001BB0D8
:1007500000BD000000000E088C0000208C2E002040
:1007600010B501246A220349034800F057F80446F3
:10077000204610BD8C2E002000000E0801461C48AB
:10078000814201D2002070471A48814201D20820DC
:10079000F9E71948814201D21020F4E71748814255
:1007A00001D21820EFE71648814201D22020EAE763
:1007B0001448814201D22820E5E71348814201D242
:1007C0003020E0E71148814201D23820DBE71048B1
:1007D000814201D24020D6E70E48814201D2482012
:1007E000D1E70D48814201D25020CCE75820CAE71A
:1007F000004000080080000800C000080000010858
:1008000000000208000004080000060800000808B4
:1008100000000A0800000C0800000E082DE9FC5F2B
:1008200004460D4690464FF009090120019000262C
:100830004FF0000A00274FF0000B00200090B4F1A9
:10084000006F01D2BDE8FC9F00F088FA002000F0A4
:10085000D5F9264604EB080A3046FFF78FFF83469A
:100860005046FFF78BFF00901648864211D25F4634
:100870000BE00221384600F0D3F98146B9F1090FA7
:1008800002D00020019003E0083700988742F0D999
:1008900000BFB9F1090F0ED10AE02978204600F017
:1008A00037FA092802D00020019003E0641C6D1C77
:1008B0005445F2D300BF012000F0A0F900F01EFA69
:1008C0000198BFE70000FF1F00BFFEE710B5102032
:1008D00000F032FB60B100F0FFFB0446002C44D076
:1008E000012C42D0022C40D1102000F0ABFD3CE0A6
:1008F000202000F021FB88B100F058FB0446A4B38F
:10090000012C32D0022C30D1184800F0C1FD18481B
:1009100000F0A2FD202000F095FD26E04FF480506D
:1009200000F00AFB58B103F08DF80446ECB1012C3D
:100930001BD0022C19D1C00200F084FD15E04FF449
:10094000005000F0F9FA80B102F0E6FF044664B10D
:10095000012C0AD0022C08D1064803F08FF8044875
:1009600000F07AFD200300F06DFD10BDF62E002092
:100970008C2E00201C2F002010B5002404E02046FF
:1009800000F096FA601CC4B2052CF8DB10BD000024
:100990000246094B9A4201D2084801E00648103845
:1009A00001F000531BB1064B0B40C36002E0044B47
:1009B0000B408360704700001064024000600240FA
:1009C0007D0F7D0F21B1026842F00102026003E059
:1009D000026822F0010202607047014600200A68A6
:1009E00002F001020AB1012000E0002070474160DE
:1009F00070477047704770477047000000B52DED95
:100A0000088B85B03C49B1F9100003F0E6FB41ECDE
:100A10001B0B9FED3A1BB0EE4B0AF0EE6B0A01F098
:100A20001FFCB0EE409AF0EE609A3349B1F90E0027
:100A300003F0D3FB41EC1B0B9FED301BB0EE4B0AD8
:100A4000F0EE6B0A01F00CFCB0EE40AAF0EE60AAEA
:100A500053EC192B51EC1A0B03F04EF941EC180B27
:100A600003F018F927490860274890ED020ABDEE07
:100A7000C00A10EE100A00B2234991ED010ABDEE42
:100A8000C00A10EE101A09B21F4A92ED000ABDEE1C
:100A9000C00A10EE102A12B21C4B1B681BB2CDE923
:100AA0000132CDE903101948001F006800B2174A4F
:100AB000083A0090126813B2154A92ED010ABDEE91
:100AC000C00A10EE102A11B2114A92ED000ABDEED2
:100AD000C00A10EE102A10B20A4A92ED000ABDEECA
:100AE000C00A10EE102A12B2FFF7FEFCFFF7EEFE6E
:100AF00005B0BDEC088B00BDE02B0020000000001D
:100B00000000004048000020802E00203C040040EF
:100B1000D42B0020704710B54FF41671002000F060
:100B2000F9FA10BD10B52048007801283BD11F48C4
:100B3000008800B21E490880FFF75DFF1A48B0F92F
:100B40000400022804DB002017498880FFF756FFC5
:100B50001548B0F90600052804DB00201249C880BA
:100B6000FFF7D9FF1048B0F908000A2804DB00207D
:100B70000D490881FFF73EFF0B48B0F90A00142821
:100B800004DB002008494881FFF736FF0648B0F92A
:100B90000C00322804DB002003498881FFF7BAFFEC
:100BA00000200149087010BDB01000205C0000203A
:100BB0003E00002010B5102000F014F828B11020DD
:100BC00000F004F8102000F007F810BD014908609B
:100BD00070470000143C0140014908607047000064
:100BE000143C014001460020034A12680A400AB141
:100BF000012000E000207047143C014030B107495B
:100C0000096841F48061054A116005E003490968FB
:100C100021F48061014A116070470000003C0240ED
:100C200070B504460A460026092502B909E0012AE2
:100C300001D1160205E0022A01D1160201E04FF4AB
:100C4000407600F09DF80546092D28D1154800682A
:100C500020F440701349086008460068304308607B
:100C60000846006820F0F80008600846006844F074
:100C7000020108430B4908600846006840F48030D0
:100C8000086000F07DF805460648006820F0020084
:100C9000044908600846006820F0F800086028460B
:100CA00070BD0000103C024009201349096801F49E
:100CB0008031B1F5803F01D101201CE00E49096867
:100CC00001F0100109B1062015E00B49096801F493
:100CD000807109B102200EE00749096801F0EF01B7
:100CE00009B1072007E00449096801F0020109B1D0
:100CF000082000E0092070470C3C024003480068CF
:100D000040F000400149086070470000103C02407C
:100D100030B502460C46092500F032F80546092D8B
:100D200017D10D48006820F440700B490860084650
:100D3000006808600846006840F001000860147010
:100D400000F01EF805460448006820F00100024942
:100D50000860284630BD0000103C0240054800688D
:100D600000F0004028B1044802490C3908600348EB
:100D700008607047103C024023016745AB89EFCD06
:100D800008B509200090FFF78FFF009002E0FFF701
:100D90008BFF00909DF800000128F8D09DF800001E
:100DA00008BDF0B50A4600210023002400BF3DE045
:100DB000012505FA01F3156805EA03049C4234D1C4
:100DC00005684F000326BE40B543056015794E0007
:100DD000B5400668354305601579012D02D01579B7
:100DE000022D16D185684F000326BE40B5438560AD
:100DF00055794E00B54086683543856045680126C3
:100E00008E40B5434560456896798E40B6B235430D
:100E10004560C5684F000326BE40B543C560D5791F
:100E20004E00B540C6683543C560491C1029BFD384
:100E3000F0BDF0B5002300244D07ED0E02FA05F3D6
:100E4000CE1000F1200555F826504E07F70E0F265C
:100E5000BE40B543CF1000F1200646F82750CE1013
:100E600000F1200555F8265045EA0304CE1000F1A4
:100E7000200545F82640F0BD018370470B4A1168F4
:100E80004FF0E02252694FF0E0239B69D21A4FF4F1
:100E90007A735A434FF0E0235B69B2FBF3F201EB44
:100EA0004103C3EBC11302EBC30070474C000020A9
:100EB00010B5044604EB44001B4901EB800090EDA3
:100EC000000A04EB440001EB800080ED010AFFF70B
:100ED000D5FF00EE100AB8EE400A04EB44001249B8
:100EE00001EB800080ED000A04EB440001EB800080
:100EF00090ED000A04EB440001EB8000D0ED010A04
:100F000030EE600A04EB440001EB800080ED020A41
:100F100004EB440001EB800090ED020ABCEEC00A35
:100F200010EE100A10BD0000D41000204FF08040D9
:100F3000406A704700BFFEE7014604480068084069
:100F400008B1012070470020FCE70000900000205D
:100F50001548C089401C1449C88108468088401C37
:100F600000B288800846C088401C00B2C88008468D
:100F70000089401C00B2088108464089401C00B22C
:100F8000488108468089401C00B288810846007864
:100F9000012804D108464078401C487002E0012036
:100FA0000149087070470000B010002010B5444897
:100FB000B0F900004249B1F90610084400EE100AE9
:100FC000B8EEC00AF0EE000A80EE201ABDEEC10AAB
:100FD00010EE100A00B23B4908803948B0F902000F
:100FE0003749B1F90810084400EE100AB8EEC00AFB
:100FF000F0EE000A80EE201ABDEEC10A10EE100AD3
:1010000000B2304948802E48B0F904002C49B1F9AB
:101010000A10084400EE100AB8EEC00AF0EE000A0A
:1010200080EE201ABDEEC10A10EE100A00B225496A
:101030008880B7EE000A10EE100AC1F806002048BA
:10104000B0F900001E49B1F90610401A00EE100A6E
:10105000F8EEC00A1A48B0F902001949B1F90810AF
:10106000401A00EE100AB8EEC01A80EE810A10EEA7
:10107000100A1449C1F80A001148B0F900001049DB
:10108000B1F90610401A00EE100AF8EEC00A0C483A
:10109000B0F904000A49B1F90A10401A00EE100A2A
:1010A000B8EEC01A80EE810A10EE100A0549C1F8A8
:1010B0000E005A20887404A0FFF7DEF8022010BD4D
:1010C0003E2D0020F62E00204D61672D63616C6976
:1010D00020656E640000000010B54FF470400749B1
:1010E0000880488088804FF48050C88008814881FB
:1010F00003A0FFF7C1F8022010BD00003E2D002024
:101100004D61672D63616C692073746172740000B6
:1011100000BFFEE770B505460C46002C63D0324890
:101120000088844215D03C2C09DA3C2090FBF4F076
:10113000401E2E49088001202D49088007E000202C
:101140002A4908803C2094FBF0F029490880264871
:1011500004802848008825490988884205DA2548FE
:101160000088401C234908803DE000202149088078
:1011700000F048F8204800882049098808442049A0
:1011800049571B4A128801FB02001C49098890FB41
:10119000F1F201FB120018490880084640881749FF
:1011A0000988084416494957114A128801FB020070
:1011B0001249098890FBF1F201FB12000E494880A8
:1011C000084680880D49098801440D484057084A5F
:1011D000128800FB02100949098890FBF1F201FB1B
:1011E00012000549888070BD7A0000207C00002034
:1011F000800000207E0000206800002064000020A5
:101200009849000810B50C4800880C4A32F81010B4
:101210000B4800F06EFD08484088084A32F810106C
:10122000074800F068FD04488088044A32F810102E
:10123000034800F062FD10BD68000020581900202E
:101240000004004010B54FF47A71A72000F026FB8F
:1012500010BD10B5FFF7D6FF10BD10B500F09CF91A
:10126000FFF7F0FFFFF7F5FF10BD704770B50021E5
:1012700000230F22C4781CB3174C246804F4E064E4
:10128000C4F5E064C4F30721C1F10404E3B20A41E8
:1012900044789C40E1B28478144021430C07210E2D
:1012A0000E4C05786155047804F01F050124AC400C
:1012B00005786D11AD0005F1E025C5F8004109E0A4
:1012C000047804F01F050124AC40054D0678761122
:1012D00045F8264070BD00000CED00E000E400E0A1
:1012E00080E100E002490143024A116070470000BA
:1012F0000000FA050CED00E07047000029B1064A35
:1013000012680243044B1A6004E0034A12688243E5
:10131000014B1A60704700003038024029B1064A7C
:1013200012680243044B1A6004E0034A12688243C5
:10133000014B1A60704700004038024029B1064A4C
:1013400012680243044B1A6004E0034A12688243A5
:10135000014B1A607047000044380240F0B500218C
:1013600000220024022500260223324F3F6807F0A6
:101370000C0121B1042905D0082937D105E02E4FF1
:10138000076036E02D4F076033E02A4F3F1F3F686C
:10139000C7F38056274F3F1F3F6807F03F036EB1EA
:1013A000264FB7FBF3F7DFF88CC0ACF1040CDCF888
:1013B00000C0CCF3881C07FB0CF40CE01E4FB7FBFD
:1013C000F3F7DFF870C0ACF1040CDCF800C0CCF32C
:1013D000881C07FB0CF4174F3F1F3F68C7F30147FA
:1013E0007F1C7D00B4FBF5F7076002E0124F076039
:1013F00000BF00BF0F4F3F6807F0F0010909104F11
:101400007A5C0768D74047600A4F3F6807F4E051AD
:10141000890A0B4F7A5C4768D7408760054F3F6861
:1014200007F46041490B064F7A5C4768D740C760B4
:10143000F0BD0000083802400024F40000127A00D9
:101440009F000020024909688143014A11607047EA
:10145000900000207047000010B50446132204F1EC
:1014600024010548FEF748FF132204F13701034821
:10147000FEF742FF10BD0000092F00202F2F002093
:10148000024909680143014A116070479000002039
:1014900010B5044634B1132221460348FEF72CFF51
:1014A000FFF75EF910BD0000B02E00200CB5002043
:1014B000019000903448006840F480303249086060
:1014C00000BF3148006800F4003000900198401CD3
:1014D0000190009818B90198B0F5A04FF1D12A48B1
:1014E000006800F4003010B10120009001E00020FD
:1014F00000900098012846D123484030006840F011
:1015000080502149403108602048006840F4404044
:101510001E4908601C48083000681B4908310860F3
:101520000846006840F4004008600846006840F43F
:10153000A05008601648091F0860081F006840F0A6
:101540008070091F086000BF0F48006800F000703D
:101550000028F9D040F205700E4908600A480830AA
:10156000006820F003000849083108600846006858
:1015700040F00200086000BF03480830006800F037
:101580000C000828F8D10CBD003802400070004063
:1015900008544007003C024010B52DED108B84B07C
:1015A00000244FF4966051490880084600880321C2
:1015B00090FBF1F04E49088000204E490880084613
:1015C00000884B49098808444A49488008464088B1
:1015D00047490988084447498880002046490880CF
:1015E000084600884249098808444349488008461B
:1015F00040883F49098808443F49888000203F4986
:101600000880084600883A49098808443B494880D0
:10161000084640883649098808443849888000BF10
:101620005BE03248008802F0EFFD41EC1E0B601CCD
:1016300002F0D3FD41EC1F0B9FED310B53EC102B4F
:1016400002F032FE53EC1E2BCDE900019DED000BA4
:1016500051EC100B02F00CFC41EC1D0B9FED2A0B22
:1016600053EC102B02F020FE41EC1C0B9FED280BDD
:1016700053EC102B02F018FE41EC1B0BB0EE4B0AA2
:10168000F0EE6B0A01F014FCB0EE40AAF0EE60AA96
:101690009FED1B0B53EC102B51EC1A0B02F02CFBA3
:1016A00041EC190B9FED1C0B53EC102B02F0FCFDD1
:1016B00041EC180B9FED1A0B53EC102B02F0D8FBEA
:1016C000CDE902019DED020B51EC100B02F058FD2B
:1016D000154921F81400601C84B204480088844233
:1016E0009FDB04B0BDEC108B10BD00006400002037
:1016F00066000020680000206E00002074000020BA
:10170000000000000000F03F00000000000000406A
:10171000182D4454FB2109400000000000408F4078
:10172000000000000000084058190020042808D1DB
:101730004FF0E021096941F004014FF0E02211610E
:1017400007E04FF0E021096921F004014FF0E022A9
:10175000116170477FB56846FFF700FE4FF47A715C
:101760000198B0FBF1F4E4082146481EB0F1807FF7
:1017700000D31BE0481E4FF0E022506150170F22AB
:10178000002807DA13071E0E0B4B00F00F052D1F64
:101790005E5503E013071D0E084B1D5400BF0020CB
:1017A0004FF0E02290610720106100BF6FF004004D
:1017B000FFF7BCFF7FBD000018ED00E000E400E093
:1017C00010B504480068401C0249086002F09CF90A
:1017D00010BD00004C00002010B51548006840F412
:1017E0007000134908601348006840F00100114977
:1017F000086000200F49083108600E4800680E4953
:1018000008400C4908600D48091D0860081F006861
:1018100020F48020091F0860002006490C31086070
:10182000FFF744FE4FF0006001498039086010BDA9
:1018300088ED00E000380240FFFFF6FE1030002483
:101840000EB501210846FFF769FD4FF0FF3001900A
:101850005320ADF800000020ADF80800ADF80200FC
:101860000121880700F0CAF869464FF0804000F077
:1018700047FA0121880700F0D3F80EBD10B5012109
:10188000880700F0D9F838B10121880700F0C5F8C1
:101890000121880700F0BEF810BD000030B58BB004
:1018A00005460C4601210220FFF738FD01210420E6
:1018B000FFF724FD022206213448FFF7BAFA02227C
:1018C00007213248FFF7B5FA022208212F48FFF717
:1018D000B0FA022209212D48FFF7ABFA4FF47070DD
:1018E000099002208DF8280001208DF82B0003209C
:1018F0008DF8290009A92548FFF753FAA8B2ADF8D9
:1019000018000020ADF81A000794ADF820008DF8FB
:10191000220006A91E4800F0F3F96020ADF804008B
:101920000120ADF806000020ADF80800ADF8100069
:101930000820ADF812000020ADF814000390082133
:10194000134800F0C9F801A9114800F087F80821F0
:101950000F4800F01DF901A90D4800F0C7F8082153
:101960000B4800F073F901A9094800F01FF908219C
:10197000074800F0B1F901A9054800F071F901210B
:10198000034800F04DF80BB030BD000000080240E5
:101990000004004010B51648008820F001001449EA
:1019A000088000BF72B613480068401C11490860E7
:1019B00000BF0F481430006884B22146002002F0B6
:1019C00043F90D4800680A49243108600A48406814
:1019D000091D086008488068091D086000BF0548A7
:1019E0000068401E0349086000B962B600BF10BD20
:1019F00010040140600000201011002021B1028875
:101A000042F08002028004E002884FF67F731A40A1
:101A100002807047CA4302827047CA4302827047FD
:101A200021B1028842F00102028004E002884FF6F0
:101A3000FE731A400280704730B502460020002332
:101A40000024158A05EA0103958905EA010413B10A
:101A50000CB1012000E0002030BD000070B5002472
:101A600000220023058C4FF6FE7635400584028C5B
:101A70008388048B4FF68F752C40B51E2C400D8843
:101A80002C43751E2A408D892A434D882A43104DC8
:101A9000A84202D00F4DA84213D14FF6F7752A4045
:101AA000CD892A434FF6FB752A408D882A434FF68D
:101AB000FF652B404FF6FF552B400D8A2B434D8A77
:101AC0002B43838004838D684563028470BD0000CE
:101AD00000000140000401400A460021018B4FF63E
:101AE000F7731940114301837047000070B500245B
:101AF00000220023058C4FF6EF7635400584028CDA
:101B00008388048B48F6FF752C404FF6FF452C4028
:101B10000D884FF6FF7606EA05252C434FF6DF7554
:101B20002A408D8906EA05152A434D8806EA0515DF
:101B30002A43154DA84202D0144DA8421DD14FF69C
:101B40007F752A40CD894FF6FF7606EA05152A43B0
:101B50004FF6BF752A408D8806EA05152A434FF6D1
:101B6000FF352B404FF2FF752B400D8A06EA8505A5
:101B70002B434D8A06EA85052B43838004838D68B9
:101B80008563028470BD0000000001400004014034
:101B90000A460021018B4FF2FF7319404FF6FF7385
:101BA00003EA0223194301837047000070B5002443
:101BB00000220023058C4FF6FF6635400584028C19
:101BC0008388848B4FF68F752C404FF6FC752C4024
:101BD0000D882C434FF6FF552A408D894FF6FF762E
:101BE00006EA05252A434D8806EA05252A43154DB0
:101BF000A84202D0144DA8421DD14FF2FF752A40D1
:101C0000CD894FF6FF7606EA05252A434FF6FF35C4
:101C10002A408D8806EA05252A434EF6FF752B409B
:101C20004DF6FF752B400D8A06EA05152B434D8AAC
:101C300006EA05152B43838084838D68C56302847F
:101C400070BD000000000140000401400A46002170
:101C5000818B4FF6F7731940114381837047000061
:101C600070B5002200230024058C4EF6FF76354027
:101C70000584038C8488828B48F6FF752A404FF6D2
:101C8000FF452A400D884FF6FF7606EA05252A43D0
:101C90004DF6FF752B408D8906EA05352B434D889F
:101CA00006EA05352B430A4DA84202D0094DA84249
:101CB00008D14BF6FF752C400D8A4FF6FF7606EAE9
:101CC00085152C43848082838D680564038470BDF0
:101CD00000000140000401400A460021818B4FF2C0
:101CE000FF7319404FF6FF7303EA02231943818300
:101CF00070474163704781637047C163704700005C
:101D000000220288184B98420ED0184B98420BD0F4
:101D1000B0F1804F08D0164B984205D0154B984231
:101D200002D0154B984204D14FF68F731A404B885E
:101D30001A43124B984207D0114B984204D04FF6E9
:101D4000FF431A400B891A4302804B68C3620B8819
:101D50000385054B984202D0044B984201D18B7AFF
:101D60000386012383827047000001400004014084
:101D70000004004000080040000C0040001000403B
:101D80000014004010B540F22551314800F010F920
:101D900000285CD02E4800F0C5F92E4908702E4866
:101DA000008800F4004088BB2B48008800F4804085
:101DB00070B1084600780A2803D000202649088020
:101DC00024E02548008840F40040234908801DE0B5
:101DD000204800780D2806D11F48008840F4804034
:101DE0001D49088012E01B4800781B490988C1F38F
:101DF0000D011A4A505418480088401C16490880A2
:101E000008460088C72801DD0020088011480078B6
:101E1000282803D11020FFF733FB18E00D48007885
:101E2000292803D12020FFF72BFB10E00948007878
:101E3000302804D14FF48050FFF722FB07E005481B
:101E40000078312803D14FF40050FFF719FB10BD83
:101E5000001001409E0000209C000020422F002026
:101E600010B51C48008800F0080018B11948001D82
:101E70000088C4B240F22551164800F099F840B1EC
:101E800040F22551134800F05BF81248001D00880D
:101E9000C4B240F227710F4800F08AF8C0B10E4872
:101EA00001780078401C0C4A10700C48405C0949CD
:101EB000091D08801046007809490978884207D131
:101EC00004480C30008820F0800002490C31088062
:101ED00010BD000000440040820000209E29002028
:101EE0008300002010B511480088114908700F4880
:101EF000001F0088087000210E48FEF763FD0120D6
:101F00000D4908700D490B48FEF742FD00BF094816
:101F1000FEF763FD0028FAD14FF400710548FEF783
:101F200066FD01210348FEF74DFD10BD0448004049
:101F3000880000202860024085000020000C00106E
:101F400010B50022002340F66A14A14200D100BF60
:101F50000A1201249440A3B2DC43048010BD10B5E2
:101F600002460020108A20F470600B884C882343BE
:101F70008C882343CC8823431843108210BD21B1A1
:101F8000828942F40052828104E082894DF6FF7317
:101F90001A408281704702460020B1F5007F00D1CF
:101FA00000BF13880B400BB1012000E000207047F8
:101FB00070B50246002400230025002040F66A1672
:101FC000B14200D100BFC1F3421501F01F03012649
:101FD00006FA03F3012D02D19689334006E0022D63
:101FE00002D1168A334001E0968A33400C12012652
:101FF00006FA04F41688344013B10CB1012000E055
:10200000002070BDF0B50346002400260025002006
:1020100040F66A17B94200D100BF1846C1F3421416
:1020200001F01F06012707FA06F5012C01D10C303B
:1020300004E0022C01D1103000E014301AB107681E
:102040002F43076002E00768AF430760F0BD000060
:102050002DE9FF4705460E460024A14600BFA046D5
:10206000B08900B100BF2C8A24F44054F0880443A6
:102070002C82AC8941F20C608443B08831890843DA
:10208000718908430443AC81AC8A24F44074B0895C
:102090000443AC826846FFF761F92048854202D0CC
:1020A0001F48854202D1DDF80C9001E0DDF8089070
:1020B000A88900F4004040B109EBC90000EB091009
:1020C00031684900B0FBF1F707E009EBC90000EB0C
:1020D000091031688900B0FBF1F76420B7FBF0F01C
:1020E00004012009642101FB1078A88900F4004054
:1020F00040B1322000EBC800B0FBF1F000F0070067
:10210000044308E0322000EB08106421B0FBF1F03A
:1021100000F00F0004432C81BDE8FF870010014050
:102120000014014001468888C0F308007047C1F3DD
:1021300008028280704700BFFEE7000010B58AB039
:10214000044601214804FFF7E9F801210820FFF7C0
:10215000D5F826208DF80C0002208DF80D00002007
:102160008DF80E0001208DF80F0003A8FFF77EF810
:10217000072205212B48FEF75CFE0722062129488D
:10218000FEF757FE2020019002208DF808008DF800
:10219000090000208DF80A0001208DF80B0001A92C
:1021A0002048FEF7FEFD4020019002208DF8080037
:1021B0008DF8090001208DF80A0000208DF80B0031
:1021C00001A91848FEF7EDFD06940020ADF81C00AB
:1021D000ADF81E00ADF82000ADF824000C20ADF8DD
:1021E00022000020ADF81000ADF812004FF400708E
:1021F000ADF814000020ADF8160006A90A48FFF754
:1022000027FF04A90848FFF7AAFE012240F2255142
:102210000548FFF7F7FE01210348FFF7B0FE0AB0BB
:1022200010BD0000000C02400044004003B40198BF
:102230004100009850EAC12018BF04204A0D18BF81
:1022400040F0010040F2FF72B2EB515F08BF40F076
:102250000200012808BF052002B0704700000000FE
:102260002DE9F04D2DED040B2DED0E8B96B0DDE933
:102270002550279CDDF890A025F0004624F000486A
:10228000BAF1000F14BF0121002101EB4502FC4906
:1022900053184A1093422AD3002814BF0123002365
:1022A00003EB44030B44F7498B4220D358EA000167
:1022B0009FEDF59B76D0DFF8D8B35D4503D1BAF139
:1022C000000F05D188E0BAF1000F08BF002100D04F
:1022D000012101EB450111F5001F08D8002814BFAA
:1022E0000121002101EB440111F5001F0BD99DEDE7
:1022F000261B9DED240B16B0BDEC0E8B04B0BDE883
:10230000F04D01F043BA0027002DBCBFE1498845DC
:1023100021DAE1498845A8BF02271CDAC3451ADC47
:10232000DE4901EB2851142908DDC1F1340220FAFD
:1023300002F101FA02F282420DD108E058B9C1F16E
:10234000140228FA02F101FA02F2424503D101F027
:102350000101C1F1020756EA0A0124D1002C22DA58
:10236000002D18BF022F01D0012F0AD00220FEF746
:1023700047F816B0BDEC0E8B04B0BDE8F04D01F08F
:10238000E3B90220FEF73CF801F0DEF951EC100B46
:1023900001F074FC41EC100B16B0BDEC0E8B04B0D8
:1023A000BDE8F08D18E09FEDBEAB9FEDBF8B002820
:1023B00071D1B848804522D105F1804010F58010D8
:1023C00008BFBAF1000F07D0B3450ADC002CA8BF44
:1023D0009DED260BE0DA0DE0B0EE490AF0EE690A59
:1023E000DAE7002C06DA9DED260B51EC100B01F01C
:1023F00045FC6FE0AE48784490ED000BCCE7D84543
:102400004DD1002C48DA2EB186423AD1BAF1000FF4
:1024100042D126E0BAF1000F13D00220FDF7F0FF01
:1024200001F0CEF98DED020B9DED240B8DED000B2F
:1024300010EE900A039961F31E0003909DED020BCC
:10244000AAE78DED02AB9DED240B1AEE901A10EE6B
:10245000900A8DED000B61F31E0003909DED020BC1
:102460009AE78DED028B9DED240B18EE901A10EE7D
:10247000900A8DED000B61F31E0003909DED020BA1
:102480008AE709DA9DED240B51EC190B53EC102B64
:1024900001F0EEFC1EE020E09DED240B7CE786427F
:1024A0001BDAB4F1804F0DD0A4F10050B0F1FF5011
:1024B00013D1002D11DB9DED240B51EC100B01F01D
:1024C000EBFA07E09DED240B53EC102B51EC100BB5
:1024D00000F0C2BC41EC100B5EE79DED240B51EC0B
:1024E000100B01F0D3F9BAF1000FCDE90E0142D182
:1024F0009FED710B46B3A6F1E040B0F17F600CD0C8
:102500005E4538D1002D00DAA7B3022F0CBF0120A1
:102510004FF0FF3001F061FEDCE7002D01DD002C03
:102520000DDA002D01DD002C1FDB002D16DA002C4A
:1025300014DB012F08BF9FED620B3FF42DAFB0EE0F
:102540004A0AF0EE6A0A27E7022F18BF002D0CD0C6
:10255000012F0AD1002DFFF61FAF06E0002DB8BFF6
:10256000002C08DA012F3FF417AFB0EE480AF0EE66
:10257000680A11E71BE0012000EBE57050EA070153
:1025800015D0791EB0EE498AF0EE698A084308BF7B
:102590009FED4D8B4E480025804570DD4D494E48DE
:1025A000884514DDB0420DDB002C19DB2FE0012043
:1025B000FDF726FF16B0BDEC0E8B04B0BDE8F04D64
:1025C00001F0EEB8B34502DC002C09DC1FE08642C6
:1025D00002DA002C1BDA03E05E452BDD002C16DD51
:1025E0000220FDF70DFF01F0EBF88DED020B53EC2F
:1025F0001A2B51EC180B01F057FECDE9000103999D
:10260000019861F31E0003909DED020BC4E60220C9
:10261000FDF7F6FE01F0E4F810EE901A18EE900ABD
:102620008DED020B8DED008B61F31E0003909DED8F
:10263000020BB1E69DED0E0B53EC192B51EC100B78
:1026400002F03EF89FED260BCDE9080153EC102B6C
:102650009DED080B51EC100B01F026FE9FED221BA7
:1026600053EC112B01F054FF9DED081B53EC112B83
:1026700001F01AFE9FED1E1B53EC112B3CE08CE089
:10268000FFFF1F00FFFF0F00000000000000F03FF1
:102690000000F03F0000F07F0000404301FCFFFF1E
:1026A000000000000000F07F0000000000000000BB
:1026B0005E26000000000000000000000000008016
:1026C000000000000000F0FF000000000000F0BF6C
:1026D0000000E0410000F043FFFFEF3F000000007A
:1026E000000000000000D03F555555555555D53FC9
:1026F000000000000000E03F01F00AFF9DED080B24
:1027000041EC1A0B53EC102B51EC100B01F0CCFDEB
:1027100053EC1A2B01F0C8FD41EC1A0B9FEDFE0B98
:1027200053EC102B9DED080B51EC100B01F0BCFD90
:1027300041EC1B0B9FEDFA0B51EC1A0B53EC102BD9
:1027400001F0B2FD41EC1A0B9FEDF70B53EC102B8F
:102750009DED080B51EC100B01F0A6FD53EC1A2B6C
:1027600001F0AEFF41EC1A0B51EC1B0B53EC1A2B92
:1027700001F0C2FA0690CDE906519DED060B53EC2F
:102780001B2B51EC100B01F09BFF53EC1A2B01F0AB
:10279000BFFE41EC100B00F0A1B90020B6F5801F80
:1027A0000EDA9FEDE30B53EC102B9DED0E0B51EC6D
:1027B000100B01F079FDCDE90E016FF034000E46EB
:1027C00000EB2650A0F2FF37C6F31300DA4940F0C1
:1027D0007F6646F040568842D8BF002408DDD749BE
:1027E0008142C8BF012403DC0024A6F580167F1CAB
:1027F000D348784400EBC4000F9690ED00CB9DEDDC
:102800000E0B53EC1C2B51EC100B01F059FF9DEDFE
:102810000E0B41EC1B0B53EC1C2B51EC100B01F07D
:102820006BFA41EC100B51EC190B53EC102B01F02F
:102830001FFB41EC1D0B51EC1B0B53EC1D2B01F04E
:1028400033FD41EC1A0BBF488DED10AB7844109569
:1028500090ED000B4FF0005040EA660000EB844022
:102860008DED080B00F5002009909DED080B53EC51
:102870001C2B51EC100B01F023FF9DED0E1B53ECB4
:10288000112B01F045FE41EC100B53EC102B9DED8C
:10289000100B51EC100B01F007FD9DED080B41EC06
:1028A0001C0B53EC102B9DED100B51EC100B01F099
:1028B000FBFC53EC1B2B01F02BFE53EC1C2B01F00B
:1028C000FFFE53EC1D2B01F0EFFC41EC1C0B53EC15
:1028D0001A2B51EC1A0B01F0E7FC41EC1B0B9A4848
:1028E0000621B0EE4B0AF0EE6B0A784400F018FEB9
:1028F000B0EE401AF0EE601AB0EE41DAF0EE61DAB6
:1029000053EC1B2B51EC1B0B01F0CEFC53EC1D2B9D
:1029100001F0CAFC9DED100B41EC1B0B53EC1A2B84
:1029200051EC100B01F0E8F953EC1C2B01F0BCFC4E
:1029300053EC1B2B01F0E0F99DED100B41EC1B0B50
:1029400053EC102B51EC100B01F0AEFC41EC1D0BC5
:102950009FED7FEB53EC1E2B01F0CEF953EC1B2BBC
:1029600001F0CAF90890CDE908519DED080B53EC30
:102970001E2B51EC100B01F0A3FE53EC1D2B01F0AC
:102980009FFE53EC1B2B01F0C3FD9DED080B41ECAA
:102990001D0B53EC102B9DED100B51EC100B01F0A7
:1029A00083FC41EC1B0B53EC1A2B51EC1D0B01F07B
:1029B0007BFC9DED080B41EC1A0B53EC102B51ECFA
:1029C0001C0B01F071FC53EC1A2B01F095F941EC52
:1029D0001A0B51EC1B0B53EC1A2B01F08DF90C90D8
:1029E000CDE90C519DED0C0B53EC1B2B51EC100B56
:1029F00001F066FE53EC1A2B01F08AFD41EC1B0B33
:102A00009FED550B53EC102B9DED0C0B51EC100B67
:102A100001F04AFC41EC1A0B9FED510B51EC1B0BE2
:102A200053EC102B01F040FC41EC1B0B9FED4E0BC7
:102A300053EC102B9DED0C0B51EC100B01F034FC02
:102A400053EC1B2B01F058F941EC100B484878442B
:102A500000EBC40090ED001B51EC100B53EC112B5C
:102A600001F04AF941EC1B0B384601F0B6FBCDE909
:102A7000080153EC1B2B51EC1A0B01F03DF941EC12
:102A8000100B3C48784400EBC40090ED00CB51ECB7
:102A9000100B53EC1C2B01F02FF99DED081B53EC90
:102AA000112B01F029F90690CDE906519DED080B97
:102AB00053EC102B9DED060B51EC100B01F000FEBA
:102AC00053EC1C2B01F0FCFD53EC1A2B01F0F8FD2C
:102AD00053EC1B2B01F01CFD41EC100B9DED261B54
:102AE00053EC102B8DED001B00959DED260B51EC4A
:102AF000100B01F0D9FB9DED000B41EC1A0B53ECD0
:102B0000102B9DED260B51EC100B01F0D9FD9DED26
:102B1000061B53EC112B2FE0000000604715F73F18
:102B2000FE822B654715F73F44DF5DF80BAE543E40
:102B300000000000000040438E9803007AB60B00AE
:102B4000AA21000008220000E2200000000000008E
:102B50000000000000000840000000E009C7EE3F50
:102B6000FD033ADC09C7EE3FF5015B14E02F3EBEE2
:102B70006E1F0000281F000001F096FB53EC1A2B7B
:102B800001F0BAF89DED060B41EC1A0B53EC102B3B
:102B90009DED000B51EC100B01F086FBCDE90C0113
:102BA0009DED0C0B51EC1A0B53EC102B01F0A4F81B
:102BB000CDE902010C46AA498C422FDB611A084379
:102BC00018D19DED0C0B53EC102B9DED020B51EC2D
:102BD000100B01F075FD41EC1B0B9FEDA30B51ECAD
:102BE0001A0B53EC102B01F087F853EC1B2B01F060
:102BF00059FC2DD20220FDF703FC00F0E1FD10EEA0
:102C0000901A18EE900A8DED020B8DED008B61F39A
:102C10001E0003909DED020BFFF7BEBB944A24F00B
:102C20000041914214D39349214408437FF4EFAC0F
:102C30009DED0C0B53EC102B9DED020B51EC100B8A
:102C400001F03EFD53EC1A2B01F02CFC7FF6DFACBB
:102C500024F000408849894A002601EB2051824235
:102C60002BDA481C4FF4801121FA00F02044844AEA
:102C7000C0F30A517A44A1F2FF3192ED000B814A70
:102C80008DED080BCA4020EA0202C0F3130040F4A5
:102C90008010C1F1140120FA01F60992002CB8BF8E
:102CA00076429DED080B53EC102B9DED0C0B51EC77
:102CB000100B01F005FDCDE90C019DED0C0B51EC65
:102CC0001A0B53EC102B01F017F89FED6F0B0890C7
:102CD000CDE9085153EC102B9DED080B51EC100B76
:102CE00001F0E2FA41EC1B0B9FED690B53EC102B4A
:102CF0009DED080B51EC100B01F0D6FA9DED0C0B7D
:102D000041EC1C0B53EC102B9DED080B51EC100B00
:102D100001F0D6FC53EC1A2B01F0FAFB9FED5E1B81
:102D200053EC112B01F0C0FA53EC1C2B00F0E4FF24
:102D300041EC1A0B51EC1B0B53EC1A2B00F0DCFF8F
:102D4000CDE902019DED020B53EC1B2B51EC100B56
:102D500001F0B6FC53EC1A2B01F0DAFB9DED020BEF
:102D600041EC1A0B53EC102B51EC100B01F09CFAB8
:102D7000CDE908014A489DED080B0521784400F093
:102D8000CFFB9DED081B51EC100B53EC112B01F008
:102D90008BFA9DED021B53EC112B01F0B9FBCDE931
:102DA00006019DED020B53EC1A2B51EC100B01F0B8
:102DB0007BFA53EC1A2B00F09FFF9FED3B0B41EC8D
:102DC0001A0B53EC102B9DED060B51EC100B01F080
:102DD00077FC9DED060B41EC1B0B53EC102B9DED8E
:102DE000020B51EC100B01F05FFA53EC1B2B01F0BE
:102DF0003FF853EC1A2B01F063FC9DED021B53ECE2
:102E0000112B01F05DFC53EC192B01F081FBCDE996
:102E1000020101EB065001150029C8BF039015DC23
:102E20009DED020B324651EC100B01F06FFDFFF7E8
:102E3000FDF9042808BF00F0D3FC32469DED020BDB
:102E400051EC100B01F062FDCDE902019DED020B8A
:102E500051EC180B53EC102B01F026FAFFF73ABB9C
:102E60000000904000000000FE822B654715973C53
:102E700000CC904000346F3F01FCFFFF0000E03FBA
:102E8000E01D0000FFFF0F0000000000432EE63FA2
:102E9000396CA80C615C20BEEF39FAFE422EE63F89
:102EA000801C000000000000000000000000004046
:102EB00010B52F499FED2C1B2DED020B84B005980A
:102EC00020F000408842DCBF00209DED040B32DD85
:102ED0002849884209D1049840B94FF00100FDF714
:102EE0008FFA00F05DFC06B010BD05DB9DED040B14
:102EF00000F042FC06B010BD68469DED040B00F0EA
:102F00003BF810F0030011D0012818D09DED021BF2
:102F10009DED000B02281AD000F04AFA51EC100B7C
:102F200000F0ACFE06B041EC100B10BD9DED021B95
:102F30009DED000B012000F06FFB06B010BD9DED74
:102F4000021B9DED000B00F033FA06B010BD01200E
:102F500000F062FB51EC100B00F090FE06B041EC6B
:102F6000100B10BD00000000000000000000000079
:102F7000FB21E93F0000F07F2DE9F14F04462DEDE4
:102F8000020B2DED088B8AB09FEDE70B80ED020B55
:102F9000139EE74826F0004585420ADC9DED120BA2
:102FA000002084ED000B0AB0BDEC088B03B0BDE837
:102FB000F08FE0489FEDE0AB9FEDE1BBA84247DD1D
:102FC000E14F9FEDE39B9FEDE48B9DED120B53ECE6
:102FD0001A2B51EC100B002E1CDD01F071FB41ECA3
:102FE000100BBD4208D053EC1B2B51EC100B01F021
:102FF00067FBC4E900010BE053EC192B51EC100BFB
:1030000001F05EFB53EC182B01F05AFBC4E9000100
:103010000120C8E700F070FE41EC100BBD4208D063
:1030200053EC1B2B51EC100B00F066FEC4E90001C1
:103030000BE053EC192B51EC100B00F05DFE53EC40
:10304000182B00F059FEC4E900014FF0FF30AAE749
:10305000C348A84279DB9DED120B51EC100B00F038
:1030600015FC41EC180B9FEDC00B53EC102B01F03D
:103070001BF99FEDBF1B53EC112B00F03DFE01F03F
:103080004FF8074601F0A9F841EC190B53EC1A2B45
:1030900001F00AF953EC182B01F03AFA41EC180B45
:1030A00053EC1B2B51EC190B01F0FEF8DFF8C8A212
:1030B00041EC100B4FEA15580125FA4453EC102B44
:1030C00051EC180B01F0FCFA032DC4E900013DD0CE
:1030D000C1F30A5005EB4511A8EB000011398142FC
:1030E00034DA0AEB051BB0EE48AA9BED000BF0EEBC
:1030F00068AA53EC102B51EC190B01F0D5F841ECF8
:103100001B0B51EC1A0B53EC1B2B01F0D9FA41ECC1
:10311000180B51EC1A0B53EC182B01F0D1FA53ECAD
:103120001B2B01F0CDFA9BED020B41EC1A0B53EC7B
:10313000102B51EC190B01F0B7F853EC1A2B01F0DE
:10314000BFFA41EC100B6D1CB8E70EE0002EA8BFD3
:103150003846BFF628AF94ED000B51EC100B00F091
:103160008DFDC4E9000178421DE7C6F3130040F469
:10317000801EC6F30A50A0F2F530471100F01F057B
:10318000C5F12000DDF848B00890002006900790B7
:103190000520EC467949002D07EB0002794408BF71
:1031A00051F8221009D051F8223001EB8201AB40D6
:1031B0004A68089922FA01F11943A1FB0E26A1FBE6
:1031C0000B131A449A4234BF0123002303EB060871
:1031D0000CEB8003D3E901A60E448E4234BF0121DB
:1031E000002192448A4411B1924502D903E09245EC
:1031F00001D2012100E00021C3E901A641444CF8BD
:103200002010011EA0F10100C4DC029800F1005062
:10321000850F0298DDE903678000DDF8148000F077
:10322000DCFF41EC1A0B304600F0EEFF9FED541B23
:1032300053EC112B01F038F841EC1B0B384600F031
:10324000E3FF9FED511B53EC112B01F02DF841ECE6
:10325000180B404600F0D8FF9FED4D1B53EC112B8F
:1032600001F022F841EC190B51EC180B53EC192B1F
:1032700000F042FD53EC1B2B00F03EFD53EC1A2BEB
:1032800000F03AFDCDE90801002008909DED080B03
:1032900053EC1A2B51EC100B01F012FA53EC1B2BD0
:1032A00001F00EFA53EC182B01F00AFA53EC192B2B
:1032B00001F02EF99FED381B53EC112B00F0F4FFB9
:1032C0009FED370B41EC180B53EC102B9DED080BC9
:1032D00051EC100B00F0E8FF53EC182B00F00CFD44
:1032E0009FED310B41EC180B53EC102B9DED080BAF
:1032F00051EC100B00F0D8FF53EC182B00F0FCFC45
:1033000041EC100B139810F0004F06D06D4251ECB9
:10331000100B00F0B3FC41EC100B284684ED000BC1
:1033200041E6000000000000000000000000000076
:10333000FB21E93F7CD9024000004054FB21F93FCA
:103340003163621A61B4D03DFB21F93F00000000F7
:103350000000601A61B4D03D7370032E8A19A33B3C
:10336000FB2139410000000083C8C96D305FE43F94
:10337000000000000000E03FA2190000F01800006B
:10338000000000000000103E000000000000103CA3
:10339000000000000000103A182D4454FB21F93DB4
:1033A0003326A611460B113C00000054FB21F93DC9
:1033B00010B52DED040B2DED088B82B0B0EE419AC7
:1033C000F0EE619A0B9820F000449FED4BABB4F106
:1033D000795F11DA9DED0A0B51EC100B00F0A0FEA5
:1033E000002801BFB0EE4A0AF0EE6A0A02B0BDEC56
:1033F000088B04BF04B010BD9DED0A0B53EC102BDD
:1034000051EC100B00F050FF41EC180B3C4806212A
:10341000B0EE480AF0EE680A784400F081F853EC08
:10342000182B51EC100B00F03FFF9DED0A0B41EC07
:103430001B0B53EC192B51EC100B00F035FF41EC3A
:10344000190B53EC1B2B51EC180B00F02DFF53EC18
:10345000192B01F035F99FED2C0B41EC190B53ECB6
:10346000102B51EC180B00F01FFF41EC100B2848FB
:10347000844210DA53EC192B51EC100B01F020F9B7
:1034800053EC1A2B01F044F841EC100B02B0BDECE8
:10349000088B04B010BD1F48A042BCBF9FED1E1B8F
:1034A0008DED001B06DBA4F50010019000200090BC
:1034B0009DED001B51EC100B53EC112B01F000F9AA
:1034C0009DED000B41EC180B53EC102B51EC1A0B3B
:1034D00001F0F6F841EC1A0B53EC192B51EC180BD8
:1034E00001F0EEF853EC1A2B01F012F841EC100B3E
:1034F000CCE7000000000000000000000000F03FEA
:103500000C16000000000000000000000000E03F7A
:103510003333D33F0000E93F000000000000D23FFA
:1035200070B504462DED028B4D1E00EBC500B0EECC
:10353000408AF0EE608A90ED000B35F0060017D05F
:1035400053EC182B51EC100B00F0AEFE41EC100BBD
:103550006D1E04EBC50090ED001B51EC100B53ECFD
:10356000112B00F0C9FB41EC100B35F00600E7D140
:10357000022D36D0042D1CD0062D1CBFBDEC028BB5
:1035800070BD53EC182B51EC100B00F08DFE94ED38
:103590000A1B53EC112B00F0AFFB53EC182B00F07F
:1035A00083FE94ED081B53EC112B00F0A5FB41ECBE
:1035B000100B53EC182B51EC100B00F075FE94ED32
:1035C000061B53EC112B00F097FB53EC182B00F06B
:1035D0006BFE94ED040B53EC102B00F08DFB41ECD3
:1035E000100B53EC182B51EC100B00F05DFE94ED1A
:1035F000021B53EC112B00F07FFB53EC182B00F057
:1036000053FE94ED001B53EC112B00F075FBBDEC49
:10361000028B41EC100B70BD31B504462DED040B4F
:103620002DED0A8BB0EE41BAF0EE61BA0B989DED2C
:103630000A0B20F00040B0F1795F0DDA51EC100B6D
:10364000FEF7F4FD042808BF00F0CAF89DED0A0B50
:10365000BDEC0A8B05B030BD53EC102B51EC100BB8
:1036600000F022FE41EC180B9DED0A0B53EC182BD9
:1036700051EC100B00F018FE41EC190B2C48B0EE89
:10368000480AF0EE680A05217844FFF749FF9FEDEC
:103690002ACBB0EE40AAF0EE60AA9CB353EC1C2BF0
:1036A00051EC190B00F000FE41EC1C0B53EC1A2BF3
:1036B00051EC190B00F0F8FD9FED210B41EC190BBB
:1036C00053EC102B51EC1B0B00F0EEFD53EC192BBF
:1036D00000F0F6FF53EC182B00F0E6FD53EC1B2B2B
:1036E00000F0EEFF53EC1C2B00F0EAFF9DED0A1BEF
:1036F00053EC112B00F00CFFBDEC0A8B05B041EC34
:10370000100B30BDFFE753EC1A2B51EC180B00F0F7
:10371000CBFD53EC1C2B00F0EFFA53EC192B00F00F
:10372000C3FD9DED0A1B53EC112B00F0E5FAE3E716
:103730009C14000000000000495555555555C5BF63
:10374000000000000000E03F9FED070B10B553ECB8
:10375000102B9FED070B51EC100B00F089FB41EC97
:10376000100B10BD00000000000000000000000071
:10377000000000000000F03F10B553EC102B51EC9E
:10378000100B00F0B9FA41EC100B10BD10B553EC62
:10379000112B51EC100B00F0AFFA41EC100B10BDE7
:1037A0009FED050B10B553EC102B51EC100B00F0F6
:1037B0005FFB41EC100B10BD00000000000000009A
:1037C0009FED050B10B553EC102B51EC100B00F0D6
:1037D0006BFD41EC100B10BD0000000000000070FC
:1037E0009FED050B10B553EC102B51EC100B00F0B6
:1037F0005BFD41EC100B10BD00000000000000104C
:1038000000BF704710B504466FF00400FDF78EFF4F
:10381000E11704EB5171C1F3C701074A117010465B
:10382000007800EB4001C1EBC0104FF6FF7101EAD8
:10383000C0000249088010BD9400002096000020BE
:103840001CB501211020FDF759FD0C20009001202E
:103850008DF8040000208DF8060003208DF8050087
:1038600001208DF8070069460348FDF79AFA0C21FC
:103870000148FDF701FB1CBD0010024010B50248D5
:10388000FDF7EAFD10BD00008C2E002082B0CDE9CE
:10389000000121F0004001909DED000B02B051ECC1
:1038A000100B704700BF054A128802F04002002A40
:1038B000F9D0C2B2014B9A8070470000001001405D
:1038C0004FF4A060FDF70EFD4FF4E13000F066F913
:1038D000A820FFF797FFFDF7B3FFFDF727FB0C4983
:1038E0000860FDF737FFFDF747F801200949087028
:1038F000FDF7B3FCFFF7A4FF4FF4E130FEF71EFC29
:10390000FCF7C0FEFFF7BAFF01E0FDF70BF9FCE79B
:10391000180000201C00002010B54448B0F9000039
:103920004249B1F90610084400EE100AB8EEC00A88
:10393000F0EE000A80EE201ABDEEC10A10EE100A69
:1039400000B23B4908803948B0F902003749B1F963
:103950000810084400EE100AB8EEC00AF0EE000AA3
:1039600080EE201ABDEEC10A10EE100A00B23049F6
:1039700048802E48B0F904002C49B1F90A100844D7
:1039800000EE100AB8EEC00AF0EE000A80EE201A2F
:10399000BDEEC10A10EE100A00B225498880B7EECC
:1039A000000A10EE100AC1F806002048B0F9000025
:1039B0001E49B1F90610401A00EE100AF8EEC00ACE
:1039C0001A48B0F902001949B1F90810401A00EE7E
:1039D000100AB8EEC01A80EE810A10EE100A1449DF
:1039E000C1F80A001148B0F900001049B1F90610F9
:1039F000401A00EE100AF8EEC00A0C48B0F90400B4
:103A00000A49B1F90A10401A00EE100AB8EEC01ABD
:103A100080EE810A10EE100A0549C1F80E005A2006
:103A2000887404A0FCF728FC022010BD3E2E002064
:103A30001C2F00206F75744D61672D63616C6920C8
:103A4000656E640010B54FF47040074908804880E7
:103A500088804FF48050C8800881488103A0FCF71B
:103A60000BFC022010BD00003E2E00204D61672D92
:103A700063616C69207374617274000010B5044650
:103A800034B1132221460348FCF736FCFCF768FEEC
:103A900010BD0000C32E002000B52DED048B83B0B7
:103AA00041EC190B00F040FD41EC180B18EE100A28
:103AB00018EE901A8DED008B002818BF01200843E6
:103AC00020F00040C0F17F6000F1E040C00F14D052
:103AD00019EE101A19EE900A8DED009B002918BFFF
:103AE0000121084320F00040C0F17F6000F1E04078
:103AF000C00F04BF0120FCF783FC51EC180B03B08E
:103B0000BDEC048B00BD000010B51F48007800B963
:103B100010BD1E48006840F2E731884207DA1B48B2
:103B20000068401C19490860FDF712FA29E00020DE
:103B300016490860164800683B2805DA14480068F2
:103B4000401C134908601CE000201149086011481E
:103B500000683B2805DA0F480068401C0D490860E2
:103B60000FE000200B4908600B480068172805DAB1
:103B700009480068401C0849086002E00020064926
:103B8000086000BFC4E700001C0000205C000020AB
:103B900058000020540000205000002010B588B0CC
:103BA000044601210846FDF7A9FB01211020FDF77D
:103BB000C5FB072209212248FDF73BF907220A210C
:103BC0001F48FDF736F94FF4C060069002208DF8CB
:103BD0001C008DF81D0000208DF81E0001208DF8BE
:103BE0001F0006A91648FDF7DCF802940020ADF886
:103BF0000C00ADF80E00ADF81000ADF814000C206C
:103C0000ADF8120002A90F48FEF722FA01210D4873
:103C1000FEF7B5F9012240F225510A48FEF7F2F904
:103C200025208DF8040003208DF805008DF806008E
:103C300001208DF8070001A8FDF718FB08B010BDA2
:103C40000000024000100140034A52F82020521C9C
:103C5000014B43F8202070474C11002010B504465A
:103C600000BF40210448FEF796F90028F9D021460C
:103C70000148FEF75CFA10BD0010014081F00041E0
:103C8000704780F00040704721F00041704720F0FD
:103C90000040704721F00042A2F16052B2F5801F4F
:103CA00001F0004328BFD2F17F6C0BD95FEA001C02
:103CB00043EAC20242EB507018BF704728BF20F0A1
:103CC00001007047B2F5801FBCBF184670474FEA2D
:103CD000410C1CF5001F02D2084600F0E0BD70B593
:103CE00000F08CFB00000089FFF7F6BF4FF00040AA
:103CF000A0F580007047000010B591EA030F48BF9F
:103D000083F0004300F1E484841A71EB030C05D2C4
:103D1000121943EB0C03001B61EB0C01DFF824E1EB
:103D20004FEA1154A4EB135C1EEA430F18BF9EEA3E
:103D3000445F73D023EA0E03DCF1200E21EA045124
:103D400043F4801332D322FA0CFE10EB0E0023FA58
:103D50000CFE41EB0E01CCF1200E03FA0EFE10EB2F
:103D60000E0051F10001B1F5801FCCF1200E32D2CE
:103D700001EB045112FA0EF2BDE8104058BF704733
:103D8000401C38BF5FEA420218BF7047002814BFCA
:103D900020F0010041F100014FEA410313F5001F3B
:103DA00038BF7047A1F1C04100F076BB012A43EB58
:103DB0000302ACF1200CDCF11F0E32BF4FF0000EFD
:103DC00023FA0CF310EB030041EB0451B4EB115F49
:103DD000D0D0A1EB045101F5801149085FEA300011
:103DE00001EB04510ED350F1000038BF12FA0EFE61
:103DF00008D1BDE81040C9E7401C38BF5FEA420265
:103E0000CAD1C3E7BDE810404FEA410313F5001FD4
:103E100038BF7047A1F1C04100F03EBB9EEA445F4D
:103E200008D011EA5E0FBDE8104004BF01F0004168
:103E300000207047BDE8104070B500F0DFFA00BF09
:103E400064FBBE3E0000E0FF02494FF0000000F0BE
:103E50002BBD00BF0000F87F491058BFC1F14041A1
:103E60005B1058BFC3F140438B42EFF300807047B3
:103E70002DE9C04130B4DFF8A0C23CEA111418BFEC
:103E80003CEA131400F0EC8081EA03051CEA1114EB
:103E900044EAD57418BF1CEA131500F0C780A4EBE0
:103EA00005044FF0004545EAC12145EAC32341EA34
:103EB000505143EA525304F17F74994204F500349F
:103EC0004FEAC0204FEAC22208BF904200F09C8017
:103ED0004FEA13650FF24016765D4FEA134506FB75
:103EE00005F7C7F1807706FB07F74FEAD737A7FB3F
:103EF00003687642C8F58038A7FB06CE38BFA8F124
:103F0000010807FB08E64FF0000EA6FB028CE6FB5B
:103F100003CEDCF1000CCEF1004E38BFAEF1010E45
:103F2000A6FB0C584FF000074FF00005E6FB0E878C
:103F3000A1FB08C6A0FB07CE16EB0E0645F1000557
:103F4000E1FB076515F1E04E7EBFA4F580345FEA22
:103F500046066D4116F1800745F100054FEA172727
:103F60004FEA066647EA0567A6F1DE46B6F1805FCE
:103F70004FEA15251FD9384624F0010C05EBC47112
:103F8000BCF1FE6F01EB0C1102D8F0BCBDE8008162
:103F900024425CBF01F5801E9EEAC47F02D4F0BCBF
:103FA000BDE80081244238D4F0BCA1F1C041BDE895
:103FB000004100F071BA4FEAD22242EA43524FEA7E
:103FC000D323A7FB02864FEAD02040EA415007FBEB
:103FD00003661EEA0E0F4FEAD12105FB026658BFA9
:103FE000A6EB0056B6EB00564FEA520E4EEAC37EE1
:103FF00018EB0E0E56EB530EBDD518EB02085E41C2
:104000007F1C55F10005B6E74FF480154FF000070F
:104010004FF000064FF00008ADE7F0BC4FF0000095
:1040200001F1C04101F00041BDE8008111EA0C1F1F
:104030000CEA131500D00CE013EA0C1F00F02580E9
:104040004FF00000F0BC81EA030101F00041BDE83F
:104050000081F0BCBDE8004181EA030100F01CBA18
:10406000F0BCBDE8004170B500F0C8F9097EFC3E27
:1040700000F007B881EA03014FF0000001F00041B1
:10408000704781EA030100F007BAF0BCBDE80041C7
:104090004FF0000021497047FFFDFBF9F7F5F4F2FE
:1040A000F0EEEDEBE9E8E6E4E3E1E0DEDDDBDAD8D3
:1040B000D7D5D4D3D1D0CFCDCCCBCAC8C7C6C5C431
:1040C000C2C1C0BFBEBDBCBBBAB9B8B7B6B5B4B348
:1040D000B2B1B0AFAEADACABAAA9A8A8A7A6A5A433
:1040E000A3A3A2A1A09F9F9E9D9C9C9B9A999998F7
:1040F0009797969595949393929191908F8F8E8E9A
:104100008D8C8C8B8B8A8989888887878685858426
:1041100084838382828181800000FF070000F87F12
:104120004FEA41034FEA5353A3F58063D3F11E03D3
:10413000C8BFD3F1210C0CDD4FF0004242EAC1228E
:1041400042EA505232FA03FC8CEAE17CACEBE170BB
:104150007047102BC4BF0020704703F5787CBCF17A
:10416000FF3F04D06FF0004282EA2100704770B533
:1041700000F044F94992248000207047F2E70000E3
:104180004FEA1153A3F58063D3F11E03A8BFD3F107
:10419000200C08DB4FF0004242EAC12252EA5052A2
:1041A00032FA03F0704709420BD4102BC4BF002031
:1041B000704703F5787CBCF1FF3F05D04FF0FF302E
:1041C00070474FF00000704770B500F017F900BF5E
:1041D0004992248000207047F0E710F0004248BF69
:1041E0004042B0FA80F310FA03F10AD0C3F11D0384
:1041F00003F580634FEA415002EB035202EBD121F9
:1042000070474FF000007047B0FA80F310FA03F1E6
:104210000AD0C3F11D0303F580634FEA41504FEA12
:10422000035202EBD12170474FF0000070470000AD
:1042300051EA030C17D41CF5801F58BFBCF5801F32
:1042400000F10680994218BF704708BF904270473E
:1042500007D711F5801F58BF13F5801F19D4994255
:104260007047894270471CF5801F08D5BCF5801F38
:10427000F7D58B4218BF704708BF824270474FF492
:10428000001C1CEB410F38BF1CEB430F01D28B42CB
:10429000704770B500F0B2F8922449004FF0005119
:1042A0004FF08053FFF7D8BDDFF848C170B51CEA66
:1042B000111E1EBF1CEA13159EEA0C0F95EA0C0F87
:1042C00000F06F8081EA030423EA4C134EEAD47EA7
:1042D00021EA4C1141F4801143F48013AE44A1FB58
:1042E000024CA0FB0365AEF17F7E361955EB0C0541
:1042F000A1FB034C4CF10003A0FB021C16EB0C06C7
:10430000654153F10003094218BF46F0010613F45A
:10431000007F0BD14FEA03314FEA0530340341EA05
:10432000155140EA16506FF003020AE04FEAC3212C
:104330004FEAC520F40241EA555140EA56506FF069
:10434000020202EB2E4201EB025585EACE710AD041
:104350005FEA440C18BF24F0004450F1000041F122
:10436000000120EAD47040F2FE7C624500D270BDAC
:10437000A84214BF4FF080444FF04044002E08BFC5
:104380000024BEF1806FA8BFA1F1C041BDE870401C
:1043900080F282804FF0000001F1C04101F0004145
:1043A00070479EEA0C0F0CEA131518BF95EA0C0F24
:1043B00006D04FF0000081EA030E0EF0004170BD00
:1043C00000F01CF88900013E00F007B800F009B8C1
:1043D0004FEA430C5FEA5C5C08D081EA030100F01D
:1043E0005BB84FEA410C5FEA5C5CF6D14FF000002D
:1043F000014970470000FF070000F87F0EF1020E30
:104400002EF0030E5EF8046B364205D4012A43EB0E
:10441000030515F5001F12D8012841EB010C1CF50E
:10442000001F0CD80ED14FEAD17C15F5001F0CEB04
:104430004C0C0CF1020C08BF4CEBD37C04E04FF0A9
:10444000080C01E04FEAD37C0CEB4C0526FA05F68C
:1044500006F00706B6F1040C06D20EEB860CBDE89A
:1044600070404CF0010C6047DFE80CF0090B0202D1
:104470004FF000414FF00000A1F5002170BD19463A
:104480001046012851EB010418BFD4F5001484BF75
:10449000002001F0004170BD0808A0F500114FEAAE
:1044A0003101704753EA010C17D41CF5801F58BF27
:1044B000BCF5801F00F106808B4218BF704708BF13
:1044C0008242704707D713F5801F58BF11F5801F30
:1044D00019D48B4270479B4270471CF5801F08D54A
:1044E000BCF5801FF7D5994218BF704708BF9042AE
:1044F00070474FF4001C1CEB430F38BF1CEB410FFF
:1045000001D2994270470FB40CBC03BCFFF7C1BE87
:1045100091EA030F10B581F000413FF5F5AB83F050
:10452000004300F0D5B800002DE9F04101F5801CF2
:10453000BCF5001FC0F2A9804FEA115C21EA0C51C2
:104540000CF1FD0C41F480115FEA5C0C0CF5C07CB1
:1045500001D34000494130A4890241EA90518702C9
:104560008E0E0A0CA45D04FB04F602FB06F6C6F1EF
:104570004046A4FB0662F60D46EA422606FB06F418
:10458000A4FB01235242C3F1404338BF5B1EA6FB8C
:1045900002420024E6FB0324D20B42EA4446A6FB77
:1045A0000623A1FB02E2A3FB07E4E3FB61426442B2
:1045B000C2F1404E38BFAEF1010EA6FB04234FF00E
:1045C0000002E6FB0E32A2FB03463400E2FB62640B
:1045D000A1FB06E6A4FB07E8E4FB61687642C8F1AC
:1045E000405838BFA8F10108A2FB06E4A3FB08E588
:1045F000E2FB6854A1FB05E6A7FB04E8E1FB648647
:1046000018F1200556F10006A809A8F11B08B10908
:1046100008F03F08B8F10A0F40EA86601CD901EBA8
:104620000C51BDE8F08100BFFCF5EEE8E2DDD8D327
:10463000CFCBC7C3C0BDB9B6B4B1AEACA9A7A5A313
:10464000A19F9D9B9A9896959392908F8D8C8B8924
:104650008887868584838281A0FB006800FB01F245
:1046600008EB4208B8EB872807D5341858EB01044B
:10467000D5D5401C51F10001D1E7341A78EB010483
:10468000CDD4401E71F10001C9E75FEA4C0C5FEA2E
:104690009C5C0DD105D34FF0000001F00041BDE856
:1046A000F081BDE8F04170B5FFF7A8FE6DDBFFBEFD
:1046B000BDE8F0414FF00000004970470000F87F6E
:1046C00010B591EA030F48BF83F000433FF51CABE0
:1046D000841A71EB030C07D212198CF0004C43EBD7
:1046E0000C03001B61EB0C01DFF8A4E14FEA11544D
:1046F000A4EB135C1EEA430F18BF9EEA445F00F070
:10470000B08023EA6E03524221EA0451C3EB6E03E8
:1047100038BF5B1EDCF1200E25D322FA0CFE10EB15
:104720000E0043FA0CFE41EB0E01CCF1200E03FA11
:104730000EFE10EB0E0051F10001CCF1200E29D439
:1047400012FA0EF201EB0451BDE8104058BF704759
:10475000401C1CBFB2F1004F704700280CBF491C21
:1047600020F00100704712EB020E43EB030218BF6A
:104770004FF0010E4EEA4202ACF1200CDCF11E0EAD
:1047800054D943FA0CFE10EB0E0051F1FF31CCF17D
:104790001E0ED5D50EF1010E12FA0EFE404141EB70
:1047A000010101EB445C5FEA5C5C10D910EBDE7048
:1047B00001EB045138BFBEF1004FBDE8104018BFF7
:1047C000704700280CBF491C20F00100704730D210
:1047D0004FEAD42C11F5001124F400641BD0B1FA77
:1047E00081F20B3AA41AA41ED2F12003914030FAB0
:1047F00003F31943904001EBCC71002C01EB045101
:10480000BDE81040A8BF704701F1C0414FF0000063
:1048100001F000417047B0FA80F310FA03F100D1C3
:1048200010BDE41A173C4805C90AE4E701EB04513E
:1048300010BD491001EB0451BDE810404FEA3000B3
:1048400002E04FF0000170474A0008BF0042F8D074
:10485000B2F5001F28BF704701F000414FF0000083
:1048600070479EEA445F07D011EA5E0FBDE8104032
:1048700004BF002100207047BDE8104070B5FFF76D
:10488000BDFD00BF40DFF63E83F00041104670479B
:104890000000E0FF4FF04070E1EE100A7047FF218A
:1048A00041EAD050C00570470CF00F03092B08BF38
:1048B000082000F059800A2B0BD0082B18BF704736
:1048C00008BF1CF0400F0AD04FF000004FF000016D
:1048D00070471CF0400F18BF4FF0004070471CF0AD
:1048E000100F08D020F0704300F07F4242EAD3015D
:1048F0004FEA4370704700F0604021F07F4242EA87
:10490000000201F07F4040EA727070474FF0FF0CE8
:104910004CF4E06C1CEA11531CBF9CEA030C944558
:10492000C2BFDA4201EB02517047002B0DD0BCF13F
:10493000000F0FD0002A01F00041A4BF41F0E04178
:1049400041F07F614FF00000704701F000414FF0EF
:104950000000704750EA01334FF09B0C18BF4CF039
:10496000806C7FF471AA70471CF4801F11D01CF476
:10497000E02F03D06FEACC31490070474FF0405030
:10498000EFF3008222F0704242EA000282F30088D4
:1049900070474FF000007047FF010000000000006A
:1049A000000000000000F03F000000000000F83FA1
:1049B00000000000000000000000004003B8E23FDB
:1049C000000000000000000006D0CF43EBFD4C3E8D
:1049D000033333333333E33FFFAB6FDBB66DDB3F82
:1049E0004D268F515555D53F01411DA96074D13FCA
:1049F00065DBC9934A86CD3FEF4E454A287ECA3FC4
:104A00003E5555555555C53F93BDBE166CC166BF45
:104A10002CDE25AF6A56113FF16BD2C541BDBBBE3E
:104A2000D0A4BE726937663E4C5555555555A53FC5
:104A30007751C1166CC156BF9015CB19A001FA3E33
:104A4000AD529C804F7E92BEC4B1B4BD9EEE213E5D
:104A5000D43888BEE9FAA8BD0000000000000000BC
:104A600000004054FB21F93F3163621A61B4D03D2C
:104A70000000601A61B4D03D7370032E8A19A33B05
:104A80000000002E8A19A33BC14920259A837B3957
:104A900000000000000000006E83F9A22915444EBA
:104AA000D15727FCC0DD34F5999562DB4190433C3A
:104AB000AB6351FE61C5BBDE3A6E24B7E0D24D4216
:104AC000EA2E49061C92D1091CEB1DFE3EA729B116
:104AD000F53582E88444BB2E26709CE9417E5FB4A4
:104AE00039D69139F43953838B5F849C3B28F9BDC7
:104AF000FF97F81F0F9805DE8B112FEF1F6D0A5AD5
:104B0000CF7E366DB709CB27663F464F2DEA5F9EB5
:104B1000C7BA27757BF1E5EBF739073DEA92528A70
:104B2000B15FFB6B085D8D1FA6F810111111813F5D
:104B3000D561C119A0012ABF7DFEB157E31DC73E53
:104B4000EB9C2B8AE6E55ABE7CD5CF5A3AD9E53D97
:104B5000704B000800000020B0000000C4010008F5
:104B6000204C0008B0000020C0350000E001000823
:104B70000000000000000000000000000000000035
:104B80000000000000000000000000000000000025
:104B9000920A063FC2B8323E00000000000000004A
:104BA0000000000000000000000000000000000005
:104BB00000000000000000000000000000000000F5
:104BC00000000000000000000000000000000000E5
:104BD00000000000000000000000000000000000D5
:104BE00000000000000000000000000000000000C5
:104BF00000000000000000000000000000000000B5
:104C000000000000000000000000000000000000A4
:104C10000000000102030401020304060708090062
:040000050800018965
:00000001FF
